{
	"contracts/PetitionPlatform.sol": {
		"PetitionPlatform": {
			"abi": [
				{
					"inputs": [
						{
							"internalType": "address",
							"name": "_daoMembership",
							"type": "address"
						},
						{
							"internalType": "address",
							"name": "_campaignToken",
							"type": "address"
						}
					],
					"stateMutability": "nonpayable",
					"type": "constructor"
				},
				{
					"inputs": [
						{
							"internalType": "address",
							"name": "owner",
							"type": "address"
						}
					],
					"name": "OwnableInvalidOwner",
					"type": "error"
				},
				{
					"inputs": [
						{
							"internalType": "address",
							"name": "account",
							"type": "address"
						}
					],
					"name": "OwnableUnauthorizedAccount",
					"type": "error"
				},
				{
					"inputs": [],
					"name": "ReentrancyGuardReentrantCall",
					"type": "error"
				},
				{
					"anonymous": false,
					"inputs": [
						{
							"indexed": true,
							"internalType": "address",
							"name": "previousOwner",
							"type": "address"
						},
						{
							"indexed": true,
							"internalType": "address",
							"name": "newOwner",
							"type": "address"
						}
					],
					"name": "OwnershipTransferred",
					"type": "event"
				},
				{
					"anonymous": false,
					"inputs": [
						{
							"indexed": true,
							"internalType": "uint256",
							"name": "petitionId",
							"type": "uint256"
						}
					],
					"name": "PetitionClosed",
					"type": "event"
				},
				{
					"anonymous": false,
					"inputs": [
						{
							"indexed": true,
							"internalType": "uint256",
							"name": "petitionId",
							"type": "uint256"
						},
						{
							"indexed": true,
							"internalType": "address",
							"name": "creator",
							"type": "address"
						},
						{
							"indexed": false,
							"internalType": "string",
							"name": "title",
							"type": "string"
						},
						{
							"indexed": false,
							"internalType": "string",
							"name": "imageHash",
							"type": "string"
						},
						{
							"indexed": false,
							"internalType": "uint256",
							"name": "deadline",
							"type": "uint256"
						},
						{
							"indexed": false,
							"internalType": "uint256",
							"name": "durationDays",
							"type": "uint256"
						},
						{
							"indexed": false,
							"internalType": "bool",
							"name": "usedToken",
							"type": "bool"
						},
						{
							"indexed": false,
							"internalType": "uint256",
							"name": "feePaid",
							"type": "uint256"
						}
					],
					"name": "PetitionCreated",
					"type": "event"
				},
				{
					"anonymous": false,
					"inputs": [
						{
							"indexed": true,
							"internalType": "uint256",
							"name": "petitionId",
							"type": "uint256"
						},
						{
							"indexed": true,
							"internalType": "address",
							"name": "signer",
							"type": "address"
						},
						{
							"indexed": false,
							"internalType": "uint256",
							"name": "newSignatureCount",
							"type": "uint256"
						}
					],
					"name": "PetitionSigned",
					"type": "event"
				},
				{
					"anonymous": false,
					"inputs": [
						{
							"indexed": false,
							"internalType": "uint256",
							"name": "baseFee",
							"type": "uint256"
						},
						{
							"indexed": false,
							"internalType": "uint256",
							"name": "baseDuration",
							"type": "uint256"
						},
						{
							"indexed": false,
							"internalType": "uint256",
							"name": "additionalDayFee",
							"type": "uint256"
						}
					],
					"name": "PricingConfigUpdated",
					"type": "event"
				},
				{
					"anonymous": false,
					"inputs": [
						{
							"indexed": true,
							"internalType": "address",
							"name": "creator",
							"type": "address"
						},
						{
							"indexed": false,
							"internalType": "uint256",
							"name": "amount",
							"type": "uint256"
						}
					],
					"name": "RewardTokenMinted",
					"type": "event"
				},
				{
					"inputs": [],
					"name": "additionalDayFee",
					"outputs": [
						{
							"internalType": "uint256",
							"name": "",
							"type": "uint256"
						}
					],
					"stateMutability": "view",
					"type": "function"
				},
				{
					"inputs": [],
					"name": "baseCampaignFee",
					"outputs": [
						{
							"internalType": "uint256",
							"name": "",
							"type": "uint256"
						}
					],
					"stateMutability": "view",
					"type": "function"
				},
				{
					"inputs": [],
					"name": "baseDurationDays",
					"outputs": [
						{
							"internalType": "uint256",
							"name": "",
							"type": "uint256"
						}
					],
					"stateMutability": "view",
					"type": "function"
				},
				{
					"inputs": [
						{
							"internalType": "uint256",
							"name": "_durationInDays",
							"type": "uint256"
						}
					],
					"name": "calculateCampaignFee",
					"outputs": [
						{
							"internalType": "uint256",
							"name": "",
							"type": "uint256"
						}
					],
					"stateMutability": "view",
					"type": "function"
				},
				{
					"inputs": [],
					"name": "campaignToken",
					"outputs": [
						{
							"internalType": "address",
							"name": "",
							"type": "address"
						}
					],
					"stateMutability": "view",
					"type": "function"
				},
				{
					"inputs": [
						{
							"internalType": "uint256",
							"name": "_petitionId",
							"type": "uint256"
						}
					],
					"name": "closePetition",
					"outputs": [],
					"stateMutability": "nonpayable",
					"type": "function"
				},
				{
					"inputs": [
						{
							"internalType": "string",
							"name": "_title",
							"type": "string"
						},
						{
							"internalType": "string",
							"name": "_description",
							"type": "string"
						},
						{
							"internalType": "string",
							"name": "_imageHash",
							"type": "string"
						},
						{
							"internalType": "uint256",
							"name": "_durationInDays",
							"type": "uint256"
						}
					],
					"name": "createPetition",
					"outputs": [],
					"stateMutability": "payable",
					"type": "function"
				},
				{
					"inputs": [],
					"name": "daoMembership",
					"outputs": [
						{
							"internalType": "address",
							"name": "",
							"type": "address"
						}
					],
					"stateMutability": "view",
					"type": "function"
				},
				{
					"inputs": [],
					"name": "defaultTokenDuration",
					"outputs": [
						{
							"internalType": "uint256",
							"name": "",
							"type": "uint256"
						}
					],
					"stateMutability": "view",
					"type": "function"
				},
				{
					"inputs": [
						{
							"internalType": "uint256",
							"name": "_petitionId",
							"type": "uint256"
						}
					],
					"name": "getPetition",
					"outputs": [
						{
							"components": [
								{
									"internalType": "uint256",
									"name": "id",
									"type": "uint256"
								},
								{
									"internalType": "string",
									"name": "title",
									"type": "string"
								},
								{
									"internalType": "string",
									"name": "description",
									"type": "string"
								},
								{
									"internalType": "string",
									"name": "imageHash",
									"type": "string"
								},
								{
									"internalType": "address",
									"name": "creator",
									"type": "address"
								},
								{
									"internalType": "uint256",
									"name": "createdAt",
									"type": "uint256"
								},
								{
									"internalType": "uint256",
									"name": "deadline",
									"type": "uint256"
								},
								{
									"internalType": "uint256",
									"name": "signatureCount",
									"type": "uint256"
								},
								{
									"internalType": "bool",
									"name": "isActive",
									"type": "bool"
								},
								{
									"internalType": "uint256",
									"name": "durationDays",
									"type": "uint256"
								}
							],
							"internalType": "struct PetitionPlatform.Petition",
							"name": "",
							"type": "tuple"
						}
					],
					"stateMutability": "view",
					"type": "function"
				},
				{
					"inputs": [],
					"name": "getPricingInfo",
					"outputs": [
						{
							"internalType": "uint256",
							"name": "baseFee",
							"type": "uint256"
						},
						{
							"internalType": "uint256",
							"name": "baseDuration",
							"type": "uint256"
						},
						{
							"internalType": "uint256",
							"name": "additionalFee",
							"type": "uint256"
						},
						{
							"internalType": "uint256",
							"name": "tokenDuration",
							"type": "uint256"
						}
					],
					"stateMutability": "view",
					"type": "function"
				},
				{
					"inputs": [],
					"name": "getTotalPetitions",
					"outputs": [
						{
							"internalType": "uint256",
							"name": "",
							"type": "uint256"
						}
					],
					"stateMutability": "view",
					"type": "function"
				},
				{
					"inputs": [
						{
							"internalType": "address",
							"name": "_user",
							"type": "address"
						}
					],
					"name": "getUserPaidPetitionCount",
					"outputs": [
						{
							"internalType": "uint256",
							"name": "",
							"type": "uint256"
						}
					],
					"stateMutability": "view",
					"type": "function"
				},
				{
					"inputs": [
						{
							"internalType": "uint256",
							"name": "",
							"type": "uint256"
						},
						{
							"internalType": "address",
							"name": "",
							"type": "address"
						}
					],
					"name": "hasSigned",
					"outputs": [
						{
							"internalType": "bool",
							"name": "",
							"type": "bool"
						}
					],
					"stateMutability": "view",
					"type": "function"
				},
				{
					"inputs": [
						{
							"internalType": "uint256",
							"name": "_petitionId",
							"type": "uint256"
						},
						{
							"internalType": "address",
							"name": "_user",
							"type": "address"
						}
					],
					"name": "hasUserSigned",
					"outputs": [
						{
							"internalType": "bool",
							"name": "",
							"type": "bool"
						}
					],
					"stateMutability": "view",
					"type": "function"
				},
				{
					"inputs": [],
					"name": "owner",
					"outputs": [
						{
							"internalType": "address",
							"name": "",
							"type": "address"
						}
					],
					"stateMutability": "view",
					"type": "function"
				},
				{
					"inputs": [
						{
							"internalType": "address",
							"name": "",
							"type": "address"
						}
					],
					"name": "paidPetitionCount",
					"outputs": [
						{
							"internalType": "uint256",
							"name": "",
							"type": "uint256"
						}
					],
					"stateMutability": "view",
					"type": "function"
				},
				{
					"inputs": [],
					"name": "petitionCounter",
					"outputs": [
						{
							"internalType": "uint256",
							"name": "",
							"type": "uint256"
						}
					],
					"stateMutability": "view",
					"type": "function"
				},
				{
					"inputs": [
						{
							"internalType": "uint256",
							"name": "",
							"type": "uint256"
						}
					],
					"name": "petitions",
					"outputs": [
						{
							"internalType": "uint256",
							"name": "id",
							"type": "uint256"
						},
						{
							"internalType": "string",
							"name": "title",
							"type": "string"
						},
						{
							"internalType": "string",
							"name": "description",
							"type": "string"
						},
						{
							"internalType": "string",
							"name": "imageHash",
							"type": "string"
						},
						{
							"internalType": "address",
							"name": "creator",
							"type": "address"
						},
						{
							"internalType": "uint256",
							"name": "createdAt",
							"type": "uint256"
						},
						{
							"internalType": "uint256",
							"name": "deadline",
							"type": "uint256"
						},
						{
							"internalType": "uint256",
							"name": "signatureCount",
							"type": "uint256"
						},
						{
							"internalType": "bool",
							"name": "isActive",
							"type": "bool"
						},
						{
							"internalType": "uint256",
							"name": "durationDays",
							"type": "uint256"
						}
					],
					"stateMutability": "view",
					"type": "function"
				},
				{
					"inputs": [],
					"name": "renounceOwnership",
					"outputs": [],
					"stateMutability": "nonpayable",
					"type": "function"
				},
				{
					"inputs": [],
					"name": "rewardThreshold",
					"outputs": [
						{
							"internalType": "uint256",
							"name": "",
							"type": "uint256"
						}
					],
					"stateMutability": "view",
					"type": "function"
				},
				{
					"inputs": [
						{
							"internalType": "uint256",
							"name": "_days",
							"type": "uint256"
						}
					],
					"name": "setDefaultTokenDuration",
					"outputs": [],
					"stateMutability": "nonpayable",
					"type": "function"
				},
				{
					"inputs": [
						{
							"internalType": "uint256",
							"name": "_baseFee",
							"type": "uint256"
						},
						{
							"internalType": "uint256",
							"name": "_baseDurationDays",
							"type": "uint256"
						},
						{
							"internalType": "uint256",
							"name": "_additionalDayFee",
							"type": "uint256"
						}
					],
					"name": "setPricingConfig",
					"outputs": [],
					"stateMutability": "nonpayable",
					"type": "function"
				},
				{
					"inputs": [
						{
							"internalType": "uint256",
							"name": "_threshold",
							"type": "uint256"
						}
					],
					"name": "setRewardThreshold",
					"outputs": [],
					"stateMutability": "nonpayable",
					"type": "function"
				},
				{
					"inputs": [
						{
							"internalType": "uint256",
							"name": "_petitionId",
							"type": "uint256"
						}
					],
					"name": "signPetition",
					"outputs": [],
					"stateMutability": "nonpayable",
					"type": "function"
				},
				{
					"inputs": [
						{
							"internalType": "address",
							"name": "newOwner",
							"type": "address"
						}
					],
					"name": "transferOwnership",
					"outputs": [],
					"stateMutability": "nonpayable",
					"type": "function"
				},
				{
					"inputs": [],
					"name": "withdraw",
					"outputs": [],
					"stateMutability": "nonpayable",
					"type": "function"
				}
			],
			"devdoc": {
				"details": "Core logic untuk petition voting platform - Hanya DAO member yang bisa buat petition - Petition bisa dibuat dengan Campaign Token atau bayar ETH - Siapa saja bisa sign petition (1 wallet = 1 signature) - Setiap 5 petition berbayar, creator dapat 1 Campaign Token reward - NEW: Durasi campaign bisa diatur dengan pricing dinamis",
				"errors": {
					"OwnableInvalidOwner(address)": [
						{
							"details": "The owner is not a valid owner account. (eg. `address(0)`)"
						}
					],
					"OwnableUnauthorizedAccount(address)": [
						{
							"details": "The caller account is not authorized to perform an operation."
						}
					],
					"ReentrancyGuardReentrantCall()": [
						{
							"details": "Unauthorized reentrant call."
						}
					]
				},
				"kind": "dev",
				"methods": {
					"calculateCampaignFee(uint256)": {
						"details": "Hitung biaya campaign berdasarkan durasi Formula:  - Durasi <= 7 hari: baseCampaignFee (0.002 ETH) - Durasi > 7 hari: baseCampaignFee + ((durasi - 7) * additionalDayFee)"
					},
					"closePetition(uint256)": {
						"details": "Tutup petition sebelum deadline Hanya creator atau owner yang bisa close"
					},
					"createPetition(string,string,string,uint256)": {
						"details": "Buat petition baru dengan durasi yang bisa diatur",
						"params": {
							"_description": "Deskripsi petition",
							"_durationInDays": "Durasi petition dalam hari (1-365)  Cara bayar: 1. Pakai Campaign Token (gratis) - hanya untuk durasi 7 hari (default) 2. Bayar dengan ETH - bisa pilih durasi custom (pricing dinamis)  Reward: Setiap 5 petition berbayar → 1 Campaign Token",
							"_imageHash": "IPFS hash untuk gambar campaign (dari Pinata)",
							"_title": "Judul petition"
						}
					},
					"getPetition(uint256)": {
						"details": "Get detail petition"
					},
					"getPricingInfo()": {
						"details": "Get pricing info untuk frontend"
					},
					"getTotalPetitions()": {
						"details": "Get total petition yang ada"
					},
					"getUserPaidPetitionCount(address)": {
						"details": "Get jumlah petition berbayar yang sudah dibuat user"
					},
					"hasUserSigned(uint256,address)": {
						"details": "Check apakah user sudah sign petition tertentu"
					},
					"owner()": {
						"details": "Returns the address of the current owner."
					},
					"renounceOwnership()": {
						"details": "Leaves the contract without owner. It will not be possible to call `onlyOwner` functions. Can only be called by the current owner. NOTE: Renouncing ownership will leave the contract without an owner, thereby disabling any functionality that is only available to the owner."
					},
					"setDefaultTokenDuration(uint256)": {
						"details": "Update default token duration (owner only)"
					},
					"setPricingConfig(uint256,uint256,uint256)": {
						"details": "Update pricing configuration (owner only) Untuk menyesuaikan harga base dan per hari"
					},
					"setRewardThreshold(uint256)": {
						"details": "Update reward threshold (owner only)"
					},
					"signPetition(uint256)": {
						"details": "Sign petition (tanda tangan) Gratis dan siapa saja bisa sign 1 wallet hanya bisa sign 1x per petition"
					},
					"transferOwnership(address)": {
						"details": "Transfers ownership of the contract to a new account (`newOwner`). Can only be called by the current owner."
					},
					"withdraw()": {
						"details": "Withdraw ETH dari contract ke owner"
					}
				},
				"title": "PetitionPlatform",
				"version": 1
			},
			"evm": {
				"assembly": "    /* \"contracts/PetitionPlatform.sol\":691:11134  contract PetitionPlatform is Ownable, ReentrancyGuard {... */\n  mstore(0x40, 0x80)\n    /* \"contracts/PetitionPlatform.sol\":1268:1279  0.002 ether */\n  0x071afd498d0000\n    /* \"contracts/PetitionPlatform.sol\":1235:1279  uint256 public baseCampaignFee = 0.002 ether */\n  0x05\n  sstore\n    /* \"contracts/PetitionPlatform.sol\":1350:1351  7 */\n  0x07\n    /* \"contracts/PetitionPlatform.sol\":1316:1351  uint256 public baseDurationDays = 7 */\n  0x06\n  sstore\n    /* \"contracts/PetitionPlatform.sol\":1410:1422  0.0003 ether */\n  0x0110d9316ec000\n    /* \"contracts/PetitionPlatform.sol\":1376:1422  uint256 public additionalDayFee = 0.0003 ether */\n  0x07\n  sstore\n    /* \"contracts/PetitionPlatform.sol\":1493:1494  5 */\n  0x05\n    /* \"contracts/PetitionPlatform.sol\":1460:1494  uint256 public rewardThreshold = 5 */\n  0x08\n  sstore\n    /* \"contracts/PetitionPlatform.sol\":1583:1584  7 */\n  0x07\n    /* \"contracts/PetitionPlatform.sol\":1545:1584  uint256 public defaultTokenDuration = 7 */\n  0x09\n  sstore\n    /* \"contracts/PetitionPlatform.sol\":2512:2836  constructor(address _daoMembership, address _campaignToken) Ownable(msg.sender) {... */\n  callvalue\n  dup1\n  iszero\n  tag_1\n  jumpi\n  revert(0x00, 0x00)\ntag_1:\n  pop\n  mload(0x40)\n  sub(codesize, bytecodeSize)\n  dup1\n  bytecodeSize\n  dup4\n  codecopy\n  dup2\n  dup2\n  add\n  0x40\n  mstore\n  dup2\n  add\n  swap1\n  tag_2\n  swap2\n  swap1\n  tag_3\n  jump\t// in\ntag_2:\n    /* \"contracts/PetitionPlatform.sol\":2580:2590  msg.sender */\n  caller\n    /* \"@openzeppelin/contracts/access/Ownable.sol\":1297:1298  0 */\n  0x00\n    /* \"@openzeppelin/contracts/access/Ownable.sol\":1273:1299  initialOwner == address(0) */\n  0xffffffffffffffffffffffffffffffffffffffff\n  and\n    /* \"@openzeppelin/contracts/access/Ownable.sol\":1273:1285  initialOwner */\n  dup2\n    /* \"@openzeppelin/contracts/access/Ownable.sol\":1273:1299  initialOwner == address(0) */\n  0xffffffffffffffffffffffffffffffffffffffff\n  and\n  sub\n    /* \"@openzeppelin/contracts/access/Ownable.sol\":1269:1364  if (initialOwner == address(0)) {... */\n  tag_8\n  jumpi\n    /* \"@openzeppelin/contracts/access/Ownable.sol\":1350:1351  0 */\n  0x00\n    /* \"@openzeppelin/contracts/access/Ownable.sol\":1322:1353  OwnableInvalidOwner(address(0)) */\n  mload(0x40)\n  0x1e4fbdf700000000000000000000000000000000000000000000000000000000\n  dup2\n  mstore\n  0x04\n  add\n  tag_9\n  swap2\n  swap1\n  tag_10\n  jump\t// in\ntag_9:\n  mload(0x40)\n  dup1\n  swap2\n  sub\n  swap1\n  revert\n    /* \"@openzeppelin/contracts/access/Ownable.sol\":1269:1364  if (initialOwner == address(0)) {... */\ntag_8:\n    /* \"@openzeppelin/contracts/access/Ownable.sol\":1373:1405  _transferOwnership(initialOwner) */\n  tag_11\n    /* \"@openzeppelin/contracts/access/Ownable.sol\":1392:1404  initialOwner */\n  dup2\n    /* \"@openzeppelin/contracts/access/Ownable.sol\":1373:1391  _transferOwnership */\n  shl(0x20, tag_12)\n    /* \"@openzeppelin/contracts/access/Ownable.sol\":1373:1405  _transferOwnership(initialOwner) */\n  0x20\n  shr\n  jump\t// in\ntag_11:\n    /* \"@openzeppelin/contracts/access/Ownable.sol\":1225:1412  constructor(address initialOwner) {... */\n  pop\n    /* \"@openzeppelin/contracts/utils/ReentrancyGuard.sol\":1857:1858  1 */\n  0x01\n    /* \"@openzeppelin/contracts/utils/ReentrancyGuard.sol\":2061:2068  _status */\n  dup1\n    /* \"@openzeppelin/contracts/utils/ReentrancyGuard.sol\":2061:2082  _status = NOT_ENTERED */\n  dup2\n  swap1\n  sstore\n  pop\n    /* \"contracts/PetitionPlatform.sol\":2637:2638  0 */\n  0x00\n    /* \"contracts/PetitionPlatform.sol\":2611:2639  _daoMembership != address(0) */\n  0xffffffffffffffffffffffffffffffffffffffff\n  and\n    /* \"contracts/PetitionPlatform.sol\":2611:2625  _daoMembership */\n  dup3\n    /* \"contracts/PetitionPlatform.sol\":2611:2639  _daoMembership != address(0) */\n  0xffffffffffffffffffffffffffffffffffffffff\n  and\n  sub\n    /* \"contracts/PetitionPlatform.sol\":2603:2663  require(_daoMembership != address(0), \"Invalid DAO address\") */\n  tag_15\n  jumpi\n  mload(0x40)\n  0x08c379a000000000000000000000000000000000000000000000000000000000\n  dup2\n  mstore\n  0x04\n  add\n  tag_16\n  swap1\n  tag_17\n  jump\t// in\ntag_16:\n  mload(0x40)\n  dup1\n  swap2\n  sub\n  swap1\n  revert\ntag_15:\n    /* \"contracts/PetitionPlatform.sol\":2708:2709  0 */\n  0x00\n    /* \"contracts/PetitionPlatform.sol\":2682:2710  _campaignToken != address(0) */\n  0xffffffffffffffffffffffffffffffffffffffff\n  and\n    /* \"contracts/PetitionPlatform.sol\":2682:2696  _campaignToken */\n  dup2\n    /* \"contracts/PetitionPlatform.sol\":2682:2710  _campaignToken != address(0) */\n  0xffffffffffffffffffffffffffffffffffffffff\n  and\n  sub\n    /* \"contracts/PetitionPlatform.sol\":2674:2736  require(_campaignToken != address(0), \"Invalid token address\") */\n  tag_18\n  jumpi\n  mload(0x40)\n  0x08c379a000000000000000000000000000000000000000000000000000000000\n  dup2\n  mstore\n  0x04\n  add\n  tag_19\n  swap1\n  tag_20\n  jump\t// in\ntag_19:\n  mload(0x40)\n  dup1\n  swap2\n  sub\n  swap1\n  revert\ntag_18:\n    /* \"contracts/PetitionPlatform.sol\":2773:2787  _daoMembership */\n  dup2\n    /* \"contracts/PetitionPlatform.sol\":2757:2770  daoMembership */\n  0x02\n  0x00\n    /* \"contracts/PetitionPlatform.sol\":2757:2787  daoMembership = _daoMembership */\n  0x0100\n  exp\n  dup2\n  sload\n  dup2\n  0xffffffffffffffffffffffffffffffffffffffff\n  mul\n  not\n  and\n  swap1\n  dup4\n  0xffffffffffffffffffffffffffffffffffffffff\n  and\n  mul\n  or\n  swap1\n  sstore\n  pop\n    /* \"contracts/PetitionPlatform.sol\":2814:2828  _campaignToken */\n  dup1\n    /* \"contracts/PetitionPlatform.sol\":2798:2811  campaignToken */\n  0x03\n  0x00\n    /* \"contracts/PetitionPlatform.sol\":2798:2828  campaignToken = _campaignToken */\n  0x0100\n  exp\n  dup2\n  sload\n  dup2\n  0xffffffffffffffffffffffffffffffffffffffff\n  mul\n  not\n  and\n  swap1\n  dup4\n  0xffffffffffffffffffffffffffffffffffffffff\n  and\n  mul\n  or\n  swap1\n  sstore\n  pop\n    /* \"contracts/PetitionPlatform.sol\":2512:2836  constructor(address _daoMembership, address _campaignToken) Ownable(msg.sender) {... */\n  pop\n  pop\n    /* \"contracts/PetitionPlatform.sol\":691:11134  contract PetitionPlatform is Ownable, ReentrancyGuard {... */\n  jump(tag_21)\n    /* \"@openzeppelin/contracts/access/Ownable.sol\":2912:3099  function _transferOwnership(address newOwner) internal virtual {... */\ntag_12:\n    /* \"@openzeppelin/contracts/access/Ownable.sol\":2985:3001  address oldOwner */\n  0x00\n    /* \"@openzeppelin/contracts/access/Ownable.sol\":3004:3010  _owner */\n  0x00\n  0x00\n  swap1\n  sload\n  swap1\n  0x0100\n  exp\n  swap1\n  div\n  0xffffffffffffffffffffffffffffffffffffffff\n  and\n    /* \"@openzeppelin/contracts/access/Ownable.sol\":2985:3010  address oldOwner = _owner */\n  swap1\n  pop\n    /* \"@openzeppelin/contracts/access/Ownable.sol\":3029:3037  newOwner */\n  dup2\n    /* \"@openzeppelin/contracts/access/Ownable.sol\":3020:3026  _owner */\n  0x00\n  0x00\n    /* \"@openzeppelin/contracts/access/Ownable.sol\":3020:3037  _owner = newOwner */\n  0x0100\n  exp\n  dup2\n  sload\n  dup2\n  0xffffffffffffffffffffffffffffffffffffffff\n  mul\n  not\n  and\n  swap1\n  dup4\n  0xffffffffffffffffffffffffffffffffffffffff\n  and\n  mul\n  or\n  swap1\n  sstore\n  pop\n    /* \"@openzeppelin/contracts/access/Ownable.sol\":3083:3091  newOwner */\n  dup2\n    /* \"@openzeppelin/contracts/access/Ownable.sol\":3052:3092  OwnershipTransferred(oldOwner, newOwner) */\n  0xffffffffffffffffffffffffffffffffffffffff\n  and\n    /* \"@openzeppelin/contracts/access/Ownable.sol\":3073:3081  oldOwner */\n  dup2\n    /* \"@openzeppelin/contracts/access/Ownable.sol\":3052:3092  OwnershipTransferred(oldOwner, newOwner) */\n  0xffffffffffffffffffffffffffffffffffffffff\n  and\n  0x8be0079c531659141344cd1fd0a4f28419497f9722a3daafe3b4186f6b6457e0\n  mload(0x40)\n  mload(0x40)\n  dup1\n  swap2\n  sub\n  swap1\n  log3\n    /* \"@openzeppelin/contracts/access/Ownable.sol\":2975:3099  {... */\n  pop\n    /* \"@openzeppelin/contracts/access/Ownable.sol\":2912:3099  function _transferOwnership(address newOwner) internal virtual {... */\n  pop\n  jump\t// out\n    /* \"#utility.yul\":88:205   */\ntag_24:\n    /* \"#utility.yul\":197:198   */\n  0x00\n    /* \"#utility.yul\":194:195   */\n  0x00\n    /* \"#utility.yul\":187:199   */\n  revert\n    /* \"#utility.yul\":334:460   */\ntag_26:\n    /* \"#utility.yul\":371:378   */\n  0x00\n    /* \"#utility.yul\":411:453   */\n  0xffffffffffffffffffffffffffffffffffffffff\n    /* \"#utility.yul\":404:409   */\n  dup3\n    /* \"#utility.yul\":400:454   */\n  and\n    /* \"#utility.yul\":389:454   */\n  swap1\n  pop\n    /* \"#utility.yul\":334:460   */\n  swap2\n  swap1\n  pop\n  jump\t// out\n    /* \"#utility.yul\":466:562   */\ntag_27:\n    /* \"#utility.yul\":503:510   */\n  0x00\n    /* \"#utility.yul\":532:556   */\n  tag_42\n    /* \"#utility.yul\":550:555   */\n  dup3\n    /* \"#utility.yul\":532:556   */\n  tag_26\n  jump\t// in\ntag_42:\n    /* \"#utility.yul\":521:556   */\n  swap1\n  pop\n    /* \"#utility.yul\":466:562   */\n  swap2\n  swap1\n  pop\n  jump\t// out\n    /* \"#utility.yul\":568:690   */\ntag_28:\n    /* \"#utility.yul\":641:665   */\n  tag_44\n    /* \"#utility.yul\":659:664   */\n  dup2\n    /* \"#utility.yul\":641:665   */\n  tag_27\n  jump\t// in\ntag_44:\n    /* \"#utility.yul\":634:639   */\n  dup2\n    /* \"#utility.yul\":631:666   */\n  eq\n    /* \"#utility.yul\":621:684   */\n  tag_45\n  jumpi\n    /* \"#utility.yul\":680:681   */\n  0x00\n    /* \"#utility.yul\":677:678   */\n  0x00\n    /* \"#utility.yul\":670:682   */\n  revert\n    /* \"#utility.yul\":621:684   */\ntag_45:\n    /* \"#utility.yul\":568:690   */\n  pop\n  jump\t// out\n    /* \"#utility.yul\":696:839   */\ntag_29:\n    /* \"#utility.yul\":753:758   */\n  0x00\n    /* \"#utility.yul\":784:790   */\n  dup2\n    /* \"#utility.yul\":778:791   */\n  mload\n    /* \"#utility.yul\":769:791   */\n  swap1\n  pop\n    /* \"#utility.yul\":800:833   */\n  tag_47\n    /* \"#utility.yul\":827:832   */\n  dup2\n    /* \"#utility.yul\":800:833   */\n  tag_28\n  jump\t// in\ntag_47:\n    /* \"#utility.yul\":696:839   */\n  swap3\n  swap2\n  pop\n  pop\n  jump\t// out\n    /* \"#utility.yul\":845:1352   */\ntag_3:\n    /* \"#utility.yul\":924:930   */\n  0x00\n    /* \"#utility.yul\":932:938   */\n  0x00\n    /* \"#utility.yul\":981:983   */\n  0x40\n    /* \"#utility.yul\":969:978   */\n  dup4\n    /* \"#utility.yul\":960:967   */\n  dup6\n    /* \"#utility.yul\":956:979   */\n  sub\n    /* \"#utility.yul\":952:984   */\n  slt\n    /* \"#utility.yul\":949:1068   */\n  iszero\n  tag_49\n  jumpi\n    /* \"#utility.yul\":987:1066   */\n  tag_50\n  tag_24\n  jump\t// in\ntag_50:\n    /* \"#utility.yul\":949:1068   */\ntag_49:\n    /* \"#utility.yul\":1107:1108   */\n  0x00\n    /* \"#utility.yul\":1132:1196   */\n  tag_51\n    /* \"#utility.yul\":1188:1195   */\n  dup6\n    /* \"#utility.yul\":1179:1185   */\n  dup3\n    /* \"#utility.yul\":1168:1177   */\n  dup7\n    /* \"#utility.yul\":1164:1186   */\n  add\n    /* \"#utility.yul\":1132:1196   */\n  tag_29\n  jump\t// in\ntag_51:\n    /* \"#utility.yul\":1122:1196   */\n  swap3\n  pop\n    /* \"#utility.yul\":1078:1206   */\n  pop\n    /* \"#utility.yul\":1245:1247   */\n  0x20\n    /* \"#utility.yul\":1271:1335   */\n  tag_52\n    /* \"#utility.yul\":1327:1334   */\n  dup6\n    /* \"#utility.yul\":1318:1324   */\n  dup3\n    /* \"#utility.yul\":1307:1316   */\n  dup7\n    /* \"#utility.yul\":1303:1325   */\n  add\n    /* \"#utility.yul\":1271:1335   */\n  tag_29\n  jump\t// in\ntag_52:\n    /* \"#utility.yul\":1261:1335   */\n  swap2\n  pop\n    /* \"#utility.yul\":1216:1345   */\n  pop\n    /* \"#utility.yul\":845:1352   */\n  swap3\n  pop\n  swap3\n  swap1\n  pop\n  jump\t// out\n    /* \"#utility.yul\":1358:1476   */\ntag_30:\n    /* \"#utility.yul\":1445:1469   */\n  tag_54\n    /* \"#utility.yul\":1463:1468   */\n  dup2\n    /* \"#utility.yul\":1445:1469   */\n  tag_27\n  jump\t// in\ntag_54:\n    /* \"#utility.yul\":1440:1443   */\n  dup3\n    /* \"#utility.yul\":1433:1470   */\n  mstore\n    /* \"#utility.yul\":1358:1476   */\n  pop\n  pop\n  jump\t// out\n    /* \"#utility.yul\":1482:1704   */\ntag_10:\n    /* \"#utility.yul\":1575:1579   */\n  0x00\n    /* \"#utility.yul\":1613:1615   */\n  0x20\n    /* \"#utility.yul\":1602:1611   */\n  dup3\n    /* \"#utility.yul\":1598:1616   */\n  add\n    /* \"#utility.yul\":1590:1616   */\n  swap1\n  pop\n    /* \"#utility.yul\":1626:1697   */\n  tag_56\n    /* \"#utility.yul\":1694:1695   */\n  0x00\n    /* \"#utility.yul\":1683:1692   */\n  dup4\n    /* \"#utility.yul\":1679:1696   */\n  add\n    /* \"#utility.yul\":1670:1676   */\n  dup5\n    /* \"#utility.yul\":1626:1697   */\n  tag_30\n  jump\t// in\ntag_56:\n    /* \"#utility.yul\":1482:1704   */\n  swap3\n  swap2\n  pop\n  pop\n  jump\t// out\n    /* \"#utility.yul\":1710:1879   */\ntag_31:\n    /* \"#utility.yul\":1794:1805   */\n  0x00\n    /* \"#utility.yul\":1828:1834   */\n  dup3\n    /* \"#utility.yul\":1823:1826   */\n  dup3\n    /* \"#utility.yul\":1816:1835   */\n  mstore\n    /* \"#utility.yul\":1868:1872   */\n  0x20\n    /* \"#utility.yul\":1863:1866   */\n  dup3\n    /* \"#utility.yul\":1859:1873   */\n  add\n    /* \"#utility.yul\":1844:1873   */\n  swap1\n  pop\n    /* \"#utility.yul\":1710:1879   */\n  swap3\n  swap2\n  pop\n  pop\n  jump\t// out\n    /* \"#utility.yul\":1885:2054   */\ntag_32:\n    /* \"#utility.yul\":2025:2046   */\n  0x496e76616c69642044414f206164647265737300000000000000000000000000\n    /* \"#utility.yul\":2021:2022   */\n  0x00\n    /* \"#utility.yul\":2013:2019   */\n  dup3\n    /* \"#utility.yul\":2009:2023   */\n  add\n    /* \"#utility.yul\":2002:2047   */\n  mstore\n    /* \"#utility.yul\":1885:2054   */\n  pop\n  jump\t// out\n    /* \"#utility.yul\":2060:2426   */\ntag_33:\n    /* \"#utility.yul\":2202:2205   */\n  0x00\n    /* \"#utility.yul\":2223:2290   */\n  tag_60\n    /* \"#utility.yul\":2287:2289   */\n  0x13\n    /* \"#utility.yul\":2282:2285   */\n  dup4\n    /* \"#utility.yul\":2223:2290   */\n  tag_31\n  jump\t// in\ntag_60:\n    /* \"#utility.yul\":2216:2290   */\n  swap2\n  pop\n    /* \"#utility.yul\":2299:2392   */\n  tag_61\n    /* \"#utility.yul\":2388:2391   */\n  dup3\n    /* \"#utility.yul\":2299:2392   */\n  tag_32\n  jump\t// in\ntag_61:\n    /* \"#utility.yul\":2417:2419   */\n  0x20\n    /* \"#utility.yul\":2412:2415   */\n  dup3\n    /* \"#utility.yul\":2408:2420   */\n  add\n    /* \"#utility.yul\":2401:2420   */\n  swap1\n  pop\n    /* \"#utility.yul\":2060:2426   */\n  swap2\n  swap1\n  pop\n  jump\t// out\n    /* \"#utility.yul\":2432:2851   */\ntag_17:\n    /* \"#utility.yul\":2598:2602   */\n  0x00\n    /* \"#utility.yul\":2636:2638   */\n  0x20\n    /* \"#utility.yul\":2625:2634   */\n  dup3\n    /* \"#utility.yul\":2621:2639   */\n  add\n    /* \"#utility.yul\":2613:2639   */\n  swap1\n  pop\n    /* \"#utility.yul\":2685:2694   */\n  dup2\n    /* \"#utility.yul\":2679:2683   */\n  dup2\n    /* \"#utility.yul\":2675:2695   */\n  sub\n    /* \"#utility.yul\":2671:2672   */\n  0x00\n    /* \"#utility.yul\":2660:2669   */\n  dup4\n    /* \"#utility.yul\":2656:2673   */\n  add\n    /* \"#utility.yul\":2649:2696   */\n  mstore\n    /* \"#utility.yul\":2713:2844   */\n  tag_63\n    /* \"#utility.yul\":2839:2843   */\n  dup2\n    /* \"#utility.yul\":2713:2844   */\n  tag_33\n  jump\t// in\ntag_63:\n    /* \"#utility.yul\":2705:2844   */\n  swap1\n  pop\n    /* \"#utility.yul\":2432:2851   */\n  swap2\n  swap1\n  pop\n  jump\t// out\n    /* \"#utility.yul\":2857:3028   */\ntag_34:\n    /* \"#utility.yul\":2997:3020   */\n  0x496e76616c696420746f6b656e20616464726573730000000000000000000000\n    /* \"#utility.yul\":2993:2994   */\n  0x00\n    /* \"#utility.yul\":2985:2991   */\n  dup3\n    /* \"#utility.yul\":2981:2995   */\n  add\n    /* \"#utility.yul\":2974:3021   */\n  mstore\n    /* \"#utility.yul\":2857:3028   */\n  pop\n  jump\t// out\n    /* \"#utility.yul\":3034:3400   */\ntag_35:\n    /* \"#utility.yul\":3176:3179   */\n  0x00\n    /* \"#utility.yul\":3197:3264   */\n  tag_66\n    /* \"#utility.yul\":3261:3263   */\n  0x15\n    /* \"#utility.yul\":3256:3259   */\n  dup4\n    /* \"#utility.yul\":3197:3264   */\n  tag_31\n  jump\t// in\ntag_66:\n    /* \"#utility.yul\":3190:3264   */\n  swap2\n  pop\n    /* \"#utility.yul\":3273:3366   */\n  tag_67\n    /* \"#utility.yul\":3362:3365   */\n  dup3\n    /* \"#utility.yul\":3273:3366   */\n  tag_34\n  jump\t// in\ntag_67:\n    /* \"#utility.yul\":3391:3393   */\n  0x20\n    /* \"#utility.yul\":3386:3389   */\n  dup3\n    /* \"#utility.yul\":3382:3394   */\n  add\n    /* \"#utility.yul\":3375:3394   */\n  swap1\n  pop\n    /* \"#utility.yul\":3034:3400   */\n  swap2\n  swap1\n  pop\n  jump\t// out\n    /* \"#utility.yul\":3406:3825   */\ntag_20:\n    /* \"#utility.yul\":3572:3576   */\n  0x00\n    /* \"#utility.yul\":3610:3612   */\n  0x20\n    /* \"#utility.yul\":3599:3608   */\n  dup3\n    /* \"#utility.yul\":3595:3613   */\n  add\n    /* \"#utility.yul\":3587:3613   */\n  swap1\n  pop\n    /* \"#utility.yul\":3659:3668   */\n  dup2\n    /* \"#utility.yul\":3653:3657   */\n  dup2\n    /* \"#utility.yul\":3649:3669   */\n  sub\n    /* \"#utility.yul\":3645:3646   */\n  0x00\n    /* \"#utility.yul\":3634:3643   */\n  dup4\n    /* \"#utility.yul\":3630:3647   */\n  add\n    /* \"#utility.yul\":3623:3670   */\n  mstore\n    /* \"#utility.yul\":3687:3818   */\n  tag_69\n    /* \"#utility.yul\":3813:3817   */\n  dup2\n    /* \"#utility.yul\":3687:3818   */\n  tag_35\n  jump\t// in\ntag_69:\n    /* \"#utility.yul\":3679:3818   */\n  swap1\n  pop\n    /* \"#utility.yul\":3406:3825   */\n  swap2\n  swap1\n  pop\n  jump\t// out\n    /* \"contracts/PetitionPlatform.sol\":691:11134  contract PetitionPlatform is Ownable, ReentrancyGuard {... */\ntag_21:\n  dataSize(sub_0)\n  dup1\n  dataOffset(sub_0)\n  0x00\n  codecopy\n  0x00\n  return\nstop\n\nsub_0: assembly {\n        /* \"contracts/PetitionPlatform.sol\":691:11134  contract PetitionPlatform is Ownable, ReentrancyGuard {... */\n      mstore(0x40, 0x80)\n      jumpi(tag_1, lt(calldatasize, 0x04))\n      shr(0xe0, calldataload(0x00))\n      dup1\n      0x72fa1301\n      gt\n      tag_29\n      jumpi\n      dup1\n      0xdcad0180\n      gt\n      tag_30\n      jumpi\n      dup1\n      0xeda272ba\n      gt\n      tag_31\n      jumpi\n      dup1\n      0xeda272ba\n      eq\n      tag_25\n      jumpi\n      dup1\n      0xf2fde38b\n      eq\n      tag_26\n      jumpi\n      dup1\n      0xf345a997\n      eq\n      tag_27\n      jumpi\n      dup1\n      0xf99972ef\n      eq\n      tag_28\n      jumpi\n      jump(tag_1)\n    tag_31:\n      dup1\n      0xdcad0180\n      eq\n      tag_22\n      jumpi\n      dup1\n      0xe55827f3\n      eq\n      tag_23\n      jumpi\n      dup1\n      0xeb74d835\n      eq\n      tag_24\n      jumpi\n      jump(tag_1)\n    tag_30:\n      dup1\n      0x9089c4a5\n      gt\n      tag_32\n      jumpi\n      dup1\n      0x9089c4a5\n      eq\n      tag_18\n      jumpi\n      dup1\n      0xadbcd1fc\n      eq\n      tag_19\n      jumpi\n      dup1\n      0xbc78eb8b\n      eq\n      tag_20\n      jumpi\n      dup1\n      0xcd3106ae\n      eq\n      tag_21\n      jumpi\n      jump(tag_1)\n    tag_32:\n      dup1\n      0x72fa1301\n      eq\n      tag_15\n      jumpi\n      dup1\n      0x78e18d35\n      eq\n      tag_16\n      jumpi\n      dup1\n      0x8da5cb5b\n      eq\n      tag_17\n      jumpi\n      jump(tag_1)\n    tag_29:\n      dup1\n      0x3ad50ded\n      gt\n      tag_33\n      jumpi\n      dup1\n      0x68bdd33a\n      gt\n      tag_34\n      jumpi\n      dup1\n      0x68bdd33a\n      eq\n      tag_11\n      jumpi\n      dup1\n      0x6b4acbe0\n      eq\n      tag_12\n      jumpi\n      dup1\n      0x709df8d9\n      eq\n      tag_13\n      jumpi\n      dup1\n      0x715018a6\n      eq\n      tag_14\n      jumpi\n      jump(tag_1)\n    tag_34:\n      dup1\n      0x3ad50ded\n      eq\n      tag_8\n      jumpi\n      dup1\n      0x3ccfd60b\n      eq\n      tag_9\n      jumpi\n      dup1\n      0x5ea4d29c\n      eq\n      tag_10\n      jumpi\n      jump(tag_1)\n    tag_33:\n      dup1\n      0x0c90ce42\n      eq\n      tag_2\n      jumpi\n      dup1\n      0x1f677b0f\n      eq\n      tag_3\n      jumpi\n      dup1\n      0x24f83736\n      eq\n      tag_4\n      jumpi\n      dup1\n      0x282430bc\n      eq\n      tag_5\n      jumpi\n      dup1\n      0x2fb33528\n      eq\n      tag_6\n      jumpi\n      dup1\n      0x374f6d5d\n      eq\n      tag_7\n      jumpi\n    tag_1:\n      revert(0x00, 0x00)\n        /* \"contracts/PetitionPlatform.sol\":8495:8701  function getPetition(uint256 _petitionId) external view returns (Petition memory) {... */\n    tag_2:\n      callvalue\n      dup1\n      iszero\n      tag_35\n      jumpi\n      revert(0x00, 0x00)\n    tag_35:\n      pop\n      tag_36\n      0x04\n      dup1\n      calldatasize\n      sub\n      dup2\n      add\n      swap1\n      tag_37\n      swap2\n      swap1\n      tag_38\n      jump\t// in\n    tag_37:\n      tag_39\n      jump\t// in\n    tag_36:\n      mload(0x40)\n      tag_40\n      swap2\n      swap1\n      tag_41\n      jump\t// in\n    tag_40:\n      mload(0x40)\n      dup1\n      swap2\n      sub\n      swap1\n      return\n        /* \"contracts/PetitionPlatform.sol\":4176:7056  function createPetition(... */\n    tag_3:\n      tag_42\n      0x04\n      dup1\n      calldatasize\n      sub\n      dup2\n      add\n      swap1\n      tag_43\n      swap2\n      swap1\n      tag_44\n      jump\t// in\n    tag_43:\n      tag_45\n      jump\t// in\n    tag_42:\n      stop\n        /* \"contracts/PetitionPlatform.sol\":9296:9750  function setPricingConfig(... */\n    tag_4:\n      callvalue\n      dup1\n      iszero\n      tag_46\n      jumpi\n      revert(0x00, 0x00)\n    tag_46:\n      pop\n      tag_47\n      0x04\n      dup1\n      calldatasize\n      sub\n      dup2\n      add\n      swap1\n      tag_48\n      swap2\n      swap1\n      tag_49\n      jump\t// in\n    tag_48:\n      tag_50\n      jump\t// in\n    tag_47:\n      stop\n        /* \"contracts/PetitionPlatform.sol\":1316:1351  uint256 public baseDurationDays = 7 */\n    tag_5:\n      callvalue\n      dup1\n      iszero\n      tag_51\n      jumpi\n      revert(0x00, 0x00)\n    tag_51:\n      pop\n      tag_52\n      tag_53\n      jump\t// in\n    tag_52:\n      mload(0x40)\n      tag_54\n      swap2\n      swap1\n      tag_55\n      jump\t// in\n    tag_54:\n      mload(0x40)\n      dup1\n      swap2\n      sub\n      swap1\n      return\n        /* \"contracts/PetitionPlatform.sol\":1162:1192  uint256 public petitionCounter */\n    tag_6:\n      callvalue\n      dup1\n      iszero\n      tag_56\n      jumpi\n      revert(0x00, 0x00)\n    tag_56:\n      pop\n      tag_57\n      tag_58\n      jump\t// in\n    tag_57:\n      mload(0x40)\n      tag_59\n      swap2\n      swap1\n      tag_55\n      jump\t// in\n    tag_59:\n      mload(0x40)\n      dup1\n      swap2\n      sub\n      swap1\n      return\n        /* \"contracts/PetitionPlatform.sol\":10790:11131  function getPricingInfo() external view returns (... */\n    tag_7:\n      callvalue\n      dup1\n      iszero\n      tag_60\n      jumpi\n      revert(0x00, 0x00)\n    tag_60:\n      pop\n      tag_61\n      tag_62\n      jump\t// in\n    tag_61:\n      mload(0x40)\n      tag_63\n      swap5\n      swap4\n      swap3\n      swap2\n      swap1\n      tag_64\n      jump\t// in\n    tag_63:\n      mload(0x40)\n      dup1\n      swap2\n      sub\n      swap1\n      return\n        /* \"contracts/PetitionPlatform.sol\":1634:1679  mapping(uint256 => Petition) public petitions */\n    tag_8:\n      callvalue\n      dup1\n      iszero\n      tag_65\n      jumpi\n      revert(0x00, 0x00)\n    tag_65:\n      pop\n      tag_66\n      0x04\n      dup1\n      calldatasize\n      sub\n      dup2\n      add\n      swap1\n      tag_67\n      swap2\n      swap1\n      tag_38\n      jump\t// in\n    tag_67:\n      tag_68\n      jump\t// in\n    tag_66:\n      mload(0x40)\n      tag_69\n      swap11\n      swap10\n      swap9\n      swap8\n      swap7\n      swap6\n      swap5\n      swap4\n      swap3\n      swap2\n      swap1\n      tag_70\n      jump\t// in\n    tag_69:\n      mload(0x40)\n      dup1\n      swap2\n      sub\n      swap1\n      return\n        /* \"contracts/PetitionPlatform.sol\":10343:10542  function withdraw() external onlyOwner {... */\n    tag_9:\n      callvalue\n      dup1\n      iszero\n      tag_71\n      jumpi\n      revert(0x00, 0x00)\n    tag_71:\n      pop\n      tag_72\n      tag_73\n      jump\t// in\n    tag_72:\n      stop\n        /* \"contracts/PetitionPlatform.sol\":1460:1494  uint256 public rewardThreshold = 5 */\n    tag_10:\n      callvalue\n      dup1\n      iszero\n      tag_74\n      jumpi\n      revert(0x00, 0x00)\n    tag_74:\n      pop\n      tag_75\n      tag_76\n      jump\t// in\n    tag_75:\n      mload(0x40)\n      tag_77\n      swap2\n      swap1\n      tag_55\n      jump\t// in\n    tag_77:\n      mload(0x40)\n      dup1\n      swap2\n      sub\n      swap1\n      return\n        /* \"contracts/PetitionPlatform.sol\":9830:9999  function setRewardThreshold(uint256 _threshold) external onlyOwner {... */\n    tag_11:\n      callvalue\n      dup1\n      iszero\n      tag_78\n      jumpi\n      revert(0x00, 0x00)\n    tag_78:\n      pop\n      tag_79\n      0x04\n      dup1\n      calldatasize\n      sub\n      dup2\n      add\n      swap1\n      tag_80\n      swap2\n      swap1\n      tag_38\n      jump\t// in\n    tag_80:\n      tag_81\n      jump\t// in\n    tag_79:\n      stop\n        /* \"contracts/PetitionPlatform.sol\":8796:8927  function getUserPaidPetitionCount(address _user) external view returns (uint256) {... */\n    tag_12:\n      callvalue\n      dup1\n      iszero\n      tag_82\n      jumpi\n      revert(0x00, 0x00)\n    tag_82:\n      pop\n      tag_83\n      0x04\n      dup1\n      calldatasize\n      sub\n      dup2\n      add\n      swap1\n      tag_84\n      swap2\n      swap1\n      tag_85\n      jump\t// in\n    tag_84:\n      tag_86\n      jump\t// in\n    tag_83:\n      mload(0x40)\n      tag_87\n      swap2\n      swap1\n      tag_55\n      jump\t// in\n    tag_87:\n      mload(0x40)\n      dup1\n      swap2\n      sub\n      swap1\n      return\n        /* \"contracts/PetitionPlatform.sol\":1745:1806  mapping(uint256 => mapping(address => bool)) public hasSigned */\n    tag_13:\n      callvalue\n      dup1\n      iszero\n      tag_88\n      jumpi\n      revert(0x00, 0x00)\n    tag_88:\n      pop\n      tag_89\n      0x04\n      dup1\n      calldatasize\n      sub\n      dup2\n      add\n      swap1\n      tag_90\n      swap2\n      swap1\n      tag_91\n      jump\t// in\n    tag_90:\n      tag_92\n      jump\t// in\n    tag_89:\n      mload(0x40)\n      tag_93\n      swap2\n      swap1\n      tag_94\n      jump\t// in\n    tag_93:\n      mload(0x40)\n      dup1\n      swap2\n      sub\n      swap1\n      return\n        /* \"@openzeppelin/contracts/access/Ownable.sol\":2293:2394  function renounceOwnership() public virtual onlyOwner {... */\n    tag_14:\n      callvalue\n      dup1\n      iszero\n      tag_95\n      jumpi\n      revert(0x00, 0x00)\n    tag_95:\n      pop\n      tag_96\n      tag_97\n      jump\t// in\n    tag_96:\n      stop\n        /* \"contracts/PetitionPlatform.sol\":10613:10715  function getTotalPetitions() external view returns (uint256) {... */\n    tag_15:\n      callvalue\n      dup1\n      iszero\n      tag_98\n      jumpi\n      revert(0x00, 0x00)\n    tag_98:\n      pop\n      tag_99\n      tag_100\n      jump\t// in\n    tag_99:\n      mload(0x40)\n      tag_101\n      swap2\n      swap1\n      tag_55\n      jump\t// in\n    tag_101:\n      mload(0x40)\n      dup1\n      swap2\n      sub\n      swap1\n      return\n        /* \"contracts/PetitionPlatform.sol\":1086:1114  address public daoMembership */\n    tag_16:\n      callvalue\n      dup1\n      iszero\n      tag_102\n      jumpi\n      revert(0x00, 0x00)\n    tag_102:\n      pop\n      tag_103\n      tag_104\n      jump\t// in\n    tag_103:\n      mload(0x40)\n      tag_105\n      swap2\n      swap1\n      tag_106\n      jump\t// in\n    tag_105:\n      mload(0x40)\n      dup1\n      swap2\n      sub\n      swap1\n      return\n        /* \"@openzeppelin/contracts/access/Ownable.sol\":1638:1723  function owner() public view virtual returns (address) {... */\n    tag_17:\n      callvalue\n      dup1\n      iszero\n      tag_107\n      jumpi\n      revert(0x00, 0x00)\n    tag_107:\n      pop\n      tag_108\n      tag_109\n      jump\t// in\n    tag_108:\n      mload(0x40)\n      tag_110\n      swap2\n      swap1\n      tag_106\n      jump\t// in\n    tag_110:\n      mload(0x40)\n      dup1\n      swap2\n      sub\n      swap1\n      return\n        /* \"contracts/PetitionPlatform.sol\":1121:1149  address public campaignToken */\n    tag_18:\n      callvalue\n      dup1\n      iszero\n      tag_111\n      jumpi\n      revert(0x00, 0x00)\n    tag_111:\n      pop\n      tag_112\n      tag_113\n      jump\t// in\n    tag_112:\n      mload(0x40)\n      tag_114\n      swap2\n      swap1\n      tag_106\n      jump\t// in\n    tag_114:\n      mload(0x40)\n      dup1\n      swap2\n      sub\n      swap1\n      return\n        /* \"contracts/PetitionPlatform.sol\":10085:10264  function setDefaultTokenDuration(uint256 _days) external onlyOwner {... */\n    tag_19:\n      callvalue\n      dup1\n      iszero\n      tag_115\n      jumpi\n      revert(0x00, 0x00)\n    tag_115:\n      pop\n      tag_116\n      0x04\n      dup1\n      calldatasize\n      sub\n      dup2\n      add\n      swap1\n      tag_117\n      swap2\n      swap1\n      tag_38\n      jump\t// in\n    tag_117:\n      tag_118\n      jump\t// in\n    tag_116:\n      stop\n        /* \"contracts/PetitionPlatform.sol\":1545:1584  uint256 public defaultTokenDuration = 7 */\n    tag_20:\n      callvalue\n      dup1\n      iszero\n      tag_119\n      jumpi\n      revert(0x00, 0x00)\n    tag_119:\n      pop\n      tag_120\n      tag_121\n      jump\t// in\n    tag_120:\n      mload(0x40)\n      tag_122\n      swap2\n      swap1\n      tag_55\n      jump\t// in\n    tag_122:\n      mload(0x40)\n      dup1\n      swap2\n      sub\n      swap1\n      return\n        /* \"contracts/PetitionPlatform.sol\":1235:1279  uint256 public baseCampaignFee = 0.002 ether */\n    tag_21:\n      callvalue\n      dup1\n      iszero\n      tag_123\n      jumpi\n      revert(0x00, 0x00)\n    tag_123:\n      pop\n      tag_124\n      tag_125\n      jump\t// in\n    tag_124:\n      mload(0x40)\n      tag_126\n      swap2\n      swap1\n      tag_55\n      jump\t// in\n    tag_126:\n      mload(0x40)\n      dup1\n      swap2\n      sub\n      swap1\n      return\n        /* \"contracts/PetitionPlatform.sol\":7217:7826  function signPetition(uint256 _petitionId) external {... */\n    tag_22:\n      callvalue\n      dup1\n      iszero\n      tag_127\n      jumpi\n      revert(0x00, 0x00)\n    tag_127:\n      pop\n      tag_128\n      0x04\n      dup1\n      calldatasize\n      sub\n      dup2\n      add\n      swap1\n      tag_129\n      swap2\n      swap1\n      tag_38\n      jump\t// in\n    tag_129:\n      tag_130\n      jump\t// in\n    tag_128:\n      stop\n        /* \"contracts/PetitionPlatform.sol\":3273:3607  function calculateCampaignFee(uint256 _durationInDays) public view returns (uint256) {... */\n    tag_23:\n      callvalue\n      dup1\n      iszero\n      tag_131\n      jumpi\n      revert(0x00, 0x00)\n    tag_131:\n      pop\n      tag_132\n      0x04\n      dup1\n      calldatasize\n      sub\n      dup2\n      add\n      swap1\n      tag_133\n      swap2\n      swap1\n      tag_38\n      jump\t// in\n    tag_133:\n      tag_134\n      jump\t// in\n    tag_132:\n      mload(0x40)\n      tag_135\n      swap2\n      swap1\n      tag_55\n      jump\t// in\n    tag_135:\n      mload(0x40)\n      dup1\n      swap2\n      sub\n      swap1\n      return\n        /* \"contracts/PetitionPlatform.sol\":9017:9160  function hasUserSigned(uint256 _petitionId, address _user) external view returns (bool) {... */\n    tag_24:\n      callvalue\n      dup1\n      iszero\n      tag_136\n      jumpi\n      revert(0x00, 0x00)\n    tag_136:\n      pop\n      tag_137\n      0x04\n      dup1\n      calldatasize\n      sub\n      dup2\n      add\n      swap1\n      tag_138\n      swap2\n      swap1\n      tag_91\n      jump\t// in\n    tag_138:\n      tag_139\n      jump\t// in\n    tag_137:\n      mload(0x40)\n      tag_140\n      swap2\n      swap1\n      tag_94\n      jump\t// in\n    tag_140:\n      mload(0x40)\n      dup1\n      swap2\n      sub\n      swap1\n      return\n        /* \"contracts/PetitionPlatform.sol\":1376:1422  uint256 public additionalDayFee = 0.0003 ether */\n    tag_25:\n      callvalue\n      dup1\n      iszero\n      tag_141\n      jumpi\n      revert(0x00, 0x00)\n    tag_141:\n      pop\n      tag_142\n      tag_143\n      jump\t// in\n    tag_142:\n      mload(0x40)\n      tag_144\n      swap2\n      swap1\n      tag_55\n      jump\t// in\n    tag_144:\n      mload(0x40)\n      dup1\n      swap2\n      sub\n      swap1\n      return\n        /* \"@openzeppelin/contracts/access/Ownable.sol\":2543:2758  function transferOwnership(address newOwner) public virtual onlyOwner {... */\n    tag_26:\n      callvalue\n      dup1\n      iszero\n      tag_145\n      jumpi\n      revert(0x00, 0x00)\n    tag_145:\n      pop\n      tag_146\n      0x04\n      dup1\n      calldatasize\n      sub\n      dup2\n      add\n      swap1\n      tag_147\n      swap2\n      swap1\n      tag_85\n      jump\t// in\n    tag_147:\n      tag_148\n      jump\t// in\n    tag_146:\n      stop\n        /* \"contracts/PetitionPlatform.sol\":7950:8432  function closePetition(uint256 _petitionId) external {... */\n    tag_27:\n      callvalue\n      dup1\n      iszero\n      tag_149\n      jumpi\n      revert(0x00, 0x00)\n    tag_149:\n      pop\n      tag_150\n      0x04\n      dup1\n      calldatasize\n      sub\n      dup2\n      add\n      swap1\n      tag_151\n      swap2\n      swap1\n      tag_38\n      jump\t// in\n    tag_151:\n      tag_152\n      jump\t// in\n    tag_150:\n      stop\n        /* \"contracts/PetitionPlatform.sol\":1686:1738  mapping(address => uint256) public paidPetitionCount */\n    tag_28:\n      callvalue\n      dup1\n      iszero\n      tag_153\n      jumpi\n      revert(0x00, 0x00)\n    tag_153:\n      pop\n      tag_154\n      0x04\n      dup1\n      calldatasize\n      sub\n      dup2\n      add\n      swap1\n      tag_155\n      swap2\n      swap1\n      tag_85\n      jump\t// in\n    tag_155:\n      tag_156\n      jump\t// in\n    tag_154:\n      mload(0x40)\n      tag_157\n      swap2\n      swap1\n      tag_55\n      jump\t// in\n    tag_157:\n      mload(0x40)\n      dup1\n      swap2\n      sub\n      swap1\n      return\n        /* \"contracts/PetitionPlatform.sol\":8495:8701  function getPetition(uint256 _petitionId) external view returns (Petition memory) {... */\n    tag_39:\n        /* \"contracts/PetitionPlatform.sol\":8560:8575  Petition memory */\n      tag_158\n      tag_159\n      jump\t// in\n    tag_158:\n        /* \"contracts/PetitionPlatform.sol\":8610:8625  petitionCounter */\n      sload(0x04)\n        /* \"contracts/PetitionPlatform.sol\":8596:8607  _petitionId */\n      dup3\n        /* \"contracts/PetitionPlatform.sol\":8596:8625  _petitionId < petitionCounter */\n      lt\n        /* \"contracts/PetitionPlatform.sol\":8588:8653  require(_petitionId < petitionCounter, \"Petition does not exist\") */\n      tag_161\n      jumpi\n      mload(0x40)\n      0x08c379a000000000000000000000000000000000000000000000000000000000\n      dup2\n      mstore\n      0x04\n      add\n      tag_162\n      swap1\n      tag_163\n      jump\t// in\n    tag_162:\n      mload(0x40)\n      dup1\n      swap2\n      sub\n      swap1\n      revert\n    tag_161:\n        /* \"contracts/PetitionPlatform.sol\":8671:8680  petitions */\n      0x0a\n        /* \"contracts/PetitionPlatform.sol\":8671:8693  petitions[_petitionId] */\n      0x00\n        /* \"contracts/PetitionPlatform.sol\":8681:8692  _petitionId */\n      dup4\n        /* \"contracts/PetitionPlatform.sol\":8671:8693  petitions[_petitionId] */\n      dup2\n      mstore\n      0x20\n      add\n      swap1\n      dup2\n      mstore\n      0x20\n      add\n      0x00\n      keccak256\n        /* \"contracts/PetitionPlatform.sol\":8664:8693  return petitions[_petitionId] */\n      mload(0x40)\n      dup1\n      0x0140\n      add\n      0x40\n      mstore\n      swap1\n      dup2\n      0x00\n      dup3\n      add\n      sload\n      dup2\n      mstore\n      0x20\n      add\n      0x01\n      dup3\n      add\n      dup1\n      sload\n      tag_164\n      swap1\n      tag_165\n      jump\t// in\n    tag_164:\n      dup1\n      0x1f\n      add\n      0x20\n      dup1\n      swap2\n      div\n      mul\n      0x20\n      add\n      mload(0x40)\n      swap1\n      dup2\n      add\n      0x40\n      mstore\n      dup1\n      swap3\n      swap2\n      swap1\n      dup2\n      dup2\n      mstore\n      0x20\n      add\n      dup3\n      dup1\n      sload\n      tag_166\n      swap1\n      tag_165\n      jump\t// in\n    tag_166:\n      dup1\n      iszero\n      tag_167\n      jumpi\n      dup1\n      0x1f\n      lt\n      tag_168\n      jumpi\n      0x0100\n      dup1\n      dup4\n      sload\n      div\n      mul\n      dup4\n      mstore\n      swap2\n      0x20\n      add\n      swap2\n      jump(tag_167)\n    tag_168:\n      dup3\n      add\n      swap2\n      swap1\n      0x00\n      mstore\n      keccak256(0x00, 0x20)\n      swap1\n    tag_169:\n      dup2\n      sload\n      dup2\n      mstore\n      swap1\n      0x01\n      add\n      swap1\n      0x20\n      add\n      dup1\n      dup4\n      gt\n      tag_169\n      jumpi\n      dup3\n      swap1\n      sub\n      0x1f\n      and\n      dup3\n      add\n      swap2\n    tag_167:\n      pop\n      pop\n      pop\n      pop\n      pop\n      dup2\n      mstore\n      0x20\n      add\n      0x02\n      dup3\n      add\n      dup1\n      sload\n      tag_170\n      swap1\n      tag_165\n      jump\t// in\n    tag_170:\n      dup1\n      0x1f\n      add\n      0x20\n      dup1\n      swap2\n      div\n      mul\n      0x20\n      add\n      mload(0x40)\n      swap1\n      dup2\n      add\n      0x40\n      mstore\n      dup1\n      swap3\n      swap2\n      swap1\n      dup2\n      dup2\n      mstore\n      0x20\n      add\n      dup3\n      dup1\n      sload\n      tag_171\n      swap1\n      tag_165\n      jump\t// in\n    tag_171:\n      dup1\n      iszero\n      tag_172\n      jumpi\n      dup1\n      0x1f\n      lt\n      tag_173\n      jumpi\n      0x0100\n      dup1\n      dup4\n      sload\n      div\n      mul\n      dup4\n      mstore\n      swap2\n      0x20\n      add\n      swap2\n      jump(tag_172)\n    tag_173:\n      dup3\n      add\n      swap2\n      swap1\n      0x00\n      mstore\n      keccak256(0x00, 0x20)\n      swap1\n    tag_174:\n      dup2\n      sload\n      dup2\n      mstore\n      swap1\n      0x01\n      add\n      swap1\n      0x20\n      add\n      dup1\n      dup4\n      gt\n      tag_174\n      jumpi\n      dup3\n      swap1\n      sub\n      0x1f\n      and\n      dup3\n      add\n      swap2\n    tag_172:\n      pop\n      pop\n      pop\n      pop\n      pop\n      dup2\n      mstore\n      0x20\n      add\n      0x03\n      dup3\n      add\n      dup1\n      sload\n      tag_175\n      swap1\n      tag_165\n      jump\t// in\n    tag_175:\n      dup1\n      0x1f\n      add\n      0x20\n      dup1\n      swap2\n      div\n      mul\n      0x20\n      add\n      mload(0x40)\n      swap1\n      dup2\n      add\n      0x40\n      mstore\n      dup1\n      swap3\n      swap2\n      swap1\n      dup2\n      dup2\n      mstore\n      0x20\n      add\n      dup3\n      dup1\n      sload\n      tag_176\n      swap1\n      tag_165\n      jump\t// in\n    tag_176:\n      dup1\n      iszero\n      tag_177\n      jumpi\n      dup1\n      0x1f\n      lt\n      tag_178\n      jumpi\n      0x0100\n      dup1\n      dup4\n      sload\n      div\n      mul\n      dup4\n      mstore\n      swap2\n      0x20\n      add\n      swap2\n      jump(tag_177)\n    tag_178:\n      dup3\n      add\n      swap2\n      swap1\n      0x00\n      mstore\n      keccak256(0x00, 0x20)\n      swap1\n    tag_179:\n      dup2\n      sload\n      dup2\n      mstore\n      swap1\n      0x01\n      add\n      swap1\n      0x20\n      add\n      dup1\n      dup4\n      gt\n      tag_179\n      jumpi\n      dup3\n      swap1\n      sub\n      0x1f\n      and\n      dup3\n      add\n      swap2\n    tag_177:\n      pop\n      pop\n      pop\n      pop\n      pop\n      dup2\n      mstore\n      0x20\n      add\n      0x04\n      dup3\n      add\n      0x00\n      swap1\n      sload\n      swap1\n      0x0100\n      exp\n      swap1\n      div\n      0xffffffffffffffffffffffffffffffffffffffff\n      and\n      0xffffffffffffffffffffffffffffffffffffffff\n      and\n      0xffffffffffffffffffffffffffffffffffffffff\n      and\n      dup2\n      mstore\n      0x20\n      add\n      0x05\n      dup3\n      add\n      sload\n      dup2\n      mstore\n      0x20\n      add\n      0x06\n      dup3\n      add\n      sload\n      dup2\n      mstore\n      0x20\n      add\n      0x07\n      dup3\n      add\n      sload\n      dup2\n      mstore\n      0x20\n      add\n      0x08\n      dup3\n      add\n      0x00\n      swap1\n      sload\n      swap1\n      0x0100\n      exp\n      swap1\n      div\n      0xff\n      and\n      iszero\n      iszero\n      iszero\n      iszero\n      dup2\n      mstore\n      0x20\n      add\n      0x09\n      dup3\n      add\n      sload\n      dup2\n      mstore\n      pop\n      pop\n      swap1\n      pop\n        /* \"contracts/PetitionPlatform.sol\":8495:8701  function getPetition(uint256 _petitionId) external view returns (Petition memory) {... */\n      swap2\n      swap1\n      pop\n      jump\t// out\n        /* \"contracts/PetitionPlatform.sol\":4176:7056  function createPetition(... */\n    tag_45:\n        /* \"@openzeppelin/contracts/utils/ReentrancyGuard.sol\":2500:2521  _nonReentrantBefore() */\n      tag_181\n        /* \"@openzeppelin/contracts/utils/ReentrancyGuard.sol\":2500:2519  _nonReentrantBefore */\n      tag_182\n        /* \"@openzeppelin/contracts/utils/ReentrancyGuard.sol\":2500:2521  _nonReentrantBefore() */\n      jump\t// in\n    tag_181:\n        /* \"contracts/PetitionPlatform.sol\":4393:4413  isMember(msg.sender) */\n      tag_184\n        /* \"contracts/PetitionPlatform.sol\":4402:4412  msg.sender */\n      caller\n        /* \"contracts/PetitionPlatform.sol\":4393:4401  isMember */\n      tag_185\n        /* \"contracts/PetitionPlatform.sol\":4393:4413  isMember(msg.sender) */\n      jump\t// in\n    tag_184:\n        /* \"contracts/PetitionPlatform.sol\":4385:4434  require(isMember(msg.sender), \"Not a DAO member\") */\n      tag_186\n      jumpi\n      mload(0x40)\n      0x08c379a000000000000000000000000000000000000000000000000000000000\n      dup2\n      mstore\n      0x04\n      add\n      tag_187\n      swap1\n      tag_188\n      jump\t// in\n    tag_187:\n      mload(0x40)\n      dup1\n      swap2\n      sub\n      swap1\n      revert\n    tag_186:\n        /* \"contracts/PetitionPlatform.sol\":4476:4477  0 */\n      0x00\n        /* \"contracts/PetitionPlatform.sol\":4459:4465  _title */\n      dup5\n        /* \"contracts/PetitionPlatform.sol\":4453:4473  bytes(_title).length */\n      mload\n        /* \"contracts/PetitionPlatform.sol\":4453:4477  bytes(_title).length > 0 */\n      gt\n        /* \"contracts/PetitionPlatform.sol\":4445:4503  require(bytes(_title).length > 0, \"Title cannot be empty\") */\n      tag_189\n      jumpi\n      mload(0x40)\n      0x08c379a000000000000000000000000000000000000000000000000000000000\n      dup2\n      mstore\n      0x04\n      add\n      tag_190\n      swap1\n      tag_191\n      jump\t// in\n    tag_190:\n      mload(0x40)\n      dup1\n      swap2\n      sub\n      swap1\n      revert\n    tag_189:\n        /* \"contracts/PetitionPlatform.sol\":4551:4552  0 */\n      0x00\n        /* \"contracts/PetitionPlatform.sol\":4528:4540  _description */\n      dup4\n        /* \"contracts/PetitionPlatform.sol\":4522:4548  bytes(_description).length */\n      mload\n        /* \"contracts/PetitionPlatform.sol\":4522:4552  bytes(_description).length > 0 */\n      gt\n        /* \"contracts/PetitionPlatform.sol\":4514:4584  require(bytes(_description).length > 0, \"Description cannot be empty\") */\n      tag_192\n      jumpi\n      mload(0x40)\n      0x08c379a000000000000000000000000000000000000000000000000000000000\n      dup2\n      mstore\n      0x04\n      add\n      tag_193\n      swap1\n      tag_194\n      jump\t// in\n    tag_193:\n      mload(0x40)\n      dup1\n      swap2\n      sub\n      swap1\n      revert\n    tag_192:\n        /* \"contracts/PetitionPlatform.sol\":4630:4631  0 */\n      0x00\n        /* \"contracts/PetitionPlatform.sol\":4609:4619  _imageHash */\n      dup3\n        /* \"contracts/PetitionPlatform.sol\":4603:4627  bytes(_imageHash).length */\n      mload\n        /* \"contracts/PetitionPlatform.sol\":4603:4631  bytes(_imageHash).length > 0 */\n      gt\n        /* \"contracts/PetitionPlatform.sol\":4595:4662  require(bytes(_imageHash).length > 0, \"Image hash cannot be empty\") */\n      tag_195\n      jumpi\n      mload(0x40)\n      0x08c379a000000000000000000000000000000000000000000000000000000000\n      dup2\n      mstore\n      0x04\n      add\n      tag_196\n      swap1\n      tag_197\n      jump\t// in\n    tag_196:\n      mload(0x40)\n      dup1\n      swap2\n      sub\n      swap1\n      revert\n    tag_195:\n        /* \"contracts/PetitionPlatform.sol\":4699:4700  0 */\n      0x00\n        /* \"contracts/PetitionPlatform.sol\":4681:4696  _durationInDays */\n      dup2\n        /* \"contracts/PetitionPlatform.sol\":4681:4700  _durationInDays > 0 */\n      gt\n        /* \"contracts/PetitionPlatform.sol\":4681:4726  _durationInDays > 0 && _durationInDays <= 365 */\n      dup1\n      iszero\n      tag_198\n      jumpi\n      pop\n        /* \"contracts/PetitionPlatform.sol\":4723:4726  365 */\n      0x016d\n        /* \"contracts/PetitionPlatform.sol\":4704:4719  _durationInDays */\n      dup2\n        /* \"contracts/PetitionPlatform.sol\":4704:4726  _durationInDays <= 365 */\n      gt\n      iszero\n        /* \"contracts/PetitionPlatform.sol\":4681:4726  _durationInDays > 0 && _durationInDays <= 365 */\n    tag_198:\n        /* \"contracts/PetitionPlatform.sol\":4673:4758  require(_durationInDays > 0 && _durationInDays <= 365, \"Duration must be 1-365 days\") */\n      tag_199\n      jumpi\n      mload(0x40)\n      0x08c379a000000000000000000000000000000000000000000000000000000000\n      dup2\n      mstore\n      0x04\n      add\n      tag_200\n      swap1\n      tag_201\n      jump\t// in\n    tag_200:\n      mload(0x40)\n      dup1\n      swap2\n      sub\n      swap1\n      revert\n    tag_199:\n        /* \"contracts/PetitionPlatform.sol\":4779:4793  bool usedToken */\n      0x00\n        /* \"contracts/PetitionPlatform.sol\":4796:4801  false */\n      0x00\n        /* \"contracts/PetitionPlatform.sol\":4779:4801  bool usedToken = false */\n      swap1\n      pop\n        /* \"contracts/PetitionPlatform.sol\":4812:4827  uint256 feePaid */\n      0x00\n        /* \"contracts/PetitionPlatform.sol\":4830:4831  0 */\n      0x00\n        /* \"contracts/PetitionPlatform.sol\":4812:4831  uint256 feePaid = 0 */\n      swap1\n      pop\n        /* \"contracts/PetitionPlatform.sol\":4842:4866  uint256 userTokenBalance */\n      0x00\n        /* \"contracts/PetitionPlatform.sol\":4876:4889  campaignToken */\n      0x03\n      0x00\n      swap1\n      sload\n      swap1\n      0x0100\n      exp\n      swap1\n      div\n      0xffffffffffffffffffffffffffffffffffffffff\n      and\n        /* \"contracts/PetitionPlatform.sol\":4869:4900  IERC20(campaignToken).balanceOf */\n      0xffffffffffffffffffffffffffffffffffffffff\n      and\n      0x70a08231\n        /* \"contracts/PetitionPlatform.sol\":4901:4911  msg.sender */\n      caller\n        /* \"contracts/PetitionPlatform.sol\":4869:4912  IERC20(campaignToken).balanceOf(msg.sender) */\n      mload(0x40)\n      dup3\n      0xffffffff\n      and\n      0xe0\n      shl\n      dup2\n      mstore\n      0x04\n      add\n      tag_202\n      swap2\n      swap1\n      tag_106\n      jump\t// in\n    tag_202:\n      0x20\n      mload(0x40)\n      dup1\n      dup4\n      sub\n      dup2\n      dup7\n      gas\n      staticcall\n      iszero\n      dup1\n      iszero\n      tag_204\n      jumpi\n      returndatacopy(0x00, 0x00, returndatasize)\n      revert(0x00, returndatasize)\n    tag_204:\n      pop\n      pop\n      pop\n      pop\n      mload(0x40)\n      returndatasize\n      not(0x1f)\n      0x1f\n      dup3\n      add\n      and\n      dup3\n      add\n      dup1\n      0x40\n      mstore\n      pop\n      dup2\n      add\n      swap1\n      tag_205\n      swap2\n      swap1\n      tag_206\n      jump\t// in\n    tag_205:\n        /* \"contracts/PetitionPlatform.sol\":4842:4912  uint256 userTokenBalance = IERC20(campaignToken).balanceOf(msg.sender) */\n      swap1\n      pop\n        /* \"contracts/PetitionPlatform.sol\":5002:5012  1 * 10**18 */\n      0x0de0b6b3a7640000\n        /* \"contracts/PetitionPlatform.sol\":4982:4998  userTokenBalance */\n      dup2\n        /* \"contracts/PetitionPlatform.sol\":4982:5012  userTokenBalance >= 1 * 10**18 */\n      lt\n      iszero\n        /* \"contracts/PetitionPlatform.sol\":4982:5055  userTokenBalance >= 1 * 10**18 && _durationInDays <= defaultTokenDuration */\n      dup1\n      iszero\n      tag_207\n      jumpi\n      pop\n        /* \"contracts/PetitionPlatform.sol\":5035:5055  defaultTokenDuration */\n      sload(0x09)\n        /* \"contracts/PetitionPlatform.sol\":5016:5031  _durationInDays */\n      dup5\n        /* \"contracts/PetitionPlatform.sol\":5016:5055  _durationInDays <= defaultTokenDuration */\n      gt\n      iszero\n        /* \"contracts/PetitionPlatform.sol\":4982:5055  userTokenBalance >= 1 * 10**18 && _durationInDays <= defaultTokenDuration */\n    tag_207:\n        /* \"contracts/PetitionPlatform.sol\":4978:6216  if (userTokenBalance >= 1 * 10**18 && _durationInDays <= defaultTokenDuration) {... */\n      iszero\n      tag_208\n      jumpi\n        /* \"contracts/PetitionPlatform.sol\":5193:5205  bool success */\n      0x00\n        /* \"contracts/PetitionPlatform.sol\":5211:5224  campaignToken */\n      0x03\n      0x00\n      swap1\n      sload\n      swap1\n      0x0100\n      exp\n      swap1\n      div\n      0xffffffffffffffffffffffffffffffffffffffff\n      and\n        /* \"contracts/PetitionPlatform.sol\":5211:5229  campaignToken.call */\n      0xffffffffffffffffffffffffffffffffffffffff\n      and\n        /* \"contracts/PetitionPlatform.sol\":5301:5311  msg.sender */\n      caller\n        /* \"contracts/PetitionPlatform.sol\":5313:5323  1 * 10**18 */\n      0x0de0b6b3a7640000\n        /* \"contracts/PetitionPlatform.sol\":5248:5324  abi.encodeWithSignature(\"burnFrom(address,uint256)\", msg.sender, 1 * 10**18) */\n      add(0x24, mload(0x40))\n      tag_209\n      swap3\n      swap2\n      swap1\n      tag_210\n      jump\t// in\n    tag_209:\n      mload(0x40)\n      0x20\n      dup2\n      dup4\n      sub\n      sub\n      dup2\n      mstore\n      swap1\n      0x40\n      mstore\n      and(not(0xffffffffffffffffffffffffffffffffffffffffffffffffffffffff), 0x79cc679000000000000000000000000000000000000000000000000000000000)\n      0x20\n      dup3\n      add\n      dup1\n      mload\n      0xffffffffffffffffffffffffffffffffffffffffffffffffffffffff\n      dup4\n      dup2\n      dup4\n      and\n      or\n      dup4\n      mstore\n      pop\n      pop\n      pop\n      pop\n        /* \"contracts/PetitionPlatform.sol\":5211:5339  campaignToken.call(... */\n      mload(0x40)\n      tag_211\n      swap2\n      swap1\n      tag_212\n      jump\t// in\n    tag_211:\n      0x00\n      mload(0x40)\n      dup1\n      dup4\n      sub\n      dup2\n      0x00\n      dup7\n      gas\n      call\n      swap2\n      pop\n      pop\n      returndatasize\n      dup1\n      0x00\n      dup2\n      eq\n      tag_215\n      jumpi\n      mload(0x40)\n      swap2\n      pop\n      and(add(returndatasize, 0x3f), not(0x1f))\n      dup3\n      add\n      0x40\n      mstore\n      returndatasize\n      dup3\n      mstore\n      returndatasize\n      0x00\n      0x20\n      dup5\n      add\n      returndatacopy\n      jump(tag_214)\n    tag_215:\n      0x60\n      swap2\n      pop\n    tag_214:\n      pop\n        /* \"contracts/PetitionPlatform.sol\":5192:5339  (bool success, ) = campaignToken.call(... */\n      pop\n      swap1\n      pop\n        /* \"contracts/PetitionPlatform.sol\":5362:5369  success */\n      dup1\n        /* \"contracts/PetitionPlatform.sol\":5354:5391  require(success, \"Token burn failed\") */\n      tag_216\n      jumpi\n      mload(0x40)\n      0x08c379a000000000000000000000000000000000000000000000000000000000\n      dup2\n      mstore\n      0x04\n      add\n      tag_217\n      swap1\n      tag_218\n      jump\t// in\n    tag_217:\n      mload(0x40)\n      dup1\n      swap2\n      sub\n      swap1\n      revert\n    tag_216:\n        /* \"contracts/PetitionPlatform.sol\":5418:5422  true */\n      0x01\n        /* \"contracts/PetitionPlatform.sol\":5406:5422  usedToken = true */\n      swap4\n      pop\n        /* \"contracts/PetitionPlatform.sol\":5057:5434  {... */\n      pop\n        /* \"contracts/PetitionPlatform.sol\":4978:6216  if (userTokenBalance >= 1 * 10**18 && _durationInDays <= defaultTokenDuration) {... */\n      jump(tag_219)\n    tag_208:\n        /* \"contracts/PetitionPlatform.sol\":5531:5550  uint256 requiredFee */\n      0x00\n        /* \"contracts/PetitionPlatform.sol\":5553:5590  calculateCampaignFee(_durationInDays) */\n      tag_220\n        /* \"contracts/PetitionPlatform.sol\":5574:5589  _durationInDays */\n      dup6\n        /* \"contracts/PetitionPlatform.sol\":5553:5573  calculateCampaignFee */\n      tag_134\n        /* \"contracts/PetitionPlatform.sol\":5553:5590  calculateCampaignFee(_durationInDays) */\n      jump\t// in\n    tag_220:\n        /* \"contracts/PetitionPlatform.sol\":5531:5590  uint256 requiredFee = calculateCampaignFee(_durationInDays) */\n      swap1\n      pop\n        /* \"contracts/PetitionPlatform.sol\":5626:5637  requiredFee */\n      dup1\n        /* \"contracts/PetitionPlatform.sol\":5613:5622  msg.value */\n      callvalue\n        /* \"contracts/PetitionPlatform.sol\":5613:5637  msg.value >= requiredFee */\n      lt\n      iszero\n        /* \"contracts/PetitionPlatform.sol\":5605:5658  require(msg.value >= requiredFee, \"Insufficient fee\") */\n      tag_221\n      jumpi\n      mload(0x40)\n      0x08c379a000000000000000000000000000000000000000000000000000000000\n      dup2\n      mstore\n      0x04\n      add\n      tag_222\n      swap1\n      tag_223\n      jump\t// in\n    tag_222:\n      mload(0x40)\n      dup1\n      swap2\n      sub\n      swap1\n      revert\n    tag_221:\n        /* \"contracts/PetitionPlatform.sol\":5697:5708  requiredFee */\n      dup1\n        /* \"contracts/PetitionPlatform.sol\":5687:5708  feePaid = requiredFee */\n      swap3\n      pop\n        /* \"contracts/PetitionPlatform.sol\":5723:5740  paidPetitionCount */\n      0x0b\n        /* \"contracts/PetitionPlatform.sol\":5723:5752  paidPetitionCount[msg.sender] */\n      0x00\n        /* \"contracts/PetitionPlatform.sol\":5741:5751  msg.sender */\n      caller\n        /* \"contracts/PetitionPlatform.sol\":5723:5752  paidPetitionCount[msg.sender] */\n      0xffffffffffffffffffffffffffffffffffffffff\n      and\n      0xffffffffffffffffffffffffffffffffffffffff\n      and\n      dup2\n      mstore\n      0x20\n      add\n      swap1\n      dup2\n      mstore\n      0x20\n      add\n      0x00\n      keccak256\n      0x00\n        /* \"contracts/PetitionPlatform.sol\":5723:5754  paidPetitionCount[msg.sender]++ */\n      dup2\n      sload\n      dup1\n      swap3\n      swap2\n      swap1\n      tag_224\n      swap1\n      tag_225\n      jump\t// in\n    tag_224:\n      swap2\n      swap1\n      pop\n      sstore\n      pop\n        /* \"contracts/PetitionPlatform.sol\":5895:5896  0 */\n      0x00\n        /* \"contracts/PetitionPlatform.sol\":5876:5891  rewardThreshold */\n      sload(0x08)\n        /* \"contracts/PetitionPlatform.sol\":5844:5861  paidPetitionCount */\n      0x0b\n        /* \"contracts/PetitionPlatform.sol\":5844:5873  paidPetitionCount[msg.sender] */\n      0x00\n        /* \"contracts/PetitionPlatform.sol\":5862:5872  msg.sender */\n      caller\n        /* \"contracts/PetitionPlatform.sol\":5844:5873  paidPetitionCount[msg.sender] */\n      0xffffffffffffffffffffffffffffffffffffffff\n      and\n      0xffffffffffffffffffffffffffffffffffffffff\n      and\n      dup2\n      mstore\n      0x20\n      add\n      swap1\n      dup2\n      mstore\n      0x20\n      add\n      0x00\n      keccak256\n      sload\n        /* \"contracts/PetitionPlatform.sol\":5844:5891  paidPetitionCount[msg.sender] % rewardThreshold */\n      tag_226\n      swap2\n      swap1\n      tag_227\n      jump\t// in\n    tag_226:\n        /* \"contracts/PetitionPlatform.sol\":5844:5896  paidPetitionCount[msg.sender] % rewardThreshold == 0 */\n      sub\n        /* \"contracts/PetitionPlatform.sol\":5840:6205  if (paidPetitionCount[msg.sender] % rewardThreshold == 0) {... */\n      tag_228\n      jumpi\n        /* \"contracts/PetitionPlatform.sol\":5918:5930  bool success */\n      0x00\n        /* \"contracts/PetitionPlatform.sol\":5936:5949  campaignToken */\n      0x03\n      0x00\n      swap1\n      sload\n      swap1\n      0x0100\n      exp\n      swap1\n      div\n      0xffffffffffffffffffffffffffffffffffffffff\n      and\n        /* \"contracts/PetitionPlatform.sol\":5936:5954  campaignToken.call */\n      0xffffffffffffffffffffffffffffffffffffffff\n      and\n        /* \"contracts/PetitionPlatform.sol\":6026:6036  msg.sender */\n      caller\n        /* \"contracts/PetitionPlatform.sol\":6038:6048  1 * 10**18 */\n      0x0de0b6b3a7640000\n        /* \"contracts/PetitionPlatform.sol\":5977:6049  abi.encodeWithSignature(\"mint(address,uint256)\", msg.sender, 1 * 10**18) */\n      add(0x24, mload(0x40))\n      tag_229\n      swap3\n      swap2\n      swap1\n      tag_210\n      jump\t// in\n    tag_229:\n      mload(0x40)\n      0x20\n      dup2\n      dup4\n      sub\n      sub\n      dup2\n      mstore\n      swap1\n      0x40\n      mstore\n      and(not(0xffffffffffffffffffffffffffffffffffffffffffffffffffffffff), 0x40c10f1900000000000000000000000000000000000000000000000000000000)\n      0x20\n      dup3\n      add\n      dup1\n      mload\n      0xffffffffffffffffffffffffffffffffffffffffffffffffffffffff\n      dup4\n      dup2\n      dup4\n      and\n      or\n      dup4\n      mstore\n      pop\n      pop\n      pop\n      pop\n        /* \"contracts/PetitionPlatform.sol\":5936:6068  campaignToken.call(... */\n      mload(0x40)\n      tag_230\n      swap2\n      swap1\n      tag_212\n      jump\t// in\n    tag_230:\n      0x00\n      mload(0x40)\n      dup1\n      dup4\n      sub\n      dup2\n      0x00\n      dup7\n      gas\n      call\n      swap2\n      pop\n      pop\n      returndatasize\n      dup1\n      0x00\n      dup2\n      eq\n      tag_233\n      jumpi\n      mload(0x40)\n      swap2\n      pop\n      and(add(returndatasize, 0x3f), not(0x1f))\n      dup3\n      add\n      0x40\n      mstore\n      returndatasize\n      dup3\n      mstore\n      returndatasize\n      0x00\n      0x20\n      dup5\n      add\n      returndatacopy\n      jump(tag_232)\n    tag_233:\n      0x60\n      swap2\n      pop\n    tag_232:\n      pop\n        /* \"contracts/PetitionPlatform.sol\":5917:6068  (bool success, ) = campaignToken.call(... */\n      pop\n      swap1\n      pop\n        /* \"contracts/PetitionPlatform.sol\":6095:6102  success */\n      dup1\n        /* \"contracts/PetitionPlatform.sol\":6087:6124  require(success, \"Token mint failed\") */\n      tag_234\n      jumpi\n      mload(0x40)\n      0x08c379a000000000000000000000000000000000000000000000000000000000\n      dup2\n      mstore\n      0x04\n      add\n      tag_235\n      swap1\n      tag_236\n      jump\t// in\n    tag_235:\n      mload(0x40)\n      dup1\n      swap2\n      sub\n      swap1\n      revert\n    tag_234:\n        /* \"contracts/PetitionPlatform.sol\":6166:6176  msg.sender */\n      caller\n        /* \"contracts/PetitionPlatform.sol\":6148:6189  RewardTokenMinted(msg.sender, 1 * 10**18) */\n      0xffffffffffffffffffffffffffffffffffffffff\n      and\n      0x851805430b76795c7338d40d064eb68ff06ea87e8e9518986018edb9f5590252\n        /* \"contracts/PetitionPlatform.sol\":6178:6188  1 * 10**18 */\n      0x0de0b6b3a7640000\n        /* \"contracts/PetitionPlatform.sol\":6148:6189  RewardTokenMinted(msg.sender, 1 * 10**18) */\n      mload(0x40)\n      tag_237\n      swap2\n      swap1\n      tag_238\n      jump\t// in\n    tag_237:\n      mload(0x40)\n      dup1\n      swap2\n      sub\n      swap1\n      log2\n        /* \"contracts/PetitionPlatform.sol\":5898:6205  {... */\n      pop\n        /* \"contracts/PetitionPlatform.sol\":5840:6205  if (paidPetitionCount[msg.sender] % rewardThreshold == 0) {... */\n    tag_228:\n        /* \"contracts/PetitionPlatform.sol\":5440:6216  {... */\n      pop\n        /* \"contracts/PetitionPlatform.sol\":4978:6216  if (userTokenBalance >= 1 * 10**18 && _durationInDays <= defaultTokenDuration) {... */\n    tag_219:\n        /* \"contracts/PetitionPlatform.sol\":6236:6254  uint256 petitionId */\n      0x00\n        /* \"contracts/PetitionPlatform.sol\":6257:6272  petitionCounter */\n      sload(0x04)\n        /* \"contracts/PetitionPlatform.sol\":6236:6272  uint256 petitionId = petitionCounter */\n      swap1\n      pop\n        /* \"contracts/PetitionPlatform.sol\":6283:6298  petitionCounter */\n      0x04\n      0x00\n        /* \"contracts/PetitionPlatform.sol\":6283:6300  petitionCounter++ */\n      dup2\n      sload\n      dup1\n      swap3\n      swap2\n      swap1\n      tag_239\n      swap1\n      tag_225\n      jump\t// in\n    tag_239:\n      swap2\n      swap1\n      pop\n      sstore\n      pop\n        /* \"contracts/PetitionPlatform.sol\":6321:6337  uint256 deadline */\n      0x00\n        /* \"contracts/PetitionPlatform.sol\":6377:6383  1 days */\n      0x015180\n        /* \"contracts/PetitionPlatform.sol\":6359:6374  _durationInDays */\n      dup7\n        /* \"contracts/PetitionPlatform.sol\":6359:6383  _durationInDays * 1 days */\n      tag_240\n      swap2\n      swap1\n      tag_241\n      jump\t// in\n    tag_240:\n        /* \"contracts/PetitionPlatform.sol\":6340:6355  block.timestamp */\n      timestamp\n        /* \"contracts/PetitionPlatform.sol\":6340:6384  block.timestamp + (_durationInDays * 1 days) */\n      tag_242\n      swap2\n      swap1\n      tag_243\n      jump\t// in\n    tag_242:\n        /* \"contracts/PetitionPlatform.sol\":6321:6384  uint256 deadline = block.timestamp + (_durationInDays * 1 days) */\n      swap1\n      pop\n        /* \"contracts/PetitionPlatform.sol\":6429:6796  Petition({... */\n      mload(0x40)\n      dup1\n      0x0140\n      add\n      0x40\n      mstore\n      dup1\n        /* \"contracts/PetitionPlatform.sol\":6457:6467  petitionId */\n      dup4\n        /* \"contracts/PetitionPlatform.sol\":6429:6796  Petition({... */\n      dup2\n      mstore\n      0x20\n      add\n        /* \"contracts/PetitionPlatform.sol\":6489:6495  _title */\n      dup11\n        /* \"contracts/PetitionPlatform.sol\":6429:6796  Petition({... */\n      dup2\n      mstore\n      0x20\n      add\n        /* \"contracts/PetitionPlatform.sol\":6523:6535  _description */\n      dup10\n        /* \"contracts/PetitionPlatform.sol\":6429:6796  Petition({... */\n      dup2\n      mstore\n      0x20\n      add\n        /* \"contracts/PetitionPlatform.sol\":6561:6571  _imageHash */\n      dup9\n        /* \"contracts/PetitionPlatform.sol\":6429:6796  Petition({... */\n      dup2\n      mstore\n      0x20\n      add\n        /* \"contracts/PetitionPlatform.sol\":6595:6605  msg.sender */\n      caller\n        /* \"contracts/PetitionPlatform.sol\":6429:6796  Petition({... */\n      0xffffffffffffffffffffffffffffffffffffffff\n      and\n      dup2\n      mstore\n      0x20\n      add\n        /* \"contracts/PetitionPlatform.sol\":6631:6646  block.timestamp */\n      timestamp\n        /* \"contracts/PetitionPlatform.sol\":6429:6796  Petition({... */\n      dup2\n      mstore\n      0x20\n      add\n        /* \"contracts/PetitionPlatform.sol\":6671:6679  deadline */\n      dup3\n        /* \"contracts/PetitionPlatform.sol\":6429:6796  Petition({... */\n      dup2\n      mstore\n      0x20\n      add\n        /* \"contracts/PetitionPlatform.sol\":6710:6711  0 */\n      0x00\n        /* \"contracts/PetitionPlatform.sol\":6429:6796  Petition({... */\n      dup2\n      mstore\n      0x20\n      add\n        /* \"contracts/PetitionPlatform.sol\":6736:6740  true */\n      0x01\n        /* \"contracts/PetitionPlatform.sol\":6429:6796  Petition({... */\n      iszero\n      iszero\n      dup2\n      mstore\n      0x20\n      add\n        /* \"contracts/PetitionPlatform.sol\":6769:6784  _durationInDays */\n      dup8\n        /* \"contracts/PetitionPlatform.sol\":6429:6796  Petition({... */\n      dup2\n      mstore\n      pop\n        /* \"contracts/PetitionPlatform.sol\":6405:6414  petitions */\n      0x0a\n        /* \"contracts/PetitionPlatform.sol\":6405:6426  petitions[petitionId] */\n      0x00\n        /* \"contracts/PetitionPlatform.sol\":6415:6425  petitionId */\n      dup5\n        /* \"contracts/PetitionPlatform.sol\":6405:6426  petitions[petitionId] */\n      dup2\n      mstore\n      0x20\n      add\n      swap1\n      dup2\n      mstore\n      0x20\n      add\n      0x00\n      keccak256\n        /* \"contracts/PetitionPlatform.sol\":6405:6796  petitions[petitionId] = Petition({... */\n      0x00\n      dup3\n      add\n      mload\n      dup2\n      0x00\n      add\n      sstore\n      0x20\n      dup3\n      add\n      mload\n      dup2\n      0x01\n      add\n      swap1\n      dup2\n      tag_244\n      swap2\n      swap1\n      tag_245\n      jump\t// in\n    tag_244:\n      pop\n      0x40\n      dup3\n      add\n      mload\n      dup2\n      0x02\n      add\n      swap1\n      dup2\n      tag_246\n      swap2\n      swap1\n      tag_245\n      jump\t// in\n    tag_246:\n      pop\n      0x60\n      dup3\n      add\n      mload\n      dup2\n      0x03\n      add\n      swap1\n      dup2\n      tag_247\n      swap2\n      swap1\n      tag_245\n      jump\t// in\n    tag_247:\n      pop\n      0x80\n      dup3\n      add\n      mload\n      dup2\n      0x04\n      add\n      exp(0x0100, 0x00)\n      dup2\n      sload\n      dup2\n      0xffffffffffffffffffffffffffffffffffffffff\n      mul\n      not\n      and\n      swap1\n      dup4\n      0xffffffffffffffffffffffffffffffffffffffff\n      and\n      mul\n      or\n      swap1\n      sstore\n      pop\n      0xa0\n      dup3\n      add\n      mload\n      dup2\n      0x05\n      add\n      sstore\n      0xc0\n      dup3\n      add\n      mload\n      dup2\n      0x06\n      add\n      sstore\n      0xe0\n      dup3\n      add\n      mload\n      dup2\n      0x07\n      add\n      sstore\n      0x0100\n      dup3\n      add\n      mload\n      dup2\n      0x08\n      add\n      exp(0x0100, 0x00)\n      dup2\n      sload\n      dup2\n      0xff\n      mul\n      not\n      and\n      swap1\n      dup4\n      iszero\n      iszero\n      mul\n      or\n      swap1\n      sstore\n      pop\n      0x0120\n      dup3\n      add\n      mload\n      dup2\n      0x09\n      add\n      sstore\n      swap1\n      pop\n      pop\n        /* \"contracts/PetitionPlatform.sol\":6878:6888  msg.sender */\n      caller\n        /* \"contracts/PetitionPlatform.sol\":6822:7048  PetitionCreated(... */\n      0xffffffffffffffffffffffffffffffffffffffff\n      and\n        /* \"contracts/PetitionPlatform.sol\":6852:6862  petitionId */\n      dup3\n        /* \"contracts/PetitionPlatform.sol\":6822:7048  PetitionCreated(... */\n      0xb3bb0593bb4a169316521e45ede0c9ede7407f31146da415f2df9c1f7f4c20bf\n        /* \"contracts/PetitionPlatform.sol\":6904:6910  _title */\n      dup12\n        /* \"contracts/PetitionPlatform.sol\":6926:6936  _imageHash */\n      dup11\n        /* \"contracts/PetitionPlatform.sol\":6952:6960  deadline */\n      dup6\n        /* \"contracts/PetitionPlatform.sol\":6976:6991  _durationInDays */\n      dup12\n        /* \"contracts/PetitionPlatform.sol\":7006:7015  usedToken */\n      dup12\n        /* \"contracts/PetitionPlatform.sol\":7030:7037  feePaid */\n      dup12\n        /* \"contracts/PetitionPlatform.sol\":6822:7048  PetitionCreated(... */\n      mload(0x40)\n      tag_248\n      swap7\n      swap6\n      swap5\n      swap4\n      swap3\n      swap2\n      swap1\n      tag_249\n      jump\t// in\n    tag_248:\n      mload(0x40)\n      dup1\n      swap2\n      sub\n      swap1\n      log3\n        /* \"contracts/PetitionPlatform.sol\":4374:7056  {... */\n      pop\n      pop\n      pop\n      pop\n      pop\n        /* \"@openzeppelin/contracts/utils/ReentrancyGuard.sol\":2542:2562  _nonReentrantAfter() */\n      tag_250\n        /* \"@openzeppelin/contracts/utils/ReentrancyGuard.sol\":2542:2560  _nonReentrantAfter */\n      tag_251\n        /* \"@openzeppelin/contracts/utils/ReentrancyGuard.sol\":2542:2562  _nonReentrantAfter() */\n      jump\t// in\n    tag_250:\n        /* \"contracts/PetitionPlatform.sol\":4176:7056  function createPetition(... */\n      pop\n      pop\n      pop\n      pop\n      jump\t// out\n        /* \"contracts/PetitionPlatform.sol\":9296:9750  function setPricingConfig(... */\n    tag_50:\n        /* \"@openzeppelin/contracts/access/Ownable.sol\":1531:1544  _checkOwner() */\n      tag_253\n        /* \"@openzeppelin/contracts/access/Ownable.sol\":1531:1542  _checkOwner */\n      tag_254\n        /* \"@openzeppelin/contracts/access/Ownable.sol\":1531:1544  _checkOwner() */\n      jump\t// in\n    tag_253:\n        /* \"contracts/PetitionPlatform.sol\":9486:9487  0 */\n      0x00\n        /* \"contracts/PetitionPlatform.sol\":9466:9483  _baseDurationDays */\n      dup3\n        /* \"contracts/PetitionPlatform.sol\":9466:9487  _baseDurationDays > 0 */\n      gt\n        /* \"contracts/PetitionPlatform.sol\":9458:9517  require(_baseDurationDays > 0, \"Base duration must be > 0\") */\n      tag_256\n      jumpi\n      mload(0x40)\n      0x08c379a000000000000000000000000000000000000000000000000000000000\n      dup2\n      mstore\n      0x04\n      add\n      tag_257\n      swap1\n      tag_258\n      jump\t// in\n    tag_257:\n      mload(0x40)\n      dup1\n      swap2\n      sub\n      swap1\n      revert\n    tag_256:\n        /* \"contracts/PetitionPlatform.sol\":9546:9554  _baseFee */\n      dup3\n        /* \"contracts/PetitionPlatform.sol\":9528:9543  baseCampaignFee */\n      0x05\n        /* \"contracts/PetitionPlatform.sol\":9528:9554  baseCampaignFee = _baseFee */\n      dup2\n      swap1\n      sstore\n      pop\n        /* \"contracts/PetitionPlatform.sol\":9584:9601  _baseDurationDays */\n      dup2\n        /* \"contracts/PetitionPlatform.sol\":9565:9581  baseDurationDays */\n      0x06\n        /* \"contracts/PetitionPlatform.sol\":9565:9601  baseDurationDays = _baseDurationDays */\n      dup2\n      swap1\n      sstore\n      pop\n        /* \"contracts/PetitionPlatform.sol\":9631:9648  _additionalDayFee */\n      dup1\n        /* \"contracts/PetitionPlatform.sol\":9612:9628  additionalDayFee */\n      0x07\n        /* \"contracts/PetitionPlatform.sol\":9612:9648  additionalDayFee = _additionalDayFee */\n      dup2\n      swap1\n      sstore\n      pop\n        /* \"contracts/PetitionPlatform.sol\":9674:9742  PricingConfigUpdated(_baseFee, _baseDurationDays, _additionalDayFee) */\n      0xc5118f6134a4806c2ad08c52279630a3718992a295074ace47295eeb4a95a4fb\n        /* \"contracts/PetitionPlatform.sol\":9695:9703  _baseFee */\n      dup4\n        /* \"contracts/PetitionPlatform.sol\":9705:9722  _baseDurationDays */\n      dup4\n        /* \"contracts/PetitionPlatform.sol\":9724:9741  _additionalDayFee */\n      dup4\n        /* \"contracts/PetitionPlatform.sol\":9674:9742  PricingConfigUpdated(_baseFee, _baseDurationDays, _additionalDayFee) */\n      mload(0x40)\n      tag_259\n      swap4\n      swap3\n      swap2\n      swap1\n      tag_260\n      jump\t// in\n    tag_259:\n      mload(0x40)\n      dup1\n      swap2\n      sub\n      swap1\n      log1\n        /* \"contracts/PetitionPlatform.sol\":9296:9750  function setPricingConfig(... */\n      pop\n      pop\n      pop\n      jump\t// out\n        /* \"contracts/PetitionPlatform.sol\":1316:1351  uint256 public baseDurationDays = 7 */\n    tag_53:\n      sload(0x06)\n      dup2\n      jump\t// out\n        /* \"contracts/PetitionPlatform.sol\":1162:1192  uint256 public petitionCounter */\n    tag_58:\n      sload(0x04)\n      dup2\n      jump\t// out\n        /* \"contracts/PetitionPlatform.sol\":10790:11131  function getPricingInfo() external view returns (... */\n    tag_62:\n        /* \"contracts/PetitionPlatform.sol\":10849:10864  uint256 baseFee */\n      0x00\n        /* \"contracts/PetitionPlatform.sol\":10875:10895  uint256 baseDuration */\n      0x00\n        /* \"contracts/PetitionPlatform.sol\":10906:10927  uint256 additionalFee */\n      0x00\n        /* \"contracts/PetitionPlatform.sol\":10938:10959  uint256 tokenDuration */\n      0x00\n        /* \"contracts/PetitionPlatform.sol\":11000:11015  baseCampaignFee */\n      sload(0x05)\n        /* \"contracts/PetitionPlatform.sol\":11030:11046  baseDurationDays */\n      sload(0x06)\n        /* \"contracts/PetitionPlatform.sol\":11061:11077  additionalDayFee */\n      sload(0x07)\n        /* \"contracts/PetitionPlatform.sol\":11092:11112  defaultTokenDuration */\n      sload(0x09)\n        /* \"contracts/PetitionPlatform.sol\":10978:11123  return (... */\n      swap4\n      pop\n      swap4\n      pop\n      swap4\n      pop\n      swap4\n      pop\n        /* \"contracts/PetitionPlatform.sol\":10790:11131  function getPricingInfo() external view returns (... */\n      swap1\n      swap2\n      swap3\n      swap4\n      jump\t// out\n        /* \"contracts/PetitionPlatform.sol\":1634:1679  mapping(uint256 => Petition) public petitions */\n    tag_68:\n      mstore(0x20, 0x0a)\n      dup1\n      0x00\n      mstore\n      keccak256(0x00, 0x40)\n      0x00\n      swap2\n      pop\n      swap1\n      pop\n      dup1\n      0x00\n      add\n      sload\n      swap1\n      dup1\n      0x01\n      add\n      dup1\n      sload\n      tag_262\n      swap1\n      tag_165\n      jump\t// in\n    tag_262:\n      dup1\n      0x1f\n      add\n      0x20\n      dup1\n      swap2\n      div\n      mul\n      0x20\n      add\n      mload(0x40)\n      swap1\n      dup2\n      add\n      0x40\n      mstore\n      dup1\n      swap3\n      swap2\n      swap1\n      dup2\n      dup2\n      mstore\n      0x20\n      add\n      dup3\n      dup1\n      sload\n      tag_263\n      swap1\n      tag_165\n      jump\t// in\n    tag_263:\n      dup1\n      iszero\n      tag_264\n      jumpi\n      dup1\n      0x1f\n      lt\n      tag_265\n      jumpi\n      0x0100\n      dup1\n      dup4\n      sload\n      div\n      mul\n      dup4\n      mstore\n      swap2\n      0x20\n      add\n      swap2\n      jump(tag_264)\n    tag_265:\n      dup3\n      add\n      swap2\n      swap1\n      0x00\n      mstore\n      keccak256(0x00, 0x20)\n      swap1\n    tag_266:\n      dup2\n      sload\n      dup2\n      mstore\n      swap1\n      0x01\n      add\n      swap1\n      0x20\n      add\n      dup1\n      dup4\n      gt\n      tag_266\n      jumpi\n      dup3\n      swap1\n      sub\n      0x1f\n      and\n      dup3\n      add\n      swap2\n    tag_264:\n      pop\n      pop\n      pop\n      pop\n      pop\n      swap1\n      dup1\n      0x02\n      add\n      dup1\n      sload\n      tag_267\n      swap1\n      tag_165\n      jump\t// in\n    tag_267:\n      dup1\n      0x1f\n      add\n      0x20\n      dup1\n      swap2\n      div\n      mul\n      0x20\n      add\n      mload(0x40)\n      swap1\n      dup2\n      add\n      0x40\n      mstore\n      dup1\n      swap3\n      swap2\n      swap1\n      dup2\n      dup2\n      mstore\n      0x20\n      add\n      dup3\n      dup1\n      sload\n      tag_268\n      swap1\n      tag_165\n      jump\t// in\n    tag_268:\n      dup1\n      iszero\n      tag_269\n      jumpi\n      dup1\n      0x1f\n      lt\n      tag_270\n      jumpi\n      0x0100\n      dup1\n      dup4\n      sload\n      div\n      mul\n      dup4\n      mstore\n      swap2\n      0x20\n      add\n      swap2\n      jump(tag_269)\n    tag_270:\n      dup3\n      add\n      swap2\n      swap1\n      0x00\n      mstore\n      keccak256(0x00, 0x20)\n      swap1\n    tag_271:\n      dup2\n      sload\n      dup2\n      mstore\n      swap1\n      0x01\n      add\n      swap1\n      0x20\n      add\n      dup1\n      dup4\n      gt\n      tag_271\n      jumpi\n      dup3\n      swap1\n      sub\n      0x1f\n      and\n      dup3\n      add\n      swap2\n    tag_269:\n      pop\n      pop\n      pop\n      pop\n      pop\n      swap1\n      dup1\n      0x03\n      add\n      dup1\n      sload\n      tag_272\n      swap1\n      tag_165\n      jump\t// in\n    tag_272:\n      dup1\n      0x1f\n      add\n      0x20\n      dup1\n      swap2\n      div\n      mul\n      0x20\n      add\n      mload(0x40)\n      swap1\n      dup2\n      add\n      0x40\n      mstore\n      dup1\n      swap3\n      swap2\n      swap1\n      dup2\n      dup2\n      mstore\n      0x20\n      add\n      dup3\n      dup1\n      sload\n      tag_273\n      swap1\n      tag_165\n      jump\t// in\n    tag_273:\n      dup1\n      iszero\n      tag_274\n      jumpi\n      dup1\n      0x1f\n      lt\n      tag_275\n      jumpi\n      0x0100\n      dup1\n      dup4\n      sload\n      div\n      mul\n      dup4\n      mstore\n      swap2\n      0x20\n      add\n      swap2\n      jump(tag_274)\n    tag_275:\n      dup3\n      add\n      swap2\n      swap1\n      0x00\n      mstore\n      keccak256(0x00, 0x20)\n      swap1\n    tag_276:\n      dup2\n      sload\n      dup2\n      mstore\n      swap1\n      0x01\n      add\n      swap1\n      0x20\n      add\n      dup1\n      dup4\n      gt\n      tag_276\n      jumpi\n      dup3\n      swap1\n      sub\n      0x1f\n      and\n      dup3\n      add\n      swap2\n    tag_274:\n      pop\n      pop\n      pop\n      pop\n      pop\n      swap1\n      dup1\n      0x04\n      add\n      0x00\n      swap1\n      sload\n      swap1\n      0x0100\n      exp\n      swap1\n      div\n      0xffffffffffffffffffffffffffffffffffffffff\n      and\n      swap1\n      dup1\n      0x05\n      add\n      sload\n      swap1\n      dup1\n      0x06\n      add\n      sload\n      swap1\n      dup1\n      0x07\n      add\n      sload\n      swap1\n      dup1\n      0x08\n      add\n      0x00\n      swap1\n      sload\n      swap1\n      0x0100\n      exp\n      swap1\n      div\n      0xff\n      and\n      swap1\n      dup1\n      0x09\n      add\n      sload\n      swap1\n      pop\n      dup11\n      jump\t// out\n        /* \"contracts/PetitionPlatform.sol\":10343:10542  function withdraw() external onlyOwner {... */\n    tag_73:\n        /* \"@openzeppelin/contracts/access/Ownable.sol\":1531:1544  _checkOwner() */\n      tag_278\n        /* \"@openzeppelin/contracts/access/Ownable.sol\":1531:1542  _checkOwner */\n      tag_254\n        /* \"@openzeppelin/contracts/access/Ownable.sol\":1531:1544  _checkOwner() */\n      jump\t// in\n    tag_278:\n        /* \"contracts/PetitionPlatform.sol\":10393:10408  uint256 balance */\n      0x00\n        /* \"contracts/PetitionPlatform.sol\":10411:10432  address(this).balance */\n      selfbalance\n        /* \"contracts/PetitionPlatform.sol\":10393:10432  uint256 balance = address(this).balance */\n      swap1\n      pop\n        /* \"contracts/PetitionPlatform.sol\":10461:10462  0 */\n      0x00\n        /* \"contracts/PetitionPlatform.sol\":10451:10458  balance */\n      dup2\n        /* \"contracts/PetitionPlatform.sol\":10451:10462  balance > 0 */\n      gt\n        /* \"contracts/PetitionPlatform.sol\":10443:10489  require(balance > 0, \"No balance to withdraw\") */\n      tag_280\n      jumpi\n      mload(0x40)\n      0x08c379a000000000000000000000000000000000000000000000000000000000\n      dup2\n      mstore\n      0x04\n      add\n      tag_281\n      swap1\n      tag_282\n      jump\t// in\n    tag_281:\n      mload(0x40)\n      dup1\n      swap2\n      sub\n      swap1\n      revert\n    tag_280:\n        /* \"contracts/PetitionPlatform.sol\":10508:10515  owner() */\n      tag_283\n        /* \"contracts/PetitionPlatform.sol\":10508:10513  owner */\n      tag_109\n        /* \"contracts/PetitionPlatform.sol\":10508:10515  owner() */\n      jump\t// in\n    tag_283:\n        /* \"contracts/PetitionPlatform.sol\":10500:10525  payable(owner()).transfer */\n      0xffffffffffffffffffffffffffffffffffffffff\n      and\n        /* \"contracts/PetitionPlatform.sol\":10500:10534  payable(owner()).transfer(balance) */\n      0x08fc\n        /* \"contracts/PetitionPlatform.sol\":10526:10533  balance */\n      dup3\n        /* \"contracts/PetitionPlatform.sol\":10500:10534  payable(owner()).transfer(balance) */\n      swap1\n      dup2\n      iszero\n      mul\n      swap1\n      mload(0x40)\n      0x00\n      mload(0x40)\n      dup1\n      dup4\n      sub\n      dup2\n      dup6\n      dup9\n      dup9\n      call\n      swap4\n      pop\n      pop\n      pop\n      pop\n      iszero\n      dup1\n      iszero\n      tag_285\n      jumpi\n      returndatacopy(0x00, 0x00, returndatasize)\n      revert(0x00, returndatasize)\n    tag_285:\n      pop\n        /* \"contracts/PetitionPlatform.sol\":10382:10542  {... */\n      pop\n        /* \"contracts/PetitionPlatform.sol\":10343:10542  function withdraw() external onlyOwner {... */\n      jump\t// out\n        /* \"contracts/PetitionPlatform.sol\":1460:1494  uint256 public rewardThreshold = 5 */\n    tag_76:\n      sload(0x08)\n      dup2\n      jump\t// out\n        /* \"contracts/PetitionPlatform.sol\":9830:9999  function setRewardThreshold(uint256 _threshold) external onlyOwner {... */\n    tag_81:\n        /* \"@openzeppelin/contracts/access/Ownable.sol\":1531:1544  _checkOwner() */\n      tag_287\n        /* \"@openzeppelin/contracts/access/Ownable.sol\":1531:1542  _checkOwner */\n      tag_254\n        /* \"@openzeppelin/contracts/access/Ownable.sol\":1531:1544  _checkOwner() */\n      jump\t// in\n    tag_287:\n        /* \"contracts/PetitionPlatform.sol\":9929:9930  0 */\n      0x00\n        /* \"contracts/PetitionPlatform.sol\":9916:9926  _threshold */\n      dup2\n        /* \"contracts/PetitionPlatform.sol\":9916:9930  _threshold > 0 */\n      gt\n        /* \"contracts/PetitionPlatform.sol\":9908:9952  require(_threshold > 0, \"Invalid threshold\") */\n      tag_289\n      jumpi\n      mload(0x40)\n      0x08c379a000000000000000000000000000000000000000000000000000000000\n      dup2\n      mstore\n      0x04\n      add\n      tag_290\n      swap1\n      tag_291\n      jump\t// in\n    tag_290:\n      mload(0x40)\n      dup1\n      swap2\n      sub\n      swap1\n      revert\n    tag_289:\n        /* \"contracts/PetitionPlatform.sol\":9981:9991  _threshold */\n      dup1\n        /* \"contracts/PetitionPlatform.sol\":9963:9978  rewardThreshold */\n      0x08\n        /* \"contracts/PetitionPlatform.sol\":9963:9991  rewardThreshold = _threshold */\n      dup2\n      swap1\n      sstore\n      pop\n        /* \"contracts/PetitionPlatform.sol\":9830:9999  function setRewardThreshold(uint256 _threshold) external onlyOwner {... */\n      pop\n      jump\t// out\n        /* \"contracts/PetitionPlatform.sol\":8796:8927  function getUserPaidPetitionCount(address _user) external view returns (uint256) {... */\n    tag_86:\n        /* \"contracts/PetitionPlatform.sol\":8868:8875  uint256 */\n      0x00\n        /* \"contracts/PetitionPlatform.sol\":8895:8912  paidPetitionCount */\n      0x0b\n        /* \"contracts/PetitionPlatform.sol\":8895:8919  paidPetitionCount[_user] */\n      0x00\n        /* \"contracts/PetitionPlatform.sol\":8913:8918  _user */\n      dup4\n        /* \"contracts/PetitionPlatform.sol\":8895:8919  paidPetitionCount[_user] */\n      0xffffffffffffffffffffffffffffffffffffffff\n      and\n      0xffffffffffffffffffffffffffffffffffffffff\n      and\n      dup2\n      mstore\n      0x20\n      add\n      swap1\n      dup2\n      mstore\n      0x20\n      add\n      0x00\n      keccak256\n      sload\n        /* \"contracts/PetitionPlatform.sol\":8888:8919  return paidPetitionCount[_user] */\n      swap1\n      pop\n        /* \"contracts/PetitionPlatform.sol\":8796:8927  function getUserPaidPetitionCount(address _user) external view returns (uint256) {... */\n      swap2\n      swap1\n      pop\n      jump\t// out\n        /* \"contracts/PetitionPlatform.sol\":1745:1806  mapping(uint256 => mapping(address => bool)) public hasSigned */\n    tag_92:\n      mstore(0x20, 0x0c)\n      dup2\n      0x00\n      mstore\n      mstore(0x20, keccak256(0x00, 0x40))\n      dup1\n      0x00\n      mstore\n      keccak256(0x00, 0x40)\n      0x00\n      swap2\n      pop\n      swap2\n      pop\n      swap1\n      sload\n      swap1\n      0x0100\n      exp\n      swap1\n      div\n      0xff\n      and\n      dup2\n      jump\t// out\n        /* \"@openzeppelin/contracts/access/Ownable.sol\":2293:2394  function renounceOwnership() public virtual onlyOwner {... */\n    tag_97:\n        /* \"@openzeppelin/contracts/access/Ownable.sol\":1531:1544  _checkOwner() */\n      tag_294\n        /* \"@openzeppelin/contracts/access/Ownable.sol\":1531:1542  _checkOwner */\n      tag_254\n        /* \"@openzeppelin/contracts/access/Ownable.sol\":1531:1544  _checkOwner() */\n      jump\t// in\n    tag_294:\n        /* \"@openzeppelin/contracts/access/Ownable.sol\":2357:2387  _transferOwnership(address(0)) */\n      tag_296\n        /* \"@openzeppelin/contracts/access/Ownable.sol\":2384:2385  0 */\n      0x00\n        /* \"@openzeppelin/contracts/access/Ownable.sol\":2357:2375  _transferOwnership */\n      tag_297\n        /* \"@openzeppelin/contracts/access/Ownable.sol\":2357:2387  _transferOwnership(address(0)) */\n      jump\t// in\n    tag_296:\n        /* \"@openzeppelin/contracts/access/Ownable.sol\":2293:2394  function renounceOwnership() public virtual onlyOwner {... */\n      jump\t// out\n        /* \"contracts/PetitionPlatform.sol\":10613:10715  function getTotalPetitions() external view returns (uint256) {... */\n    tag_100:\n        /* \"contracts/PetitionPlatform.sol\":10665:10672  uint256 */\n      0x00\n        /* \"contracts/PetitionPlatform.sol\":10692:10707  petitionCounter */\n      sload(0x04)\n        /* \"contracts/PetitionPlatform.sol\":10685:10707  return petitionCounter */\n      swap1\n      pop\n        /* \"contracts/PetitionPlatform.sol\":10613:10715  function getTotalPetitions() external view returns (uint256) {... */\n      swap1\n      jump\t// out\n        /* \"contracts/PetitionPlatform.sol\":1086:1114  address public daoMembership */\n    tag_104:\n      0x02\n      0x00\n      swap1\n      sload\n      swap1\n      0x0100\n      exp\n      swap1\n      div\n      0xffffffffffffffffffffffffffffffffffffffff\n      and\n      dup2\n      jump\t// out\n        /* \"@openzeppelin/contracts/access/Ownable.sol\":1638:1723  function owner() public view virtual returns (address) {... */\n    tag_109:\n        /* \"@openzeppelin/contracts/access/Ownable.sol\":1684:1691  address */\n      0x00\n        /* \"@openzeppelin/contracts/access/Ownable.sol\":1710:1716  _owner */\n      0x00\n      0x00\n      swap1\n      sload\n      swap1\n      0x0100\n      exp\n      swap1\n      div\n      0xffffffffffffffffffffffffffffffffffffffff\n      and\n        /* \"@openzeppelin/contracts/access/Ownable.sol\":1703:1716  return _owner */\n      swap1\n      pop\n        /* \"@openzeppelin/contracts/access/Ownable.sol\":1638:1723  function owner() public view virtual returns (address) {... */\n      swap1\n      jump\t// out\n        /* \"contracts/PetitionPlatform.sol\":1121:1149  address public campaignToken */\n    tag_113:\n      0x03\n      0x00\n      swap1\n      sload\n      swap1\n      0x0100\n      exp\n      swap1\n      div\n      0xffffffffffffffffffffffffffffffffffffffff\n      and\n      dup2\n      jump\t// out\n        /* \"contracts/PetitionPlatform.sol\":10085:10264  function setDefaultTokenDuration(uint256 _days) external onlyOwner {... */\n    tag_118:\n        /* \"@openzeppelin/contracts/access/Ownable.sol\":1531:1544  _checkOwner() */\n      tag_301\n        /* \"@openzeppelin/contracts/access/Ownable.sol\":1531:1542  _checkOwner */\n      tag_254\n        /* \"@openzeppelin/contracts/access/Ownable.sol\":1531:1544  _checkOwner() */\n      jump\t// in\n    tag_301:\n        /* \"contracts/PetitionPlatform.sol\":10179:10180  0 */\n      0x00\n        /* \"contracts/PetitionPlatform.sol\":10171:10176  _days */\n      dup2\n        /* \"contracts/PetitionPlatform.sol\":10171:10180  _days > 0 */\n      gt\n        /* \"contracts/PetitionPlatform.sol\":10171:10196  _days > 0 && _days <= 365 */\n      dup1\n      iszero\n      tag_303\n      jumpi\n      pop\n        /* \"contracts/PetitionPlatform.sol\":10193:10196  365 */\n      0x016d\n        /* \"contracts/PetitionPlatform.sol\":10184:10189  _days */\n      dup2\n        /* \"contracts/PetitionPlatform.sol\":10184:10196  _days <= 365 */\n      gt\n      iszero\n        /* \"contracts/PetitionPlatform.sol\":10171:10196  _days > 0 && _days <= 365 */\n    tag_303:\n        /* \"contracts/PetitionPlatform.sol\":10163:10217  require(_days > 0 && _days <= 365, \"Invalid duration\") */\n      tag_304\n      jumpi\n      mload(0x40)\n      0x08c379a000000000000000000000000000000000000000000000000000000000\n      dup2\n      mstore\n      0x04\n      add\n      tag_305\n      swap1\n      tag_306\n      jump\t// in\n    tag_305:\n      mload(0x40)\n      dup1\n      swap2\n      sub\n      swap1\n      revert\n    tag_304:\n        /* \"contracts/PetitionPlatform.sol\":10251:10256  _days */\n      dup1\n        /* \"contracts/PetitionPlatform.sol\":10228:10248  defaultTokenDuration */\n      0x09\n        /* \"contracts/PetitionPlatform.sol\":10228:10256  defaultTokenDuration = _days */\n      dup2\n      swap1\n      sstore\n      pop\n        /* \"contracts/PetitionPlatform.sol\":10085:10264  function setDefaultTokenDuration(uint256 _days) external onlyOwner {... */\n      pop\n      jump\t// out\n        /* \"contracts/PetitionPlatform.sol\":1545:1584  uint256 public defaultTokenDuration = 7 */\n    tag_121:\n      sload(0x09)\n      dup2\n      jump\t// out\n        /* \"contracts/PetitionPlatform.sol\":1235:1279  uint256 public baseCampaignFee = 0.002 ether */\n    tag_125:\n      sload(0x05)\n      dup2\n      jump\t// out\n        /* \"contracts/PetitionPlatform.sol\":7217:7826  function signPetition(uint256 _petitionId) external {... */\n    tag_130:\n        /* \"contracts/PetitionPlatform.sol\":7302:7317  petitionCounter */\n      sload(0x04)\n        /* \"contracts/PetitionPlatform.sol\":7288:7299  _petitionId */\n      dup2\n        /* \"contracts/PetitionPlatform.sol\":7288:7317  _petitionId < petitionCounter */\n      lt\n        /* \"contracts/PetitionPlatform.sol\":7280:7345  require(_petitionId < petitionCounter, \"Petition does not exist\") */\n      tag_308\n      jumpi\n      mload(0x40)\n      0x08c379a000000000000000000000000000000000000000000000000000000000\n      dup2\n      mstore\n      0x04\n      add\n      tag_309\n      swap1\n      tag_163\n      jump\t// in\n    tag_309:\n      mload(0x40)\n      dup1\n      swap2\n      sub\n      swap1\n      revert\n    tag_308:\n        /* \"contracts/PetitionPlatform.sol\":7356:7381  Petition storage petition */\n      0x00\n        /* \"contracts/PetitionPlatform.sol\":7384:7393  petitions */\n      0x0a\n        /* \"contracts/PetitionPlatform.sol\":7384:7406  petitions[_petitionId] */\n      0x00\n        /* \"contracts/PetitionPlatform.sol\":7394:7405  _petitionId */\n      dup4\n        /* \"contracts/PetitionPlatform.sol\":7384:7406  petitions[_petitionId] */\n      dup2\n      mstore\n      0x20\n      add\n      swap1\n      dup2\n      mstore\n      0x20\n      add\n      0x00\n      keccak256\n        /* \"contracts/PetitionPlatform.sol\":7356:7406  Petition storage petition = petitions[_petitionId] */\n      swap1\n      pop\n        /* \"contracts/PetitionPlatform.sol\":7435:7443  petition */\n      dup1\n        /* \"contracts/PetitionPlatform.sol\":7435:7452  petition.isActive */\n      0x08\n      add\n      0x00\n      swap1\n      sload\n      swap1\n      0x0100\n      exp\n      swap1\n      div\n      0xff\n      and\n        /* \"contracts/PetitionPlatform.sol\":7427:7479  require(petition.isActive, \"Petition is not active\") */\n      tag_310\n      jumpi\n      mload(0x40)\n      0x08c379a000000000000000000000000000000000000000000000000000000000\n      dup2\n      mstore\n      0x04\n      add\n      tag_311\n      swap1\n      tag_312\n      jump\t// in\n    tag_311:\n      mload(0x40)\n      dup1\n      swap2\n      sub\n      swap1\n      revert\n    tag_310:\n        /* \"contracts/PetitionPlatform.sol\":7517:7525  petition */\n      dup1\n        /* \"contracts/PetitionPlatform.sol\":7517:7534  petition.deadline */\n      0x06\n      add\n      sload\n        /* \"contracts/PetitionPlatform.sol\":7498:7513  block.timestamp */\n      timestamp\n        /* \"contracts/PetitionPlatform.sol\":7498:7534  block.timestamp <= petition.deadline */\n      gt\n      iszero\n        /* \"contracts/PetitionPlatform.sol\":7490:7557  require(block.timestamp <= petition.deadline, \"Petition has ended\") */\n      tag_313\n      jumpi\n      mload(0x40)\n      0x08c379a000000000000000000000000000000000000000000000000000000000\n      dup2\n      mstore\n      0x04\n      add\n      tag_314\n      swap1\n      tag_315\n      jump\t// in\n    tag_314:\n      mload(0x40)\n      dup1\n      swap2\n      sub\n      swap1\n      revert\n    tag_313:\n        /* \"contracts/PetitionPlatform.sol\":7577:7586  hasSigned */\n      0x0c\n        /* \"contracts/PetitionPlatform.sol\":7577:7599  hasSigned[_petitionId] */\n      0x00\n        /* \"contracts/PetitionPlatform.sol\":7587:7598  _petitionId */\n      dup4\n        /* \"contracts/PetitionPlatform.sol\":7577:7599  hasSigned[_petitionId] */\n      dup2\n      mstore\n      0x20\n      add\n      swap1\n      dup2\n      mstore\n      0x20\n      add\n      0x00\n      keccak256\n        /* \"contracts/PetitionPlatform.sol\":7577:7611  hasSigned[_petitionId][msg.sender] */\n      0x00\n        /* \"contracts/PetitionPlatform.sol\":7600:7610  msg.sender */\n      caller\n        /* \"contracts/PetitionPlatform.sol\":7577:7611  hasSigned[_petitionId][msg.sender] */\n      0xffffffffffffffffffffffffffffffffffffffff\n      and\n      0xffffffffffffffffffffffffffffffffffffffff\n      and\n      dup2\n      mstore\n      0x20\n      add\n      swap1\n      dup2\n      mstore\n      0x20\n      add\n      0x00\n      keccak256\n      0x00\n      swap1\n      sload\n      swap1\n      0x0100\n      exp\n      swap1\n      div\n      0xff\n      and\n        /* \"contracts/PetitionPlatform.sol\":7576:7611  !hasSigned[_petitionId][msg.sender] */\n      iszero\n        /* \"contracts/PetitionPlatform.sol\":7568:7630  require(!hasSigned[_petitionId][msg.sender], \"Already signed\") */\n      tag_316\n      jumpi\n      mload(0x40)\n      0x08c379a000000000000000000000000000000000000000000000000000000000\n      dup2\n      mstore\n      0x04\n      add\n      tag_317\n      swap1\n      tag_318\n      jump\t// in\n    tag_317:\n      mload(0x40)\n      dup1\n      swap2\n      sub\n      swap1\n      revert\n    tag_316:\n        /* \"contracts/PetitionPlatform.sol\":7688:7692  true */\n      0x01\n        /* \"contracts/PetitionPlatform.sol\":7651:7660  hasSigned */\n      0x0c\n        /* \"contracts/PetitionPlatform.sol\":7651:7673  hasSigned[_petitionId] */\n      0x00\n        /* \"contracts/PetitionPlatform.sol\":7661:7672  _petitionId */\n      dup5\n        /* \"contracts/PetitionPlatform.sol\":7651:7673  hasSigned[_petitionId] */\n      dup2\n      mstore\n      0x20\n      add\n      swap1\n      dup2\n      mstore\n      0x20\n      add\n      0x00\n      keccak256\n        /* \"contracts/PetitionPlatform.sol\":7651:7685  hasSigned[_petitionId][msg.sender] */\n      0x00\n        /* \"contracts/PetitionPlatform.sol\":7674:7684  msg.sender */\n      caller\n        /* \"contracts/PetitionPlatform.sol\":7651:7685  hasSigned[_petitionId][msg.sender] */\n      0xffffffffffffffffffffffffffffffffffffffff\n      and\n      0xffffffffffffffffffffffffffffffffffffffff\n      and\n      dup2\n      mstore\n      0x20\n      add\n      swap1\n      dup2\n      mstore\n      0x20\n      add\n      0x00\n      keccak256\n      0x00\n        /* \"contracts/PetitionPlatform.sol\":7651:7692  hasSigned[_petitionId][msg.sender] = true */\n      0x0100\n      exp\n      dup2\n      sload\n      dup2\n      0xff\n      mul\n      not\n      and\n      swap1\n      dup4\n      iszero\n      iszero\n      mul\n      or\n      swap1\n      sstore\n      pop\n        /* \"contracts/PetitionPlatform.sol\":7703:7711  petition */\n      dup1\n        /* \"contracts/PetitionPlatform.sol\":7703:7726  petition.signatureCount */\n      0x07\n      add\n      0x00\n        /* \"contracts/PetitionPlatform.sol\":7703:7728  petition.signatureCount++ */\n      dup2\n      sload\n      dup1\n      swap3\n      swap2\n      swap1\n      tag_319\n      swap1\n      tag_225\n      jump\t// in\n    tag_319:\n      swap2\n      swap1\n      pop\n      sstore\n      pop\n        /* \"contracts/PetitionPlatform.sol\":7782:7792  msg.sender */\n      caller\n        /* \"contracts/PetitionPlatform.sol\":7754:7818  PetitionSigned(_petitionId, msg.sender, petition.signatureCount) */\n      0xffffffffffffffffffffffffffffffffffffffff\n      and\n        /* \"contracts/PetitionPlatform.sol\":7769:7780  _petitionId */\n      dup3\n        /* \"contracts/PetitionPlatform.sol\":7754:7818  PetitionSigned(_petitionId, msg.sender, petition.signatureCount) */\n      0xa504fa1a622895e43328023a9fa609eebec933d785df4e1b4f33c587d12d835d\n        /* \"contracts/PetitionPlatform.sol\":7794:7802  petition */\n      dup4\n        /* \"contracts/PetitionPlatform.sol\":7794:7817  petition.signatureCount */\n      0x07\n      add\n      sload\n        /* \"contracts/PetitionPlatform.sol\":7754:7818  PetitionSigned(_petitionId, msg.sender, petition.signatureCount) */\n      mload(0x40)\n      tag_320\n      swap2\n      swap1\n      tag_55\n      jump\t// in\n    tag_320:\n      mload(0x40)\n      dup1\n      swap2\n      sub\n      swap1\n      log3\n        /* \"contracts/PetitionPlatform.sol\":7269:7826  {... */\n      pop\n        /* \"contracts/PetitionPlatform.sol\":7217:7826  function signPetition(uint256 _petitionId) external {... */\n      pop\n      jump\t// out\n        /* \"contracts/PetitionPlatform.sol\":3273:3607  function calculateCampaignFee(uint256 _durationInDays) public view returns (uint256) {... */\n    tag_134:\n        /* \"contracts/PetitionPlatform.sol\":3349:3356  uint256 */\n      0x00\n        /* \"contracts/PetitionPlatform.sol\":3392:3408  baseDurationDays */\n      sload(0x06)\n        /* \"contracts/PetitionPlatform.sol\":3373:3388  _durationInDays */\n      dup3\n        /* \"contracts/PetitionPlatform.sol\":3373:3408  _durationInDays <= baseDurationDays */\n      gt\n        /* \"contracts/PetitionPlatform.sol\":3369:3459  if (_durationInDays <= baseDurationDays) {... */\n      tag_322\n      jumpi\n        /* \"contracts/PetitionPlatform.sol\":3432:3447  baseCampaignFee */\n      sload(0x05)\n        /* \"contracts/PetitionPlatform.sol\":3425:3447  return baseCampaignFee */\n      swap1\n      pop\n      jump(tag_321)\n        /* \"contracts/PetitionPlatform.sol\":3369:3459  if (_durationInDays <= baseDurationDays) {... */\n    tag_322:\n        /* \"contracts/PetitionPlatform.sol\":3479:3496  uint256 extraDays */\n      0x00\n        /* \"contracts/PetitionPlatform.sol\":3517:3533  baseDurationDays */\n      sload(0x06)\n        /* \"contracts/PetitionPlatform.sol\":3499:3514  _durationInDays */\n      dup4\n        /* \"contracts/PetitionPlatform.sol\":3499:3533  _durationInDays - baseDurationDays */\n      tag_323\n      swap2\n      swap1\n      tag_324\n      jump\t// in\n    tag_323:\n        /* \"contracts/PetitionPlatform.sol\":3479:3533  uint256 extraDays = _durationInDays - baseDurationDays */\n      swap1\n      pop\n        /* \"contracts/PetitionPlatform.sol\":3582:3598  additionalDayFee */\n      sload(0x07)\n        /* \"contracts/PetitionPlatform.sol\":3570:3579  extraDays */\n      dup2\n        /* \"contracts/PetitionPlatform.sol\":3570:3598  extraDays * additionalDayFee */\n      tag_325\n      swap2\n      swap1\n      tag_241\n      jump\t// in\n    tag_325:\n        /* \"contracts/PetitionPlatform.sol\":3551:3566  baseCampaignFee */\n      sload(0x05)\n        /* \"contracts/PetitionPlatform.sol\":3551:3599  baseCampaignFee + (extraDays * additionalDayFee) */\n      tag_326\n      swap2\n      swap1\n      tag_243\n      jump\t// in\n    tag_326:\n        /* \"contracts/PetitionPlatform.sol\":3544:3599  return baseCampaignFee + (extraDays * additionalDayFee) */\n      swap2\n      pop\n      pop\n        /* \"contracts/PetitionPlatform.sol\":3273:3607  function calculateCampaignFee(uint256 _durationInDays) public view returns (uint256) {... */\n    tag_321:\n      swap2\n      swap1\n      pop\n      jump\t// out\n        /* \"contracts/PetitionPlatform.sol\":9017:9160  function hasUserSigned(uint256 _petitionId, address _user) external view returns (bool) {... */\n    tag_139:\n        /* \"contracts/PetitionPlatform.sol\":9099:9103  bool */\n      0x00\n        /* \"contracts/PetitionPlatform.sol\":9123:9132  hasSigned */\n      0x0c\n        /* \"contracts/PetitionPlatform.sol\":9123:9145  hasSigned[_petitionId] */\n      0x00\n        /* \"contracts/PetitionPlatform.sol\":9133:9144  _petitionId */\n      dup5\n        /* \"contracts/PetitionPlatform.sol\":9123:9145  hasSigned[_petitionId] */\n      dup2\n      mstore\n      0x20\n      add\n      swap1\n      dup2\n      mstore\n      0x20\n      add\n      0x00\n      keccak256\n        /* \"contracts/PetitionPlatform.sol\":9123:9152  hasSigned[_petitionId][_user] */\n      0x00\n        /* \"contracts/PetitionPlatform.sol\":9146:9151  _user */\n      dup4\n        /* \"contracts/PetitionPlatform.sol\":9123:9152  hasSigned[_petitionId][_user] */\n      0xffffffffffffffffffffffffffffffffffffffff\n      and\n      0xffffffffffffffffffffffffffffffffffffffff\n      and\n      dup2\n      mstore\n      0x20\n      add\n      swap1\n      dup2\n      mstore\n      0x20\n      add\n      0x00\n      keccak256\n      0x00\n      swap1\n      sload\n      swap1\n      0x0100\n      exp\n      swap1\n      div\n      0xff\n      and\n        /* \"contracts/PetitionPlatform.sol\":9116:9152  return hasSigned[_petitionId][_user] */\n      swap1\n      pop\n        /* \"contracts/PetitionPlatform.sol\":9017:9160  function hasUserSigned(uint256 _petitionId, address _user) external view returns (bool) {... */\n      swap3\n      swap2\n      pop\n      pop\n      jump\t// out\n        /* \"contracts/PetitionPlatform.sol\":1376:1422  uint256 public additionalDayFee = 0.0003 ether */\n    tag_143:\n      sload(0x07)\n      dup2\n      jump\t// out\n        /* \"@openzeppelin/contracts/access/Ownable.sol\":2543:2758  function transferOwnership(address newOwner) public virtual onlyOwner {... */\n    tag_148:\n        /* \"@openzeppelin/contracts/access/Ownable.sol\":1531:1544  _checkOwner() */\n      tag_329\n        /* \"@openzeppelin/contracts/access/Ownable.sol\":1531:1542  _checkOwner */\n      tag_254\n        /* \"@openzeppelin/contracts/access/Ownable.sol\":1531:1544  _checkOwner() */\n      jump\t// in\n    tag_329:\n        /* \"@openzeppelin/contracts/access/Ownable.sol\":2647:2648  0 */\n      0x00\n        /* \"@openzeppelin/contracts/access/Ownable.sol\":2627:2649  newOwner == address(0) */\n      0xffffffffffffffffffffffffffffffffffffffff\n      and\n        /* \"@openzeppelin/contracts/access/Ownable.sol\":2627:2635  newOwner */\n      dup2\n        /* \"@openzeppelin/contracts/access/Ownable.sol\":2627:2649  newOwner == address(0) */\n      0xffffffffffffffffffffffffffffffffffffffff\n      and\n      sub\n        /* \"@openzeppelin/contracts/access/Ownable.sol\":2623:2714  if (newOwner == address(0)) {... */\n      tag_331\n      jumpi\n        /* \"@openzeppelin/contracts/access/Ownable.sol\":2700:2701  0 */\n      0x00\n        /* \"@openzeppelin/contracts/access/Ownable.sol\":2672:2703  OwnableInvalidOwner(address(0)) */\n      mload(0x40)\n      0x1e4fbdf700000000000000000000000000000000000000000000000000000000\n      dup2\n      mstore\n      0x04\n      add\n      tag_332\n      swap2\n      swap1\n      tag_106\n      jump\t// in\n    tag_332:\n      mload(0x40)\n      dup1\n      swap2\n      sub\n      swap1\n      revert\n        /* \"@openzeppelin/contracts/access/Ownable.sol\":2623:2714  if (newOwner == address(0)) {... */\n    tag_331:\n        /* \"@openzeppelin/contracts/access/Ownable.sol\":2723:2751  _transferOwnership(newOwner) */\n      tag_333\n        /* \"@openzeppelin/contracts/access/Ownable.sol\":2742:2750  newOwner */\n      dup2\n        /* \"@openzeppelin/contracts/access/Ownable.sol\":2723:2741  _transferOwnership */\n      tag_297\n        /* \"@openzeppelin/contracts/access/Ownable.sol\":2723:2751  _transferOwnership(newOwner) */\n      jump\t// in\n    tag_333:\n        /* \"@openzeppelin/contracts/access/Ownable.sol\":2543:2758  function transferOwnership(address newOwner) public virtual onlyOwner {... */\n      pop\n      jump\t// out\n        /* \"contracts/PetitionPlatform.sol\":7950:8432  function closePetition(uint256 _petitionId) external {... */\n    tag_152:\n        /* \"contracts/PetitionPlatform.sol\":8036:8051  petitionCounter */\n      sload(0x04)\n        /* \"contracts/PetitionPlatform.sol\":8022:8033  _petitionId */\n      dup2\n        /* \"contracts/PetitionPlatform.sol\":8022:8051  _petitionId < petitionCounter */\n      lt\n        /* \"contracts/PetitionPlatform.sol\":8014:8079  require(_petitionId < petitionCounter, \"Petition does not exist\") */\n      tag_335\n      jumpi\n      mload(0x40)\n      0x08c379a000000000000000000000000000000000000000000000000000000000\n      dup2\n      mstore\n      0x04\n      add\n      tag_336\n      swap1\n      tag_163\n      jump\t// in\n    tag_336:\n      mload(0x40)\n      dup1\n      swap2\n      sub\n      swap1\n      revert\n    tag_335:\n        /* \"contracts/PetitionPlatform.sol\":8090:8115  Petition storage petition */\n      0x00\n        /* \"contracts/PetitionPlatform.sol\":8118:8127  petitions */\n      0x0a\n        /* \"contracts/PetitionPlatform.sol\":8118:8140  petitions[_petitionId] */\n      0x00\n        /* \"contracts/PetitionPlatform.sol\":8128:8139  _petitionId */\n      dup4\n        /* \"contracts/PetitionPlatform.sol\":8118:8140  petitions[_petitionId] */\n      dup2\n      mstore\n      0x20\n      add\n      swap1\n      dup2\n      mstore\n      0x20\n      add\n      0x00\n      keccak256\n        /* \"contracts/PetitionPlatform.sol\":8090:8140  Petition storage petition = petitions[_petitionId] */\n      swap1\n      pop\n        /* \"contracts/PetitionPlatform.sol\":8197:8205  petition */\n      dup1\n        /* \"contracts/PetitionPlatform.sol\":8197:8213  petition.creator */\n      0x04\n      add\n      0x00\n      swap1\n      sload\n      swap1\n      0x0100\n      exp\n      swap1\n      div\n      0xffffffffffffffffffffffffffffffffffffffff\n      and\n        /* \"contracts/PetitionPlatform.sol\":8183:8213  msg.sender == petition.creator */\n      0xffffffffffffffffffffffffffffffffffffffff\n      and\n        /* \"contracts/PetitionPlatform.sol\":8183:8193  msg.sender */\n      caller\n        /* \"contracts/PetitionPlatform.sol\":8183:8213  msg.sender == petition.creator */\n      0xffffffffffffffffffffffffffffffffffffffff\n      and\n      eq\n        /* \"contracts/PetitionPlatform.sol\":8183:8238  msg.sender == petition.creator || msg.sender == owner() */\n      dup1\n      tag_337\n      jumpi\n      pop\n        /* \"contracts/PetitionPlatform.sol\":8231:8238  owner() */\n      tag_338\n        /* \"contracts/PetitionPlatform.sol\":8231:8236  owner */\n      tag_109\n        /* \"contracts/PetitionPlatform.sol\":8231:8238  owner() */\n      jump\t// in\n    tag_338:\n        /* \"contracts/PetitionPlatform.sol\":8217:8238  msg.sender == owner() */\n      0xffffffffffffffffffffffffffffffffffffffff\n      and\n        /* \"contracts/PetitionPlatform.sol\":8217:8227  msg.sender */\n      caller\n        /* \"contracts/PetitionPlatform.sol\":8217:8238  msg.sender == owner() */\n      0xffffffffffffffffffffffffffffffffffffffff\n      and\n      eq\n        /* \"contracts/PetitionPlatform.sol\":8183:8238  msg.sender == petition.creator || msg.sender == owner() */\n    tag_337:\n        /* \"contracts/PetitionPlatform.sol\":8161:8280  require(... */\n      tag_339\n      jumpi\n      mload(0x40)\n      0x08c379a000000000000000000000000000000000000000000000000000000000\n      dup2\n      mstore\n      0x04\n      add\n      tag_340\n      swap1\n      tag_341\n      jump\t// in\n    tag_340:\n      mload(0x40)\n      dup1\n      swap2\n      sub\n      swap1\n      revert\n    tag_339:\n        /* \"contracts/PetitionPlatform.sol\":8299:8307  petition */\n      dup1\n        /* \"contracts/PetitionPlatform.sol\":8299:8316  petition.isActive */\n      0x08\n      add\n      0x00\n      swap1\n      sload\n      swap1\n      0x0100\n      exp\n      swap1\n      div\n      0xff\n      and\n        /* \"contracts/PetitionPlatform.sol\":8291:8335  require(petition.isActive, \"Already closed\") */\n      tag_342\n      jumpi\n      mload(0x40)\n      0x08c379a000000000000000000000000000000000000000000000000000000000\n      dup2\n      mstore\n      0x04\n      add\n      tag_343\n      swap1\n      tag_344\n      jump\t// in\n    tag_343:\n      mload(0x40)\n      dup1\n      swap2\n      sub\n      swap1\n      revert\n    tag_342:\n        /* \"contracts/PetitionPlatform.sol\":8376:8381  false */\n      0x00\n        /* \"contracts/PetitionPlatform.sol\":8356:8364  petition */\n      dup2\n        /* \"contracts/PetitionPlatform.sol\":8356:8373  petition.isActive */\n      0x08\n      add\n      0x00\n        /* \"contracts/PetitionPlatform.sol\":8356:8381  petition.isActive = false */\n      0x0100\n      exp\n      dup2\n      sload\n      dup2\n      0xff\n      mul\n      not\n      and\n      swap1\n      dup4\n      iszero\n      iszero\n      mul\n      or\n      swap1\n      sstore\n      pop\n        /* \"contracts/PetitionPlatform.sol\":8412:8423  _petitionId */\n      dup2\n        /* \"contracts/PetitionPlatform.sol\":8397:8424  PetitionClosed(_petitionId) */\n      0x60f9b8db8de8d36d1b8b158b5929ed13941e7bc1dfbc4e720df073924161491b\n      mload(0x40)\n      mload(0x40)\n      dup1\n      swap2\n      sub\n      swap1\n      log2\n        /* \"contracts/PetitionPlatform.sol\":8003:8432  {... */\n      pop\n        /* \"contracts/PetitionPlatform.sol\":7950:8432  function closePetition(uint256 _petitionId) external {... */\n      pop\n      jump\t// out\n        /* \"contracts/PetitionPlatform.sol\":1686:1738  mapping(address => uint256) public paidPetitionCount */\n    tag_156:\n      mstore(0x20, 0x0b)\n      dup1\n      0x00\n      mstore\n      keccak256(0x00, 0x40)\n      0x00\n      swap2\n      pop\n      swap1\n      pop\n      sload\n      dup2\n      jump\t// out\n        /* \"@openzeppelin/contracts/utils/ReentrancyGuard.sol\":2575:2882  function _nonReentrantBefore() private {... */\n    tag_182:\n        /* \"@openzeppelin/contracts/utils/ReentrancyGuard.sol\":1899:1900  2 */\n      0x02\n        /* \"@openzeppelin/contracts/utils/ReentrancyGuard.sol\":2702:2709  _status */\n      sload(0x01)\n        /* \"@openzeppelin/contracts/utils/ReentrancyGuard.sol\":2702:2720  _status == ENTERED */\n      sub\n        /* \"@openzeppelin/contracts/utils/ReentrancyGuard.sol\":2698:2784  if (_status == ENTERED) {... */\n      tag_346\n      jumpi\n        /* \"@openzeppelin/contracts/utils/ReentrancyGuard.sol\":2743:2773  ReentrancyGuardReentrantCall() */\n      mload(0x40)\n      0x3ee5aeb500000000000000000000000000000000000000000000000000000000\n      dup2\n      mstore\n      0x04\n      add\n      mload(0x40)\n      dup1\n      swap2\n      sub\n      swap1\n      revert\n        /* \"@openzeppelin/contracts/utils/ReentrancyGuard.sol\":2698:2784  if (_status == ENTERED) {... */\n    tag_346:\n        /* \"@openzeppelin/contracts/utils/ReentrancyGuard.sol\":1899:1900  2 */\n      0x02\n        /* \"@openzeppelin/contracts/utils/ReentrancyGuard.sol\":2858:2865  _status */\n      0x01\n        /* \"@openzeppelin/contracts/utils/ReentrancyGuard.sol\":2858:2875  _status = ENTERED */\n      dup2\n      swap1\n      sstore\n      pop\n        /* \"@openzeppelin/contracts/utils/ReentrancyGuard.sol\":2575:2882  function _nonReentrantBefore() private {... */\n      jump\t// out\n        /* \"contracts/PetitionPlatform.sol\":2907:3036  function isMember(address user) internal view returns (bool) {... */\n    tag_185:\n        /* \"contracts/PetitionPlatform.sol\":2962:2966  bool */\n      0x00\n        /* \"contracts/PetitionPlatform.sol\":3027:3028  0 */\n      0x00\n        /* \"contracts/PetitionPlatform.sol\":2994:3007  daoMembership */\n      0x02\n      0x00\n      swap1\n      sload\n      swap1\n      0x0100\n      exp\n      swap1\n      div\n      0xffffffffffffffffffffffffffffffffffffffff\n      and\n        /* \"contracts/PetitionPlatform.sol\":2986:3018  IERC721(daoMembership).balanceOf */\n      0xffffffffffffffffffffffffffffffffffffffff\n      and\n      0x70a08231\n        /* \"contracts/PetitionPlatform.sol\":3019:3023  user */\n      dup5\n        /* \"contracts/PetitionPlatform.sol\":2986:3024  IERC721(daoMembership).balanceOf(user) */\n      mload(0x40)\n      dup3\n      0xffffffff\n      and\n      0xe0\n      shl\n      dup2\n      mstore\n      0x04\n      add\n      tag_348\n      swap2\n      swap1\n      tag_106\n      jump\t// in\n    tag_348:\n      0x20\n      mload(0x40)\n      dup1\n      dup4\n      sub\n      dup2\n      dup7\n      gas\n      staticcall\n      iszero\n      dup1\n      iszero\n      tag_350\n      jumpi\n      returndatacopy(0x00, 0x00, returndatasize)\n      revert(0x00, returndatasize)\n    tag_350:\n      pop\n      pop\n      pop\n      pop\n      mload(0x40)\n      returndatasize\n      not(0x1f)\n      0x1f\n      dup3\n      add\n      and\n      dup3\n      add\n      dup1\n      0x40\n      mstore\n      pop\n      dup2\n      add\n      swap1\n      tag_351\n      swap2\n      swap1\n      tag_206\n      jump\t// in\n    tag_351:\n        /* \"contracts/PetitionPlatform.sol\":2986:3028  IERC721(daoMembership).balanceOf(user) > 0 */\n      gt\n        /* \"contracts/PetitionPlatform.sol\":2979:3028  return IERC721(daoMembership).balanceOf(user) > 0 */\n      swap1\n      pop\n        /* \"contracts/PetitionPlatform.sol\":2907:3036  function isMember(address user) internal view returns (bool) {... */\n      swap2\n      swap1\n      pop\n      jump\t// out\n        /* \"@openzeppelin/contracts/utils/ReentrancyGuard.sol\":2888:3096  function _nonReentrantAfter() private {... */\n    tag_251:\n        /* \"@openzeppelin/contracts/utils/ReentrancyGuard.sol\":1857:1858  1 */\n      0x01\n        /* \"@openzeppelin/contracts/utils/ReentrancyGuard.sol\":3068:3075  _status */\n      dup1\n        /* \"@openzeppelin/contracts/utils/ReentrancyGuard.sol\":3068:3089  _status = NOT_ENTERED */\n      dup2\n      swap1\n      sstore\n      pop\n        /* \"@openzeppelin/contracts/utils/ReentrancyGuard.sol\":2888:3096  function _nonReentrantAfter() private {... */\n      jump\t// out\n        /* \"@openzeppelin/contracts/access/Ownable.sol\":1796:1958  function _checkOwner() internal view virtual {... */\n    tag_254:\n        /* \"@openzeppelin/contracts/access/Ownable.sol\":1866:1878  _msgSender() */\n      tag_354\n        /* \"@openzeppelin/contracts/access/Ownable.sol\":1866:1876  _msgSender */\n      tag_355\n        /* \"@openzeppelin/contracts/access/Ownable.sol\":1866:1878  _msgSender() */\n      jump\t// in\n    tag_354:\n        /* \"@openzeppelin/contracts/access/Ownable.sol\":1855:1878  owner() != _msgSender() */\n      0xffffffffffffffffffffffffffffffffffffffff\n      and\n        /* \"@openzeppelin/contracts/access/Ownable.sol\":1855:1862  owner() */\n      tag_356\n        /* \"@openzeppelin/contracts/access/Ownable.sol\":1855:1860  owner */\n      tag_109\n        /* \"@openzeppelin/contracts/access/Ownable.sol\":1855:1862  owner() */\n      jump\t// in\n    tag_356:\n        /* \"@openzeppelin/contracts/access/Ownable.sol\":1855:1878  owner() != _msgSender() */\n      0xffffffffffffffffffffffffffffffffffffffff\n      and\n      eq\n        /* \"@openzeppelin/contracts/access/Ownable.sol\":1851:1952  if (owner() != _msgSender()) {... */\n      tag_357\n      jumpi\n        /* \"@openzeppelin/contracts/access/Ownable.sol\":1928:1940  _msgSender() */\n      tag_358\n        /* \"@openzeppelin/contracts/access/Ownable.sol\":1928:1938  _msgSender */\n      tag_355\n        /* \"@openzeppelin/contracts/access/Ownable.sol\":1928:1940  _msgSender() */\n      jump\t// in\n    tag_358:\n        /* \"@openzeppelin/contracts/access/Ownable.sol\":1901:1941  OwnableUnauthorizedAccount(_msgSender()) */\n      mload(0x40)\n      0x118cdaa700000000000000000000000000000000000000000000000000000000\n      dup2\n      mstore\n      0x04\n      add\n      tag_359\n      swap2\n      swap1\n      tag_106\n      jump\t// in\n    tag_359:\n      mload(0x40)\n      dup1\n      swap2\n      sub\n      swap1\n      revert\n        /* \"@openzeppelin/contracts/access/Ownable.sol\":1851:1952  if (owner() != _msgSender()) {... */\n    tag_357:\n        /* \"@openzeppelin/contracts/access/Ownable.sol\":1796:1958  function _checkOwner() internal view virtual {... */\n      jump\t// out\n        /* \"@openzeppelin/contracts/access/Ownable.sol\":2912:3099  function _transferOwnership(address newOwner) internal virtual {... */\n    tag_297:\n        /* \"@openzeppelin/contracts/access/Ownable.sol\":2985:3001  address oldOwner */\n      0x00\n        /* \"@openzeppelin/contracts/access/Ownable.sol\":3004:3010  _owner */\n      0x00\n      0x00\n      swap1\n      sload\n      swap1\n      0x0100\n      exp\n      swap1\n      div\n      0xffffffffffffffffffffffffffffffffffffffff\n      and\n        /* \"@openzeppelin/contracts/access/Ownable.sol\":2985:3010  address oldOwner = _owner */\n      swap1\n      pop\n        /* \"@openzeppelin/contracts/access/Ownable.sol\":3029:3037  newOwner */\n      dup2\n        /* \"@openzeppelin/contracts/access/Ownable.sol\":3020:3026  _owner */\n      0x00\n      0x00\n        /* \"@openzeppelin/contracts/access/Ownable.sol\":3020:3037  _owner = newOwner */\n      0x0100\n      exp\n      dup2\n      sload\n      dup2\n      0xffffffffffffffffffffffffffffffffffffffff\n      mul\n      not\n      and\n      swap1\n      dup4\n      0xffffffffffffffffffffffffffffffffffffffff\n      and\n      mul\n      or\n      swap1\n      sstore\n      pop\n        /* \"@openzeppelin/contracts/access/Ownable.sol\":3083:3091  newOwner */\n      dup2\n        /* \"@openzeppelin/contracts/access/Ownable.sol\":3052:3092  OwnershipTransferred(oldOwner, newOwner) */\n      0xffffffffffffffffffffffffffffffffffffffff\n      and\n        /* \"@openzeppelin/contracts/access/Ownable.sol\":3073:3081  oldOwner */\n      dup2\n        /* \"@openzeppelin/contracts/access/Ownable.sol\":3052:3092  OwnershipTransferred(oldOwner, newOwner) */\n      0xffffffffffffffffffffffffffffffffffffffff\n      and\n      0x8be0079c531659141344cd1fd0a4f28419497f9722a3daafe3b4186f6b6457e0\n      mload(0x40)\n      mload(0x40)\n      dup1\n      swap2\n      sub\n      swap1\n      log3\n        /* \"@openzeppelin/contracts/access/Ownable.sol\":2975:3099  {... */\n      pop\n        /* \"@openzeppelin/contracts/access/Ownable.sol\":2912:3099  function _transferOwnership(address newOwner) internal virtual {... */\n      pop\n      jump\t// out\n        /* \"@openzeppelin/contracts/utils/Context.sol\":656:752  function _msgSender() internal view virtual returns (address) {... */\n    tag_355:\n        /* \"@openzeppelin/contracts/utils/Context.sol\":709:716  address */\n      0x00\n        /* \"@openzeppelin/contracts/utils/Context.sol\":735:745  msg.sender */\n      caller\n        /* \"@openzeppelin/contracts/utils/Context.sol\":728:745  return msg.sender */\n      swap1\n      pop\n        /* \"@openzeppelin/contracts/utils/Context.sol\":656:752  function _msgSender() internal view virtual returns (address) {... */\n      swap1\n      jump\t// out\n    tag_159:\n      mload(0x40)\n      dup1\n      0x0140\n      add\n      0x40\n      mstore\n      dup1\n      0x00\n      dup2\n      mstore\n      0x20\n      add\n      0x60\n      dup2\n      mstore\n      0x20\n      add\n      0x60\n      dup2\n      mstore\n      0x20\n      add\n      0x60\n      dup2\n      mstore\n      0x20\n      add\n      and(0xffffffffffffffffffffffffffffffffffffffff, 0x00)\n      dup2\n      mstore\n      0x20\n      add\n      0x00\n      dup2\n      mstore\n      0x20\n      add\n      0x00\n      dup2\n      mstore\n      0x20\n      add\n      0x00\n      dup2\n      mstore\n      0x20\n      add\n      iszero(iszero(0x00))\n      dup2\n      mstore\n      0x20\n      add\n      0x00\n      dup2\n      mstore\n      pop\n      swap1\n      jump\t// out\n        /* \"#utility.yul\":7:82   */\n    tag_362:\n        /* \"#utility.yul\":40:46   */\n      0x00\n        /* \"#utility.yul\":73:75   */\n      0x40\n        /* \"#utility.yul\":67:76   */\n      mload\n        /* \"#utility.yul\":57:76   */\n      swap1\n      pop\n        /* \"#utility.yul\":7:82   */\n      swap1\n      jump\t// out\n        /* \"#utility.yul\":88:205   */\n    tag_363:\n        /* \"#utility.yul\":197:198   */\n      0x00\n        /* \"#utility.yul\":194:195   */\n      0x00\n        /* \"#utility.yul\":187:199   */\n      revert\n        /* \"#utility.yul\":211:328   */\n    tag_364:\n        /* \"#utility.yul\":320:321   */\n      0x00\n        /* \"#utility.yul\":317:318   */\n      0x00\n        /* \"#utility.yul\":310:322   */\n      revert\n        /* \"#utility.yul\":334:411   */\n    tag_365:\n        /* \"#utility.yul\":371:378   */\n      0x00\n        /* \"#utility.yul\":400:405   */\n      dup2\n        /* \"#utility.yul\":389:405   */\n      swap1\n      pop\n        /* \"#utility.yul\":334:411   */\n      swap2\n      swap1\n      pop\n      jump\t// out\n        /* \"#utility.yul\":417:539   */\n    tag_366:\n        /* \"#utility.yul\":490:514   */\n      tag_466\n        /* \"#utility.yul\":508:513   */\n      dup2\n        /* \"#utility.yul\":490:514   */\n      tag_365\n      jump\t// in\n    tag_466:\n        /* \"#utility.yul\":483:488   */\n      dup2\n        /* \"#utility.yul\":480:515   */\n      eq\n        /* \"#utility.yul\":470:533   */\n      tag_467\n      jumpi\n        /* \"#utility.yul\":529:530   */\n      0x00\n        /* \"#utility.yul\":526:527   */\n      0x00\n        /* \"#utility.yul\":519:531   */\n      revert\n        /* \"#utility.yul\":470:533   */\n    tag_467:\n        /* \"#utility.yul\":417:539   */\n      pop\n      jump\t// out\n        /* \"#utility.yul\":545:684   */\n    tag_367:\n        /* \"#utility.yul\":591:596   */\n      0x00\n        /* \"#utility.yul\":629:635   */\n      dup2\n        /* \"#utility.yul\":616:636   */\n      calldataload\n        /* \"#utility.yul\":607:636   */\n      swap1\n      pop\n        /* \"#utility.yul\":645:678   */\n      tag_469\n        /* \"#utility.yul\":672:677   */\n      dup2\n        /* \"#utility.yul\":645:678   */\n      tag_366\n      jump\t// in\n    tag_469:\n        /* \"#utility.yul\":545:684   */\n      swap3\n      swap2\n      pop\n      pop\n      jump\t// out\n        /* \"#utility.yul\":690:1019   */\n    tag_38:\n        /* \"#utility.yul\":749:755   */\n      0x00\n        /* \"#utility.yul\":798:800   */\n      0x20\n        /* \"#utility.yul\":786:795   */\n      dup3\n        /* \"#utility.yul\":777:784   */\n      dup5\n        /* \"#utility.yul\":773:796   */\n      sub\n        /* \"#utility.yul\":769:801   */\n      slt\n        /* \"#utility.yul\":766:885   */\n      iszero\n      tag_471\n      jumpi\n        /* \"#utility.yul\":804:883   */\n      tag_472\n      tag_363\n      jump\t// in\n    tag_472:\n        /* \"#utility.yul\":766:885   */\n    tag_471:\n        /* \"#utility.yul\":924:925   */\n      0x00\n        /* \"#utility.yul\":949:1002   */\n      tag_473\n        /* \"#utility.yul\":994:1001   */\n      dup5\n        /* \"#utility.yul\":985:991   */\n      dup3\n        /* \"#utility.yul\":974:983   */\n      dup6\n        /* \"#utility.yul\":970:992   */\n      add\n        /* \"#utility.yul\":949:1002   */\n      tag_367\n      jump\t// in\n    tag_473:\n        /* \"#utility.yul\":939:1002   */\n      swap2\n      pop\n        /* \"#utility.yul\":895:1012   */\n      pop\n        /* \"#utility.yul\":690:1019   */\n      swap3\n      swap2\n      pop\n      pop\n      jump\t// out\n        /* \"#utility.yul\":1025:1133   */\n    tag_368:\n        /* \"#utility.yul\":1102:1126   */\n      tag_475\n        /* \"#utility.yul\":1120:1125   */\n      dup2\n        /* \"#utility.yul\":1102:1126   */\n      tag_365\n      jump\t// in\n    tag_475:\n        /* \"#utility.yul\":1097:1100   */\n      dup3\n        /* \"#utility.yul\":1090:1127   */\n      mstore\n        /* \"#utility.yul\":1025:1133   */\n      pop\n      pop\n      jump\t// out\n        /* \"#utility.yul\":1139:1238   */\n    tag_369:\n        /* \"#utility.yul\":1191:1197   */\n      0x00\n        /* \"#utility.yul\":1225:1230   */\n      dup2\n        /* \"#utility.yul\":1219:1231   */\n      mload\n        /* \"#utility.yul\":1209:1231   */\n      swap1\n      pop\n        /* \"#utility.yul\":1139:1238   */\n      swap2\n      swap1\n      pop\n      jump\t// out\n        /* \"#utility.yul\":1244:1403   */\n    tag_370:\n        /* \"#utility.yul\":1318:1329   */\n      0x00\n        /* \"#utility.yul\":1352:1358   */\n      dup3\n        /* \"#utility.yul\":1347:1350   */\n      dup3\n        /* \"#utility.yul\":1340:1359   */\n      mstore\n        /* \"#utility.yul\":1392:1396   */\n      0x20\n        /* \"#utility.yul\":1387:1390   */\n      dup3\n        /* \"#utility.yul\":1383:1397   */\n      add\n        /* \"#utility.yul\":1368:1397   */\n      swap1\n      pop\n        /* \"#utility.yul\":1244:1403   */\n      swap3\n      swap2\n      pop\n      pop\n      jump\t// out\n        /* \"#utility.yul\":1409:1548   */\n    tag_371:\n        /* \"#utility.yul\":1498:1504   */\n      dup3\n        /* \"#utility.yul\":1493:1496   */\n      dup2\n        /* \"#utility.yul\":1488:1491   */\n      dup4\n        /* \"#utility.yul\":1482:1505   */\n      mcopy\n        /* \"#utility.yul\":1539:1540   */\n      0x00\n        /* \"#utility.yul\":1530:1536   */\n      dup4\n        /* \"#utility.yul\":1525:1528   */\n      dup4\n        /* \"#utility.yul\":1521:1537   */\n      add\n        /* \"#utility.yul\":1514:1541   */\n      mstore\n        /* \"#utility.yul\":1409:1548   */\n      pop\n      pop\n      pop\n      jump\t// out\n        /* \"#utility.yul\":1554:1656   */\n    tag_372:\n        /* \"#utility.yul\":1595:1601   */\n      0x00\n        /* \"#utility.yul\":1646:1648   */\n      0x1f\n        /* \"#utility.yul\":1642:1649   */\n      not\n        /* \"#utility.yul\":1637:1639   */\n      0x1f\n        /* \"#utility.yul\":1630:1635   */\n      dup4\n        /* \"#utility.yul\":1626:1640   */\n      add\n        /* \"#utility.yul\":1622:1650   */\n      and\n        /* \"#utility.yul\":1612:1650   */\n      swap1\n      pop\n        /* \"#utility.yul\":1554:1656   */\n      swap2\n      swap1\n      pop\n      jump\t// out\n        /* \"#utility.yul\":1662:2019   */\n    tag_373:\n        /* \"#utility.yul\":1740:1743   */\n      0x00\n        /* \"#utility.yul\":1768:1807   */\n      tag_481\n        /* \"#utility.yul\":1801:1806   */\n      dup3\n        /* \"#utility.yul\":1768:1807   */\n      tag_369\n      jump\t// in\n    tag_481:\n        /* \"#utility.yul\":1823:1884   */\n      tag_482\n        /* \"#utility.yul\":1877:1883   */\n      dup2\n        /* \"#utility.yul\":1872:1875   */\n      dup6\n        /* \"#utility.yul\":1823:1884   */\n      tag_370\n      jump\t// in\n    tag_482:\n        /* \"#utility.yul\":1816:1884   */\n      swap4\n      pop\n        /* \"#utility.yul\":1893:1958   */\n      tag_483\n        /* \"#utility.yul\":1951:1957   */\n      dup2\n        /* \"#utility.yul\":1946:1949   */\n      dup6\n        /* \"#utility.yul\":1939:1943   */\n      0x20\n        /* \"#utility.yul\":1932:1937   */\n      dup7\n        /* \"#utility.yul\":1928:1944   */\n      add\n        /* \"#utility.yul\":1893:1958   */\n      tag_371\n      jump\t// in\n    tag_483:\n        /* \"#utility.yul\":1983:2012   */\n      tag_484\n        /* \"#utility.yul\":2005:2011   */\n      dup2\n        /* \"#utility.yul\":1983:2012   */\n      tag_372\n      jump\t// in\n    tag_484:\n        /* \"#utility.yul\":1978:1981   */\n      dup5\n        /* \"#utility.yul\":1974:2013   */\n      add\n        /* \"#utility.yul\":1967:2013   */\n      swap2\n      pop\n        /* \"#utility.yul\":1744:2019   */\n      pop\n        /* \"#utility.yul\":1662:2019   */\n      swap3\n      swap2\n      pop\n      pop\n      jump\t// out\n        /* \"#utility.yul\":2025:2151   */\n    tag_374:\n        /* \"#utility.yul\":2062:2069   */\n      0x00\n        /* \"#utility.yul\":2102:2144   */\n      0xffffffffffffffffffffffffffffffffffffffff\n        /* \"#utility.yul\":2095:2100   */\n      dup3\n        /* \"#utility.yul\":2091:2145   */\n      and\n        /* \"#utility.yul\":2080:2145   */\n      swap1\n      pop\n        /* \"#utility.yul\":2025:2151   */\n      swap2\n      swap1\n      pop\n      jump\t// out\n        /* \"#utility.yul\":2157:2253   */\n    tag_375:\n        /* \"#utility.yul\":2194:2201   */\n      0x00\n        /* \"#utility.yul\":2223:2247   */\n      tag_487\n        /* \"#utility.yul\":2241:2246   */\n      dup3\n        /* \"#utility.yul\":2223:2247   */\n      tag_374\n      jump\t// in\n    tag_487:\n        /* \"#utility.yul\":2212:2247   */\n      swap1\n      pop\n        /* \"#utility.yul\":2157:2253   */\n      swap2\n      swap1\n      pop\n      jump\t// out\n        /* \"#utility.yul\":2259:2367   */\n    tag_376:\n        /* \"#utility.yul\":2336:2360   */\n      tag_489\n        /* \"#utility.yul\":2354:2359   */\n      dup2\n        /* \"#utility.yul\":2336:2360   */\n      tag_375\n      jump\t// in\n    tag_489:\n        /* \"#utility.yul\":2331:2334   */\n      dup3\n        /* \"#utility.yul\":2324:2361   */\n      mstore\n        /* \"#utility.yul\":2259:2367   */\n      pop\n      pop\n      jump\t// out\n        /* \"#utility.yul\":2373:2463   */\n    tag_377:\n        /* \"#utility.yul\":2407:2414   */\n      0x00\n        /* \"#utility.yul\":2450:2455   */\n      dup2\n        /* \"#utility.yul\":2443:2456   */\n      iszero\n        /* \"#utility.yul\":2436:2457   */\n      iszero\n        /* \"#utility.yul\":2425:2457   */\n      swap1\n      pop\n        /* \"#utility.yul\":2373:2463   */\n      swap2\n      swap1\n      pop\n      jump\t// out\n        /* \"#utility.yul\":2469:2568   */\n    tag_378:\n        /* \"#utility.yul\":2540:2561   */\n      tag_492\n        /* \"#utility.yul\":2555:2560   */\n      dup2\n        /* \"#utility.yul\":2540:2561   */\n      tag_377\n      jump\t// in\n    tag_492:\n        /* \"#utility.yul\":2535:2538   */\n      dup3\n        /* \"#utility.yul\":2528:2562   */\n      mstore\n        /* \"#utility.yul\":2469:2568   */\n      pop\n      pop\n      jump\t// out\n        /* \"#utility.yul\":2650:4839   */\n    tag_379:\n        /* \"#utility.yul\":2769:2772   */\n      0x00\n        /* \"#utility.yul\":2805:2811   */\n      0x0140\n        /* \"#utility.yul\":2800:2803   */\n      dup4\n        /* \"#utility.yul\":2796:2812   */\n      add\n        /* \"#utility.yul\":2892:2896   */\n      0x00\n        /* \"#utility.yul\":2885:2890   */\n      dup4\n        /* \"#utility.yul\":2881:2897   */\n      add\n        /* \"#utility.yul\":2875:2898   */\n      mload\n        /* \"#utility.yul\":2911:2974   */\n      tag_494\n        /* \"#utility.yul\":2968:2972   */\n      0x00\n        /* \"#utility.yul\":2963:2966   */\n      dup7\n        /* \"#utility.yul\":2959:2973   */\n      add\n        /* \"#utility.yul\":2945:2957   */\n      dup3\n        /* \"#utility.yul\":2911:2974   */\n      tag_368\n      jump\t// in\n    tag_494:\n        /* \"#utility.yul\":2822:2984   */\n      pop\n        /* \"#utility.yul\":3067:3071   */\n      0x20\n        /* \"#utility.yul\":3060:3065   */\n      dup4\n        /* \"#utility.yul\":3056:3072   */\n      add\n        /* \"#utility.yul\":3050:3073   */\n      mload\n        /* \"#utility.yul\":3120:3123   */\n      dup5\n        /* \"#utility.yul\":3114:3118   */\n      dup3\n        /* \"#utility.yul\":3110:3124   */\n      sub\n        /* \"#utility.yul\":3103:3107   */\n      0x20\n        /* \"#utility.yul\":3098:3101   */\n      dup7\n        /* \"#utility.yul\":3094:3108   */\n      add\n        /* \"#utility.yul\":3087:3125   */\n      mstore\n        /* \"#utility.yul\":3146:3219   */\n      tag_495\n        /* \"#utility.yul\":3214:3218   */\n      dup3\n        /* \"#utility.yul\":3200:3212   */\n      dup3\n        /* \"#utility.yul\":3146:3219   */\n      tag_373\n      jump\t// in\n    tag_495:\n        /* \"#utility.yul\":3138:3219   */\n      swap2\n      pop\n        /* \"#utility.yul\":2994:3230   */\n      pop\n        /* \"#utility.yul\":3319:3323   */\n      0x40\n        /* \"#utility.yul\":3312:3317   */\n      dup4\n        /* \"#utility.yul\":3308:3324   */\n      add\n        /* \"#utility.yul\":3302:3325   */\n      mload\n        /* \"#utility.yul\":3372:3375   */\n      dup5\n        /* \"#utility.yul\":3366:3370   */\n      dup3\n        /* \"#utility.yul\":3362:3376   */\n      sub\n        /* \"#utility.yul\":3355:3359   */\n      0x40\n        /* \"#utility.yul\":3350:3353   */\n      dup7\n        /* \"#utility.yul\":3346:3360   */\n      add\n        /* \"#utility.yul\":3339:3377   */\n      mstore\n        /* \"#utility.yul\":3398:3471   */\n      tag_496\n        /* \"#utility.yul\":3466:3470   */\n      dup3\n        /* \"#utility.yul\":3452:3464   */\n      dup3\n        /* \"#utility.yul\":3398:3471   */\n      tag_373\n      jump\t// in\n    tag_496:\n        /* \"#utility.yul\":3390:3471   */\n      swap2\n      pop\n        /* \"#utility.yul\":3240:3482   */\n      pop\n        /* \"#utility.yul\":3569:3573   */\n      0x60\n        /* \"#utility.yul\":3562:3567   */\n      dup4\n        /* \"#utility.yul\":3558:3574   */\n      add\n        /* \"#utility.yul\":3552:3575   */\n      mload\n        /* \"#utility.yul\":3622:3625   */\n      dup5\n        /* \"#utility.yul\":3616:3620   */\n      dup3\n        /* \"#utility.yul\":3612:3626   */\n      sub\n        /* \"#utility.yul\":3605:3609   */\n      0x60\n        /* \"#utility.yul\":3600:3603   */\n      dup7\n        /* \"#utility.yul\":3596:3610   */\n      add\n        /* \"#utility.yul\":3589:3627   */\n      mstore\n        /* \"#utility.yul\":3648:3721   */\n      tag_497\n        /* \"#utility.yul\":3716:3720   */\n      dup3\n        /* \"#utility.yul\":3702:3714   */\n      dup3\n        /* \"#utility.yul\":3648:3721   */\n      tag_373\n      jump\t// in\n    tag_497:\n        /* \"#utility.yul\":3640:3721   */\n      swap2\n      pop\n        /* \"#utility.yul\":3492:3732   */\n      pop\n        /* \"#utility.yul\":3817:3821   */\n      0x80\n        /* \"#utility.yul\":3810:3815   */\n      dup4\n        /* \"#utility.yul\":3806:3822   */\n      add\n        /* \"#utility.yul\":3800:3823   */\n      mload\n        /* \"#utility.yul\":3836:3899   */\n      tag_498\n        /* \"#utility.yul\":3893:3897   */\n      0x80\n        /* \"#utility.yul\":3888:3891   */\n      dup7\n        /* \"#utility.yul\":3884:3898   */\n      add\n        /* \"#utility.yul\":3870:3882   */\n      dup3\n        /* \"#utility.yul\":3836:3899   */\n      tag_376\n      jump\t// in\n    tag_498:\n        /* \"#utility.yul\":3742:3909   */\n      pop\n        /* \"#utility.yul\":3996:4000   */\n      0xa0\n        /* \"#utility.yul\":3989:3994   */\n      dup4\n        /* \"#utility.yul\":3985:4001   */\n      add\n        /* \"#utility.yul\":3979:4002   */\n      mload\n        /* \"#utility.yul\":4015:4078   */\n      tag_499\n        /* \"#utility.yul\":4072:4076   */\n      0xa0\n        /* \"#utility.yul\":4067:4070   */\n      dup7\n        /* \"#utility.yul\":4063:4077   */\n      add\n        /* \"#utility.yul\":4049:4061   */\n      dup3\n        /* \"#utility.yul\":4015:4078   */\n      tag_368\n      jump\t// in\n    tag_499:\n        /* \"#utility.yul\":3919:4088   */\n      pop\n        /* \"#utility.yul\":4174:4178   */\n      0xc0\n        /* \"#utility.yul\":4167:4172   */\n      dup4\n        /* \"#utility.yul\":4163:4179   */\n      add\n        /* \"#utility.yul\":4157:4180   */\n      mload\n        /* \"#utility.yul\":4193:4256   */\n      tag_500\n        /* \"#utility.yul\":4250:4254   */\n      0xc0\n        /* \"#utility.yul\":4245:4248   */\n      dup7\n        /* \"#utility.yul\":4241:4255   */\n      add\n        /* \"#utility.yul\":4227:4239   */\n      dup3\n        /* \"#utility.yul\":4193:4256   */\n      tag_368\n      jump\t// in\n    tag_500:\n        /* \"#utility.yul\":4098:4266   */\n      pop\n        /* \"#utility.yul\":4358:4362   */\n      0xe0\n        /* \"#utility.yul\":4351:4356   */\n      dup4\n        /* \"#utility.yul\":4347:4363   */\n      add\n        /* \"#utility.yul\":4341:4364   */\n      mload\n        /* \"#utility.yul\":4377:4440   */\n      tag_501\n        /* \"#utility.yul\":4434:4438   */\n      0xe0\n        /* \"#utility.yul\":4429:4432   */\n      dup7\n        /* \"#utility.yul\":4425:4439   */\n      add\n        /* \"#utility.yul\":4411:4423   */\n      dup3\n        /* \"#utility.yul\":4377:4440   */\n      tag_368\n      jump\t// in\n    tag_501:\n        /* \"#utility.yul\":4276:4450   */\n      pop\n        /* \"#utility.yul\":4536:4542   */\n      0x0100\n        /* \"#utility.yul\":4529:4534   */\n      dup4\n        /* \"#utility.yul\":4525:4543   */\n      add\n        /* \"#utility.yul\":4519:4544   */\n      mload\n        /* \"#utility.yul\":4557:4616   */\n      tag_502\n        /* \"#utility.yul\":4608:4614   */\n      0x0100\n        /* \"#utility.yul\":4603:4606   */\n      dup7\n        /* \"#utility.yul\":4599:4615   */\n      add\n        /* \"#utility.yul\":4585:4597   */\n      dup3\n        /* \"#utility.yul\":4557:4616   */\n      tag_378\n      jump\t// in\n    tag_502:\n        /* \"#utility.yul\":4460:4626   */\n      pop\n        /* \"#utility.yul\":4716:4722   */\n      0x0120\n        /* \"#utility.yul\":4709:4714   */\n      dup4\n        /* \"#utility.yul\":4705:4723   */\n      add\n        /* \"#utility.yul\":4699:4724   */\n      mload\n        /* \"#utility.yul\":4737:4802   */\n      tag_503\n        /* \"#utility.yul\":4794:4800   */\n      0x0120\n        /* \"#utility.yul\":4789:4792   */\n      dup7\n        /* \"#utility.yul\":4785:4801   */\n      add\n        /* \"#utility.yul\":4771:4783   */\n      dup3\n        /* \"#utility.yul\":4737:4802   */\n      tag_368\n      jump\t// in\n    tag_503:\n        /* \"#utility.yul\":4636:4812   */\n      pop\n        /* \"#utility.yul\":4829:4833   */\n      dup1\n        /* \"#utility.yul\":4822:4833   */\n      swap2\n      pop\n        /* \"#utility.yul\":2774:4839   */\n      pop\n        /* \"#utility.yul\":2650:4839   */\n      swap3\n      swap2\n      pop\n      pop\n      jump\t// out\n        /* \"#utility.yul\":4845:5218   */\n    tag_41:\n        /* \"#utility.yul\":4988:4992   */\n      0x00\n        /* \"#utility.yul\":5026:5028   */\n      0x20\n        /* \"#utility.yul\":5015:5024   */\n      dup3\n        /* \"#utility.yul\":5011:5029   */\n      add\n        /* \"#utility.yul\":5003:5029   */\n      swap1\n      pop\n        /* \"#utility.yul\":5075:5084   */\n      dup2\n        /* \"#utility.yul\":5069:5073   */\n      dup2\n        /* \"#utility.yul\":5065:5085   */\n      sub\n        /* \"#utility.yul\":5061:5062   */\n      0x00\n        /* \"#utility.yul\":5050:5059   */\n      dup4\n        /* \"#utility.yul\":5046:5063   */\n      add\n        /* \"#utility.yul\":5039:5086   */\n      mstore\n        /* \"#utility.yul\":5103:5211   */\n      tag_505\n        /* \"#utility.yul\":5206:5210   */\n      dup2\n        /* \"#utility.yul\":5197:5203   */\n      dup5\n        /* \"#utility.yul\":5103:5211   */\n      tag_379\n      jump\t// in\n    tag_505:\n        /* \"#utility.yul\":5095:5211   */\n      swap1\n      pop\n        /* \"#utility.yul\":4845:5218   */\n      swap3\n      swap2\n      pop\n      pop\n      jump\t// out\n        /* \"#utility.yul\":5224:5341   */\n    tag_380:\n        /* \"#utility.yul\":5333:5334   */\n      0x00\n        /* \"#utility.yul\":5330:5331   */\n      0x00\n        /* \"#utility.yul\":5323:5335   */\n      revert\n        /* \"#utility.yul\":5347:5464   */\n    tag_381:\n        /* \"#utility.yul\":5456:5457   */\n      0x00\n        /* \"#utility.yul\":5453:5454   */\n      0x00\n        /* \"#utility.yul\":5446:5458   */\n      revert\n        /* \"#utility.yul\":5470:5650   */\n    tag_382:\n        /* \"#utility.yul\":5518:5595   */\n      0x4e487b7100000000000000000000000000000000000000000000000000000000\n        /* \"#utility.yul\":5515:5516   */\n      0x00\n        /* \"#utility.yul\":5508:5596   */\n      mstore\n        /* \"#utility.yul\":5615:5619   */\n      0x41\n        /* \"#utility.yul\":5612:5613   */\n      0x04\n        /* \"#utility.yul\":5605:5620   */\n      mstore\n        /* \"#utility.yul\":5639:5643   */\n      0x24\n        /* \"#utility.yul\":5636:5637   */\n      0x00\n        /* \"#utility.yul\":5629:5644   */\n      revert\n        /* \"#utility.yul\":5656:5937   */\n    tag_383:\n        /* \"#utility.yul\":5739:5766   */\n      tag_510\n        /* \"#utility.yul\":5761:5765   */\n      dup3\n        /* \"#utility.yul\":5739:5766   */\n      tag_372\n      jump\t// in\n    tag_510:\n        /* \"#utility.yul\":5731:5737   */\n      dup2\n        /* \"#utility.yul\":5727:5767   */\n      add\n        /* \"#utility.yul\":5869:5875   */\n      dup2\n        /* \"#utility.yul\":5857:5867   */\n      dup2\n        /* \"#utility.yul\":5854:5876   */\n      lt\n        /* \"#utility.yul\":5833:5851   */\n      0xffffffffffffffff\n        /* \"#utility.yul\":5821:5831   */\n      dup3\n        /* \"#utility.yul\":5818:5852   */\n      gt\n        /* \"#utility.yul\":5815:5877   */\n      or\n        /* \"#utility.yul\":5812:5900   */\n      iszero\n      tag_511\n      jumpi\n        /* \"#utility.yul\":5880:5898   */\n      tag_512\n      tag_382\n      jump\t// in\n    tag_512:\n        /* \"#utility.yul\":5812:5900   */\n    tag_511:\n        /* \"#utility.yul\":5920:5930   */\n      dup1\n        /* \"#utility.yul\":5916:5918   */\n      0x40\n        /* \"#utility.yul\":5909:5931   */\n      mstore\n        /* \"#utility.yul\":5699:5937   */\n      pop\n        /* \"#utility.yul\":5656:5937   */\n      pop\n      pop\n      jump\t// out\n        /* \"#utility.yul\":5943:6072   */\n    tag_384:\n        /* \"#utility.yul\":5977:5983   */\n      0x00\n        /* \"#utility.yul\":6004:6024   */\n      tag_514\n      tag_362\n      jump\t// in\n    tag_514:\n        /* \"#utility.yul\":5994:6024   */\n      swap1\n      pop\n        /* \"#utility.yul\":6033:6066   */\n      tag_515\n        /* \"#utility.yul\":6061:6065   */\n      dup3\n        /* \"#utility.yul\":6053:6059   */\n      dup3\n        /* \"#utility.yul\":6033:6066   */\n      tag_383\n      jump\t// in\n    tag_515:\n        /* \"#utility.yul\":5943:6072   */\n      swap2\n      swap1\n      pop\n      jump\t// out\n        /* \"#utility.yul\":6078:6386   */\n    tag_385:\n        /* \"#utility.yul\":6140:6144   */\n      0x00\n        /* \"#utility.yul\":6230:6248   */\n      0xffffffffffffffff\n        /* \"#utility.yul\":6222:6228   */\n      dup3\n        /* \"#utility.yul\":6219:6249   */\n      gt\n        /* \"#utility.yul\":6216:6272   */\n      iszero\n      tag_517\n      jumpi\n        /* \"#utility.yul\":6252:6270   */\n      tag_518\n      tag_382\n      jump\t// in\n    tag_518:\n        /* \"#utility.yul\":6216:6272   */\n    tag_517:\n        /* \"#utility.yul\":6290:6319   */\n      tag_519\n        /* \"#utility.yul\":6312:6318   */\n      dup3\n        /* \"#utility.yul\":6290:6319   */\n      tag_372\n      jump\t// in\n    tag_519:\n        /* \"#utility.yul\":6282:6319   */\n      swap1\n      pop\n        /* \"#utility.yul\":6374:6378   */\n      0x20\n        /* \"#utility.yul\":6368:6372   */\n      dup2\n        /* \"#utility.yul\":6364:6379   */\n      add\n        /* \"#utility.yul\":6356:6379   */\n      swap1\n      pop\n        /* \"#utility.yul\":6078:6386   */\n      swap2\n      swap1\n      pop\n      jump\t// out\n        /* \"#utility.yul\":6392:6540   */\n    tag_386:\n        /* \"#utility.yul\":6490:6496   */\n      dup3\n        /* \"#utility.yul\":6485:6488   */\n      dup2\n        /* \"#utility.yul\":6480:6483   */\n      dup4\n        /* \"#utility.yul\":6467:6497   */\n      calldatacopy\n        /* \"#utility.yul\":6531:6532   */\n      0x00\n        /* \"#utility.yul\":6522:6528   */\n      dup4\n        /* \"#utility.yul\":6517:6520   */\n      dup4\n        /* \"#utility.yul\":6513:6529   */\n      add\n        /* \"#utility.yul\":6506:6533   */\n      mstore\n        /* \"#utility.yul\":6392:6540   */\n      pop\n      pop\n      pop\n      jump\t// out\n        /* \"#utility.yul\":6546:6971   */\n    tag_387:\n        /* \"#utility.yul\":6624:6629   */\n      0x00\n        /* \"#utility.yul\":6649:6715   */\n      tag_522\n        /* \"#utility.yul\":6665:6714   */\n      tag_523\n        /* \"#utility.yul\":6707:6713   */\n      dup5\n        /* \"#utility.yul\":6665:6714   */\n      tag_385\n      jump\t// in\n    tag_523:\n        /* \"#utility.yul\":6649:6715   */\n      tag_384\n      jump\t// in\n    tag_522:\n        /* \"#utility.yul\":6640:6715   */\n      swap1\n      pop\n        /* \"#utility.yul\":6738:6744   */\n      dup3\n        /* \"#utility.yul\":6731:6736   */\n      dup2\n        /* \"#utility.yul\":6724:6745   */\n      mstore\n        /* \"#utility.yul\":6776:6780   */\n      0x20\n        /* \"#utility.yul\":6769:6774   */\n      dup2\n        /* \"#utility.yul\":6765:6781   */\n      add\n        /* \"#utility.yul\":6814:6817   */\n      dup5\n        /* \"#utility.yul\":6805:6811   */\n      dup5\n        /* \"#utility.yul\":6800:6803   */\n      dup5\n        /* \"#utility.yul\":6796:6812   */\n      add\n        /* \"#utility.yul\":6793:6818   */\n      gt\n        /* \"#utility.yul\":6790:6902   */\n      iszero\n      tag_524\n      jumpi\n        /* \"#utility.yul\":6821:6900   */\n      tag_525\n      tag_381\n      jump\t// in\n    tag_525:\n        /* \"#utility.yul\":6790:6902   */\n    tag_524:\n        /* \"#utility.yul\":6911:6965   */\n      tag_526\n        /* \"#utility.yul\":6958:6964   */\n      dup5\n        /* \"#utility.yul\":6953:6956   */\n      dup3\n        /* \"#utility.yul\":6948:6951   */\n      dup6\n        /* \"#utility.yul\":6911:6965   */\n      tag_386\n      jump\t// in\n    tag_526:\n        /* \"#utility.yul\":6630:6971   */\n      pop\n        /* \"#utility.yul\":6546:6971   */\n      swap4\n      swap3\n      pop\n      pop\n      pop\n      jump\t// out\n        /* \"#utility.yul\":6991:7331   */\n    tag_388:\n        /* \"#utility.yul\":7047:7052   */\n      0x00\n        /* \"#utility.yul\":7096:7099   */\n      dup3\n        /* \"#utility.yul\":7089:7093   */\n      0x1f\n        /* \"#utility.yul\":7081:7087   */\n      dup4\n        /* \"#utility.yul\":7077:7094   */\n      add\n        /* \"#utility.yul\":7073:7100   */\n      slt\n        /* \"#utility.yul\":7063:7185   */\n      tag_528\n      jumpi\n        /* \"#utility.yul\":7104:7183   */\n      tag_529\n      tag_380\n      jump\t// in\n    tag_529:\n        /* \"#utility.yul\":7063:7185   */\n    tag_528:\n        /* \"#utility.yul\":7221:7227   */\n      dup2\n        /* \"#utility.yul\":7208:7228   */\n      calldataload\n        /* \"#utility.yul\":7246:7325   */\n      tag_530\n        /* \"#utility.yul\":7321:7324   */\n      dup5\n        /* \"#utility.yul\":7313:7319   */\n      dup3\n        /* \"#utility.yul\":7306:7310   */\n      0x20\n        /* \"#utility.yul\":7298:7304   */\n      dup7\n        /* \"#utility.yul\":7294:7311   */\n      add\n        /* \"#utility.yul\":7246:7325   */\n      tag_387\n      jump\t// in\n    tag_530:\n        /* \"#utility.yul\":7237:7325   */\n      swap2\n      pop\n        /* \"#utility.yul\":7053:7331   */\n      pop\n        /* \"#utility.yul\":6991:7331   */\n      swap3\n      swap2\n      pop\n      pop\n      jump\t// out\n        /* \"#utility.yul\":7337:8642   */\n    tag_44:\n        /* \"#utility.yul\":7453:7459   */\n      0x00\n        /* \"#utility.yul\":7461:7467   */\n      0x00\n        /* \"#utility.yul\":7469:7475   */\n      0x00\n        /* \"#utility.yul\":7477:7483   */\n      0x00\n        /* \"#utility.yul\":7526:7529   */\n      0x80\n        /* \"#utility.yul\":7514:7523   */\n      dup6\n        /* \"#utility.yul\":7505:7512   */\n      dup8\n        /* \"#utility.yul\":7501:7524   */\n      sub\n        /* \"#utility.yul\":7497:7530   */\n      slt\n        /* \"#utility.yul\":7494:7614   */\n      iszero\n      tag_532\n      jumpi\n        /* \"#utility.yul\":7533:7612   */\n      tag_533\n      tag_363\n      jump\t// in\n    tag_533:\n        /* \"#utility.yul\":7494:7614   */\n    tag_532:\n        /* \"#utility.yul\":7681:7682   */\n      0x00\n        /* \"#utility.yul\":7670:7679   */\n      dup6\n        /* \"#utility.yul\":7666:7683   */\n      add\n        /* \"#utility.yul\":7653:7684   */\n      calldataload\n        /* \"#utility.yul\":7711:7729   */\n      0xffffffffffffffff\n        /* \"#utility.yul\":7703:7709   */\n      dup2\n        /* \"#utility.yul\":7700:7730   */\n      gt\n        /* \"#utility.yul\":7697:7814   */\n      iszero\n      tag_534\n      jumpi\n        /* \"#utility.yul\":7733:7812   */\n      tag_535\n      tag_364\n      jump\t// in\n    tag_535:\n        /* \"#utility.yul\":7697:7814   */\n    tag_534:\n        /* \"#utility.yul\":7838:7901   */\n      tag_536\n        /* \"#utility.yul\":7893:7900   */\n      dup8\n        /* \"#utility.yul\":7884:7890   */\n      dup3\n        /* \"#utility.yul\":7873:7882   */\n      dup9\n        /* \"#utility.yul\":7869:7891   */\n      add\n        /* \"#utility.yul\":7838:7901   */\n      tag_388\n      jump\t// in\n    tag_536:\n        /* \"#utility.yul\":7828:7901   */\n      swap5\n      pop\n        /* \"#utility.yul\":7624:7911   */\n      pop\n        /* \"#utility.yul\":7978:7980   */\n      0x20\n        /* \"#utility.yul\":7967:7976   */\n      dup6\n        /* \"#utility.yul\":7963:7981   */\n      add\n        /* \"#utility.yul\":7950:7982   */\n      calldataload\n        /* \"#utility.yul\":8009:8027   */\n      0xffffffffffffffff\n        /* \"#utility.yul\":8001:8007   */\n      dup2\n        /* \"#utility.yul\":7998:8028   */\n      gt\n        /* \"#utility.yul\":7995:8112   */\n      iszero\n      tag_537\n      jumpi\n        /* \"#utility.yul\":8031:8110   */\n      tag_538\n      tag_364\n      jump\t// in\n    tag_538:\n        /* \"#utility.yul\":7995:8112   */\n    tag_537:\n        /* \"#utility.yul\":8136:8199   */\n      tag_539\n        /* \"#utility.yul\":8191:8198   */\n      dup8\n        /* \"#utility.yul\":8182:8188   */\n      dup3\n        /* \"#utility.yul\":8171:8180   */\n      dup9\n        /* \"#utility.yul\":8167:8189   */\n      add\n        /* \"#utility.yul\":8136:8199   */\n      tag_388\n      jump\t// in\n    tag_539:\n        /* \"#utility.yul\":8126:8199   */\n      swap4\n      pop\n        /* \"#utility.yul\":7921:8209   */\n      pop\n        /* \"#utility.yul\":8276:8278   */\n      0x40\n        /* \"#utility.yul\":8265:8274   */\n      dup6\n        /* \"#utility.yul\":8261:8279   */\n      add\n        /* \"#utility.yul\":8248:8280   */\n      calldataload\n        /* \"#utility.yul\":8307:8325   */\n      0xffffffffffffffff\n        /* \"#utility.yul\":8299:8305   */\n      dup2\n        /* \"#utility.yul\":8296:8326   */\n      gt\n        /* \"#utility.yul\":8293:8410   */\n      iszero\n      tag_540\n      jumpi\n        /* \"#utility.yul\":8329:8408   */\n      tag_541\n      tag_364\n      jump\t// in\n    tag_541:\n        /* \"#utility.yul\":8293:8410   */\n    tag_540:\n        /* \"#utility.yul\":8434:8497   */\n      tag_542\n        /* \"#utility.yul\":8489:8496   */\n      dup8\n        /* \"#utility.yul\":8480:8486   */\n      dup3\n        /* \"#utility.yul\":8469:8478   */\n      dup9\n        /* \"#utility.yul\":8465:8487   */\n      add\n        /* \"#utility.yul\":8434:8497   */\n      tag_388\n      jump\t// in\n    tag_542:\n        /* \"#utility.yul\":8424:8497   */\n      swap3\n      pop\n        /* \"#utility.yul\":8219:8507   */\n      pop\n        /* \"#utility.yul\":8546:8548   */\n      0x60\n        /* \"#utility.yul\":8572:8625   */\n      tag_543\n        /* \"#utility.yul\":8617:8624   */\n      dup8\n        /* \"#utility.yul\":8608:8614   */\n      dup3\n        /* \"#utility.yul\":8597:8606   */\n      dup9\n        /* \"#utility.yul\":8593:8615   */\n      add\n        /* \"#utility.yul\":8572:8625   */\n      tag_367\n      jump\t// in\n    tag_543:\n        /* \"#utility.yul\":8562:8625   */\n      swap2\n      pop\n        /* \"#utility.yul\":8517:8635   */\n      pop\n        /* \"#utility.yul\":7337:8642   */\n      swap3\n      swap6\n      swap2\n      swap5\n      pop\n      swap3\n      pop\n      jump\t// out\n        /* \"#utility.yul\":8648:9267   */\n    tag_49:\n        /* \"#utility.yul\":8725:8731   */\n      0x00\n        /* \"#utility.yul\":8733:8739   */\n      0x00\n        /* \"#utility.yul\":8741:8747   */\n      0x00\n        /* \"#utility.yul\":8790:8792   */\n      0x60\n        /* \"#utility.yul\":8778:8787   */\n      dup5\n        /* \"#utility.yul\":8769:8776   */\n      dup7\n        /* \"#utility.yul\":8765:8788   */\n      sub\n        /* \"#utility.yul\":8761:8793   */\n      slt\n        /* \"#utility.yul\":8758:8877   */\n      iszero\n      tag_545\n      jumpi\n        /* \"#utility.yul\":8796:8875   */\n      tag_546\n      tag_363\n      jump\t// in\n    tag_546:\n        /* \"#utility.yul\":8758:8877   */\n    tag_545:\n        /* \"#utility.yul\":8916:8917   */\n      0x00\n        /* \"#utility.yul\":8941:8994   */\n      tag_547\n        /* \"#utility.yul\":8986:8993   */\n      dup7\n        /* \"#utility.yul\":8977:8983   */\n      dup3\n        /* \"#utility.yul\":8966:8975   */\n      dup8\n        /* \"#utility.yul\":8962:8984   */\n      add\n        /* \"#utility.yul\":8941:8994   */\n      tag_367\n      jump\t// in\n    tag_547:\n        /* \"#utility.yul\":8931:8994   */\n      swap4\n      pop\n        /* \"#utility.yul\":8887:9004   */\n      pop\n        /* \"#utility.yul\":9043:9045   */\n      0x20\n        /* \"#utility.yul\":9069:9122   */\n      tag_548\n        /* \"#utility.yul\":9114:9121   */\n      dup7\n        /* \"#utility.yul\":9105:9111   */\n      dup3\n        /* \"#utility.yul\":9094:9103   */\n      dup8\n        /* \"#utility.yul\":9090:9112   */\n      add\n        /* \"#utility.yul\":9069:9122   */\n      tag_367\n      jump\t// in\n    tag_548:\n        /* \"#utility.yul\":9059:9122   */\n      swap3\n      pop\n        /* \"#utility.yul\":9014:9132   */\n      pop\n        /* \"#utility.yul\":9171:9173   */\n      0x40\n        /* \"#utility.yul\":9197:9250   */\n      tag_549\n        /* \"#utility.yul\":9242:9249   */\n      dup7\n        /* \"#utility.yul\":9233:9239   */\n      dup3\n        /* \"#utility.yul\":9222:9231   */\n      dup8\n        /* \"#utility.yul\":9218:9240   */\n      add\n        /* \"#utility.yul\":9197:9250   */\n      tag_367\n      jump\t// in\n    tag_549:\n        /* \"#utility.yul\":9187:9250   */\n      swap2\n      pop\n        /* \"#utility.yul\":9142:9260   */\n      pop\n        /* \"#utility.yul\":8648:9267   */\n      swap3\n      pop\n      swap3\n      pop\n      swap3\n      jump\t// out\n        /* \"#utility.yul\":9273:9391   */\n    tag_389:\n        /* \"#utility.yul\":9360:9384   */\n      tag_551\n        /* \"#utility.yul\":9378:9383   */\n      dup2\n        /* \"#utility.yul\":9360:9384   */\n      tag_365\n      jump\t// in\n    tag_551:\n        /* \"#utility.yul\":9355:9358   */\n      dup3\n        /* \"#utility.yul\":9348:9385   */\n      mstore\n        /* \"#utility.yul\":9273:9391   */\n      pop\n      pop\n      jump\t// out\n        /* \"#utility.yul\":9397:9619   */\n    tag_55:\n        /* \"#utility.yul\":9490:9494   */\n      0x00\n        /* \"#utility.yul\":9528:9530   */\n      0x20\n        /* \"#utility.yul\":9517:9526   */\n      dup3\n        /* \"#utility.yul\":9513:9531   */\n      add\n        /* \"#utility.yul\":9505:9531   */\n      swap1\n      pop\n        /* \"#utility.yul\":9541:9612   */\n      tag_553\n        /* \"#utility.yul\":9609:9610   */\n      0x00\n        /* \"#utility.yul\":9598:9607   */\n      dup4\n        /* \"#utility.yul\":9594:9611   */\n      add\n        /* \"#utility.yul\":9585:9591   */\n      dup5\n        /* \"#utility.yul\":9541:9612   */\n      tag_389\n      jump\t// in\n    tag_553:\n        /* \"#utility.yul\":9397:9619   */\n      swap3\n      swap2\n      pop\n      pop\n      jump\t// out\n        /* \"#utility.yul\":9625:10178   */\n    tag_64:\n        /* \"#utility.yul\":9802:9806   */\n      0x00\n        /* \"#utility.yul\":9840:9843   */\n      0x80\n        /* \"#utility.yul\":9829:9838   */\n      dup3\n        /* \"#utility.yul\":9825:9844   */\n      add\n        /* \"#utility.yul\":9817:9844   */\n      swap1\n      pop\n        /* \"#utility.yul\":9854:9925   */\n      tag_555\n        /* \"#utility.yul\":9922:9923   */\n      0x00\n        /* \"#utility.yul\":9911:9920   */\n      dup4\n        /* \"#utility.yul\":9907:9924   */\n      add\n        /* \"#utility.yul\":9898:9904   */\n      dup8\n        /* \"#utility.yul\":9854:9925   */\n      tag_389\n      jump\t// in\n    tag_555:\n        /* \"#utility.yul\":9935:10007   */\n      tag_556\n        /* \"#utility.yul\":10003:10005   */\n      0x20\n        /* \"#utility.yul\":9992:10001   */\n      dup4\n        /* \"#utility.yul\":9988:10006   */\n      add\n        /* \"#utility.yul\":9979:9985   */\n      dup7\n        /* \"#utility.yul\":9935:10007   */\n      tag_389\n      jump\t// in\n    tag_556:\n        /* \"#utility.yul\":10017:10089   */\n      tag_557\n        /* \"#utility.yul\":10085:10087   */\n      0x40\n        /* \"#utility.yul\":10074:10083   */\n      dup4\n        /* \"#utility.yul\":10070:10088   */\n      add\n        /* \"#utility.yul\":10061:10067   */\n      dup6\n        /* \"#utility.yul\":10017:10089   */\n      tag_389\n      jump\t// in\n    tag_557:\n        /* \"#utility.yul\":10099:10171   */\n      tag_558\n        /* \"#utility.yul\":10167:10169   */\n      0x60\n        /* \"#utility.yul\":10156:10165   */\n      dup4\n        /* \"#utility.yul\":10152:10170   */\n      add\n        /* \"#utility.yul\":10143:10149   */\n      dup5\n        /* \"#utility.yul\":10099:10171   */\n      tag_389\n      jump\t// in\n    tag_558:\n        /* \"#utility.yul\":9625:10178   */\n      swap6\n      swap5\n      pop\n      pop\n      pop\n      pop\n      pop\n      jump\t// out\n        /* \"#utility.yul\":10184:10353   */\n    tag_390:\n        /* \"#utility.yul\":10268:10279   */\n      0x00\n        /* \"#utility.yul\":10302:10308   */\n      dup3\n        /* \"#utility.yul\":10297:10300   */\n      dup3\n        /* \"#utility.yul\":10290:10309   */\n      mstore\n        /* \"#utility.yul\":10342:10346   */\n      0x20\n        /* \"#utility.yul\":10337:10340   */\n      dup3\n        /* \"#utility.yul\":10333:10347   */\n      add\n        /* \"#utility.yul\":10318:10347   */\n      swap1\n      pop\n        /* \"#utility.yul\":10184:10353   */\n      swap3\n      swap2\n      pop\n      pop\n      jump\t// out\n        /* \"#utility.yul\":10359:10736   */\n    tag_391:\n        /* \"#utility.yul\":10447:10450   */\n      0x00\n        /* \"#utility.yul\":10475:10514   */\n      tag_561\n        /* \"#utility.yul\":10508:10513   */\n      dup3\n        /* \"#utility.yul\":10475:10514   */\n      tag_369\n      jump\t// in\n    tag_561:\n        /* \"#utility.yul\":10530:10601   */\n      tag_562\n        /* \"#utility.yul\":10594:10600   */\n      dup2\n        /* \"#utility.yul\":10589:10592   */\n      dup6\n        /* \"#utility.yul\":10530:10601   */\n      tag_390\n      jump\t// in\n    tag_562:\n        /* \"#utility.yul\":10523:10601   */\n      swap4\n      pop\n        /* \"#utility.yul\":10610:10675   */\n      tag_563\n        /* \"#utility.yul\":10668:10674   */\n      dup2\n        /* \"#utility.yul\":10663:10666   */\n      dup6\n        /* \"#utility.yul\":10656:10660   */\n      0x20\n        /* \"#utility.yul\":10649:10654   */\n      dup7\n        /* \"#utility.yul\":10645:10661   */\n      add\n        /* \"#utility.yul\":10610:10675   */\n      tag_371\n      jump\t// in\n    tag_563:\n        /* \"#utility.yul\":10700:10729   */\n      tag_564\n        /* \"#utility.yul\":10722:10728   */\n      dup2\n        /* \"#utility.yul\":10700:10729   */\n      tag_372\n      jump\t// in\n    tag_564:\n        /* \"#utility.yul\":10695:10698   */\n      dup5\n        /* \"#utility.yul\":10691:10730   */\n      add\n        /* \"#utility.yul\":10684:10730   */\n      swap2\n      pop\n        /* \"#utility.yul\":10451:10736   */\n      pop\n        /* \"#utility.yul\":10359:10736   */\n      swap3\n      swap2\n      pop\n      pop\n      jump\t// out\n        /* \"#utility.yul\":10742:10860   */\n    tag_392:\n        /* \"#utility.yul\":10829:10853   */\n      tag_566\n        /* \"#utility.yul\":10847:10852   */\n      dup2\n        /* \"#utility.yul\":10829:10853   */\n      tag_375\n      jump\t// in\n    tag_566:\n        /* \"#utility.yul\":10824:10827   */\n      dup3\n        /* \"#utility.yul\":10817:10854   */\n      mstore\n        /* \"#utility.yul\":10742:10860   */\n      pop\n      pop\n      jump\t// out\n        /* \"#utility.yul\":10866:10975   */\n    tag_393:\n        /* \"#utility.yul\":10947:10968   */\n      tag_568\n        /* \"#utility.yul\":10962:10967   */\n      dup2\n        /* \"#utility.yul\":10947:10968   */\n      tag_377\n      jump\t// in\n    tag_568:\n        /* \"#utility.yul\":10942:10945   */\n      dup3\n        /* \"#utility.yul\":10935:10969   */\n      mstore\n        /* \"#utility.yul\":10866:10975   */\n      pop\n      pop\n      jump\t// out\n        /* \"#utility.yul\":10981:12461   */\n    tag_70:\n        /* \"#utility.yul\":11380:11384   */\n      0x00\n        /* \"#utility.yul\":11418:11421   */\n      0x0140\n        /* \"#utility.yul\":11407:11416   */\n      dup3\n        /* \"#utility.yul\":11403:11422   */\n      add\n        /* \"#utility.yul\":11395:11422   */\n      swap1\n      pop\n        /* \"#utility.yul\":11432:11503   */\n      tag_570\n        /* \"#utility.yul\":11500:11501   */\n      0x00\n        /* \"#utility.yul\":11489:11498   */\n      dup4\n        /* \"#utility.yul\":11485:11502   */\n      add\n        /* \"#utility.yul\":11476:11482   */\n      dup14\n        /* \"#utility.yul\":11432:11503   */\n      tag_389\n      jump\t// in\n    tag_570:\n        /* \"#utility.yul\":11550:11559   */\n      dup2\n        /* \"#utility.yul\":11544:11548   */\n      dup2\n        /* \"#utility.yul\":11540:11560   */\n      sub\n        /* \"#utility.yul\":11535:11537   */\n      0x20\n        /* \"#utility.yul\":11524:11533   */\n      dup4\n        /* \"#utility.yul\":11520:11538   */\n      add\n        /* \"#utility.yul\":11513:11561   */\n      mstore\n        /* \"#utility.yul\":11578:11656   */\n      tag_571\n        /* \"#utility.yul\":11651:11655   */\n      dup2\n        /* \"#utility.yul\":11642:11648   */\n      dup13\n        /* \"#utility.yul\":11578:11656   */\n      tag_391\n      jump\t// in\n    tag_571:\n        /* \"#utility.yul\":11570:11656   */\n      swap1\n      pop\n        /* \"#utility.yul\":11703:11712   */\n      dup2\n        /* \"#utility.yul\":11697:11701   */\n      dup2\n        /* \"#utility.yul\":11693:11713   */\n      sub\n        /* \"#utility.yul\":11688:11690   */\n      0x40\n        /* \"#utility.yul\":11677:11686   */\n      dup4\n        /* \"#utility.yul\":11673:11691   */\n      add\n        /* \"#utility.yul\":11666:11714   */\n      mstore\n        /* \"#utility.yul\":11731:11809   */\n      tag_572\n        /* \"#utility.yul\":11804:11808   */\n      dup2\n        /* \"#utility.yul\":11795:11801   */\n      dup12\n        /* \"#utility.yul\":11731:11809   */\n      tag_391\n      jump\t// in\n    tag_572:\n        /* \"#utility.yul\":11723:11809   */\n      swap1\n      pop\n        /* \"#utility.yul\":11856:11865   */\n      dup2\n        /* \"#utility.yul\":11850:11854   */\n      dup2\n        /* \"#utility.yul\":11846:11866   */\n      sub\n        /* \"#utility.yul\":11841:11843   */\n      0x60\n        /* \"#utility.yul\":11830:11839   */\n      dup4\n        /* \"#utility.yul\":11826:11844   */\n      add\n        /* \"#utility.yul\":11819:11867   */\n      mstore\n        /* \"#utility.yul\":11884:11962   */\n      tag_573\n        /* \"#utility.yul\":11957:11961   */\n      dup2\n        /* \"#utility.yul\":11948:11954   */\n      dup11\n        /* \"#utility.yul\":11884:11962   */\n      tag_391\n      jump\t// in\n    tag_573:\n        /* \"#utility.yul\":11876:11962   */\n      swap1\n      pop\n        /* \"#utility.yul\":11972:12045   */\n      tag_574\n        /* \"#utility.yul\":12040:12043   */\n      0x80\n        /* \"#utility.yul\":12029:12038   */\n      dup4\n        /* \"#utility.yul\":12025:12044   */\n      add\n        /* \"#utility.yul\":12016:12022   */\n      dup10\n        /* \"#utility.yul\":11972:12045   */\n      tag_392\n      jump\t// in\n    tag_574:\n        /* \"#utility.yul\":12055:12128   */\n      tag_575\n        /* \"#utility.yul\":12123:12126   */\n      0xa0\n        /* \"#utility.yul\":12112:12121   */\n      dup4\n        /* \"#utility.yul\":12108:12127   */\n      add\n        /* \"#utility.yul\":12099:12105   */\n      dup9\n        /* \"#utility.yul\":12055:12128   */\n      tag_389\n      jump\t// in\n    tag_575:\n        /* \"#utility.yul\":12138:12211   */\n      tag_576\n        /* \"#utility.yul\":12206:12209   */\n      0xc0\n        /* \"#utility.yul\":12195:12204   */\n      dup4\n        /* \"#utility.yul\":12191:12210   */\n      add\n        /* \"#utility.yul\":12182:12188   */\n      dup8\n        /* \"#utility.yul\":12138:12211   */\n      tag_389\n      jump\t// in\n    tag_576:\n        /* \"#utility.yul\":12221:12294   */\n      tag_577\n        /* \"#utility.yul\":12289:12292   */\n      0xe0\n        /* \"#utility.yul\":12278:12287   */\n      dup4\n        /* \"#utility.yul\":12274:12293   */\n      add\n        /* \"#utility.yul\":12265:12271   */\n      dup7\n        /* \"#utility.yul\":12221:12294   */\n      tag_389\n      jump\t// in\n    tag_577:\n        /* \"#utility.yul\":12304:12371   */\n      tag_578\n        /* \"#utility.yul\":12366:12369   */\n      0x0100\n        /* \"#utility.yul\":12355:12364   */\n      dup4\n        /* \"#utility.yul\":12351:12370   */\n      add\n        /* \"#utility.yul\":12342:12348   */\n      dup6\n        /* \"#utility.yul\":12304:12371   */\n      tag_393\n      jump\t// in\n    tag_578:\n        /* \"#utility.yul\":12381:12454   */\n      tag_579\n        /* \"#utility.yul\":12449:12452   */\n      0x0120\n        /* \"#utility.yul\":12438:12447   */\n      dup4\n        /* \"#utility.yul\":12434:12453   */\n      add\n        /* \"#utility.yul\":12425:12431   */\n      dup5\n        /* \"#utility.yul\":12381:12454   */\n      tag_389\n      jump\t// in\n    tag_579:\n        /* \"#utility.yul\":10981:12461   */\n      swap12\n      swap11\n      pop\n      pop\n      pop\n      pop\n      pop\n      pop\n      pop\n      pop\n      pop\n      pop\n      pop\n      jump\t// out\n        /* \"#utility.yul\":12467:12589   */\n    tag_394:\n        /* \"#utility.yul\":12540:12564   */\n      tag_581\n        /* \"#utility.yul\":12558:12563   */\n      dup2\n        /* \"#utility.yul\":12540:12564   */\n      tag_375\n      jump\t// in\n    tag_581:\n        /* \"#utility.yul\":12533:12538   */\n      dup2\n        /* \"#utility.yul\":12530:12565   */\n      eq\n        /* \"#utility.yul\":12520:12583   */\n      tag_582\n      jumpi\n        /* \"#utility.yul\":12579:12580   */\n      0x00\n        /* \"#utility.yul\":12576:12577   */\n      0x00\n        /* \"#utility.yul\":12569:12581   */\n      revert\n        /* \"#utility.yul\":12520:12583   */\n    tag_582:\n        /* \"#utility.yul\":12467:12589   */\n      pop\n      jump\t// out\n        /* \"#utility.yul\":12595:12734   */\n    tag_395:\n        /* \"#utility.yul\":12641:12646   */\n      0x00\n        /* \"#utility.yul\":12679:12685   */\n      dup2\n        /* \"#utility.yul\":12666:12686   */\n      calldataload\n        /* \"#utility.yul\":12657:12686   */\n      swap1\n      pop\n        /* \"#utility.yul\":12695:12728   */\n      tag_584\n        /* \"#utility.yul\":12722:12727   */\n      dup2\n        /* \"#utility.yul\":12695:12728   */\n      tag_394\n      jump\t// in\n    tag_584:\n        /* \"#utility.yul\":12595:12734   */\n      swap3\n      swap2\n      pop\n      pop\n      jump\t// out\n        /* \"#utility.yul\":12740:13069   */\n    tag_85:\n        /* \"#utility.yul\":12799:12805   */\n      0x00\n        /* \"#utility.yul\":12848:12850   */\n      0x20\n        /* \"#utility.yul\":12836:12845   */\n      dup3\n        /* \"#utility.yul\":12827:12834   */\n      dup5\n        /* \"#utility.yul\":12823:12846   */\n      sub\n        /* \"#utility.yul\":12819:12851   */\n      slt\n        /* \"#utility.yul\":12816:12935   */\n      iszero\n      tag_586\n      jumpi\n        /* \"#utility.yul\":12854:12933   */\n      tag_587\n      tag_363\n      jump\t// in\n    tag_587:\n        /* \"#utility.yul\":12816:12935   */\n    tag_586:\n        /* \"#utility.yul\":12974:12975   */\n      0x00\n        /* \"#utility.yul\":12999:13052   */\n      tag_588\n        /* \"#utility.yul\":13044:13051   */\n      dup5\n        /* \"#utility.yul\":13035:13041   */\n      dup3\n        /* \"#utility.yul\":13024:13033   */\n      dup6\n        /* \"#utility.yul\":13020:13042   */\n      add\n        /* \"#utility.yul\":12999:13052   */\n      tag_395\n      jump\t// in\n    tag_588:\n        /* \"#utility.yul\":12989:13052   */\n      swap2\n      pop\n        /* \"#utility.yul\":12945:13062   */\n      pop\n        /* \"#utility.yul\":12740:13069   */\n      swap3\n      swap2\n      pop\n      pop\n      jump\t// out\n        /* \"#utility.yul\":13075:13549   */\n    tag_91:\n        /* \"#utility.yul\":13143:13149   */\n      0x00\n        /* \"#utility.yul\":13151:13157   */\n      0x00\n        /* \"#utility.yul\":13200:13202   */\n      0x40\n        /* \"#utility.yul\":13188:13197   */\n      dup4\n        /* \"#utility.yul\":13179:13186   */\n      dup6\n        /* \"#utility.yul\":13175:13198   */\n      sub\n        /* \"#utility.yul\":13171:13203   */\n      slt\n        /* \"#utility.yul\":13168:13287   */\n      iszero\n      tag_590\n      jumpi\n        /* \"#utility.yul\":13206:13285   */\n      tag_591\n      tag_363\n      jump\t// in\n    tag_591:\n        /* \"#utility.yul\":13168:13287   */\n    tag_590:\n        /* \"#utility.yul\":13326:13327   */\n      0x00\n        /* \"#utility.yul\":13351:13404   */\n      tag_592\n        /* \"#utility.yul\":13396:13403   */\n      dup6\n        /* \"#utility.yul\":13387:13393   */\n      dup3\n        /* \"#utility.yul\":13376:13385   */\n      dup7\n        /* \"#utility.yul\":13372:13394   */\n      add\n        /* \"#utility.yul\":13351:13404   */\n      tag_367\n      jump\t// in\n    tag_592:\n        /* \"#utility.yul\":13341:13404   */\n      swap3\n      pop\n        /* \"#utility.yul\":13297:13414   */\n      pop\n        /* \"#utility.yul\":13453:13455   */\n      0x20\n        /* \"#utility.yul\":13479:13532   */\n      tag_593\n        /* \"#utility.yul\":13524:13531   */\n      dup6\n        /* \"#utility.yul\":13515:13521   */\n      dup3\n        /* \"#utility.yul\":13504:13513   */\n      dup7\n        /* \"#utility.yul\":13500:13522   */\n      add\n        /* \"#utility.yul\":13479:13532   */\n      tag_395\n      jump\t// in\n    tag_593:\n        /* \"#utility.yul\":13469:13532   */\n      swap2\n      pop\n        /* \"#utility.yul\":13424:13542   */\n      pop\n        /* \"#utility.yul\":13075:13549   */\n      swap3\n      pop\n      swap3\n      swap1\n      pop\n      jump\t// out\n        /* \"#utility.yul\":13555:13765   */\n    tag_94:\n        /* \"#utility.yul\":13642:13646   */\n      0x00\n        /* \"#utility.yul\":13680:13682   */\n      0x20\n        /* \"#utility.yul\":13669:13678   */\n      dup3\n        /* \"#utility.yul\":13665:13683   */\n      add\n        /* \"#utility.yul\":13657:13683   */\n      swap1\n      pop\n        /* \"#utility.yul\":13693:13758   */\n      tag_595\n        /* \"#utility.yul\":13755:13756   */\n      0x00\n        /* \"#utility.yul\":13744:13753   */\n      dup4\n        /* \"#utility.yul\":13740:13757   */\n      add\n        /* \"#utility.yul\":13731:13737   */\n      dup5\n        /* \"#utility.yul\":13693:13758   */\n      tag_393\n      jump\t// in\n    tag_595:\n        /* \"#utility.yul\":13555:13765   */\n      swap3\n      swap2\n      pop\n      pop\n      jump\t// out\n        /* \"#utility.yul\":13771:13993   */\n    tag_106:\n        /* \"#utility.yul\":13864:13868   */\n      0x00\n        /* \"#utility.yul\":13902:13904   */\n      0x20\n        /* \"#utility.yul\":13891:13900   */\n      dup3\n        /* \"#utility.yul\":13887:13905   */\n      add\n        /* \"#utility.yul\":13879:13905   */\n      swap1\n      pop\n        /* \"#utility.yul\":13915:13986   */\n      tag_597\n        /* \"#utility.yul\":13983:13984   */\n      0x00\n        /* \"#utility.yul\":13972:13981   */\n      dup4\n        /* \"#utility.yul\":13968:13985   */\n      add\n        /* \"#utility.yul\":13959:13965   */\n      dup5\n        /* \"#utility.yul\":13915:13986   */\n      tag_392\n      jump\t// in\n    tag_597:\n        /* \"#utility.yul\":13771:13993   */\n      swap3\n      swap2\n      pop\n      pop\n      jump\t// out\n        /* \"#utility.yul\":13999:14172   */\n    tag_396:\n        /* \"#utility.yul\":14139:14164   */\n      0x5065746974696f6e20646f6573206e6f74206578697374000000000000000000\n        /* \"#utility.yul\":14135:14136   */\n      0x00\n        /* \"#utility.yul\":14127:14133   */\n      dup3\n        /* \"#utility.yul\":14123:14137   */\n      add\n        /* \"#utility.yul\":14116:14165   */\n      mstore\n        /* \"#utility.yul\":13999:14172   */\n      pop\n      jump\t// out\n        /* \"#utility.yul\":14178:14544   */\n    tag_397:\n        /* \"#utility.yul\":14320:14323   */\n      0x00\n        /* \"#utility.yul\":14341:14408   */\n      tag_600\n        /* \"#utility.yul\":14405:14407   */\n      0x17\n        /* \"#utility.yul\":14400:14403   */\n      dup4\n        /* \"#utility.yul\":14341:14408   */\n      tag_390\n      jump\t// in\n    tag_600:\n        /* \"#utility.yul\":14334:14408   */\n      swap2\n      pop\n        /* \"#utility.yul\":14417:14510   */\n      tag_601\n        /* \"#utility.yul\":14506:14509   */\n      dup3\n        /* \"#utility.yul\":14417:14510   */\n      tag_396\n      jump\t// in\n    tag_601:\n        /* \"#utility.yul\":14535:14537   */\n      0x20\n        /* \"#utility.yul\":14530:14533   */\n      dup3\n        /* \"#utility.yul\":14526:14538   */\n      add\n        /* \"#utility.yul\":14519:14538   */\n      swap1\n      pop\n        /* \"#utility.yul\":14178:14544   */\n      swap2\n      swap1\n      pop\n      jump\t// out\n        /* \"#utility.yul\":14550:14969   */\n    tag_163:\n        /* \"#utility.yul\":14716:14720   */\n      0x00\n        /* \"#utility.yul\":14754:14756   */\n      0x20\n        /* \"#utility.yul\":14743:14752   */\n      dup3\n        /* \"#utility.yul\":14739:14757   */\n      add\n        /* \"#utility.yul\":14731:14757   */\n      swap1\n      pop\n        /* \"#utility.yul\":14803:14812   */\n      dup2\n        /* \"#utility.yul\":14797:14801   */\n      dup2\n        /* \"#utility.yul\":14793:14813   */\n      sub\n        /* \"#utility.yul\":14789:14790   */\n      0x00\n        /* \"#utility.yul\":14778:14787   */\n      dup4\n        /* \"#utility.yul\":14774:14791   */\n      add\n        /* \"#utility.yul\":14767:14814   */\n      mstore\n        /* \"#utility.yul\":14831:14962   */\n      tag_603\n        /* \"#utility.yul\":14957:14961   */\n      dup2\n        /* \"#utility.yul\":14831:14962   */\n      tag_397\n      jump\t// in\n    tag_603:\n        /* \"#utility.yul\":14823:14962   */\n      swap1\n      pop\n        /* \"#utility.yul\":14550:14969   */\n      swap2\n      swap1\n      pop\n      jump\t// out\n        /* \"#utility.yul\":14975:15155   */\n    tag_398:\n        /* \"#utility.yul\":15023:15100   */\n      0x4e487b7100000000000000000000000000000000000000000000000000000000\n        /* \"#utility.yul\":15020:15021   */\n      0x00\n        /* \"#utility.yul\":15013:15101   */\n      mstore\n        /* \"#utility.yul\":15120:15124   */\n      0x22\n        /* \"#utility.yul\":15117:15118   */\n      0x04\n        /* \"#utility.yul\":15110:15125   */\n      mstore\n        /* \"#utility.yul\":15144:15148   */\n      0x24\n        /* \"#utility.yul\":15141:15142   */\n      0x00\n        /* \"#utility.yul\":15134:15149   */\n      revert\n        /* \"#utility.yul\":15161:15481   */\n    tag_165:\n        /* \"#utility.yul\":15205:15211   */\n      0x00\n        /* \"#utility.yul\":15242:15243   */\n      0x02\n        /* \"#utility.yul\":15236:15240   */\n      dup3\n        /* \"#utility.yul\":15232:15244   */\n      div\n        /* \"#utility.yul\":15222:15244   */\n      swap1\n      pop\n        /* \"#utility.yul\":15289:15290   */\n      0x01\n        /* \"#utility.yul\":15283:15287   */\n      dup3\n        /* \"#utility.yul\":15279:15291   */\n      and\n        /* \"#utility.yul\":15310:15328   */\n      dup1\n        /* \"#utility.yul\":15300:15381   */\n      tag_606\n      jumpi\n        /* \"#utility.yul\":15366:15370   */\n      0x7f\n        /* \"#utility.yul\":15358:15364   */\n      dup3\n        /* \"#utility.yul\":15354:15371   */\n      and\n        /* \"#utility.yul\":15344:15371   */\n      swap2\n      pop\n        /* \"#utility.yul\":15300:15381   */\n    tag_606:\n        /* \"#utility.yul\":15428:15430   */\n      0x20\n        /* \"#utility.yul\":15420:15426   */\n      dup3\n        /* \"#utility.yul\":15417:15431   */\n      lt\n        /* \"#utility.yul\":15397:15415   */\n      dup2\n        /* \"#utility.yul\":15394:15432   */\n      sub\n        /* \"#utility.yul\":15391:15475   */\n      tag_607\n      jumpi\n        /* \"#utility.yul\":15447:15465   */\n      tag_608\n      tag_398\n      jump\t// in\n    tag_608:\n        /* \"#utility.yul\":15391:15475   */\n    tag_607:\n        /* \"#utility.yul\":15212:15481   */\n      pop\n        /* \"#utility.yul\":15161:15481   */\n      swap2\n      swap1\n      pop\n      jump\t// out\n        /* \"#utility.yul\":15487:15653   */\n    tag_399:\n        /* \"#utility.yul\":15627:15645   */\n      0x4e6f7420612044414f206d656d62657200000000000000000000000000000000\n        /* \"#utility.yul\":15623:15624   */\n      0x00\n        /* \"#utility.yul\":15615:15621   */\n      dup3\n        /* \"#utility.yul\":15611:15625   */\n      add\n        /* \"#utility.yul\":15604:15646   */\n      mstore\n        /* \"#utility.yul\":15487:15653   */\n      pop\n      jump\t// out\n        /* \"#utility.yul\":15659:16025   */\n    tag_400:\n        /* \"#utility.yul\":15801:15804   */\n      0x00\n        /* \"#utility.yul\":15822:15889   */\n      tag_611\n        /* \"#utility.yul\":15886:15888   */\n      0x10\n        /* \"#utility.yul\":15881:15884   */\n      dup4\n        /* \"#utility.yul\":15822:15889   */\n      tag_390\n      jump\t// in\n    tag_611:\n        /* \"#utility.yul\":15815:15889   */\n      swap2\n      pop\n        /* \"#utility.yul\":15898:15991   */\n      tag_612\n        /* \"#utility.yul\":15987:15990   */\n      dup3\n        /* \"#utility.yul\":15898:15991   */\n      tag_399\n      jump\t// in\n    tag_612:\n        /* \"#utility.yul\":16016:16018   */\n      0x20\n        /* \"#utility.yul\":16011:16014   */\n      dup3\n        /* \"#utility.yul\":16007:16019   */\n      add\n        /* \"#utility.yul\":16000:16019   */\n      swap1\n      pop\n        /* \"#utility.yul\":15659:16025   */\n      swap2\n      swap1\n      pop\n      jump\t// out\n        /* \"#utility.yul\":16031:16450   */\n    tag_188:\n        /* \"#utility.yul\":16197:16201   */\n      0x00\n        /* \"#utility.yul\":16235:16237   */\n      0x20\n        /* \"#utility.yul\":16224:16233   */\n      dup3\n        /* \"#utility.yul\":16220:16238   */\n      add\n        /* \"#utility.yul\":16212:16238   */\n      swap1\n      pop\n        /* \"#utility.yul\":16284:16293   */\n      dup2\n        /* \"#utility.yul\":16278:16282   */\n      dup2\n        /* \"#utility.yul\":16274:16294   */\n      sub\n        /* \"#utility.yul\":16270:16271   */\n      0x00\n        /* \"#utility.yul\":16259:16268   */\n      dup4\n        /* \"#utility.yul\":16255:16272   */\n      add\n        /* \"#utility.yul\":16248:16295   */\n      mstore\n        /* \"#utility.yul\":16312:16443   */\n      tag_614\n        /* \"#utility.yul\":16438:16442   */\n      dup2\n        /* \"#utility.yul\":16312:16443   */\n      tag_400\n      jump\t// in\n    tag_614:\n        /* \"#utility.yul\":16304:16443   */\n      swap1\n      pop\n        /* \"#utility.yul\":16031:16450   */\n      swap2\n      swap1\n      pop\n      jump\t// out\n        /* \"#utility.yul\":16456:16627   */\n    tag_401:\n        /* \"#utility.yul\":16596:16619   */\n      0x5469746c652063616e6e6f7420626520656d7074790000000000000000000000\n        /* \"#utility.yul\":16592:16593   */\n      0x00\n        /* \"#utility.yul\":16584:16590   */\n      dup3\n        /* \"#utility.yul\":16580:16594   */\n      add\n        /* \"#utility.yul\":16573:16620   */\n      mstore\n        /* \"#utility.yul\":16456:16627   */\n      pop\n      jump\t// out\n        /* \"#utility.yul\":16633:16999   */\n    tag_402:\n        /* \"#utility.yul\":16775:16778   */\n      0x00\n        /* \"#utility.yul\":16796:16863   */\n      tag_617\n        /* \"#utility.yul\":16860:16862   */\n      0x15\n        /* \"#utility.yul\":16855:16858   */\n      dup4\n        /* \"#utility.yul\":16796:16863   */\n      tag_390\n      jump\t// in\n    tag_617:\n        /* \"#utility.yul\":16789:16863   */\n      swap2\n      pop\n        /* \"#utility.yul\":16872:16965   */\n      tag_618\n        /* \"#utility.yul\":16961:16964   */\n      dup3\n        /* \"#utility.yul\":16872:16965   */\n      tag_401\n      jump\t// in\n    tag_618:\n        /* \"#utility.yul\":16990:16992   */\n      0x20\n        /* \"#utility.yul\":16985:16988   */\n      dup3\n        /* \"#utility.yul\":16981:16993   */\n      add\n        /* \"#utility.yul\":16974:16993   */\n      swap1\n      pop\n        /* \"#utility.yul\":16633:16999   */\n      swap2\n      swap1\n      pop\n      jump\t// out\n        /* \"#utility.yul\":17005:17424   */\n    tag_191:\n        /* \"#utility.yul\":17171:17175   */\n      0x00\n        /* \"#utility.yul\":17209:17211   */\n      0x20\n        /* \"#utility.yul\":17198:17207   */\n      dup3\n        /* \"#utility.yul\":17194:17212   */\n      add\n        /* \"#utility.yul\":17186:17212   */\n      swap1\n      pop\n        /* \"#utility.yul\":17258:17267   */\n      dup2\n        /* \"#utility.yul\":17252:17256   */\n      dup2\n        /* \"#utility.yul\":17248:17268   */\n      sub\n        /* \"#utility.yul\":17244:17245   */\n      0x00\n        /* \"#utility.yul\":17233:17242   */\n      dup4\n        /* \"#utility.yul\":17229:17246   */\n      add\n        /* \"#utility.yul\":17222:17269   */\n      mstore\n        /* \"#utility.yul\":17286:17417   */\n      tag_620\n        /* \"#utility.yul\":17412:17416   */\n      dup2\n        /* \"#utility.yul\":17286:17417   */\n      tag_402\n      jump\t// in\n    tag_620:\n        /* \"#utility.yul\":17278:17417   */\n      swap1\n      pop\n        /* \"#utility.yul\":17005:17424   */\n      swap2\n      swap1\n      pop\n      jump\t// out\n        /* \"#utility.yul\":17430:17607   */\n    tag_403:\n        /* \"#utility.yul\":17570:17599   */\n      0x4465736372697074696f6e2063616e6e6f7420626520656d7074790000000000\n        /* \"#utility.yul\":17566:17567   */\n      0x00\n        /* \"#utility.yul\":17558:17564   */\n      dup3\n        /* \"#utility.yul\":17554:17568   */\n      add\n        /* \"#utility.yul\":17547:17600   */\n      mstore\n        /* \"#utility.yul\":17430:17607   */\n      pop\n      jump\t// out\n        /* \"#utility.yul\":17613:17979   */\n    tag_404:\n        /* \"#utility.yul\":17755:17758   */\n      0x00\n        /* \"#utility.yul\":17776:17843   */\n      tag_623\n        /* \"#utility.yul\":17840:17842   */\n      0x1b\n        /* \"#utility.yul\":17835:17838   */\n      dup4\n        /* \"#utility.yul\":17776:17843   */\n      tag_390\n      jump\t// in\n    tag_623:\n        /* \"#utility.yul\":17769:17843   */\n      swap2\n      pop\n        /* \"#utility.yul\":17852:17945   */\n      tag_624\n        /* \"#utility.yul\":17941:17944   */\n      dup3\n        /* \"#utility.yul\":17852:17945   */\n      tag_403\n      jump\t// in\n    tag_624:\n        /* \"#utility.yul\":17970:17972   */\n      0x20\n        /* \"#utility.yul\":17965:17968   */\n      dup3\n        /* \"#utility.yul\":17961:17973   */\n      add\n        /* \"#utility.yul\":17954:17973   */\n      swap1\n      pop\n        /* \"#utility.yul\":17613:17979   */\n      swap2\n      swap1\n      pop\n      jump\t// out\n        /* \"#utility.yul\":17985:18404   */\n    tag_194:\n        /* \"#utility.yul\":18151:18155   */\n      0x00\n        /* \"#utility.yul\":18189:18191   */\n      0x20\n        /* \"#utility.yul\":18178:18187   */\n      dup3\n        /* \"#utility.yul\":18174:18192   */\n      add\n        /* \"#utility.yul\":18166:18192   */\n      swap1\n      pop\n        /* \"#utility.yul\":18238:18247   */\n      dup2\n        /* \"#utility.yul\":18232:18236   */\n      dup2\n        /* \"#utility.yul\":18228:18248   */\n      sub\n        /* \"#utility.yul\":18224:18225   */\n      0x00\n        /* \"#utility.yul\":18213:18222   */\n      dup4\n        /* \"#utility.yul\":18209:18226   */\n      add\n        /* \"#utility.yul\":18202:18249   */\n      mstore\n        /* \"#utility.yul\":18266:18397   */\n      tag_626\n        /* \"#utility.yul\":18392:18396   */\n      dup2\n        /* \"#utility.yul\":18266:18397   */\n      tag_404\n      jump\t// in\n    tag_626:\n        /* \"#utility.yul\":18258:18397   */\n      swap1\n      pop\n        /* \"#utility.yul\":17985:18404   */\n      swap2\n      swap1\n      pop\n      jump\t// out\n        /* \"#utility.yul\":18410:18586   */\n    tag_405:\n        /* \"#utility.yul\":18550:18578   */\n      0x496d61676520686173682063616e6e6f7420626520656d707479000000000000\n        /* \"#utility.yul\":18546:18547   */\n      0x00\n        /* \"#utility.yul\":18538:18544   */\n      dup3\n        /* \"#utility.yul\":18534:18548   */\n      add\n        /* \"#utility.yul\":18527:18579   */\n      mstore\n        /* \"#utility.yul\":18410:18586   */\n      pop\n      jump\t// out\n        /* \"#utility.yul\":18592:18958   */\n    tag_406:\n        /* \"#utility.yul\":18734:18737   */\n      0x00\n        /* \"#utility.yul\":18755:18822   */\n      tag_629\n        /* \"#utility.yul\":18819:18821   */\n      0x1a\n        /* \"#utility.yul\":18814:18817   */\n      dup4\n        /* \"#utility.yul\":18755:18822   */\n      tag_390\n      jump\t// in\n    tag_629:\n        /* \"#utility.yul\":18748:18822   */\n      swap2\n      pop\n        /* \"#utility.yul\":18831:18924   */\n      tag_630\n        /* \"#utility.yul\":18920:18923   */\n      dup3\n        /* \"#utility.yul\":18831:18924   */\n      tag_405\n      jump\t// in\n    tag_630:\n        /* \"#utility.yul\":18949:18951   */\n      0x20\n        /* \"#utility.yul\":18944:18947   */\n      dup3\n        /* \"#utility.yul\":18940:18952   */\n      add\n        /* \"#utility.yul\":18933:18952   */\n      swap1\n      pop\n        /* \"#utility.yul\":18592:18958   */\n      swap2\n      swap1\n      pop\n      jump\t// out\n        /* \"#utility.yul\":18964:19383   */\n    tag_197:\n        /* \"#utility.yul\":19130:19134   */\n      0x00\n        /* \"#utility.yul\":19168:19170   */\n      0x20\n        /* \"#utility.yul\":19157:19166   */\n      dup3\n        /* \"#utility.yul\":19153:19171   */\n      add\n        /* \"#utility.yul\":19145:19171   */\n      swap1\n      pop\n        /* \"#utility.yul\":19217:19226   */\n      dup2\n        /* \"#utility.yul\":19211:19215   */\n      dup2\n        /* \"#utility.yul\":19207:19227   */\n      sub\n        /* \"#utility.yul\":19203:19204   */\n      0x00\n        /* \"#utility.yul\":19192:19201   */\n      dup4\n        /* \"#utility.yul\":19188:19205   */\n      add\n        /* \"#utility.yul\":19181:19228   */\n      mstore\n        /* \"#utility.yul\":19245:19376   */\n      tag_632\n        /* \"#utility.yul\":19371:19375   */\n      dup2\n        /* \"#utility.yul\":19245:19376   */\n      tag_406\n      jump\t// in\n    tag_632:\n        /* \"#utility.yul\":19237:19376   */\n      swap1\n      pop\n        /* \"#utility.yul\":18964:19383   */\n      swap2\n      swap1\n      pop\n      jump\t// out\n        /* \"#utility.yul\":19389:19566   */\n    tag_407:\n        /* \"#utility.yul\":19529:19558   */\n      0x4475726174696f6e206d75737420626520312d33363520646179730000000000\n        /* \"#utility.yul\":19525:19526   */\n      0x00\n        /* \"#utility.yul\":19517:19523   */\n      dup3\n        /* \"#utility.yul\":19513:19527   */\n      add\n        /* \"#utility.yul\":19506:19559   */\n      mstore\n        /* \"#utility.yul\":19389:19566   */\n      pop\n      jump\t// out\n        /* \"#utility.yul\":19572:19938   */\n    tag_408:\n        /* \"#utility.yul\":19714:19717   */\n      0x00\n        /* \"#utility.yul\":19735:19802   */\n      tag_635\n        /* \"#utility.yul\":19799:19801   */\n      0x1b\n        /* \"#utility.yul\":19794:19797   */\n      dup4\n        /* \"#utility.yul\":19735:19802   */\n      tag_390\n      jump\t// in\n    tag_635:\n        /* \"#utility.yul\":19728:19802   */\n      swap2\n      pop\n        /* \"#utility.yul\":19811:19904   */\n      tag_636\n        /* \"#utility.yul\":19900:19903   */\n      dup3\n        /* \"#utility.yul\":19811:19904   */\n      tag_407\n      jump\t// in\n    tag_636:\n        /* \"#utility.yul\":19929:19931   */\n      0x20\n        /* \"#utility.yul\":19924:19927   */\n      dup3\n        /* \"#utility.yul\":19920:19932   */\n      add\n        /* \"#utility.yul\":19913:19932   */\n      swap1\n      pop\n        /* \"#utility.yul\":19572:19938   */\n      swap2\n      swap1\n      pop\n      jump\t// out\n        /* \"#utility.yul\":19944:20363   */\n    tag_201:\n        /* \"#utility.yul\":20110:20114   */\n      0x00\n        /* \"#utility.yul\":20148:20150   */\n      0x20\n        /* \"#utility.yul\":20137:20146   */\n      dup3\n        /* \"#utility.yul\":20133:20151   */\n      add\n        /* \"#utility.yul\":20125:20151   */\n      swap1\n      pop\n        /* \"#utility.yul\":20197:20206   */\n      dup2\n        /* \"#utility.yul\":20191:20195   */\n      dup2\n        /* \"#utility.yul\":20187:20207   */\n      sub\n        /* \"#utility.yul\":20183:20184   */\n      0x00\n        /* \"#utility.yul\":20172:20181   */\n      dup4\n        /* \"#utility.yul\":20168:20185   */\n      add\n        /* \"#utility.yul\":20161:20208   */\n      mstore\n        /* \"#utility.yul\":20225:20356   */\n      tag_638\n        /* \"#utility.yul\":20351:20355   */\n      dup2\n        /* \"#utility.yul\":20225:20356   */\n      tag_408\n      jump\t// in\n    tag_638:\n        /* \"#utility.yul\":20217:20356   */\n      swap1\n      pop\n        /* \"#utility.yul\":19944:20363   */\n      swap2\n      swap1\n      pop\n      jump\t// out\n        /* \"#utility.yul\":20369:20512   */\n    tag_409:\n        /* \"#utility.yul\":20426:20431   */\n      0x00\n        /* \"#utility.yul\":20457:20463   */\n      dup2\n        /* \"#utility.yul\":20451:20464   */\n      mload\n        /* \"#utility.yul\":20442:20464   */\n      swap1\n      pop\n        /* \"#utility.yul\":20473:20506   */\n      tag_640\n        /* \"#utility.yul\":20500:20505   */\n      dup2\n        /* \"#utility.yul\":20473:20506   */\n      tag_366\n      jump\t// in\n    tag_640:\n        /* \"#utility.yul\":20369:20512   */\n      swap3\n      swap2\n      pop\n      pop\n      jump\t// out\n        /* \"#utility.yul\":20518:20869   */\n    tag_206:\n        /* \"#utility.yul\":20588:20594   */\n      0x00\n        /* \"#utility.yul\":20637:20639   */\n      0x20\n        /* \"#utility.yul\":20625:20634   */\n      dup3\n        /* \"#utility.yul\":20616:20623   */\n      dup5\n        /* \"#utility.yul\":20612:20635   */\n      sub\n        /* \"#utility.yul\":20608:20640   */\n      slt\n        /* \"#utility.yul\":20605:20724   */\n      iszero\n      tag_642\n      jumpi\n        /* \"#utility.yul\":20643:20722   */\n      tag_643\n      tag_363\n      jump\t// in\n    tag_643:\n        /* \"#utility.yul\":20605:20724   */\n    tag_642:\n        /* \"#utility.yul\":20763:20764   */\n      0x00\n        /* \"#utility.yul\":20788:20852   */\n      tag_644\n        /* \"#utility.yul\":20844:20851   */\n      dup5\n        /* \"#utility.yul\":20835:20841   */\n      dup3\n        /* \"#utility.yul\":20824:20833   */\n      dup6\n        /* \"#utility.yul\":20820:20842   */\n      add\n        /* \"#utility.yul\":20788:20852   */\n      tag_409\n      jump\t// in\n    tag_644:\n        /* \"#utility.yul\":20778:20852   */\n      swap2\n      pop\n        /* \"#utility.yul\":20734:20862   */\n      pop\n        /* \"#utility.yul\":20518:20869   */\n      swap3\n      swap2\n      pop\n      pop\n      jump\t// out\n        /* \"#utility.yul\":20875:20978   */\n    tag_410:\n        /* \"#utility.yul\":20938:20945   */\n      0x00\n        /* \"#utility.yul\":20967:20972   */\n      dup2\n        /* \"#utility.yul\":20956:20972   */\n      swap1\n      pop\n        /* \"#utility.yul\":20875:20978   */\n      swap2\n      swap1\n      pop\n      jump\t// out\n        /* \"#utility.yul\":20984:21085   */\n    tag_411:\n        /* \"#utility.yul\":21020:21027   */\n      0x00\n        /* \"#utility.yul\":21060:21078   */\n      0xffffffffffffffff\n        /* \"#utility.yul\":21053:21058   */\n      dup3\n        /* \"#utility.yul\":21049:21079   */\n      and\n        /* \"#utility.yul\":21038:21079   */\n      swap1\n      pop\n        /* \"#utility.yul\":20984:21085   */\n      swap2\n      swap1\n      pop\n      jump\t// out\n        /* \"#utility.yul\":21091:21151   */\n    tag_412:\n        /* \"#utility.yul\":21119:21122   */\n      0x00\n        /* \"#utility.yul\":21140:21145   */\n      dup2\n        /* \"#utility.yul\":21133:21145   */\n      swap1\n      pop\n        /* \"#utility.yul\":21091:21151   */\n      swap2\n      swap1\n      pop\n      jump\t// out\n        /* \"#utility.yul\":21157:21349   */\n    tag_413:\n        /* \"#utility.yul\":21232:21241   */\n      0x00\n        /* \"#utility.yul\":21265:21343   */\n      tag_649\n        /* \"#utility.yul\":21282:21342   */\n      tag_650\n        /* \"#utility.yul\":21291:21341   */\n      tag_651\n        /* \"#utility.yul\":21335:21340   */\n      dup5\n        /* \"#utility.yul\":21291:21341   */\n      tag_410\n      jump\t// in\n    tag_651:\n        /* \"#utility.yul\":21282:21342   */\n      tag_412\n      jump\t// in\n    tag_650:\n        /* \"#utility.yul\":21265:21343   */\n      tag_411\n      jump\t// in\n    tag_649:\n        /* \"#utility.yul\":21252:21343   */\n      swap1\n      pop\n        /* \"#utility.yul\":21157:21349   */\n      swap2\n      swap1\n      pop\n      jump\t// out\n        /* \"#utility.yul\":21355:21536   */\n    tag_414:\n        /* \"#utility.yul\":21467:21529   */\n      tag_653\n        /* \"#utility.yul\":21523:21528   */\n      dup2\n        /* \"#utility.yul\":21467:21529   */\n      tag_413\n      jump\t// in\n    tag_653:\n        /* \"#utility.yul\":21462:21465   */\n      dup3\n        /* \"#utility.yul\":21455:21530   */\n      mstore\n        /* \"#utility.yul\":21355:21536   */\n      pop\n      pop\n      jump\t// out\n        /* \"#utility.yul\":21542:21924   */\n    tag_210:\n        /* \"#utility.yul\":21688:21692   */\n      0x00\n        /* \"#utility.yul\":21726:21728   */\n      0x40\n        /* \"#utility.yul\":21715:21724   */\n      dup3\n        /* \"#utility.yul\":21711:21729   */\n      add\n        /* \"#utility.yul\":21703:21729   */\n      swap1\n      pop\n        /* \"#utility.yul\":21739:21810   */\n      tag_655\n        /* \"#utility.yul\":21807:21808   */\n      0x00\n        /* \"#utility.yul\":21796:21805   */\n      dup4\n        /* \"#utility.yul\":21792:21809   */\n      add\n        /* \"#utility.yul\":21783:21789   */\n      dup6\n        /* \"#utility.yul\":21739:21810   */\n      tag_392\n      jump\t// in\n    tag_655:\n        /* \"#utility.yul\":21820:21917   */\n      tag_656\n        /* \"#utility.yul\":21913:21915   */\n      0x20\n        /* \"#utility.yul\":21902:21911   */\n      dup4\n        /* \"#utility.yul\":21898:21916   */\n      add\n        /* \"#utility.yul\":21889:21895   */\n      dup5\n        /* \"#utility.yul\":21820:21917   */\n      tag_414\n      jump\t// in\n    tag_656:\n        /* \"#utility.yul\":21542:21924   */\n      swap4\n      swap3\n      pop\n      pop\n      pop\n      jump\t// out\n        /* \"#utility.yul\":21930:22028   */\n    tag_415:\n        /* \"#utility.yul\":21981:21987   */\n      0x00\n        /* \"#utility.yul\":22015:22020   */\n      dup2\n        /* \"#utility.yul\":22009:22021   */\n      mload\n        /* \"#utility.yul\":21999:22021   */\n      swap1\n      pop\n        /* \"#utility.yul\":21930:22028   */\n      swap2\n      swap1\n      pop\n      jump\t// out\n        /* \"#utility.yul\":22034:22181   */\n    tag_416:\n        /* \"#utility.yul\":22135:22146   */\n      0x00\n        /* \"#utility.yul\":22172:22175   */\n      dup2\n        /* \"#utility.yul\":22157:22175   */\n      swap1\n      pop\n        /* \"#utility.yul\":22034:22181   */\n      swap3\n      swap2\n      pop\n      pop\n      jump\t// out\n        /* \"#utility.yul\":22187:22573   */\n    tag_417:\n        /* \"#utility.yul\":22291:22294   */\n      0x00\n        /* \"#utility.yul\":22319:22357   */\n      tag_660\n        /* \"#utility.yul\":22351:22356   */\n      dup3\n        /* \"#utility.yul\":22319:22357   */\n      tag_415\n      jump\t// in\n    tag_660:\n        /* \"#utility.yul\":22373:22461   */\n      tag_661\n        /* \"#utility.yul\":22454:22460   */\n      dup2\n        /* \"#utility.yul\":22449:22452   */\n      dup6\n        /* \"#utility.yul\":22373:22461   */\n      tag_416\n      jump\t// in\n    tag_661:\n        /* \"#utility.yul\":22366:22461   */\n      swap4\n      pop\n        /* \"#utility.yul\":22470:22535   */\n      tag_662\n        /* \"#utility.yul\":22528:22534   */\n      dup2\n        /* \"#utility.yul\":22523:22526   */\n      dup6\n        /* \"#utility.yul\":22516:22520   */\n      0x20\n        /* \"#utility.yul\":22509:22514   */\n      dup7\n        /* \"#utility.yul\":22505:22521   */\n      add\n        /* \"#utility.yul\":22470:22535   */\n      tag_371\n      jump\t// in\n    tag_662:\n        /* \"#utility.yul\":22560:22566   */\n      dup1\n        /* \"#utility.yul\":22555:22558   */\n      dup5\n        /* \"#utility.yul\":22551:22567   */\n      add\n        /* \"#utility.yul\":22544:22567   */\n      swap2\n      pop\n        /* \"#utility.yul\":22295:22573   */\n      pop\n        /* \"#utility.yul\":22187:22573   */\n      swap3\n      swap2\n      pop\n      pop\n      jump\t// out\n        /* \"#utility.yul\":22579:22850   */\n    tag_212:\n        /* \"#utility.yul\":22709:22712   */\n      0x00\n        /* \"#utility.yul\":22731:22824   */\n      tag_664\n        /* \"#utility.yul\":22820:22823   */\n      dup3\n        /* \"#utility.yul\":22811:22817   */\n      dup5\n        /* \"#utility.yul\":22731:22824   */\n      tag_417\n      jump\t// in\n    tag_664:\n        /* \"#utility.yul\":22724:22824   */\n      swap2\n      pop\n        /* \"#utility.yul\":22841:22844   */\n      dup2\n        /* \"#utility.yul\":22834:22844   */\n      swap1\n      pop\n        /* \"#utility.yul\":22579:22850   */\n      swap3\n      swap2\n      pop\n      pop\n      jump\t// out\n        /* \"#utility.yul\":22856:23023   */\n    tag_418:\n        /* \"#utility.yul\":22996:23015   */\n      0x546f6b656e206275726e206661696c6564000000000000000000000000000000\n        /* \"#utility.yul\":22992:22993   */\n      0x00\n        /* \"#utility.yul\":22984:22990   */\n      dup3\n        /* \"#utility.yul\":22980:22994   */\n      add\n        /* \"#utility.yul\":22973:23016   */\n      mstore\n        /* \"#utility.yul\":22856:23023   */\n      pop\n      jump\t// out\n        /* \"#utility.yul\":23029:23395   */\n    tag_419:\n        /* \"#utility.yul\":23171:23174   */\n      0x00\n        /* \"#utility.yul\":23192:23259   */\n      tag_667\n        /* \"#utility.yul\":23256:23258   */\n      0x11\n        /* \"#utility.yul\":23251:23254   */\n      dup4\n        /* \"#utility.yul\":23192:23259   */\n      tag_390\n      jump\t// in\n    tag_667:\n        /* \"#utility.yul\":23185:23259   */\n      swap2\n      pop\n        /* \"#utility.yul\":23268:23361   */\n      tag_668\n        /* \"#utility.yul\":23357:23360   */\n      dup3\n        /* \"#utility.yul\":23268:23361   */\n      tag_418\n      jump\t// in\n    tag_668:\n        /* \"#utility.yul\":23386:23388   */\n      0x20\n        /* \"#utility.yul\":23381:23384   */\n      dup3\n        /* \"#utility.yul\":23377:23389   */\n      add\n        /* \"#utility.yul\":23370:23389   */\n      swap1\n      pop\n        /* \"#utility.yul\":23029:23395   */\n      swap2\n      swap1\n      pop\n      jump\t// out\n        /* \"#utility.yul\":23401:23820   */\n    tag_218:\n        /* \"#utility.yul\":23567:23571   */\n      0x00\n        /* \"#utility.yul\":23605:23607   */\n      0x20\n        /* \"#utility.yul\":23594:23603   */\n      dup3\n        /* \"#utility.yul\":23590:23608   */\n      add\n        /* \"#utility.yul\":23582:23608   */\n      swap1\n      pop\n        /* \"#utility.yul\":23654:23663   */\n      dup2\n        /* \"#utility.yul\":23648:23652   */\n      dup2\n        /* \"#utility.yul\":23644:23664   */\n      sub\n        /* \"#utility.yul\":23640:23641   */\n      0x00\n        /* \"#utility.yul\":23629:23638   */\n      dup4\n        /* \"#utility.yul\":23625:23642   */\n      add\n        /* \"#utility.yul\":23618:23665   */\n      mstore\n        /* \"#utility.yul\":23682:23813   */\n      tag_670\n        /* \"#utility.yul\":23808:23812   */\n      dup2\n        /* \"#utility.yul\":23682:23813   */\n      tag_419\n      jump\t// in\n    tag_670:\n        /* \"#utility.yul\":23674:23813   */\n      swap1\n      pop\n        /* \"#utility.yul\":23401:23820   */\n      swap2\n      swap1\n      pop\n      jump\t// out\n        /* \"#utility.yul\":23826:23992   */\n    tag_420:\n        /* \"#utility.yul\":23966:23984   */\n      0x496e73756666696369656e742066656500000000000000000000000000000000\n        /* \"#utility.yul\":23962:23963   */\n      0x00\n        /* \"#utility.yul\":23954:23960   */\n      dup3\n        /* \"#utility.yul\":23950:23964   */\n      add\n        /* \"#utility.yul\":23943:23985   */\n      mstore\n        /* \"#utility.yul\":23826:23992   */\n      pop\n      jump\t// out\n        /* \"#utility.yul\":23998:24364   */\n    tag_421:\n        /* \"#utility.yul\":24140:24143   */\n      0x00\n        /* \"#utility.yul\":24161:24228   */\n      tag_673\n        /* \"#utility.yul\":24225:24227   */\n      0x10\n        /* \"#utility.yul\":24220:24223   */\n      dup4\n        /* \"#utility.yul\":24161:24228   */\n      tag_390\n      jump\t// in\n    tag_673:\n        /* \"#utility.yul\":24154:24228   */\n      swap2\n      pop\n        /* \"#utility.yul\":24237:24330   */\n      tag_674\n        /* \"#utility.yul\":24326:24329   */\n      dup3\n        /* \"#utility.yul\":24237:24330   */\n      tag_420\n      jump\t// in\n    tag_674:\n        /* \"#utility.yul\":24355:24357   */\n      0x20\n        /* \"#utility.yul\":24350:24353   */\n      dup3\n        /* \"#utility.yul\":24346:24358   */\n      add\n        /* \"#utility.yul\":24339:24358   */\n      swap1\n      pop\n        /* \"#utility.yul\":23998:24364   */\n      swap2\n      swap1\n      pop\n      jump\t// out\n        /* \"#utility.yul\":24370:24789   */\n    tag_223:\n        /* \"#utility.yul\":24536:24540   */\n      0x00\n        /* \"#utility.yul\":24574:24576   */\n      0x20\n        /* \"#utility.yul\":24563:24572   */\n      dup3\n        /* \"#utility.yul\":24559:24577   */\n      add\n        /* \"#utility.yul\":24551:24577   */\n      swap1\n      pop\n        /* \"#utility.yul\":24623:24632   */\n      dup2\n        /* \"#utility.yul\":24617:24621   */\n      dup2\n        /* \"#utility.yul\":24613:24633   */\n      sub\n        /* \"#utility.yul\":24609:24610   */\n      0x00\n        /* \"#utility.yul\":24598:24607   */\n      dup4\n        /* \"#utility.yul\":24594:24611   */\n      add\n        /* \"#utility.yul\":24587:24634   */\n      mstore\n        /* \"#utility.yul\":24651:24782   */\n      tag_676\n        /* \"#utility.yul\":24777:24781   */\n      dup2\n        /* \"#utility.yul\":24651:24782   */\n      tag_421\n      jump\t// in\n    tag_676:\n        /* \"#utility.yul\":24643:24782   */\n      swap1\n      pop\n        /* \"#utility.yul\":24370:24789   */\n      swap2\n      swap1\n      pop\n      jump\t// out\n        /* \"#utility.yul\":24795:24975   */\n    tag_422:\n        /* \"#utility.yul\":24843:24920   */\n      0x4e487b7100000000000000000000000000000000000000000000000000000000\n        /* \"#utility.yul\":24840:24841   */\n      0x00\n        /* \"#utility.yul\":24833:24921   */\n      mstore\n        /* \"#utility.yul\":24940:24944   */\n      0x11\n        /* \"#utility.yul\":24937:24938   */\n      0x04\n        /* \"#utility.yul\":24930:24945   */\n      mstore\n        /* \"#utility.yul\":24964:24968   */\n      0x24\n        /* \"#utility.yul\":24961:24962   */\n      0x00\n        /* \"#utility.yul\":24954:24969   */\n      revert\n        /* \"#utility.yul\":24981:25214   */\n    tag_225:\n        /* \"#utility.yul\":25020:25023   */\n      0x00\n        /* \"#utility.yul\":25043:25067   */\n      tag_679\n        /* \"#utility.yul\":25061:25066   */\n      dup3\n        /* \"#utility.yul\":25043:25067   */\n      tag_365\n      jump\t// in\n    tag_679:\n        /* \"#utility.yul\":25034:25067   */\n      swap2\n      pop\n        /* \"#utility.yul\":25089:25155   */\n      0xffffffffffffffffffffffffffffffffffffffffffffffffffffffffffffffff\n        /* \"#utility.yul\":25082:25087   */\n      dup3\n        /* \"#utility.yul\":25079:25156   */\n      sub\n        /* \"#utility.yul\":25076:25179   */\n      tag_680\n      jumpi\n        /* \"#utility.yul\":25159:25177   */\n      tag_681\n      tag_422\n      jump\t// in\n    tag_681:\n        /* \"#utility.yul\":25076:25179   */\n    tag_680:\n        /* \"#utility.yul\":25206:25207   */\n      0x01\n        /* \"#utility.yul\":25199:25204   */\n      dup3\n        /* \"#utility.yul\":25195:25208   */\n      add\n        /* \"#utility.yul\":25188:25208   */\n      swap1\n      pop\n        /* \"#utility.yul\":24981:25214   */\n      swap2\n      swap1\n      pop\n      jump\t// out\n        /* \"#utility.yul\":25220:25400   */\n    tag_423:\n        /* \"#utility.yul\":25268:25345   */\n      0x4e487b7100000000000000000000000000000000000000000000000000000000\n        /* \"#utility.yul\":25265:25266   */\n      0x00\n        /* \"#utility.yul\":25258:25346   */\n      mstore\n        /* \"#utility.yul\":25365:25369   */\n      0x12\n        /* \"#utility.yul\":25362:25363   */\n      0x04\n        /* \"#utility.yul\":25355:25370   */\n      mstore\n        /* \"#utility.yul\":25389:25393   */\n      0x24\n        /* \"#utility.yul\":25386:25387   */\n      0x00\n        /* \"#utility.yul\":25379:25394   */\n      revert\n        /* \"#utility.yul\":25406:25582   */\n    tag_227:\n        /* \"#utility.yul\":25438:25439   */\n      0x00\n        /* \"#utility.yul\":25455:25475   */\n      tag_684\n        /* \"#utility.yul\":25473:25474   */\n      dup3\n        /* \"#utility.yul\":25455:25475   */\n      tag_365\n      jump\t// in\n    tag_684:\n        /* \"#utility.yul\":25450:25475   */\n      swap2\n      pop\n        /* \"#utility.yul\":25489:25509   */\n      tag_685\n        /* \"#utility.yul\":25507:25508   */\n      dup4\n        /* \"#utility.yul\":25489:25509   */\n      tag_365\n      jump\t// in\n    tag_685:\n        /* \"#utility.yul\":25484:25509   */\n      swap3\n      pop\n        /* \"#utility.yul\":25528:25529   */\n      dup3\n        /* \"#utility.yul\":25518:25553   */\n      tag_686\n      jumpi\n        /* \"#utility.yul\":25533:25551   */\n      tag_687\n      tag_423\n      jump\t// in\n    tag_687:\n        /* \"#utility.yul\":25518:25553   */\n    tag_686:\n        /* \"#utility.yul\":25574:25575   */\n      dup3\n        /* \"#utility.yul\":25571:25572   */\n      dup3\n        /* \"#utility.yul\":25567:25576   */\n      mod\n        /* \"#utility.yul\":25562:25576   */\n      swap1\n      pop\n        /* \"#utility.yul\":25406:25582   */\n      swap3\n      swap2\n      pop\n      pop\n      jump\t// out\n        /* \"#utility.yul\":25588:25755   */\n    tag_424:\n        /* \"#utility.yul\":25728:25747   */\n      0x546f6b656e206d696e74206661696c6564000000000000000000000000000000\n        /* \"#utility.yul\":25724:25725   */\n      0x00\n        /* \"#utility.yul\":25716:25722   */\n      dup3\n        /* \"#utility.yul\":25712:25726   */\n      add\n        /* \"#utility.yul\":25705:25748   */\n      mstore\n        /* \"#utility.yul\":25588:25755   */\n      pop\n      jump\t// out\n        /* \"#utility.yul\":25761:26127   */\n    tag_425:\n        /* \"#utility.yul\":25903:25906   */\n      0x00\n        /* \"#utility.yul\":25924:25991   */\n      tag_690\n        /* \"#utility.yul\":25988:25990   */\n      0x11\n        /* \"#utility.yul\":25983:25986   */\n      dup4\n        /* \"#utility.yul\":25924:25991   */\n      tag_390\n      jump\t// in\n    tag_690:\n        /* \"#utility.yul\":25917:25991   */\n      swap2\n      pop\n        /* \"#utility.yul\":26000:26093   */\n      tag_691\n        /* \"#utility.yul\":26089:26092   */\n      dup3\n        /* \"#utility.yul\":26000:26093   */\n      tag_424\n      jump\t// in\n    tag_691:\n        /* \"#utility.yul\":26118:26120   */\n      0x20\n        /* \"#utility.yul\":26113:26116   */\n      dup3\n        /* \"#utility.yul\":26109:26121   */\n      add\n        /* \"#utility.yul\":26102:26121   */\n      swap1\n      pop\n        /* \"#utility.yul\":25761:26127   */\n      swap2\n      swap1\n      pop\n      jump\t// out\n        /* \"#utility.yul\":26133:26552   */\n    tag_236:\n        /* \"#utility.yul\":26299:26303   */\n      0x00\n        /* \"#utility.yul\":26337:26339   */\n      0x20\n        /* \"#utility.yul\":26326:26335   */\n      dup3\n        /* \"#utility.yul\":26322:26340   */\n      add\n        /* \"#utility.yul\":26314:26340   */\n      swap1\n      pop\n        /* \"#utility.yul\":26386:26395   */\n      dup2\n        /* \"#utility.yul\":26380:26384   */\n      dup2\n        /* \"#utility.yul\":26376:26396   */\n      sub\n        /* \"#utility.yul\":26372:26373   */\n      0x00\n        /* \"#utility.yul\":26361:26370   */\n      dup4\n        /* \"#utility.yul\":26357:26374   */\n      add\n        /* \"#utility.yul\":26350:26397   */\n      mstore\n        /* \"#utility.yul\":26414:26545   */\n      tag_693\n        /* \"#utility.yul\":26540:26544   */\n      dup2\n        /* \"#utility.yul\":26414:26545   */\n      tag_425\n      jump\t// in\n    tag_693:\n        /* \"#utility.yul\":26406:26545   */\n      swap1\n      pop\n        /* \"#utility.yul\":26133:26552   */\n      swap2\n      swap1\n      pop\n      jump\t// out\n        /* \"#utility.yul\":26558:26752   */\n    tag_426:\n        /* \"#utility.yul\":26634:26643   */\n      0x00\n        /* \"#utility.yul\":26667:26746   */\n      tag_695\n        /* \"#utility.yul\":26685:26745   */\n      tag_696\n        /* \"#utility.yul\":26694:26744   */\n      tag_697\n        /* \"#utility.yul\":26738:26743   */\n      dup5\n        /* \"#utility.yul\":26694:26744   */\n      tag_410\n      jump\t// in\n    tag_697:\n        /* \"#utility.yul\":26685:26745   */\n      tag_412\n      jump\t// in\n    tag_696:\n        /* \"#utility.yul\":26667:26746   */\n      tag_365\n      jump\t// in\n    tag_695:\n        /* \"#utility.yul\":26654:26746   */\n      swap1\n      pop\n        /* \"#utility.yul\":26558:26752   */\n      swap2\n      swap1\n      pop\n      jump\t// out\n        /* \"#utility.yul\":26758:26941   */\n    tag_427:\n        /* \"#utility.yul\":26871:26934   */\n      tag_699\n        /* \"#utility.yul\":26928:26933   */\n      dup2\n        /* \"#utility.yul\":26871:26934   */\n      tag_426\n      jump\t// in\n    tag_699:\n        /* \"#utility.yul\":26866:26869   */\n      dup3\n        /* \"#utility.yul\":26859:26935   */\n      mstore\n        /* \"#utility.yul\":26758:26941   */\n      pop\n      pop\n      jump\t// out\n        /* \"#utility.yul\":26947:27221   */\n    tag_238:\n        /* \"#utility.yul\":27066:27070   */\n      0x00\n        /* \"#utility.yul\":27104:27106   */\n      0x20\n        /* \"#utility.yul\":27093:27102   */\n      dup3\n        /* \"#utility.yul\":27089:27107   */\n      add\n        /* \"#utility.yul\":27081:27107   */\n      swap1\n      pop\n        /* \"#utility.yul\":27117:27214   */\n      tag_701\n        /* \"#utility.yul\":27211:27212   */\n      0x00\n        /* \"#utility.yul\":27200:27209   */\n      dup4\n        /* \"#utility.yul\":27196:27213   */\n      add\n        /* \"#utility.yul\":27187:27193   */\n      dup5\n        /* \"#utility.yul\":27117:27214   */\n      tag_427\n      jump\t// in\n    tag_701:\n        /* \"#utility.yul\":26947:27221   */\n      swap3\n      swap2\n      pop\n      pop\n      jump\t// out\n        /* \"#utility.yul\":27227:27637   */\n    tag_241:\n        /* \"#utility.yul\":27267:27274   */\n      0x00\n        /* \"#utility.yul\":27290:27310   */\n      tag_703\n        /* \"#utility.yul\":27308:27309   */\n      dup3\n        /* \"#utility.yul\":27290:27310   */\n      tag_365\n      jump\t// in\n    tag_703:\n        /* \"#utility.yul\":27285:27310   */\n      swap2\n      pop\n        /* \"#utility.yul\":27324:27344   */\n      tag_704\n        /* \"#utility.yul\":27342:27343   */\n      dup4\n        /* \"#utility.yul\":27324:27344   */\n      tag_365\n      jump\t// in\n    tag_704:\n        /* \"#utility.yul\":27319:27344   */\n      swap3\n      pop\n        /* \"#utility.yul\":27379:27380   */\n      dup3\n        /* \"#utility.yul\":27376:27377   */\n      dup3\n        /* \"#utility.yul\":27372:27381   */\n      mul\n        /* \"#utility.yul\":27401:27431   */\n      tag_705\n        /* \"#utility.yul\":27419:27430   */\n      dup2\n        /* \"#utility.yul\":27401:27431   */\n      tag_365\n      jump\t// in\n    tag_705:\n        /* \"#utility.yul\":27390:27431   */\n      swap2\n      pop\n        /* \"#utility.yul\":27580:27581   */\n      dup3\n        /* \"#utility.yul\":27571:27578   */\n      dup3\n        /* \"#utility.yul\":27567:27582   */\n      div\n        /* \"#utility.yul\":27564:27565   */\n      dup5\n        /* \"#utility.yul\":27561:27583   */\n      eq\n        /* \"#utility.yul\":27541:27542   */\n      dup4\n        /* \"#utility.yul\":27534:27543   */\n      iszero\n        /* \"#utility.yul\":27514:27597   */\n      or\n        /* \"#utility.yul\":27491:27630   */\n      tag_706\n      jumpi\n        /* \"#utility.yul\":27610:27628   */\n      tag_707\n      tag_422\n      jump\t// in\n    tag_707:\n        /* \"#utility.yul\":27491:27630   */\n    tag_706:\n        /* \"#utility.yul\":27275:27637   */\n      pop\n        /* \"#utility.yul\":27227:27637   */\n      swap3\n      swap2\n      pop\n      pop\n      jump\t// out\n        /* \"#utility.yul\":27643:27834   */\n    tag_243:\n        /* \"#utility.yul\":27683:27686   */\n      0x00\n        /* \"#utility.yul\":27702:27722   */\n      tag_709\n        /* \"#utility.yul\":27720:27721   */\n      dup3\n        /* \"#utility.yul\":27702:27722   */\n      tag_365\n      jump\t// in\n    tag_709:\n        /* \"#utility.yul\":27697:27722   */\n      swap2\n      pop\n        /* \"#utility.yul\":27736:27756   */\n      tag_710\n        /* \"#utility.yul\":27754:27755   */\n      dup4\n        /* \"#utility.yul\":27736:27756   */\n      tag_365\n      jump\t// in\n    tag_710:\n        /* \"#utility.yul\":27731:27756   */\n      swap3\n      pop\n        /* \"#utility.yul\":27779:27780   */\n      dup3\n        /* \"#utility.yul\":27776:27777   */\n      dup3\n        /* \"#utility.yul\":27772:27781   */\n      add\n        /* \"#utility.yul\":27765:27781   */\n      swap1\n      pop\n        /* \"#utility.yul\":27800:27803   */\n      dup1\n        /* \"#utility.yul\":27797:27798   */\n      dup3\n        /* \"#utility.yul\":27794:27804   */\n      gt\n        /* \"#utility.yul\":27791:27827   */\n      iszero\n      tag_711\n      jumpi\n        /* \"#utility.yul\":27807:27825   */\n      tag_712\n      tag_422\n      jump\t// in\n    tag_712:\n        /* \"#utility.yul\":27791:27827   */\n    tag_711:\n        /* \"#utility.yul\":27643:27834   */\n      swap3\n      swap2\n      pop\n      pop\n      jump\t// out\n        /* \"#utility.yul\":27840:27981   */\n    tag_428:\n        /* \"#utility.yul\":27889:27893   */\n      0x00\n        /* \"#utility.yul\":27912:27915   */\n      dup2\n        /* \"#utility.yul\":27904:27915   */\n      swap1\n      pop\n        /* \"#utility.yul\":27935:27938   */\n      dup2\n        /* \"#utility.yul\":27932:27933   */\n      0x00\n        /* \"#utility.yul\":27925:27939   */\n      mstore\n        /* \"#utility.yul\":27969:27973   */\n      0x20\n        /* \"#utility.yul\":27966:27967   */\n      0x00\n        /* \"#utility.yul\":27956:27974   */\n      keccak256\n        /* \"#utility.yul\":27948:27974   */\n      swap1\n      pop\n        /* \"#utility.yul\":27840:27981   */\n      swap2\n      swap1\n      pop\n      jump\t// out\n        /* \"#utility.yul\":27987:28080   */\n    tag_429:\n        /* \"#utility.yul\":28024:28030   */\n      0x00\n        /* \"#utility.yul\":28071:28073   */\n      0x20\n        /* \"#utility.yul\":28066:28068   */\n      0x1f\n        /* \"#utility.yul\":28059:28064   */\n      dup4\n        /* \"#utility.yul\":28055:28069   */\n      add\n        /* \"#utility.yul\":28051:28074   */\n      div\n        /* \"#utility.yul\":28041:28074   */\n      swap1\n      pop\n        /* \"#utility.yul\":27987:28080   */\n      swap2\n      swap1\n      pop\n      jump\t// out\n        /* \"#utility.yul\":28086:28193   */\n    tag_430:\n        /* \"#utility.yul\":28130:28138   */\n      0x00\n        /* \"#utility.yul\":28180:28185   */\n      dup3\n        /* \"#utility.yul\":28174:28178   */\n      dup3\n        /* \"#utility.yul\":28170:28186   */\n      shl\n        /* \"#utility.yul\":28149:28186   */\n      swap1\n      pop\n        /* \"#utility.yul\":28086:28193   */\n      swap3\n      swap2\n      pop\n      pop\n      jump\t// out\n        /* \"#utility.yul\":28199:28592   */\n    tag_431:\n        /* \"#utility.yul\":28268:28274   */\n      0x00\n        /* \"#utility.yul\":28318:28319   */\n      0x08\n        /* \"#utility.yul\":28306:28316   */\n      dup4\n        /* \"#utility.yul\":28302:28320   */\n      mul\n        /* \"#utility.yul\":28341:28438   */\n      tag_717\n        /* \"#utility.yul\":28371:28437   */\n      0xffffffffffffffffffffffffffffffffffffffffffffffffffffffffffffffff\n        /* \"#utility.yul\":28360:28369   */\n      dup3\n        /* \"#utility.yul\":28341:28438   */\n      tag_430\n      jump\t// in\n    tag_717:\n        /* \"#utility.yul\":28459:28498   */\n      tag_718\n        /* \"#utility.yul\":28489:28497   */\n      dup7\n        /* \"#utility.yul\":28478:28487   */\n      dup4\n        /* \"#utility.yul\":28459:28498   */\n      tag_430\n      jump\t// in\n    tag_718:\n        /* \"#utility.yul\":28447:28498   */\n      swap6\n      pop\n        /* \"#utility.yul\":28531:28535   */\n      dup1\n        /* \"#utility.yul\":28527:28536   */\n      not\n        /* \"#utility.yul\":28520:28525   */\n      dup5\n        /* \"#utility.yul\":28516:28537   */\n      and\n        /* \"#utility.yul\":28507:28537   */\n      swap4\n      pop\n        /* \"#utility.yul\":28580:28584   */\n      dup1\n        /* \"#utility.yul\":28570:28578   */\n      dup7\n        /* \"#utility.yul\":28566:28585   */\n      and\n        /* \"#utility.yul\":28559:28564   */\n      dup5\n        /* \"#utility.yul\":28556:28586   */\n      or\n        /* \"#utility.yul\":28546:28586   */\n      swap3\n      pop\n        /* \"#utility.yul\":28275:28592   */\n      pop\n      pop\n        /* \"#utility.yul\":28199:28592   */\n      swap4\n      swap3\n      pop\n      pop\n      pop\n      jump\t// out\n        /* \"#utility.yul\":28598:28740   */\n    tag_432:\n        /* \"#utility.yul\":28648:28657   */\n      0x00\n        /* \"#utility.yul\":28681:28734   */\n      tag_720\n        /* \"#utility.yul\":28699:28733   */\n      tag_721\n        /* \"#utility.yul\":28708:28732   */\n      tag_722\n        /* \"#utility.yul\":28726:28731   */\n      dup5\n        /* \"#utility.yul\":28708:28732   */\n      tag_365\n      jump\t// in\n    tag_722:\n        /* \"#utility.yul\":28699:28733   */\n      tag_412\n      jump\t// in\n    tag_721:\n        /* \"#utility.yul\":28681:28734   */\n      tag_365\n      jump\t// in\n    tag_720:\n        /* \"#utility.yul\":28668:28734   */\n      swap1\n      pop\n        /* \"#utility.yul\":28598:28740   */\n      swap2\n      swap1\n      pop\n      jump\t// out\n        /* \"#utility.yul\":28746:28821   */\n    tag_433:\n        /* \"#utility.yul\":28789:28792   */\n      0x00\n        /* \"#utility.yul\":28810:28815   */\n      dup2\n        /* \"#utility.yul\":28803:28815   */\n      swap1\n      pop\n        /* \"#utility.yul\":28746:28821   */\n      swap2\n      swap1\n      pop\n      jump\t// out\n        /* \"#utility.yul\":28827:29096   */\n    tag_434:\n        /* \"#utility.yul\":28937:28976   */\n      tag_725\n        /* \"#utility.yul\":28968:28975   */\n      dup4\n        /* \"#utility.yul\":28937:28976   */\n      tag_432\n      jump\t// in\n    tag_725:\n        /* \"#utility.yul\":28998:29089   */\n      tag_726\n        /* \"#utility.yul\":29047:29088   */\n      tag_727\n        /* \"#utility.yul\":29071:29087   */\n      dup3\n        /* \"#utility.yul\":29047:29088   */\n      tag_433\n      jump\t// in\n    tag_727:\n        /* \"#utility.yul\":29039:29045   */\n      dup5\n        /* \"#utility.yul\":29032:29036   */\n      dup5\n        /* \"#utility.yul\":29026:29037   */\n      sload\n        /* \"#utility.yul\":28998:29089   */\n      tag_431\n      jump\t// in\n    tag_726:\n        /* \"#utility.yul\":28992:28996   */\n      dup3\n        /* \"#utility.yul\":28985:29090   */\n      sstore\n        /* \"#utility.yul\":28903:29096   */\n      pop\n        /* \"#utility.yul\":28827:29096   */\n      pop\n      pop\n      pop\n      jump\t// out\n        /* \"#utility.yul\":29102:29175   */\n    tag_435:\n        /* \"#utility.yul\":29147:29150   */\n      0x00\n        /* \"#utility.yul\":29168:29169   */\n      0x00\n        /* \"#utility.yul\":29161:29169   */\n      swap1\n      pop\n        /* \"#utility.yul\":29102:29175   */\n      swap1\n      jump\t// out\n        /* \"#utility.yul\":29181:29370   */\n    tag_436:\n        /* \"#utility.yul\":29258:29290   */\n      tag_730\n      tag_435\n      jump\t// in\n    tag_730:\n        /* \"#utility.yul\":29299:29364   */\n      tag_731\n        /* \"#utility.yul\":29357:29363   */\n      dup2\n        /* \"#utility.yul\":29349:29355   */\n      dup5\n        /* \"#utility.yul\":29343:29347   */\n      dup5\n        /* \"#utility.yul\":29299:29364   */\n      tag_434\n      jump\t// in\n    tag_731:\n        /* \"#utility.yul\":29234:29370   */\n      pop\n        /* \"#utility.yul\":29181:29370   */\n      pop\n      pop\n      jump\t// out\n        /* \"#utility.yul\":29376:29562   */\n    tag_437:\n        /* \"#utility.yul\":29436:29556   */\n    tag_733:\n        /* \"#utility.yul\":29453:29456   */\n      dup2\n        /* \"#utility.yul\":29446:29451   */\n      dup2\n        /* \"#utility.yul\":29443:29457   */\n      lt\n        /* \"#utility.yul\":29436:29556   */\n      iszero\n      tag_735\n      jumpi\n        /* \"#utility.yul\":29507:29546   */\n      tag_736\n        /* \"#utility.yul\":29544:29545   */\n      0x00\n        /* \"#utility.yul\":29537:29542   */\n      dup3\n        /* \"#utility.yul\":29507:29546   */\n      tag_436\n      jump\t// in\n    tag_736:\n        /* \"#utility.yul\":29480:29481   */\n      0x01\n        /* \"#utility.yul\":29473:29478   */\n      dup2\n        /* \"#utility.yul\":29469:29482   */\n      add\n        /* \"#utility.yul\":29460:29482   */\n      swap1\n      pop\n        /* \"#utility.yul\":29436:29556   */\n      jump(tag_733)\n    tag_735:\n        /* \"#utility.yul\":29376:29562   */\n      pop\n      pop\n      jump\t// out\n        /* \"#utility.yul\":29568:30111   */\n    tag_438:\n        /* \"#utility.yul\":29669:29671   */\n      0x1f\n        /* \"#utility.yul\":29664:29667   */\n      dup3\n        /* \"#utility.yul\":29661:29672   */\n      gt\n        /* \"#utility.yul\":29658:30104   */\n      iszero\n      tag_738\n      jumpi\n        /* \"#utility.yul\":29703:29741   */\n      tag_739\n        /* \"#utility.yul\":29735:29740   */\n      dup2\n        /* \"#utility.yul\":29703:29741   */\n      tag_428\n      jump\t// in\n    tag_739:\n        /* \"#utility.yul\":29787:29816   */\n      tag_740\n        /* \"#utility.yul\":29805:29815   */\n      dup5\n        /* \"#utility.yul\":29787:29816   */\n      tag_429\n      jump\t// in\n    tag_740:\n        /* \"#utility.yul\":29777:29785   */\n      dup2\n        /* \"#utility.yul\":29773:29817   */\n      add\n        /* \"#utility.yul\":29970:29972   */\n      0x20\n        /* \"#utility.yul\":29958:29968   */\n      dup6\n        /* \"#utility.yul\":29955:29973   */\n      lt\n        /* \"#utility.yul\":29952:30001   */\n      iszero\n      tag_741\n      jumpi\n        /* \"#utility.yul\":29991:29999   */\n      dup2\n        /* \"#utility.yul\":29976:29999   */\n      swap1\n      pop\n        /* \"#utility.yul\":29952:30001   */\n    tag_741:\n        /* \"#utility.yul\":30014:30094   */\n      tag_742\n        /* \"#utility.yul\":30070:30092   */\n      tag_743\n        /* \"#utility.yul\":30088:30091   */\n      dup6\n        /* \"#utility.yul\":30070:30092   */\n      tag_429\n      jump\t// in\n    tag_743:\n        /* \"#utility.yul\":30060:30068   */\n      dup4\n        /* \"#utility.yul\":30056:30093   */\n      add\n        /* \"#utility.yul\":30043:30054   */\n      dup3\n        /* \"#utility.yul\":30014:30094   */\n      tag_437\n      jump\t// in\n    tag_742:\n        /* \"#utility.yul\":29673:30104   */\n      pop\n      pop\n        /* \"#utility.yul\":29658:30104   */\n    tag_738:\n        /* \"#utility.yul\":29568:30111   */\n      pop\n      pop\n      pop\n      jump\t// out\n        /* \"#utility.yul\":30117:30234   */\n    tag_439:\n        /* \"#utility.yul\":30171:30179   */\n      0x00\n        /* \"#utility.yul\":30221:30226   */\n      dup3\n        /* \"#utility.yul\":30215:30219   */\n      dup3\n        /* \"#utility.yul\":30211:30227   */\n      shr\n        /* \"#utility.yul\":30190:30227   */\n      swap1\n      pop\n        /* \"#utility.yul\":30117:30234   */\n      swap3\n      swap2\n      pop\n      pop\n      jump\t// out\n        /* \"#utility.yul\":30240:30409   */\n    tag_440:\n        /* \"#utility.yul\":30284:30290   */\n      0x00\n        /* \"#utility.yul\":30317:30368   */\n      tag_746\n        /* \"#utility.yul\":30365:30366   */\n      0x00\n        /* \"#utility.yul\":30361:30367   */\n      not\n        /* \"#utility.yul\":30353:30358   */\n      dup5\n        /* \"#utility.yul\":30350:30351   */\n      0x08\n        /* \"#utility.yul\":30346:30359   */\n      mul\n        /* \"#utility.yul\":30317:30368   */\n      tag_439\n      jump\t// in\n    tag_746:\n        /* \"#utility.yul\":30313:30369   */\n      not\n        /* \"#utility.yul\":30398:30402   */\n      dup1\n        /* \"#utility.yul\":30392:30396   */\n      dup4\n        /* \"#utility.yul\":30388:30403   */\n      and\n        /* \"#utility.yul\":30378:30403   */\n      swap2\n      pop\n        /* \"#utility.yul\":30291:30409   */\n      pop\n        /* \"#utility.yul\":30240:30409   */\n      swap3\n      swap2\n      pop\n      pop\n      jump\t// out\n        /* \"#utility.yul\":30414:30709   */\n    tag_441:\n        /* \"#utility.yul\":30490:30494   */\n      0x00\n        /* \"#utility.yul\":30636:30665   */\n      tag_748\n        /* \"#utility.yul\":30661:30664   */\n      dup4\n        /* \"#utility.yul\":30655:30659   */\n      dup4\n        /* \"#utility.yul\":30636:30665   */\n      tag_440\n      jump\t// in\n    tag_748:\n        /* \"#utility.yul\":30628:30665   */\n      swap2\n      pop\n        /* \"#utility.yul\":30698:30701   */\n      dup3\n        /* \"#utility.yul\":30695:30696   */\n      0x02\n        /* \"#utility.yul\":30691:30702   */\n      mul\n        /* \"#utility.yul\":30685:30689   */\n      dup3\n        /* \"#utility.yul\":30682:30703   */\n      or\n        /* \"#utility.yul\":30674:30703   */\n      swap1\n      pop\n        /* \"#utility.yul\":30414:30709   */\n      swap3\n      swap2\n      pop\n      pop\n      jump\t// out\n        /* \"#utility.yul\":30714:32109   */\n    tag_245:\n        /* \"#utility.yul\":30831:30868   */\n      tag_750\n        /* \"#utility.yul\":30864:30867   */\n      dup3\n        /* \"#utility.yul\":30831:30868   */\n      tag_369\n      jump\t// in\n    tag_750:\n        /* \"#utility.yul\":30933:30951   */\n      0xffffffffffffffff\n        /* \"#utility.yul\":30925:30931   */\n      dup2\n        /* \"#utility.yul\":30922:30952   */\n      gt\n        /* \"#utility.yul\":30919:30975   */\n      iszero\n      tag_751\n      jumpi\n        /* \"#utility.yul\":30955:30973   */\n      tag_752\n      tag_382\n      jump\t// in\n    tag_752:\n        /* \"#utility.yul\":30919:30975   */\n    tag_751:\n        /* \"#utility.yul\":30999:31037   */\n      tag_753\n        /* \"#utility.yul\":31031:31035   */\n      dup3\n        /* \"#utility.yul\":31025:31036   */\n      sload\n        /* \"#utility.yul\":30999:31037   */\n      tag_165\n      jump\t// in\n    tag_753:\n        /* \"#utility.yul\":31084:31151   */\n      tag_754\n        /* \"#utility.yul\":31144:31150   */\n      dup3\n        /* \"#utility.yul\":31136:31142   */\n      dup3\n        /* \"#utility.yul\":31130:31134   */\n      dup6\n        /* \"#utility.yul\":31084:31151   */\n      tag_438\n      jump\t// in\n    tag_754:\n        /* \"#utility.yul\":31178:31179   */\n      0x00\n        /* \"#utility.yul\":31202:31206   */\n      0x20\n        /* \"#utility.yul\":31189:31206   */\n      swap1\n      pop\n        /* \"#utility.yul\":31234:31236   */\n      0x1f\n        /* \"#utility.yul\":31226:31232   */\n      dup4\n        /* \"#utility.yul\":31223:31237   */\n      gt\n        /* \"#utility.yul\":31251:31252   */\n      0x01\n        /* \"#utility.yul\":31246:31864   */\n      dup2\n      eq\n      tag_756\n      jumpi\n        /* \"#utility.yul\":31908:31909   */\n      0x00\n        /* \"#utility.yul\":31925:31931   */\n      dup5\n        /* \"#utility.yul\":31922:31999   */\n      iszero\n      tag_757\n      jumpi\n        /* \"#utility.yul\":31974:31983   */\n      dup3\n        /* \"#utility.yul\":31969:31972   */\n      dup8\n        /* \"#utility.yul\":31965:31984   */\n      add\n        /* \"#utility.yul\":31959:31985   */\n      mload\n        /* \"#utility.yul\":31950:31985   */\n      swap1\n      pop\n        /* \"#utility.yul\":31922:31999   */\n    tag_757:\n        /* \"#utility.yul\":32025:32092   */\n      tag_758\n        /* \"#utility.yul\":32085:32091   */\n      dup6\n        /* \"#utility.yul\":32078:32083   */\n      dup3\n        /* \"#utility.yul\":32025:32092   */\n      tag_441\n      jump\t// in\n    tag_758:\n        /* \"#utility.yul\":32019:32023   */\n      dup7\n        /* \"#utility.yul\":32012:32093   */\n      sstore\n        /* \"#utility.yul\":31881:32103   */\n      pop\n        /* \"#utility.yul\":31216:32103   */\n      jump(tag_755)\n        /* \"#utility.yul\":31246:31864   */\n    tag_756:\n        /* \"#utility.yul\":31298:31302   */\n      0x1f\n        /* \"#utility.yul\":31294:31303   */\n      not\n        /* \"#utility.yul\":31286:31292   */\n      dup5\n        /* \"#utility.yul\":31282:31304   */\n      and\n        /* \"#utility.yul\":31332:31369   */\n      tag_759\n        /* \"#utility.yul\":31364:31368   */\n      dup7\n        /* \"#utility.yul\":31332:31369   */\n      tag_428\n      jump\t// in\n    tag_759:\n        /* \"#utility.yul\":31391:31392   */\n      0x00\n        /* \"#utility.yul\":31405:31613   */\n    tag_760:\n        /* \"#utility.yul\":31419:31426   */\n      dup3\n        /* \"#utility.yul\":31416:31417   */\n      dup2\n        /* \"#utility.yul\":31413:31427   */\n      lt\n        /* \"#utility.yul\":31405:31613   */\n      iszero\n      tag_762\n      jumpi\n        /* \"#utility.yul\":31498:31507   */\n      dup5\n        /* \"#utility.yul\":31493:31496   */\n      dup10\n        /* \"#utility.yul\":31489:31508   */\n      add\n        /* \"#utility.yul\":31483:31509   */\n      mload\n        /* \"#utility.yul\":31475:31481   */\n      dup3\n        /* \"#utility.yul\":31468:31510   */\n      sstore\n        /* \"#utility.yul\":31549:31550   */\n      0x01\n        /* \"#utility.yul\":31541:31547   */\n      dup3\n        /* \"#utility.yul\":31537:31551   */\n      add\n        /* \"#utility.yul\":31527:31551   */\n      swap2\n      pop\n        /* \"#utility.yul\":31596:31598   */\n      0x20\n        /* \"#utility.yul\":31585:31594   */\n      dup6\n        /* \"#utility.yul\":31581:31599   */\n      add\n        /* \"#utility.yul\":31568:31599   */\n      swap5\n      pop\n        /* \"#utility.yul\":31442:31446   */\n      0x20\n        /* \"#utility.yul\":31439:31440   */\n      dup2\n        /* \"#utility.yul\":31435:31447   */\n      add\n        /* \"#utility.yul\":31430:31447   */\n      swap1\n      pop\n        /* \"#utility.yul\":31405:31613   */\n      jump(tag_760)\n    tag_762:\n        /* \"#utility.yul\":31641:31647   */\n      dup7\n        /* \"#utility.yul\":31632:31639   */\n      dup4\n        /* \"#utility.yul\":31629:31648   */\n      lt\n        /* \"#utility.yul\":31626:31805   */\n      iszero\n      tag_763\n      jumpi\n        /* \"#utility.yul\":31699:31708   */\n      dup5\n        /* \"#utility.yul\":31694:31697   */\n      dup10\n        /* \"#utility.yul\":31690:31709   */\n      add\n        /* \"#utility.yul\":31684:31710   */\n      mload\n        /* \"#utility.yul\":31742:31790   */\n      tag_764\n        /* \"#utility.yul\":31784:31788   */\n      0x1f\n        /* \"#utility.yul\":31776:31782   */\n      dup10\n        /* \"#utility.yul\":31772:31789   */\n      and\n        /* \"#utility.yul\":31761:31770   */\n      dup3\n        /* \"#utility.yul\":31742:31790   */\n      tag_440\n      jump\t// in\n    tag_764:\n        /* \"#utility.yul\":31734:31740   */\n      dup4\n        /* \"#utility.yul\":31727:31791   */\n      sstore\n        /* \"#utility.yul\":31649:31805   */\n      pop\n        /* \"#utility.yul\":31626:31805   */\n    tag_763:\n        /* \"#utility.yul\":31851:31852   */\n      0x01\n        /* \"#utility.yul\":31847:31848   */\n      0x02\n        /* \"#utility.yul\":31839:31845   */\n      dup9\n        /* \"#utility.yul\":31835:31849   */\n      mul\n        /* \"#utility.yul\":31831:31853   */\n      add\n        /* \"#utility.yul\":31825:31829   */\n      dup9\n        /* \"#utility.yul\":31818:31854   */\n      sstore\n        /* \"#utility.yul\":31253:31864   */\n      pop\n      pop\n      pop\n        /* \"#utility.yul\":31216:32103   */\n    tag_755:\n      pop\n        /* \"#utility.yul\":30806:32109   */\n      pop\n      pop\n      pop\n        /* \"#utility.yul\":30714:32109   */\n      pop\n      pop\n      jump\t// out\n        /* \"#utility.yul\":32115:33060   */\n    tag_249:\n        /* \"#utility.yul\":32382:32386   */\n      0x00\n        /* \"#utility.yul\":32420:32423   */\n      0xc0\n        /* \"#utility.yul\":32409:32418   */\n      dup3\n        /* \"#utility.yul\":32405:32424   */\n      add\n        /* \"#utility.yul\":32397:32424   */\n      swap1\n      pop\n        /* \"#utility.yul\":32470:32479   */\n      dup2\n        /* \"#utility.yul\":32464:32468   */\n      dup2\n        /* \"#utility.yul\":32460:32480   */\n      sub\n        /* \"#utility.yul\":32456:32457   */\n      0x00\n        /* \"#utility.yul\":32445:32454   */\n      dup4\n        /* \"#utility.yul\":32441:32458   */\n      add\n        /* \"#utility.yul\":32434:32481   */\n      mstore\n        /* \"#utility.yul\":32498:32576   */\n      tag_766\n        /* \"#utility.yul\":32571:32575   */\n      dup2\n        /* \"#utility.yul\":32562:32568   */\n      dup10\n        /* \"#utility.yul\":32498:32576   */\n      tag_391\n      jump\t// in\n    tag_766:\n        /* \"#utility.yul\":32490:32576   */\n      swap1\n      pop\n        /* \"#utility.yul\":32623:32632   */\n      dup2\n        /* \"#utility.yul\":32617:32621   */\n      dup2\n        /* \"#utility.yul\":32613:32633   */\n      sub\n        /* \"#utility.yul\":32608:32610   */\n      0x20\n        /* \"#utility.yul\":32597:32606   */\n      dup4\n        /* \"#utility.yul\":32593:32611   */\n      add\n        /* \"#utility.yul\":32586:32634   */\n      mstore\n        /* \"#utility.yul\":32651:32729   */\n      tag_767\n        /* \"#utility.yul\":32724:32728   */\n      dup2\n        /* \"#utility.yul\":32715:32721   */\n      dup9\n        /* \"#utility.yul\":32651:32729   */\n      tag_391\n      jump\t// in\n    tag_767:\n        /* \"#utility.yul\":32643:32729   */\n      swap1\n      pop\n        /* \"#utility.yul\":32739:32811   */\n      tag_768\n        /* \"#utility.yul\":32807:32809   */\n      0x40\n        /* \"#utility.yul\":32796:32805   */\n      dup4\n        /* \"#utility.yul\":32792:32810   */\n      add\n        /* \"#utility.yul\":32783:32789   */\n      dup8\n        /* \"#utility.yul\":32739:32811   */\n      tag_389\n      jump\t// in\n    tag_768:\n        /* \"#utility.yul\":32821:32893   */\n      tag_769\n        /* \"#utility.yul\":32889:32891   */\n      0x60\n        /* \"#utility.yul\":32878:32887   */\n      dup4\n        /* \"#utility.yul\":32874:32892   */\n      add\n        /* \"#utility.yul\":32865:32871   */\n      dup7\n        /* \"#utility.yul\":32821:32893   */\n      tag_389\n      jump\t// in\n    tag_769:\n        /* \"#utility.yul\":32903:32970   */\n      tag_770\n        /* \"#utility.yul\":32965:32968   */\n      0x80\n        /* \"#utility.yul\":32954:32963   */\n      dup4\n        /* \"#utility.yul\":32950:32969   */\n      add\n        /* \"#utility.yul\":32941:32947   */\n      dup6\n        /* \"#utility.yul\":32903:32970   */\n      tag_393\n      jump\t// in\n    tag_770:\n        /* \"#utility.yul\":32980:33053   */\n      tag_771\n        /* \"#utility.yul\":33048:33051   */\n      0xa0\n        /* \"#utility.yul\":33037:33046   */\n      dup4\n        /* \"#utility.yul\":33033:33052   */\n      add\n        /* \"#utility.yul\":33024:33030   */\n      dup5\n        /* \"#utility.yul\":32980:33053   */\n      tag_389\n      jump\t// in\n    tag_771:\n        /* \"#utility.yul\":32115:33060   */\n      swap8\n      swap7\n      pop\n      pop\n      pop\n      pop\n      pop\n      pop\n      pop\n      jump\t// out\n        /* \"#utility.yul\":33066:33241   */\n    tag_442:\n        /* \"#utility.yul\":33206:33233   */\n      0x42617365206475726174696f6e206d757374206265203e203000000000000000\n        /* \"#utility.yul\":33202:33203   */\n      0x00\n        /* \"#utility.yul\":33194:33200   */\n      dup3\n        /* \"#utility.yul\":33190:33204   */\n      add\n        /* \"#utility.yul\":33183:33234   */\n      mstore\n        /* \"#utility.yul\":33066:33241   */\n      pop\n      jump\t// out\n        /* \"#utility.yul\":33247:33613   */\n    tag_443:\n        /* \"#utility.yul\":33389:33392   */\n      0x00\n        /* \"#utility.yul\":33410:33477   */\n      tag_774\n        /* \"#utility.yul\":33474:33476   */\n      0x19\n        /* \"#utility.yul\":33469:33472   */\n      dup4\n        /* \"#utility.yul\":33410:33477   */\n      tag_390\n      jump\t// in\n    tag_774:\n        /* \"#utility.yul\":33403:33477   */\n      swap2\n      pop\n        /* \"#utility.yul\":33486:33579   */\n      tag_775\n        /* \"#utility.yul\":33575:33578   */\n      dup3\n        /* \"#utility.yul\":33486:33579   */\n      tag_442\n      jump\t// in\n    tag_775:\n        /* \"#utility.yul\":33604:33606   */\n      0x20\n        /* \"#utility.yul\":33599:33602   */\n      dup3\n        /* \"#utility.yul\":33595:33607   */\n      add\n        /* \"#utility.yul\":33588:33607   */\n      swap1\n      pop\n        /* \"#utility.yul\":33247:33613   */\n      swap2\n      swap1\n      pop\n      jump\t// out\n        /* \"#utility.yul\":33619:34038   */\n    tag_258:\n        /* \"#utility.yul\":33785:33789   */\n      0x00\n        /* \"#utility.yul\":33823:33825   */\n      0x20\n        /* \"#utility.yul\":33812:33821   */\n      dup3\n        /* \"#utility.yul\":33808:33826   */\n      add\n        /* \"#utility.yul\":33800:33826   */\n      swap1\n      pop\n        /* \"#utility.yul\":33872:33881   */\n      dup2\n        /* \"#utility.yul\":33866:33870   */\n      dup2\n        /* \"#utility.yul\":33862:33882   */\n      sub\n        /* \"#utility.yul\":33858:33859   */\n      0x00\n        /* \"#utility.yul\":33847:33856   */\n      dup4\n        /* \"#utility.yul\":33843:33860   */\n      add\n        /* \"#utility.yul\":33836:33883   */\n      mstore\n        /* \"#utility.yul\":33900:34031   */\n      tag_777\n        /* \"#utility.yul\":34026:34030   */\n      dup2\n        /* \"#utility.yul\":33900:34031   */\n      tag_443\n      jump\t// in\n    tag_777:\n        /* \"#utility.yul\":33892:34031   */\n      swap1\n      pop\n        /* \"#utility.yul\":33619:34038   */\n      swap2\n      swap1\n      pop\n      jump\t// out\n        /* \"#utility.yul\":34044:34486   */\n    tag_260:\n        /* \"#utility.yul\":34193:34197   */\n      0x00\n        /* \"#utility.yul\":34231:34233   */\n      0x60\n        /* \"#utility.yul\":34220:34229   */\n      dup3\n        /* \"#utility.yul\":34216:34234   */\n      add\n        /* \"#utility.yul\":34208:34234   */\n      swap1\n      pop\n        /* \"#utility.yul\":34244:34315   */\n      tag_779\n        /* \"#utility.yul\":34312:34313   */\n      0x00\n        /* \"#utility.yul\":34301:34310   */\n      dup4\n        /* \"#utility.yul\":34297:34314   */\n      add\n        /* \"#utility.yul\":34288:34294   */\n      dup7\n        /* \"#utility.yul\":34244:34315   */\n      tag_389\n      jump\t// in\n    tag_779:\n        /* \"#utility.yul\":34325:34397   */\n      tag_780\n        /* \"#utility.yul\":34393:34395   */\n      0x20\n        /* \"#utility.yul\":34382:34391   */\n      dup4\n        /* \"#utility.yul\":34378:34396   */\n      add\n        /* \"#utility.yul\":34369:34375   */\n      dup6\n        /* \"#utility.yul\":34325:34397   */\n      tag_389\n      jump\t// in\n    tag_780:\n        /* \"#utility.yul\":34407:34479   */\n      tag_781\n        /* \"#utility.yul\":34475:34477   */\n      0x40\n        /* \"#utility.yul\":34464:34473   */\n      dup4\n        /* \"#utility.yul\":34460:34478   */\n      add\n        /* \"#utility.yul\":34451:34457   */\n      dup5\n        /* \"#utility.yul\":34407:34479   */\n      tag_389\n      jump\t// in\n    tag_781:\n        /* \"#utility.yul\":34044:34486   */\n      swap5\n      swap4\n      pop\n      pop\n      pop\n      pop\n      jump\t// out\n        /* \"#utility.yul\":34492:34664   */\n    tag_444:\n        /* \"#utility.yul\":34632:34656   */\n      0x4e6f2062616c616e636520746f20776974686472617700000000000000000000\n        /* \"#utility.yul\":34628:34629   */\n      0x00\n        /* \"#utility.yul\":34620:34626   */\n      dup3\n        /* \"#utility.yul\":34616:34630   */\n      add\n        /* \"#utility.yul\":34609:34657   */\n      mstore\n        /* \"#utility.yul\":34492:34664   */\n      pop\n      jump\t// out\n        /* \"#utility.yul\":34670:35036   */\n    tag_445:\n        /* \"#utility.yul\":34812:34815   */\n      0x00\n        /* \"#utility.yul\":34833:34900   */\n      tag_784\n        /* \"#utility.yul\":34897:34899   */\n      0x16\n        /* \"#utility.yul\":34892:34895   */\n      dup4\n        /* \"#utility.yul\":34833:34900   */\n      tag_390\n      jump\t// in\n    tag_784:\n        /* \"#utility.yul\":34826:34900   */\n      swap2\n      pop\n        /* \"#utility.yul\":34909:35002   */\n      tag_785\n        /* \"#utility.yul\":34998:35001   */\n      dup3\n        /* \"#utility.yul\":34909:35002   */\n      tag_444\n      jump\t// in\n    tag_785:\n        /* \"#utility.yul\":35027:35029   */\n      0x20\n        /* \"#utility.yul\":35022:35025   */\n      dup3\n        /* \"#utility.yul\":35018:35030   */\n      add\n        /* \"#utility.yul\":35011:35030   */\n      swap1\n      pop\n        /* \"#utility.yul\":34670:35036   */\n      swap2\n      swap1\n      pop\n      jump\t// out\n        /* \"#utility.yul\":35042:35461   */\n    tag_282:\n        /* \"#utility.yul\":35208:35212   */\n      0x00\n        /* \"#utility.yul\":35246:35248   */\n      0x20\n        /* \"#utility.yul\":35235:35244   */\n      dup3\n        /* \"#utility.yul\":35231:35249   */\n      add\n        /* \"#utility.yul\":35223:35249   */\n      swap1\n      pop\n        /* \"#utility.yul\":35295:35304   */\n      dup2\n        /* \"#utility.yul\":35289:35293   */\n      dup2\n        /* \"#utility.yul\":35285:35305   */\n      sub\n        /* \"#utility.yul\":35281:35282   */\n      0x00\n        /* \"#utility.yul\":35270:35279   */\n      dup4\n        /* \"#utility.yul\":35266:35283   */\n      add\n        /* \"#utility.yul\":35259:35306   */\n      mstore\n        /* \"#utility.yul\":35323:35454   */\n      tag_787\n        /* \"#utility.yul\":35449:35453   */\n      dup2\n        /* \"#utility.yul\":35323:35454   */\n      tag_445\n      jump\t// in\n    tag_787:\n        /* \"#utility.yul\":35315:35454   */\n      swap1\n      pop\n        /* \"#utility.yul\":35042:35461   */\n      swap2\n      swap1\n      pop\n      jump\t// out\n        /* \"#utility.yul\":35467:35634   */\n    tag_446:\n        /* \"#utility.yul\":35607:35626   */\n      0x496e76616c6964207468726573686f6c64000000000000000000000000000000\n        /* \"#utility.yul\":35603:35604   */\n      0x00\n        /* \"#utility.yul\":35595:35601   */\n      dup3\n        /* \"#utility.yul\":35591:35605   */\n      add\n        /* \"#utility.yul\":35584:35627   */\n      mstore\n        /* \"#utility.yul\":35467:35634   */\n      pop\n      jump\t// out\n        /* \"#utility.yul\":35640:36006   */\n    tag_447:\n        /* \"#utility.yul\":35782:35785   */\n      0x00\n        /* \"#utility.yul\":35803:35870   */\n      tag_790\n        /* \"#utility.yul\":35867:35869   */\n      0x11\n        /* \"#utility.yul\":35862:35865   */\n      dup4\n        /* \"#utility.yul\":35803:35870   */\n      tag_390\n      jump\t// in\n    tag_790:\n        /* \"#utility.yul\":35796:35870   */\n      swap2\n      pop\n        /* \"#utility.yul\":35879:35972   */\n      tag_791\n        /* \"#utility.yul\":35968:35971   */\n      dup3\n        /* \"#utility.yul\":35879:35972   */\n      tag_446\n      jump\t// in\n    tag_791:\n        /* \"#utility.yul\":35997:35999   */\n      0x20\n        /* \"#utility.yul\":35992:35995   */\n      dup3\n        /* \"#utility.yul\":35988:36000   */\n      add\n        /* \"#utility.yul\":35981:36000   */\n      swap1\n      pop\n        /* \"#utility.yul\":35640:36006   */\n      swap2\n      swap1\n      pop\n      jump\t// out\n        /* \"#utility.yul\":36012:36431   */\n    tag_291:\n        /* \"#utility.yul\":36178:36182   */\n      0x00\n        /* \"#utility.yul\":36216:36218   */\n      0x20\n        /* \"#utility.yul\":36205:36214   */\n      dup3\n        /* \"#utility.yul\":36201:36219   */\n      add\n        /* \"#utility.yul\":36193:36219   */\n      swap1\n      pop\n        /* \"#utility.yul\":36265:36274   */\n      dup2\n        /* \"#utility.yul\":36259:36263   */\n      dup2\n        /* \"#utility.yul\":36255:36275   */\n      sub\n        /* \"#utility.yul\":36251:36252   */\n      0x00\n        /* \"#utility.yul\":36240:36249   */\n      dup4\n        /* \"#utility.yul\":36236:36253   */\n      add\n        /* \"#utility.yul\":36229:36276   */\n      mstore\n        /* \"#utility.yul\":36293:36424   */\n      tag_793\n        /* \"#utility.yul\":36419:36423   */\n      dup2\n        /* \"#utility.yul\":36293:36424   */\n      tag_447\n      jump\t// in\n    tag_793:\n        /* \"#utility.yul\":36285:36424   */\n      swap1\n      pop\n        /* \"#utility.yul\":36012:36431   */\n      swap2\n      swap1\n      pop\n      jump\t// out\n        /* \"#utility.yul\":36437:36603   */\n    tag_448:\n        /* \"#utility.yul\":36577:36595   */\n      0x496e76616c6964206475726174696f6e00000000000000000000000000000000\n        /* \"#utility.yul\":36573:36574   */\n      0x00\n        /* \"#utility.yul\":36565:36571   */\n      dup3\n        /* \"#utility.yul\":36561:36575   */\n      add\n        /* \"#utility.yul\":36554:36596   */\n      mstore\n        /* \"#utility.yul\":36437:36603   */\n      pop\n      jump\t// out\n        /* \"#utility.yul\":36609:36975   */\n    tag_449:\n        /* \"#utility.yul\":36751:36754   */\n      0x00\n        /* \"#utility.yul\":36772:36839   */\n      tag_796\n        /* \"#utility.yul\":36836:36838   */\n      0x10\n        /* \"#utility.yul\":36831:36834   */\n      dup4\n        /* \"#utility.yul\":36772:36839   */\n      tag_390\n      jump\t// in\n    tag_796:\n        /* \"#utility.yul\":36765:36839   */\n      swap2\n      pop\n        /* \"#utility.yul\":36848:36941   */\n      tag_797\n        /* \"#utility.yul\":36937:36940   */\n      dup3\n        /* \"#utility.yul\":36848:36941   */\n      tag_448\n      jump\t// in\n    tag_797:\n        /* \"#utility.yul\":36966:36968   */\n      0x20\n        /* \"#utility.yul\":36961:36964   */\n      dup3\n        /* \"#utility.yul\":36957:36969   */\n      add\n        /* \"#utility.yul\":36950:36969   */\n      swap1\n      pop\n        /* \"#utility.yul\":36609:36975   */\n      swap2\n      swap1\n      pop\n      jump\t// out\n        /* \"#utility.yul\":36981:37400   */\n    tag_306:\n        /* \"#utility.yul\":37147:37151   */\n      0x00\n        /* \"#utility.yul\":37185:37187   */\n      0x20\n        /* \"#utility.yul\":37174:37183   */\n      dup3\n        /* \"#utility.yul\":37170:37188   */\n      add\n        /* \"#utility.yul\":37162:37188   */\n      swap1\n      pop\n        /* \"#utility.yul\":37234:37243   */\n      dup2\n        /* \"#utility.yul\":37228:37232   */\n      dup2\n        /* \"#utility.yul\":37224:37244   */\n      sub\n        /* \"#utility.yul\":37220:37221   */\n      0x00\n        /* \"#utility.yul\":37209:37218   */\n      dup4\n        /* \"#utility.yul\":37205:37222   */\n      add\n        /* \"#utility.yul\":37198:37245   */\n      mstore\n        /* \"#utility.yul\":37262:37393   */\n      tag_799\n        /* \"#utility.yul\":37388:37392   */\n      dup2\n        /* \"#utility.yul\":37262:37393   */\n      tag_449\n      jump\t// in\n    tag_799:\n        /* \"#utility.yul\":37254:37393   */\n      swap1\n      pop\n        /* \"#utility.yul\":36981:37400   */\n      swap2\n      swap1\n      pop\n      jump\t// out\n        /* \"#utility.yul\":37406:37578   */\n    tag_450:\n        /* \"#utility.yul\":37546:37570   */\n      0x5065746974696f6e206973206e6f742061637469766500000000000000000000\n        /* \"#utility.yul\":37542:37543   */\n      0x00\n        /* \"#utility.yul\":37534:37540   */\n      dup3\n        /* \"#utility.yul\":37530:37544   */\n      add\n        /* \"#utility.yul\":37523:37571   */\n      mstore\n        /* \"#utility.yul\":37406:37578   */\n      pop\n      jump\t// out\n        /* \"#utility.yul\":37584:37950   */\n    tag_451:\n        /* \"#utility.yul\":37726:37729   */\n      0x00\n        /* \"#utility.yul\":37747:37814   */\n      tag_802\n        /* \"#utility.yul\":37811:37813   */\n      0x16\n        /* \"#utility.yul\":37806:37809   */\n      dup4\n        /* \"#utility.yul\":37747:37814   */\n      tag_390\n      jump\t// in\n    tag_802:\n        /* \"#utility.yul\":37740:37814   */\n      swap2\n      pop\n        /* \"#utility.yul\":37823:37916   */\n      tag_803\n        /* \"#utility.yul\":37912:37915   */\n      dup3\n        /* \"#utility.yul\":37823:37916   */\n      tag_450\n      jump\t// in\n    tag_803:\n        /* \"#utility.yul\":37941:37943   */\n      0x20\n        /* \"#utility.yul\":37936:37939   */\n      dup3\n        /* \"#utility.yul\":37932:37944   */\n      add\n        /* \"#utility.yul\":37925:37944   */\n      swap1\n      pop\n        /* \"#utility.yul\":37584:37950   */\n      swap2\n      swap1\n      pop\n      jump\t// out\n        /* \"#utility.yul\":37956:38375   */\n    tag_312:\n        /* \"#utility.yul\":38122:38126   */\n      0x00\n        /* \"#utility.yul\":38160:38162   */\n      0x20\n        /* \"#utility.yul\":38149:38158   */\n      dup3\n        /* \"#utility.yul\":38145:38163   */\n      add\n        /* \"#utility.yul\":38137:38163   */\n      swap1\n      pop\n        /* \"#utility.yul\":38209:38218   */\n      dup2\n        /* \"#utility.yul\":38203:38207   */\n      dup2\n        /* \"#utility.yul\":38199:38219   */\n      sub\n        /* \"#utility.yul\":38195:38196   */\n      0x00\n        /* \"#utility.yul\":38184:38193   */\n      dup4\n        /* \"#utility.yul\":38180:38197   */\n      add\n        /* \"#utility.yul\":38173:38220   */\n      mstore\n        /* \"#utility.yul\":38237:38368   */\n      tag_805\n        /* \"#utility.yul\":38363:38367   */\n      dup2\n        /* \"#utility.yul\":38237:38368   */\n      tag_451\n      jump\t// in\n    tag_805:\n        /* \"#utility.yul\":38229:38368   */\n      swap1\n      pop\n        /* \"#utility.yul\":37956:38375   */\n      swap2\n      swap1\n      pop\n      jump\t// out\n        /* \"#utility.yul\":38381:38549   */\n    tag_452:\n        /* \"#utility.yul\":38521:38541   */\n      0x5065746974696f6e2068617320656e6465640000000000000000000000000000\n        /* \"#utility.yul\":38517:38518   */\n      0x00\n        /* \"#utility.yul\":38509:38515   */\n      dup3\n        /* \"#utility.yul\":38505:38519   */\n      add\n        /* \"#utility.yul\":38498:38542   */\n      mstore\n        /* \"#utility.yul\":38381:38549   */\n      pop\n      jump\t// out\n        /* \"#utility.yul\":38555:38921   */\n    tag_453:\n        /* \"#utility.yul\":38697:38700   */\n      0x00\n        /* \"#utility.yul\":38718:38785   */\n      tag_808\n        /* \"#utility.yul\":38782:38784   */\n      0x12\n        /* \"#utility.yul\":38777:38780   */\n      dup4\n        /* \"#utility.yul\":38718:38785   */\n      tag_390\n      jump\t// in\n    tag_808:\n        /* \"#utility.yul\":38711:38785   */\n      swap2\n      pop\n        /* \"#utility.yul\":38794:38887   */\n      tag_809\n        /* \"#utility.yul\":38883:38886   */\n      dup3\n        /* \"#utility.yul\":38794:38887   */\n      tag_452\n      jump\t// in\n    tag_809:\n        /* \"#utility.yul\":38912:38914   */\n      0x20\n        /* \"#utility.yul\":38907:38910   */\n      dup3\n        /* \"#utility.yul\":38903:38915   */\n      add\n        /* \"#utility.yul\":38896:38915   */\n      swap1\n      pop\n        /* \"#utility.yul\":38555:38921   */\n      swap2\n      swap1\n      pop\n      jump\t// out\n        /* \"#utility.yul\":38927:39346   */\n    tag_315:\n        /* \"#utility.yul\":39093:39097   */\n      0x00\n        /* \"#utility.yul\":39131:39133   */\n      0x20\n        /* \"#utility.yul\":39120:39129   */\n      dup3\n        /* \"#utility.yul\":39116:39134   */\n      add\n        /* \"#utility.yul\":39108:39134   */\n      swap1\n      pop\n        /* \"#utility.yul\":39180:39189   */\n      dup2\n        /* \"#utility.yul\":39174:39178   */\n      dup2\n        /* \"#utility.yul\":39170:39190   */\n      sub\n        /* \"#utility.yul\":39166:39167   */\n      0x00\n        /* \"#utility.yul\":39155:39164   */\n      dup4\n        /* \"#utility.yul\":39151:39168   */\n      add\n        /* \"#utility.yul\":39144:39191   */\n      mstore\n        /* \"#utility.yul\":39208:39339   */\n      tag_811\n        /* \"#utility.yul\":39334:39338   */\n      dup2\n        /* \"#utility.yul\":39208:39339   */\n      tag_453\n      jump\t// in\n    tag_811:\n        /* \"#utility.yul\":39200:39339   */\n      swap1\n      pop\n        /* \"#utility.yul\":38927:39346   */\n      swap2\n      swap1\n      pop\n      jump\t// out\n        /* \"#utility.yul\":39352:39516   */\n    tag_454:\n        /* \"#utility.yul\":39492:39508   */\n      0x416c7265616479207369676e6564000000000000000000000000000000000000\n        /* \"#utility.yul\":39488:39489   */\n      0x00\n        /* \"#utility.yul\":39480:39486   */\n      dup3\n        /* \"#utility.yul\":39476:39490   */\n      add\n        /* \"#utility.yul\":39469:39509   */\n      mstore\n        /* \"#utility.yul\":39352:39516   */\n      pop\n      jump\t// out\n        /* \"#utility.yul\":39522:39888   */\n    tag_455:\n        /* \"#utility.yul\":39664:39667   */\n      0x00\n        /* \"#utility.yul\":39685:39752   */\n      tag_814\n        /* \"#utility.yul\":39749:39751   */\n      0x0e\n        /* \"#utility.yul\":39744:39747   */\n      dup4\n        /* \"#utility.yul\":39685:39752   */\n      tag_390\n      jump\t// in\n    tag_814:\n        /* \"#utility.yul\":39678:39752   */\n      swap2\n      pop\n        /* \"#utility.yul\":39761:39854   */\n      tag_815\n        /* \"#utility.yul\":39850:39853   */\n      dup3\n        /* \"#utility.yul\":39761:39854   */\n      tag_454\n      jump\t// in\n    tag_815:\n        /* \"#utility.yul\":39879:39881   */\n      0x20\n        /* \"#utility.yul\":39874:39877   */\n      dup3\n        /* \"#utility.yul\":39870:39882   */\n      add\n        /* \"#utility.yul\":39863:39882   */\n      swap1\n      pop\n        /* \"#utility.yul\":39522:39888   */\n      swap2\n      swap1\n      pop\n      jump\t// out\n        /* \"#utility.yul\":39894:40313   */\n    tag_318:\n        /* \"#utility.yul\":40060:40064   */\n      0x00\n        /* \"#utility.yul\":40098:40100   */\n      0x20\n        /* \"#utility.yul\":40087:40096   */\n      dup3\n        /* \"#utility.yul\":40083:40101   */\n      add\n        /* \"#utility.yul\":40075:40101   */\n      swap1\n      pop\n        /* \"#utility.yul\":40147:40156   */\n      dup2\n        /* \"#utility.yul\":40141:40145   */\n      dup2\n        /* \"#utility.yul\":40137:40157   */\n      sub\n        /* \"#utility.yul\":40133:40134   */\n      0x00\n        /* \"#utility.yul\":40122:40131   */\n      dup4\n        /* \"#utility.yul\":40118:40135   */\n      add\n        /* \"#utility.yul\":40111:40158   */\n      mstore\n        /* \"#utility.yul\":40175:40306   */\n      tag_817\n        /* \"#utility.yul\":40301:40305   */\n      dup2\n        /* \"#utility.yul\":40175:40306   */\n      tag_455\n      jump\t// in\n    tag_817:\n        /* \"#utility.yul\":40167:40306   */\n      swap1\n      pop\n        /* \"#utility.yul\":39894:40313   */\n      swap2\n      swap1\n      pop\n      jump\t// out\n        /* \"#utility.yul\":40319:40513   */\n    tag_324:\n        /* \"#utility.yul\":40359:40363   */\n      0x00\n        /* \"#utility.yul\":40379:40399   */\n      tag_819\n        /* \"#utility.yul\":40397:40398   */\n      dup3\n        /* \"#utility.yul\":40379:40399   */\n      tag_365\n      jump\t// in\n    tag_819:\n        /* \"#utility.yul\":40374:40399   */\n      swap2\n      pop\n        /* \"#utility.yul\":40413:40433   */\n      tag_820\n        /* \"#utility.yul\":40431:40432   */\n      dup4\n        /* \"#utility.yul\":40413:40433   */\n      tag_365\n      jump\t// in\n    tag_820:\n        /* \"#utility.yul\":40408:40433   */\n      swap3\n      pop\n        /* \"#utility.yul\":40457:40458   */\n      dup3\n        /* \"#utility.yul\":40454:40455   */\n      dup3\n        /* \"#utility.yul\":40450:40459   */\n      sub\n        /* \"#utility.yul\":40442:40459   */\n      swap1\n      pop\n        /* \"#utility.yul\":40481:40482   */\n      dup2\n        /* \"#utility.yul\":40475:40479   */\n      dup2\n        /* \"#utility.yul\":40472:40483   */\n      gt\n        /* \"#utility.yul\":40469:40506   */\n      iszero\n      tag_821\n      jumpi\n        /* \"#utility.yul\":40486:40504   */\n      tag_822\n      tag_422\n      jump\t// in\n    tag_822:\n        /* \"#utility.yul\":40469:40506   */\n    tag_821:\n        /* \"#utility.yul\":40319:40513   */\n      swap3\n      swap2\n      pop\n      pop\n      jump\t// out\n        /* \"#utility.yul\":40519:40683   */\n    tag_456:\n        /* \"#utility.yul\":40659:40675   */\n      0x4e6f7420617574686f72697a6564000000000000000000000000000000000000\n        /* \"#utility.yul\":40655:40656   */\n      0x00\n        /* \"#utility.yul\":40647:40653   */\n      dup3\n        /* \"#utility.yul\":40643:40657   */\n      add\n        /* \"#utility.yul\":40636:40676   */\n      mstore\n        /* \"#utility.yul\":40519:40683   */\n      pop\n      jump\t// out\n        /* \"#utility.yul\":40689:41055   */\n    tag_457:\n        /* \"#utility.yul\":40831:40834   */\n      0x00\n        /* \"#utility.yul\":40852:40919   */\n      tag_825\n        /* \"#utility.yul\":40916:40918   */\n      0x0e\n        /* \"#utility.yul\":40911:40914   */\n      dup4\n        /* \"#utility.yul\":40852:40919   */\n      tag_390\n      jump\t// in\n    tag_825:\n        /* \"#utility.yul\":40845:40919   */\n      swap2\n      pop\n        /* \"#utility.yul\":40928:41021   */\n      tag_826\n        /* \"#utility.yul\":41017:41020   */\n      dup3\n        /* \"#utility.yul\":40928:41021   */\n      tag_456\n      jump\t// in\n    tag_826:\n        /* \"#utility.yul\":41046:41048   */\n      0x20\n        /* \"#utility.yul\":41041:41044   */\n      dup3\n        /* \"#utility.yul\":41037:41049   */\n      add\n        /* \"#utility.yul\":41030:41049   */\n      swap1\n      pop\n        /* \"#utility.yul\":40689:41055   */\n      swap2\n      swap1\n      pop\n      jump\t// out\n        /* \"#utility.yul\":41061:41480   */\n    tag_341:\n        /* \"#utility.yul\":41227:41231   */\n      0x00\n        /* \"#utility.yul\":41265:41267   */\n      0x20\n        /* \"#utility.yul\":41254:41263   */\n      dup3\n        /* \"#utility.yul\":41250:41268   */\n      add\n        /* \"#utility.yul\":41242:41268   */\n      swap1\n      pop\n        /* \"#utility.yul\":41314:41323   */\n      dup2\n        /* \"#utility.yul\":41308:41312   */\n      dup2\n        /* \"#utility.yul\":41304:41324   */\n      sub\n        /* \"#utility.yul\":41300:41301   */\n      0x00\n        /* \"#utility.yul\":41289:41298   */\n      dup4\n        /* \"#utility.yul\":41285:41302   */\n      add\n        /* \"#utility.yul\":41278:41325   */\n      mstore\n        /* \"#utility.yul\":41342:41473   */\n      tag_828\n        /* \"#utility.yul\":41468:41472   */\n      dup2\n        /* \"#utility.yul\":41342:41473   */\n      tag_457\n      jump\t// in\n    tag_828:\n        /* \"#utility.yul\":41334:41473   */\n      swap1\n      pop\n        /* \"#utility.yul\":41061:41480   */\n      swap2\n      swap1\n      pop\n      jump\t// out\n        /* \"#utility.yul\":41486:41650   */\n    tag_458:\n        /* \"#utility.yul\":41626:41642   */\n      0x416c726561647920636c6f736564000000000000000000000000000000000000\n        /* \"#utility.yul\":41622:41623   */\n      0x00\n        /* \"#utility.yul\":41614:41620   */\n      dup3\n        /* \"#utility.yul\":41610:41624   */\n      add\n        /* \"#utility.yul\":41603:41643   */\n      mstore\n        /* \"#utility.yul\":41486:41650   */\n      pop\n      jump\t// out\n        /* \"#utility.yul\":41656:42022   */\n    tag_459:\n        /* \"#utility.yul\":41798:41801   */\n      0x00\n        /* \"#utility.yul\":41819:41886   */\n      tag_831\n        /* \"#utility.yul\":41883:41885   */\n      0x0e\n        /* \"#utility.yul\":41878:41881   */\n      dup4\n        /* \"#utility.yul\":41819:41886   */\n      tag_390\n      jump\t// in\n    tag_831:\n        /* \"#utility.yul\":41812:41886   */\n      swap2\n      pop\n        /* \"#utility.yul\":41895:41988   */\n      tag_832\n        /* \"#utility.yul\":41984:41987   */\n      dup3\n        /* \"#utility.yul\":41895:41988   */\n      tag_458\n      jump\t// in\n    tag_832:\n        /* \"#utility.yul\":42013:42015   */\n      0x20\n        /* \"#utility.yul\":42008:42011   */\n      dup3\n        /* \"#utility.yul\":42004:42016   */\n      add\n        /* \"#utility.yul\":41997:42016   */\n      swap1\n      pop\n        /* \"#utility.yul\":41656:42022   */\n      swap2\n      swap1\n      pop\n      jump\t// out\n        /* \"#utility.yul\":42028:42447   */\n    tag_344:\n        /* \"#utility.yul\":42194:42198   */\n      0x00\n        /* \"#utility.yul\":42232:42234   */\n      0x20\n        /* \"#utility.yul\":42221:42230   */\n      dup3\n        /* \"#utility.yul\":42217:42235   */\n      add\n        /* \"#utility.yul\":42209:42235   */\n      swap1\n      pop\n        /* \"#utility.yul\":42281:42290   */\n      dup2\n        /* \"#utility.yul\":42275:42279   */\n      dup2\n        /* \"#utility.yul\":42271:42291   */\n      sub\n        /* \"#utility.yul\":42267:42268   */\n      0x00\n        /* \"#utility.yul\":42256:42265   */\n      dup4\n        /* \"#utility.yul\":42252:42269   */\n      add\n        /* \"#utility.yul\":42245:42292   */\n      mstore\n        /* \"#utility.yul\":42309:42440   */\n      tag_834\n        /* \"#utility.yul\":42435:42439   */\n      dup2\n        /* \"#utility.yul\":42309:42440   */\n      tag_459\n      jump\t// in\n    tag_834:\n        /* \"#utility.yul\":42301:42440   */\n      swap1\n      pop\n        /* \"#utility.yul\":42028:42447   */\n      swap2\n      swap1\n      pop\n      jump\t// out\n\n    auxdata: 0xa26469706673582212202f32ec2e8245a6885faa02fc030954ec0aa6090d045bea74b1154c94de1d085e64736f6c634300081e0033\n}\n",
				"bytecode": {
					"linkReferences": {},
					"object": "608060405266071afd498d00006005556007600655660110d9316ec00060075560056008556007600955348015610034575f5ffd5b506040516137c93803806137c983398181016040528101906100569190610360565b335f73ffffffffffffffffffffffffffffffffffffffff168173ffffffffffffffffffffffffffffffffffffffff16036100c7575f6040517f1e4fbdf70000000000000000000000000000000000000000000000000000000081526004016100be91906103ad565b60405180910390fd5b6100d68161024160201b60201c565b50600180819055505f73ffffffffffffffffffffffffffffffffffffffff168273ffffffffffffffffffffffffffffffffffffffff160361014c576040517f08c379a000000000000000000000000000000000000000000000000000000000815260040161014390610420565b60405180910390fd5b5f73ffffffffffffffffffffffffffffffffffffffff168173ffffffffffffffffffffffffffffffffffffffff16036101ba576040517f08c379a00000000000000000000000000000000000000000000000000000000081526004016101b190610488565b60405180910390fd5b8160025f6101000a81548173ffffffffffffffffffffffffffffffffffffffff021916908373ffffffffffffffffffffffffffffffffffffffff1602179055508060035f6101000a81548173ffffffffffffffffffffffffffffffffffffffff021916908373ffffffffffffffffffffffffffffffffffffffff16021790555050506104a6565b5f5f5f9054906101000a900473ffffffffffffffffffffffffffffffffffffffff169050815f5f6101000a81548173ffffffffffffffffffffffffffffffffffffffff021916908373ffffffffffffffffffffffffffffffffffffffff1602179055508173ffffffffffffffffffffffffffffffffffffffff168173ffffffffffffffffffffffffffffffffffffffff167f8be0079c531659141344cd1fd0a4f28419497f9722a3daafe3b4186f6b6457e060405160405180910390a35050565b5f5ffd5b5f73ffffffffffffffffffffffffffffffffffffffff82169050919050565b5f61032f82610306565b9050919050565b61033f81610325565b8114610349575f5ffd5b50565b5f8151905061035a81610336565b92915050565b5f5f6040838503121561037657610375610302565b5b5f6103838582860161034c565b92505060206103948582860161034c565b9150509250929050565b6103a781610325565b82525050565b5f6020820190506103c05f83018461039e565b92915050565b5f82825260208201905092915050565b7f496e76616c69642044414f2061646472657373000000000000000000000000005f82015250565b5f61040a6013836103c6565b9150610415826103d6565b602082019050919050565b5f6020820190508181035f830152610437816103fe565b9050919050565b7f496e76616c696420746f6b656e206164647265737300000000000000000000005f82015250565b5f6104726015836103c6565b915061047d8261043e565b602082019050919050565b5f6020820190508181035f83015261049f81610466565b9050919050565b613316806104b35f395ff3fe60806040526004361061019b575f3560e01c806372fa1301116100eb578063dcad018011610089578063eda272ba11610063578063eda272ba1461059f578063f2fde38b146105c9578063f345a997146105f1578063f99972ef146106195761019b565b8063dcad0180146104ff578063e55827f314610527578063eb74d835146105635761019b565b80639089c4a5116100c55780639089c4a514610459578063adbcd1fc14610483578063bc78eb8b146104ab578063cd3106ae146104d55761019b565b806372fa1301146103db57806378e18d35146104055780638da5cb5b1461042f5761019b565b80633ad50ded1161015857806368bdd33a1161013257806368bdd33a146103255780636b4acbe01461034d578063709df8d914610389578063715018a6146103c55761019b565b80633ad50ded146102a05780633ccfd60b146102e55780635ea4d29c146102fb5761019b565b80630c90ce421461019f5780631f677b0f146101db57806324f83736146101f7578063282430bc1461021f5780632fb3352814610249578063374f6d5d14610273575b5f5ffd5b3480156101aa575f5ffd5b506101c560048036038101906101c09190611ed4565b610655565b6040516101d291906120bc565b60405180910390f35b6101f560048036038101906101f09190612208565b610915565b005b348015610202575f5ffd5b5061021d600480360381019061021891906122c0565b61114c565b005b34801561022a575f5ffd5b506102336111eb565b604051610240919061231f565b60405180910390f35b348015610254575f5ffd5b5061025d6111f1565b60405161026a919061231f565b60405180910390f35b34801561027e575f5ffd5b506102876111f7565b6040516102979493929190612338565b60405180910390f35b3480156102ab575f5ffd5b506102c660048036038101906102c19190611ed4565b611215565b6040516102dc9a999897969594939291906123e1565b60405180910390f35b3480156102f0575f5ffd5b506102f9611422565b005b348015610306575f5ffd5b5061030f6114be565b60405161031c919061231f565b60405180910390f35b348015610330575f5ffd5b5061034b60048036038101906103469190611ed4565b6114c4565b005b348015610358575f5ffd5b50610373600480360381019061036e91906124ba565b611518565b604051610380919061231f565b60405180910390f35b348015610394575f5ffd5b506103af60048036038101906103aa91906124e5565b61155e565b6040516103bc9190612523565b60405180910390f35b3480156103d0575f5ffd5b506103d9611588565b005b3480156103e6575f5ffd5b506103ef61159b565b6040516103fc919061231f565b60405180910390f35b348015610410575f5ffd5b506104196115a4565b604051610426919061253c565b60405180910390f35b34801561043a575f5ffd5b506104436115c9565b604051610450919061253c565b60405180910390f35b348015610464575f5ffd5b5061046d6115f0565b60405161047a919061253c565b60405180910390f35b34801561048e575f5ffd5b506104a960048036038101906104a49190611ed4565b611615565b005b3480156104b6575f5ffd5b506104bf611677565b6040516104cc919061231f565b60405180910390f35b3480156104e0575f5ffd5b506104e961167d565b6040516104f6919061231f565b60405180910390f35b34801561050a575f5ffd5b5061052560048036038101906105209190611ed4565b611683565b005b348015610532575f5ffd5b5061054d60048036038101906105489190611ed4565b6118df565b60405161055a919061231f565b60405180910390f35b34801561056e575f5ffd5b50610589600480360381019061058491906124e5565b611928565b6040516105969190612523565b60405180910390f35b3480156105aa575f5ffd5b506105b361198a565b6040516105c0919061231f565b60405180910390f35b3480156105d4575f5ffd5b506105ef60048036038101906105ea91906124ba565b611990565b005b3480156105fc575f5ffd5b5061061760048036038101906106129190611ed4565b611a14565b005b348015610624575f5ffd5b5061063f600480360381019061063a91906124ba565b611bd6565b60405161064c919061231f565b60405180910390f35b61065d611e2c565b60045482106106a1576040517f08c379a00000000000000000000000000000000000000000000000000000000081526004016106989061259f565b60405180910390fd5b600a5f8381526020019081526020015f20604051806101400160405290815f82015481526020016001820180546106d7906125ea565b80601f0160208091040260200160405190810160405280929190818152602001828054610703906125ea565b801561074e5780601f106107255761010080835404028352916020019161074e565b820191905f5260205f20905b81548152906001019060200180831161073157829003601f168201915b50505050508152602001600282018054610767906125ea565b80601f0160208091040260200160405190810160405280929190818152602001828054610793906125ea565b80156107de5780601f106107b5576101008083540402835291602001916107de565b820191905f5260205f20905b8154815290600101906020018083116107c157829003601f168201915b505050505081526020016003820180546107f7906125ea565b80601f0160208091040260200160405190810160405280929190818152602001828054610823906125ea565b801561086e5780601f106108455761010080835404028352916020019161086e565b820191905f5260205f20905b81548152906001019060200180831161085157829003601f168201915b50505050508152602001600482015f9054906101000a900473ffffffffffffffffffffffffffffffffffffffff1673ffffffffffffffffffffffffffffffffffffffff1673ffffffffffffffffffffffffffffffffffffffff168152602001600582015481526020016006820154815260200160078201548152602001600882015f9054906101000a900460ff161515151581526020016009820154815250509050919050565b61091d611beb565b61092633611c31565b610965576040517f08c379a000000000000000000000000000000000000000000000000000000000815260040161095c90612664565b60405180910390fd5b5f8451116109a8576040517f08c379a000000000000000000000000000000000000000000000000000000000815260040161099f906126cc565b60405180910390fd5b5f8351116109eb576040517f08c379a00000000000000000000000000000000000000000000000000000000081526004016109e290612734565b60405180910390fd5b5f825111610a2e576040517f08c379a0000000000000000000000000000000000000000000000000000000008152600401610a259061279c565b60405180910390fd5b5f81118015610a3f575061016d8111155b610a7e576040517f08c379a0000000000000000000000000000000000000000000000000000000008152600401610a7590612804565b60405180910390fd5b5f5f90505f5f90505f60035f9054906101000a900473ffffffffffffffffffffffffffffffffffffffff1673ffffffffffffffffffffffffffffffffffffffff166370a08231336040518263ffffffff1660e01b8152600401610ae1919061253c565b602060405180830381865afa158015610afc573d5f5f3e3d5ffd5b505050506040513d601f19601f82011682018060405250810190610b209190612836565b9050670de0b6b3a76400008110158015610b3c57506009548411155b15610cab575f60035f9054906101000a900473ffffffffffffffffffffffffffffffffffffffff1673ffffffffffffffffffffffffffffffffffffffff1633670de0b6b3a7640000604051602401610b959291906128b6565b6040516020818303038152906040527f79cc6790000000000000000000000000000000000000000000000000000000007bffffffffffffffffffffffffffffffffffffffffffffffffffffffff19166020820180517bffffffffffffffffffffffffffffffffffffffffffffffffffffffff8381831617835250505050604051610c1f9190612921565b5f604051808303815f865af19150503d805f8114610c58576040519150601f19603f3d011682016040523d82523d5f602084013e610c5d565b606091505b5050905080610ca1576040517f08c379a0000000000000000000000000000000000000000000000000000000008152600401610c9890612981565b60405180910390fd5b6001935050610f5a565b5f610cb5856118df565b905080341015610cfa576040517f08c379a0000000000000000000000000000000000000000000000000000000008152600401610cf1906129e9565b60405180910390fd5b809250600b5f3373ffffffffffffffffffffffffffffffffffffffff1673ffffffffffffffffffffffffffffffffffffffff1681526020019081526020015f205f815480929190610d4a90612a34565b91905055505f600854600b5f3373ffffffffffffffffffffffffffffffffffffffff1673ffffffffffffffffffffffffffffffffffffffff1681526020019081526020015f2054610d9b9190612aa8565b03610f58575f60035f9054906101000a900473ffffffffffffffffffffffffffffffffffffffff1673ffffffffffffffffffffffffffffffffffffffff1633670de0b6b3a7640000604051602401610df49291906128b6565b6040516020818303038152906040527f40c10f19000000000000000000000000000000000000000000000000000000007bffffffffffffffffffffffffffffffffffffffffffffffffffffffff19166020820180517bffffffffffffffffffffffffffffffffffffffffffffffffffffffff8381831617835250505050604051610e7e9190612921565b5f604051808303815f865af19150503d805f8114610eb7576040519150601f19603f3d011682016040523d82523d5f602084013e610ebc565b606091505b5050905080610f00576040517f08c379a0000000000000000000000000000000000000000000000000000000008152600401610ef790612b22565b60405180910390fd5b3373ffffffffffffffffffffffffffffffffffffffff167f851805430b76795c7338d40d064eb68ff06ea87e8e9518986018edb9f5590252670de0b6b3a7640000604051610f4e9190612b70565b60405180910390a2505b505b5f600454905060045f815480929190610f7290612a34565b91905055505f6201518086610f879190612b89565b42610f929190612bca565b90506040518061014001604052808381526020018a81526020018981526020018881526020013373ffffffffffffffffffffffffffffffffffffffff1681526020014281526020018281526020015f815260200160011515815260200187815250600a5f8481526020019081526020015f205f820151815f015560208201518160010190816110219190612d94565b5060408201518160020190816110379190612d94565b50606082015181600301908161104d9190612d94565b506080820151816004015f6101000a81548173ffffffffffffffffffffffffffffffffffffffff021916908373ffffffffffffffffffffffffffffffffffffffff16021790555060a0820151816005015560c0820151816006015560e08201518160070155610100820151816008015f6101000a81548160ff02191690831515021790555061012082015181600901559050503373ffffffffffffffffffffffffffffffffffffffff16827fb3bb0593bb4a169316521e45ede0c9ede7407f31146da415f2df9c1f7f4c20bf8b8a858b8b8b60405161113196959493929190612e63565b60405180910390a35050505050611146611cd4565b50505050565b611154611cdd565b5f8211611196576040517f08c379a000000000000000000000000000000000000000000000000000000000815260040161118d90612f1a565b60405180910390fd5b8260058190555081600681905550806007819055507fc5118f6134a4806c2ad08c52279630a3718992a295074ace47295eeb4a95a4fb8383836040516111de93929190612f38565b60405180910390a1505050565b60065481565b60045481565b5f5f5f5f600554600654600754600954935093509350935090919293565b600a602052805f5260405f205f91509050805f01549080600101805461123a906125ea565b80601f0160208091040260200160405190810160405280929190818152602001828054611266906125ea565b80156112b15780601f10611288576101008083540402835291602001916112b1565b820191905f5260205f20905b81548152906001019060200180831161129457829003601f168201915b5050505050908060020180546112c6906125ea565b80601f01602080910402602001604051908101604052809291908181526020018280546112f2906125ea565b801561133d5780601f106113145761010080835404028352916020019161133d565b820191905f5260205f20905b81548152906001019060200180831161132057829003601f168201915b505050505090806003018054611352906125ea565b80601f016020809104026020016040519081016040528092919081815260200182805461137e906125ea565b80156113c95780601f106113a0576101008083540402835291602001916113c9565b820191905f5260205f20905b8154815290600101906020018083116113ac57829003601f168201915b505050505090806004015f9054906101000a900473ffffffffffffffffffffffffffffffffffffffff1690806005015490806006015490806007015490806008015f9054906101000a900460ff1690806009015490508a565b61142a611cdd565b5f4790505f8111611470576040517f08c379a000000000000000000000000000000000000000000000000000000000815260040161146790612fb7565b60405180910390fd5b6114786115c9565b73ffffffffffffffffffffffffffffffffffffffff166108fc8290811502906040515f60405180830381858888f193505050501580156114ba573d5f5f3e3d5ffd5b5050565b60085481565b6114cc611cdd565b5f811161150e576040517f08c379a00000000000000000000000000000000000000000000000000000000081526004016115059061301f565b60405180910390fd5b8060088190555050565b5f600b5f8373ffffffffffffffffffffffffffffffffffffffff1673ffffffffffffffffffffffffffffffffffffffff1681526020019081526020015f20549050919050565b600c602052815f5260405f20602052805f5260405f205f915091509054906101000a900460ff1681565b611590611cdd565b6115995f611d64565b565b5f600454905090565b60025f9054906101000a900473ffffffffffffffffffffffffffffffffffffffff1681565b5f5f5f9054906101000a900473ffffffffffffffffffffffffffffffffffffffff16905090565b60035f9054906101000a900473ffffffffffffffffffffffffffffffffffffffff1681565b61161d611cdd565b5f8111801561162e575061016d8111155b61166d576040517f08c379a000000000000000000000000000000000000000000000000000000000815260040161166490613087565b60405180910390fd5b8060098190555050565b60095481565b60055481565b60045481106116c7576040517f08c379a00000000000000000000000000000000000000000000000000000000081526004016116be9061259f565b60405180910390fd5b5f600a5f8381526020019081526020015f209050806008015f9054906101000a900460ff1661172b576040517f08c379a0000000000000000000000000000000000000000000000000000000008152600401611722906130ef565b60405180910390fd5b8060060154421115611772576040517f08c379a000000000000000000000000000000000000000000000000000000000815260040161176990613157565b60405180910390fd5b600c5f8381526020019081526020015f205f3373ffffffffffffffffffffffffffffffffffffffff1673ffffffffffffffffffffffffffffffffffffffff1681526020019081526020015f205f9054906101000a900460ff161561180b576040517f08c379a0000000000000000000000000000000000000000000000000000000008152600401611802906131bf565b60405180910390fd5b6001600c5f8481526020019081526020015f205f3373ffffffffffffffffffffffffffffffffffffffff1673ffffffffffffffffffffffffffffffffffffffff1681526020019081526020015f205f6101000a81548160ff021916908315150217905550806007015f81548092919061188390612a34565b91905055503373ffffffffffffffffffffffffffffffffffffffff16827fa504fa1a622895e43328023a9fa609eebec933d785df4e1b4f33c587d12d835d83600701546040516118d3919061231f565b60405180910390a35050565b5f60065482116118f3576005549050611923565b5f6006548361190291906131dd565b9050600754816119129190612b89565b60055461191f9190612bca565b9150505b919050565b5f600c5f8481526020019081526020015f205f8373ffffffffffffffffffffffffffffffffffffffff1673ffffffffffffffffffffffffffffffffffffffff1681526020019081526020015f205f9054906101000a900460ff16905092915050565b60075481565b611998611cdd565b5f73ffffffffffffffffffffffffffffffffffffffff168173ffffffffffffffffffffffffffffffffffffffff1603611a08575f6040517f1e4fbdf70000000000000000000000000000000000000000000000000000000081526004016119ff919061253c565b60405180910390fd5b611a1181611d64565b50565b6004548110611a58576040517f08c379a0000000000000000000000000000000000000000000000000000000008152600401611a4f9061259f565b60405180910390fd5b5f600a5f8381526020019081526020015f209050806004015f9054906101000a900473ffffffffffffffffffffffffffffffffffffffff1673ffffffffffffffffffffffffffffffffffffffff163373ffffffffffffffffffffffffffffffffffffffff161480611afb5750611acc6115c9565b73ffffffffffffffffffffffffffffffffffffffff163373ffffffffffffffffffffffffffffffffffffffff16145b611b3a576040517f08c379a0000000000000000000000000000000000000000000000000000000008152600401611b319061325a565b60405180910390fd5b806008015f9054906101000a900460ff16611b8a576040517f08c379a0000000000000000000000000000000000000000000000000000000008152600401611b81906132c2565b60405180910390fd5b5f816008015f6101000a81548160ff021916908315150217905550817f60f9b8db8de8d36d1b8b158b5929ed13941e7bc1dfbc4e720df073924161491b60405160405180910390a25050565b600b602052805f5260405f205f915090505481565b600260015403611c27576040517f3ee5aeb500000000000000000000000000000000000000000000000000000000815260040160405180910390fd5b6002600181905550565b5f5f60025f9054906101000a900473ffffffffffffffffffffffffffffffffffffffff1673ffffffffffffffffffffffffffffffffffffffff166370a08231846040518263ffffffff1660e01b8152600401611c8d919061253c565b602060405180830381865afa158015611ca8573d5f5f3e3d5ffd5b505050506040513d601f19601f82011682018060405250810190611ccc9190612836565b119050919050565b60018081905550565b611ce5611e25565b73ffffffffffffffffffffffffffffffffffffffff16611d036115c9565b73ffffffffffffffffffffffffffffffffffffffff1614611d6257611d26611e25565b6040517f118cdaa7000000000000000000000000000000000000000000000000000000008152600401611d59919061253c565b60405180910390fd5b565b5f5f5f9054906101000a900473ffffffffffffffffffffffffffffffffffffffff169050815f5f6101000a81548173ffffffffffffffffffffffffffffffffffffffff021916908373ffffffffffffffffffffffffffffffffffffffff1602179055508173ffffffffffffffffffffffffffffffffffffffff168173ffffffffffffffffffffffffffffffffffffffff167f8be0079c531659141344cd1fd0a4f28419497f9722a3daafe3b4186f6b6457e060405160405180910390a35050565b5f33905090565b6040518061014001604052805f81526020016060815260200160608152602001606081526020015f73ffffffffffffffffffffffffffffffffffffffff1681526020015f81526020015f81526020015f81526020015f151581526020015f81525090565b5f604051905090565b5f5ffd5b5f5ffd5b5f819050919050565b611eb381611ea1565b8114611ebd575f5ffd5b50565b5f81359050611ece81611eaa565b92915050565b5f60208284031215611ee957611ee8611e99565b5b5f611ef684828501611ec0565b91505092915050565b611f0881611ea1565b82525050565b5f81519050919050565b5f82825260208201905092915050565b8281835e5f83830152505050565b5f601f19601f8301169050919050565b5f611f5082611f0e565b611f5a8185611f18565b9350611f6a818560208601611f28565b611f7381611f36565b840191505092915050565b5f73ffffffffffffffffffffffffffffffffffffffff82169050919050565b5f611fa782611f7e565b9050919050565b611fb781611f9d565b82525050565b5f8115159050919050565b611fd181611fbd565b82525050565b5f61014083015f830151611fed5f860182611eff565b50602083015184820360208601526120058282611f46565b9150506040830151848203604086015261201f8282611f46565b915050606083015184820360608601526120398282611f46565b915050608083015161204e6080860182611fae565b5060a083015161206160a0860182611eff565b5060c083015161207460c0860182611eff565b5060e083015161208760e0860182611eff565b5061010083015161209c610100860182611fc8565b506101208301516120b1610120860182611eff565b508091505092915050565b5f6020820190508181035f8301526120d48184611fd7565b905092915050565b5f5ffd5b5f5ffd5b7f4e487b71000000000000000000000000000000000000000000000000000000005f52604160045260245ffd5b61211a82611f36565b810181811067ffffffffffffffff82111715612139576121386120e4565b5b80604052505050565b5f61214b611e90565b90506121578282612111565b919050565b5f67ffffffffffffffff821115612176576121756120e4565b5b61217f82611f36565b9050602081019050919050565b828183375f83830152505050565b5f6121ac6121a78461215c565b612142565b9050828152602081018484840111156121c8576121c76120e0565b5b6121d384828561218c565b509392505050565b5f82601f8301126121ef576121ee6120dc565b5b81356121ff84826020860161219a565b91505092915050565b5f5f5f5f608085870312156122205761221f611e99565b5b5f85013567ffffffffffffffff81111561223d5761223c611e9d565b5b612249878288016121db565b945050602085013567ffffffffffffffff81111561226a57612269611e9d565b5b612276878288016121db565b935050604085013567ffffffffffffffff81111561229757612296611e9d565b5b6122a3878288016121db565b92505060606122b487828801611ec0565b91505092959194509250565b5f5f5f606084860312156122d7576122d6611e99565b5b5f6122e486828701611ec0565b93505060206122f586828701611ec0565b925050604061230686828701611ec0565b9150509250925092565b61231981611ea1565b82525050565b5f6020820190506123325f830184612310565b92915050565b5f60808201905061234b5f830187612310565b6123586020830186612310565b6123656040830185612310565b6123726060830184612310565b95945050505050565b5f82825260208201905092915050565b5f61239582611f0e565b61239f818561237b565b93506123af818560208601611f28565b6123b881611f36565b840191505092915050565b6123cc81611f9d565b82525050565b6123db81611fbd565b82525050565b5f610140820190506123f55f83018d612310565b8181036020830152612407818c61238b565b9050818103604083015261241b818b61238b565b9050818103606083015261242f818a61238b565b905061243e60808301896123c3565b61244b60a0830188612310565b61245860c0830187612310565b61246560e0830186612310565b6124736101008301856123d2565b612481610120830184612310565b9b9a5050505050505050505050565b61249981611f9d565b81146124a3575f5ffd5b50565b5f813590506124b481612490565b92915050565b5f602082840312156124cf576124ce611e99565b5b5f6124dc848285016124a6565b91505092915050565b5f5f604083850312156124fb576124fa611e99565b5b5f61250885828601611ec0565b9250506020612519858286016124a6565b9150509250929050565b5f6020820190506125365f8301846123d2565b92915050565b5f60208201905061254f5f8301846123c3565b92915050565b7f5065746974696f6e20646f6573206e6f742065786973740000000000000000005f82015250565b5f61258960178361237b565b915061259482612555565b602082019050919050565b5f6020820190508181035f8301526125b68161257d565b9050919050565b7f4e487b71000000000000000000000000000000000000000000000000000000005f52602260045260245ffd5b5f600282049050600182168061260157607f821691505b602082108103612614576126136125bd565b5b50919050565b7f4e6f7420612044414f206d656d626572000000000000000000000000000000005f82015250565b5f61264e60108361237b565b91506126598261261a565b602082019050919050565b5f6020820190508181035f83015261267b81612642565b9050919050565b7f5469746c652063616e6e6f7420626520656d70747900000000000000000000005f82015250565b5f6126b660158361237b565b91506126c182612682565b602082019050919050565b5f6020820190508181035f8301526126e3816126aa565b9050919050565b7f4465736372697074696f6e2063616e6e6f7420626520656d70747900000000005f82015250565b5f61271e601b8361237b565b9150612729826126ea565b602082019050919050565b5f6020820190508181035f83015261274b81612712565b9050919050565b7f496d61676520686173682063616e6e6f7420626520656d7074790000000000005f82015250565b5f612786601a8361237b565b915061279182612752565b602082019050919050565b5f6020820190508181035f8301526127b38161277a565b9050919050565b7f4475726174696f6e206d75737420626520312d333635206461797300000000005f82015250565b5f6127ee601b8361237b565b91506127f9826127ba565b602082019050919050565b5f6020820190508181035f83015261281b816127e2565b9050919050565b5f8151905061283081611eaa565b92915050565b5f6020828403121561284b5761284a611e99565b5b5f61285884828501612822565b91505092915050565b5f819050919050565b5f67ffffffffffffffff82169050919050565b5f819050919050565b5f6128a061289b61289684612861565b61287d565b61286a565b9050919050565b6128b081612886565b82525050565b5f6040820190506128c95f8301856123c3565b6128d660208301846128a7565b9392505050565b5f81519050919050565b5f81905092915050565b5f6128fb826128dd565b61290581856128e7565b9350612915818560208601611f28565b80840191505092915050565b5f61292c82846128f1565b915081905092915050565b7f546f6b656e206275726e206661696c65640000000000000000000000000000005f82015250565b5f61296b60118361237b565b915061297682612937565b602082019050919050565b5f6020820190508181035f8301526129988161295f565b9050919050565b7f496e73756666696369656e7420666565000000000000000000000000000000005f82015250565b5f6129d360108361237b565b91506129de8261299f565b602082019050919050565b5f6020820190508181035f830152612a00816129c7565b9050919050565b7f4e487b71000000000000000000000000000000000000000000000000000000005f52601160045260245ffd5b5f612a3e82611ea1565b91507fffffffffffffffffffffffffffffffffffffffffffffffffffffffffffffffff8203612a7057612a6f612a07565b5b600182019050919050565b7f4e487b71000000000000000000000000000000000000000000000000000000005f52601260045260245ffd5b5f612ab282611ea1565b9150612abd83611ea1565b925082612acd57612acc612a7b565b5b828206905092915050565b7f546f6b656e206d696e74206661696c65640000000000000000000000000000005f82015250565b5f612b0c60118361237b565b9150612b1782612ad8565b602082019050919050565b5f6020820190508181035f830152612b3981612b00565b9050919050565b5f612b5a612b55612b5084612861565b61287d565b611ea1565b9050919050565b612b6a81612b40565b82525050565b5f602082019050612b835f830184612b61565b92915050565b5f612b9382611ea1565b9150612b9e83611ea1565b9250828202612bac81611ea1565b91508282048414831517612bc357612bc2612a07565b5b5092915050565b5f612bd482611ea1565b9150612bdf83611ea1565b9250828201905080821115612bf757612bf6612a07565b5b92915050565b5f819050815f5260205f209050919050565b5f6020601f8301049050919050565b5f82821b905092915050565b5f60088302612c597fffffffffffffffffffffffffffffffffffffffffffffffffffffffffffffffff82612c1e565b612c638683612c1e565b95508019841693508086168417925050509392505050565b5f612c95612c90612c8b84611ea1565b61287d565b611ea1565b9050919050565b5f819050919050565b612cae83612c7b565b612cc2612cba82612c9c565b848454612c2a565b825550505050565b5f5f905090565b612cd9612cca565b612ce4818484612ca5565b505050565b5b81811015612d0757612cfc5f82612cd1565b600181019050612cea565b5050565b601f821115612d4c57612d1d81612bfd565b612d2684612c0f565b81016020851015612d35578190505b612d49612d4185612c0f565b830182612ce9565b50505b505050565b5f82821c905092915050565b5f612d6c5f1984600802612d51565b1980831691505092915050565b5f612d848383612d5d565b9150826002028217905092915050565b612d9d82611f0e565b67ffffffffffffffff811115612db657612db56120e4565b5b612dc082546125ea565b612dcb828285612d0b565b5f60209050601f831160018114612dfc575f8415612dea578287015190505b612df48582612d79565b865550612e5b565b601f198416612e0a86612bfd565b5f5b82811015612e3157848901518255600182019150602085019450602081019050612e0c565b86831015612e4e5784890151612e4a601f891682612d5d565b8355505b6001600288020188555050505b505050505050565b5f60c0820190508181035f830152612e7b818961238b565b90508181036020830152612e8f818861238b565b9050612e9e6040830187612310565b612eab6060830186612310565b612eb860808301856123d2565b612ec560a0830184612310565b979650505050505050565b7f42617365206475726174696f6e206d757374206265203e2030000000000000005f82015250565b5f612f0460198361237b565b9150612f0f82612ed0565b602082019050919050565b5f6020820190508181035f830152612f3181612ef8565b9050919050565b5f606082019050612f4b5f830186612310565b612f586020830185612310565b612f656040830184612310565b949350505050565b7f4e6f2062616c616e636520746f207769746864726177000000000000000000005f82015250565b5f612fa160168361237b565b9150612fac82612f6d565b602082019050919050565b5f6020820190508181035f830152612fce81612f95565b9050919050565b7f496e76616c6964207468726573686f6c640000000000000000000000000000005f82015250565b5f61300960118361237b565b915061301482612fd5565b602082019050919050565b5f6020820190508181035f83015261303681612ffd565b9050919050565b7f496e76616c6964206475726174696f6e000000000000000000000000000000005f82015250565b5f61307160108361237b565b915061307c8261303d565b602082019050919050565b5f6020820190508181035f83015261309e81613065565b9050919050565b7f5065746974696f6e206973206e6f7420616374697665000000000000000000005f82015250565b5f6130d960168361237b565b91506130e4826130a5565b602082019050919050565b5f6020820190508181035f830152613106816130cd565b9050919050565b7f5065746974696f6e2068617320656e64656400000000000000000000000000005f82015250565b5f61314160128361237b565b915061314c8261310d565b602082019050919050565b5f6020820190508181035f83015261316e81613135565b9050919050565b7f416c7265616479207369676e65640000000000000000000000000000000000005f82015250565b5f6131a9600e8361237b565b91506131b482613175565b602082019050919050565b5f6020820190508181035f8301526131d68161319d565b9050919050565b5f6131e782611ea1565b91506131f283611ea1565b925082820390508181111561320a57613209612a07565b5b92915050565b7f4e6f7420617574686f72697a65640000000000000000000000000000000000005f82015250565b5f613244600e8361237b565b915061324f82613210565b602082019050919050565b5f6020820190508181035f83015261327181613238565b9050919050565b7f416c726561647920636c6f7365640000000000000000000000000000000000005f82015250565b5f6132ac600e8361237b565b91506132b782613278565b602082019050919050565b5f6020820190508181035f8301526132d9816132a0565b905091905056fea26469706673582212202f32ec2e8245a6885faa02fc030954ec0aa6090d045bea74b1154c94de1d085e64736f6c634300081e0033",
					"opcodes": "PUSH1 0x80 PUSH1 0x40 MSTORE PUSH7 0x71AFD498D0000 PUSH1 0x5 SSTORE PUSH1 0x7 PUSH1 0x6 SSTORE PUSH7 0x110D9316EC000 PUSH1 0x7 SSTORE PUSH1 0x5 PUSH1 0x8 SSTORE PUSH1 0x7 PUSH1 0x9 SSTORE CALLVALUE DUP1 ISZERO PUSH2 0x34 JUMPI PUSH0 PUSH0 REVERT JUMPDEST POP PUSH1 0x40 MLOAD PUSH2 0x37C9 CODESIZE SUB DUP1 PUSH2 0x37C9 DUP4 CODECOPY DUP2 DUP2 ADD PUSH1 0x40 MSTORE DUP2 ADD SWAP1 PUSH2 0x56 SWAP2 SWAP1 PUSH2 0x360 JUMP JUMPDEST CALLER PUSH0 PUSH20 0xFFFFFFFFFFFFFFFFFFFFFFFFFFFFFFFFFFFFFFFF AND DUP2 PUSH20 0xFFFFFFFFFFFFFFFFFFFFFFFFFFFFFFFFFFFFFFFF AND SUB PUSH2 0xC7 JUMPI PUSH0 PUSH1 0x40 MLOAD PUSH32 0x1E4FBDF700000000000000000000000000000000000000000000000000000000 DUP2 MSTORE PUSH1 0x4 ADD PUSH2 0xBE SWAP2 SWAP1 PUSH2 0x3AD JUMP JUMPDEST PUSH1 0x40 MLOAD DUP1 SWAP2 SUB SWAP1 REVERT JUMPDEST PUSH2 0xD6 DUP2 PUSH2 0x241 PUSH1 0x20 SHL PUSH1 0x20 SHR JUMP JUMPDEST POP PUSH1 0x1 DUP1 DUP2 SWAP1 SSTORE POP PUSH0 PUSH20 0xFFFFFFFFFFFFFFFFFFFFFFFFFFFFFFFFFFFFFFFF AND DUP3 PUSH20 0xFFFFFFFFFFFFFFFFFFFFFFFFFFFFFFFFFFFFFFFF AND SUB PUSH2 0x14C JUMPI PUSH1 0x40 MLOAD PUSH32 0x8C379A000000000000000000000000000000000000000000000000000000000 DUP2 MSTORE PUSH1 0x4 ADD PUSH2 0x143 SWAP1 PUSH2 0x420 JUMP JUMPDEST PUSH1 0x40 MLOAD DUP1 SWAP2 SUB SWAP1 REVERT JUMPDEST PUSH0 PUSH20 0xFFFFFFFFFFFFFFFFFFFFFFFFFFFFFFFFFFFFFFFF AND DUP2 PUSH20 0xFFFFFFFFFFFFFFFFFFFFFFFFFFFFFFFFFFFFFFFF AND SUB PUSH2 0x1BA JUMPI PUSH1 0x40 MLOAD PUSH32 0x8C379A000000000000000000000000000000000000000000000000000000000 DUP2 MSTORE PUSH1 0x4 ADD PUSH2 0x1B1 SWAP1 PUSH2 0x488 JUMP JUMPDEST PUSH1 0x40 MLOAD DUP1 SWAP2 SUB SWAP1 REVERT JUMPDEST DUP2 PUSH1 0x2 PUSH0 PUSH2 0x100 EXP DUP2 SLOAD DUP2 PUSH20 0xFFFFFFFFFFFFFFFFFFFFFFFFFFFFFFFFFFFFFFFF MUL NOT AND SWAP1 DUP4 PUSH20 0xFFFFFFFFFFFFFFFFFFFFFFFFFFFFFFFFFFFFFFFF AND MUL OR SWAP1 SSTORE POP DUP1 PUSH1 0x3 PUSH0 PUSH2 0x100 EXP DUP2 SLOAD DUP2 PUSH20 0xFFFFFFFFFFFFFFFFFFFFFFFFFFFFFFFFFFFFFFFF MUL NOT AND SWAP1 DUP4 PUSH20 0xFFFFFFFFFFFFFFFFFFFFFFFFFFFFFFFFFFFFFFFF AND MUL OR SWAP1 SSTORE POP POP POP PUSH2 0x4A6 JUMP JUMPDEST PUSH0 PUSH0 PUSH0 SWAP1 SLOAD SWAP1 PUSH2 0x100 EXP SWAP1 DIV PUSH20 0xFFFFFFFFFFFFFFFFFFFFFFFFFFFFFFFFFFFFFFFF AND SWAP1 POP DUP2 PUSH0 PUSH0 PUSH2 0x100 EXP DUP2 SLOAD DUP2 PUSH20 0xFFFFFFFFFFFFFFFFFFFFFFFFFFFFFFFFFFFFFFFF MUL NOT AND SWAP1 DUP4 PUSH20 0xFFFFFFFFFFFFFFFFFFFFFFFFFFFFFFFFFFFFFFFF AND MUL OR SWAP1 SSTORE POP DUP2 PUSH20 0xFFFFFFFFFFFFFFFFFFFFFFFFFFFFFFFFFFFFFFFF AND DUP2 PUSH20 0xFFFFFFFFFFFFFFFFFFFFFFFFFFFFFFFFFFFFFFFF AND PUSH32 0x8BE0079C531659141344CD1FD0A4F28419497F9722A3DAAFE3B4186F6B6457E0 PUSH1 0x40 MLOAD PUSH1 0x40 MLOAD DUP1 SWAP2 SUB SWAP1 LOG3 POP POP JUMP JUMPDEST PUSH0 PUSH0 REVERT JUMPDEST PUSH0 PUSH20 0xFFFFFFFFFFFFFFFFFFFFFFFFFFFFFFFFFFFFFFFF DUP3 AND SWAP1 POP SWAP2 SWAP1 POP JUMP JUMPDEST PUSH0 PUSH2 0x32F DUP3 PUSH2 0x306 JUMP JUMPDEST SWAP1 POP SWAP2 SWAP1 POP JUMP JUMPDEST PUSH2 0x33F DUP2 PUSH2 0x325 JUMP JUMPDEST DUP2 EQ PUSH2 0x349 JUMPI PUSH0 PUSH0 REVERT JUMPDEST POP JUMP JUMPDEST PUSH0 DUP2 MLOAD SWAP1 POP PUSH2 0x35A DUP2 PUSH2 0x336 JUMP JUMPDEST SWAP3 SWAP2 POP POP JUMP JUMPDEST PUSH0 PUSH0 PUSH1 0x40 DUP4 DUP6 SUB SLT ISZERO PUSH2 0x376 JUMPI PUSH2 0x375 PUSH2 0x302 JUMP JUMPDEST JUMPDEST PUSH0 PUSH2 0x383 DUP6 DUP3 DUP7 ADD PUSH2 0x34C JUMP JUMPDEST SWAP3 POP POP PUSH1 0x20 PUSH2 0x394 DUP6 DUP3 DUP7 ADD PUSH2 0x34C JUMP JUMPDEST SWAP2 POP POP SWAP3 POP SWAP3 SWAP1 POP JUMP JUMPDEST PUSH2 0x3A7 DUP2 PUSH2 0x325 JUMP JUMPDEST DUP3 MSTORE POP POP JUMP JUMPDEST PUSH0 PUSH1 0x20 DUP3 ADD SWAP1 POP PUSH2 0x3C0 PUSH0 DUP4 ADD DUP5 PUSH2 0x39E JUMP JUMPDEST SWAP3 SWAP2 POP POP JUMP JUMPDEST PUSH0 DUP3 DUP3 MSTORE PUSH1 0x20 DUP3 ADD SWAP1 POP SWAP3 SWAP2 POP POP JUMP JUMPDEST PUSH32 0x496E76616C69642044414F206164647265737300000000000000000000000000 PUSH0 DUP3 ADD MSTORE POP JUMP JUMPDEST PUSH0 PUSH2 0x40A PUSH1 0x13 DUP4 PUSH2 0x3C6 JUMP JUMPDEST SWAP2 POP PUSH2 0x415 DUP3 PUSH2 0x3D6 JUMP JUMPDEST PUSH1 0x20 DUP3 ADD SWAP1 POP SWAP2 SWAP1 POP JUMP JUMPDEST PUSH0 PUSH1 0x20 DUP3 ADD SWAP1 POP DUP2 DUP2 SUB PUSH0 DUP4 ADD MSTORE PUSH2 0x437 DUP2 PUSH2 0x3FE JUMP JUMPDEST SWAP1 POP SWAP2 SWAP1 POP JUMP JUMPDEST PUSH32 0x496E76616C696420746F6B656E20616464726573730000000000000000000000 PUSH0 DUP3 ADD MSTORE POP JUMP JUMPDEST PUSH0 PUSH2 0x472 PUSH1 0x15 DUP4 PUSH2 0x3C6 JUMP JUMPDEST SWAP2 POP PUSH2 0x47D DUP3 PUSH2 0x43E JUMP JUMPDEST PUSH1 0x20 DUP3 ADD SWAP1 POP SWAP2 SWAP1 POP JUMP JUMPDEST PUSH0 PUSH1 0x20 DUP3 ADD SWAP1 POP DUP2 DUP2 SUB PUSH0 DUP4 ADD MSTORE PUSH2 0x49F DUP2 PUSH2 0x466 JUMP JUMPDEST SWAP1 POP SWAP2 SWAP1 POP JUMP JUMPDEST PUSH2 0x3316 DUP1 PUSH2 0x4B3 PUSH0 CODECOPY PUSH0 RETURN INVALID PUSH1 0x80 PUSH1 0x40 MSTORE PUSH1 0x4 CALLDATASIZE LT PUSH2 0x19B JUMPI PUSH0 CALLDATALOAD PUSH1 0xE0 SHR DUP1 PUSH4 0x72FA1301 GT PUSH2 0xEB JUMPI DUP1 PUSH4 0xDCAD0180 GT PUSH2 0x89 JUMPI DUP1 PUSH4 0xEDA272BA GT PUSH2 0x63 JUMPI DUP1 PUSH4 0xEDA272BA EQ PUSH2 0x59F JUMPI DUP1 PUSH4 0xF2FDE38B EQ PUSH2 0x5C9 JUMPI DUP1 PUSH4 0xF345A997 EQ PUSH2 0x5F1 JUMPI DUP1 PUSH4 0xF99972EF EQ PUSH2 0x619 JUMPI PUSH2 0x19B JUMP JUMPDEST DUP1 PUSH4 0xDCAD0180 EQ PUSH2 0x4FF JUMPI DUP1 PUSH4 0xE55827F3 EQ PUSH2 0x527 JUMPI DUP1 PUSH4 0xEB74D835 EQ PUSH2 0x563 JUMPI PUSH2 0x19B JUMP JUMPDEST DUP1 PUSH4 0x9089C4A5 GT PUSH2 0xC5 JUMPI DUP1 PUSH4 0x9089C4A5 EQ PUSH2 0x459 JUMPI DUP1 PUSH4 0xADBCD1FC EQ PUSH2 0x483 JUMPI DUP1 PUSH4 0xBC78EB8B EQ PUSH2 0x4AB JUMPI DUP1 PUSH4 0xCD3106AE EQ PUSH2 0x4D5 JUMPI PUSH2 0x19B JUMP JUMPDEST DUP1 PUSH4 0x72FA1301 EQ PUSH2 0x3DB JUMPI DUP1 PUSH4 0x78E18D35 EQ PUSH2 0x405 JUMPI DUP1 PUSH4 0x8DA5CB5B EQ PUSH2 0x42F JUMPI PUSH2 0x19B JUMP JUMPDEST DUP1 PUSH4 0x3AD50DED GT PUSH2 0x158 JUMPI DUP1 PUSH4 0x68BDD33A GT PUSH2 0x132 JUMPI DUP1 PUSH4 0x68BDD33A EQ PUSH2 0x325 JUMPI DUP1 PUSH4 0x6B4ACBE0 EQ PUSH2 0x34D JUMPI DUP1 PUSH4 0x709DF8D9 EQ PUSH2 0x389 JUMPI DUP1 PUSH4 0x715018A6 EQ PUSH2 0x3C5 JUMPI PUSH2 0x19B JUMP JUMPDEST DUP1 PUSH4 0x3AD50DED EQ PUSH2 0x2A0 JUMPI DUP1 PUSH4 0x3CCFD60B EQ PUSH2 0x2E5 JUMPI DUP1 PUSH4 0x5EA4D29C EQ PUSH2 0x2FB JUMPI PUSH2 0x19B JUMP JUMPDEST DUP1 PUSH4 0xC90CE42 EQ PUSH2 0x19F JUMPI DUP1 PUSH4 0x1F677B0F EQ PUSH2 0x1DB JUMPI DUP1 PUSH4 0x24F83736 EQ PUSH2 0x1F7 JUMPI DUP1 PUSH4 0x282430BC EQ PUSH2 0x21F JUMPI DUP1 PUSH4 0x2FB33528 EQ PUSH2 0x249 JUMPI DUP1 PUSH4 0x374F6D5D EQ PUSH2 0x273 JUMPI JUMPDEST PUSH0 PUSH0 REVERT JUMPDEST CALLVALUE DUP1 ISZERO PUSH2 0x1AA JUMPI PUSH0 PUSH0 REVERT JUMPDEST POP PUSH2 0x1C5 PUSH1 0x4 DUP1 CALLDATASIZE SUB DUP2 ADD SWAP1 PUSH2 0x1C0 SWAP2 SWAP1 PUSH2 0x1ED4 JUMP JUMPDEST PUSH2 0x655 JUMP JUMPDEST PUSH1 0x40 MLOAD PUSH2 0x1D2 SWAP2 SWAP1 PUSH2 0x20BC JUMP JUMPDEST PUSH1 0x40 MLOAD DUP1 SWAP2 SUB SWAP1 RETURN JUMPDEST PUSH2 0x1F5 PUSH1 0x4 DUP1 CALLDATASIZE SUB DUP2 ADD SWAP1 PUSH2 0x1F0 SWAP2 SWAP1 PUSH2 0x2208 JUMP JUMPDEST PUSH2 0x915 JUMP JUMPDEST STOP JUMPDEST CALLVALUE DUP1 ISZERO PUSH2 0x202 JUMPI PUSH0 PUSH0 REVERT JUMPDEST POP PUSH2 0x21D PUSH1 0x4 DUP1 CALLDATASIZE SUB DUP2 ADD SWAP1 PUSH2 0x218 SWAP2 SWAP1 PUSH2 0x22C0 JUMP JUMPDEST PUSH2 0x114C JUMP JUMPDEST STOP JUMPDEST CALLVALUE DUP1 ISZERO PUSH2 0x22A JUMPI PUSH0 PUSH0 REVERT JUMPDEST POP PUSH2 0x233 PUSH2 0x11EB JUMP JUMPDEST PUSH1 0x40 MLOAD PUSH2 0x240 SWAP2 SWAP1 PUSH2 0x231F JUMP JUMPDEST PUSH1 0x40 MLOAD DUP1 SWAP2 SUB SWAP1 RETURN JUMPDEST CALLVALUE DUP1 ISZERO PUSH2 0x254 JUMPI PUSH0 PUSH0 REVERT JUMPDEST POP PUSH2 0x25D PUSH2 0x11F1 JUMP JUMPDEST PUSH1 0x40 MLOAD PUSH2 0x26A SWAP2 SWAP1 PUSH2 0x231F JUMP JUMPDEST PUSH1 0x40 MLOAD DUP1 SWAP2 SUB SWAP1 RETURN JUMPDEST CALLVALUE DUP1 ISZERO PUSH2 0x27E JUMPI PUSH0 PUSH0 REVERT JUMPDEST POP PUSH2 0x287 PUSH2 0x11F7 JUMP JUMPDEST PUSH1 0x40 MLOAD PUSH2 0x297 SWAP5 SWAP4 SWAP3 SWAP2 SWAP1 PUSH2 0x2338 JUMP JUMPDEST PUSH1 0x40 MLOAD DUP1 SWAP2 SUB SWAP1 RETURN JUMPDEST CALLVALUE DUP1 ISZERO PUSH2 0x2AB JUMPI PUSH0 PUSH0 REVERT JUMPDEST POP PUSH2 0x2C6 PUSH1 0x4 DUP1 CALLDATASIZE SUB DUP2 ADD SWAP1 PUSH2 0x2C1 SWAP2 SWAP1 PUSH2 0x1ED4 JUMP JUMPDEST PUSH2 0x1215 JUMP JUMPDEST PUSH1 0x40 MLOAD PUSH2 0x2DC SWAP11 SWAP10 SWAP9 SWAP8 SWAP7 SWAP6 SWAP5 SWAP4 SWAP3 SWAP2 SWAP1 PUSH2 0x23E1 JUMP JUMPDEST PUSH1 0x40 MLOAD DUP1 SWAP2 SUB SWAP1 RETURN JUMPDEST CALLVALUE DUP1 ISZERO PUSH2 0x2F0 JUMPI PUSH0 PUSH0 REVERT JUMPDEST POP PUSH2 0x2F9 PUSH2 0x1422 JUMP JUMPDEST STOP JUMPDEST CALLVALUE DUP1 ISZERO PUSH2 0x306 JUMPI PUSH0 PUSH0 REVERT JUMPDEST POP PUSH2 0x30F PUSH2 0x14BE JUMP JUMPDEST PUSH1 0x40 MLOAD PUSH2 0x31C SWAP2 SWAP1 PUSH2 0x231F JUMP JUMPDEST PUSH1 0x40 MLOAD DUP1 SWAP2 SUB SWAP1 RETURN JUMPDEST CALLVALUE DUP1 ISZERO PUSH2 0x330 JUMPI PUSH0 PUSH0 REVERT JUMPDEST POP PUSH2 0x34B PUSH1 0x4 DUP1 CALLDATASIZE SUB DUP2 ADD SWAP1 PUSH2 0x346 SWAP2 SWAP1 PUSH2 0x1ED4 JUMP JUMPDEST PUSH2 0x14C4 JUMP JUMPDEST STOP JUMPDEST CALLVALUE DUP1 ISZERO PUSH2 0x358 JUMPI PUSH0 PUSH0 REVERT JUMPDEST POP PUSH2 0x373 PUSH1 0x4 DUP1 CALLDATASIZE SUB DUP2 ADD SWAP1 PUSH2 0x36E SWAP2 SWAP1 PUSH2 0x24BA JUMP JUMPDEST PUSH2 0x1518 JUMP JUMPDEST PUSH1 0x40 MLOAD PUSH2 0x380 SWAP2 SWAP1 PUSH2 0x231F JUMP JUMPDEST PUSH1 0x40 MLOAD DUP1 SWAP2 SUB SWAP1 RETURN JUMPDEST CALLVALUE DUP1 ISZERO PUSH2 0x394 JUMPI PUSH0 PUSH0 REVERT JUMPDEST POP PUSH2 0x3AF PUSH1 0x4 DUP1 CALLDATASIZE SUB DUP2 ADD SWAP1 PUSH2 0x3AA SWAP2 SWAP1 PUSH2 0x24E5 JUMP JUMPDEST PUSH2 0x155E JUMP JUMPDEST PUSH1 0x40 MLOAD PUSH2 0x3BC SWAP2 SWAP1 PUSH2 0x2523 JUMP JUMPDEST PUSH1 0x40 MLOAD DUP1 SWAP2 SUB SWAP1 RETURN JUMPDEST CALLVALUE DUP1 ISZERO PUSH2 0x3D0 JUMPI PUSH0 PUSH0 REVERT JUMPDEST POP PUSH2 0x3D9 PUSH2 0x1588 JUMP JUMPDEST STOP JUMPDEST CALLVALUE DUP1 ISZERO PUSH2 0x3E6 JUMPI PUSH0 PUSH0 REVERT JUMPDEST POP PUSH2 0x3EF PUSH2 0x159B JUMP JUMPDEST PUSH1 0x40 MLOAD PUSH2 0x3FC SWAP2 SWAP1 PUSH2 0x231F JUMP JUMPDEST PUSH1 0x40 MLOAD DUP1 SWAP2 SUB SWAP1 RETURN JUMPDEST CALLVALUE DUP1 ISZERO PUSH2 0x410 JUMPI PUSH0 PUSH0 REVERT JUMPDEST POP PUSH2 0x419 PUSH2 0x15A4 JUMP JUMPDEST PUSH1 0x40 MLOAD PUSH2 0x426 SWAP2 SWAP1 PUSH2 0x253C JUMP JUMPDEST PUSH1 0x40 MLOAD DUP1 SWAP2 SUB SWAP1 RETURN JUMPDEST CALLVALUE DUP1 ISZERO PUSH2 0x43A JUMPI PUSH0 PUSH0 REVERT JUMPDEST POP PUSH2 0x443 PUSH2 0x15C9 JUMP JUMPDEST PUSH1 0x40 MLOAD PUSH2 0x450 SWAP2 SWAP1 PUSH2 0x253C JUMP JUMPDEST PUSH1 0x40 MLOAD DUP1 SWAP2 SUB SWAP1 RETURN JUMPDEST CALLVALUE DUP1 ISZERO PUSH2 0x464 JUMPI PUSH0 PUSH0 REVERT JUMPDEST POP PUSH2 0x46D PUSH2 0x15F0 JUMP JUMPDEST PUSH1 0x40 MLOAD PUSH2 0x47A SWAP2 SWAP1 PUSH2 0x253C JUMP JUMPDEST PUSH1 0x40 MLOAD DUP1 SWAP2 SUB SWAP1 RETURN JUMPDEST CALLVALUE DUP1 ISZERO PUSH2 0x48E JUMPI PUSH0 PUSH0 REVERT JUMPDEST POP PUSH2 0x4A9 PUSH1 0x4 DUP1 CALLDATASIZE SUB DUP2 ADD SWAP1 PUSH2 0x4A4 SWAP2 SWAP1 PUSH2 0x1ED4 JUMP JUMPDEST PUSH2 0x1615 JUMP JUMPDEST STOP JUMPDEST CALLVALUE DUP1 ISZERO PUSH2 0x4B6 JUMPI PUSH0 PUSH0 REVERT JUMPDEST POP PUSH2 0x4BF PUSH2 0x1677 JUMP JUMPDEST PUSH1 0x40 MLOAD PUSH2 0x4CC SWAP2 SWAP1 PUSH2 0x231F JUMP JUMPDEST PUSH1 0x40 MLOAD DUP1 SWAP2 SUB SWAP1 RETURN JUMPDEST CALLVALUE DUP1 ISZERO PUSH2 0x4E0 JUMPI PUSH0 PUSH0 REVERT JUMPDEST POP PUSH2 0x4E9 PUSH2 0x167D JUMP JUMPDEST PUSH1 0x40 MLOAD PUSH2 0x4F6 SWAP2 SWAP1 PUSH2 0x231F JUMP JUMPDEST PUSH1 0x40 MLOAD DUP1 SWAP2 SUB SWAP1 RETURN JUMPDEST CALLVALUE DUP1 ISZERO PUSH2 0x50A JUMPI PUSH0 PUSH0 REVERT JUMPDEST POP PUSH2 0x525 PUSH1 0x4 DUP1 CALLDATASIZE SUB DUP2 ADD SWAP1 PUSH2 0x520 SWAP2 SWAP1 PUSH2 0x1ED4 JUMP JUMPDEST PUSH2 0x1683 JUMP JUMPDEST STOP JUMPDEST CALLVALUE DUP1 ISZERO PUSH2 0x532 JUMPI PUSH0 PUSH0 REVERT JUMPDEST POP PUSH2 0x54D PUSH1 0x4 DUP1 CALLDATASIZE SUB DUP2 ADD SWAP1 PUSH2 0x548 SWAP2 SWAP1 PUSH2 0x1ED4 JUMP JUMPDEST PUSH2 0x18DF JUMP JUMPDEST PUSH1 0x40 MLOAD PUSH2 0x55A SWAP2 SWAP1 PUSH2 0x231F JUMP JUMPDEST PUSH1 0x40 MLOAD DUP1 SWAP2 SUB SWAP1 RETURN JUMPDEST CALLVALUE DUP1 ISZERO PUSH2 0x56E JUMPI PUSH0 PUSH0 REVERT JUMPDEST POP PUSH2 0x589 PUSH1 0x4 DUP1 CALLDATASIZE SUB DUP2 ADD SWAP1 PUSH2 0x584 SWAP2 SWAP1 PUSH2 0x24E5 JUMP JUMPDEST PUSH2 0x1928 JUMP JUMPDEST PUSH1 0x40 MLOAD PUSH2 0x596 SWAP2 SWAP1 PUSH2 0x2523 JUMP JUMPDEST PUSH1 0x40 MLOAD DUP1 SWAP2 SUB SWAP1 RETURN JUMPDEST CALLVALUE DUP1 ISZERO PUSH2 0x5AA JUMPI PUSH0 PUSH0 REVERT JUMPDEST POP PUSH2 0x5B3 PUSH2 0x198A JUMP JUMPDEST PUSH1 0x40 MLOAD PUSH2 0x5C0 SWAP2 SWAP1 PUSH2 0x231F JUMP JUMPDEST PUSH1 0x40 MLOAD DUP1 SWAP2 SUB SWAP1 RETURN JUMPDEST CALLVALUE DUP1 ISZERO PUSH2 0x5D4 JUMPI PUSH0 PUSH0 REVERT JUMPDEST POP PUSH2 0x5EF PUSH1 0x4 DUP1 CALLDATASIZE SUB DUP2 ADD SWAP1 PUSH2 0x5EA SWAP2 SWAP1 PUSH2 0x24BA JUMP JUMPDEST PUSH2 0x1990 JUMP JUMPDEST STOP JUMPDEST CALLVALUE DUP1 ISZERO PUSH2 0x5FC JUMPI PUSH0 PUSH0 REVERT JUMPDEST POP PUSH2 0x617 PUSH1 0x4 DUP1 CALLDATASIZE SUB DUP2 ADD SWAP1 PUSH2 0x612 SWAP2 SWAP1 PUSH2 0x1ED4 JUMP JUMPDEST PUSH2 0x1A14 JUMP JUMPDEST STOP JUMPDEST CALLVALUE DUP1 ISZERO PUSH2 0x624 JUMPI PUSH0 PUSH0 REVERT JUMPDEST POP PUSH2 0x63F PUSH1 0x4 DUP1 CALLDATASIZE SUB DUP2 ADD SWAP1 PUSH2 0x63A SWAP2 SWAP1 PUSH2 0x24BA JUMP JUMPDEST PUSH2 0x1BD6 JUMP JUMPDEST PUSH1 0x40 MLOAD PUSH2 0x64C SWAP2 SWAP1 PUSH2 0x231F JUMP JUMPDEST PUSH1 0x40 MLOAD DUP1 SWAP2 SUB SWAP1 RETURN JUMPDEST PUSH2 0x65D PUSH2 0x1E2C JUMP JUMPDEST PUSH1 0x4 SLOAD DUP3 LT PUSH2 0x6A1 JUMPI PUSH1 0x40 MLOAD PUSH32 0x8C379A000000000000000000000000000000000000000000000000000000000 DUP2 MSTORE PUSH1 0x4 ADD PUSH2 0x698 SWAP1 PUSH2 0x259F JUMP JUMPDEST PUSH1 0x40 MLOAD DUP1 SWAP2 SUB SWAP1 REVERT JUMPDEST PUSH1 0xA PUSH0 DUP4 DUP2 MSTORE PUSH1 0x20 ADD SWAP1 DUP2 MSTORE PUSH1 0x20 ADD PUSH0 KECCAK256 PUSH1 0x40 MLOAD DUP1 PUSH2 0x140 ADD PUSH1 0x40 MSTORE SWAP1 DUP2 PUSH0 DUP3 ADD SLOAD DUP2 MSTORE PUSH1 0x20 ADD PUSH1 0x1 DUP3 ADD DUP1 SLOAD PUSH2 0x6D7 SWAP1 PUSH2 0x25EA JUMP JUMPDEST DUP1 PUSH1 0x1F ADD PUSH1 0x20 DUP1 SWAP2 DIV MUL PUSH1 0x20 ADD PUSH1 0x40 MLOAD SWAP1 DUP2 ADD PUSH1 0x40 MSTORE DUP1 SWAP3 SWAP2 SWAP1 DUP2 DUP2 MSTORE PUSH1 0x20 ADD DUP3 DUP1 SLOAD PUSH2 0x703 SWAP1 PUSH2 0x25EA JUMP JUMPDEST DUP1 ISZERO PUSH2 0x74E JUMPI DUP1 PUSH1 0x1F LT PUSH2 0x725 JUMPI PUSH2 0x100 DUP1 DUP4 SLOAD DIV MUL DUP4 MSTORE SWAP2 PUSH1 0x20 ADD SWAP2 PUSH2 0x74E JUMP JUMPDEST DUP3 ADD SWAP2 SWAP1 PUSH0 MSTORE PUSH1 0x20 PUSH0 KECCAK256 SWAP1 JUMPDEST DUP2 SLOAD DUP2 MSTORE SWAP1 PUSH1 0x1 ADD SWAP1 PUSH1 0x20 ADD DUP1 DUP4 GT PUSH2 0x731 JUMPI DUP3 SWAP1 SUB PUSH1 0x1F AND DUP3 ADD SWAP2 JUMPDEST POP POP POP POP POP DUP2 MSTORE PUSH1 0x20 ADD PUSH1 0x2 DUP3 ADD DUP1 SLOAD PUSH2 0x767 SWAP1 PUSH2 0x25EA JUMP JUMPDEST DUP1 PUSH1 0x1F ADD PUSH1 0x20 DUP1 SWAP2 DIV MUL PUSH1 0x20 ADD PUSH1 0x40 MLOAD SWAP1 DUP2 ADD PUSH1 0x40 MSTORE DUP1 SWAP3 SWAP2 SWAP1 DUP2 DUP2 MSTORE PUSH1 0x20 ADD DUP3 DUP1 SLOAD PUSH2 0x793 SWAP1 PUSH2 0x25EA JUMP JUMPDEST DUP1 ISZERO PUSH2 0x7DE JUMPI DUP1 PUSH1 0x1F LT PUSH2 0x7B5 JUMPI PUSH2 0x100 DUP1 DUP4 SLOAD DIV MUL DUP4 MSTORE SWAP2 PUSH1 0x20 ADD SWAP2 PUSH2 0x7DE JUMP JUMPDEST DUP3 ADD SWAP2 SWAP1 PUSH0 MSTORE PUSH1 0x20 PUSH0 KECCAK256 SWAP1 JUMPDEST DUP2 SLOAD DUP2 MSTORE SWAP1 PUSH1 0x1 ADD SWAP1 PUSH1 0x20 ADD DUP1 DUP4 GT PUSH2 0x7C1 JUMPI DUP3 SWAP1 SUB PUSH1 0x1F AND DUP3 ADD SWAP2 JUMPDEST POP POP POP POP POP DUP2 MSTORE PUSH1 0x20 ADD PUSH1 0x3 DUP3 ADD DUP1 SLOAD PUSH2 0x7F7 SWAP1 PUSH2 0x25EA JUMP JUMPDEST DUP1 PUSH1 0x1F ADD PUSH1 0x20 DUP1 SWAP2 DIV MUL PUSH1 0x20 ADD PUSH1 0x40 MLOAD SWAP1 DUP2 ADD PUSH1 0x40 MSTORE DUP1 SWAP3 SWAP2 SWAP1 DUP2 DUP2 MSTORE PUSH1 0x20 ADD DUP3 DUP1 SLOAD PUSH2 0x823 SWAP1 PUSH2 0x25EA JUMP JUMPDEST DUP1 ISZERO PUSH2 0x86E JUMPI DUP1 PUSH1 0x1F LT PUSH2 0x845 JUMPI PUSH2 0x100 DUP1 DUP4 SLOAD DIV MUL DUP4 MSTORE SWAP2 PUSH1 0x20 ADD SWAP2 PUSH2 0x86E JUMP JUMPDEST DUP3 ADD SWAP2 SWAP1 PUSH0 MSTORE PUSH1 0x20 PUSH0 KECCAK256 SWAP1 JUMPDEST DUP2 SLOAD DUP2 MSTORE SWAP1 PUSH1 0x1 ADD SWAP1 PUSH1 0x20 ADD DUP1 DUP4 GT PUSH2 0x851 JUMPI DUP3 SWAP1 SUB PUSH1 0x1F AND DUP3 ADD SWAP2 JUMPDEST POP POP POP POP POP DUP2 MSTORE PUSH1 0x20 ADD PUSH1 0x4 DUP3 ADD PUSH0 SWAP1 SLOAD SWAP1 PUSH2 0x100 EXP SWAP1 DIV PUSH20 0xFFFFFFFFFFFFFFFFFFFFFFFFFFFFFFFFFFFFFFFF AND PUSH20 0xFFFFFFFFFFFFFFFFFFFFFFFFFFFFFFFFFFFFFFFF AND PUSH20 0xFFFFFFFFFFFFFFFFFFFFFFFFFFFFFFFFFFFFFFFF AND DUP2 MSTORE PUSH1 0x20 ADD PUSH1 0x5 DUP3 ADD SLOAD DUP2 MSTORE PUSH1 0x20 ADD PUSH1 0x6 DUP3 ADD SLOAD DUP2 MSTORE PUSH1 0x20 ADD PUSH1 0x7 DUP3 ADD SLOAD DUP2 MSTORE PUSH1 0x20 ADD PUSH1 0x8 DUP3 ADD PUSH0 SWAP1 SLOAD SWAP1 PUSH2 0x100 EXP SWAP1 DIV PUSH1 0xFF AND ISZERO ISZERO ISZERO ISZERO DUP2 MSTORE PUSH1 0x20 ADD PUSH1 0x9 DUP3 ADD SLOAD DUP2 MSTORE POP POP SWAP1 POP SWAP2 SWAP1 POP JUMP JUMPDEST PUSH2 0x91D PUSH2 0x1BEB JUMP JUMPDEST PUSH2 0x926 CALLER PUSH2 0x1C31 JUMP JUMPDEST PUSH2 0x965 JUMPI PUSH1 0x40 MLOAD PUSH32 0x8C379A000000000000000000000000000000000000000000000000000000000 DUP2 MSTORE PUSH1 0x4 ADD PUSH2 0x95C SWAP1 PUSH2 0x2664 JUMP JUMPDEST PUSH1 0x40 MLOAD DUP1 SWAP2 SUB SWAP1 REVERT JUMPDEST PUSH0 DUP5 MLOAD GT PUSH2 0x9A8 JUMPI PUSH1 0x40 MLOAD PUSH32 0x8C379A000000000000000000000000000000000000000000000000000000000 DUP2 MSTORE PUSH1 0x4 ADD PUSH2 0x99F SWAP1 PUSH2 0x26CC JUMP JUMPDEST PUSH1 0x40 MLOAD DUP1 SWAP2 SUB SWAP1 REVERT JUMPDEST PUSH0 DUP4 MLOAD GT PUSH2 0x9EB JUMPI PUSH1 0x40 MLOAD PUSH32 0x8C379A000000000000000000000000000000000000000000000000000000000 DUP2 MSTORE PUSH1 0x4 ADD PUSH2 0x9E2 SWAP1 PUSH2 0x2734 JUMP JUMPDEST PUSH1 0x40 MLOAD DUP1 SWAP2 SUB SWAP1 REVERT JUMPDEST PUSH0 DUP3 MLOAD GT PUSH2 0xA2E JUMPI PUSH1 0x40 MLOAD PUSH32 0x8C379A000000000000000000000000000000000000000000000000000000000 DUP2 MSTORE PUSH1 0x4 ADD PUSH2 0xA25 SWAP1 PUSH2 0x279C JUMP JUMPDEST PUSH1 0x40 MLOAD DUP1 SWAP2 SUB SWAP1 REVERT JUMPDEST PUSH0 DUP2 GT DUP1 ISZERO PUSH2 0xA3F JUMPI POP PUSH2 0x16D DUP2 GT ISZERO JUMPDEST PUSH2 0xA7E JUMPI PUSH1 0x40 MLOAD PUSH32 0x8C379A000000000000000000000000000000000000000000000000000000000 DUP2 MSTORE PUSH1 0x4 ADD PUSH2 0xA75 SWAP1 PUSH2 0x2804 JUMP JUMPDEST PUSH1 0x40 MLOAD DUP1 SWAP2 SUB SWAP1 REVERT JUMPDEST PUSH0 PUSH0 SWAP1 POP PUSH0 PUSH0 SWAP1 POP PUSH0 PUSH1 0x3 PUSH0 SWAP1 SLOAD SWAP1 PUSH2 0x100 EXP SWAP1 DIV PUSH20 0xFFFFFFFFFFFFFFFFFFFFFFFFFFFFFFFFFFFFFFFF AND PUSH20 0xFFFFFFFFFFFFFFFFFFFFFFFFFFFFFFFFFFFFFFFF AND PUSH4 0x70A08231 CALLER PUSH1 0x40 MLOAD DUP3 PUSH4 0xFFFFFFFF AND PUSH1 0xE0 SHL DUP2 MSTORE PUSH1 0x4 ADD PUSH2 0xAE1 SWAP2 SWAP1 PUSH2 0x253C JUMP JUMPDEST PUSH1 0x20 PUSH1 0x40 MLOAD DUP1 DUP4 SUB DUP2 DUP7 GAS STATICCALL ISZERO DUP1 ISZERO PUSH2 0xAFC JUMPI RETURNDATASIZE PUSH0 PUSH0 RETURNDATACOPY RETURNDATASIZE PUSH0 REVERT JUMPDEST POP POP POP POP PUSH1 0x40 MLOAD RETURNDATASIZE PUSH1 0x1F NOT PUSH1 0x1F DUP3 ADD AND DUP3 ADD DUP1 PUSH1 0x40 MSTORE POP DUP2 ADD SWAP1 PUSH2 0xB20 SWAP2 SWAP1 PUSH2 0x2836 JUMP JUMPDEST SWAP1 POP PUSH8 0xDE0B6B3A7640000 DUP2 LT ISZERO DUP1 ISZERO PUSH2 0xB3C JUMPI POP PUSH1 0x9 SLOAD DUP5 GT ISZERO JUMPDEST ISZERO PUSH2 0xCAB JUMPI PUSH0 PUSH1 0x3 PUSH0 SWAP1 SLOAD SWAP1 PUSH2 0x100 EXP SWAP1 DIV PUSH20 0xFFFFFFFFFFFFFFFFFFFFFFFFFFFFFFFFFFFFFFFF AND PUSH20 0xFFFFFFFFFFFFFFFFFFFFFFFFFFFFFFFFFFFFFFFF AND CALLER PUSH8 0xDE0B6B3A7640000 PUSH1 0x40 MLOAD PUSH1 0x24 ADD PUSH2 0xB95 SWAP3 SWAP2 SWAP1 PUSH2 0x28B6 JUMP JUMPDEST PUSH1 0x40 MLOAD PUSH1 0x20 DUP2 DUP4 SUB SUB DUP2 MSTORE SWAP1 PUSH1 0x40 MSTORE PUSH32 0x79CC679000000000000000000000000000000000000000000000000000000000 PUSH28 0xFFFFFFFFFFFFFFFFFFFFFFFFFFFFFFFFFFFFFFFFFFFFFFFFFFFFFFFF NOT AND PUSH1 0x20 DUP3 ADD DUP1 MLOAD PUSH28 0xFFFFFFFFFFFFFFFFFFFFFFFFFFFFFFFFFFFFFFFFFFFFFFFFFFFFFFFF DUP4 DUP2 DUP4 AND OR DUP4 MSTORE POP POP POP POP PUSH1 0x40 MLOAD PUSH2 0xC1F SWAP2 SWAP1 PUSH2 0x2921 JUMP JUMPDEST PUSH0 PUSH1 0x40 MLOAD DUP1 DUP4 SUB DUP2 PUSH0 DUP7 GAS CALL SWAP2 POP POP RETURNDATASIZE DUP1 PUSH0 DUP2 EQ PUSH2 0xC58 JUMPI PUSH1 0x40 MLOAD SWAP2 POP PUSH1 0x1F NOT PUSH1 0x3F RETURNDATASIZE ADD AND DUP3 ADD PUSH1 0x40 MSTORE RETURNDATASIZE DUP3 MSTORE RETURNDATASIZE PUSH0 PUSH1 0x20 DUP5 ADD RETURNDATACOPY PUSH2 0xC5D JUMP JUMPDEST PUSH1 0x60 SWAP2 POP JUMPDEST POP POP SWAP1 POP DUP1 PUSH2 0xCA1 JUMPI PUSH1 0x40 MLOAD PUSH32 0x8C379A000000000000000000000000000000000000000000000000000000000 DUP2 MSTORE PUSH1 0x4 ADD PUSH2 0xC98 SWAP1 PUSH2 0x2981 JUMP JUMPDEST PUSH1 0x40 MLOAD DUP1 SWAP2 SUB SWAP1 REVERT JUMPDEST PUSH1 0x1 SWAP4 POP POP PUSH2 0xF5A JUMP JUMPDEST PUSH0 PUSH2 0xCB5 DUP6 PUSH2 0x18DF JUMP JUMPDEST SWAP1 POP DUP1 CALLVALUE LT ISZERO PUSH2 0xCFA JUMPI PUSH1 0x40 MLOAD PUSH32 0x8C379A000000000000000000000000000000000000000000000000000000000 DUP2 MSTORE PUSH1 0x4 ADD PUSH2 0xCF1 SWAP1 PUSH2 0x29E9 JUMP JUMPDEST PUSH1 0x40 MLOAD DUP1 SWAP2 SUB SWAP1 REVERT JUMPDEST DUP1 SWAP3 POP PUSH1 0xB PUSH0 CALLER PUSH20 0xFFFFFFFFFFFFFFFFFFFFFFFFFFFFFFFFFFFFFFFF AND PUSH20 0xFFFFFFFFFFFFFFFFFFFFFFFFFFFFFFFFFFFFFFFF AND DUP2 MSTORE PUSH1 0x20 ADD SWAP1 DUP2 MSTORE PUSH1 0x20 ADD PUSH0 KECCAK256 PUSH0 DUP2 SLOAD DUP1 SWAP3 SWAP2 SWAP1 PUSH2 0xD4A SWAP1 PUSH2 0x2A34 JUMP JUMPDEST SWAP2 SWAP1 POP SSTORE POP PUSH0 PUSH1 0x8 SLOAD PUSH1 0xB PUSH0 CALLER PUSH20 0xFFFFFFFFFFFFFFFFFFFFFFFFFFFFFFFFFFFFFFFF AND PUSH20 0xFFFFFFFFFFFFFFFFFFFFFFFFFFFFFFFFFFFFFFFF AND DUP2 MSTORE PUSH1 0x20 ADD SWAP1 DUP2 MSTORE PUSH1 0x20 ADD PUSH0 KECCAK256 SLOAD PUSH2 0xD9B SWAP2 SWAP1 PUSH2 0x2AA8 JUMP JUMPDEST SUB PUSH2 0xF58 JUMPI PUSH0 PUSH1 0x3 PUSH0 SWAP1 SLOAD SWAP1 PUSH2 0x100 EXP SWAP1 DIV PUSH20 0xFFFFFFFFFFFFFFFFFFFFFFFFFFFFFFFFFFFFFFFF AND PUSH20 0xFFFFFFFFFFFFFFFFFFFFFFFFFFFFFFFFFFFFFFFF AND CALLER PUSH8 0xDE0B6B3A7640000 PUSH1 0x40 MLOAD PUSH1 0x24 ADD PUSH2 0xDF4 SWAP3 SWAP2 SWAP1 PUSH2 0x28B6 JUMP JUMPDEST PUSH1 0x40 MLOAD PUSH1 0x20 DUP2 DUP4 SUB SUB DUP2 MSTORE SWAP1 PUSH1 0x40 MSTORE PUSH32 0x40C10F1900000000000000000000000000000000000000000000000000000000 PUSH28 0xFFFFFFFFFFFFFFFFFFFFFFFFFFFFFFFFFFFFFFFFFFFFFFFFFFFFFFFF NOT AND PUSH1 0x20 DUP3 ADD DUP1 MLOAD PUSH28 0xFFFFFFFFFFFFFFFFFFFFFFFFFFFFFFFFFFFFFFFFFFFFFFFFFFFFFFFF DUP4 DUP2 DUP4 AND OR DUP4 MSTORE POP POP POP POP PUSH1 0x40 MLOAD PUSH2 0xE7E SWAP2 SWAP1 PUSH2 0x2921 JUMP JUMPDEST PUSH0 PUSH1 0x40 MLOAD DUP1 DUP4 SUB DUP2 PUSH0 DUP7 GAS CALL SWAP2 POP POP RETURNDATASIZE DUP1 PUSH0 DUP2 EQ PUSH2 0xEB7 JUMPI PUSH1 0x40 MLOAD SWAP2 POP PUSH1 0x1F NOT PUSH1 0x3F RETURNDATASIZE ADD AND DUP3 ADD PUSH1 0x40 MSTORE RETURNDATASIZE DUP3 MSTORE RETURNDATASIZE PUSH0 PUSH1 0x20 DUP5 ADD RETURNDATACOPY PUSH2 0xEBC JUMP JUMPDEST PUSH1 0x60 SWAP2 POP JUMPDEST POP POP SWAP1 POP DUP1 PUSH2 0xF00 JUMPI PUSH1 0x40 MLOAD PUSH32 0x8C379A000000000000000000000000000000000000000000000000000000000 DUP2 MSTORE PUSH1 0x4 ADD PUSH2 0xEF7 SWAP1 PUSH2 0x2B22 JUMP JUMPDEST PUSH1 0x40 MLOAD DUP1 SWAP2 SUB SWAP1 REVERT JUMPDEST CALLER PUSH20 0xFFFFFFFFFFFFFFFFFFFFFFFFFFFFFFFFFFFFFFFF AND PUSH32 0x851805430B76795C7338D40D064EB68FF06EA87E8E9518986018EDB9F5590252 PUSH8 0xDE0B6B3A7640000 PUSH1 0x40 MLOAD PUSH2 0xF4E SWAP2 SWAP1 PUSH2 0x2B70 JUMP JUMPDEST PUSH1 0x40 MLOAD DUP1 SWAP2 SUB SWAP1 LOG2 POP JUMPDEST POP JUMPDEST PUSH0 PUSH1 0x4 SLOAD SWAP1 POP PUSH1 0x4 PUSH0 DUP2 SLOAD DUP1 SWAP3 SWAP2 SWAP1 PUSH2 0xF72 SWAP1 PUSH2 0x2A34 JUMP JUMPDEST SWAP2 SWAP1 POP SSTORE POP PUSH0 PUSH3 0x15180 DUP7 PUSH2 0xF87 SWAP2 SWAP1 PUSH2 0x2B89 JUMP JUMPDEST TIMESTAMP PUSH2 0xF92 SWAP2 SWAP1 PUSH2 0x2BCA JUMP JUMPDEST SWAP1 POP PUSH1 0x40 MLOAD DUP1 PUSH2 0x140 ADD PUSH1 0x40 MSTORE DUP1 DUP4 DUP2 MSTORE PUSH1 0x20 ADD DUP11 DUP2 MSTORE PUSH1 0x20 ADD DUP10 DUP2 MSTORE PUSH1 0x20 ADD DUP9 DUP2 MSTORE PUSH1 0x20 ADD CALLER PUSH20 0xFFFFFFFFFFFFFFFFFFFFFFFFFFFFFFFFFFFFFFFF AND DUP2 MSTORE PUSH1 0x20 ADD TIMESTAMP DUP2 MSTORE PUSH1 0x20 ADD DUP3 DUP2 MSTORE PUSH1 0x20 ADD PUSH0 DUP2 MSTORE PUSH1 0x20 ADD PUSH1 0x1 ISZERO ISZERO DUP2 MSTORE PUSH1 0x20 ADD DUP8 DUP2 MSTORE POP PUSH1 0xA PUSH0 DUP5 DUP2 MSTORE PUSH1 0x20 ADD SWAP1 DUP2 MSTORE PUSH1 0x20 ADD PUSH0 KECCAK256 PUSH0 DUP3 ADD MLOAD DUP2 PUSH0 ADD SSTORE PUSH1 0x20 DUP3 ADD MLOAD DUP2 PUSH1 0x1 ADD SWAP1 DUP2 PUSH2 0x1021 SWAP2 SWAP1 PUSH2 0x2D94 JUMP JUMPDEST POP PUSH1 0x40 DUP3 ADD MLOAD DUP2 PUSH1 0x2 ADD SWAP1 DUP2 PUSH2 0x1037 SWAP2 SWAP1 PUSH2 0x2D94 JUMP JUMPDEST POP PUSH1 0x60 DUP3 ADD MLOAD DUP2 PUSH1 0x3 ADD SWAP1 DUP2 PUSH2 0x104D SWAP2 SWAP1 PUSH2 0x2D94 JUMP JUMPDEST POP PUSH1 0x80 DUP3 ADD MLOAD DUP2 PUSH1 0x4 ADD PUSH0 PUSH2 0x100 EXP DUP2 SLOAD DUP2 PUSH20 0xFFFFFFFFFFFFFFFFFFFFFFFFFFFFFFFFFFFFFFFF MUL NOT AND SWAP1 DUP4 PUSH20 0xFFFFFFFFFFFFFFFFFFFFFFFFFFFFFFFFFFFFFFFF AND MUL OR SWAP1 SSTORE POP PUSH1 0xA0 DUP3 ADD MLOAD DUP2 PUSH1 0x5 ADD SSTORE PUSH1 0xC0 DUP3 ADD MLOAD DUP2 PUSH1 0x6 ADD SSTORE PUSH1 0xE0 DUP3 ADD MLOAD DUP2 PUSH1 0x7 ADD SSTORE PUSH2 0x100 DUP3 ADD MLOAD DUP2 PUSH1 0x8 ADD PUSH0 PUSH2 0x100 EXP DUP2 SLOAD DUP2 PUSH1 0xFF MUL NOT AND SWAP1 DUP4 ISZERO ISZERO MUL OR SWAP1 SSTORE POP PUSH2 0x120 DUP3 ADD MLOAD DUP2 PUSH1 0x9 ADD SSTORE SWAP1 POP POP CALLER PUSH20 0xFFFFFFFFFFFFFFFFFFFFFFFFFFFFFFFFFFFFFFFF AND DUP3 PUSH32 0xB3BB0593BB4A169316521E45EDE0C9EDE7407F31146DA415F2DF9C1F7F4C20BF DUP12 DUP11 DUP6 DUP12 DUP12 DUP12 PUSH1 0x40 MLOAD PUSH2 0x1131 SWAP7 SWAP6 SWAP5 SWAP4 SWAP3 SWAP2 SWAP1 PUSH2 0x2E63 JUMP JUMPDEST PUSH1 0x40 MLOAD DUP1 SWAP2 SUB SWAP1 LOG3 POP POP POP POP POP PUSH2 0x1146 PUSH2 0x1CD4 JUMP JUMPDEST POP POP POP POP JUMP JUMPDEST PUSH2 0x1154 PUSH2 0x1CDD JUMP JUMPDEST PUSH0 DUP3 GT PUSH2 0x1196 JUMPI PUSH1 0x40 MLOAD PUSH32 0x8C379A000000000000000000000000000000000000000000000000000000000 DUP2 MSTORE PUSH1 0x4 ADD PUSH2 0x118D SWAP1 PUSH2 0x2F1A JUMP JUMPDEST PUSH1 0x40 MLOAD DUP1 SWAP2 SUB SWAP1 REVERT JUMPDEST DUP3 PUSH1 0x5 DUP2 SWAP1 SSTORE POP DUP2 PUSH1 0x6 DUP2 SWAP1 SSTORE POP DUP1 PUSH1 0x7 DUP2 SWAP1 SSTORE POP PUSH32 0xC5118F6134A4806C2AD08C52279630A3718992A295074ACE47295EEB4A95A4FB DUP4 DUP4 DUP4 PUSH1 0x40 MLOAD PUSH2 0x11DE SWAP4 SWAP3 SWAP2 SWAP1 PUSH2 0x2F38 JUMP JUMPDEST PUSH1 0x40 MLOAD DUP1 SWAP2 SUB SWAP1 LOG1 POP POP POP JUMP JUMPDEST PUSH1 0x6 SLOAD DUP2 JUMP JUMPDEST PUSH1 0x4 SLOAD DUP2 JUMP JUMPDEST PUSH0 PUSH0 PUSH0 PUSH0 PUSH1 0x5 SLOAD PUSH1 0x6 SLOAD PUSH1 0x7 SLOAD PUSH1 0x9 SLOAD SWAP4 POP SWAP4 POP SWAP4 POP SWAP4 POP SWAP1 SWAP2 SWAP3 SWAP4 JUMP JUMPDEST PUSH1 0xA PUSH1 0x20 MSTORE DUP1 PUSH0 MSTORE PUSH1 0x40 PUSH0 KECCAK256 PUSH0 SWAP2 POP SWAP1 POP DUP1 PUSH0 ADD SLOAD SWAP1 DUP1 PUSH1 0x1 ADD DUP1 SLOAD PUSH2 0x123A SWAP1 PUSH2 0x25EA JUMP JUMPDEST DUP1 PUSH1 0x1F ADD PUSH1 0x20 DUP1 SWAP2 DIV MUL PUSH1 0x20 ADD PUSH1 0x40 MLOAD SWAP1 DUP2 ADD PUSH1 0x40 MSTORE DUP1 SWAP3 SWAP2 SWAP1 DUP2 DUP2 MSTORE PUSH1 0x20 ADD DUP3 DUP1 SLOAD PUSH2 0x1266 SWAP1 PUSH2 0x25EA JUMP JUMPDEST DUP1 ISZERO PUSH2 0x12B1 JUMPI DUP1 PUSH1 0x1F LT PUSH2 0x1288 JUMPI PUSH2 0x100 DUP1 DUP4 SLOAD DIV MUL DUP4 MSTORE SWAP2 PUSH1 0x20 ADD SWAP2 PUSH2 0x12B1 JUMP JUMPDEST DUP3 ADD SWAP2 SWAP1 PUSH0 MSTORE PUSH1 0x20 PUSH0 KECCAK256 SWAP1 JUMPDEST DUP2 SLOAD DUP2 MSTORE SWAP1 PUSH1 0x1 ADD SWAP1 PUSH1 0x20 ADD DUP1 DUP4 GT PUSH2 0x1294 JUMPI DUP3 SWAP1 SUB PUSH1 0x1F AND DUP3 ADD SWAP2 JUMPDEST POP POP POP POP POP SWAP1 DUP1 PUSH1 0x2 ADD DUP1 SLOAD PUSH2 0x12C6 SWAP1 PUSH2 0x25EA JUMP JUMPDEST DUP1 PUSH1 0x1F ADD PUSH1 0x20 DUP1 SWAP2 DIV MUL PUSH1 0x20 ADD PUSH1 0x40 MLOAD SWAP1 DUP2 ADD PUSH1 0x40 MSTORE DUP1 SWAP3 SWAP2 SWAP1 DUP2 DUP2 MSTORE PUSH1 0x20 ADD DUP3 DUP1 SLOAD PUSH2 0x12F2 SWAP1 PUSH2 0x25EA JUMP JUMPDEST DUP1 ISZERO PUSH2 0x133D JUMPI DUP1 PUSH1 0x1F LT PUSH2 0x1314 JUMPI PUSH2 0x100 DUP1 DUP4 SLOAD DIV MUL DUP4 MSTORE SWAP2 PUSH1 0x20 ADD SWAP2 PUSH2 0x133D JUMP JUMPDEST DUP3 ADD SWAP2 SWAP1 PUSH0 MSTORE PUSH1 0x20 PUSH0 KECCAK256 SWAP1 JUMPDEST DUP2 SLOAD DUP2 MSTORE SWAP1 PUSH1 0x1 ADD SWAP1 PUSH1 0x20 ADD DUP1 DUP4 GT PUSH2 0x1320 JUMPI DUP3 SWAP1 SUB PUSH1 0x1F AND DUP3 ADD SWAP2 JUMPDEST POP POP POP POP POP SWAP1 DUP1 PUSH1 0x3 ADD DUP1 SLOAD PUSH2 0x1352 SWAP1 PUSH2 0x25EA JUMP JUMPDEST DUP1 PUSH1 0x1F ADD PUSH1 0x20 DUP1 SWAP2 DIV MUL PUSH1 0x20 ADD PUSH1 0x40 MLOAD SWAP1 DUP2 ADD PUSH1 0x40 MSTORE DUP1 SWAP3 SWAP2 SWAP1 DUP2 DUP2 MSTORE PUSH1 0x20 ADD DUP3 DUP1 SLOAD PUSH2 0x137E SWAP1 PUSH2 0x25EA JUMP JUMPDEST DUP1 ISZERO PUSH2 0x13C9 JUMPI DUP1 PUSH1 0x1F LT PUSH2 0x13A0 JUMPI PUSH2 0x100 DUP1 DUP4 SLOAD DIV MUL DUP4 MSTORE SWAP2 PUSH1 0x20 ADD SWAP2 PUSH2 0x13C9 JUMP JUMPDEST DUP3 ADD SWAP2 SWAP1 PUSH0 MSTORE PUSH1 0x20 PUSH0 KECCAK256 SWAP1 JUMPDEST DUP2 SLOAD DUP2 MSTORE SWAP1 PUSH1 0x1 ADD SWAP1 PUSH1 0x20 ADD DUP1 DUP4 GT PUSH2 0x13AC JUMPI DUP3 SWAP1 SUB PUSH1 0x1F AND DUP3 ADD SWAP2 JUMPDEST POP POP POP POP POP SWAP1 DUP1 PUSH1 0x4 ADD PUSH0 SWAP1 SLOAD SWAP1 PUSH2 0x100 EXP SWAP1 DIV PUSH20 0xFFFFFFFFFFFFFFFFFFFFFFFFFFFFFFFFFFFFFFFF AND SWAP1 DUP1 PUSH1 0x5 ADD SLOAD SWAP1 DUP1 PUSH1 0x6 ADD SLOAD SWAP1 DUP1 PUSH1 0x7 ADD SLOAD SWAP1 DUP1 PUSH1 0x8 ADD PUSH0 SWAP1 SLOAD SWAP1 PUSH2 0x100 EXP SWAP1 DIV PUSH1 0xFF AND SWAP1 DUP1 PUSH1 0x9 ADD SLOAD SWAP1 POP DUP11 JUMP JUMPDEST PUSH2 0x142A PUSH2 0x1CDD JUMP JUMPDEST PUSH0 SELFBALANCE SWAP1 POP PUSH0 DUP2 GT PUSH2 0x1470 JUMPI PUSH1 0x40 MLOAD PUSH32 0x8C379A000000000000000000000000000000000000000000000000000000000 DUP2 MSTORE PUSH1 0x4 ADD PUSH2 0x1467 SWAP1 PUSH2 0x2FB7 JUMP JUMPDEST PUSH1 0x40 MLOAD DUP1 SWAP2 SUB SWAP1 REVERT JUMPDEST PUSH2 0x1478 PUSH2 0x15C9 JUMP JUMPDEST PUSH20 0xFFFFFFFFFFFFFFFFFFFFFFFFFFFFFFFFFFFFFFFF AND PUSH2 0x8FC DUP3 SWAP1 DUP2 ISZERO MUL SWAP1 PUSH1 0x40 MLOAD PUSH0 PUSH1 0x40 MLOAD DUP1 DUP4 SUB DUP2 DUP6 DUP9 DUP9 CALL SWAP4 POP POP POP POP ISZERO DUP1 ISZERO PUSH2 0x14BA JUMPI RETURNDATASIZE PUSH0 PUSH0 RETURNDATACOPY RETURNDATASIZE PUSH0 REVERT JUMPDEST POP POP JUMP JUMPDEST PUSH1 0x8 SLOAD DUP2 JUMP JUMPDEST PUSH2 0x14CC PUSH2 0x1CDD JUMP JUMPDEST PUSH0 DUP2 GT PUSH2 0x150E JUMPI PUSH1 0x40 MLOAD PUSH32 0x8C379A000000000000000000000000000000000000000000000000000000000 DUP2 MSTORE PUSH1 0x4 ADD PUSH2 0x1505 SWAP1 PUSH2 0x301F JUMP JUMPDEST PUSH1 0x40 MLOAD DUP1 SWAP2 SUB SWAP1 REVERT JUMPDEST DUP1 PUSH1 0x8 DUP2 SWAP1 SSTORE POP POP JUMP JUMPDEST PUSH0 PUSH1 0xB PUSH0 DUP4 PUSH20 0xFFFFFFFFFFFFFFFFFFFFFFFFFFFFFFFFFFFFFFFF AND PUSH20 0xFFFFFFFFFFFFFFFFFFFFFFFFFFFFFFFFFFFFFFFF AND DUP2 MSTORE PUSH1 0x20 ADD SWAP1 DUP2 MSTORE PUSH1 0x20 ADD PUSH0 KECCAK256 SLOAD SWAP1 POP SWAP2 SWAP1 POP JUMP JUMPDEST PUSH1 0xC PUSH1 0x20 MSTORE DUP2 PUSH0 MSTORE PUSH1 0x40 PUSH0 KECCAK256 PUSH1 0x20 MSTORE DUP1 PUSH0 MSTORE PUSH1 0x40 PUSH0 KECCAK256 PUSH0 SWAP2 POP SWAP2 POP SWAP1 SLOAD SWAP1 PUSH2 0x100 EXP SWAP1 DIV PUSH1 0xFF AND DUP2 JUMP JUMPDEST PUSH2 0x1590 PUSH2 0x1CDD JUMP JUMPDEST PUSH2 0x1599 PUSH0 PUSH2 0x1D64 JUMP JUMPDEST JUMP JUMPDEST PUSH0 PUSH1 0x4 SLOAD SWAP1 POP SWAP1 JUMP JUMPDEST PUSH1 0x2 PUSH0 SWAP1 SLOAD SWAP1 PUSH2 0x100 EXP SWAP1 DIV PUSH20 0xFFFFFFFFFFFFFFFFFFFFFFFFFFFFFFFFFFFFFFFF AND DUP2 JUMP JUMPDEST PUSH0 PUSH0 PUSH0 SWAP1 SLOAD SWAP1 PUSH2 0x100 EXP SWAP1 DIV PUSH20 0xFFFFFFFFFFFFFFFFFFFFFFFFFFFFFFFFFFFFFFFF AND SWAP1 POP SWAP1 JUMP JUMPDEST PUSH1 0x3 PUSH0 SWAP1 SLOAD SWAP1 PUSH2 0x100 EXP SWAP1 DIV PUSH20 0xFFFFFFFFFFFFFFFFFFFFFFFFFFFFFFFFFFFFFFFF AND DUP2 JUMP JUMPDEST PUSH2 0x161D PUSH2 0x1CDD JUMP JUMPDEST PUSH0 DUP2 GT DUP1 ISZERO PUSH2 0x162E JUMPI POP PUSH2 0x16D DUP2 GT ISZERO JUMPDEST PUSH2 0x166D JUMPI PUSH1 0x40 MLOAD PUSH32 0x8C379A000000000000000000000000000000000000000000000000000000000 DUP2 MSTORE PUSH1 0x4 ADD PUSH2 0x1664 SWAP1 PUSH2 0x3087 JUMP JUMPDEST PUSH1 0x40 MLOAD DUP1 SWAP2 SUB SWAP1 REVERT JUMPDEST DUP1 PUSH1 0x9 DUP2 SWAP1 SSTORE POP POP JUMP JUMPDEST PUSH1 0x9 SLOAD DUP2 JUMP JUMPDEST PUSH1 0x5 SLOAD DUP2 JUMP JUMPDEST PUSH1 0x4 SLOAD DUP2 LT PUSH2 0x16C7 JUMPI PUSH1 0x40 MLOAD PUSH32 0x8C379A000000000000000000000000000000000000000000000000000000000 DUP2 MSTORE PUSH1 0x4 ADD PUSH2 0x16BE SWAP1 PUSH2 0x259F JUMP JUMPDEST PUSH1 0x40 MLOAD DUP1 SWAP2 SUB SWAP1 REVERT JUMPDEST PUSH0 PUSH1 0xA PUSH0 DUP4 DUP2 MSTORE PUSH1 0x20 ADD SWAP1 DUP2 MSTORE PUSH1 0x20 ADD PUSH0 KECCAK256 SWAP1 POP DUP1 PUSH1 0x8 ADD PUSH0 SWAP1 SLOAD SWAP1 PUSH2 0x100 EXP SWAP1 DIV PUSH1 0xFF AND PUSH2 0x172B JUMPI PUSH1 0x40 MLOAD PUSH32 0x8C379A000000000000000000000000000000000000000000000000000000000 DUP2 MSTORE PUSH1 0x4 ADD PUSH2 0x1722 SWAP1 PUSH2 0x30EF JUMP JUMPDEST PUSH1 0x40 MLOAD DUP1 SWAP2 SUB SWAP1 REVERT JUMPDEST DUP1 PUSH1 0x6 ADD SLOAD TIMESTAMP GT ISZERO PUSH2 0x1772 JUMPI PUSH1 0x40 MLOAD PUSH32 0x8C379A000000000000000000000000000000000000000000000000000000000 DUP2 MSTORE PUSH1 0x4 ADD PUSH2 0x1769 SWAP1 PUSH2 0x3157 JUMP JUMPDEST PUSH1 0x40 MLOAD DUP1 SWAP2 SUB SWAP1 REVERT JUMPDEST PUSH1 0xC PUSH0 DUP4 DUP2 MSTORE PUSH1 0x20 ADD SWAP1 DUP2 MSTORE PUSH1 0x20 ADD PUSH0 KECCAK256 PUSH0 CALLER PUSH20 0xFFFFFFFFFFFFFFFFFFFFFFFFFFFFFFFFFFFFFFFF AND PUSH20 0xFFFFFFFFFFFFFFFFFFFFFFFFFFFFFFFFFFFFFFFF AND DUP2 MSTORE PUSH1 0x20 ADD SWAP1 DUP2 MSTORE PUSH1 0x20 ADD PUSH0 KECCAK256 PUSH0 SWAP1 SLOAD SWAP1 PUSH2 0x100 EXP SWAP1 DIV PUSH1 0xFF AND ISZERO PUSH2 0x180B JUMPI PUSH1 0x40 MLOAD PUSH32 0x8C379A000000000000000000000000000000000000000000000000000000000 DUP2 MSTORE PUSH1 0x4 ADD PUSH2 0x1802 SWAP1 PUSH2 0x31BF JUMP JUMPDEST PUSH1 0x40 MLOAD DUP1 SWAP2 SUB SWAP1 REVERT JUMPDEST PUSH1 0x1 PUSH1 0xC PUSH0 DUP5 DUP2 MSTORE PUSH1 0x20 ADD SWAP1 DUP2 MSTORE PUSH1 0x20 ADD PUSH0 KECCAK256 PUSH0 CALLER PUSH20 0xFFFFFFFFFFFFFFFFFFFFFFFFFFFFFFFFFFFFFFFF AND PUSH20 0xFFFFFFFFFFFFFFFFFFFFFFFFFFFFFFFFFFFFFFFF AND DUP2 MSTORE PUSH1 0x20 ADD SWAP1 DUP2 MSTORE PUSH1 0x20 ADD PUSH0 KECCAK256 PUSH0 PUSH2 0x100 EXP DUP2 SLOAD DUP2 PUSH1 0xFF MUL NOT AND SWAP1 DUP4 ISZERO ISZERO MUL OR SWAP1 SSTORE POP DUP1 PUSH1 0x7 ADD PUSH0 DUP2 SLOAD DUP1 SWAP3 SWAP2 SWAP1 PUSH2 0x1883 SWAP1 PUSH2 0x2A34 JUMP JUMPDEST SWAP2 SWAP1 POP SSTORE POP CALLER PUSH20 0xFFFFFFFFFFFFFFFFFFFFFFFFFFFFFFFFFFFFFFFF AND DUP3 PUSH32 0xA504FA1A622895E43328023A9FA609EEBEC933D785DF4E1B4F33C587D12D835D DUP4 PUSH1 0x7 ADD SLOAD PUSH1 0x40 MLOAD PUSH2 0x18D3 SWAP2 SWAP1 PUSH2 0x231F JUMP JUMPDEST PUSH1 0x40 MLOAD DUP1 SWAP2 SUB SWAP1 LOG3 POP POP JUMP JUMPDEST PUSH0 PUSH1 0x6 SLOAD DUP3 GT PUSH2 0x18F3 JUMPI PUSH1 0x5 SLOAD SWAP1 POP PUSH2 0x1923 JUMP JUMPDEST PUSH0 PUSH1 0x6 SLOAD DUP4 PUSH2 0x1902 SWAP2 SWAP1 PUSH2 0x31DD JUMP JUMPDEST SWAP1 POP PUSH1 0x7 SLOAD DUP2 PUSH2 0x1912 SWAP2 SWAP1 PUSH2 0x2B89 JUMP JUMPDEST PUSH1 0x5 SLOAD PUSH2 0x191F SWAP2 SWAP1 PUSH2 0x2BCA JUMP JUMPDEST SWAP2 POP POP JUMPDEST SWAP2 SWAP1 POP JUMP JUMPDEST PUSH0 PUSH1 0xC PUSH0 DUP5 DUP2 MSTORE PUSH1 0x20 ADD SWAP1 DUP2 MSTORE PUSH1 0x20 ADD PUSH0 KECCAK256 PUSH0 DUP4 PUSH20 0xFFFFFFFFFFFFFFFFFFFFFFFFFFFFFFFFFFFFFFFF AND PUSH20 0xFFFFFFFFFFFFFFFFFFFFFFFFFFFFFFFFFFFFFFFF AND DUP2 MSTORE PUSH1 0x20 ADD SWAP1 DUP2 MSTORE PUSH1 0x20 ADD PUSH0 KECCAK256 PUSH0 SWAP1 SLOAD SWAP1 PUSH2 0x100 EXP SWAP1 DIV PUSH1 0xFF AND SWAP1 POP SWAP3 SWAP2 POP POP JUMP JUMPDEST PUSH1 0x7 SLOAD DUP2 JUMP JUMPDEST PUSH2 0x1998 PUSH2 0x1CDD JUMP JUMPDEST PUSH0 PUSH20 0xFFFFFFFFFFFFFFFFFFFFFFFFFFFFFFFFFFFFFFFF AND DUP2 PUSH20 0xFFFFFFFFFFFFFFFFFFFFFFFFFFFFFFFFFFFFFFFF AND SUB PUSH2 0x1A08 JUMPI PUSH0 PUSH1 0x40 MLOAD PUSH32 0x1E4FBDF700000000000000000000000000000000000000000000000000000000 DUP2 MSTORE PUSH1 0x4 ADD PUSH2 0x19FF SWAP2 SWAP1 PUSH2 0x253C JUMP JUMPDEST PUSH1 0x40 MLOAD DUP1 SWAP2 SUB SWAP1 REVERT JUMPDEST PUSH2 0x1A11 DUP2 PUSH2 0x1D64 JUMP JUMPDEST POP JUMP JUMPDEST PUSH1 0x4 SLOAD DUP2 LT PUSH2 0x1A58 JUMPI PUSH1 0x40 MLOAD PUSH32 0x8C379A000000000000000000000000000000000000000000000000000000000 DUP2 MSTORE PUSH1 0x4 ADD PUSH2 0x1A4F SWAP1 PUSH2 0x259F JUMP JUMPDEST PUSH1 0x40 MLOAD DUP1 SWAP2 SUB SWAP1 REVERT JUMPDEST PUSH0 PUSH1 0xA PUSH0 DUP4 DUP2 MSTORE PUSH1 0x20 ADD SWAP1 DUP2 MSTORE PUSH1 0x20 ADD PUSH0 KECCAK256 SWAP1 POP DUP1 PUSH1 0x4 ADD PUSH0 SWAP1 SLOAD SWAP1 PUSH2 0x100 EXP SWAP1 DIV PUSH20 0xFFFFFFFFFFFFFFFFFFFFFFFFFFFFFFFFFFFFFFFF AND PUSH20 0xFFFFFFFFFFFFFFFFFFFFFFFFFFFFFFFFFFFFFFFF AND CALLER PUSH20 0xFFFFFFFFFFFFFFFFFFFFFFFFFFFFFFFFFFFFFFFF AND EQ DUP1 PUSH2 0x1AFB JUMPI POP PUSH2 0x1ACC PUSH2 0x15C9 JUMP JUMPDEST PUSH20 0xFFFFFFFFFFFFFFFFFFFFFFFFFFFFFFFFFFFFFFFF AND CALLER PUSH20 0xFFFFFFFFFFFFFFFFFFFFFFFFFFFFFFFFFFFFFFFF AND EQ JUMPDEST PUSH2 0x1B3A JUMPI PUSH1 0x40 MLOAD PUSH32 0x8C379A000000000000000000000000000000000000000000000000000000000 DUP2 MSTORE PUSH1 0x4 ADD PUSH2 0x1B31 SWAP1 PUSH2 0x325A JUMP JUMPDEST PUSH1 0x40 MLOAD DUP1 SWAP2 SUB SWAP1 REVERT JUMPDEST DUP1 PUSH1 0x8 ADD PUSH0 SWAP1 SLOAD SWAP1 PUSH2 0x100 EXP SWAP1 DIV PUSH1 0xFF AND PUSH2 0x1B8A JUMPI PUSH1 0x40 MLOAD PUSH32 0x8C379A000000000000000000000000000000000000000000000000000000000 DUP2 MSTORE PUSH1 0x4 ADD PUSH2 0x1B81 SWAP1 PUSH2 0x32C2 JUMP JUMPDEST PUSH1 0x40 MLOAD DUP1 SWAP2 SUB SWAP1 REVERT JUMPDEST PUSH0 DUP2 PUSH1 0x8 ADD PUSH0 PUSH2 0x100 EXP DUP2 SLOAD DUP2 PUSH1 0xFF MUL NOT AND SWAP1 DUP4 ISZERO ISZERO MUL OR SWAP1 SSTORE POP DUP2 PUSH32 0x60F9B8DB8DE8D36D1B8B158B5929ED13941E7BC1DFBC4E720DF073924161491B PUSH1 0x40 MLOAD PUSH1 0x40 MLOAD DUP1 SWAP2 SUB SWAP1 LOG2 POP POP JUMP JUMPDEST PUSH1 0xB PUSH1 0x20 MSTORE DUP1 PUSH0 MSTORE PUSH1 0x40 PUSH0 KECCAK256 PUSH0 SWAP2 POP SWAP1 POP SLOAD DUP2 JUMP JUMPDEST PUSH1 0x2 PUSH1 0x1 SLOAD SUB PUSH2 0x1C27 JUMPI PUSH1 0x40 MLOAD PUSH32 0x3EE5AEB500000000000000000000000000000000000000000000000000000000 DUP2 MSTORE PUSH1 0x4 ADD PUSH1 0x40 MLOAD DUP1 SWAP2 SUB SWAP1 REVERT JUMPDEST PUSH1 0x2 PUSH1 0x1 DUP2 SWAP1 SSTORE POP JUMP JUMPDEST PUSH0 PUSH0 PUSH1 0x2 PUSH0 SWAP1 SLOAD SWAP1 PUSH2 0x100 EXP SWAP1 DIV PUSH20 0xFFFFFFFFFFFFFFFFFFFFFFFFFFFFFFFFFFFFFFFF AND PUSH20 0xFFFFFFFFFFFFFFFFFFFFFFFFFFFFFFFFFFFFFFFF AND PUSH4 0x70A08231 DUP5 PUSH1 0x40 MLOAD DUP3 PUSH4 0xFFFFFFFF AND PUSH1 0xE0 SHL DUP2 MSTORE PUSH1 0x4 ADD PUSH2 0x1C8D SWAP2 SWAP1 PUSH2 0x253C JUMP JUMPDEST PUSH1 0x20 PUSH1 0x40 MLOAD DUP1 DUP4 SUB DUP2 DUP7 GAS STATICCALL ISZERO DUP1 ISZERO PUSH2 0x1CA8 JUMPI RETURNDATASIZE PUSH0 PUSH0 RETURNDATACOPY RETURNDATASIZE PUSH0 REVERT JUMPDEST POP POP POP POP PUSH1 0x40 MLOAD RETURNDATASIZE PUSH1 0x1F NOT PUSH1 0x1F DUP3 ADD AND DUP3 ADD DUP1 PUSH1 0x40 MSTORE POP DUP2 ADD SWAP1 PUSH2 0x1CCC SWAP2 SWAP1 PUSH2 0x2836 JUMP JUMPDEST GT SWAP1 POP SWAP2 SWAP1 POP JUMP JUMPDEST PUSH1 0x1 DUP1 DUP2 SWAP1 SSTORE POP JUMP JUMPDEST PUSH2 0x1CE5 PUSH2 0x1E25 JUMP JUMPDEST PUSH20 0xFFFFFFFFFFFFFFFFFFFFFFFFFFFFFFFFFFFFFFFF AND PUSH2 0x1D03 PUSH2 0x15C9 JUMP JUMPDEST PUSH20 0xFFFFFFFFFFFFFFFFFFFFFFFFFFFFFFFFFFFFFFFF AND EQ PUSH2 0x1D62 JUMPI PUSH2 0x1D26 PUSH2 0x1E25 JUMP JUMPDEST PUSH1 0x40 MLOAD PUSH32 0x118CDAA700000000000000000000000000000000000000000000000000000000 DUP2 MSTORE PUSH1 0x4 ADD PUSH2 0x1D59 SWAP2 SWAP1 PUSH2 0x253C JUMP JUMPDEST PUSH1 0x40 MLOAD DUP1 SWAP2 SUB SWAP1 REVERT JUMPDEST JUMP JUMPDEST PUSH0 PUSH0 PUSH0 SWAP1 SLOAD SWAP1 PUSH2 0x100 EXP SWAP1 DIV PUSH20 0xFFFFFFFFFFFFFFFFFFFFFFFFFFFFFFFFFFFFFFFF AND SWAP1 POP DUP2 PUSH0 PUSH0 PUSH2 0x100 EXP DUP2 SLOAD DUP2 PUSH20 0xFFFFFFFFFFFFFFFFFFFFFFFFFFFFFFFFFFFFFFFF MUL NOT AND SWAP1 DUP4 PUSH20 0xFFFFFFFFFFFFFFFFFFFFFFFFFFFFFFFFFFFFFFFF AND MUL OR SWAP1 SSTORE POP DUP2 PUSH20 0xFFFFFFFFFFFFFFFFFFFFFFFFFFFFFFFFFFFFFFFF AND DUP2 PUSH20 0xFFFFFFFFFFFFFFFFFFFFFFFFFFFFFFFFFFFFFFFF AND PUSH32 0x8BE0079C531659141344CD1FD0A4F28419497F9722A3DAAFE3B4186F6B6457E0 PUSH1 0x40 MLOAD PUSH1 0x40 MLOAD DUP1 SWAP2 SUB SWAP1 LOG3 POP POP JUMP JUMPDEST PUSH0 CALLER SWAP1 POP SWAP1 JUMP JUMPDEST PUSH1 0x40 MLOAD DUP1 PUSH2 0x140 ADD PUSH1 0x40 MSTORE DUP1 PUSH0 DUP2 MSTORE PUSH1 0x20 ADD PUSH1 0x60 DUP2 MSTORE PUSH1 0x20 ADD PUSH1 0x60 DUP2 MSTORE PUSH1 0x20 ADD PUSH1 0x60 DUP2 MSTORE PUSH1 0x20 ADD PUSH0 PUSH20 0xFFFFFFFFFFFFFFFFFFFFFFFFFFFFFFFFFFFFFFFF AND DUP2 MSTORE PUSH1 0x20 ADD PUSH0 DUP2 MSTORE PUSH1 0x20 ADD PUSH0 DUP2 MSTORE PUSH1 0x20 ADD PUSH0 DUP2 MSTORE PUSH1 0x20 ADD PUSH0 ISZERO ISZERO DUP2 MSTORE PUSH1 0x20 ADD PUSH0 DUP2 MSTORE POP SWAP1 JUMP JUMPDEST PUSH0 PUSH1 0x40 MLOAD SWAP1 POP SWAP1 JUMP JUMPDEST PUSH0 PUSH0 REVERT JUMPDEST PUSH0 PUSH0 REVERT JUMPDEST PUSH0 DUP2 SWAP1 POP SWAP2 SWAP1 POP JUMP JUMPDEST PUSH2 0x1EB3 DUP2 PUSH2 0x1EA1 JUMP JUMPDEST DUP2 EQ PUSH2 0x1EBD JUMPI PUSH0 PUSH0 REVERT JUMPDEST POP JUMP JUMPDEST PUSH0 DUP2 CALLDATALOAD SWAP1 POP PUSH2 0x1ECE DUP2 PUSH2 0x1EAA JUMP JUMPDEST SWAP3 SWAP2 POP POP JUMP JUMPDEST PUSH0 PUSH1 0x20 DUP3 DUP5 SUB SLT ISZERO PUSH2 0x1EE9 JUMPI PUSH2 0x1EE8 PUSH2 0x1E99 JUMP JUMPDEST JUMPDEST PUSH0 PUSH2 0x1EF6 DUP5 DUP3 DUP6 ADD PUSH2 0x1EC0 JUMP JUMPDEST SWAP2 POP POP SWAP3 SWAP2 POP POP JUMP JUMPDEST PUSH2 0x1F08 DUP2 PUSH2 0x1EA1 JUMP JUMPDEST DUP3 MSTORE POP POP JUMP JUMPDEST PUSH0 DUP2 MLOAD SWAP1 POP SWAP2 SWAP1 POP JUMP JUMPDEST PUSH0 DUP3 DUP3 MSTORE PUSH1 0x20 DUP3 ADD SWAP1 POP SWAP3 SWAP2 POP POP JUMP JUMPDEST DUP3 DUP2 DUP4 MCOPY PUSH0 DUP4 DUP4 ADD MSTORE POP POP POP JUMP JUMPDEST PUSH0 PUSH1 0x1F NOT PUSH1 0x1F DUP4 ADD AND SWAP1 POP SWAP2 SWAP1 POP JUMP JUMPDEST PUSH0 PUSH2 0x1F50 DUP3 PUSH2 0x1F0E JUMP JUMPDEST PUSH2 0x1F5A DUP2 DUP6 PUSH2 0x1F18 JUMP JUMPDEST SWAP4 POP PUSH2 0x1F6A DUP2 DUP6 PUSH1 0x20 DUP7 ADD PUSH2 0x1F28 JUMP JUMPDEST PUSH2 0x1F73 DUP2 PUSH2 0x1F36 JUMP JUMPDEST DUP5 ADD SWAP2 POP POP SWAP3 SWAP2 POP POP JUMP JUMPDEST PUSH0 PUSH20 0xFFFFFFFFFFFFFFFFFFFFFFFFFFFFFFFFFFFFFFFF DUP3 AND SWAP1 POP SWAP2 SWAP1 POP JUMP JUMPDEST PUSH0 PUSH2 0x1FA7 DUP3 PUSH2 0x1F7E JUMP JUMPDEST SWAP1 POP SWAP2 SWAP1 POP JUMP JUMPDEST PUSH2 0x1FB7 DUP2 PUSH2 0x1F9D JUMP JUMPDEST DUP3 MSTORE POP POP JUMP JUMPDEST PUSH0 DUP2 ISZERO ISZERO SWAP1 POP SWAP2 SWAP1 POP JUMP JUMPDEST PUSH2 0x1FD1 DUP2 PUSH2 0x1FBD JUMP JUMPDEST DUP3 MSTORE POP POP JUMP JUMPDEST PUSH0 PUSH2 0x140 DUP4 ADD PUSH0 DUP4 ADD MLOAD PUSH2 0x1FED PUSH0 DUP7 ADD DUP3 PUSH2 0x1EFF JUMP JUMPDEST POP PUSH1 0x20 DUP4 ADD MLOAD DUP5 DUP3 SUB PUSH1 0x20 DUP7 ADD MSTORE PUSH2 0x2005 DUP3 DUP3 PUSH2 0x1F46 JUMP JUMPDEST SWAP2 POP POP PUSH1 0x40 DUP4 ADD MLOAD DUP5 DUP3 SUB PUSH1 0x40 DUP7 ADD MSTORE PUSH2 0x201F DUP3 DUP3 PUSH2 0x1F46 JUMP JUMPDEST SWAP2 POP POP PUSH1 0x60 DUP4 ADD MLOAD DUP5 DUP3 SUB PUSH1 0x60 DUP7 ADD MSTORE PUSH2 0x2039 DUP3 DUP3 PUSH2 0x1F46 JUMP JUMPDEST SWAP2 POP POP PUSH1 0x80 DUP4 ADD MLOAD PUSH2 0x204E PUSH1 0x80 DUP7 ADD DUP3 PUSH2 0x1FAE JUMP JUMPDEST POP PUSH1 0xA0 DUP4 ADD MLOAD PUSH2 0x2061 PUSH1 0xA0 DUP7 ADD DUP3 PUSH2 0x1EFF JUMP JUMPDEST POP PUSH1 0xC0 DUP4 ADD MLOAD PUSH2 0x2074 PUSH1 0xC0 DUP7 ADD DUP3 PUSH2 0x1EFF JUMP JUMPDEST POP PUSH1 0xE0 DUP4 ADD MLOAD PUSH2 0x2087 PUSH1 0xE0 DUP7 ADD DUP3 PUSH2 0x1EFF JUMP JUMPDEST POP PUSH2 0x100 DUP4 ADD MLOAD PUSH2 0x209C PUSH2 0x100 DUP7 ADD DUP3 PUSH2 0x1FC8 JUMP JUMPDEST POP PUSH2 0x120 DUP4 ADD MLOAD PUSH2 0x20B1 PUSH2 0x120 DUP7 ADD DUP3 PUSH2 0x1EFF JUMP JUMPDEST POP DUP1 SWAP2 POP POP SWAP3 SWAP2 POP POP JUMP JUMPDEST PUSH0 PUSH1 0x20 DUP3 ADD SWAP1 POP DUP2 DUP2 SUB PUSH0 DUP4 ADD MSTORE PUSH2 0x20D4 DUP2 DUP5 PUSH2 0x1FD7 JUMP JUMPDEST SWAP1 POP SWAP3 SWAP2 POP POP JUMP JUMPDEST PUSH0 PUSH0 REVERT JUMPDEST PUSH0 PUSH0 REVERT JUMPDEST PUSH32 0x4E487B7100000000000000000000000000000000000000000000000000000000 PUSH0 MSTORE PUSH1 0x41 PUSH1 0x4 MSTORE PUSH1 0x24 PUSH0 REVERT JUMPDEST PUSH2 0x211A DUP3 PUSH2 0x1F36 JUMP JUMPDEST DUP2 ADD DUP2 DUP2 LT PUSH8 0xFFFFFFFFFFFFFFFF DUP3 GT OR ISZERO PUSH2 0x2139 JUMPI PUSH2 0x2138 PUSH2 0x20E4 JUMP JUMPDEST JUMPDEST DUP1 PUSH1 0x40 MSTORE POP POP POP JUMP JUMPDEST PUSH0 PUSH2 0x214B PUSH2 0x1E90 JUMP JUMPDEST SWAP1 POP PUSH2 0x2157 DUP3 DUP3 PUSH2 0x2111 JUMP JUMPDEST SWAP2 SWAP1 POP JUMP JUMPDEST PUSH0 PUSH8 0xFFFFFFFFFFFFFFFF DUP3 GT ISZERO PUSH2 0x2176 JUMPI PUSH2 0x2175 PUSH2 0x20E4 JUMP JUMPDEST JUMPDEST PUSH2 0x217F DUP3 PUSH2 0x1F36 JUMP JUMPDEST SWAP1 POP PUSH1 0x20 DUP2 ADD SWAP1 POP SWAP2 SWAP1 POP JUMP JUMPDEST DUP3 DUP2 DUP4 CALLDATACOPY PUSH0 DUP4 DUP4 ADD MSTORE POP POP POP JUMP JUMPDEST PUSH0 PUSH2 0x21AC PUSH2 0x21A7 DUP5 PUSH2 0x215C JUMP JUMPDEST PUSH2 0x2142 JUMP JUMPDEST SWAP1 POP DUP3 DUP2 MSTORE PUSH1 0x20 DUP2 ADD DUP5 DUP5 DUP5 ADD GT ISZERO PUSH2 0x21C8 JUMPI PUSH2 0x21C7 PUSH2 0x20E0 JUMP JUMPDEST JUMPDEST PUSH2 0x21D3 DUP5 DUP3 DUP6 PUSH2 0x218C JUMP JUMPDEST POP SWAP4 SWAP3 POP POP POP JUMP JUMPDEST PUSH0 DUP3 PUSH1 0x1F DUP4 ADD SLT PUSH2 0x21EF JUMPI PUSH2 0x21EE PUSH2 0x20DC JUMP JUMPDEST JUMPDEST DUP2 CALLDATALOAD PUSH2 0x21FF DUP5 DUP3 PUSH1 0x20 DUP7 ADD PUSH2 0x219A JUMP JUMPDEST SWAP2 POP POP SWAP3 SWAP2 POP POP JUMP JUMPDEST PUSH0 PUSH0 PUSH0 PUSH0 PUSH1 0x80 DUP6 DUP8 SUB SLT ISZERO PUSH2 0x2220 JUMPI PUSH2 0x221F PUSH2 0x1E99 JUMP JUMPDEST JUMPDEST PUSH0 DUP6 ADD CALLDATALOAD PUSH8 0xFFFFFFFFFFFFFFFF DUP2 GT ISZERO PUSH2 0x223D JUMPI PUSH2 0x223C PUSH2 0x1E9D JUMP JUMPDEST JUMPDEST PUSH2 0x2249 DUP8 DUP3 DUP9 ADD PUSH2 0x21DB JUMP JUMPDEST SWAP5 POP POP PUSH1 0x20 DUP6 ADD CALLDATALOAD PUSH8 0xFFFFFFFFFFFFFFFF DUP2 GT ISZERO PUSH2 0x226A JUMPI PUSH2 0x2269 PUSH2 0x1E9D JUMP JUMPDEST JUMPDEST PUSH2 0x2276 DUP8 DUP3 DUP9 ADD PUSH2 0x21DB JUMP JUMPDEST SWAP4 POP POP PUSH1 0x40 DUP6 ADD CALLDATALOAD PUSH8 0xFFFFFFFFFFFFFFFF DUP2 GT ISZERO PUSH2 0x2297 JUMPI PUSH2 0x2296 PUSH2 0x1E9D JUMP JUMPDEST JUMPDEST PUSH2 0x22A3 DUP8 DUP3 DUP9 ADD PUSH2 0x21DB JUMP JUMPDEST SWAP3 POP POP PUSH1 0x60 PUSH2 0x22B4 DUP8 DUP3 DUP9 ADD PUSH2 0x1EC0 JUMP JUMPDEST SWAP2 POP POP SWAP3 SWAP6 SWAP2 SWAP5 POP SWAP3 POP JUMP JUMPDEST PUSH0 PUSH0 PUSH0 PUSH1 0x60 DUP5 DUP7 SUB SLT ISZERO PUSH2 0x22D7 JUMPI PUSH2 0x22D6 PUSH2 0x1E99 JUMP JUMPDEST JUMPDEST PUSH0 PUSH2 0x22E4 DUP7 DUP3 DUP8 ADD PUSH2 0x1EC0 JUMP JUMPDEST SWAP4 POP POP PUSH1 0x20 PUSH2 0x22F5 DUP7 DUP3 DUP8 ADD PUSH2 0x1EC0 JUMP JUMPDEST SWAP3 POP POP PUSH1 0x40 PUSH2 0x2306 DUP7 DUP3 DUP8 ADD PUSH2 0x1EC0 JUMP JUMPDEST SWAP2 POP POP SWAP3 POP SWAP3 POP SWAP3 JUMP JUMPDEST PUSH2 0x2319 DUP2 PUSH2 0x1EA1 JUMP JUMPDEST DUP3 MSTORE POP POP JUMP JUMPDEST PUSH0 PUSH1 0x20 DUP3 ADD SWAP1 POP PUSH2 0x2332 PUSH0 DUP4 ADD DUP5 PUSH2 0x2310 JUMP JUMPDEST SWAP3 SWAP2 POP POP JUMP JUMPDEST PUSH0 PUSH1 0x80 DUP3 ADD SWAP1 POP PUSH2 0x234B PUSH0 DUP4 ADD DUP8 PUSH2 0x2310 JUMP JUMPDEST PUSH2 0x2358 PUSH1 0x20 DUP4 ADD DUP7 PUSH2 0x2310 JUMP JUMPDEST PUSH2 0x2365 PUSH1 0x40 DUP4 ADD DUP6 PUSH2 0x2310 JUMP JUMPDEST PUSH2 0x2372 PUSH1 0x60 DUP4 ADD DUP5 PUSH2 0x2310 JUMP JUMPDEST SWAP6 SWAP5 POP POP POP POP POP JUMP JUMPDEST PUSH0 DUP3 DUP3 MSTORE PUSH1 0x20 DUP3 ADD SWAP1 POP SWAP3 SWAP2 POP POP JUMP JUMPDEST PUSH0 PUSH2 0x2395 DUP3 PUSH2 0x1F0E JUMP JUMPDEST PUSH2 0x239F DUP2 DUP6 PUSH2 0x237B JUMP JUMPDEST SWAP4 POP PUSH2 0x23AF DUP2 DUP6 PUSH1 0x20 DUP7 ADD PUSH2 0x1F28 JUMP JUMPDEST PUSH2 0x23B8 DUP2 PUSH2 0x1F36 JUMP JUMPDEST DUP5 ADD SWAP2 POP POP SWAP3 SWAP2 POP POP JUMP JUMPDEST PUSH2 0x23CC DUP2 PUSH2 0x1F9D JUMP JUMPDEST DUP3 MSTORE POP POP JUMP JUMPDEST PUSH2 0x23DB DUP2 PUSH2 0x1FBD JUMP JUMPDEST DUP3 MSTORE POP POP JUMP JUMPDEST PUSH0 PUSH2 0x140 DUP3 ADD SWAP1 POP PUSH2 0x23F5 PUSH0 DUP4 ADD DUP14 PUSH2 0x2310 JUMP JUMPDEST DUP2 DUP2 SUB PUSH1 0x20 DUP4 ADD MSTORE PUSH2 0x2407 DUP2 DUP13 PUSH2 0x238B JUMP JUMPDEST SWAP1 POP DUP2 DUP2 SUB PUSH1 0x40 DUP4 ADD MSTORE PUSH2 0x241B DUP2 DUP12 PUSH2 0x238B JUMP JUMPDEST SWAP1 POP DUP2 DUP2 SUB PUSH1 0x60 DUP4 ADD MSTORE PUSH2 0x242F DUP2 DUP11 PUSH2 0x238B JUMP JUMPDEST SWAP1 POP PUSH2 0x243E PUSH1 0x80 DUP4 ADD DUP10 PUSH2 0x23C3 JUMP JUMPDEST PUSH2 0x244B PUSH1 0xA0 DUP4 ADD DUP9 PUSH2 0x2310 JUMP JUMPDEST PUSH2 0x2458 PUSH1 0xC0 DUP4 ADD DUP8 PUSH2 0x2310 JUMP JUMPDEST PUSH2 0x2465 PUSH1 0xE0 DUP4 ADD DUP7 PUSH2 0x2310 JUMP JUMPDEST PUSH2 0x2473 PUSH2 0x100 DUP4 ADD DUP6 PUSH2 0x23D2 JUMP JUMPDEST PUSH2 0x2481 PUSH2 0x120 DUP4 ADD DUP5 PUSH2 0x2310 JUMP JUMPDEST SWAP12 SWAP11 POP POP POP POP POP POP POP POP POP POP POP JUMP JUMPDEST PUSH2 0x2499 DUP2 PUSH2 0x1F9D JUMP JUMPDEST DUP2 EQ PUSH2 0x24A3 JUMPI PUSH0 PUSH0 REVERT JUMPDEST POP JUMP JUMPDEST PUSH0 DUP2 CALLDATALOAD SWAP1 POP PUSH2 0x24B4 DUP2 PUSH2 0x2490 JUMP JUMPDEST SWAP3 SWAP2 POP POP JUMP JUMPDEST PUSH0 PUSH1 0x20 DUP3 DUP5 SUB SLT ISZERO PUSH2 0x24CF JUMPI PUSH2 0x24CE PUSH2 0x1E99 JUMP JUMPDEST JUMPDEST PUSH0 PUSH2 0x24DC DUP5 DUP3 DUP6 ADD PUSH2 0x24A6 JUMP JUMPDEST SWAP2 POP POP SWAP3 SWAP2 POP POP JUMP JUMPDEST PUSH0 PUSH0 PUSH1 0x40 DUP4 DUP6 SUB SLT ISZERO PUSH2 0x24FB JUMPI PUSH2 0x24FA PUSH2 0x1E99 JUMP JUMPDEST JUMPDEST PUSH0 PUSH2 0x2508 DUP6 DUP3 DUP7 ADD PUSH2 0x1EC0 JUMP JUMPDEST SWAP3 POP POP PUSH1 0x20 PUSH2 0x2519 DUP6 DUP3 DUP7 ADD PUSH2 0x24A6 JUMP JUMPDEST SWAP2 POP POP SWAP3 POP SWAP3 SWAP1 POP JUMP JUMPDEST PUSH0 PUSH1 0x20 DUP3 ADD SWAP1 POP PUSH2 0x2536 PUSH0 DUP4 ADD DUP5 PUSH2 0x23D2 JUMP JUMPDEST SWAP3 SWAP2 POP POP JUMP JUMPDEST PUSH0 PUSH1 0x20 DUP3 ADD SWAP1 POP PUSH2 0x254F PUSH0 DUP4 ADD DUP5 PUSH2 0x23C3 JUMP JUMPDEST SWAP3 SWAP2 POP POP JUMP JUMPDEST PUSH32 0x5065746974696F6E20646F6573206E6F74206578697374000000000000000000 PUSH0 DUP3 ADD MSTORE POP JUMP JUMPDEST PUSH0 PUSH2 0x2589 PUSH1 0x17 DUP4 PUSH2 0x237B JUMP JUMPDEST SWAP2 POP PUSH2 0x2594 DUP3 PUSH2 0x2555 JUMP JUMPDEST PUSH1 0x20 DUP3 ADD SWAP1 POP SWAP2 SWAP1 POP JUMP JUMPDEST PUSH0 PUSH1 0x20 DUP3 ADD SWAP1 POP DUP2 DUP2 SUB PUSH0 DUP4 ADD MSTORE PUSH2 0x25B6 DUP2 PUSH2 0x257D JUMP JUMPDEST SWAP1 POP SWAP2 SWAP1 POP JUMP JUMPDEST PUSH32 0x4E487B7100000000000000000000000000000000000000000000000000000000 PUSH0 MSTORE PUSH1 0x22 PUSH1 0x4 MSTORE PUSH1 0x24 PUSH0 REVERT JUMPDEST PUSH0 PUSH1 0x2 DUP3 DIV SWAP1 POP PUSH1 0x1 DUP3 AND DUP1 PUSH2 0x2601 JUMPI PUSH1 0x7F DUP3 AND SWAP2 POP JUMPDEST PUSH1 0x20 DUP3 LT DUP2 SUB PUSH2 0x2614 JUMPI PUSH2 0x2613 PUSH2 0x25BD JUMP JUMPDEST JUMPDEST POP SWAP2 SWAP1 POP JUMP JUMPDEST PUSH32 0x4E6F7420612044414F206D656D62657200000000000000000000000000000000 PUSH0 DUP3 ADD MSTORE POP JUMP JUMPDEST PUSH0 PUSH2 0x264E PUSH1 0x10 DUP4 PUSH2 0x237B JUMP JUMPDEST SWAP2 POP PUSH2 0x2659 DUP3 PUSH2 0x261A JUMP JUMPDEST PUSH1 0x20 DUP3 ADD SWAP1 POP SWAP2 SWAP1 POP JUMP JUMPDEST PUSH0 PUSH1 0x20 DUP3 ADD SWAP1 POP DUP2 DUP2 SUB PUSH0 DUP4 ADD MSTORE PUSH2 0x267B DUP2 PUSH2 0x2642 JUMP JUMPDEST SWAP1 POP SWAP2 SWAP1 POP JUMP JUMPDEST PUSH32 0x5469746C652063616E6E6F7420626520656D7074790000000000000000000000 PUSH0 DUP3 ADD MSTORE POP JUMP JUMPDEST PUSH0 PUSH2 0x26B6 PUSH1 0x15 DUP4 PUSH2 0x237B JUMP JUMPDEST SWAP2 POP PUSH2 0x26C1 DUP3 PUSH2 0x2682 JUMP JUMPDEST PUSH1 0x20 DUP3 ADD SWAP1 POP SWAP2 SWAP1 POP JUMP JUMPDEST PUSH0 PUSH1 0x20 DUP3 ADD SWAP1 POP DUP2 DUP2 SUB PUSH0 DUP4 ADD MSTORE PUSH2 0x26E3 DUP2 PUSH2 0x26AA JUMP JUMPDEST SWAP1 POP SWAP2 SWAP1 POP JUMP JUMPDEST PUSH32 0x4465736372697074696F6E2063616E6E6F7420626520656D7074790000000000 PUSH0 DUP3 ADD MSTORE POP JUMP JUMPDEST PUSH0 PUSH2 0x271E PUSH1 0x1B DUP4 PUSH2 0x237B JUMP JUMPDEST SWAP2 POP PUSH2 0x2729 DUP3 PUSH2 0x26EA JUMP JUMPDEST PUSH1 0x20 DUP3 ADD SWAP1 POP SWAP2 SWAP1 POP JUMP JUMPDEST PUSH0 PUSH1 0x20 DUP3 ADD SWAP1 POP DUP2 DUP2 SUB PUSH0 DUP4 ADD MSTORE PUSH2 0x274B DUP2 PUSH2 0x2712 JUMP JUMPDEST SWAP1 POP SWAP2 SWAP1 POP JUMP JUMPDEST PUSH32 0x496D61676520686173682063616E6E6F7420626520656D707479000000000000 PUSH0 DUP3 ADD MSTORE POP JUMP JUMPDEST PUSH0 PUSH2 0x2786 PUSH1 0x1A DUP4 PUSH2 0x237B JUMP JUMPDEST SWAP2 POP PUSH2 0x2791 DUP3 PUSH2 0x2752 JUMP JUMPDEST PUSH1 0x20 DUP3 ADD SWAP1 POP SWAP2 SWAP1 POP JUMP JUMPDEST PUSH0 PUSH1 0x20 DUP3 ADD SWAP1 POP DUP2 DUP2 SUB PUSH0 DUP4 ADD MSTORE PUSH2 0x27B3 DUP2 PUSH2 0x277A JUMP JUMPDEST SWAP1 POP SWAP2 SWAP1 POP JUMP JUMPDEST PUSH32 0x4475726174696F6E206D75737420626520312D33363520646179730000000000 PUSH0 DUP3 ADD MSTORE POP JUMP JUMPDEST PUSH0 PUSH2 0x27EE PUSH1 0x1B DUP4 PUSH2 0x237B JUMP JUMPDEST SWAP2 POP PUSH2 0x27F9 DUP3 PUSH2 0x27BA JUMP JUMPDEST PUSH1 0x20 DUP3 ADD SWAP1 POP SWAP2 SWAP1 POP JUMP JUMPDEST PUSH0 PUSH1 0x20 DUP3 ADD SWAP1 POP DUP2 DUP2 SUB PUSH0 DUP4 ADD MSTORE PUSH2 0x281B DUP2 PUSH2 0x27E2 JUMP JUMPDEST SWAP1 POP SWAP2 SWAP1 POP JUMP JUMPDEST PUSH0 DUP2 MLOAD SWAP1 POP PUSH2 0x2830 DUP2 PUSH2 0x1EAA JUMP JUMPDEST SWAP3 SWAP2 POP POP JUMP JUMPDEST PUSH0 PUSH1 0x20 DUP3 DUP5 SUB SLT ISZERO PUSH2 0x284B JUMPI PUSH2 0x284A PUSH2 0x1E99 JUMP JUMPDEST JUMPDEST PUSH0 PUSH2 0x2858 DUP5 DUP3 DUP6 ADD PUSH2 0x2822 JUMP JUMPDEST SWAP2 POP POP SWAP3 SWAP2 POP POP JUMP JUMPDEST PUSH0 DUP2 SWAP1 POP SWAP2 SWAP1 POP JUMP JUMPDEST PUSH0 PUSH8 0xFFFFFFFFFFFFFFFF DUP3 AND SWAP1 POP SWAP2 SWAP1 POP JUMP JUMPDEST PUSH0 DUP2 SWAP1 POP SWAP2 SWAP1 POP JUMP JUMPDEST PUSH0 PUSH2 0x28A0 PUSH2 0x289B PUSH2 0x2896 DUP5 PUSH2 0x2861 JUMP JUMPDEST PUSH2 0x287D JUMP JUMPDEST PUSH2 0x286A JUMP JUMPDEST SWAP1 POP SWAP2 SWAP1 POP JUMP JUMPDEST PUSH2 0x28B0 DUP2 PUSH2 0x2886 JUMP JUMPDEST DUP3 MSTORE POP POP JUMP JUMPDEST PUSH0 PUSH1 0x40 DUP3 ADD SWAP1 POP PUSH2 0x28C9 PUSH0 DUP4 ADD DUP6 PUSH2 0x23C3 JUMP JUMPDEST PUSH2 0x28D6 PUSH1 0x20 DUP4 ADD DUP5 PUSH2 0x28A7 JUMP JUMPDEST SWAP4 SWAP3 POP POP POP JUMP JUMPDEST PUSH0 DUP2 MLOAD SWAP1 POP SWAP2 SWAP1 POP JUMP JUMPDEST PUSH0 DUP2 SWAP1 POP SWAP3 SWAP2 POP POP JUMP JUMPDEST PUSH0 PUSH2 0x28FB DUP3 PUSH2 0x28DD JUMP JUMPDEST PUSH2 0x2905 DUP2 DUP6 PUSH2 0x28E7 JUMP JUMPDEST SWAP4 POP PUSH2 0x2915 DUP2 DUP6 PUSH1 0x20 DUP7 ADD PUSH2 0x1F28 JUMP JUMPDEST DUP1 DUP5 ADD SWAP2 POP POP SWAP3 SWAP2 POP POP JUMP JUMPDEST PUSH0 PUSH2 0x292C DUP3 DUP5 PUSH2 0x28F1 JUMP JUMPDEST SWAP2 POP DUP2 SWAP1 POP SWAP3 SWAP2 POP POP JUMP JUMPDEST PUSH32 0x546F6B656E206275726E206661696C6564000000000000000000000000000000 PUSH0 DUP3 ADD MSTORE POP JUMP JUMPDEST PUSH0 PUSH2 0x296B PUSH1 0x11 DUP4 PUSH2 0x237B JUMP JUMPDEST SWAP2 POP PUSH2 0x2976 DUP3 PUSH2 0x2937 JUMP JUMPDEST PUSH1 0x20 DUP3 ADD SWAP1 POP SWAP2 SWAP1 POP JUMP JUMPDEST PUSH0 PUSH1 0x20 DUP3 ADD SWAP1 POP DUP2 DUP2 SUB PUSH0 DUP4 ADD MSTORE PUSH2 0x2998 DUP2 PUSH2 0x295F JUMP JUMPDEST SWAP1 POP SWAP2 SWAP1 POP JUMP JUMPDEST PUSH32 0x496E73756666696369656E742066656500000000000000000000000000000000 PUSH0 DUP3 ADD MSTORE POP JUMP JUMPDEST PUSH0 PUSH2 0x29D3 PUSH1 0x10 DUP4 PUSH2 0x237B JUMP JUMPDEST SWAP2 POP PUSH2 0x29DE DUP3 PUSH2 0x299F JUMP JUMPDEST PUSH1 0x20 DUP3 ADD SWAP1 POP SWAP2 SWAP1 POP JUMP JUMPDEST PUSH0 PUSH1 0x20 DUP3 ADD SWAP1 POP DUP2 DUP2 SUB PUSH0 DUP4 ADD MSTORE PUSH2 0x2A00 DUP2 PUSH2 0x29C7 JUMP JUMPDEST SWAP1 POP SWAP2 SWAP1 POP JUMP JUMPDEST PUSH32 0x4E487B7100000000000000000000000000000000000000000000000000000000 PUSH0 MSTORE PUSH1 0x11 PUSH1 0x4 MSTORE PUSH1 0x24 PUSH0 REVERT JUMPDEST PUSH0 PUSH2 0x2A3E DUP3 PUSH2 0x1EA1 JUMP JUMPDEST SWAP2 POP PUSH32 0xFFFFFFFFFFFFFFFFFFFFFFFFFFFFFFFFFFFFFFFFFFFFFFFFFFFFFFFFFFFFFFFF DUP3 SUB PUSH2 0x2A70 JUMPI PUSH2 0x2A6F PUSH2 0x2A07 JUMP JUMPDEST JUMPDEST PUSH1 0x1 DUP3 ADD SWAP1 POP SWAP2 SWAP1 POP JUMP JUMPDEST PUSH32 0x4E487B7100000000000000000000000000000000000000000000000000000000 PUSH0 MSTORE PUSH1 0x12 PUSH1 0x4 MSTORE PUSH1 0x24 PUSH0 REVERT JUMPDEST PUSH0 PUSH2 0x2AB2 DUP3 PUSH2 0x1EA1 JUMP JUMPDEST SWAP2 POP PUSH2 0x2ABD DUP4 PUSH2 0x1EA1 JUMP JUMPDEST SWAP3 POP DUP3 PUSH2 0x2ACD JUMPI PUSH2 0x2ACC PUSH2 0x2A7B JUMP JUMPDEST JUMPDEST DUP3 DUP3 MOD SWAP1 POP SWAP3 SWAP2 POP POP JUMP JUMPDEST PUSH32 0x546F6B656E206D696E74206661696C6564000000000000000000000000000000 PUSH0 DUP3 ADD MSTORE POP JUMP JUMPDEST PUSH0 PUSH2 0x2B0C PUSH1 0x11 DUP4 PUSH2 0x237B JUMP JUMPDEST SWAP2 POP PUSH2 0x2B17 DUP3 PUSH2 0x2AD8 JUMP JUMPDEST PUSH1 0x20 DUP3 ADD SWAP1 POP SWAP2 SWAP1 POP JUMP JUMPDEST PUSH0 PUSH1 0x20 DUP3 ADD SWAP1 POP DUP2 DUP2 SUB PUSH0 DUP4 ADD MSTORE PUSH2 0x2B39 DUP2 PUSH2 0x2B00 JUMP JUMPDEST SWAP1 POP SWAP2 SWAP1 POP JUMP JUMPDEST PUSH0 PUSH2 0x2B5A PUSH2 0x2B55 PUSH2 0x2B50 DUP5 PUSH2 0x2861 JUMP JUMPDEST PUSH2 0x287D JUMP JUMPDEST PUSH2 0x1EA1 JUMP JUMPDEST SWAP1 POP SWAP2 SWAP1 POP JUMP JUMPDEST PUSH2 0x2B6A DUP2 PUSH2 0x2B40 JUMP JUMPDEST DUP3 MSTORE POP POP JUMP JUMPDEST PUSH0 PUSH1 0x20 DUP3 ADD SWAP1 POP PUSH2 0x2B83 PUSH0 DUP4 ADD DUP5 PUSH2 0x2B61 JUMP JUMPDEST SWAP3 SWAP2 POP POP JUMP JUMPDEST PUSH0 PUSH2 0x2B93 DUP3 PUSH2 0x1EA1 JUMP JUMPDEST SWAP2 POP PUSH2 0x2B9E DUP4 PUSH2 0x1EA1 JUMP JUMPDEST SWAP3 POP DUP3 DUP3 MUL PUSH2 0x2BAC DUP2 PUSH2 0x1EA1 JUMP JUMPDEST SWAP2 POP DUP3 DUP3 DIV DUP5 EQ DUP4 ISZERO OR PUSH2 0x2BC3 JUMPI PUSH2 0x2BC2 PUSH2 0x2A07 JUMP JUMPDEST JUMPDEST POP SWAP3 SWAP2 POP POP JUMP JUMPDEST PUSH0 PUSH2 0x2BD4 DUP3 PUSH2 0x1EA1 JUMP JUMPDEST SWAP2 POP PUSH2 0x2BDF DUP4 PUSH2 0x1EA1 JUMP JUMPDEST SWAP3 POP DUP3 DUP3 ADD SWAP1 POP DUP1 DUP3 GT ISZERO PUSH2 0x2BF7 JUMPI PUSH2 0x2BF6 PUSH2 0x2A07 JUMP JUMPDEST JUMPDEST SWAP3 SWAP2 POP POP JUMP JUMPDEST PUSH0 DUP2 SWAP1 POP DUP2 PUSH0 MSTORE PUSH1 0x20 PUSH0 KECCAK256 SWAP1 POP SWAP2 SWAP1 POP JUMP JUMPDEST PUSH0 PUSH1 0x20 PUSH1 0x1F DUP4 ADD DIV SWAP1 POP SWAP2 SWAP1 POP JUMP JUMPDEST PUSH0 DUP3 DUP3 SHL SWAP1 POP SWAP3 SWAP2 POP POP JUMP JUMPDEST PUSH0 PUSH1 0x8 DUP4 MUL PUSH2 0x2C59 PUSH32 0xFFFFFFFFFFFFFFFFFFFFFFFFFFFFFFFFFFFFFFFFFFFFFFFFFFFFFFFFFFFFFFFF DUP3 PUSH2 0x2C1E JUMP JUMPDEST PUSH2 0x2C63 DUP7 DUP4 PUSH2 0x2C1E JUMP JUMPDEST SWAP6 POP DUP1 NOT DUP5 AND SWAP4 POP DUP1 DUP7 AND DUP5 OR SWAP3 POP POP POP SWAP4 SWAP3 POP POP POP JUMP JUMPDEST PUSH0 PUSH2 0x2C95 PUSH2 0x2C90 PUSH2 0x2C8B DUP5 PUSH2 0x1EA1 JUMP JUMPDEST PUSH2 0x287D JUMP JUMPDEST PUSH2 0x1EA1 JUMP JUMPDEST SWAP1 POP SWAP2 SWAP1 POP JUMP JUMPDEST PUSH0 DUP2 SWAP1 POP SWAP2 SWAP1 POP JUMP JUMPDEST PUSH2 0x2CAE DUP4 PUSH2 0x2C7B JUMP JUMPDEST PUSH2 0x2CC2 PUSH2 0x2CBA DUP3 PUSH2 0x2C9C JUMP JUMPDEST DUP5 DUP5 SLOAD PUSH2 0x2C2A JUMP JUMPDEST DUP3 SSTORE POP POP POP POP JUMP JUMPDEST PUSH0 PUSH0 SWAP1 POP SWAP1 JUMP JUMPDEST PUSH2 0x2CD9 PUSH2 0x2CCA JUMP JUMPDEST PUSH2 0x2CE4 DUP2 DUP5 DUP5 PUSH2 0x2CA5 JUMP JUMPDEST POP POP POP JUMP JUMPDEST JUMPDEST DUP2 DUP2 LT ISZERO PUSH2 0x2D07 JUMPI PUSH2 0x2CFC PUSH0 DUP3 PUSH2 0x2CD1 JUMP JUMPDEST PUSH1 0x1 DUP2 ADD SWAP1 POP PUSH2 0x2CEA JUMP JUMPDEST POP POP JUMP JUMPDEST PUSH1 0x1F DUP3 GT ISZERO PUSH2 0x2D4C JUMPI PUSH2 0x2D1D DUP2 PUSH2 0x2BFD JUMP JUMPDEST PUSH2 0x2D26 DUP5 PUSH2 0x2C0F JUMP JUMPDEST DUP2 ADD PUSH1 0x20 DUP6 LT ISZERO PUSH2 0x2D35 JUMPI DUP2 SWAP1 POP JUMPDEST PUSH2 0x2D49 PUSH2 0x2D41 DUP6 PUSH2 0x2C0F JUMP JUMPDEST DUP4 ADD DUP3 PUSH2 0x2CE9 JUMP JUMPDEST POP POP JUMPDEST POP POP POP JUMP JUMPDEST PUSH0 DUP3 DUP3 SHR SWAP1 POP SWAP3 SWAP2 POP POP JUMP JUMPDEST PUSH0 PUSH2 0x2D6C PUSH0 NOT DUP5 PUSH1 0x8 MUL PUSH2 0x2D51 JUMP JUMPDEST NOT DUP1 DUP4 AND SWAP2 POP POP SWAP3 SWAP2 POP POP JUMP JUMPDEST PUSH0 PUSH2 0x2D84 DUP4 DUP4 PUSH2 0x2D5D JUMP JUMPDEST SWAP2 POP DUP3 PUSH1 0x2 MUL DUP3 OR SWAP1 POP SWAP3 SWAP2 POP POP JUMP JUMPDEST PUSH2 0x2D9D DUP3 PUSH2 0x1F0E JUMP JUMPDEST PUSH8 0xFFFFFFFFFFFFFFFF DUP2 GT ISZERO PUSH2 0x2DB6 JUMPI PUSH2 0x2DB5 PUSH2 0x20E4 JUMP JUMPDEST JUMPDEST PUSH2 0x2DC0 DUP3 SLOAD PUSH2 0x25EA JUMP JUMPDEST PUSH2 0x2DCB DUP3 DUP3 DUP6 PUSH2 0x2D0B JUMP JUMPDEST PUSH0 PUSH1 0x20 SWAP1 POP PUSH1 0x1F DUP4 GT PUSH1 0x1 DUP2 EQ PUSH2 0x2DFC JUMPI PUSH0 DUP5 ISZERO PUSH2 0x2DEA JUMPI DUP3 DUP8 ADD MLOAD SWAP1 POP JUMPDEST PUSH2 0x2DF4 DUP6 DUP3 PUSH2 0x2D79 JUMP JUMPDEST DUP7 SSTORE POP PUSH2 0x2E5B JUMP JUMPDEST PUSH1 0x1F NOT DUP5 AND PUSH2 0x2E0A DUP7 PUSH2 0x2BFD JUMP JUMPDEST PUSH0 JUMPDEST DUP3 DUP2 LT ISZERO PUSH2 0x2E31 JUMPI DUP5 DUP10 ADD MLOAD DUP3 SSTORE PUSH1 0x1 DUP3 ADD SWAP2 POP PUSH1 0x20 DUP6 ADD SWAP5 POP PUSH1 0x20 DUP2 ADD SWAP1 POP PUSH2 0x2E0C JUMP JUMPDEST DUP7 DUP4 LT ISZERO PUSH2 0x2E4E JUMPI DUP5 DUP10 ADD MLOAD PUSH2 0x2E4A PUSH1 0x1F DUP10 AND DUP3 PUSH2 0x2D5D JUMP JUMPDEST DUP4 SSTORE POP JUMPDEST PUSH1 0x1 PUSH1 0x2 DUP9 MUL ADD DUP9 SSTORE POP POP POP JUMPDEST POP POP POP POP POP POP JUMP JUMPDEST PUSH0 PUSH1 0xC0 DUP3 ADD SWAP1 POP DUP2 DUP2 SUB PUSH0 DUP4 ADD MSTORE PUSH2 0x2E7B DUP2 DUP10 PUSH2 0x238B JUMP JUMPDEST SWAP1 POP DUP2 DUP2 SUB PUSH1 0x20 DUP4 ADD MSTORE PUSH2 0x2E8F DUP2 DUP9 PUSH2 0x238B JUMP JUMPDEST SWAP1 POP PUSH2 0x2E9E PUSH1 0x40 DUP4 ADD DUP8 PUSH2 0x2310 JUMP JUMPDEST PUSH2 0x2EAB PUSH1 0x60 DUP4 ADD DUP7 PUSH2 0x2310 JUMP JUMPDEST PUSH2 0x2EB8 PUSH1 0x80 DUP4 ADD DUP6 PUSH2 0x23D2 JUMP JUMPDEST PUSH2 0x2EC5 PUSH1 0xA0 DUP4 ADD DUP5 PUSH2 0x2310 JUMP JUMPDEST SWAP8 SWAP7 POP POP POP POP POP POP POP JUMP JUMPDEST PUSH32 0x42617365206475726174696F6E206D757374206265203E203000000000000000 PUSH0 DUP3 ADD MSTORE POP JUMP JUMPDEST PUSH0 PUSH2 0x2F04 PUSH1 0x19 DUP4 PUSH2 0x237B JUMP JUMPDEST SWAP2 POP PUSH2 0x2F0F DUP3 PUSH2 0x2ED0 JUMP JUMPDEST PUSH1 0x20 DUP3 ADD SWAP1 POP SWAP2 SWAP1 POP JUMP JUMPDEST PUSH0 PUSH1 0x20 DUP3 ADD SWAP1 POP DUP2 DUP2 SUB PUSH0 DUP4 ADD MSTORE PUSH2 0x2F31 DUP2 PUSH2 0x2EF8 JUMP JUMPDEST SWAP1 POP SWAP2 SWAP1 POP JUMP JUMPDEST PUSH0 PUSH1 0x60 DUP3 ADD SWAP1 POP PUSH2 0x2F4B PUSH0 DUP4 ADD DUP7 PUSH2 0x2310 JUMP JUMPDEST PUSH2 0x2F58 PUSH1 0x20 DUP4 ADD DUP6 PUSH2 0x2310 JUMP JUMPDEST PUSH2 0x2F65 PUSH1 0x40 DUP4 ADD DUP5 PUSH2 0x2310 JUMP JUMPDEST SWAP5 SWAP4 POP POP POP POP JUMP JUMPDEST PUSH32 0x4E6F2062616C616E636520746F20776974686472617700000000000000000000 PUSH0 DUP3 ADD MSTORE POP JUMP JUMPDEST PUSH0 PUSH2 0x2FA1 PUSH1 0x16 DUP4 PUSH2 0x237B JUMP JUMPDEST SWAP2 POP PUSH2 0x2FAC DUP3 PUSH2 0x2F6D JUMP JUMPDEST PUSH1 0x20 DUP3 ADD SWAP1 POP SWAP2 SWAP1 POP JUMP JUMPDEST PUSH0 PUSH1 0x20 DUP3 ADD SWAP1 POP DUP2 DUP2 SUB PUSH0 DUP4 ADD MSTORE PUSH2 0x2FCE DUP2 PUSH2 0x2F95 JUMP JUMPDEST SWAP1 POP SWAP2 SWAP1 POP JUMP JUMPDEST PUSH32 0x496E76616C6964207468726573686F6C64000000000000000000000000000000 PUSH0 DUP3 ADD MSTORE POP JUMP JUMPDEST PUSH0 PUSH2 0x3009 PUSH1 0x11 DUP4 PUSH2 0x237B JUMP JUMPDEST SWAP2 POP PUSH2 0x3014 DUP3 PUSH2 0x2FD5 JUMP JUMPDEST PUSH1 0x20 DUP3 ADD SWAP1 POP SWAP2 SWAP1 POP JUMP JUMPDEST PUSH0 PUSH1 0x20 DUP3 ADD SWAP1 POP DUP2 DUP2 SUB PUSH0 DUP4 ADD MSTORE PUSH2 0x3036 DUP2 PUSH2 0x2FFD JUMP JUMPDEST SWAP1 POP SWAP2 SWAP1 POP JUMP JUMPDEST PUSH32 0x496E76616C6964206475726174696F6E00000000000000000000000000000000 PUSH0 DUP3 ADD MSTORE POP JUMP JUMPDEST PUSH0 PUSH2 0x3071 PUSH1 0x10 DUP4 PUSH2 0x237B JUMP JUMPDEST SWAP2 POP PUSH2 0x307C DUP3 PUSH2 0x303D JUMP JUMPDEST PUSH1 0x20 DUP3 ADD SWAP1 POP SWAP2 SWAP1 POP JUMP JUMPDEST PUSH0 PUSH1 0x20 DUP3 ADD SWAP1 POP DUP2 DUP2 SUB PUSH0 DUP4 ADD MSTORE PUSH2 0x309E DUP2 PUSH2 0x3065 JUMP JUMPDEST SWAP1 POP SWAP2 SWAP1 POP JUMP JUMPDEST PUSH32 0x5065746974696F6E206973206E6F742061637469766500000000000000000000 PUSH0 DUP3 ADD MSTORE POP JUMP JUMPDEST PUSH0 PUSH2 0x30D9 PUSH1 0x16 DUP4 PUSH2 0x237B JUMP JUMPDEST SWAP2 POP PUSH2 0x30E4 DUP3 PUSH2 0x30A5 JUMP JUMPDEST PUSH1 0x20 DUP3 ADD SWAP1 POP SWAP2 SWAP1 POP JUMP JUMPDEST PUSH0 PUSH1 0x20 DUP3 ADD SWAP1 POP DUP2 DUP2 SUB PUSH0 DUP4 ADD MSTORE PUSH2 0x3106 DUP2 PUSH2 0x30CD JUMP JUMPDEST SWAP1 POP SWAP2 SWAP1 POP JUMP JUMPDEST PUSH32 0x5065746974696F6E2068617320656E6465640000000000000000000000000000 PUSH0 DUP3 ADD MSTORE POP JUMP JUMPDEST PUSH0 PUSH2 0x3141 PUSH1 0x12 DUP4 PUSH2 0x237B JUMP JUMPDEST SWAP2 POP PUSH2 0x314C DUP3 PUSH2 0x310D JUMP JUMPDEST PUSH1 0x20 DUP3 ADD SWAP1 POP SWAP2 SWAP1 POP JUMP JUMPDEST PUSH0 PUSH1 0x20 DUP3 ADD SWAP1 POP DUP2 DUP2 SUB PUSH0 DUP4 ADD MSTORE PUSH2 0x316E DUP2 PUSH2 0x3135 JUMP JUMPDEST SWAP1 POP SWAP2 SWAP1 POP JUMP JUMPDEST PUSH32 0x416C7265616479207369676E6564000000000000000000000000000000000000 PUSH0 DUP3 ADD MSTORE POP JUMP JUMPDEST PUSH0 PUSH2 0x31A9 PUSH1 0xE DUP4 PUSH2 0x237B JUMP JUMPDEST SWAP2 POP PUSH2 0x31B4 DUP3 PUSH2 0x3175 JUMP JUMPDEST PUSH1 0x20 DUP3 ADD SWAP1 POP SWAP2 SWAP1 POP JUMP JUMPDEST PUSH0 PUSH1 0x20 DUP3 ADD SWAP1 POP DUP2 DUP2 SUB PUSH0 DUP4 ADD MSTORE PUSH2 0x31D6 DUP2 PUSH2 0x319D JUMP JUMPDEST SWAP1 POP SWAP2 SWAP1 POP JUMP JUMPDEST PUSH0 PUSH2 0x31E7 DUP3 PUSH2 0x1EA1 JUMP JUMPDEST SWAP2 POP PUSH2 0x31F2 DUP4 PUSH2 0x1EA1 JUMP JUMPDEST SWAP3 POP DUP3 DUP3 SUB SWAP1 POP DUP2 DUP2 GT ISZERO PUSH2 0x320A JUMPI PUSH2 0x3209 PUSH2 0x2A07 JUMP JUMPDEST JUMPDEST SWAP3 SWAP2 POP POP JUMP JUMPDEST PUSH32 0x4E6F7420617574686F72697A6564000000000000000000000000000000000000 PUSH0 DUP3 ADD MSTORE POP JUMP JUMPDEST PUSH0 PUSH2 0x3244 PUSH1 0xE DUP4 PUSH2 0x237B JUMP JUMPDEST SWAP2 POP PUSH2 0x324F DUP3 PUSH2 0x3210 JUMP JUMPDEST PUSH1 0x20 DUP3 ADD SWAP1 POP SWAP2 SWAP1 POP JUMP JUMPDEST PUSH0 PUSH1 0x20 DUP3 ADD SWAP1 POP DUP2 DUP2 SUB PUSH0 DUP4 ADD MSTORE PUSH2 0x3271 DUP2 PUSH2 0x3238 JUMP JUMPDEST SWAP1 POP SWAP2 SWAP1 POP JUMP JUMPDEST PUSH32 0x416C726561647920636C6F736564000000000000000000000000000000000000 PUSH0 DUP3 ADD MSTORE POP JUMP JUMPDEST PUSH0 PUSH2 0x32AC PUSH1 0xE DUP4 PUSH2 0x237B JUMP JUMPDEST SWAP2 POP PUSH2 0x32B7 DUP3 PUSH2 0x3278 JUMP JUMPDEST PUSH1 0x20 DUP3 ADD SWAP1 POP SWAP2 SWAP1 POP JUMP JUMPDEST PUSH0 PUSH1 0x20 DUP3 ADD SWAP1 POP DUP2 DUP2 SUB PUSH0 DUP4 ADD MSTORE PUSH2 0x32D9 DUP2 PUSH2 0x32A0 JUMP JUMPDEST SWAP1 POP SWAP2 SWAP1 POP JUMP INVALID LOG2 PUSH5 0x6970667358 0x22 SLT KECCAK256 0x2F ORIGIN EOFCREATE 0x2E DUP3 GASLIMIT 0xA6 DUP9 PUSH0 0xAA MUL 0xFC SUB MULMOD SLOAD EOFCREATE 0xA 0xA6 MULMOD 0xD DIV JUMPDEST 0xEA PUSH21 0xB1154C94DE1D085E64736F6C634300081E00330000 "
				},
				"gasEstimates": {
					"creation": {
						"codeDepositCost": "2615600",
						"executionCost": "infinite",
						"totalCost": "infinite"
					},
					"external": {
						"additionalDayFee()": "2469",
						"baseCampaignFee()": "2536",
						"baseDurationDays()": "2515",
						"calculateCampaignFee(uint256)": "infinite",
						"campaignToken()": "2553",
						"closePetition(uint256)": "34666",
						"createPetition(string,string,string,uint256)": "infinite",
						"daoMembership()": "2576",
						"defaultTokenDuration()": "2514",
						"getPetition(uint256)": "infinite",
						"getPricingInfo()": "infinite",
						"getTotalPetitions()": "2478",
						"getUserPaidPetitionCount(address)": "2896",
						"hasSigned(uint256,address)": "3159",
						"hasUserSigned(uint256,address)": "3205",
						"owner()": "2604",
						"paidPetitionCount(address)": "2912",
						"petitionCounter()": "2537",
						"petitions(uint256)": "infinite",
						"renounceOwnership()": "infinite",
						"rewardThreshold()": "2515",
						"setDefaultTokenDuration(uint256)": "infinite",
						"setPricingConfig(uint256,uint256,uint256)": "infinite",
						"setRewardThreshold(uint256)": "infinite",
						"signPetition(uint256)": "infinite",
						"transferOwnership(address)": "infinite",
						"withdraw()": "infinite"
					},
					"internal": {
						"isMember(address)": "infinite"
					}
				},
				"methodIdentifiers": {
					"additionalDayFee()": "eda272ba",
					"baseCampaignFee()": "cd3106ae",
					"baseDurationDays()": "282430bc",
					"calculateCampaignFee(uint256)": "e55827f3",
					"campaignToken()": "9089c4a5",
					"closePetition(uint256)": "f345a997",
					"createPetition(string,string,string,uint256)": "1f677b0f",
					"daoMembership()": "78e18d35",
					"defaultTokenDuration()": "bc78eb8b",
					"getPetition(uint256)": "0c90ce42",
					"getPricingInfo()": "374f6d5d",
					"getTotalPetitions()": "72fa1301",
					"getUserPaidPetitionCount(address)": "6b4acbe0",
					"hasSigned(uint256,address)": "709df8d9",
					"hasUserSigned(uint256,address)": "eb74d835",
					"owner()": "8da5cb5b",
					"paidPetitionCount(address)": "f99972ef",
					"petitionCounter()": "2fb33528",
					"petitions(uint256)": "3ad50ded",
					"renounceOwnership()": "715018a6",
					"rewardThreshold()": "5ea4d29c",
					"setDefaultTokenDuration(uint256)": "adbcd1fc",
					"setPricingConfig(uint256,uint256,uint256)": "24f83736",
					"setRewardThreshold(uint256)": "68bdd33a",
					"signPetition(uint256)": "dcad0180",
					"transferOwnership(address)": "f2fde38b",
					"withdraw()": "3ccfd60b"
				}
			},
			"storageLayout": {
				"storage": [
					{
						"astId": 8,
						"contract": "contracts/PetitionPlatform.sol:PetitionPlatform",
						"label": "_owner",
						"offset": 0,
						"slot": "0",
						"type": "t_address"
					},
					{
						"astId": 383,
						"contract": "contracts/PetitionPlatform.sol:PetitionPlatform",
						"label": "_status",
						"offset": 0,
						"slot": "1",
						"type": "t_uint256"
					},
					{
						"astId": 487,
						"contract": "contracts/PetitionPlatform.sol:PetitionPlatform",
						"label": "daoMembership",
						"offset": 0,
						"slot": "2",
						"type": "t_address"
					},
					{
						"astId": 489,
						"contract": "contracts/PetitionPlatform.sol:PetitionPlatform",
						"label": "campaignToken",
						"offset": 0,
						"slot": "3",
						"type": "t_address"
					},
					{
						"astId": 491,
						"contract": "contracts/PetitionPlatform.sol:PetitionPlatform",
						"label": "petitionCounter",
						"offset": 0,
						"slot": "4",
						"type": "t_uint256"
					},
					{
						"astId": 494,
						"contract": "contracts/PetitionPlatform.sol:PetitionPlatform",
						"label": "baseCampaignFee",
						"offset": 0,
						"slot": "5",
						"type": "t_uint256"
					},
					{
						"astId": 497,
						"contract": "contracts/PetitionPlatform.sol:PetitionPlatform",
						"label": "baseDurationDays",
						"offset": 0,
						"slot": "6",
						"type": "t_uint256"
					},
					{
						"astId": 500,
						"contract": "contracts/PetitionPlatform.sol:PetitionPlatform",
						"label": "additionalDayFee",
						"offset": 0,
						"slot": "7",
						"type": "t_uint256"
					},
					{
						"astId": 503,
						"contract": "contracts/PetitionPlatform.sol:PetitionPlatform",
						"label": "rewardThreshold",
						"offset": 0,
						"slot": "8",
						"type": "t_uint256"
					},
					{
						"astId": 506,
						"contract": "contracts/PetitionPlatform.sol:PetitionPlatform",
						"label": "defaultTokenDuration",
						"offset": 0,
						"slot": "9",
						"type": "t_uint256"
					},
					{
						"astId": 511,
						"contract": "contracts/PetitionPlatform.sol:PetitionPlatform",
						"label": "petitions",
						"offset": 0,
						"slot": "10",
						"type": "t_mapping(t_uint256,t_struct(Petition)485_storage)"
					},
					{
						"astId": 515,
						"contract": "contracts/PetitionPlatform.sol:PetitionPlatform",
						"label": "paidPetitionCount",
						"offset": 0,
						"slot": "11",
						"type": "t_mapping(t_address,t_uint256)"
					},
					{
						"astId": 521,
						"contract": "contracts/PetitionPlatform.sol:PetitionPlatform",
						"label": "hasSigned",
						"offset": 0,
						"slot": "12",
						"type": "t_mapping(t_uint256,t_mapping(t_address,t_bool))"
					}
				],
				"types": {
					"t_address": {
						"encoding": "inplace",
						"label": "address",
						"numberOfBytes": "20"
					},
					"t_bool": {
						"encoding": "inplace",
						"label": "bool",
						"numberOfBytes": "1"
					},
					"t_mapping(t_address,t_bool)": {
						"encoding": "mapping",
						"key": "t_address",
						"label": "mapping(address => bool)",
						"numberOfBytes": "32",
						"value": "t_bool"
					},
					"t_mapping(t_address,t_uint256)": {
						"encoding": "mapping",
						"key": "t_address",
						"label": "mapping(address => uint256)",
						"numberOfBytes": "32",
						"value": "t_uint256"
					},
					"t_mapping(t_uint256,t_mapping(t_address,t_bool))": {
						"encoding": "mapping",
						"key": "t_uint256",
						"label": "mapping(uint256 => mapping(address => bool))",
						"numberOfBytes": "32",
						"value": "t_mapping(t_address,t_bool)"
					},
					"t_mapping(t_uint256,t_struct(Petition)485_storage)": {
						"encoding": "mapping",
						"key": "t_uint256",
						"label": "mapping(uint256 => struct PetitionPlatform.Petition)",
						"numberOfBytes": "32",
						"value": "t_struct(Petition)485_storage"
					},
					"t_string_storage": {
						"encoding": "bytes",
						"label": "string",
						"numberOfBytes": "32"
					},
					"t_struct(Petition)485_storage": {
						"encoding": "inplace",
						"label": "struct PetitionPlatform.Petition",
						"members": [
							{
								"astId": 466,
								"contract": "contracts/PetitionPlatform.sol:PetitionPlatform",
								"label": "id",
								"offset": 0,
								"slot": "0",
								"type": "t_uint256"
							},
							{
								"astId": 468,
								"contract": "contracts/PetitionPlatform.sol:PetitionPlatform",
								"label": "title",
								"offset": 0,
								"slot": "1",
								"type": "t_string_storage"
							},
							{
								"astId": 470,
								"contract": "contracts/PetitionPlatform.sol:PetitionPlatform",
								"label": "description",
								"offset": 0,
								"slot": "2",
								"type": "t_string_storage"
							},
							{
								"astId": 472,
								"contract": "contracts/PetitionPlatform.sol:PetitionPlatform",
								"label": "imageHash",
								"offset": 0,
								"slot": "3",
								"type": "t_string_storage"
							},
							{
								"astId": 474,
								"contract": "contracts/PetitionPlatform.sol:PetitionPlatform",
								"label": "creator",
								"offset": 0,
								"slot": "4",
								"type": "t_address"
							},
							{
								"astId": 476,
								"contract": "contracts/PetitionPlatform.sol:PetitionPlatform",
								"label": "createdAt",
								"offset": 0,
								"slot": "5",
								"type": "t_uint256"
							},
							{
								"astId": 478,
								"contract": "contracts/PetitionPlatform.sol:PetitionPlatform",
								"label": "deadline",
								"offset": 0,
								"slot": "6",
								"type": "t_uint256"
							},
							{
								"astId": 480,
								"contract": "contracts/PetitionPlatform.sol:PetitionPlatform",
								"label": "signatureCount",
								"offset": 0,
								"slot": "7",
								"type": "t_uint256"
							},
							{
								"astId": 482,
								"contract": "contracts/PetitionPlatform.sol:PetitionPlatform",
								"label": "isActive",
								"offset": 0,
								"slot": "8",
								"type": "t_bool"
							},
							{
								"astId": 484,
								"contract": "contracts/PetitionPlatform.sol:PetitionPlatform",
								"label": "durationDays",
								"offset": 0,
								"slot": "9",
								"type": "t_uint256"
							}
						],
						"numberOfBytes": "320"
					},
					"t_uint256": {
						"encoding": "inplace",
						"label": "uint256",
						"numberOfBytes": "32"
					}
				}
			},
			"userdoc": {
				"kind": "user",
				"methods": {},
				"version": 1
			}
		}
	}
}