{"contracts/SoulboundMember.sol":{"SoulboundMember":{"abi":[{"inputs":[{"internalType":"address","name":"_campaignToken","type":"address"}],"stateMutability":"nonpayable","type":"constructor"},{"inputs":[{"internalType":"address","name":"sender","type":"address"},{"internalType":"uint256","name":"tokenId","type":"uint256"},{"internalType":"address","name":"owner","type":"address"}],"name":"ERC721IncorrectOwner","type":"error"},{"inputs":[{"internalType":"address","name":"operator","type":"address"},{"internalType":"uint256","name":"tokenId","type":"uint256"}],"name":"ERC721InsufficientApproval","type":"error"},{"inputs":[{"internalType":"address","name":"approver","type":"address"}],"name":"ERC721InvalidApprover","type":"error"},{"inputs":[{"internalType":"address","name":"operator","type":"address"}],"name":"ERC721InvalidOperator","type":"error"},{"inputs":[{"internalType":"address","name":"owner","type":"address"}],"name":"ERC721InvalidOwner","type":"error"},{"inputs":[{"internalType":"address","name":"receiver","type":"address"}],"name":"ERC721InvalidReceiver","type":"error"},{"inputs":[{"internalType":"address","name":"sender","type":"address"}],"name":"ERC721InvalidSender","type":"error"},{"inputs":[{"internalType":"uint256","name":"tokenId","type":"uint256"}],"name":"ERC721NonexistentToken","type":"error"},{"inputs":[{"internalType":"address","name":"owner","type":"address"}],"name":"OwnableInvalidOwner","type":"error"},{"inputs":[{"internalType":"address","name":"account","type":"address"}],"name":"OwnableUnauthorizedAccount","type":"error"},{"inputs":[],"name":"ReentrancyGuardReentrantCall","type":"error"},{"anonymous":false,"inputs":[{"indexed":true,"internalType":"address","name":"owner","type":"address"},{"indexed":true,"internalType":"address","name":"approved","type":"address"},{"indexed":true,"internalType":"uint256","name":"tokenId","type":"uint256"}],"name":"Approval","type":"event"},{"anonymous":false,"inputs":[{"indexed":true,"internalType":"address","name":"owner","type":"address"},{"indexed":true,"internalType":"address","name":"operator","type":"address"},{"indexed":false,"internalType":"bool","name":"approved","type":"bool"}],"name":"ApprovalForAll","type":"event"},{"anonymous":false,"inputs":[{"indexed":true,"internalType":"address","name":"user","type":"address"},{"indexed":false,"internalType":"uint256","name":"tokenId","type":"uint256"}],"name":"MembershipMinted","type":"event"},{"anonymous":false,"inputs":[{"indexed":true,"internalType":"address","name":"previousOwner","type":"address"},{"indexed":true,"internalType":"address","name":"newOwner","type":"address"}],"name":"OwnershipTransferred","type":"event"},{"anonymous":false,"inputs":[{"indexed":true,"internalType":"address","name":"newContract","type":"address"}],"name":"PetitionContractUpdated","type":"event"},{"anonymous":false,"inputs":[{"indexed":true,"internalType":"address","name":"from","type":"address"},{"indexed":true,"internalType":"address","name":"to","type":"address"},{"indexed":true,"internalType":"uint256","name":"tokenId","type":"uint256"}],"name":"Transfer","type":"event"},{"inputs":[{"internalType":"address","name":"to","type":"address"},{"internalType":"uint256","name":"tokenId","type":"uint256"}],"name":"approve","outputs":[],"stateMutability":"nonpayable","type":"function"},{"inputs":[{"internalType":"address","name":"owner","type":"address"}],"name":"balanceOf","outputs":[{"internalType":"uint256","name":"","type":"uint256"}],"stateMutability":"view","type":"function"},{"inputs":[],"name":"campaignToken","outputs":[{"internalType":"contract ICampaignToken","name":"","type":"address"}],"stateMutability":"view","type":"function"},{"inputs":[{"internalType":"uint256","name":"tokenId","type":"uint256"}],"name":"getApproved","outputs":[{"internalType":"address","name":"","type":"address"}],"stateMutability":"view","type":"function"},{"inputs":[{"internalType":"address","name":"","type":"address"}],"name":"hasMinted","outputs":[{"internalType":"bool","name":"","type":"bool"}],"stateMutability":"view","type":"function"},{"inputs":[{"internalType":"address","name":"owner","type":"address"},{"internalType":"address","name":"operator","type":"address"}],"name":"isApprovedForAll","outputs":[{"internalType":"bool","name":"","type":"bool"}],"stateMutability":"view","type":"function"},{"inputs":[{"internalType":"address","name":"user","type":"address"}],"name":"isMember","outputs":[{"internalType":"bool","name":"","type":"bool"}],"stateMutability":"view","type":"function"},{"inputs":[],"name":"mintMembership","outputs":[],"stateMutability":"nonpayable","type":"function"},{"inputs":[],"name":"name","outputs":[{"internalType":"string","name":"","type":"string"}],"stateMutability":"view","type":"function"},{"inputs":[],"name":"owner","outputs":[{"internalType":"address","name":"","type":"address"}],"stateMutability":"view","type":"function"},{"inputs":[{"internalType":"uint256","name":"tokenId","type":"uint256"}],"name":"ownerOf","outputs":[{"internalType":"address","name":"","type":"address"}],"stateMutability":"view","type":"function"},{"inputs":[],"name":"petitionContract","outputs":[{"internalType":"address","name":"","type":"address"}],"stateMutability":"view","type":"function"},{"inputs":[],"name":"renounceOwnership","outputs":[],"stateMutability":"nonpayable","type":"function"},{"inputs":[{"internalType":"address","name":"from","type":"address"},{"internalType":"address","name":"to","type":"address"},{"internalType":"uint256","name":"tokenId","type":"uint256"}],"name":"safeTransferFrom","outputs":[],"stateMutability":"nonpayable","type":"function"},{"inputs":[{"internalType":"address","name":"from","type":"address"},{"internalType":"address","name":"to","type":"address"},{"internalType":"uint256","name":"tokenId","type":"uint256"},{"internalType":"bytes","name":"data","type":"bytes"}],"name":"safeTransferFrom","outputs":[],"stateMutability":"nonpayable","type":"function"},{"inputs":[{"internalType":"address","name":"operator","type":"address"},{"internalType":"bool","name":"approved","type":"bool"}],"name":"setApprovalForAll","outputs":[],"stateMutability":"nonpayable","type":"function"},{"inputs":[{"internalType":"address","name":"_petitionContract","type":"address"}],"name":"setPetitionContract","outputs":[],"stateMutability":"nonpayable","type":"function"},{"inputs":[{"internalType":"bytes4","name":"interfaceId","type":"bytes4"}],"name":"supportsInterface","outputs":[{"internalType":"bool","name":"","type":"bool"}],"stateMutability":"view","type":"function"},{"inputs":[],"name":"symbol","outputs":[{"internalType":"string","name":"","type":"string"}],"stateMutability":"view","type":"function"},{"inputs":[{"internalType":"uint256","name":"tokenId","type":"uint256"}],"name":"tokenURI","outputs":[{"internalType":"string","name":"","type":"string"}],"stateMutability":"view","type":"function"},{"inputs":[],"name":"totalSupply","outputs":[{"internalType":"uint256","name":"","type":"uint256"}],"stateMutability":"view","type":"function"},{"inputs":[{"internalType":"address","name":"from","type":"address"},{"internalType":"address","name":"to","type":"address"},{"internalType":"uint256","name":"tokenId","type":"uint256"}],"name":"transferFrom","outputs":[],"stateMutability":"nonpayable","type":"function"},{"inputs":[{"internalType":"address","name":"newOwner","type":"address"}],"name":"transferOwnership","outputs":[],"stateMutability":"nonpayable","type":"function"}],"evm":{"bytecode":{"linkReferences":{},"object":"608060405234610408576116ef6020813803918261001c8161040d565b93849283398101031261040857516001600160a01b0381169081900361040857610046604061040d565b90601082526f29b7bab63137bab7321026b2b6b132b960811b602083015261006e604061040d565b60048152635342544d60e01b602082015282519091906001600160401b03811161031357600054600181811c911680156103fe575b60208210146102f357601f811161039a575b506020601f82116001146103345781929394600092610329575b50508160011b916000199060031b1c1916176000555b81516001600160401b03811161031357600154600181811c91168015610309575b60208210146102f357601f811161028e575b50602092601f8211600114610229579281929360009261021e575b50508160011b916000199060031b1c1916176001555b33156102085760068054336001600160a01b03198216811790925560405191906001600160a01b03167f8be0079c531659141344cd1fd0a4f28419497f9722a3daafe3b4186f6b6457e0600080a3600160075581156101c65750600a80546001600160a01b0319169190911790556040516112bc90816104338239f35b62461bcd60e51b815260206004820152601560248201527f496e76616c696420746f6b656e206164647265737300000000000000000000006044820152606490fd5b631e4fbdf760e01b600052600060045260246000fd5b015190503880610133565b601f198216936001600052806000209160005b868110610276575083600195961061025d575b505050811b01600155610149565b015160001960f88460031b161c1916905538808061024f565b9192602060018192868501518155019401920161023c565b60016000527fb10e2d527612073b26eecdfd717e6a320cf44b4afac2b0732d9fcbe2b7fa0cf6601f830160051c810191602084106102e9575b601f0160051c01905b8181106102dd5750610118565b600081556001016102d0565b90915081906102c7565b634e487b7160e01b600052602260045260246000fd5b90607f1690610106565b634e487b7160e01b600052604160045260246000fd5b0151905038806100cf565b601f1982169060008052806000209160005b81811061038257509583600195969710610369575b505050811b016000556100e5565b015160001960f88460031b161c1916905538808061035b565b9192602060018192868b015181550194019201610346565b600080527f290decd9548b62a8d60345a988386fc84ba6bc95484008f6362f93160ef3e563601f830160051c810191602084106103f4575b601f0160051c01905b8181106103e857506100b5565b600081556001016103db565b90915081906103d2565b90607f16906100a3565b600080fd5b6040519190601f01601f191682016001600160401b038111838210176103135760405256fe608080604052600436101561001357600080fd5b600090813560e01c90816301ffc9a714610d275750806306fdde0314610c6c578063081812fc14610c2f578063095ea7b314610b4757806318160ddd14610b2957806323b872dd14610b115780632aa9856f14610a7057806338e21cce14610a3157806342842e0e14610a01578063489a5dff146109d85780636352211e146109a757806370a0823114610980578063712319081461058c578063715018a61461052f5780638da5cb5b146105065780639089c4a5146104dd57806395d89b41146103d0578063a22cb4651461032c578063a230c524146102fe578063b88d4fde1461025f578063c87b56dd14610204578063e985e9c5146101aa5763f2fde38b1461011e57600080fd5b346101a75760203660031901126101a757610137610dd5565b61013f611120565b6001600160a01b0316801561019357600680546001600160a01b0319811683179091556001600160a01b03167f8be0079c531659141344cd1fd0a4f28419497f9722a3daafe3b4186f6b6457e0600080a380f35b631e4fbdf760e01b82526004829052602482fd5b80fd5b50346101a75760403660031901126101a75760406101c6610dd5565b916101cf610df0565b9260018060a01b031681526005602052209060018060a01b0316600052602052602060ff604060002054166040519015158152f35b50346101a75760203660031901126101a7576102216004356110e9565b50602090806040516102338482610e40565b5250604051906102438183610e40565b6000825261025b604051928284938452830190610d94565b0390f35b50346101a75760803660031901126101a757610279610dd5565b610281610df0565b6044356064359167ffffffffffffffff83116102fa57366023840112156102fa57826004013593856102b286610e78565b946102c06040519687610e40565b86865236602488830101116102f657866102f39760246020930183890137860101526102ed838383610e94565b33611149565b80f35b5080fd5b8480fd5b50346101a75760203660031901126101a757602061032261031d610dd5565b6110b3565b1515604051908152f35b50346101a75760403660031901126101a757610346610dd5565b602435908115158092036103cc576001600160a01b03169081156103b85733835260056020526040832082600052602052604060002060ff1981541660ff83161790556040519081527f17307eab39ab6107e8899845ad3d59bd9653f200f220920489ca2b5937696c3160203392a380f35b630b61174360e31b83526004829052602483fd5b8280fd5b50346101a757806003193601126101a7576040519080600154908160011c916001811680156104d3575b6020841081146104bf57838652908115610498575060011461043b575b61025b8461042781860382610e40565b604051918291602083526020830190610d94565b600181527fb10e2d527612073b26eecdfd717e6a320cf44b4afac2b0732d9fcbe2b7fa0cf6939250905b80821061047e5750909150810160200161042782610417565b919260018160209254838588010152019101909291610465565b60ff191660208087019190915292151560051b850190920192506104279150839050610417565b634e487b7160e01b83526022600452602483fd5b92607f16926103fa565b50346101a757806003193601126101a757600a546040516001600160a01b039091168152602090f35b50346101a757806003193601126101a7576006546040516001600160a01b039091168152602090f35b50346101a757806003193601126101a757610548611120565b600680546001600160a01b0319811690915581906001600160a01b03167f8be0079c531659141344cd1fd0a4f28419497f9722a3daafe3b4186f6b6457e08280a380f35b50346101a757806003193601126101a757600260075414610971576002600755338152600b60205260ff60408220541661093b5760085490600019821461092757600182016008556020916040516105e48482610e40565b8281523315610913578183526002845260408320546001600160a01b031615801561090c575b156108c7578183526002845260408320546001600160a01b03168015159081610893575b338086526003875260408087208054600101905585875260028852862080546001600160a01b031916821790558490827fddf252ad1be2c89b69c2b068fc378daa952ba7f163c4a11628f55a4df523b3ef8880a45061087f57333b610767575b50338252600b835260408220805460ff19166001179055600a549192909183906001600160a01b0316803b156102f65781906044604051809481936340c10f1960e01b8352336004840152670de0b6b3a764000060248401525af1801561075c57610728575b507fbab4562ae868d1765ed8452e98bba908a974596c4babc3ada5e90e05e3f433fb906040519283523392a2600160075580f35b92610755817fbab4562ae868d1765ed8452e98bba908a974596c4babc3ada5e90e05e3f433fb9395610e40565b92906106f4565b6040513d86823e3d90fd5b836107a09160405180938192630a85bd0160e11b8352336004840152876024840152866044840152608060648401526084830190610d94565b038186335af183918161083b575b506108055750503d156107fd573d916107c683610e78565b926107d46040519485610e40565b83523d828285013e5b825192836107f857633250574960e11b835233600452602483fd5b019050fd5b6060916107dd565b919290916001600160e01b03191663757a42ff60e11b016108285791903861068e565b633250574960e11b835233600452602483fd5b9091508481813d8311610878575b6108538183610e40565b8101031261087457516001600160e01b0319811681036108745790386107ae565b8380fd5b503d610849565b6339e3563760e11b83526004839052602483fd5b600084815260046020526040902080546001600160a01b03191690558085526003865260408520805460001901905561062e565b60405162461bcd60e51b815260048101859052601e60248201527f5342543a20546f6b656e206973206e6f6e2d7472616e7366657261626c6500006044820152606490fd5b508261060a565b633250574960e11b83526004839052602483fd5b634e487b7160e01b81526011600452602490fd5b60405162461bcd60e51b815260206004820152600e60248201526d105b1c9958591e481b5a5b9d195960921b6044820152606490fd5b633ee5aeb560e01b8152600490fd5b50346101a75760203660031901126101a757602061099f61031d610dd5565b604051908152f35b50346101a75760203660031901126101a75760206109c66004356110e9565b6040516001600160a01b039091168152f35b50346101a757806003193601126101a7576009546040516001600160a01b039091168152602090f35b50346101a7576102f3610a1336610e06565b9060405192610a23602085610e40565b8584526102ed838383610e94565b50346101a75760203660031901126101a75760209060ff906040906001600160a01b03610a5c610dd5565b168152600b84522054166040519015158152f35b50346101a75760203660031901126101a757610a8a610dd5565b610a92611120565b6001600160a01b03168015610ada57600980546001600160a01b031916821790557f96e3034f1c2ebd9b4032d59f8958cd43d6bf42e8740708f5277d4b42fbad079a8280a280f35b60405162461bcd60e51b815260206004820152600f60248201526e496e76616c6964206164647265737360881b6044820152606490fd5b50346101a7576102f3610b2336610e06565b91610e94565b50346101a757806003193601126101a7576020600854604051908152f35b50346101a75760403660031901126101a757610b61610dd5565b602435610b6d816110e9565b33151580610c1c575b80610bf1575b610bde5781906001600160a01b0384811691167f8c5be1e5ebec7d5bd14f71427d1e84f3dd0314c0f7b2291e5b200ac8c7c3b9258680a4825260046020526040822080546001600160a01b0319166001600160a01b0390921691909117905580f35b63a9fbf51f60e01b845233600452602484fd5b506001600160a01b038116845260056020908152604080862033875290915284205460ff1615610b7c565b506001600160a01b038116331415610b76565b50346101a75760203660031901126101a757602090600435610c50816110e9565b50815260048252604060018060a01b0391205416604051908152f35b50346101a757806003193601126101a75760405190808054908160011c91600181168015610d1d575b6020841081146104bf578386529081156104985750600114610cc15761025b8461042781860382610e40565b8080527f290decd9548b62a8d60345a988386fc84ba6bc95484008f6362f93160ef3e563939250905b808210610d035750909150810160200161042782610417565b919260018160209254838588010152019101909291610cea565b92607f1692610c95565b9050346102f65760203660031901126102f65760043563ffffffff60e01b81168091036103cc57602092506380ac58cd60e01b8114908115610d83575b8115610d72575b5015158152f35b6301ffc9a760e01b14905038610d6b565b635b5e139f60e01b81149150610d64565b919082519283825260005b848110610dc0575050826000602080949584010152601f8019910116010190565b80602080928401015182828601015201610d9f565b600435906001600160a01b0382168203610deb57565b600080fd5b602435906001600160a01b0382168203610deb57565b6060906003190112610deb576004356001600160a01b0381168103610deb57906024356001600160a01b0381168103610deb579060443590565b90601f8019910116810190811067ffffffffffffffff821117610e6257604052565b634e487b7160e01b600052604160045260246000fd5b67ffffffffffffffff8111610e6257601f01601f191660200190565b6001600160a01b039091169190821561109d576000828152600260205260408120549093906001600160a01b0316158015611096575b1561105157828452600260205260408420546001600160a01b031693839190859033151580610fb9575b507fddf252ad1be2c89b69c2b068fc378daa952ba7f163c4a11628f55a4df523b3ef9082610f84575b83815260036020526040812060018154019055848152600260205260408120846bffffffffffffffffffffffff60a01b82541617905580a46001600160a01b0316808303610f6a57505050565b6364283d7b60e01b60005260045260245260445260646000fd5b600085815260046020526040902080546001600160a01b03191690558281526003602052604081208054600019019055610f1d565b915091925080611002575b15610fd3579084849238610ef4565b839085610fec57602491637e27328960e01b8252600452fd5b60449163177e802f60e01b825233600452602452fd5b503385148015611030575b80610fc45750838152600460205260408120546001600160a01b03163314610fc4565b5084815260056020908152604080832033845290915281205460ff1661100d565b60405162461bcd60e51b815260206004820152601e60248201527f5342543a20546f6b656e206973206e6f6e2d7472616e7366657261626c6500006044820152606490fd5b5083610eca565b633250574960e11b600052600060045260246000fd5b6001600160a01b031680156110d357600052600360205260406000205490565b6322718ad960e21b600052600060045260246000fd5b6000818152600260205260409020546001600160a01b031690811561110c575090565b637e27328960e01b60005260045260246000fd5b6006546001600160a01b0316330361113457565b63118cdaa760e01b6000523360045260246000fd5b823b611157575b5050505050565b604051630a85bd0160e11b81526001600160a01b0391821660048201529181166024830152604482019390935260806064820152911691602090829081906111a3906084830190610d94565b03816000865af18091600091611243575b509061120d57503d15611206573d6111cb81610e78565b906111d96040519283610e40565b81523d6000602083013e5b805190816112015782633250574960e11b60005260045260246000fd5b602001fd5b60606111e4565b6001600160e01b03191663757a42ff60e11b0161122f57503880808080611150565b633250574960e11b60005260045260246000fd5b6020813d60201161127e575b8161125c60209383610e40565b810103126102f65751906001600160e01b0319821682036101a75750386111b4565b3d915061124f56fea2646970667358221220e0a6e94f1980b3d2363a570f4cbc538781299b9be29b02333f98b0604be17a7664736f6c634300081e0033","opcodes":"PUSH1 0x80 PUSH1 0x40 MSTORE CALLVALUE PUSH2 0x408 JUMPI PUSH2 0x16EF PUSH1 0x20 DUP2 CODESIZE SUB SWAP2 DUP3 PUSH2 0x1C DUP2 PUSH2 0x40D JUMP JUMPDEST SWAP4 DUP5 SWAP3 DUP4 CODECOPY DUP2 ADD SUB SLT PUSH2 0x408 JUMPI MLOAD PUSH1 0x1 PUSH1 0x1 PUSH1 0xA0 SHL SUB DUP2 AND SWAP1 DUP2 SWAP1 SUB PUSH2 0x408 JUMPI PUSH2 0x46 PUSH1 0x40 PUSH2 0x40D JUMP JUMPDEST SWAP1 PUSH1 0x10 DUP3 MSTORE PUSH16 0x29B7BAB63137BAB7321026B2B6B132B9 PUSH1 0x81 SHL PUSH1 0x20 DUP4 ADD MSTORE PUSH2 0x6E PUSH1 0x40 PUSH2 0x40D JUMP JUMPDEST PUSH1 0x4 DUP2 MSTORE PUSH4 0x5342544D PUSH1 0xE0 SHL PUSH1 0x20 DUP3 ADD MSTORE DUP3 MLOAD SWAP1 SWAP2 SWAP1 PUSH1 0x1 PUSH1 0x1 PUSH1 0x40 SHL SUB DUP2 GT PUSH2 0x313 JUMPI PUSH1 0x0 SLOAD PUSH1 0x1 DUP2 DUP2 SHR SWAP2 AND DUP1 ISZERO PUSH2 0x3FE JUMPI JUMPDEST PUSH1 0x20 DUP3 LT EQ PUSH2 0x2F3 JUMPI PUSH1 0x1F DUP2 GT PUSH2 0x39A JUMPI JUMPDEST POP PUSH1 0x20 PUSH1 0x1F DUP3 GT PUSH1 0x1 EQ PUSH2 0x334 JUMPI DUP2 SWAP3 SWAP4 SWAP5 PUSH1 0x0 SWAP3 PUSH2 0x329 JUMPI JUMPDEST POP POP DUP2 PUSH1 0x1 SHL SWAP2 PUSH1 0x0 NOT SWAP1 PUSH1 0x3 SHL SHR NOT AND OR PUSH1 0x0 SSTORE JUMPDEST DUP2 MLOAD PUSH1 0x1 PUSH1 0x1 PUSH1 0x40 SHL SUB DUP2 GT PUSH2 0x313 JUMPI PUSH1 0x1 SLOAD PUSH1 0x1 DUP2 DUP2 SHR SWAP2 AND DUP1 ISZERO PUSH2 0x309 JUMPI JUMPDEST PUSH1 0x20 DUP3 LT EQ PUSH2 0x2F3 JUMPI PUSH1 0x1F DUP2 GT PUSH2 0x28E JUMPI JUMPDEST POP PUSH1 0x20 SWAP3 PUSH1 0x1F DUP3 GT PUSH1 0x1 EQ PUSH2 0x229 JUMPI SWAP3 DUP2 SWAP3 SWAP4 PUSH1 0x0 SWAP3 PUSH2 0x21E JUMPI JUMPDEST POP POP DUP2 PUSH1 0x1 SHL SWAP2 PUSH1 0x0 NOT SWAP1 PUSH1 0x3 SHL SHR NOT AND OR PUSH1 0x1 SSTORE JUMPDEST CALLER ISZERO PUSH2 0x208 JUMPI PUSH1 0x6 DUP1 SLOAD CALLER PUSH1 0x1 PUSH1 0x1 PUSH1 0xA0 SHL SUB NOT DUP3 AND DUP2 OR SWAP1 SWAP3 SSTORE PUSH1 0x40 MLOAD SWAP2 SWAP1 PUSH1 0x1 PUSH1 0x1 PUSH1 0xA0 SHL SUB AND PUSH32 0x8BE0079C531659141344CD1FD0A4F28419497F9722A3DAAFE3B4186F6B6457E0 PUSH1 0x0 DUP1 LOG3 PUSH1 0x1 PUSH1 0x7 SSTORE DUP2 ISZERO PUSH2 0x1C6 JUMPI POP PUSH1 0xA DUP1 SLOAD PUSH1 0x1 PUSH1 0x1 PUSH1 0xA0 SHL SUB NOT AND SWAP2 SWAP1 SWAP2 OR SWAP1 SSTORE PUSH1 0x40 MLOAD PUSH2 0x12BC SWAP1 DUP2 PUSH2 0x433 DUP3 CODECOPY RETURN JUMPDEST PUSH3 0x461BCD PUSH1 0xE5 SHL DUP2 MSTORE PUSH1 0x20 PUSH1 0x4 DUP3 ADD MSTORE PUSH1 0x15 PUSH1 0x24 DUP3 ADD MSTORE PUSH32 0x496E76616C696420746F6B656E20616464726573730000000000000000000000 PUSH1 0x44 DUP3 ADD MSTORE PUSH1 0x64 SWAP1 REVERT JUMPDEST PUSH4 0x1E4FBDF7 PUSH1 0xE0 SHL PUSH1 0x0 MSTORE PUSH1 0x0 PUSH1 0x4 MSTORE PUSH1 0x24 PUSH1 0x0 REVERT JUMPDEST ADD MLOAD SWAP1 POP CODESIZE DUP1 PUSH2 0x133 JUMP JUMPDEST PUSH1 0x1F NOT DUP3 AND SWAP4 PUSH1 0x1 PUSH1 0x0 MSTORE DUP1 PUSH1 0x0 KECCAK256 SWAP2 PUSH1 0x0 JUMPDEST DUP7 DUP2 LT PUSH2 0x276 JUMPI POP DUP4 PUSH1 0x1 SWAP6 SWAP7 LT PUSH2 0x25D JUMPI JUMPDEST POP POP POP DUP2 SHL ADD PUSH1 0x1 SSTORE PUSH2 0x149 JUMP JUMPDEST ADD MLOAD PUSH1 0x0 NOT PUSH1 0xF8 DUP5 PUSH1 0x3 SHL AND SHR NOT AND SWAP1 SSTORE CODESIZE DUP1 DUP1 PUSH2 0x24F JUMP JUMPDEST SWAP2 SWAP3 PUSH1 0x20 PUSH1 0x1 DUP2 SWAP3 DUP7 DUP6 ADD MLOAD DUP2 SSTORE ADD SWAP5 ADD SWAP3 ADD PUSH2 0x23C JUMP JUMPDEST PUSH1 0x1 PUSH1 0x0 MSTORE PUSH32 0xB10E2D527612073B26EECDFD717E6A320CF44B4AFAC2B0732D9FCBE2B7FA0CF6 PUSH1 0x1F DUP4 ADD PUSH1 0x5 SHR DUP2 ADD SWAP2 PUSH1 0x20 DUP5 LT PUSH2 0x2E9 JUMPI JUMPDEST PUSH1 0x1F ADD PUSH1 0x5 SHR ADD SWAP1 JUMPDEST DUP2 DUP2 LT PUSH2 0x2DD JUMPI POP PUSH2 0x118 JUMP JUMPDEST PUSH1 0x0 DUP2 SSTORE PUSH1 0x1 ADD PUSH2 0x2D0 JUMP JUMPDEST SWAP1 SWAP2 POP DUP2 SWAP1 PUSH2 0x2C7 JUMP JUMPDEST PUSH4 0x4E487B71 PUSH1 0xE0 SHL PUSH1 0x0 MSTORE PUSH1 0x22 PUSH1 0x4 MSTORE PUSH1 0x24 PUSH1 0x0 REVERT JUMPDEST SWAP1 PUSH1 0x7F AND SWAP1 PUSH2 0x106 JUMP JUMPDEST PUSH4 0x4E487B71 PUSH1 0xE0 SHL PUSH1 0x0 MSTORE PUSH1 0x41 PUSH1 0x4 MSTORE PUSH1 0x24 PUSH1 0x0 REVERT JUMPDEST ADD MLOAD SWAP1 POP CODESIZE DUP1 PUSH2 0xCF JUMP JUMPDEST PUSH1 0x1F NOT DUP3 AND SWAP1 PUSH1 0x0 DUP1 MSTORE DUP1 PUSH1 0x0 KECCAK256 SWAP2 PUSH1 0x0 JUMPDEST DUP2 DUP2 LT PUSH2 0x382 JUMPI POP SWAP6 DUP4 PUSH1 0x1 SWAP6 SWAP7 SWAP8 LT PUSH2 0x369 JUMPI JUMPDEST POP POP POP DUP2 SHL ADD PUSH1 0x0 SSTORE PUSH2 0xE5 JUMP JUMPDEST ADD MLOAD PUSH1 0x0 NOT PUSH1 0xF8 DUP5 PUSH1 0x3 SHL AND SHR NOT AND SWAP1 SSTORE CODESIZE DUP1 DUP1 PUSH2 0x35B JUMP JUMPDEST SWAP2 SWAP3 PUSH1 0x20 PUSH1 0x1 DUP2 SWAP3 DUP7 DUP12 ADD MLOAD DUP2 SSTORE ADD SWAP5 ADD SWAP3 ADD PUSH2 0x346 JUMP JUMPDEST PUSH1 0x0 DUP1 MSTORE PUSH32 0x290DECD9548B62A8D60345A988386FC84BA6BC95484008F6362F93160EF3E563 PUSH1 0x1F DUP4 ADD PUSH1 0x5 SHR DUP2 ADD SWAP2 PUSH1 0x20 DUP5 LT PUSH2 0x3F4 JUMPI JUMPDEST PUSH1 0x1F ADD PUSH1 0x5 SHR ADD SWAP1 JUMPDEST DUP2 DUP2 LT PUSH2 0x3E8 JUMPI POP PUSH2 0xB5 JUMP JUMPDEST PUSH1 0x0 DUP2 SSTORE PUSH1 0x1 ADD PUSH2 0x3DB JUMP JUMPDEST SWAP1 SWAP2 POP DUP2 SWAP1 PUSH2 0x3D2 JUMP JUMPDEST SWAP1 PUSH1 0x7F AND SWAP1 PUSH2 0xA3 JUMP JUMPDEST PUSH1 0x0 DUP1 REVERT JUMPDEST PUSH1 0x40 MLOAD SWAP2 SWAP1 PUSH1 0x1F ADD PUSH1 0x1F NOT AND DUP3 ADD PUSH1 0x1 PUSH1 0x1 PUSH1 0x40 SHL SUB DUP2 GT DUP4 DUP3 LT OR PUSH2 0x313 JUMPI PUSH1 0x40 MSTORE JUMP INVALID PUSH1 0x80 DUP1 PUSH1 0x40 MSTORE PUSH1 0x4 CALLDATASIZE LT ISZERO PUSH2 0x13 JUMPI PUSH1 0x0 DUP1 REVERT JUMPDEST PUSH1 0x0 SWAP1 DUP2 CALLDATALOAD PUSH1 0xE0 SHR SWAP1 DUP2 PUSH4 0x1FFC9A7 EQ PUSH2 0xD27 JUMPI POP DUP1 PUSH4 0x6FDDE03 EQ PUSH2 0xC6C JUMPI DUP1 PUSH4 0x81812FC EQ PUSH2 0xC2F JUMPI DUP1 PUSH4 0x95EA7B3 EQ PUSH2 0xB47 JUMPI DUP1 PUSH4 0x18160DDD EQ PUSH2 0xB29 JUMPI DUP1 PUSH4 0x23B872DD EQ PUSH2 0xB11 JUMPI DUP1 PUSH4 0x2AA9856F EQ PUSH2 0xA70 JUMPI DUP1 PUSH4 0x38E21CCE EQ PUSH2 0xA31 JUMPI DUP1 PUSH4 0x42842E0E EQ PUSH2 0xA01 JUMPI DUP1 PUSH4 0x489A5DFF EQ PUSH2 0x9D8 JUMPI DUP1 PUSH4 0x6352211E EQ PUSH2 0x9A7 JUMPI DUP1 PUSH4 0x70A08231 EQ PUSH2 0x980 JUMPI DUP1 PUSH4 0x71231908 EQ PUSH2 0x58C JUMPI DUP1 PUSH4 0x715018A6 EQ PUSH2 0x52F JUMPI DUP1 PUSH4 0x8DA5CB5B EQ PUSH2 0x506 JUMPI DUP1 PUSH4 0x9089C4A5 EQ PUSH2 0x4DD JUMPI DUP1 PUSH4 0x95D89B41 EQ PUSH2 0x3D0 JUMPI DUP1 PUSH4 0xA22CB465 EQ PUSH2 0x32C JUMPI DUP1 PUSH4 0xA230C524 EQ PUSH2 0x2FE JUMPI DUP1 PUSH4 0xB88D4FDE EQ PUSH2 0x25F JUMPI DUP1 PUSH4 0xC87B56DD EQ PUSH2 0x204 JUMPI DUP1 PUSH4 0xE985E9C5 EQ PUSH2 0x1AA JUMPI PUSH4 0xF2FDE38B EQ PUSH2 0x11E JUMPI PUSH1 0x0 DUP1 REVERT JUMPDEST CALLVALUE PUSH2 0x1A7 JUMPI PUSH1 0x20 CALLDATASIZE PUSH1 0x3 NOT ADD SLT PUSH2 0x1A7 JUMPI PUSH2 0x137 PUSH2 0xDD5 JUMP JUMPDEST PUSH2 0x13F PUSH2 0x1120 JUMP JUMPDEST PUSH1 0x1 PUSH1 0x1 PUSH1 0xA0 SHL SUB AND DUP1 ISZERO PUSH2 0x193 JUMPI PUSH1 0x6 DUP1 SLOAD PUSH1 0x1 PUSH1 0x1 PUSH1 0xA0 SHL SUB NOT DUP2 AND DUP4 OR SWAP1 SWAP2 SSTORE PUSH1 0x1 PUSH1 0x1 PUSH1 0xA0 SHL SUB AND PUSH32 0x8BE0079C531659141344CD1FD0A4F28419497F9722A3DAAFE3B4186F6B6457E0 PUSH1 0x0 DUP1 LOG3 DUP1 RETURN JUMPDEST PUSH4 0x1E4FBDF7 PUSH1 0xE0 SHL DUP3 MSTORE PUSH1 0x4 DUP3 SWAP1 MSTORE PUSH1 0x24 DUP3 REVERT JUMPDEST DUP1 REVERT JUMPDEST POP CALLVALUE PUSH2 0x1A7 JUMPI PUSH1 0x40 CALLDATASIZE PUSH1 0x3 NOT ADD SLT PUSH2 0x1A7 JUMPI PUSH1 0x40 PUSH2 0x1C6 PUSH2 0xDD5 JUMP JUMPDEST SWAP2 PUSH2 0x1CF PUSH2 0xDF0 JUMP JUMPDEST SWAP3 PUSH1 0x1 DUP1 PUSH1 0xA0 SHL SUB AND DUP2 MSTORE PUSH1 0x5 PUSH1 0x20 MSTORE KECCAK256 SWAP1 PUSH1 0x1 DUP1 PUSH1 0xA0 SHL SUB AND PUSH1 0x0 MSTORE PUSH1 0x20 MSTORE PUSH1 0x20 PUSH1 0xFF PUSH1 0x40 PUSH1 0x0 KECCAK256 SLOAD AND PUSH1 0x40 MLOAD SWAP1 ISZERO ISZERO DUP2 MSTORE RETURN JUMPDEST POP CALLVALUE PUSH2 0x1A7 JUMPI PUSH1 0x20 CALLDATASIZE PUSH1 0x3 NOT ADD SLT PUSH2 0x1A7 JUMPI PUSH2 0x221 PUSH1 0x4 CALLDATALOAD PUSH2 0x10E9 JUMP JUMPDEST POP PUSH1 0x20 SWAP1 DUP1 PUSH1 0x40 MLOAD PUSH2 0x233 DUP5 DUP3 PUSH2 0xE40 JUMP JUMPDEST MSTORE POP PUSH1 0x40 MLOAD SWAP1 PUSH2 0x243 DUP2 DUP4 PUSH2 0xE40 JUMP JUMPDEST PUSH1 0x0 DUP3 MSTORE PUSH2 0x25B PUSH1 0x40 MLOAD SWAP3 DUP3 DUP5 SWAP4 DUP5 MSTORE DUP4 ADD SWAP1 PUSH2 0xD94 JUMP JUMPDEST SUB SWAP1 RETURN JUMPDEST POP CALLVALUE PUSH2 0x1A7 JUMPI PUSH1 0x80 CALLDATASIZE PUSH1 0x3 NOT ADD SLT PUSH2 0x1A7 JUMPI PUSH2 0x279 PUSH2 0xDD5 JUMP JUMPDEST PUSH2 0x281 PUSH2 0xDF0 JUMP JUMPDEST PUSH1 0x44 CALLDATALOAD PUSH1 0x64 CALLDATALOAD SWAP2 PUSH8 0xFFFFFFFFFFFFFFFF DUP4 GT PUSH2 0x2FA JUMPI CALLDATASIZE PUSH1 0x23 DUP5 ADD SLT ISZERO PUSH2 0x2FA JUMPI DUP3 PUSH1 0x4 ADD CALLDATALOAD SWAP4 DUP6 PUSH2 0x2B2 DUP7 PUSH2 0xE78 JUMP JUMPDEST SWAP5 PUSH2 0x2C0 PUSH1 0x40 MLOAD SWAP7 DUP8 PUSH2 0xE40 JUMP JUMPDEST DUP7 DUP7 MSTORE CALLDATASIZE PUSH1 0x24 DUP9 DUP4 ADD ADD GT PUSH2 0x2F6 JUMPI DUP7 PUSH2 0x2F3 SWAP8 PUSH1 0x24 PUSH1 0x20 SWAP4 ADD DUP4 DUP10 ADD CALLDATACOPY DUP7 ADD ADD MSTORE PUSH2 0x2ED DUP4 DUP4 DUP4 PUSH2 0xE94 JUMP JUMPDEST CALLER PUSH2 0x1149 JUMP JUMPDEST DUP1 RETURN JUMPDEST POP DUP1 REVERT JUMPDEST DUP5 DUP1 REVERT JUMPDEST POP CALLVALUE PUSH2 0x1A7 JUMPI PUSH1 0x20 CALLDATASIZE PUSH1 0x3 NOT ADD SLT PUSH2 0x1A7 JUMPI PUSH1 0x20 PUSH2 0x322 PUSH2 0x31D PUSH2 0xDD5 JUMP JUMPDEST PUSH2 0x10B3 JUMP JUMPDEST ISZERO ISZERO PUSH1 0x40 MLOAD SWAP1 DUP2 MSTORE RETURN JUMPDEST POP CALLVALUE PUSH2 0x1A7 JUMPI PUSH1 0x40 CALLDATASIZE PUSH1 0x3 NOT ADD SLT PUSH2 0x1A7 JUMPI PUSH2 0x346 PUSH2 0xDD5 JUMP JUMPDEST PUSH1 0x24 CALLDATALOAD SWAP1 DUP2 ISZERO ISZERO DUP1 SWAP3 SUB PUSH2 0x3CC JUMPI PUSH1 0x1 PUSH1 0x1 PUSH1 0xA0 SHL SUB AND SWAP1 DUP2 ISZERO PUSH2 0x3B8 JUMPI CALLER DUP4 MSTORE PUSH1 0x5 PUSH1 0x20 MSTORE PUSH1 0x40 DUP4 KECCAK256 DUP3 PUSH1 0x0 MSTORE PUSH1 0x20 MSTORE PUSH1 0x40 PUSH1 0x0 KECCAK256 PUSH1 0xFF NOT DUP2 SLOAD AND PUSH1 0xFF DUP4 AND OR SWAP1 SSTORE PUSH1 0x40 MLOAD SWAP1 DUP2 MSTORE PUSH32 0x17307EAB39AB6107E8899845AD3D59BD9653F200F220920489CA2B5937696C31 PUSH1 0x20 CALLER SWAP3 LOG3 DUP1 RETURN JUMPDEST PUSH4 0xB611743 PUSH1 0xE3 SHL DUP4 MSTORE PUSH1 0x4 DUP3 SWAP1 MSTORE PUSH1 0x24 DUP4 REVERT JUMPDEST DUP3 DUP1 REVERT JUMPDEST POP CALLVALUE PUSH2 0x1A7 JUMPI DUP1 PUSH1 0x3 NOT CALLDATASIZE ADD SLT PUSH2 0x1A7 JUMPI PUSH1 0x40 MLOAD SWAP1 DUP1 PUSH1 0x1 SLOAD SWAP1 DUP2 PUSH1 0x1 SHR SWAP2 PUSH1 0x1 DUP2 AND DUP1 ISZERO PUSH2 0x4D3 JUMPI JUMPDEST PUSH1 0x20 DUP5 LT DUP2 EQ PUSH2 0x4BF JUMPI DUP4 DUP7 MSTORE SWAP1 DUP2 ISZERO PUSH2 0x498 JUMPI POP PUSH1 0x1 EQ PUSH2 0x43B JUMPI JUMPDEST PUSH2 0x25B DUP5 PUSH2 0x427 DUP2 DUP7 SUB DUP3 PUSH2 0xE40 JUMP JUMPDEST PUSH1 0x40 MLOAD SWAP2 DUP3 SWAP2 PUSH1 0x20 DUP4 MSTORE PUSH1 0x20 DUP4 ADD SWAP1 PUSH2 0xD94 JUMP JUMPDEST PUSH1 0x1 DUP2 MSTORE PUSH32 0xB10E2D527612073B26EECDFD717E6A320CF44B4AFAC2B0732D9FCBE2B7FA0CF6 SWAP4 SWAP3 POP SWAP1 JUMPDEST DUP1 DUP3 LT PUSH2 0x47E JUMPI POP SWAP1 SWAP2 POP DUP2 ADD PUSH1 0x20 ADD PUSH2 0x427 DUP3 PUSH2 0x417 JUMP JUMPDEST SWAP2 SWAP3 PUSH1 0x1 DUP2 PUSH1 0x20 SWAP3 SLOAD DUP4 DUP6 DUP9 ADD ADD MSTORE ADD SWAP2 ADD SWAP1 SWAP3 SWAP2 PUSH2 0x465 JUMP JUMPDEST PUSH1 0xFF NOT AND PUSH1 0x20 DUP1 DUP8 ADD SWAP2 SWAP1 SWAP2 MSTORE SWAP3 ISZERO ISZERO PUSH1 0x5 SHL DUP6 ADD SWAP1 SWAP3 ADD SWAP3 POP PUSH2 0x427 SWAP2 POP DUP4 SWAP1 POP PUSH2 0x417 JUMP JUMPDEST PUSH4 0x4E487B71 PUSH1 0xE0 SHL DUP4 MSTORE PUSH1 0x22 PUSH1 0x4 MSTORE PUSH1 0x24 DUP4 REVERT JUMPDEST SWAP3 PUSH1 0x7F AND SWAP3 PUSH2 0x3FA JUMP JUMPDEST POP CALLVALUE PUSH2 0x1A7 JUMPI DUP1 PUSH1 0x3 NOT CALLDATASIZE ADD SLT PUSH2 0x1A7 JUMPI PUSH1 0xA SLOAD PUSH1 0x40 MLOAD PUSH1 0x1 PUSH1 0x1 PUSH1 0xA0 SHL SUB SWAP1 SWAP2 AND DUP2 MSTORE PUSH1 0x20 SWAP1 RETURN JUMPDEST POP CALLVALUE PUSH2 0x1A7 JUMPI DUP1 PUSH1 0x3 NOT CALLDATASIZE ADD SLT PUSH2 0x1A7 JUMPI PUSH1 0x6 SLOAD PUSH1 0x40 MLOAD PUSH1 0x1 PUSH1 0x1 PUSH1 0xA0 SHL SUB SWAP1 SWAP2 AND DUP2 MSTORE PUSH1 0x20 SWAP1 RETURN JUMPDEST POP CALLVALUE PUSH2 0x1A7 JUMPI DUP1 PUSH1 0x3 NOT CALLDATASIZE ADD SLT PUSH2 0x1A7 JUMPI PUSH2 0x548 PUSH2 0x1120 JUMP JUMPDEST PUSH1 0x6 DUP1 SLOAD PUSH1 0x1 PUSH1 0x1 PUSH1 0xA0 SHL SUB NOT DUP2 AND SWAP1 SWAP2 SSTORE DUP2 SWAP1 PUSH1 0x1 PUSH1 0x1 PUSH1 0xA0 SHL SUB AND PUSH32 0x8BE0079C531659141344CD1FD0A4F28419497F9722A3DAAFE3B4186F6B6457E0 DUP3 DUP1 LOG3 DUP1 RETURN JUMPDEST POP CALLVALUE PUSH2 0x1A7 JUMPI DUP1 PUSH1 0x3 NOT CALLDATASIZE ADD SLT PUSH2 0x1A7 JUMPI PUSH1 0x2 PUSH1 0x7 SLOAD EQ PUSH2 0x971 JUMPI PUSH1 0x2 PUSH1 0x7 SSTORE CALLER DUP2 MSTORE PUSH1 0xB PUSH1 0x20 MSTORE PUSH1 0xFF PUSH1 0x40 DUP3 KECCAK256 SLOAD AND PUSH2 0x93B JUMPI PUSH1 0x8 SLOAD SWAP1 PUSH1 0x0 NOT DUP3 EQ PUSH2 0x927 JUMPI PUSH1 0x1 DUP3 ADD PUSH1 0x8 SSTORE PUSH1 0x20 SWAP2 PUSH1 0x40 MLOAD PUSH2 0x5E4 DUP5 DUP3 PUSH2 0xE40 JUMP JUMPDEST DUP3 DUP2 MSTORE CALLER ISZERO PUSH2 0x913 JUMPI DUP2 DUP4 MSTORE PUSH1 0x2 DUP5 MSTORE PUSH1 0x40 DUP4 KECCAK256 SLOAD PUSH1 0x1 PUSH1 0x1 PUSH1 0xA0 SHL SUB AND ISZERO DUP1 ISZERO PUSH2 0x90C JUMPI JUMPDEST ISZERO PUSH2 0x8C7 JUMPI DUP2 DUP4 MSTORE PUSH1 0x2 DUP5 MSTORE PUSH1 0x40 DUP4 KECCAK256 SLOAD PUSH1 0x1 PUSH1 0x1 PUSH1 0xA0 SHL SUB AND DUP1 ISZERO ISZERO SWAP1 DUP2 PUSH2 0x893 JUMPI JUMPDEST CALLER DUP1 DUP7 MSTORE PUSH1 0x3 DUP8 MSTORE PUSH1 0x40 DUP1 DUP8 KECCAK256 DUP1 SLOAD PUSH1 0x1 ADD SWAP1 SSTORE DUP6 DUP8 MSTORE PUSH1 0x2 DUP9 MSTORE DUP7 KECCAK256 DUP1 SLOAD PUSH1 0x1 PUSH1 0x1 PUSH1 0xA0 SHL SUB NOT AND DUP3 OR SWAP1 SSTORE DUP5 SWAP1 DUP3 PUSH32 0xDDF252AD1BE2C89B69C2B068FC378DAA952BA7F163C4A11628F55A4DF523B3EF DUP9 DUP1 LOG4 POP PUSH2 0x87F JUMPI CALLER EXTCODESIZE PUSH2 0x767 JUMPI JUMPDEST POP CALLER DUP3 MSTORE PUSH1 0xB DUP4 MSTORE PUSH1 0x40 DUP3 KECCAK256 DUP1 SLOAD PUSH1 0xFF NOT AND PUSH1 0x1 OR SWAP1 SSTORE PUSH1 0xA SLOAD SWAP2 SWAP3 SWAP1 SWAP2 DUP4 SWAP1 PUSH1 0x1 PUSH1 0x1 PUSH1 0xA0 SHL SUB AND DUP1 EXTCODESIZE ISZERO PUSH2 0x2F6 JUMPI DUP2 SWAP1 PUSH1 0x44 PUSH1 0x40 MLOAD DUP1 SWAP5 DUP2 SWAP4 PUSH4 0x40C10F19 PUSH1 0xE0 SHL DUP4 MSTORE CALLER PUSH1 0x4 DUP5 ADD MSTORE PUSH8 0xDE0B6B3A7640000 PUSH1 0x24 DUP5 ADD MSTORE GAS CALL DUP1 ISZERO PUSH2 0x75C JUMPI PUSH2 0x728 JUMPI JUMPDEST POP PUSH32 0xBAB4562AE868D1765ED8452E98BBA908A974596C4BABC3ADA5E90E05E3F433FB SWAP1 PUSH1 0x40 MLOAD SWAP3 DUP4 MSTORE CALLER SWAP3 LOG2 PUSH1 0x1 PUSH1 0x7 SSTORE DUP1 RETURN JUMPDEST SWAP3 PUSH2 0x755 DUP2 PUSH32 0xBAB4562AE868D1765ED8452E98BBA908A974596C4BABC3ADA5E90E05E3F433FB SWAP4 SWAP6 PUSH2 0xE40 JUMP JUMPDEST SWAP3 SWAP1 PUSH2 0x6F4 JUMP JUMPDEST PUSH1 0x40 MLOAD RETURNDATASIZE DUP7 DUP3 RETURNDATACOPY RETURNDATASIZE SWAP1 REVERT JUMPDEST DUP4 PUSH2 0x7A0 SWAP2 PUSH1 0x40 MLOAD DUP1 SWAP4 DUP2 SWAP3 PUSH4 0xA85BD01 PUSH1 0xE1 SHL DUP4 MSTORE CALLER PUSH1 0x4 DUP5 ADD MSTORE DUP8 PUSH1 0x24 DUP5 ADD MSTORE DUP7 PUSH1 0x44 DUP5 ADD MSTORE PUSH1 0x80 PUSH1 0x64 DUP5 ADD MSTORE PUSH1 0x84 DUP4 ADD SWAP1 PUSH2 0xD94 JUMP JUMPDEST SUB DUP2 DUP7 CALLER GAS CALL DUP4 SWAP2 DUP2 PUSH2 0x83B JUMPI JUMPDEST POP PUSH2 0x805 JUMPI POP POP RETURNDATASIZE ISZERO PUSH2 0x7FD JUMPI RETURNDATASIZE SWAP2 PUSH2 0x7C6 DUP4 PUSH2 0xE78 JUMP JUMPDEST SWAP3 PUSH2 0x7D4 PUSH1 0x40 MLOAD SWAP5 DUP6 PUSH2 0xE40 JUMP JUMPDEST DUP4 MSTORE RETURNDATASIZE DUP3 DUP3 DUP6 ADD RETURNDATACOPY JUMPDEST DUP3 MLOAD SWAP3 DUP4 PUSH2 0x7F8 JUMPI PUSH4 0x32505749 PUSH1 0xE1 SHL DUP4 MSTORE CALLER PUSH1 0x4 MSTORE PUSH1 0x24 DUP4 REVERT JUMPDEST ADD SWAP1 POP REVERT JUMPDEST PUSH1 0x60 SWAP2 PUSH2 0x7DD JUMP JUMPDEST SWAP2 SWAP3 SWAP1 SWAP2 PUSH1 0x1 PUSH1 0x1 PUSH1 0xE0 SHL SUB NOT AND PUSH4 0x757A42FF PUSH1 0xE1 SHL ADD PUSH2 0x828 JUMPI SWAP2 SWAP1 CODESIZE PUSH2 0x68E JUMP JUMPDEST PUSH4 0x32505749 PUSH1 0xE1 SHL DUP4 MSTORE CALLER PUSH1 0x4 MSTORE PUSH1 0x24 DUP4 REVERT JUMPDEST SWAP1 SWAP2 POP DUP5 DUP2 DUP2 RETURNDATASIZE DUP4 GT PUSH2 0x878 JUMPI JUMPDEST PUSH2 0x853 DUP2 DUP4 PUSH2 0xE40 JUMP JUMPDEST DUP2 ADD SUB SLT PUSH2 0x874 JUMPI MLOAD PUSH1 0x1 PUSH1 0x1 PUSH1 0xE0 SHL SUB NOT DUP2 AND DUP2 SUB PUSH2 0x874 JUMPI SWAP1 CODESIZE PUSH2 0x7AE JUMP JUMPDEST DUP4 DUP1 REVERT JUMPDEST POP RETURNDATASIZE PUSH2 0x849 JUMP JUMPDEST PUSH4 0x39E35637 PUSH1 0xE1 SHL DUP4 MSTORE PUSH1 0x4 DUP4 SWAP1 MSTORE PUSH1 0x24 DUP4 REVERT JUMPDEST PUSH1 0x0 DUP5 DUP2 MSTORE PUSH1 0x4 PUSH1 0x20 MSTORE PUSH1 0x40 SWAP1 KECCAK256 DUP1 SLOAD PUSH1 0x1 PUSH1 0x1 PUSH1 0xA0 SHL SUB NOT AND SWAP1 SSTORE DUP1 DUP6 MSTORE PUSH1 0x3 DUP7 MSTORE PUSH1 0x40 DUP6 KECCAK256 DUP1 SLOAD PUSH1 0x0 NOT ADD SWAP1 SSTORE PUSH2 0x62E JUMP JUMPDEST PUSH1 0x40 MLOAD PUSH3 0x461BCD PUSH1 0xE5 SHL DUP2 MSTORE PUSH1 0x4 DUP2 ADD DUP6 SWAP1 MSTORE PUSH1 0x1E PUSH1 0x24 DUP3 ADD MSTORE PUSH32 0x5342543A20546F6B656E206973206E6F6E2D7472616E7366657261626C650000 PUSH1 0x44 DUP3 ADD MSTORE PUSH1 0x64 SWAP1 REVERT JUMPDEST POP DUP3 PUSH2 0x60A JUMP JUMPDEST PUSH4 0x32505749 PUSH1 0xE1 SHL DUP4 MSTORE PUSH1 0x4 DUP4 SWAP1 MSTORE PUSH1 0x24 DUP4 REVERT JUMPDEST PUSH4 0x4E487B71 PUSH1 0xE0 SHL DUP2 MSTORE PUSH1 0x11 PUSH1 0x4 MSTORE PUSH1 0x24 SWAP1 REVERT JUMPDEST PUSH1 0x40 MLOAD PUSH3 0x461BCD PUSH1 0xE5 SHL DUP2 MSTORE PUSH1 0x20 PUSH1 0x4 DUP3 ADD MSTORE PUSH1 0xE PUSH1 0x24 DUP3 ADD MSTORE PUSH14 0x105B1C9958591E481B5A5B9D1959 PUSH1 0x92 SHL PUSH1 0x44 DUP3 ADD MSTORE PUSH1 0x64 SWAP1 REVERT JUMPDEST PUSH4 0x3EE5AEB5 PUSH1 0xE0 SHL DUP2 MSTORE PUSH1 0x4 SWAP1 REVERT JUMPDEST POP CALLVALUE PUSH2 0x1A7 JUMPI PUSH1 0x20 CALLDATASIZE PUSH1 0x3 NOT ADD SLT PUSH2 0x1A7 JUMPI PUSH1 0x20 PUSH2 0x99F PUSH2 0x31D PUSH2 0xDD5 JUMP JUMPDEST PUSH1 0x40 MLOAD SWAP1 DUP2 MSTORE RETURN JUMPDEST POP CALLVALUE PUSH2 0x1A7 JUMPI PUSH1 0x20 CALLDATASIZE PUSH1 0x3 NOT ADD SLT PUSH2 0x1A7 JUMPI PUSH1 0x20 PUSH2 0x9C6 PUSH1 0x4 CALLDATALOAD PUSH2 0x10E9 JUMP JUMPDEST PUSH1 0x40 MLOAD PUSH1 0x1 PUSH1 0x1 PUSH1 0xA0 SHL SUB SWAP1 SWAP2 AND DUP2 MSTORE RETURN JUMPDEST POP CALLVALUE PUSH2 0x1A7 JUMPI DUP1 PUSH1 0x3 NOT CALLDATASIZE ADD SLT PUSH2 0x1A7 JUMPI PUSH1 0x9 SLOAD PUSH1 0x40 MLOAD PUSH1 0x1 PUSH1 0x1 PUSH1 0xA0 SHL SUB SWAP1 SWAP2 AND DUP2 MSTORE PUSH1 0x20 SWAP1 RETURN JUMPDEST POP CALLVALUE PUSH2 0x1A7 JUMPI PUSH2 0x2F3 PUSH2 0xA13 CALLDATASIZE PUSH2 0xE06 JUMP JUMPDEST SWAP1 PUSH1 0x40 MLOAD SWAP3 PUSH2 0xA23 PUSH1 0x20 DUP6 PUSH2 0xE40 JUMP JUMPDEST DUP6 DUP5 MSTORE PUSH2 0x2ED DUP4 DUP4 DUP4 PUSH2 0xE94 JUMP JUMPDEST POP CALLVALUE PUSH2 0x1A7 JUMPI PUSH1 0x20 CALLDATASIZE PUSH1 0x3 NOT ADD SLT PUSH2 0x1A7 JUMPI PUSH1 0x20 SWAP1 PUSH1 0xFF SWAP1 PUSH1 0x40 SWAP1 PUSH1 0x1 PUSH1 0x1 PUSH1 0xA0 SHL SUB PUSH2 0xA5C PUSH2 0xDD5 JUMP JUMPDEST AND DUP2 MSTORE PUSH1 0xB DUP5 MSTORE KECCAK256 SLOAD AND PUSH1 0x40 MLOAD SWAP1 ISZERO ISZERO DUP2 MSTORE RETURN JUMPDEST POP CALLVALUE PUSH2 0x1A7 JUMPI PUSH1 0x20 CALLDATASIZE PUSH1 0x3 NOT ADD SLT PUSH2 0x1A7 JUMPI PUSH2 0xA8A PUSH2 0xDD5 JUMP JUMPDEST PUSH2 0xA92 PUSH2 0x1120 JUMP JUMPDEST PUSH1 0x1 PUSH1 0x1 PUSH1 0xA0 SHL SUB AND DUP1 ISZERO PUSH2 0xADA JUMPI PUSH1 0x9 DUP1 SLOAD PUSH1 0x1 PUSH1 0x1 PUSH1 0xA0 SHL SUB NOT AND DUP3 OR SWAP1 SSTORE PUSH32 0x96E3034F1C2EBD9B4032D59F8958CD43D6BF42E8740708F5277D4B42FBAD079A DUP3 DUP1 LOG2 DUP1 RETURN JUMPDEST PUSH1 0x40 MLOAD PUSH3 0x461BCD PUSH1 0xE5 SHL DUP2 MSTORE PUSH1 0x20 PUSH1 0x4 DUP3 ADD MSTORE PUSH1 0xF PUSH1 0x24 DUP3 ADD MSTORE PUSH15 0x496E76616C69642061646472657373 PUSH1 0x88 SHL PUSH1 0x44 DUP3 ADD MSTORE PUSH1 0x64 SWAP1 REVERT JUMPDEST POP CALLVALUE PUSH2 0x1A7 JUMPI PUSH2 0x2F3 PUSH2 0xB23 CALLDATASIZE PUSH2 0xE06 JUMP JUMPDEST SWAP2 PUSH2 0xE94 JUMP JUMPDEST POP CALLVALUE PUSH2 0x1A7 JUMPI DUP1 PUSH1 0x3 NOT CALLDATASIZE ADD SLT PUSH2 0x1A7 JUMPI PUSH1 0x20 PUSH1 0x8 SLOAD PUSH1 0x40 MLOAD SWAP1 DUP2 MSTORE RETURN JUMPDEST POP CALLVALUE PUSH2 0x1A7 JUMPI PUSH1 0x40 CALLDATASIZE PUSH1 0x3 NOT ADD SLT PUSH2 0x1A7 JUMPI PUSH2 0xB61 PUSH2 0xDD5 JUMP JUMPDEST PUSH1 0x24 CALLDATALOAD PUSH2 0xB6D DUP2 PUSH2 0x10E9 JUMP JUMPDEST CALLER ISZERO ISZERO DUP1 PUSH2 0xC1C JUMPI JUMPDEST DUP1 PUSH2 0xBF1 JUMPI JUMPDEST PUSH2 0xBDE JUMPI DUP2 SWAP1 PUSH1 0x1 PUSH1 0x1 PUSH1 0xA0 SHL SUB DUP5 DUP2 AND SWAP2 AND PUSH32 0x8C5BE1E5EBEC7D5BD14F71427D1E84F3DD0314C0F7B2291E5B200AC8C7C3B925 DUP7 DUP1 LOG4 DUP3 MSTORE PUSH1 0x4 PUSH1 0x20 MSTORE PUSH1 0x40 DUP3 KECCAK256 DUP1 SLOAD PUSH1 0x1 PUSH1 0x1 PUSH1 0xA0 SHL SUB NOT AND PUSH1 0x1 PUSH1 0x1 PUSH1 0xA0 SHL SUB SWAP1 SWAP3 AND SWAP2 SWAP1 SWAP2 OR SWAP1 SSTORE DUP1 RETURN JUMPDEST PUSH4 0xA9FBF51F PUSH1 0xE0 SHL DUP5 MSTORE CALLER PUSH1 0x4 MSTORE PUSH1 0x24 DUP5 REVERT JUMPDEST POP PUSH1 0x1 PUSH1 0x1 PUSH1 0xA0 SHL SUB DUP2 AND DUP5 MSTORE PUSH1 0x5 PUSH1 0x20 SWAP1 DUP2 MSTORE PUSH1 0x40 DUP1 DUP7 KECCAK256 CALLER DUP8 MSTORE SWAP1 SWAP2 MSTORE DUP5 KECCAK256 SLOAD PUSH1 0xFF AND ISZERO PUSH2 0xB7C JUMP JUMPDEST POP PUSH1 0x1 PUSH1 0x1 PUSH1 0xA0 SHL SUB DUP2 AND CALLER EQ ISZERO PUSH2 0xB76 JUMP JUMPDEST POP CALLVALUE PUSH2 0x1A7 JUMPI PUSH1 0x20 CALLDATASIZE PUSH1 0x3 NOT ADD SLT PUSH2 0x1A7 JUMPI PUSH1 0x20 SWAP1 PUSH1 0x4 CALLDATALOAD PUSH2 0xC50 DUP2 PUSH2 0x10E9 JUMP JUMPDEST POP DUP2 MSTORE PUSH1 0x4 DUP3 MSTORE PUSH1 0x40 PUSH1 0x1 DUP1 PUSH1 0xA0 SHL SUB SWAP2 KECCAK256 SLOAD AND PUSH1 0x40 MLOAD SWAP1 DUP2 MSTORE RETURN JUMPDEST POP CALLVALUE PUSH2 0x1A7 JUMPI DUP1 PUSH1 0x3 NOT CALLDATASIZE ADD SLT PUSH2 0x1A7 JUMPI PUSH1 0x40 MLOAD SWAP1 DUP1 DUP1 SLOAD SWAP1 DUP2 PUSH1 0x1 SHR SWAP2 PUSH1 0x1 DUP2 AND DUP1 ISZERO PUSH2 0xD1D JUMPI JUMPDEST PUSH1 0x20 DUP5 LT DUP2 EQ PUSH2 0x4BF JUMPI DUP4 DUP7 MSTORE SWAP1 DUP2 ISZERO PUSH2 0x498 JUMPI POP PUSH1 0x1 EQ PUSH2 0xCC1 JUMPI PUSH2 0x25B DUP5 PUSH2 0x427 DUP2 DUP7 SUB DUP3 PUSH2 0xE40 JUMP JUMPDEST DUP1 DUP1 MSTORE PUSH32 0x290DECD9548B62A8D60345A988386FC84BA6BC95484008F6362F93160EF3E563 SWAP4 SWAP3 POP SWAP1 JUMPDEST DUP1 DUP3 LT PUSH2 0xD03 JUMPI POP SWAP1 SWAP2 POP DUP2 ADD PUSH1 0x20 ADD PUSH2 0x427 DUP3 PUSH2 0x417 JUMP JUMPDEST SWAP2 SWAP3 PUSH1 0x1 DUP2 PUSH1 0x20 SWAP3 SLOAD DUP4 DUP6 DUP9 ADD ADD MSTORE ADD SWAP2 ADD SWAP1 SWAP3 SWAP2 PUSH2 0xCEA JUMP JUMPDEST SWAP3 PUSH1 0x7F AND SWAP3 PUSH2 0xC95 JUMP JUMPDEST SWAP1 POP CALLVALUE PUSH2 0x2F6 JUMPI PUSH1 0x20 CALLDATASIZE PUSH1 0x3 NOT ADD SLT PUSH2 0x2F6 JUMPI PUSH1 0x4 CALLDATALOAD PUSH4 0xFFFFFFFF PUSH1 0xE0 SHL DUP2 AND DUP1 SWAP2 SUB PUSH2 0x3CC JUMPI PUSH1 0x20 SWAP3 POP PUSH4 0x80AC58CD PUSH1 0xE0 SHL DUP2 EQ SWAP1 DUP2 ISZERO PUSH2 0xD83 JUMPI JUMPDEST DUP2 ISZERO PUSH2 0xD72 JUMPI JUMPDEST POP ISZERO ISZERO DUP2 MSTORE RETURN JUMPDEST PUSH4 0x1FFC9A7 PUSH1 0xE0 SHL EQ SWAP1 POP CODESIZE PUSH2 0xD6B JUMP JUMPDEST PUSH4 0x5B5E139F PUSH1 0xE0 SHL DUP2 EQ SWAP2 POP PUSH2 0xD64 JUMP JUMPDEST SWAP2 SWAP1 DUP3 MLOAD SWAP3 DUP4 DUP3 MSTORE PUSH1 0x0 JUMPDEST DUP5 DUP2 LT PUSH2 0xDC0 JUMPI POP POP DUP3 PUSH1 0x0 PUSH1 0x20 DUP1 SWAP5 SWAP6 DUP5 ADD ADD MSTORE PUSH1 0x1F DUP1 NOT SWAP2 ADD AND ADD ADD SWAP1 JUMP JUMPDEST DUP1 PUSH1 0x20 DUP1 SWAP3 DUP5 ADD ADD MLOAD DUP3 DUP3 DUP7 ADD ADD MSTORE ADD PUSH2 0xD9F JUMP JUMPDEST PUSH1 0x4 CALLDATALOAD SWAP1 PUSH1 0x1 PUSH1 0x1 PUSH1 0xA0 SHL SUB DUP3 AND DUP3 SUB PUSH2 0xDEB JUMPI JUMP JUMPDEST PUSH1 0x0 DUP1 REVERT JUMPDEST PUSH1 0x24 CALLDATALOAD SWAP1 PUSH1 0x1 PUSH1 0x1 PUSH1 0xA0 SHL SUB DUP3 AND DUP3 SUB PUSH2 0xDEB JUMPI JUMP JUMPDEST PUSH1 0x60 SWAP1 PUSH1 0x3 NOT ADD SLT PUSH2 0xDEB JUMPI PUSH1 0x4 CALLDATALOAD PUSH1 0x1 PUSH1 0x1 PUSH1 0xA0 SHL SUB DUP2 AND DUP2 SUB PUSH2 0xDEB JUMPI SWAP1 PUSH1 0x24 CALLDATALOAD PUSH1 0x1 PUSH1 0x1 PUSH1 0xA0 SHL SUB DUP2 AND DUP2 SUB PUSH2 0xDEB JUMPI SWAP1 PUSH1 0x44 CALLDATALOAD SWAP1 JUMP JUMPDEST SWAP1 PUSH1 0x1F DUP1 NOT SWAP2 ADD AND DUP2 ADD SWAP1 DUP2 LT PUSH8 0xFFFFFFFFFFFFFFFF DUP3 GT OR PUSH2 0xE62 JUMPI PUSH1 0x40 MSTORE JUMP JUMPDEST PUSH4 0x4E487B71 PUSH1 0xE0 SHL PUSH1 0x0 MSTORE PUSH1 0x41 PUSH1 0x4 MSTORE PUSH1 0x24 PUSH1 0x0 REVERT JUMPDEST PUSH8 0xFFFFFFFFFFFFFFFF DUP2 GT PUSH2 0xE62 JUMPI PUSH1 0x1F ADD PUSH1 0x1F NOT AND PUSH1 0x20 ADD SWAP1 JUMP JUMPDEST PUSH1 0x1 PUSH1 0x1 PUSH1 0xA0 SHL SUB SWAP1 SWAP2 AND SWAP2 SWAP1 DUP3 ISZERO PUSH2 0x109D JUMPI PUSH1 0x0 DUP3 DUP2 MSTORE PUSH1 0x2 PUSH1 0x20 MSTORE PUSH1 0x40 DUP2 KECCAK256 SLOAD SWAP1 SWAP4 SWAP1 PUSH1 0x1 PUSH1 0x1 PUSH1 0xA0 SHL SUB AND ISZERO DUP1 ISZERO PUSH2 0x1096 JUMPI JUMPDEST ISZERO PUSH2 0x1051 JUMPI DUP3 DUP5 MSTORE PUSH1 0x2 PUSH1 0x20 MSTORE PUSH1 0x40 DUP5 KECCAK256 SLOAD PUSH1 0x1 PUSH1 0x1 PUSH1 0xA0 SHL SUB AND SWAP4 DUP4 SWAP2 SWAP1 DUP6 SWAP1 CALLER ISZERO ISZERO DUP1 PUSH2 0xFB9 JUMPI JUMPDEST POP PUSH32 0xDDF252AD1BE2C89B69C2B068FC378DAA952BA7F163C4A11628F55A4DF523B3EF SWAP1 DUP3 PUSH2 0xF84 JUMPI JUMPDEST DUP4 DUP2 MSTORE PUSH1 0x3 PUSH1 0x20 MSTORE PUSH1 0x40 DUP2 KECCAK256 PUSH1 0x1 DUP2 SLOAD ADD SWAP1 SSTORE DUP5 DUP2 MSTORE PUSH1 0x2 PUSH1 0x20 MSTORE PUSH1 0x40 DUP2 KECCAK256 DUP5 PUSH12 0xFFFFFFFFFFFFFFFFFFFFFFFF PUSH1 0xA0 SHL DUP3 SLOAD AND OR SWAP1 SSTORE DUP1 LOG4 PUSH1 0x1 PUSH1 0x1 PUSH1 0xA0 SHL SUB AND DUP1 DUP4 SUB PUSH2 0xF6A JUMPI POP POP POP JUMP JUMPDEST PUSH4 0x64283D7B PUSH1 0xE0 SHL PUSH1 0x0 MSTORE PUSH1 0x4 MSTORE PUSH1 0x24 MSTORE PUSH1 0x44 MSTORE PUSH1 0x64 PUSH1 0x0 REVERT JUMPDEST PUSH1 0x0 DUP6 DUP2 MSTORE PUSH1 0x4 PUSH1 0x20 MSTORE PUSH1 0x40 SWAP1 KECCAK256 DUP1 SLOAD PUSH1 0x1 PUSH1 0x1 PUSH1 0xA0 SHL SUB NOT AND SWAP1 SSTORE DUP3 DUP2 MSTORE PUSH1 0x3 PUSH1 0x20 MSTORE PUSH1 0x40 DUP2 KECCAK256 DUP1 SLOAD PUSH1 0x0 NOT ADD SWAP1 SSTORE PUSH2 0xF1D JUMP JUMPDEST SWAP2 POP SWAP2 SWAP3 POP DUP1 PUSH2 0x1002 JUMPI JUMPDEST ISZERO PUSH2 0xFD3 JUMPI SWAP1 DUP5 DUP5 SWAP3 CODESIZE PUSH2 0xEF4 JUMP JUMPDEST DUP4 SWAP1 DUP6 PUSH2 0xFEC JUMPI PUSH1 0x24 SWAP2 PUSH4 0x7E273289 PUSH1 0xE0 SHL DUP3 MSTORE PUSH1 0x4 MSTORE REVERT JUMPDEST PUSH1 0x44 SWAP2 PUSH4 0x177E802F PUSH1 0xE0 SHL DUP3 MSTORE CALLER PUSH1 0x4 MSTORE PUSH1 0x24 MSTORE REVERT JUMPDEST POP CALLER DUP6 EQ DUP1 ISZERO PUSH2 0x1030 JUMPI JUMPDEST DUP1 PUSH2 0xFC4 JUMPI POP DUP4 DUP2 MSTORE PUSH1 0x4 PUSH1 0x20 MSTORE PUSH1 0x40 DUP2 KECCAK256 SLOAD PUSH1 0x1 PUSH1 0x1 PUSH1 0xA0 SHL SUB AND CALLER EQ PUSH2 0xFC4 JUMP JUMPDEST POP DUP5 DUP2 MSTORE PUSH1 0x5 PUSH1 0x20 SWAP1 DUP2 MSTORE PUSH1 0x40 DUP1 DUP4 KECCAK256 CALLER DUP5 MSTORE SWAP1 SWAP2 MSTORE DUP2 KECCAK256 SLOAD PUSH1 0xFF AND PUSH2 0x100D JUMP JUMPDEST PUSH1 0x40 MLOAD PUSH3 0x461BCD PUSH1 0xE5 SHL DUP2 MSTORE PUSH1 0x20 PUSH1 0x4 DUP3 ADD MSTORE PUSH1 0x1E PUSH1 0x24 DUP3 ADD MSTORE PUSH32 0x5342543A20546F6B656E206973206E6F6E2D7472616E7366657261626C650000 PUSH1 0x44 DUP3 ADD MSTORE PUSH1 0x64 SWAP1 REVERT JUMPDEST POP DUP4 PUSH2 0xECA JUMP JUMPDEST PUSH4 0x32505749 PUSH1 0xE1 SHL PUSH1 0x0 MSTORE PUSH1 0x0 PUSH1 0x4 MSTORE PUSH1 0x24 PUSH1 0x0 REVERT JUMPDEST PUSH1 0x1 PUSH1 0x1 PUSH1 0xA0 SHL SUB AND DUP1 ISZERO PUSH2 0x10D3 JUMPI PUSH1 0x0 MSTORE PUSH1 0x3 PUSH1 0x20 MSTORE PUSH1 0x40 PUSH1 0x0 KECCAK256 SLOAD SWAP1 JUMP JUMPDEST PUSH4 0x22718AD9 PUSH1 0xE2 SHL PUSH1 0x0 MSTORE PUSH1 0x0 PUSH1 0x4 MSTORE PUSH1 0x24 PUSH1 0x0 REVERT JUMPDEST PUSH1 0x0 DUP2 DUP2 MSTORE PUSH1 0x2 PUSH1 0x20 MSTORE PUSH1 0x40 SWAP1 KECCAK256 SLOAD PUSH1 0x1 PUSH1 0x1 PUSH1 0xA0 SHL SUB AND SWAP1 DUP2 ISZERO PUSH2 0x110C JUMPI POP SWAP1 JUMP JUMPDEST PUSH4 0x7E273289 PUSH1 0xE0 SHL PUSH1 0x0 MSTORE PUSH1 0x4 MSTORE PUSH1 0x24 PUSH1 0x0 REVERT JUMPDEST PUSH1 0x6 SLOAD PUSH1 0x1 PUSH1 0x1 PUSH1 0xA0 SHL SUB AND CALLER SUB PUSH2 0x1134 JUMPI JUMP JUMPDEST PUSH4 0x118CDAA7 PUSH1 0xE0 SHL PUSH1 0x0 MSTORE CALLER PUSH1 0x4 MSTORE PUSH1 0x24 PUSH1 0x0 REVERT JUMPDEST DUP3 EXTCODESIZE PUSH2 0x1157 JUMPI JUMPDEST POP POP POP POP POP JUMP JUMPDEST PUSH1 0x40 MLOAD PUSH4 0xA85BD01 PUSH1 0xE1 SHL DUP2 MSTORE PUSH1 0x1 PUSH1 0x1 PUSH1 0xA0 SHL SUB SWAP2 DUP3 AND PUSH1 0x4 DUP3 ADD MSTORE SWAP2 DUP2 AND PUSH1 0x24 DUP4 ADD MSTORE PUSH1 0x44 DUP3 ADD SWAP4 SWAP1 SWAP4 MSTORE PUSH1 0x80 PUSH1 0x64 DUP3 ADD MSTORE SWAP2 AND SWAP2 PUSH1 0x20 SWAP1 DUP3 SWAP1 DUP2 SWAP1 PUSH2 0x11A3 SWAP1 PUSH1 0x84 DUP4 ADD SWAP1 PUSH2 0xD94 JUMP JUMPDEST SUB DUP2 PUSH1 0x0 DUP7 GAS CALL DUP1 SWAP2 PUSH1 0x0 SWAP2 PUSH2 0x1243 JUMPI JUMPDEST POP SWAP1 PUSH2 0x120D JUMPI POP RETURNDATASIZE ISZERO PUSH2 0x1206 JUMPI RETURNDATASIZE PUSH2 0x11CB DUP2 PUSH2 0xE78 JUMP JUMPDEST SWAP1 PUSH2 0x11D9 PUSH1 0x40 MLOAD SWAP3 DUP4 PUSH2 0xE40 JUMP JUMPDEST DUP2 MSTORE RETURNDATASIZE PUSH1 0x0 PUSH1 0x20 DUP4 ADD RETURNDATACOPY JUMPDEST DUP1 MLOAD SWAP1 DUP2 PUSH2 0x1201 JUMPI DUP3 PUSH4 0x32505749 PUSH1 0xE1 SHL PUSH1 0x0 MSTORE PUSH1 0x4 MSTORE PUSH1 0x24 PUSH1 0x0 REVERT JUMPDEST PUSH1 0x20 ADD REVERT JUMPDEST PUSH1 0x60 PUSH2 0x11E4 JUMP JUMPDEST PUSH1 0x1 PUSH1 0x1 PUSH1 0xE0 SHL SUB NOT AND PUSH4 0x757A42FF PUSH1 0xE1 SHL ADD PUSH2 0x122F JUMPI POP CODESIZE DUP1 DUP1 DUP1 DUP1 PUSH2 0x1150 JUMP JUMPDEST PUSH4 0x32505749 PUSH1 0xE1 SHL PUSH1 0x0 MSTORE PUSH1 0x4 MSTORE PUSH1 0x24 PUSH1 0x0 REVERT JUMPDEST PUSH1 0x20 DUP2 RETURNDATASIZE PUSH1 0x20 GT PUSH2 0x127E JUMPI JUMPDEST DUP2 PUSH2 0x125C PUSH1 0x20 SWAP4 DUP4 PUSH2 0xE40 JUMP JUMPDEST DUP2 ADD SUB SLT PUSH2 0x2F6 JUMPI MLOAD SWAP1 PUSH1 0x1 PUSH1 0x1 PUSH1 0xE0 SHL SUB NOT DUP3 AND DUP3 SUB PUSH2 0x1A7 JUMPI POP CODESIZE PUSH2 0x11B4 JUMP JUMPDEST RETURNDATASIZE SWAP2 POP PUSH2 0x124F JUMP INVALID LOG2 PUSH5 0x6970667358 0x22 SLT KECCAK256 RJUMP 0xA6E9 0x4F NOT DUP1 0xB3 0xD2 CALLDATASIZE GASPRICE JUMPI 0xF 0x4C 0xBC MSTORE8 DUP8 DUP2 0x29 SWAP12 SWAP12 0xE2 SWAP12 MUL CALLER EXTCODEHASH SWAP9 0xB0 PUSH1 0x4B RJUMPI 0x7A76 PUSH5 0x736F6C6343 STOP ADDMOD 0x1E STOP CALLER "},"methodIdentifiers":{"approve(address,uint256)":"095ea7b3","balanceOf(address)":"70a08231","campaignToken()":"9089c4a5","getApproved(uint256)":"081812fc","hasMinted(address)":"38e21cce","isApprovedForAll(address,address)":"e985e9c5","isMember(address)":"a230c524","mintMembership()":"71231908","name()":"06fdde03","owner()":"8da5cb5b","ownerOf(uint256)":"6352211e","petitionContract()":"489a5dff","renounceOwnership()":"715018a6","safeTransferFrom(address,address,uint256)":"42842e0e","safeTransferFrom(address,address,uint256,bytes)":"b88d4fde","setApprovalForAll(address,bool)":"a22cb465","setPetitionContract(address)":"2aa9856f","supportsInterface(bytes4)":"01ffc9a7","symbol()":"95d89b41","tokenURI(uint256)":"c87b56dd","totalSupply()":"18160ddd","transferFrom(address,address,uint256)":"23b872dd","transferOwnership(address)":"f2fde38b"}}}}}