{"contracts/PetitionPlatform.sol":{"PetitionPlatform":{"abi":[{"inputs":[{"internalType":"address","name":"_soulboundMember","type":"address"},{"internalType":"address","name":"_campaignToken","type":"address"}],"stateMutability":"nonpayable","type":"constructor"},{"inputs":[{"internalType":"address","name":"sender","type":"address"},{"internalType":"uint256","name":"balance","type":"uint256"},{"internalType":"uint256","name":"needed","type":"uint256"},{"internalType":"uint256","name":"tokenId","type":"uint256"}],"name":"ERC1155InsufficientBalance","type":"error"},{"inputs":[{"internalType":"address","name":"approver","type":"address"}],"name":"ERC1155InvalidApprover","type":"error"},{"inputs":[{"internalType":"uint256","name":"idsLength","type":"uint256"},{"internalType":"uint256","name":"valuesLength","type":"uint256"}],"name":"ERC1155InvalidArrayLength","type":"error"},{"inputs":[{"internalType":"address","name":"operator","type":"address"}],"name":"ERC1155InvalidOperator","type":"error"},{"inputs":[{"internalType":"address","name":"receiver","type":"address"}],"name":"ERC1155InvalidReceiver","type":"error"},{"inputs":[{"internalType":"address","name":"sender","type":"address"}],"name":"ERC1155InvalidSender","type":"error"},{"inputs":[{"internalType":"address","name":"operator","type":"address"},{"internalType":"address","name":"owner","type":"address"}],"name":"ERC1155MissingApprovalForAll","type":"error"},{"inputs":[{"internalType":"address","name":"owner","type":"address"}],"name":"OwnableInvalidOwner","type":"error"},{"inputs":[{"internalType":"address","name":"account","type":"address"}],"name":"OwnableUnauthorizedAccount","type":"error"},{"inputs":[],"name":"ReentrancyGuardReentrantCall","type":"error"},{"anonymous":false,"inputs":[{"indexed":true,"internalType":"address","name":"account","type":"address"},{"indexed":true,"internalType":"address","name":"operator","type":"address"},{"indexed":false,"internalType":"bool","name":"approved","type":"bool"}],"name":"ApprovalForAll","type":"event"},{"anonymous":false,"inputs":[{"indexed":true,"internalType":"address","name":"previousOwner","type":"address"},{"indexed":true,"internalType":"address","name":"newOwner","type":"address"}],"name":"OwnershipTransferred","type":"event"},{"anonymous":false,"inputs":[{"indexed":true,"internalType":"uint256","name":"petitionId","type":"uint256"},{"indexed":true,"internalType":"address","name":"booster","type":"address"},{"indexed":false,"internalType":"uint256","name":"boostEndTime","type":"uint256"},{"indexed":false,"internalType":"uint256","name":"boostPriority","type":"uint256"}],"name":"PetitionBoosted","type":"event"},{"anonymous":false,"inputs":[{"indexed":true,"internalType":"uint256","name":"petitionId","type":"uint256"},{"indexed":true,"internalType":"address","name":"creator","type":"address"},{"indexed":false,"internalType":"string","name":"title","type":"string"},{"indexed":false,"internalType":"string","name":"imageHash","type":"string"},{"indexed":false,"internalType":"bool","name":"usedToken","type":"bool"},{"indexed":false,"internalType":"uint256","name":"feePaid","type":"uint256"},{"indexed":false,"internalType":"uint256","name":"createdAt","type":"uint256"}],"name":"PetitionCreated","type":"event"},{"anonymous":false,"inputs":[{"indexed":true,"internalType":"uint256","name":"petitionId","type":"uint256"},{"indexed":true,"internalType":"address","name":"signer","type":"address"},{"indexed":false,"internalType":"uint256","name":"newSignatureCount","type":"uint256"}],"name":"PetitionSigned","type":"event"},{"anonymous":false,"inputs":[{"indexed":false,"internalType":"uint256","name":"baseFee","type":"uint256"},{"indexed":false,"internalType":"uint256","name":"boostingFee","type":"uint256"}],"name":"PricingConfigUpdated","type":"event"},{"anonymous":false,"inputs":[{"indexed":true,"internalType":"address","name":"creator","type":"address"},{"indexed":false,"internalType":"uint256","name":"amount","type":"uint256"}],"name":"RewardTokenMinted","type":"event"},{"anonymous":false,"inputs":[{"indexed":true,"internalType":"address","name":"operator","type":"address"},{"indexed":true,"internalType":"address","name":"from","type":"address"},{"indexed":true,"internalType":"address","name":"to","type":"address"},{"indexed":false,"internalType":"uint256[]","name":"ids","type":"uint256[]"},{"indexed":false,"internalType":"uint256[]","name":"values","type":"uint256[]"}],"name":"TransferBatch","type":"event"},{"anonymous":false,"inputs":[{"indexed":true,"internalType":"address","name":"operator","type":"address"},{"indexed":true,"internalType":"address","name":"from","type":"address"},{"indexed":true,"internalType":"address","name":"to","type":"address"},{"indexed":false,"internalType":"uint256","name":"id","type":"uint256"},{"indexed":false,"internalType":"uint256","name":"value","type":"uint256"}],"name":"TransferSingle","type":"event"},{"anonymous":false,"inputs":[{"indexed":false,"internalType":"string","name":"value","type":"string"},{"indexed":true,"internalType":"uint256","name":"id","type":"uint256"}],"name":"URI","type":"event"},{"inputs":[{"internalType":"address","name":"account","type":"address"},{"internalType":"uint256","name":"id","type":"uint256"}],"name":"balanceOf","outputs":[{"internalType":"uint256","name":"","type":"uint256"}],"stateMutability":"view","type":"function"},{"inputs":[{"internalType":"address[]","name":"accounts","type":"address[]"},{"internalType":"uint256[]","name":"ids","type":"uint256[]"}],"name":"balanceOfBatch","outputs":[{"internalType":"uint256[]","name":"","type":"uint256[]"}],"stateMutability":"view","type":"function"},{"inputs":[],"name":"baseCampaignFee","outputs":[{"internalType":"uint256","name":"","type":"uint256"}],"stateMutability":"view","type":"function"},{"inputs":[{"internalType":"uint256","name":"_petitionId","type":"uint256"}],"name":"boostPetition","outputs":[],"stateMutability":"payable","type":"function"},{"inputs":[],"name":"boostingFee","outputs":[{"internalType":"uint256","name":"","type":"uint256"}],"stateMutability":"view","type":"function"},{"inputs":[],"name":"campaignToken","outputs":[{"internalType":"address","name":"","type":"address"}],"stateMutability":"view","type":"function"},{"inputs":[{"internalType":"string","name":"_title","type":"string"},{"internalType":"string","name":"_description","type":"string"},{"internalType":"string","name":"_imageHash","type":"string"},{"internalType":"bool","name":"_useToken","type":"bool"}],"name":"createPetition","outputs":[],"stateMutability":"payable","type":"function"},{"inputs":[],"name":"getActiveBoostedPetitions","outputs":[{"components":[{"internalType":"uint256","name":"id","type":"uint256"},{"internalType":"string","name":"title","type":"string"},{"internalType":"string","name":"description","type":"string"},{"internalType":"string","name":"imageHash","type":"string"},{"internalType":"address","name":"creator","type":"address"},{"internalType":"uint256","name":"createdAt","type":"uint256"},{"internalType":"uint256","name":"boostEndTime","type":"uint256"},{"internalType":"uint256","name":"boostPriority","type":"uint256"},{"internalType":"uint256","name":"signatureCount","type":"uint256"}],"internalType":"struct PetitionPlatform.Petition[]","name":"","type":"tuple[]"}],"stateMutability":"view","type":"function"},{"inputs":[],"name":"getAllPetitions","outputs":[{"components":[{"internalType":"uint256","name":"id","type":"uint256"},{"internalType":"string","name":"title","type":"string"},{"internalType":"string","name":"description","type":"string"},{"internalType":"string","name":"imageHash","type":"string"},{"internalType":"address","name":"creator","type":"address"},{"internalType":"uint256","name":"createdAt","type":"uint256"},{"internalType":"uint256","name":"boostEndTime","type":"uint256"},{"internalType":"uint256","name":"boostPriority","type":"uint256"},{"internalType":"uint256","name":"signatureCount","type":"uint256"}],"internalType":"struct PetitionPlatform.Petition[]","name":"","type":"tuple[]"}],"stateMutability":"view","type":"function"},{"inputs":[{"internalType":"uint256","name":"_petitionId","type":"uint256"}],"name":"getPetition","outputs":[{"components":[{"internalType":"uint256","name":"id","type":"uint256"},{"internalType":"string","name":"title","type":"string"},{"internalType":"string","name":"description","type":"string"},{"internalType":"string","name":"imageHash","type":"string"},{"internalType":"address","name":"creator","type":"address"},{"internalType":"uint256","name":"createdAt","type":"uint256"},{"internalType":"uint256","name":"boostEndTime","type":"uint256"},{"internalType":"uint256","name":"boostPriority","type":"uint256"},{"internalType":"uint256","name":"signatureCount","type":"uint256"}],"internalType":"struct PetitionPlatform.Petition","name":"","type":"tuple"}],"stateMutability":"view","type":"function"},{"inputs":[],"name":"getPricingInfo","outputs":[{"internalType":"uint256","name":"baseFee","type":"uint256"},{"internalType":"uint256","name":"boostFee","type":"uint256"},{"internalType":"uint256","name":"rewardThresh","type":"uint256"}],"stateMutability":"view","type":"function"},{"inputs":[],"name":"getTotalPetitions","outputs":[{"internalType":"uint256","name":"","type":"uint256"}],"stateMutability":"view","type":"function"},{"inputs":[{"internalType":"address","name":"_user","type":"address"}],"name":"getUserPaidPetitionCount","outputs":[{"internalType":"uint256","name":"","type":"uint256"}],"stateMutability":"view","type":"function"},{"inputs":[{"internalType":"uint256","name":"","type":"uint256"},{"internalType":"address","name":"","type":"address"}],"name":"hasSigned","outputs":[{"internalType":"bool","name":"","type":"bool"}],"stateMutability":"view","type":"function"},{"inputs":[{"internalType":"uint256","name":"_petitionId","type":"uint256"},{"internalType":"address","name":"_user","type":"address"}],"name":"hasUserSigned","outputs":[{"internalType":"bool","name":"","type":"bool"}],"stateMutability":"view","type":"function"},{"inputs":[{"internalType":"address","name":"account","type":"address"},{"internalType":"address","name":"operator","type":"address"}],"name":"isApprovedForAll","outputs":[{"internalType":"bool","name":"","type":"bool"}],"stateMutability":"view","type":"function"},{"inputs":[{"internalType":"uint256","name":"_petitionId","type":"uint256"}],"name":"isPetitionBoosted","outputs":[{"internalType":"bool","name":"","type":"bool"}],"stateMutability":"view","type":"function"},{"inputs":[],"name":"owner","outputs":[{"internalType":"address","name":"","type":"address"}],"stateMutability":"view","type":"function"},{"inputs":[{"internalType":"address","name":"","type":"address"}],"name":"paidPetitionCount","outputs":[{"internalType":"uint256","name":"","type":"uint256"}],"stateMutability":"view","type":"function"},{"inputs":[],"name":"petitionCounter","outputs":[{"internalType":"uint256","name":"","type":"uint256"}],"stateMutability":"view","type":"function"},{"inputs":[{"internalType":"uint256","name":"","type":"uint256"}],"name":"petitions","outputs":[{"internalType":"uint256","name":"id","type":"uint256"},{"internalType":"string","name":"title","type":"string"},{"internalType":"string","name":"description","type":"string"},{"internalType":"string","name":"imageHash","type":"string"},{"internalType":"address","name":"creator","type":"address"},{"internalType":"uint256","name":"createdAt","type":"uint256"},{"internalType":"uint256","name":"boostEndTime","type":"uint256"},{"internalType":"uint256","name":"boostPriority","type":"uint256"},{"internalType":"uint256","name":"signatureCount","type":"uint256"}],"stateMutability":"view","type":"function"},{"inputs":[],"name":"renounceOwnership","outputs":[],"stateMutability":"nonpayable","type":"function"},{"inputs":[],"name":"rewardThreshold","outputs":[{"internalType":"uint256","name":"","type":"uint256"}],"stateMutability":"view","type":"function"},{"inputs":[{"internalType":"address","name":"from","type":"address"},{"internalType":"address","name":"to","type":"address"},{"internalType":"uint256[]","name":"ids","type":"uint256[]"},{"internalType":"uint256[]","name":"values","type":"uint256[]"},{"internalType":"bytes","name":"data","type":"bytes"}],"name":"safeBatchTransferFrom","outputs":[],"stateMutability":"nonpayable","type":"function"},{"inputs":[{"internalType":"address","name":"from","type":"address"},{"internalType":"address","name":"to","type":"address"},{"internalType":"uint256","name":"id","type":"uint256"},{"internalType":"uint256","name":"value","type":"uint256"},{"internalType":"bytes","name":"data","type":"bytes"}],"name":"safeTransferFrom","outputs":[],"stateMutability":"nonpayable","type":"function"},{"inputs":[{"internalType":"address","name":"operator","type":"address"},{"internalType":"bool","name":"approved","type":"bool"}],"name":"setApprovalForAll","outputs":[],"stateMutability":"nonpayable","type":"function"},{"inputs":[{"internalType":"uint256","name":"_baseFee","type":"uint256"},{"internalType":"uint256","name":"_boostingFee","type":"uint256"}],"name":"setPricingConfig","outputs":[],"stateMutability":"nonpayable","type":"function"},{"inputs":[{"internalType":"uint256","name":"_threshold","type":"uint256"}],"name":"setRewardThreshold","outputs":[],"stateMutability":"nonpayable","type":"function"},{"inputs":[{"internalType":"uint256","name":"_petitionId","type":"uint256"}],"name":"signPetition","outputs":[],"stateMutability":"nonpayable","type":"function"},{"inputs":[],"name":"soulboundMember","outputs":[{"internalType":"address","name":"","type":"address"}],"stateMutability":"view","type":"function"},{"inputs":[{"internalType":"bytes4","name":"interfaceId","type":"bytes4"}],"name":"supportsInterface","outputs":[{"internalType":"bool","name":"","type":"bool"}],"stateMutability":"view","type":"function"},{"inputs":[{"internalType":"address","name":"newOwner","type":"address"}],"name":"transferOwnership","outputs":[],"stateMutability":"nonpayable","type":"function"},{"inputs":[{"internalType":"uint256","name":"","type":"uint256"}],"name":"uri","outputs":[{"internalType":"string","name":"","type":"string"}],"stateMutability":"view","type":"function"},{"inputs":[],"name":"withdraw","outputs":[],"stateMutability":"nonpayable","type":"function"}],"evm":{"bytecode":{"linkReferences":{},"object":"60806040523461034357604051601f612af238819003918201601f19168301916001600160401b0383118484101761031757808492604094855283398101031261034357610058602061005183610348565b9201610348565b60405191602083016001600160401b038111848210176103175760405260008352331561032d5760008054336001600160a01b0319821681178355916001600160a01b03909116907f8be0079c531659141344cd1fd0a4f28419497f9722a3daafe3b4186f6b6457e09080a382516001600160401b03811161031757600354600181811c9116801561030d575b60208210146102f757601f8111610292575b506020601f821160011461022b5781929394600092610220575b50508160011b916000199060031b1c1916176003555b600160045566071afd498d000060095566038d7ea4c68000600a556005600b556001600160a01b03169081156101db576001600160a01b03169081156101965760018060a01b0319600554161760055560018060a01b03196006541617600655604051612795908161035d8239f35b60405162461bcd60e51b815260206004820152601560248201527f496e76616c696420746f6b656e206164647265737300000000000000000000006044820152606490fd5b60405162461bcd60e51b815260206004820152601360248201527f496e76616c6964205342542061646472657373000000000000000000000000006044820152606490fd5b015190503880610111565b601f198216906003600052806000209160005b81811061027a57509583600195969710610261575b505050811b01600355610127565b015160001960f88460031b161c19169055388080610253565b9192602060018192868b01518155019401920161023e565b60036000527fc2575a0e9e593c00f959f8c92f12db2869c3395a3b0502d05e2516446f71f85b601f830160051c810191602084106102ed575b601f0160051c01905b8181106102e157506100f7565b600081556001016102d4565b90915081906102cb565b634e487b7160e01b600052602260045260246000fd5b90607f16906100e5565b634e487b7160e01b600052604160045260246000fd5b631e4fbdf760e01b600052600060045260246000fd5b600080fd5b51906001600160a01b03821682036103435756fe6080604052600436101561001257600080fd5b60003560e01c8062fdd58e1461022757806301ffc9a7146102225780630c90ce421461021d5780630e89341c1461021857806312c2caf0146102135780632eb2c2d61461020e5780632fb33528146101d7578063374f6d5d146102095780633ad50ded146102045780633ccfd60b146101ff5780634e1273f4146101fa5780634ec6f625146101f55780635ea4d29c146101f057806368bdd33a146101eb5780636b4acbe014610196578063709df8d9146101a5578063715018a6146101e65780637181b6a6146101e157806371882c20146101dc57806372fa1301146101d75780638b9b397f146101d25780638da5cb5b146101cd5780639089c4a5146101c85780639a37c01e146101c3578063a22cb465146101be578063c3c27811146101b9578063cd3106ae146101b4578063dcad0180146101af578063e985e9c5146101aa578063eb74d835146101a5578063f242432a146101a0578063f2fde38b1461019b578063f99972ef146101965763fe16b7f81461019157600080fd5b6117ea565b610bef565b611761565b611652565b610c29565b611601565b6114db565b6114bd565b611173565b6110ba565b610fca565b610fa1565b610f78565b610e8d565b6107bd565b610dc4565b610cd5565b610c7c565b610b8f565b610b71565b610b53565b610a94565b6109ce565b610952565b6107db565b610731565b6105d1565b6104f0565b61041b565b6102d0565b610271565b600435906001600160a01b038216820361024257565b600080fd5b602435906001600160a01b038216820361024257565b35906001600160a01b038216820361024257565b346102425760403660031901126102425760206102b561028f61022c565b6024356000526001835260406000209060018060a01b0316600052602052604060002090565b54604051908152f35b6001600160e01b031981160361024257565b346102425760203660031901126102425760206004356102ef816102be565b63ffffffff60e01b16636cdb3d1360e11b811490811561032d575b811561031c575b506040519015158152f35b6301ffc9a760e01b14905038610311565b6303a24d0760e21b8114915061030a565b919082519283825260005b84811061036a575050826000602080949584010152601f8019910116010190565b80602080928401015182828601015201610349565b9081518152610100806103cd6103bb6103a96020870151610120602088015261012087019061033e565b6040870151868203604088015261033e565b6060860151858203606087015261033e565b6080808601516001600160a01b0316908501529360a081015160a085015260c081015160c085015260e081015160e0850152015191015290565b90602061041892818152019061037f565b90565b346102425760203660031901126102425760043561043761183f565b506104456007548210611896565b600052600c6020526104ec6040600020600861045f61064b565b918054835261047060018201610844565b602084015261048160028201610844565b604084015261049260038201610844565b606084015260048101546104ba906001600160a01b03165b6001600160a01b03166080850152565b600581015460a0840152600681015460c0840152600781015460e0840152015461010082015260405191829182610407565b0390f35b346102425760203660031901126102425760405160006003546105128161080a565b80845290600181169081156105ad575060011461054e575b6104ec8361053a81850382610625565b60405191829160208352602083019061033e565b600360009081527fc2575a0e9e593c00f959f8c92f12db2869c3395a3b0502d05e2516446f71f85b939250905b8082106105935750909150810160200161053a61052a565b91926001816020925483858801015201910190929161057b565b60ff191660208086019190915291151560051b8401909101915061053a905061052a565b34610242576020366003190112610242576004356105f26007548210611896565b600052600c60205260206006604060002001546040519042108152f35b634e487b7160e01b600052604160045260246000fd5b90601f801991011681019081106001600160401b0382111761064657604052565b61060f565b6040519061065b61012083610625565b565b6001600160401b0381116106465760051b60200190565b9080601f8301121561024257813561068b8161065d565b926106996040519485610625565b81845260208085019260051b82010192831161024257602001905b8282106106c15750505090565b81358152602091820191016106b4565b6001600160401b03811161064657601f01601f191660200190565b81601f8201121561024257602081359101610706826106d1565b926107146040519485610625565b828452828201116102425781600092602092838601378301015290565b346102425760a03660031901126102425761074a61022c565b610752610247565b906044356001600160401b03811161024257610772903690600401610674565b6064356001600160401b03811161024257610791903690600401610674565b90608435936001600160401b038511610242576107b56107bb9536906004016106ec565b93611960565b005b34610242576000366003190112610242576020600754604051908152f35b34610242576000366003190112610242576060600954600a54600b549060405192835260208301526040820152f35b90600182811c9216801561083a575b602083101461082457565b634e487b7160e01b600052602260045260246000fd5b91607f1691610819565b90604051918260008254926108588461080a565b80845293600181169081156108c4575060011461087d575b5061065b92500383610625565b90506000929192526020600020906000915b8183106108a857505090602061065b9282010138610870565b602091935080600191548385890101520191019091849261088f565b90506020925061065b94915060ff191682840152151560051b82010138610870565b95926109219061091361092f946101009a97949d9c9b989d8a5261012060208b01526101208a019061033e565b9088820360408a015261033e565b90868203606088015261033e565b6001600160a01b03909816608085015260a084015260c083015260e08201520152565b3461024257602036600319011261024257600435600052600c602052604060002080546104ec61098460018401610844565b9261099160028201610844565b9061099e60038201610844565b60018060a01b036004830154166005830154906006840154926008600786015495015495604051998a998a6108e6565b34610242576000366003190112610242576109e761210c565b478015610a11576000805490918291829182916001600160a01b031682f115610a0c57005b6119bd565b60405162461bcd60e51b81526020600482015260166024820152754e6f2062616c616e636520746f20776974686472617760501b6044820152606490fd5b906020808351928381520192019060005b818110610a6d5750505090565b8251845260209384019390920191600101610a60565b906020610418928181520190610a4f565b34610242576040366003190112610242576004356001600160401b038111610242573660238201121561024257806004013590610ad08261065d565b91610ade6040519384610625565b8083526024602084019160051b8301019136831161024257602401905b828210610b3b57836024356001600160401b038111610242576104ec91610b29610b2f923690600401610674565b906119f3565b60405191829182610a83565b60208091610b488461025d565b815201910190610afb565b34610242576000366003190112610242576020600a54604051908152f35b34610242576000366003190112610242576020600b54604051908152f35b3461024257602036600319011261024257600435610bab61210c565b8015610bb657600b55005b60405162461bcd60e51b8152602060048201526011602482015270125b9d985b1a59081d1a1c995cda1bdb19607a1b6044820152606490fd5b34610242576020366003190112610242576001600160a01b03610c1061022c565b16600052600d6020526020604060002054604051908152f35b3461024257604036600319011261024257602060ff610c70600435610c4c610247565b90600052600e845260406000209060018060a01b0316600052602052604060002090565b54166040519015158152f35b3461024257600036600319011261024257610c9561210c565b600080546001600160a01b0319811682556001600160a01b03167f8be0079c531659141344cd1fd0a4f28419497f9722a3daafe3b4186f6b6457e08280a3005b602036600319011261024257600435610cec612135565b610cf96007548210611896565b610d07600a54341015611a8b565b610d18610d1333612157565b611aca565b610d2c81600052600c602052604060002090565b6004810154909190610d48906001600160a01b03163314611b16565b7fee5818a7743a21f532260fb7a20b016a2b77a7f16e2eae7c1e1aaca77a128e4c610db7610d7542611b71565b60068501908155610d8f610d8a600854611b93565b600855565b6007600854950194855554935460405191829133968360209093929193604081019481520152565b0390a36107bb6001600455565b34610242576040366003190112610242577ffd9f09483ac0af574b21cd44377518c46225e61796bc41f0ca276c4a55aa2b02602435600435610e0461210c565b8060095581600a55610e286040519283928360209093929193604081019481520152565b0390a1005b602081016020825282518091526040820191602060408360051b8301019401926000915b838310610e6057505050505090565b9091929394602080610e7e600193603f19868203018752895161037f565b97019301930191939290610e51565b34610242576000366003190112610242576007546000805b828110610f3d5750610eb690611ba2565b906000805b828110610ed057604051806104ec8682610e2d565b426006610ee783600052600c602052604060002090565b015411610ef7575b600101610ebb565b90610f35600191610f1a610f1585600052600c602052604060002090565b6118e2565b610f2482886119c9565b52610f2f81876119c9565b50611b93565b919050610eef565b426006610f5483600052600c602052604060002090565b015411610f64575b600101610ea5565b90610f70600191611b93565b919050610f5c565b34610242576000366003190112610242576000546040516001600160a01b039091168152602090f35b34610242576000366003190112610242576006546040516001600160a01b039091168152602090f35b3461024257600036600319011261024257600754610fe781611ba2565b9060005b81811061100057604051806104ec8582610e2d565b80600191600052600c6020526040600020600861101b61064b565b918054835261102b858201610844565b602084015261103c60028201610844565b604084015261104d60038201610844565b60608401526004810154611069906001600160a01b03166104aa565b600581015460a0840152600681015460c0840152600781015460e0840152015461010082015261109982866119c9565b526110a481856119c9565b5001610feb565b60643590811515820361024257565b34610242576040366003190112610242576110d361022c565b6024358015158103610242576001600160a01b03821691821561115e578161111d61112e9233600052600260205260406000209060018060a01b0316600052602052604060002090565b9060ff801983541691151516179055565b60405190151581527f17307eab39ab6107e8899845ad3d59bd9653f200f220920489ca2b5937696c3160203392a3005b62ced3e160e81b600052600060045260246000fd5b6080366003190112610242576004356001600160401b0381116102425761119e9036906004016106ec565b6024356001600160401b038111610242576111bd9036906004016106ec565b6044356001600160401b038111610242576111dc9036906004016106ec565b916111e56110ab565b6111ed612135565b6111f9610d1333612157565b61120582511515611bf2565b61121183511515611c36565b61121d84511515611c82565b6000918291156113b2576112313415611db6565b6006546040516370a0823160e01b81523360048201526001600160a01b0390911693602082602481885afa918215610a0c577f3f3879bb3ad4085d16acccd635aa8e07f963e9f8db201224354135d5be7960d5956112a6670de0b6b3a76400006112f89585948591611383575b501015611e10565b60405163079cc67960e41b60208201908152336024830152670de0b6b3a764000060448301529083906112e681606481015b03601f198101835282610625565b51925af16112f2611d46565b50611e5c565b610db76001915b6113736007549661131761131289611b93565b600755565b61131f61064b565b888152602081018490526040810191909152606081018990523360808201524260a0820152600060c0820152600060e0820152600061010082015261136e88600052600c602052604060002090565b611fbf565b6040519384933398429386612048565b6113a5915060203d6020116113ab575b61139d8183610625565b810190611e01565b3861129e565b503d611393565b90507f3f3879bb3ad4085d16acccd635aa8e07f963e9f8db201224354135d5be7960d591610db76009546113e881341015611cce565b336000908152600d602052604090209093906114048154611b93565b9055336000908152600d6020526040902054600b5461142291611d11565b6112ff5760065461148290849081906001600160a01b03166040516340c10f1960e01b60208201908152336024830152670de0b6b3a7640000604483015290839061147081606481016112d8565b51925af161147c611d46565b50611d76565b604051670de0b6b3a7640000815233907f851805430b76795c7338d40d064eb68ff06ea87e8e9518986018edb9f559025290602090a26112ff565b34610242576000366003190112610242576020600954604051908152f35b34610242576020366003190112610242576004356114f7612135565b6115046007548210611896565b611510610d1333612157565b6000818152600c6020526040902060048101546008919061153c906001600160a01b0316331415612084565b61158461157f61157b6115743361155d88600052600e602052604060002090565b9060018060a01b0316600052602052604060002090565b5460ff1690565b1590565b6120cf565b6115ac61159f3361155d86600052600e602052604060002090565b805460ff19166001179055565b016115b78154611b93565b81556115cb6115c4611d31565b83336121b9565b546040519081523391907fa504fa1a622895e43328023a9fa609eebec933d785df4e1b4f33c587d12d835d908060208101610db7565b3461024257604036600319011261024257602060ff610c7061162161022c565b611629610247565b6001600160a01b0391821660009081526002865260408082209290931681526020919091522090565b346102425760a03660031901126102425761166b61022c565b611673610247565b60443590606435926084356001600160401b0381116102425761169a9036906004016106ec565b926001600160a01b038216338114158061173d575b611725576001600160a01b0384161561170f57156116fa576107bb946116f260405192600184526020840152604083019160018352606084015260808301604052565b92909161231c565b626a0d4560e21b600052600060045260246000fd5b632bfa23e760e11b600052600060045260246000fd5b63711bec9160e11b6000523360045260245260446000fd5b50600081815260026020908152604080832033845290915290205460ff16156116af565b346102425760203660031901126102425761177a61022c565b61178261210c565b6001600160a01b031680156117d457600080546001600160a01b03198116831782556001600160a01b0316907f8be0079c531659141344cd1fd0a4f28419497f9722a3daafe3b4186f6b6457e09080a3005b631e4fbdf760e01b600052600060045260246000fd5b34610242576000366003190112610242576005546040516001600160a01b039091168152602090f35b61183b91600052600160205260406000209060018060a01b0316600052602052604060002090565b5490565b6040519061012082018281106001600160401b038211176106465760405260006101008382815260606020820152606060408201526060808201528260808201528260a08201528260c08201528260e08201520152565b1561189d57565b60405162461bcd60e51b815260206004820152601760248201527f5065746974696f6e20646f6573206e6f742065786973740000000000000000006044820152606490fd5b9060086118ed61064b565b92805484526118fe60018201610844565b602085015261190f60028201610844565b604085015261192060038201610844565b606085015260048101546001600160a01b03166080850152600581015460a0850152600681015460c0850152600781015460e08501520154610100830152565b939291906001600160a01b0385163381141580611999575b611725576001600160a01b0382161561170f57156116fa5761065b9461231c565b50600081815260026020908152604080832033845290915290205460ff1615611978565b6040513d6000823e3d90fd5b80518210156119dd5760209160051b010190565b634e487b7160e01b600052603260045260246000fd5b91909180518351808203611a74575050805190611a0f8261065d565b91611a1d6040519384610625565b808352611a2c601f199161065d565b0136602084013760005b8151811015611a6d5780611a5c60019260051b6020808287010151918901015190611813565b611a6682866119c9565b5201611a36565b5090925050565b635b05999160e01b60005260045260245260446000fd5b15611a9257565b60405162461bcd60e51b815260206004820152601060248201526f496e73756666696369656e742066656560801b6044820152606490fd5b15611ad157565b60405162461bcd60e51b815260206004820152601760248201527f4e6f742061206d656d62657220286e65656420534254290000000000000000006044820152606490fd5b15611b1d57565b60405162461bcd60e51b815260206004820152601660248201527513db9b1e4818dc99585d1bdc8818d85b88189bdbdcdd60521b6044820152606490fd5b634e487b7160e01b600052601160045260246000fd5b9062093a808201809211611b8157565b611b5b565b91908201809211611b8157565b6000198114611b815760010190565b90611bac8261065d565b611bb96040519182610625565b8281528092611bca601f199161065d565b019060005b828110611bdb57505050565b602090611be661183f565b82828501015201611bcf565b15611bf957565b60405162461bcd60e51b81526020600482015260156024820152745469746c652063616e6e6f7420626520656d70747960581b6044820152606490fd5b15611c3d57565b60405162461bcd60e51b815260206004820152601b60248201527f4465736372697074696f6e2063616e6e6f7420626520656d70747900000000006044820152606490fd5b15611c8957565b60405162461bcd60e51b815260206004820152601a60248201527f496d61676520686173682063616e6e6f7420626520656d7074790000000000006044820152606490fd5b15611cd557565b60405162461bcd60e51b8152602060048201526014602482015273496e73756666696369656e74204554482066656560601b6044820152606490fd5b8115611d1b570690565b634e487b7160e01b600052601260045260246000fd5b60405190611d40602083610625565b60008252565b3d15611d71573d90611d57826106d1565b91611d656040519384610625565b82523d6000602084013e565b606090565b15611d7d57565b60405162461bcd60e51b8152602060048201526011602482015270151bdad95b881b5a5b9d0819985a5b1959607a1b6044820152606490fd5b15611dbd57565b606460405162461bcd60e51b815260206004820152602060248201527f446f206e6f742073656e6420455448207768656e207573696e6720746f6b656e6044820152fd5b90816020910312610242575190565b15611e1757565b60405162461bcd60e51b815260206004820152601c60248201527f496e73756666696369656e742063616d706169676e20746f6b656e73000000006044820152606490fd5b15611e6357565b60405162461bcd60e51b8152602060048201526011602482015270151bdad95b88189d5c9b8819985a5b1959607a1b6044820152606490fd5b601f8211611ea957505050565b6000526020600020906020601f840160051c83019310611ee4575b601f0160051c01905b818110611ed8575050565b60008155600101611ecd565b9091508190611ec4565b91909182516001600160401b03811161064657611f1581611f0f845461080a565b84611e9c565b6020601f8211600114611f56578190611f47939495600092611f4b575b50508160011b916000199060031b1c19161790565b9055565b015190503880611f32565b601f19821690611f6b84600052602060002090565b9160005b818110611fa757509583600195969710611f8e575b505050811b019055565b015160001960f88460031b161c19169055388080611f84565b9192602060018192868b015181550194019201611f6f565b9061010060089180518455611fdb602082015160018601611eee565b611fec604082015160028601611eee565b611ffd606082015160038601611eee565b60808101516004850180546001600160a01b0319166001600160a01b0390921691909117905560a0810151600585015560c0810151600685015560e081015160078501550151910155565b91612073906120656080959897969360a0865260a086019061033e565b90848203602086015261033e565b951515604083015260608201520152565b1561208b57565b606460405162461bcd60e51b815260206004820152602060248201527f43726561746f722063616e6e6f74207369676e206f776e207065746974696f6e6044820152fd5b156120d657565b60405162461bcd60e51b815260206004820152600e60248201526d105b1c9958591e481cda59db995960921b6044820152606490fd5b6000546001600160a01b0316330361212057565b63118cdaa760e01b6000523360045260246000fd5b600260045414612146576002600455565b633ee5aeb560e01b60005260046000fd5b6005546040516370a0823160e01b81526001600160a01b0392831660048201529160209183916024918391165afa908115610a0c5760009161219a575b50151590565b6121b3915060203d6020116113ab5761139d8183610625565b38612194565b6001600160a01b0381169291831561170f5760016121f460405192600184526020840152604083019160018352606084015260808301604052565b92815184519081810361230557505060005b825181101561224e578060019160051b61224661223e8761155d602080868b010151958c010151946000526001602052604060002090565b918254611b86565b905501612206565b5092919360018251146000146122c95760208281015184820151604080519283529282015260009133917fc3d58168c5ae7397731d063d5bbf3d657854427343f4c083240f7aacaa2d0f629190a45b80516001036122bd579060208061065b95930151910151916000336126bf565b61065b9360003361258a565b60006040517f4a39dc06d4c0dbc64b70af90fd698a233a518aa5d07e595d983b8c0526c8f7fb3391806122fd8888836124fd565b0390a461229d565b635b05999160e01b60005260045260245260446000fd5b94939290919384518251908181036123055750506001600160a01b0386811695861515959185168015159391929060005b845181101561242f578060051b90898988602080868b010151958c010151926123a8575b93600194612383575b5050500161234d565b61239e9161155d61223e926000526001602052604060002090565b905538898161237a565b505090916123c48d61155d836000526001602052604060002090565b548281106123f8578291898f6123ef600197968f95039161155d856000526001602052604060002090565b55909450612371565b6040516303dee4c560e01b81526001600160a01b038f16600482015260248101919091526044810183905260648101829052608490fd5b5091989593929790965060018851146000146124c35760208881015186820151604080519283529282015233917fc3d58168c5ae7397731d063d5bbf3d657854427343f4c083240f7aacaa2d0f6291a45b61248c575b5050505050565b84516001036124b2576020806124a896015192015192336126bf565b3880808080612485565b6124be9491923361258a565b6124a8565b6040517f4a39dc06d4c0dbc64b70af90fd698a233a518aa5d07e595d983b8c0526c8f7fb3391806124f5898d836124fd565b0390a4612480565b909161251461041893604084526040840190610a4f565b916020818403910152610a4f565b908160209103126102425751610418816102be565b6001600160a01b0391821681529116602082015260a060408201819052610418949193919261257c929161256e9190860190610a4f565b908482036060860152610a4f565b91608081840391015261033e565b9091949293853b61259e575b505050505050565b6020936125c091604051968795869563bc197c8160e01b875260048701612537565b038160006001600160a01b0387165af160009181612655575b5061261557506125e7611d46565b805191908261260e57632bfa23e760e11b6000526001600160a01b03821660045260246000fd5b6020915001fd5b6001600160e01b0319166343e6837f60e01b016126385750388080808080612596565b632bfa23e760e11b6000526001600160a01b031660045260246000fd5b61267891925060203d60201161267f575b6126708183610625565b810190612522565b90386125d9565b503d612666565b6001600160a01b039182168152911660208201526040810191909152606081019190915260a0608082018190526104189291019061033e565b9091949293853b6126d257505050505050565b6020936126f491604051968795869563f23a6e6160e01b875260048701612686565b038160006001600160a01b0387165af16000918161273e575b5061271b57506125e7611d46565b6001600160e01b031916630dc5919f60e01b016126385750388080808080612596565b61275891925060203d60201161267f576126708183610625565b903861270d56fea2646970667358221220f60c3d7780466067358e1a630cb81010ce2af5844dea227d922fcc2c94e683fb64736f6c634300081e0033","opcodes":"PUSH1 0x80 PUSH1 0x40 MSTORE CALLVALUE PUSH2 0x343 JUMPI PUSH1 0x40 MLOAD PUSH1 0x1F PUSH2 0x2AF2 CODESIZE DUP2 SWAP1 SUB SWAP2 DUP3 ADD PUSH1 0x1F NOT AND DUP4 ADD SWAP2 PUSH1 0x1 PUSH1 0x1 PUSH1 0x40 SHL SUB DUP4 GT DUP5 DUP5 LT OR PUSH2 0x317 JUMPI DUP1 DUP5 SWAP3 PUSH1 0x40 SWAP5 DUP6 MSTORE DUP4 CODECOPY DUP2 ADD SUB SLT PUSH2 0x343 JUMPI PUSH2 0x58 PUSH1 0x20 PUSH2 0x51 DUP4 PUSH2 0x348 JUMP JUMPDEST SWAP3 ADD PUSH2 0x348 JUMP JUMPDEST PUSH1 0x40 MLOAD SWAP2 PUSH1 0x20 DUP4 ADD PUSH1 0x1 PUSH1 0x1 PUSH1 0x40 SHL SUB DUP2 GT DUP5 DUP3 LT OR PUSH2 0x317 JUMPI PUSH1 0x40 MSTORE PUSH1 0x0 DUP4 MSTORE CALLER ISZERO PUSH2 0x32D JUMPI PUSH1 0x0 DUP1 SLOAD CALLER PUSH1 0x1 PUSH1 0x1 PUSH1 0xA0 SHL SUB NOT DUP3 AND DUP2 OR DUP4 SSTORE SWAP2 PUSH1 0x1 PUSH1 0x1 PUSH1 0xA0 SHL SUB SWAP1 SWAP2 AND SWAP1 PUSH32 0x8BE0079C531659141344CD1FD0A4F28419497F9722A3DAAFE3B4186F6B6457E0 SWAP1 DUP1 LOG3 DUP3 MLOAD PUSH1 0x1 PUSH1 0x1 PUSH1 0x40 SHL SUB DUP2 GT PUSH2 0x317 JUMPI PUSH1 0x3 SLOAD PUSH1 0x1 DUP2 DUP2 SHR SWAP2 AND DUP1 ISZERO PUSH2 0x30D JUMPI JUMPDEST PUSH1 0x20 DUP3 LT EQ PUSH2 0x2F7 JUMPI PUSH1 0x1F DUP2 GT PUSH2 0x292 JUMPI JUMPDEST POP PUSH1 0x20 PUSH1 0x1F DUP3 GT PUSH1 0x1 EQ PUSH2 0x22B JUMPI DUP2 SWAP3 SWAP4 SWAP5 PUSH1 0x0 SWAP3 PUSH2 0x220 JUMPI JUMPDEST POP POP DUP2 PUSH1 0x1 SHL SWAP2 PUSH1 0x0 NOT SWAP1 PUSH1 0x3 SHL SHR NOT AND OR PUSH1 0x3 SSTORE JUMPDEST PUSH1 0x1 PUSH1 0x4 SSTORE PUSH7 0x71AFD498D0000 PUSH1 0x9 SSTORE PUSH7 0x38D7EA4C68000 PUSH1 0xA SSTORE PUSH1 0x5 PUSH1 0xB SSTORE PUSH1 0x1 PUSH1 0x1 PUSH1 0xA0 SHL SUB AND SWAP1 DUP2 ISZERO PUSH2 0x1DB JUMPI PUSH1 0x1 PUSH1 0x1 PUSH1 0xA0 SHL SUB AND SWAP1 DUP2 ISZERO PUSH2 0x196 JUMPI PUSH1 0x1 DUP1 PUSH1 0xA0 SHL SUB NOT PUSH1 0x5 SLOAD AND OR PUSH1 0x5 SSTORE PUSH1 0x1 DUP1 PUSH1 0xA0 SHL SUB NOT PUSH1 0x6 SLOAD AND OR PUSH1 0x6 SSTORE PUSH1 0x40 MLOAD PUSH2 0x2795 SWAP1 DUP2 PUSH2 0x35D DUP3 CODECOPY RETURN JUMPDEST PUSH1 0x40 MLOAD PUSH3 0x461BCD PUSH1 0xE5 SHL DUP2 MSTORE PUSH1 0x20 PUSH1 0x4 DUP3 ADD MSTORE PUSH1 0x15 PUSH1 0x24 DUP3 ADD MSTORE PUSH32 0x496E76616C696420746F6B656E20616464726573730000000000000000000000 PUSH1 0x44 DUP3 ADD MSTORE PUSH1 0x64 SWAP1 REVERT JUMPDEST PUSH1 0x40 MLOAD PUSH3 0x461BCD PUSH1 0xE5 SHL DUP2 MSTORE PUSH1 0x20 PUSH1 0x4 DUP3 ADD MSTORE PUSH1 0x13 PUSH1 0x24 DUP3 ADD MSTORE PUSH32 0x496E76616C696420534254206164647265737300000000000000000000000000 PUSH1 0x44 DUP3 ADD MSTORE PUSH1 0x64 SWAP1 REVERT JUMPDEST ADD MLOAD SWAP1 POP CODESIZE DUP1 PUSH2 0x111 JUMP JUMPDEST PUSH1 0x1F NOT DUP3 AND SWAP1 PUSH1 0x3 PUSH1 0x0 MSTORE DUP1 PUSH1 0x0 KECCAK256 SWAP2 PUSH1 0x0 JUMPDEST DUP2 DUP2 LT PUSH2 0x27A JUMPI POP SWAP6 DUP4 PUSH1 0x1 SWAP6 SWAP7 SWAP8 LT PUSH2 0x261 JUMPI JUMPDEST POP POP POP DUP2 SHL ADD PUSH1 0x3 SSTORE PUSH2 0x127 JUMP JUMPDEST ADD MLOAD PUSH1 0x0 NOT PUSH1 0xF8 DUP5 PUSH1 0x3 SHL AND SHR NOT AND SWAP1 SSTORE CODESIZE DUP1 DUP1 PUSH2 0x253 JUMP JUMPDEST SWAP2 SWAP3 PUSH1 0x20 PUSH1 0x1 DUP2 SWAP3 DUP7 DUP12 ADD MLOAD DUP2 SSTORE ADD SWAP5 ADD SWAP3 ADD PUSH2 0x23E JUMP JUMPDEST PUSH1 0x3 PUSH1 0x0 MSTORE PUSH32 0xC2575A0E9E593C00F959F8C92F12DB2869C3395A3B0502D05E2516446F71F85B PUSH1 0x1F DUP4 ADD PUSH1 0x5 SHR DUP2 ADD SWAP2 PUSH1 0x20 DUP5 LT PUSH2 0x2ED JUMPI JUMPDEST PUSH1 0x1F ADD PUSH1 0x5 SHR ADD SWAP1 JUMPDEST DUP2 DUP2 LT PUSH2 0x2E1 JUMPI POP PUSH2 0xF7 JUMP JUMPDEST PUSH1 0x0 DUP2 SSTORE PUSH1 0x1 ADD PUSH2 0x2D4 JUMP JUMPDEST SWAP1 SWAP2 POP DUP2 SWAP1 PUSH2 0x2CB JUMP JUMPDEST PUSH4 0x4E487B71 PUSH1 0xE0 SHL PUSH1 0x0 MSTORE PUSH1 0x22 PUSH1 0x4 MSTORE PUSH1 0x24 PUSH1 0x0 REVERT JUMPDEST SWAP1 PUSH1 0x7F AND SWAP1 PUSH2 0xE5 JUMP JUMPDEST PUSH4 0x4E487B71 PUSH1 0xE0 SHL PUSH1 0x0 MSTORE PUSH1 0x41 PUSH1 0x4 MSTORE PUSH1 0x24 PUSH1 0x0 REVERT JUMPDEST PUSH4 0x1E4FBDF7 PUSH1 0xE0 SHL PUSH1 0x0 MSTORE PUSH1 0x0 PUSH1 0x4 MSTORE PUSH1 0x24 PUSH1 0x0 REVERT JUMPDEST PUSH1 0x0 DUP1 REVERT JUMPDEST MLOAD SWAP1 PUSH1 0x1 PUSH1 0x1 PUSH1 0xA0 SHL SUB DUP3 AND DUP3 SUB PUSH2 0x343 JUMPI JUMP INVALID PUSH1 0x80 PUSH1 0x40 MSTORE PUSH1 0x4 CALLDATASIZE LT ISZERO PUSH2 0x12 JUMPI PUSH1 0x0 DUP1 REVERT JUMPDEST PUSH1 0x0 CALLDATALOAD PUSH1 0xE0 SHR DUP1 PUSH3 0xFDD58E EQ PUSH2 0x227 JUMPI DUP1 PUSH4 0x1FFC9A7 EQ PUSH2 0x222 JUMPI DUP1 PUSH4 0xC90CE42 EQ PUSH2 0x21D JUMPI DUP1 PUSH4 0xE89341C EQ PUSH2 0x218 JUMPI DUP1 PUSH4 0x12C2CAF0 EQ PUSH2 0x213 JUMPI DUP1 PUSH4 0x2EB2C2D6 EQ PUSH2 0x20E JUMPI DUP1 PUSH4 0x2FB33528 EQ PUSH2 0x1D7 JUMPI DUP1 PUSH4 0x374F6D5D EQ PUSH2 0x209 JUMPI DUP1 PUSH4 0x3AD50DED EQ PUSH2 0x204 JUMPI DUP1 PUSH4 0x3CCFD60B EQ PUSH2 0x1FF JUMPI DUP1 PUSH4 0x4E1273F4 EQ PUSH2 0x1FA JUMPI DUP1 PUSH4 0x4EC6F625 EQ PUSH2 0x1F5 JUMPI DUP1 PUSH4 0x5EA4D29C EQ PUSH2 0x1F0 JUMPI DUP1 PUSH4 0x68BDD33A EQ PUSH2 0x1EB JUMPI DUP1 PUSH4 0x6B4ACBE0 EQ PUSH2 0x196 JUMPI DUP1 PUSH4 0x709DF8D9 EQ PUSH2 0x1A5 JUMPI DUP1 PUSH4 0x715018A6 EQ PUSH2 0x1E6 JUMPI DUP1 PUSH4 0x7181B6A6 EQ PUSH2 0x1E1 JUMPI DUP1 PUSH4 0x71882C20 EQ PUSH2 0x1DC JUMPI DUP1 PUSH4 0x72FA1301 EQ PUSH2 0x1D7 JUMPI DUP1 PUSH4 0x8B9B397F EQ PUSH2 0x1D2 JUMPI DUP1 PUSH4 0x8DA5CB5B EQ PUSH2 0x1CD JUMPI DUP1 PUSH4 0x9089C4A5 EQ PUSH2 0x1C8 JUMPI DUP1 PUSH4 0x9A37C01E EQ PUSH2 0x1C3 JUMPI DUP1 PUSH4 0xA22CB465 EQ PUSH2 0x1BE JUMPI DUP1 PUSH4 0xC3C27811 EQ PUSH2 0x1B9 JUMPI DUP1 PUSH4 0xCD3106AE EQ PUSH2 0x1B4 JUMPI DUP1 PUSH4 0xDCAD0180 EQ PUSH2 0x1AF JUMPI DUP1 PUSH4 0xE985E9C5 EQ PUSH2 0x1AA JUMPI DUP1 PUSH4 0xEB74D835 EQ PUSH2 0x1A5 JUMPI DUP1 PUSH4 0xF242432A EQ PUSH2 0x1A0 JUMPI DUP1 PUSH4 0xF2FDE38B EQ PUSH2 0x19B JUMPI DUP1 PUSH4 0xF99972EF EQ PUSH2 0x196 JUMPI PUSH4 0xFE16B7F8 EQ PUSH2 0x191 JUMPI PUSH1 0x0 DUP1 REVERT JUMPDEST PUSH2 0x17EA JUMP JUMPDEST PUSH2 0xBEF JUMP JUMPDEST PUSH2 0x1761 JUMP JUMPDEST PUSH2 0x1652 JUMP JUMPDEST PUSH2 0xC29 JUMP JUMPDEST PUSH2 0x1601 JUMP JUMPDEST PUSH2 0x14DB JUMP JUMPDEST PUSH2 0x14BD JUMP JUMPDEST PUSH2 0x1173 JUMP JUMPDEST PUSH2 0x10BA JUMP JUMPDEST PUSH2 0xFCA JUMP JUMPDEST PUSH2 0xFA1 JUMP JUMPDEST PUSH2 0xF78 JUMP JUMPDEST PUSH2 0xE8D JUMP JUMPDEST PUSH2 0x7BD JUMP JUMPDEST PUSH2 0xDC4 JUMP JUMPDEST PUSH2 0xCD5 JUMP JUMPDEST PUSH2 0xC7C JUMP JUMPDEST PUSH2 0xB8F JUMP JUMPDEST PUSH2 0xB71 JUMP JUMPDEST PUSH2 0xB53 JUMP JUMPDEST PUSH2 0xA94 JUMP JUMPDEST PUSH2 0x9CE JUMP JUMPDEST PUSH2 0x952 JUMP JUMPDEST PUSH2 0x7DB JUMP JUMPDEST PUSH2 0x731 JUMP JUMPDEST PUSH2 0x5D1 JUMP JUMPDEST PUSH2 0x4F0 JUMP JUMPDEST PUSH2 0x41B JUMP JUMPDEST PUSH2 0x2D0 JUMP JUMPDEST PUSH2 0x271 JUMP JUMPDEST PUSH1 0x4 CALLDATALOAD SWAP1 PUSH1 0x1 PUSH1 0x1 PUSH1 0xA0 SHL SUB DUP3 AND DUP3 SUB PUSH2 0x242 JUMPI JUMP JUMPDEST PUSH1 0x0 DUP1 REVERT JUMPDEST PUSH1 0x24 CALLDATALOAD SWAP1 PUSH1 0x1 PUSH1 0x1 PUSH1 0xA0 SHL SUB DUP3 AND DUP3 SUB PUSH2 0x242 JUMPI JUMP JUMPDEST CALLDATALOAD SWAP1 PUSH1 0x1 PUSH1 0x1 PUSH1 0xA0 SHL SUB DUP3 AND DUP3 SUB PUSH2 0x242 JUMPI JUMP JUMPDEST CALLVALUE PUSH2 0x242 JUMPI PUSH1 0x40 CALLDATASIZE PUSH1 0x3 NOT ADD SLT PUSH2 0x242 JUMPI PUSH1 0x20 PUSH2 0x2B5 PUSH2 0x28F PUSH2 0x22C JUMP JUMPDEST PUSH1 0x24 CALLDATALOAD PUSH1 0x0 MSTORE PUSH1 0x1 DUP4 MSTORE PUSH1 0x40 PUSH1 0x0 KECCAK256 SWAP1 PUSH1 0x1 DUP1 PUSH1 0xA0 SHL SUB AND PUSH1 0x0 MSTORE PUSH1 0x20 MSTORE PUSH1 0x40 PUSH1 0x0 KECCAK256 SWAP1 JUMP JUMPDEST SLOAD PUSH1 0x40 MLOAD SWAP1 DUP2 MSTORE RETURN JUMPDEST PUSH1 0x1 PUSH1 0x1 PUSH1 0xE0 SHL SUB NOT DUP2 AND SUB PUSH2 0x242 JUMPI JUMP JUMPDEST CALLVALUE PUSH2 0x242 JUMPI PUSH1 0x20 CALLDATASIZE PUSH1 0x3 NOT ADD SLT PUSH2 0x242 JUMPI PUSH1 0x20 PUSH1 0x4 CALLDATALOAD PUSH2 0x2EF DUP2 PUSH2 0x2BE JUMP JUMPDEST PUSH4 0xFFFFFFFF PUSH1 0xE0 SHL AND PUSH4 0x6CDB3D13 PUSH1 0xE1 SHL DUP2 EQ SWAP1 DUP2 ISZERO PUSH2 0x32D JUMPI JUMPDEST DUP2 ISZERO PUSH2 0x31C JUMPI JUMPDEST POP PUSH1 0x40 MLOAD SWAP1 ISZERO ISZERO DUP2 MSTORE RETURN JUMPDEST PUSH4 0x1FFC9A7 PUSH1 0xE0 SHL EQ SWAP1 POP CODESIZE PUSH2 0x311 JUMP JUMPDEST PUSH4 0x3A24D07 PUSH1 0xE2 SHL DUP2 EQ SWAP2 POP PUSH2 0x30A JUMP JUMPDEST SWAP2 SWAP1 DUP3 MLOAD SWAP3 DUP4 DUP3 MSTORE PUSH1 0x0 JUMPDEST DUP5 DUP2 LT PUSH2 0x36A JUMPI POP POP DUP3 PUSH1 0x0 PUSH1 0x20 DUP1 SWAP5 SWAP6 DUP5 ADD ADD MSTORE PUSH1 0x1F DUP1 NOT SWAP2 ADD AND ADD ADD SWAP1 JUMP JUMPDEST DUP1 PUSH1 0x20 DUP1 SWAP3 DUP5 ADD ADD MLOAD DUP3 DUP3 DUP7 ADD ADD MSTORE ADD PUSH2 0x349 JUMP JUMPDEST SWAP1 DUP2 MLOAD DUP2 MSTORE PUSH2 0x100 DUP1 PUSH2 0x3CD PUSH2 0x3BB PUSH2 0x3A9 PUSH1 0x20 DUP8 ADD MLOAD PUSH2 0x120 PUSH1 0x20 DUP9 ADD MSTORE PUSH2 0x120 DUP8 ADD SWAP1 PUSH2 0x33E JUMP JUMPDEST PUSH1 0x40 DUP8 ADD MLOAD DUP7 DUP3 SUB PUSH1 0x40 DUP9 ADD MSTORE PUSH2 0x33E JUMP JUMPDEST PUSH1 0x60 DUP7 ADD MLOAD DUP6 DUP3 SUB PUSH1 0x60 DUP8 ADD MSTORE PUSH2 0x33E JUMP JUMPDEST PUSH1 0x80 DUP1 DUP7 ADD MLOAD PUSH1 0x1 PUSH1 0x1 PUSH1 0xA0 SHL SUB AND SWAP1 DUP6 ADD MSTORE SWAP4 PUSH1 0xA0 DUP2 ADD MLOAD PUSH1 0xA0 DUP6 ADD MSTORE PUSH1 0xC0 DUP2 ADD MLOAD PUSH1 0xC0 DUP6 ADD MSTORE PUSH1 0xE0 DUP2 ADD MLOAD PUSH1 0xE0 DUP6 ADD MSTORE ADD MLOAD SWAP2 ADD MSTORE SWAP1 JUMP JUMPDEST SWAP1 PUSH1 0x20 PUSH2 0x418 SWAP3 DUP2 DUP2 MSTORE ADD SWAP1 PUSH2 0x37F JUMP JUMPDEST SWAP1 JUMP JUMPDEST CALLVALUE PUSH2 0x242 JUMPI PUSH1 0x20 CALLDATASIZE PUSH1 0x3 NOT ADD SLT PUSH2 0x242 JUMPI PUSH1 0x4 CALLDATALOAD PUSH2 0x437 PUSH2 0x183F JUMP JUMPDEST POP PUSH2 0x445 PUSH1 0x7 SLOAD DUP3 LT PUSH2 0x1896 JUMP JUMPDEST PUSH1 0x0 MSTORE PUSH1 0xC PUSH1 0x20 MSTORE PUSH2 0x4EC PUSH1 0x40 PUSH1 0x0 KECCAK256 PUSH1 0x8 PUSH2 0x45F PUSH2 0x64B JUMP JUMPDEST SWAP2 DUP1 SLOAD DUP4 MSTORE PUSH2 0x470 PUSH1 0x1 DUP3 ADD PUSH2 0x844 JUMP JUMPDEST PUSH1 0x20 DUP5 ADD MSTORE PUSH2 0x481 PUSH1 0x2 DUP3 ADD PUSH2 0x844 JUMP JUMPDEST PUSH1 0x40 DUP5 ADD MSTORE PUSH2 0x492 PUSH1 0x3 DUP3 ADD PUSH2 0x844 JUMP JUMPDEST PUSH1 0x60 DUP5 ADD MSTORE PUSH1 0x4 DUP2 ADD SLOAD PUSH2 0x4BA SWAP1 PUSH1 0x1 PUSH1 0x1 PUSH1 0xA0 SHL SUB AND JUMPDEST PUSH1 0x1 PUSH1 0x1 PUSH1 0xA0 SHL SUB AND PUSH1 0x80 DUP6 ADD MSTORE JUMP JUMPDEST PUSH1 0x5 DUP2 ADD SLOAD PUSH1 0xA0 DUP5 ADD MSTORE PUSH1 0x6 DUP2 ADD SLOAD PUSH1 0xC0 DUP5 ADD MSTORE PUSH1 0x7 DUP2 ADD SLOAD PUSH1 0xE0 DUP5 ADD MSTORE ADD SLOAD PUSH2 0x100 DUP3 ADD MSTORE PUSH1 0x40 MLOAD SWAP2 DUP3 SWAP2 DUP3 PUSH2 0x407 JUMP JUMPDEST SUB SWAP1 RETURN JUMPDEST CALLVALUE PUSH2 0x242 JUMPI PUSH1 0x20 CALLDATASIZE PUSH1 0x3 NOT ADD SLT PUSH2 0x242 JUMPI PUSH1 0x40 MLOAD PUSH1 0x0 PUSH1 0x3 SLOAD PUSH2 0x512 DUP2 PUSH2 0x80A JUMP JUMPDEST DUP1 DUP5 MSTORE SWAP1 PUSH1 0x1 DUP2 AND SWAP1 DUP2 ISZERO PUSH2 0x5AD JUMPI POP PUSH1 0x1 EQ PUSH2 0x54E JUMPI JUMPDEST PUSH2 0x4EC DUP4 PUSH2 0x53A DUP2 DUP6 SUB DUP3 PUSH2 0x625 JUMP JUMPDEST PUSH1 0x40 MLOAD SWAP2 DUP3 SWAP2 PUSH1 0x20 DUP4 MSTORE PUSH1 0x20 DUP4 ADD SWAP1 PUSH2 0x33E JUMP JUMPDEST PUSH1 0x3 PUSH1 0x0 SWAP1 DUP2 MSTORE PUSH32 0xC2575A0E9E593C00F959F8C92F12DB2869C3395A3B0502D05E2516446F71F85B SWAP4 SWAP3 POP SWAP1 JUMPDEST DUP1 DUP3 LT PUSH2 0x593 JUMPI POP SWAP1 SWAP2 POP DUP2 ADD PUSH1 0x20 ADD PUSH2 0x53A PUSH2 0x52A JUMP JUMPDEST SWAP2 SWAP3 PUSH1 0x1 DUP2 PUSH1 0x20 SWAP3 SLOAD DUP4 DUP6 DUP9 ADD ADD MSTORE ADD SWAP2 ADD SWAP1 SWAP3 SWAP2 PUSH2 0x57B JUMP JUMPDEST PUSH1 0xFF NOT AND PUSH1 0x20 DUP1 DUP7 ADD SWAP2 SWAP1 SWAP2 MSTORE SWAP2 ISZERO ISZERO PUSH1 0x5 SHL DUP5 ADD SWAP1 SWAP2 ADD SWAP2 POP PUSH2 0x53A SWAP1 POP PUSH2 0x52A JUMP JUMPDEST CALLVALUE PUSH2 0x242 JUMPI PUSH1 0x20 CALLDATASIZE PUSH1 0x3 NOT ADD SLT PUSH2 0x242 JUMPI PUSH1 0x4 CALLDATALOAD PUSH2 0x5F2 PUSH1 0x7 SLOAD DUP3 LT PUSH2 0x1896 JUMP JUMPDEST PUSH1 0x0 MSTORE PUSH1 0xC PUSH1 0x20 MSTORE PUSH1 0x20 PUSH1 0x6 PUSH1 0x40 PUSH1 0x0 KECCAK256 ADD SLOAD PUSH1 0x40 MLOAD SWAP1 TIMESTAMP LT DUP2 MSTORE RETURN JUMPDEST PUSH4 0x4E487B71 PUSH1 0xE0 SHL PUSH1 0x0 MSTORE PUSH1 0x41 PUSH1 0x4 MSTORE PUSH1 0x24 PUSH1 0x0 REVERT JUMPDEST SWAP1 PUSH1 0x1F DUP1 NOT SWAP2 ADD AND DUP2 ADD SWAP1 DUP2 LT PUSH1 0x1 PUSH1 0x1 PUSH1 0x40 SHL SUB DUP3 GT OR PUSH2 0x646 JUMPI PUSH1 0x40 MSTORE JUMP JUMPDEST PUSH2 0x60F JUMP JUMPDEST PUSH1 0x40 MLOAD SWAP1 PUSH2 0x65B PUSH2 0x120 DUP4 PUSH2 0x625 JUMP JUMPDEST JUMP JUMPDEST PUSH1 0x1 PUSH1 0x1 PUSH1 0x40 SHL SUB DUP2 GT PUSH2 0x646 JUMPI PUSH1 0x5 SHL PUSH1 0x20 ADD SWAP1 JUMP JUMPDEST SWAP1 DUP1 PUSH1 0x1F DUP4 ADD SLT ISZERO PUSH2 0x242 JUMPI DUP2 CALLDATALOAD PUSH2 0x68B DUP2 PUSH2 0x65D JUMP JUMPDEST SWAP3 PUSH2 0x699 PUSH1 0x40 MLOAD SWAP5 DUP6 PUSH2 0x625 JUMP JUMPDEST DUP2 DUP5 MSTORE PUSH1 0x20 DUP1 DUP6 ADD SWAP3 PUSH1 0x5 SHL DUP3 ADD ADD SWAP3 DUP4 GT PUSH2 0x242 JUMPI PUSH1 0x20 ADD SWAP1 JUMPDEST DUP3 DUP3 LT PUSH2 0x6C1 JUMPI POP POP POP SWAP1 JUMP JUMPDEST DUP2 CALLDATALOAD DUP2 MSTORE PUSH1 0x20 SWAP2 DUP3 ADD SWAP2 ADD PUSH2 0x6B4 JUMP JUMPDEST PUSH1 0x1 PUSH1 0x1 PUSH1 0x40 SHL SUB DUP2 GT PUSH2 0x646 JUMPI PUSH1 0x1F ADD PUSH1 0x1F NOT AND PUSH1 0x20 ADD SWAP1 JUMP JUMPDEST DUP2 PUSH1 0x1F DUP3 ADD SLT ISZERO PUSH2 0x242 JUMPI PUSH1 0x20 DUP2 CALLDATALOAD SWAP2 ADD PUSH2 0x706 DUP3 PUSH2 0x6D1 JUMP JUMPDEST SWAP3 PUSH2 0x714 PUSH1 0x40 MLOAD SWAP5 DUP6 PUSH2 0x625 JUMP JUMPDEST DUP3 DUP5 MSTORE DUP3 DUP3 ADD GT PUSH2 0x242 JUMPI DUP2 PUSH1 0x0 SWAP3 PUSH1 0x20 SWAP3 DUP4 DUP7 ADD CALLDATACOPY DUP4 ADD ADD MSTORE SWAP1 JUMP JUMPDEST CALLVALUE PUSH2 0x242 JUMPI PUSH1 0xA0 CALLDATASIZE PUSH1 0x3 NOT ADD SLT PUSH2 0x242 JUMPI PUSH2 0x74A PUSH2 0x22C JUMP JUMPDEST PUSH2 0x752 PUSH2 0x247 JUMP JUMPDEST SWAP1 PUSH1 0x44 CALLDATALOAD PUSH1 0x1 PUSH1 0x1 PUSH1 0x40 SHL SUB DUP2 GT PUSH2 0x242 JUMPI PUSH2 0x772 SWAP1 CALLDATASIZE SWAP1 PUSH1 0x4 ADD PUSH2 0x674 JUMP JUMPDEST PUSH1 0x64 CALLDATALOAD PUSH1 0x1 PUSH1 0x1 PUSH1 0x40 SHL SUB DUP2 GT PUSH2 0x242 JUMPI PUSH2 0x791 SWAP1 CALLDATASIZE SWAP1 PUSH1 0x4 ADD PUSH2 0x674 JUMP JUMPDEST SWAP1 PUSH1 0x84 CALLDATALOAD SWAP4 PUSH1 0x1 PUSH1 0x1 PUSH1 0x40 SHL SUB DUP6 GT PUSH2 0x242 JUMPI PUSH2 0x7B5 PUSH2 0x7BB SWAP6 CALLDATASIZE SWAP1 PUSH1 0x4 ADD PUSH2 0x6EC JUMP JUMPDEST SWAP4 PUSH2 0x1960 JUMP JUMPDEST STOP JUMPDEST CALLVALUE PUSH2 0x242 JUMPI PUSH1 0x0 CALLDATASIZE PUSH1 0x3 NOT ADD SLT PUSH2 0x242 JUMPI PUSH1 0x20 PUSH1 0x7 SLOAD PUSH1 0x40 MLOAD SWAP1 DUP2 MSTORE RETURN JUMPDEST CALLVALUE PUSH2 0x242 JUMPI PUSH1 0x0 CALLDATASIZE PUSH1 0x3 NOT ADD SLT PUSH2 0x242 JUMPI PUSH1 0x60 PUSH1 0x9 SLOAD PUSH1 0xA SLOAD PUSH1 0xB SLOAD SWAP1 PUSH1 0x40 MLOAD SWAP3 DUP4 MSTORE PUSH1 0x20 DUP4 ADD MSTORE PUSH1 0x40 DUP3 ADD MSTORE RETURN JUMPDEST SWAP1 PUSH1 0x1 DUP3 DUP2 SHR SWAP3 AND DUP1 ISZERO PUSH2 0x83A JUMPI JUMPDEST PUSH1 0x20 DUP4 LT EQ PUSH2 0x824 JUMPI JUMP JUMPDEST PUSH4 0x4E487B71 PUSH1 0xE0 SHL PUSH1 0x0 MSTORE PUSH1 0x22 PUSH1 0x4 MSTORE PUSH1 0x24 PUSH1 0x0 REVERT JUMPDEST SWAP2 PUSH1 0x7F AND SWAP2 PUSH2 0x819 JUMP JUMPDEST SWAP1 PUSH1 0x40 MLOAD SWAP2 DUP3 PUSH1 0x0 DUP3 SLOAD SWAP3 PUSH2 0x858 DUP5 PUSH2 0x80A JUMP JUMPDEST DUP1 DUP5 MSTORE SWAP4 PUSH1 0x1 DUP2 AND SWAP1 DUP2 ISZERO PUSH2 0x8C4 JUMPI POP PUSH1 0x1 EQ PUSH2 0x87D JUMPI JUMPDEST POP PUSH2 0x65B SWAP3 POP SUB DUP4 PUSH2 0x625 JUMP JUMPDEST SWAP1 POP PUSH1 0x0 SWAP3 SWAP2 SWAP3 MSTORE PUSH1 0x20 PUSH1 0x0 KECCAK256 SWAP1 PUSH1 0x0 SWAP2 JUMPDEST DUP2 DUP4 LT PUSH2 0x8A8 JUMPI POP POP SWAP1 PUSH1 0x20 PUSH2 0x65B SWAP3 DUP3 ADD ADD CODESIZE PUSH2 0x870 JUMP JUMPDEST PUSH1 0x20 SWAP2 SWAP4 POP DUP1 PUSH1 0x1 SWAP2 SLOAD DUP4 DUP6 DUP10 ADD ADD MSTORE ADD SWAP2 ADD SWAP1 SWAP2 DUP5 SWAP3 PUSH2 0x88F JUMP JUMPDEST SWAP1 POP PUSH1 0x20 SWAP3 POP PUSH2 0x65B SWAP5 SWAP2 POP PUSH1 0xFF NOT AND DUP3 DUP5 ADD MSTORE ISZERO ISZERO PUSH1 0x5 SHL DUP3 ADD ADD CODESIZE PUSH2 0x870 JUMP JUMPDEST SWAP6 SWAP3 PUSH2 0x921 SWAP1 PUSH2 0x913 PUSH2 0x92F SWAP5 PUSH2 0x100 SWAP11 SWAP8 SWAP5 SWAP14 SWAP13 SWAP12 SWAP9 SWAP14 DUP11 MSTORE PUSH2 0x120 PUSH1 0x20 DUP12 ADD MSTORE PUSH2 0x120 DUP11 ADD SWAP1 PUSH2 0x33E JUMP JUMPDEST SWAP1 DUP9 DUP3 SUB PUSH1 0x40 DUP11 ADD MSTORE PUSH2 0x33E JUMP JUMPDEST SWAP1 DUP7 DUP3 SUB PUSH1 0x60 DUP9 ADD MSTORE PUSH2 0x33E JUMP JUMPDEST PUSH1 0x1 PUSH1 0x1 PUSH1 0xA0 SHL SUB SWAP1 SWAP9 AND PUSH1 0x80 DUP6 ADD MSTORE PUSH1 0xA0 DUP5 ADD MSTORE PUSH1 0xC0 DUP4 ADD MSTORE PUSH1 0xE0 DUP3 ADD MSTORE ADD MSTORE JUMP JUMPDEST CALLVALUE PUSH2 0x242 JUMPI PUSH1 0x20 CALLDATASIZE PUSH1 0x3 NOT ADD SLT PUSH2 0x242 JUMPI PUSH1 0x4 CALLDATALOAD PUSH1 0x0 MSTORE PUSH1 0xC PUSH1 0x20 MSTORE PUSH1 0x40 PUSH1 0x0 KECCAK256 DUP1 SLOAD PUSH2 0x4EC PUSH2 0x984 PUSH1 0x1 DUP5 ADD PUSH2 0x844 JUMP JUMPDEST SWAP3 PUSH2 0x991 PUSH1 0x2 DUP3 ADD PUSH2 0x844 JUMP JUMPDEST SWAP1 PUSH2 0x99E PUSH1 0x3 DUP3 ADD PUSH2 0x844 JUMP JUMPDEST PUSH1 0x1 DUP1 PUSH1 0xA0 SHL SUB PUSH1 0x4 DUP4 ADD SLOAD AND PUSH1 0x5 DUP4 ADD SLOAD SWAP1 PUSH1 0x6 DUP5 ADD SLOAD SWAP3 PUSH1 0x8 PUSH1 0x7 DUP7 ADD SLOAD SWAP6 ADD SLOAD SWAP6 PUSH1 0x40 MLOAD SWAP10 DUP11 SWAP10 DUP11 PUSH2 0x8E6 JUMP JUMPDEST CALLVALUE PUSH2 0x242 JUMPI PUSH1 0x0 CALLDATASIZE PUSH1 0x3 NOT ADD SLT PUSH2 0x242 JUMPI PUSH2 0x9E7 PUSH2 0x210C JUMP JUMPDEST SELFBALANCE DUP1 ISZERO PUSH2 0xA11 JUMPI PUSH1 0x0 DUP1 SLOAD SWAP1 SWAP2 DUP3 SWAP2 DUP3 SWAP2 DUP3 SWAP2 PUSH1 0x1 PUSH1 0x1 PUSH1 0xA0 SHL SUB AND DUP3 CALL ISZERO PUSH2 0xA0C JUMPI STOP JUMPDEST PUSH2 0x19BD JUMP JUMPDEST PUSH1 0x40 MLOAD PUSH3 0x461BCD PUSH1 0xE5 SHL DUP2 MSTORE PUSH1 0x20 PUSH1 0x4 DUP3 ADD MSTORE PUSH1 0x16 PUSH1 0x24 DUP3 ADD MSTORE PUSH22 0x4E6F2062616C616E636520746F207769746864726177 PUSH1 0x50 SHL PUSH1 0x44 DUP3 ADD MSTORE PUSH1 0x64 SWAP1 REVERT JUMPDEST SWAP1 PUSH1 0x20 DUP1 DUP4 MLOAD SWAP3 DUP4 DUP2 MSTORE ADD SWAP3 ADD SWAP1 PUSH1 0x0 JUMPDEST DUP2 DUP2 LT PUSH2 0xA6D JUMPI POP POP POP SWAP1 JUMP JUMPDEST DUP3 MLOAD DUP5 MSTORE PUSH1 0x20 SWAP4 DUP5 ADD SWAP4 SWAP1 SWAP3 ADD SWAP2 PUSH1 0x1 ADD PUSH2 0xA60 JUMP JUMPDEST SWAP1 PUSH1 0x20 PUSH2 0x418 SWAP3 DUP2 DUP2 MSTORE ADD SWAP1 PUSH2 0xA4F JUMP JUMPDEST CALLVALUE PUSH2 0x242 JUMPI PUSH1 0x40 CALLDATASIZE PUSH1 0x3 NOT ADD SLT PUSH2 0x242 JUMPI PUSH1 0x4 CALLDATALOAD PUSH1 0x1 PUSH1 0x1 PUSH1 0x40 SHL SUB DUP2 GT PUSH2 0x242 JUMPI CALLDATASIZE PUSH1 0x23 DUP3 ADD SLT ISZERO PUSH2 0x242 JUMPI DUP1 PUSH1 0x4 ADD CALLDATALOAD SWAP1 PUSH2 0xAD0 DUP3 PUSH2 0x65D JUMP JUMPDEST SWAP2 PUSH2 0xADE PUSH1 0x40 MLOAD SWAP4 DUP5 PUSH2 0x625 JUMP JUMPDEST DUP1 DUP4 MSTORE PUSH1 0x24 PUSH1 0x20 DUP5 ADD SWAP2 PUSH1 0x5 SHL DUP4 ADD ADD SWAP2 CALLDATASIZE DUP4 GT PUSH2 0x242 JUMPI PUSH1 0x24 ADD SWAP1 JUMPDEST DUP3 DUP3 LT PUSH2 0xB3B JUMPI DUP4 PUSH1 0x24 CALLDATALOAD PUSH1 0x1 PUSH1 0x1 PUSH1 0x40 SHL SUB DUP2 GT PUSH2 0x242 JUMPI PUSH2 0x4EC SWAP2 PUSH2 0xB29 PUSH2 0xB2F SWAP3 CALLDATASIZE SWAP1 PUSH1 0x4 ADD PUSH2 0x674 JUMP JUMPDEST SWAP1 PUSH2 0x19F3 JUMP JUMPDEST PUSH1 0x40 MLOAD SWAP2 DUP3 SWAP2 DUP3 PUSH2 0xA83 JUMP JUMPDEST PUSH1 0x20 DUP1 SWAP2 PUSH2 0xB48 DUP5 PUSH2 0x25D JUMP JUMPDEST DUP2 MSTORE ADD SWAP2 ADD SWAP1 PUSH2 0xAFB JUMP JUMPDEST CALLVALUE PUSH2 0x242 JUMPI PUSH1 0x0 CALLDATASIZE PUSH1 0x3 NOT ADD SLT PUSH2 0x242 JUMPI PUSH1 0x20 PUSH1 0xA SLOAD PUSH1 0x40 MLOAD SWAP1 DUP2 MSTORE RETURN JUMPDEST CALLVALUE PUSH2 0x242 JUMPI PUSH1 0x0 CALLDATASIZE PUSH1 0x3 NOT ADD SLT PUSH2 0x242 JUMPI PUSH1 0x20 PUSH1 0xB SLOAD PUSH1 0x40 MLOAD SWAP1 DUP2 MSTORE RETURN JUMPDEST CALLVALUE PUSH2 0x242 JUMPI PUSH1 0x20 CALLDATASIZE PUSH1 0x3 NOT ADD SLT PUSH2 0x242 JUMPI PUSH1 0x4 CALLDATALOAD PUSH2 0xBAB PUSH2 0x210C JUMP JUMPDEST DUP1 ISZERO PUSH2 0xBB6 JUMPI PUSH1 0xB SSTORE STOP JUMPDEST PUSH1 0x40 MLOAD PUSH3 0x461BCD PUSH1 0xE5 SHL DUP2 MSTORE PUSH1 0x20 PUSH1 0x4 DUP3 ADD MSTORE PUSH1 0x11 PUSH1 0x24 DUP3 ADD MSTORE PUSH17 0x125B9D985B1A59081D1A1C995CDA1BDB19 PUSH1 0x7A SHL PUSH1 0x44 DUP3 ADD MSTORE PUSH1 0x64 SWAP1 REVERT JUMPDEST CALLVALUE PUSH2 0x242 JUMPI PUSH1 0x20 CALLDATASIZE PUSH1 0x3 NOT ADD SLT PUSH2 0x242 JUMPI PUSH1 0x1 PUSH1 0x1 PUSH1 0xA0 SHL SUB PUSH2 0xC10 PUSH2 0x22C JUMP JUMPDEST AND PUSH1 0x0 MSTORE PUSH1 0xD PUSH1 0x20 MSTORE PUSH1 0x20 PUSH1 0x40 PUSH1 0x0 KECCAK256 SLOAD PUSH1 0x40 MLOAD SWAP1 DUP2 MSTORE RETURN JUMPDEST CALLVALUE PUSH2 0x242 JUMPI PUSH1 0x40 CALLDATASIZE PUSH1 0x3 NOT ADD SLT PUSH2 0x242 JUMPI PUSH1 0x20 PUSH1 0xFF PUSH2 0xC70 PUSH1 0x4 CALLDATALOAD PUSH2 0xC4C PUSH2 0x247 JUMP JUMPDEST SWAP1 PUSH1 0x0 MSTORE PUSH1 0xE DUP5 MSTORE PUSH1 0x40 PUSH1 0x0 KECCAK256 SWAP1 PUSH1 0x1 DUP1 PUSH1 0xA0 SHL SUB AND PUSH1 0x0 MSTORE PUSH1 0x20 MSTORE PUSH1 0x40 PUSH1 0x0 KECCAK256 SWAP1 JUMP JUMPDEST SLOAD AND PUSH1 0x40 MLOAD SWAP1 ISZERO ISZERO DUP2 MSTORE RETURN JUMPDEST CALLVALUE PUSH2 0x242 JUMPI PUSH1 0x0 CALLDATASIZE PUSH1 0x3 NOT ADD SLT PUSH2 0x242 JUMPI PUSH2 0xC95 PUSH2 0x210C JUMP JUMPDEST PUSH1 0x0 DUP1 SLOAD PUSH1 0x1 PUSH1 0x1 PUSH1 0xA0 SHL SUB NOT DUP2 AND DUP3 SSTORE PUSH1 0x1 PUSH1 0x1 PUSH1 0xA0 SHL SUB AND PUSH32 0x8BE0079C531659141344CD1FD0A4F28419497F9722A3DAAFE3B4186F6B6457E0 DUP3 DUP1 LOG3 STOP JUMPDEST PUSH1 0x20 CALLDATASIZE PUSH1 0x3 NOT ADD SLT PUSH2 0x242 JUMPI PUSH1 0x4 CALLDATALOAD PUSH2 0xCEC PUSH2 0x2135 JUMP JUMPDEST PUSH2 0xCF9 PUSH1 0x7 SLOAD DUP3 LT PUSH2 0x1896 JUMP JUMPDEST PUSH2 0xD07 PUSH1 0xA SLOAD CALLVALUE LT ISZERO PUSH2 0x1A8B JUMP JUMPDEST PUSH2 0xD18 PUSH2 0xD13 CALLER PUSH2 0x2157 JUMP JUMPDEST PUSH2 0x1ACA JUMP JUMPDEST PUSH2 0xD2C DUP2 PUSH1 0x0 MSTORE PUSH1 0xC PUSH1 0x20 MSTORE PUSH1 0x40 PUSH1 0x0 KECCAK256 SWAP1 JUMP JUMPDEST PUSH1 0x4 DUP2 ADD SLOAD SWAP1 SWAP2 SWAP1 PUSH2 0xD48 SWAP1 PUSH1 0x1 PUSH1 0x1 PUSH1 0xA0 SHL SUB AND CALLER EQ PUSH2 0x1B16 JUMP JUMPDEST PUSH32 0xEE5818A7743A21F532260FB7A20B016A2B77A7F16E2EAE7C1E1AACA77A128E4C PUSH2 0xDB7 PUSH2 0xD75 TIMESTAMP PUSH2 0x1B71 JUMP JUMPDEST PUSH1 0x6 DUP6 ADD SWAP1 DUP2 SSTORE PUSH2 0xD8F PUSH2 0xD8A PUSH1 0x8 SLOAD PUSH2 0x1B93 JUMP JUMPDEST PUSH1 0x8 SSTORE JUMP JUMPDEST PUSH1 0x7 PUSH1 0x8 SLOAD SWAP6 ADD SWAP5 DUP6 SSTORE SLOAD SWAP4 SLOAD PUSH1 0x40 MLOAD SWAP2 DUP3 SWAP2 CALLER SWAP7 DUP4 PUSH1 0x20 SWAP1 SWAP4 SWAP3 SWAP2 SWAP4 PUSH1 0x40 DUP2 ADD SWAP5 DUP2 MSTORE ADD MSTORE JUMP JUMPDEST SUB SWAP1 LOG3 PUSH2 0x7BB PUSH1 0x1 PUSH1 0x4 SSTORE JUMP JUMPDEST CALLVALUE PUSH2 0x242 JUMPI PUSH1 0x40 CALLDATASIZE PUSH1 0x3 NOT ADD SLT PUSH2 0x242 JUMPI PUSH32 0xFD9F09483AC0AF574B21CD44377518C46225E61796BC41F0CA276C4A55AA2B02 PUSH1 0x24 CALLDATALOAD PUSH1 0x4 CALLDATALOAD PUSH2 0xE04 PUSH2 0x210C JUMP JUMPDEST DUP1 PUSH1 0x9 SSTORE DUP2 PUSH1 0xA SSTORE PUSH2 0xE28 PUSH1 0x40 MLOAD SWAP3 DUP4 SWAP3 DUP4 PUSH1 0x20 SWAP1 SWAP4 SWAP3 SWAP2 SWAP4 PUSH1 0x40 DUP2 ADD SWAP5 DUP2 MSTORE ADD MSTORE JUMP JUMPDEST SUB SWAP1 LOG1 STOP JUMPDEST PUSH1 0x20 DUP2 ADD PUSH1 0x20 DUP3 MSTORE DUP3 MLOAD DUP1 SWAP2 MSTORE PUSH1 0x40 DUP3 ADD SWAP2 PUSH1 0x20 PUSH1 0x40 DUP4 PUSH1 0x5 SHL DUP4 ADD ADD SWAP5 ADD SWAP3 PUSH1 0x0 SWAP2 JUMPDEST DUP4 DUP4 LT PUSH2 0xE60 JUMPI POP POP POP POP POP SWAP1 JUMP JUMPDEST SWAP1 SWAP2 SWAP3 SWAP4 SWAP5 PUSH1 0x20 DUP1 PUSH2 0xE7E PUSH1 0x1 SWAP4 PUSH1 0x3F NOT DUP7 DUP3 SUB ADD DUP8 MSTORE DUP10 MLOAD PUSH2 0x37F JUMP JUMPDEST SWAP8 ADD SWAP4 ADD SWAP4 ADD SWAP2 SWAP4 SWAP3 SWAP1 PUSH2 0xE51 JUMP JUMPDEST CALLVALUE PUSH2 0x242 JUMPI PUSH1 0x0 CALLDATASIZE PUSH1 0x3 NOT ADD SLT PUSH2 0x242 JUMPI PUSH1 0x7 SLOAD PUSH1 0x0 DUP1 JUMPDEST DUP3 DUP2 LT PUSH2 0xF3D JUMPI POP PUSH2 0xEB6 SWAP1 PUSH2 0x1BA2 JUMP JUMPDEST SWAP1 PUSH1 0x0 DUP1 JUMPDEST DUP3 DUP2 LT PUSH2 0xED0 JUMPI PUSH1 0x40 MLOAD DUP1 PUSH2 0x4EC DUP7 DUP3 PUSH2 0xE2D JUMP JUMPDEST TIMESTAMP PUSH1 0x6 PUSH2 0xEE7 DUP4 PUSH1 0x0 MSTORE PUSH1 0xC PUSH1 0x20 MSTORE PUSH1 0x40 PUSH1 0x0 KECCAK256 SWAP1 JUMP JUMPDEST ADD SLOAD GT PUSH2 0xEF7 JUMPI JUMPDEST PUSH1 0x1 ADD PUSH2 0xEBB JUMP JUMPDEST SWAP1 PUSH2 0xF35 PUSH1 0x1 SWAP2 PUSH2 0xF1A PUSH2 0xF15 DUP6 PUSH1 0x0 MSTORE PUSH1 0xC PUSH1 0x20 MSTORE PUSH1 0x40 PUSH1 0x0 KECCAK256 SWAP1 JUMP JUMPDEST PUSH2 0x18E2 JUMP JUMPDEST PUSH2 0xF24 DUP3 DUP9 PUSH2 0x19C9 JUMP JUMPDEST MSTORE PUSH2 0xF2F DUP2 DUP8 PUSH2 0x19C9 JUMP JUMPDEST POP PUSH2 0x1B93 JUMP JUMPDEST SWAP2 SWAP1 POP PUSH2 0xEEF JUMP JUMPDEST TIMESTAMP PUSH1 0x6 PUSH2 0xF54 DUP4 PUSH1 0x0 MSTORE PUSH1 0xC PUSH1 0x20 MSTORE PUSH1 0x40 PUSH1 0x0 KECCAK256 SWAP1 JUMP JUMPDEST ADD SLOAD GT PUSH2 0xF64 JUMPI JUMPDEST PUSH1 0x1 ADD PUSH2 0xEA5 JUMP JUMPDEST SWAP1 PUSH2 0xF70 PUSH1 0x1 SWAP2 PUSH2 0x1B93 JUMP JUMPDEST SWAP2 SWAP1 POP PUSH2 0xF5C JUMP JUMPDEST CALLVALUE PUSH2 0x242 JUMPI PUSH1 0x0 CALLDATASIZE PUSH1 0x3 NOT ADD SLT PUSH2 0x242 JUMPI PUSH1 0x0 SLOAD PUSH1 0x40 MLOAD PUSH1 0x1 PUSH1 0x1 PUSH1 0xA0 SHL SUB SWAP1 SWAP2 AND DUP2 MSTORE PUSH1 0x20 SWAP1 RETURN JUMPDEST CALLVALUE PUSH2 0x242 JUMPI PUSH1 0x0 CALLDATASIZE PUSH1 0x3 NOT ADD SLT PUSH2 0x242 JUMPI PUSH1 0x6 SLOAD PUSH1 0x40 MLOAD PUSH1 0x1 PUSH1 0x1 PUSH1 0xA0 SHL SUB SWAP1 SWAP2 AND DUP2 MSTORE PUSH1 0x20 SWAP1 RETURN JUMPDEST CALLVALUE PUSH2 0x242 JUMPI PUSH1 0x0 CALLDATASIZE PUSH1 0x3 NOT ADD SLT PUSH2 0x242 JUMPI PUSH1 0x7 SLOAD PUSH2 0xFE7 DUP2 PUSH2 0x1BA2 JUMP JUMPDEST SWAP1 PUSH1 0x0 JUMPDEST DUP2 DUP2 LT PUSH2 0x1000 JUMPI PUSH1 0x40 MLOAD DUP1 PUSH2 0x4EC DUP6 DUP3 PUSH2 0xE2D JUMP JUMPDEST DUP1 PUSH1 0x1 SWAP2 PUSH1 0x0 MSTORE PUSH1 0xC PUSH1 0x20 MSTORE PUSH1 0x40 PUSH1 0x0 KECCAK256 PUSH1 0x8 PUSH2 0x101B PUSH2 0x64B JUMP JUMPDEST SWAP2 DUP1 SLOAD DUP4 MSTORE PUSH2 0x102B DUP6 DUP3 ADD PUSH2 0x844 JUMP JUMPDEST PUSH1 0x20 DUP5 ADD MSTORE PUSH2 0x103C PUSH1 0x2 DUP3 ADD PUSH2 0x844 JUMP JUMPDEST PUSH1 0x40 DUP5 ADD MSTORE PUSH2 0x104D PUSH1 0x3 DUP3 ADD PUSH2 0x844 JUMP JUMPDEST PUSH1 0x60 DUP5 ADD MSTORE PUSH1 0x4 DUP2 ADD SLOAD PUSH2 0x1069 SWAP1 PUSH1 0x1 PUSH1 0x1 PUSH1 0xA0 SHL SUB AND PUSH2 0x4AA JUMP JUMPDEST PUSH1 0x5 DUP2 ADD SLOAD PUSH1 0xA0 DUP5 ADD MSTORE PUSH1 0x6 DUP2 ADD SLOAD PUSH1 0xC0 DUP5 ADD MSTORE PUSH1 0x7 DUP2 ADD SLOAD PUSH1 0xE0 DUP5 ADD MSTORE ADD SLOAD PUSH2 0x100 DUP3 ADD MSTORE PUSH2 0x1099 DUP3 DUP7 PUSH2 0x19C9 JUMP JUMPDEST MSTORE PUSH2 0x10A4 DUP2 DUP6 PUSH2 0x19C9 JUMP JUMPDEST POP ADD PUSH2 0xFEB JUMP JUMPDEST PUSH1 0x64 CALLDATALOAD SWAP1 DUP2 ISZERO ISZERO DUP3 SUB PUSH2 0x242 JUMPI JUMP JUMPDEST CALLVALUE PUSH2 0x242 JUMPI PUSH1 0x40 CALLDATASIZE PUSH1 0x3 NOT ADD SLT PUSH2 0x242 JUMPI PUSH2 0x10D3 PUSH2 0x22C JUMP JUMPDEST PUSH1 0x24 CALLDATALOAD DUP1 ISZERO ISZERO DUP2 SUB PUSH2 0x242 JUMPI PUSH1 0x1 PUSH1 0x1 PUSH1 0xA0 SHL SUB DUP3 AND SWAP2 DUP3 ISZERO PUSH2 0x115E JUMPI DUP2 PUSH2 0x111D PUSH2 0x112E SWAP3 CALLER PUSH1 0x0 MSTORE PUSH1 0x2 PUSH1 0x20 MSTORE PUSH1 0x40 PUSH1 0x0 KECCAK256 SWAP1 PUSH1 0x1 DUP1 PUSH1 0xA0 SHL SUB AND PUSH1 0x0 MSTORE PUSH1 0x20 MSTORE PUSH1 0x40 PUSH1 0x0 KECCAK256 SWAP1 JUMP JUMPDEST SWAP1 PUSH1 0xFF DUP1 NOT DUP4 SLOAD AND SWAP2 ISZERO ISZERO AND OR SWAP1 SSTORE JUMP JUMPDEST PUSH1 0x40 MLOAD SWAP1 ISZERO ISZERO DUP2 MSTORE PUSH32 0x17307EAB39AB6107E8899845AD3D59BD9653F200F220920489CA2B5937696C31 PUSH1 0x20 CALLER SWAP3 LOG3 STOP JUMPDEST PUSH3 0xCED3E1 PUSH1 0xE8 SHL PUSH1 0x0 MSTORE PUSH1 0x0 PUSH1 0x4 MSTORE PUSH1 0x24 PUSH1 0x0 REVERT JUMPDEST PUSH1 0x80 CALLDATASIZE PUSH1 0x3 NOT ADD SLT PUSH2 0x242 JUMPI PUSH1 0x4 CALLDATALOAD PUSH1 0x1 PUSH1 0x1 PUSH1 0x40 SHL SUB DUP2 GT PUSH2 0x242 JUMPI PUSH2 0x119E SWAP1 CALLDATASIZE SWAP1 PUSH1 0x4 ADD PUSH2 0x6EC JUMP JUMPDEST PUSH1 0x24 CALLDATALOAD PUSH1 0x1 PUSH1 0x1 PUSH1 0x40 SHL SUB DUP2 GT PUSH2 0x242 JUMPI PUSH2 0x11BD SWAP1 CALLDATASIZE SWAP1 PUSH1 0x4 ADD PUSH2 0x6EC JUMP JUMPDEST PUSH1 0x44 CALLDATALOAD PUSH1 0x1 PUSH1 0x1 PUSH1 0x40 SHL SUB DUP2 GT PUSH2 0x242 JUMPI PUSH2 0x11DC SWAP1 CALLDATASIZE SWAP1 PUSH1 0x4 ADD PUSH2 0x6EC JUMP JUMPDEST SWAP2 PUSH2 0x11E5 PUSH2 0x10AB JUMP JUMPDEST PUSH2 0x11ED PUSH2 0x2135 JUMP JUMPDEST PUSH2 0x11F9 PUSH2 0xD13 CALLER PUSH2 0x2157 JUMP JUMPDEST PUSH2 0x1205 DUP3 MLOAD ISZERO ISZERO PUSH2 0x1BF2 JUMP JUMPDEST PUSH2 0x1211 DUP4 MLOAD ISZERO ISZERO PUSH2 0x1C36 JUMP JUMPDEST PUSH2 0x121D DUP5 MLOAD ISZERO ISZERO PUSH2 0x1C82 JUMP JUMPDEST PUSH1 0x0 SWAP2 DUP3 SWAP2 ISZERO PUSH2 0x13B2 JUMPI PUSH2 0x1231 CALLVALUE ISZERO PUSH2 0x1DB6 JUMP JUMPDEST PUSH1 0x6 SLOAD PUSH1 0x40 MLOAD PUSH4 0x70A08231 PUSH1 0xE0 SHL DUP2 MSTORE CALLER PUSH1 0x4 DUP3 ADD MSTORE PUSH1 0x1 PUSH1 0x1 PUSH1 0xA0 SHL SUB SWAP1 SWAP2 AND SWAP4 PUSH1 0x20 DUP3 PUSH1 0x24 DUP2 DUP9 GAS STATICCALL SWAP2 DUP3 ISZERO PUSH2 0xA0C JUMPI PUSH32 0x3F3879BB3AD4085D16ACCCD635AA8E07F963E9F8DB201224354135D5BE7960D5 SWAP6 PUSH2 0x12A6 PUSH8 0xDE0B6B3A7640000 PUSH2 0x12F8 SWAP6 DUP6 SWAP5 DUP6 SWAP2 PUSH2 0x1383 JUMPI JUMPDEST POP LT ISZERO PUSH2 0x1E10 JUMP JUMPDEST PUSH1 0x40 MLOAD PUSH4 0x79CC679 PUSH1 0xE4 SHL PUSH1 0x20 DUP3 ADD SWAP1 DUP2 MSTORE CALLER PUSH1 0x24 DUP4 ADD MSTORE PUSH8 0xDE0B6B3A7640000 PUSH1 0x44 DUP4 ADD MSTORE SWAP1 DUP4 SWAP1 PUSH2 0x12E6 DUP2 PUSH1 0x64 DUP2 ADD JUMPDEST SUB PUSH1 0x1F NOT DUP2 ADD DUP4 MSTORE DUP3 PUSH2 0x625 JUMP JUMPDEST MLOAD SWAP3 GAS CALL PUSH2 0x12F2 PUSH2 0x1D46 JUMP JUMPDEST POP PUSH2 0x1E5C JUMP JUMPDEST PUSH2 0xDB7 PUSH1 0x1 SWAP2 JUMPDEST PUSH2 0x1373 PUSH1 0x7 SLOAD SWAP7 PUSH2 0x1317 PUSH2 0x1312 DUP10 PUSH2 0x1B93 JUMP JUMPDEST PUSH1 0x7 SSTORE JUMP JUMPDEST PUSH2 0x131F PUSH2 0x64B JUMP JUMPDEST DUP9 DUP2 MSTORE PUSH1 0x20 DUP2 ADD DUP5 SWAP1 MSTORE PUSH1 0x40 DUP2 ADD SWAP2 SWAP1 SWAP2 MSTORE PUSH1 0x60 DUP2 ADD DUP10 SWAP1 MSTORE CALLER PUSH1 0x80 DUP3 ADD MSTORE TIMESTAMP PUSH1 0xA0 DUP3 ADD MSTORE PUSH1 0x0 PUSH1 0xC0 DUP3 ADD MSTORE PUSH1 0x0 PUSH1 0xE0 DUP3 ADD MSTORE PUSH1 0x0 PUSH2 0x100 DUP3 ADD MSTORE PUSH2 0x136E DUP9 PUSH1 0x0 MSTORE PUSH1 0xC PUSH1 0x20 MSTORE PUSH1 0x40 PUSH1 0x0 KECCAK256 SWAP1 JUMP JUMPDEST PUSH2 0x1FBF JUMP JUMPDEST PUSH1 0x40 MLOAD SWAP4 DUP5 SWAP4 CALLER SWAP9 TIMESTAMP SWAP4 DUP7 PUSH2 0x2048 JUMP JUMPDEST PUSH2 0x13A5 SWAP2 POP PUSH1 0x20 RETURNDATASIZE PUSH1 0x20 GT PUSH2 0x13AB JUMPI JUMPDEST PUSH2 0x139D DUP2 DUP4 PUSH2 0x625 JUMP JUMPDEST DUP2 ADD SWAP1 PUSH2 0x1E01 JUMP JUMPDEST CODESIZE PUSH2 0x129E JUMP JUMPDEST POP RETURNDATASIZE PUSH2 0x1393 JUMP JUMPDEST SWAP1 POP PUSH32 0x3F3879BB3AD4085D16ACCCD635AA8E07F963E9F8DB201224354135D5BE7960D5 SWAP2 PUSH2 0xDB7 PUSH1 0x9 SLOAD PUSH2 0x13E8 DUP2 CALLVALUE LT ISZERO PUSH2 0x1CCE JUMP JUMPDEST CALLER PUSH1 0x0 SWAP1 DUP2 MSTORE PUSH1 0xD PUSH1 0x20 MSTORE PUSH1 0x40 SWAP1 KECCAK256 SWAP1 SWAP4 SWAP1 PUSH2 0x1404 DUP2 SLOAD PUSH2 0x1B93 JUMP JUMPDEST SWAP1 SSTORE CALLER PUSH1 0x0 SWAP1 DUP2 MSTORE PUSH1 0xD PUSH1 0x20 MSTORE PUSH1 0x40 SWAP1 KECCAK256 SLOAD PUSH1 0xB SLOAD PUSH2 0x1422 SWAP2 PUSH2 0x1D11 JUMP JUMPDEST PUSH2 0x12FF JUMPI PUSH1 0x6 SLOAD PUSH2 0x1482 SWAP1 DUP5 SWAP1 DUP2 SWAP1 PUSH1 0x1 PUSH1 0x1 PUSH1 0xA0 SHL SUB AND PUSH1 0x40 MLOAD PUSH4 0x40C10F19 PUSH1 0xE0 SHL PUSH1 0x20 DUP3 ADD SWAP1 DUP2 MSTORE CALLER PUSH1 0x24 DUP4 ADD MSTORE PUSH8 0xDE0B6B3A7640000 PUSH1 0x44 DUP4 ADD MSTORE SWAP1 DUP4 SWAP1 PUSH2 0x1470 DUP2 PUSH1 0x64 DUP2 ADD PUSH2 0x12D8 JUMP JUMPDEST MLOAD SWAP3 GAS CALL PUSH2 0x147C PUSH2 0x1D46 JUMP JUMPDEST POP PUSH2 0x1D76 JUMP JUMPDEST PUSH1 0x40 MLOAD PUSH8 0xDE0B6B3A7640000 DUP2 MSTORE CALLER SWAP1 PUSH32 0x851805430B76795C7338D40D064EB68FF06EA87E8E9518986018EDB9F5590252 SWAP1 PUSH1 0x20 SWAP1 LOG2 PUSH2 0x12FF JUMP JUMPDEST CALLVALUE PUSH2 0x242 JUMPI PUSH1 0x0 CALLDATASIZE PUSH1 0x3 NOT ADD SLT PUSH2 0x242 JUMPI PUSH1 0x20 PUSH1 0x9 SLOAD PUSH1 0x40 MLOAD SWAP1 DUP2 MSTORE RETURN JUMPDEST CALLVALUE PUSH2 0x242 JUMPI PUSH1 0x20 CALLDATASIZE PUSH1 0x3 NOT ADD SLT PUSH2 0x242 JUMPI PUSH1 0x4 CALLDATALOAD PUSH2 0x14F7 PUSH2 0x2135 JUMP JUMPDEST PUSH2 0x1504 PUSH1 0x7 SLOAD DUP3 LT PUSH2 0x1896 JUMP JUMPDEST PUSH2 0x1510 PUSH2 0xD13 CALLER PUSH2 0x2157 JUMP JUMPDEST PUSH1 0x0 DUP2 DUP2 MSTORE PUSH1 0xC PUSH1 0x20 MSTORE PUSH1 0x40 SWAP1 KECCAK256 PUSH1 0x4 DUP2 ADD SLOAD PUSH1 0x8 SWAP2 SWAP1 PUSH2 0x153C SWAP1 PUSH1 0x1 PUSH1 0x1 PUSH1 0xA0 SHL SUB AND CALLER EQ ISZERO PUSH2 0x2084 JUMP JUMPDEST PUSH2 0x1584 PUSH2 0x157F PUSH2 0x157B PUSH2 0x1574 CALLER PUSH2 0x155D DUP9 PUSH1 0x0 MSTORE PUSH1 0xE PUSH1 0x20 MSTORE PUSH1 0x40 PUSH1 0x0 KECCAK256 SWAP1 JUMP JUMPDEST SWAP1 PUSH1 0x1 DUP1 PUSH1 0xA0 SHL SUB AND PUSH1 0x0 MSTORE PUSH1 0x20 MSTORE PUSH1 0x40 PUSH1 0x0 KECCAK256 SWAP1 JUMP JUMPDEST SLOAD PUSH1 0xFF AND SWAP1 JUMP JUMPDEST ISZERO SWAP1 JUMP JUMPDEST PUSH2 0x20CF JUMP JUMPDEST PUSH2 0x15AC PUSH2 0x159F CALLER PUSH2 0x155D DUP7 PUSH1 0x0 MSTORE PUSH1 0xE PUSH1 0x20 MSTORE PUSH1 0x40 PUSH1 0x0 KECCAK256 SWAP1 JUMP JUMPDEST DUP1 SLOAD PUSH1 0xFF NOT AND PUSH1 0x1 OR SWAP1 SSTORE JUMP JUMPDEST ADD PUSH2 0x15B7 DUP2 SLOAD PUSH2 0x1B93 JUMP JUMPDEST DUP2 SSTORE PUSH2 0x15CB PUSH2 0x15C4 PUSH2 0x1D31 JUMP JUMPDEST DUP4 CALLER PUSH2 0x21B9 JUMP JUMPDEST SLOAD PUSH1 0x40 MLOAD SWAP1 DUP2 MSTORE CALLER SWAP2 SWAP1 PUSH32 0xA504FA1A622895E43328023A9FA609EEBEC933D785DF4E1B4F33C587D12D835D SWAP1 DUP1 PUSH1 0x20 DUP2 ADD PUSH2 0xDB7 JUMP JUMPDEST CALLVALUE PUSH2 0x242 JUMPI PUSH1 0x40 CALLDATASIZE PUSH1 0x3 NOT ADD SLT PUSH2 0x242 JUMPI PUSH1 0x20 PUSH1 0xFF PUSH2 0xC70 PUSH2 0x1621 PUSH2 0x22C JUMP JUMPDEST PUSH2 0x1629 PUSH2 0x247 JUMP JUMPDEST PUSH1 0x1 PUSH1 0x1 PUSH1 0xA0 SHL SUB SWAP2 DUP3 AND PUSH1 0x0 SWAP1 DUP2 MSTORE PUSH1 0x2 DUP7 MSTORE PUSH1 0x40 DUP1 DUP3 KECCAK256 SWAP3 SWAP1 SWAP4 AND DUP2 MSTORE PUSH1 0x20 SWAP2 SWAP1 SWAP2 MSTORE KECCAK256 SWAP1 JUMP JUMPDEST CALLVALUE PUSH2 0x242 JUMPI PUSH1 0xA0 CALLDATASIZE PUSH1 0x3 NOT ADD SLT PUSH2 0x242 JUMPI PUSH2 0x166B PUSH2 0x22C JUMP JUMPDEST PUSH2 0x1673 PUSH2 0x247 JUMP JUMPDEST PUSH1 0x44 CALLDATALOAD SWAP1 PUSH1 0x64 CALLDATALOAD SWAP3 PUSH1 0x84 CALLDATALOAD PUSH1 0x1 PUSH1 0x1 PUSH1 0x40 SHL SUB DUP2 GT PUSH2 0x242 JUMPI PUSH2 0x169A SWAP1 CALLDATASIZE SWAP1 PUSH1 0x4 ADD PUSH2 0x6EC JUMP JUMPDEST SWAP3 PUSH1 0x1 PUSH1 0x1 PUSH1 0xA0 SHL SUB DUP3 AND CALLER DUP2 EQ ISZERO DUP1 PUSH2 0x173D JUMPI JUMPDEST PUSH2 0x1725 JUMPI PUSH1 0x1 PUSH1 0x1 PUSH1 0xA0 SHL SUB DUP5 AND ISZERO PUSH2 0x170F JUMPI ISZERO PUSH2 0x16FA JUMPI PUSH2 0x7BB SWAP5 PUSH2 0x16F2 PUSH1 0x40 MLOAD SWAP3 PUSH1 0x1 DUP5 MSTORE PUSH1 0x20 DUP5 ADD MSTORE PUSH1 0x40 DUP4 ADD SWAP2 PUSH1 0x1 DUP4 MSTORE PUSH1 0x60 DUP5 ADD MSTORE PUSH1 0x80 DUP4 ADD PUSH1 0x40 MSTORE JUMP JUMPDEST SWAP3 SWAP1 SWAP2 PUSH2 0x231C JUMP JUMPDEST PUSH3 0x6A0D45 PUSH1 0xE2 SHL PUSH1 0x0 MSTORE PUSH1 0x0 PUSH1 0x4 MSTORE PUSH1 0x24 PUSH1 0x0 REVERT JUMPDEST PUSH4 0x2BFA23E7 PUSH1 0xE1 SHL PUSH1 0x0 MSTORE PUSH1 0x0 PUSH1 0x4 MSTORE PUSH1 0x24 PUSH1 0x0 REVERT JUMPDEST PUSH4 0x711BEC91 PUSH1 0xE1 SHL PUSH1 0x0 MSTORE CALLER PUSH1 0x4 MSTORE PUSH1 0x24 MSTORE PUSH1 0x44 PUSH1 0x0 REVERT JUMPDEST POP PUSH1 0x0 DUP2 DUP2 MSTORE PUSH1 0x2 PUSH1 0x20 SWAP1 DUP2 MSTORE PUSH1 0x40 DUP1 DUP4 KECCAK256 CALLER DUP5 MSTORE SWAP1 SWAP2 MSTORE SWAP1 KECCAK256 SLOAD PUSH1 0xFF AND ISZERO PUSH2 0x16AF JUMP JUMPDEST CALLVALUE PUSH2 0x242 JUMPI PUSH1 0x20 CALLDATASIZE PUSH1 0x3 NOT ADD SLT PUSH2 0x242 JUMPI PUSH2 0x177A PUSH2 0x22C JUMP JUMPDEST PUSH2 0x1782 PUSH2 0x210C JUMP JUMPDEST PUSH1 0x1 PUSH1 0x1 PUSH1 0xA0 SHL SUB AND DUP1 ISZERO PUSH2 0x17D4 JUMPI PUSH1 0x0 DUP1 SLOAD PUSH1 0x1 PUSH1 0x1 PUSH1 0xA0 SHL SUB NOT DUP2 AND DUP4 OR DUP3 SSTORE PUSH1 0x1 PUSH1 0x1 PUSH1 0xA0 SHL SUB AND SWAP1 PUSH32 0x8BE0079C531659141344CD1FD0A4F28419497F9722A3DAAFE3B4186F6B6457E0 SWAP1 DUP1 LOG3 STOP JUMPDEST PUSH4 0x1E4FBDF7 PUSH1 0xE0 SHL PUSH1 0x0 MSTORE PUSH1 0x0 PUSH1 0x4 MSTORE PUSH1 0x24 PUSH1 0x0 REVERT JUMPDEST CALLVALUE PUSH2 0x242 JUMPI PUSH1 0x0 CALLDATASIZE PUSH1 0x3 NOT ADD SLT PUSH2 0x242 JUMPI PUSH1 0x5 SLOAD PUSH1 0x40 MLOAD PUSH1 0x1 PUSH1 0x1 PUSH1 0xA0 SHL SUB SWAP1 SWAP2 AND DUP2 MSTORE PUSH1 0x20 SWAP1 RETURN JUMPDEST PUSH2 0x183B SWAP2 PUSH1 0x0 MSTORE PUSH1 0x1 PUSH1 0x20 MSTORE PUSH1 0x40 PUSH1 0x0 KECCAK256 SWAP1 PUSH1 0x1 DUP1 PUSH1 0xA0 SHL SUB AND PUSH1 0x0 MSTORE PUSH1 0x20 MSTORE PUSH1 0x40 PUSH1 0x0 KECCAK256 SWAP1 JUMP JUMPDEST SLOAD SWAP1 JUMP JUMPDEST PUSH1 0x40 MLOAD SWAP1 PUSH2 0x120 DUP3 ADD DUP3 DUP2 LT PUSH1 0x1 PUSH1 0x1 PUSH1 0x40 SHL SUB DUP3 GT OR PUSH2 0x646 JUMPI PUSH1 0x40 MSTORE PUSH1 0x0 PUSH2 0x100 DUP4 DUP3 DUP2 MSTORE PUSH1 0x60 PUSH1 0x20 DUP3 ADD MSTORE PUSH1 0x60 PUSH1 0x40 DUP3 ADD MSTORE PUSH1 0x60 DUP1 DUP3 ADD MSTORE DUP3 PUSH1 0x80 DUP3 ADD MSTORE DUP3 PUSH1 0xA0 DUP3 ADD MSTORE DUP3 PUSH1 0xC0 DUP3 ADD MSTORE DUP3 PUSH1 0xE0 DUP3 ADD MSTORE ADD MSTORE JUMP JUMPDEST ISZERO PUSH2 0x189D JUMPI JUMP JUMPDEST PUSH1 0x40 MLOAD PUSH3 0x461BCD PUSH1 0xE5 SHL DUP2 MSTORE PUSH1 0x20 PUSH1 0x4 DUP3 ADD MSTORE PUSH1 0x17 PUSH1 0x24 DUP3 ADD MSTORE PUSH32 0x5065746974696F6E20646F6573206E6F74206578697374000000000000000000 PUSH1 0x44 DUP3 ADD MSTORE PUSH1 0x64 SWAP1 REVERT JUMPDEST SWAP1 PUSH1 0x8 PUSH2 0x18ED PUSH2 0x64B JUMP JUMPDEST SWAP3 DUP1 SLOAD DUP5 MSTORE PUSH2 0x18FE PUSH1 0x1 DUP3 ADD PUSH2 0x844 JUMP JUMPDEST PUSH1 0x20 DUP6 ADD MSTORE PUSH2 0x190F PUSH1 0x2 DUP3 ADD PUSH2 0x844 JUMP JUMPDEST PUSH1 0x40 DUP6 ADD MSTORE PUSH2 0x1920 PUSH1 0x3 DUP3 ADD PUSH2 0x844 JUMP JUMPDEST PUSH1 0x60 DUP6 ADD MSTORE PUSH1 0x4 DUP2 ADD SLOAD PUSH1 0x1 PUSH1 0x1 PUSH1 0xA0 SHL SUB AND PUSH1 0x80 DUP6 ADD MSTORE PUSH1 0x5 DUP2 ADD SLOAD PUSH1 0xA0 DUP6 ADD MSTORE PUSH1 0x6 DUP2 ADD SLOAD PUSH1 0xC0 DUP6 ADD MSTORE PUSH1 0x7 DUP2 ADD SLOAD PUSH1 0xE0 DUP6 ADD MSTORE ADD SLOAD PUSH2 0x100 DUP4 ADD MSTORE JUMP JUMPDEST SWAP4 SWAP3 SWAP2 SWAP1 PUSH1 0x1 PUSH1 0x1 PUSH1 0xA0 SHL SUB DUP6 AND CALLER DUP2 EQ ISZERO DUP1 PUSH2 0x1999 JUMPI JUMPDEST PUSH2 0x1725 JUMPI PUSH1 0x1 PUSH1 0x1 PUSH1 0xA0 SHL SUB DUP3 AND ISZERO PUSH2 0x170F JUMPI ISZERO PUSH2 0x16FA JUMPI PUSH2 0x65B SWAP5 PUSH2 0x231C JUMP JUMPDEST POP PUSH1 0x0 DUP2 DUP2 MSTORE PUSH1 0x2 PUSH1 0x20 SWAP1 DUP2 MSTORE PUSH1 0x40 DUP1 DUP4 KECCAK256 CALLER DUP5 MSTORE SWAP1 SWAP2 MSTORE SWAP1 KECCAK256 SLOAD PUSH1 0xFF AND ISZERO PUSH2 0x1978 JUMP JUMPDEST PUSH1 0x40 MLOAD RETURNDATASIZE PUSH1 0x0 DUP3 RETURNDATACOPY RETURNDATASIZE SWAP1 REVERT JUMPDEST DUP1 MLOAD DUP3 LT ISZERO PUSH2 0x19DD JUMPI PUSH1 0x20 SWAP2 PUSH1 0x5 SHL ADD ADD SWAP1 JUMP JUMPDEST PUSH4 0x4E487B71 PUSH1 0xE0 SHL PUSH1 0x0 MSTORE PUSH1 0x32 PUSH1 0x4 MSTORE PUSH1 0x24 PUSH1 0x0 REVERT JUMPDEST SWAP2 SWAP1 SWAP2 DUP1 MLOAD DUP4 MLOAD DUP1 DUP3 SUB PUSH2 0x1A74 JUMPI POP POP DUP1 MLOAD SWAP1 PUSH2 0x1A0F DUP3 PUSH2 0x65D JUMP JUMPDEST SWAP2 PUSH2 0x1A1D PUSH1 0x40 MLOAD SWAP4 DUP5 PUSH2 0x625 JUMP JUMPDEST DUP1 DUP4 MSTORE PUSH2 0x1A2C PUSH1 0x1F NOT SWAP2 PUSH2 0x65D JUMP JUMPDEST ADD CALLDATASIZE PUSH1 0x20 DUP5 ADD CALLDATACOPY PUSH1 0x0 JUMPDEST DUP2 MLOAD DUP2 LT ISZERO PUSH2 0x1A6D JUMPI DUP1 PUSH2 0x1A5C PUSH1 0x1 SWAP3 PUSH1 0x5 SHL PUSH1 0x20 DUP1 DUP3 DUP8 ADD ADD MLOAD SWAP2 DUP10 ADD ADD MLOAD SWAP1 PUSH2 0x1813 JUMP JUMPDEST PUSH2 0x1A66 DUP3 DUP7 PUSH2 0x19C9 JUMP JUMPDEST MSTORE ADD PUSH2 0x1A36 JUMP JUMPDEST POP SWAP1 SWAP3 POP POP JUMP JUMPDEST PUSH4 0x5B059991 PUSH1 0xE0 SHL PUSH1 0x0 MSTORE PUSH1 0x4 MSTORE PUSH1 0x24 MSTORE PUSH1 0x44 PUSH1 0x0 REVERT JUMPDEST ISZERO PUSH2 0x1A92 JUMPI JUMP JUMPDEST PUSH1 0x40 MLOAD PUSH3 0x461BCD PUSH1 0xE5 SHL DUP2 MSTORE PUSH1 0x20 PUSH1 0x4 DUP3 ADD MSTORE PUSH1 0x10 PUSH1 0x24 DUP3 ADD MSTORE PUSH16 0x496E73756666696369656E7420666565 PUSH1 0x80 SHL PUSH1 0x44 DUP3 ADD MSTORE PUSH1 0x64 SWAP1 REVERT JUMPDEST ISZERO PUSH2 0x1AD1 JUMPI JUMP JUMPDEST PUSH1 0x40 MLOAD PUSH3 0x461BCD PUSH1 0xE5 SHL DUP2 MSTORE PUSH1 0x20 PUSH1 0x4 DUP3 ADD MSTORE PUSH1 0x17 PUSH1 0x24 DUP3 ADD MSTORE PUSH32 0x4E6F742061206D656D62657220286E6565642053425429000000000000000000 PUSH1 0x44 DUP3 ADD MSTORE PUSH1 0x64 SWAP1 REVERT JUMPDEST ISZERO PUSH2 0x1B1D JUMPI JUMP JUMPDEST PUSH1 0x40 MLOAD PUSH3 0x461BCD PUSH1 0xE5 SHL DUP2 MSTORE PUSH1 0x20 PUSH1 0x4 DUP3 ADD MSTORE PUSH1 0x16 PUSH1 0x24 DUP3 ADD MSTORE PUSH22 0x13DB9B1E4818DC99585D1BDC8818D85B88189BDBDCDD PUSH1 0x52 SHL PUSH1 0x44 DUP3 ADD MSTORE PUSH1 0x64 SWAP1 REVERT JUMPDEST PUSH4 0x4E487B71 PUSH1 0xE0 SHL PUSH1 0x0 MSTORE PUSH1 0x11 PUSH1 0x4 MSTORE PUSH1 0x24 PUSH1 0x0 REVERT JUMPDEST SWAP1 PUSH3 0x93A80 DUP3 ADD DUP1 SWAP3 GT PUSH2 0x1B81 JUMPI JUMP JUMPDEST PUSH2 0x1B5B JUMP JUMPDEST SWAP2 SWAP1 DUP3 ADD DUP1 SWAP3 GT PUSH2 0x1B81 JUMPI JUMP JUMPDEST PUSH1 0x0 NOT DUP2 EQ PUSH2 0x1B81 JUMPI PUSH1 0x1 ADD SWAP1 JUMP JUMPDEST SWAP1 PUSH2 0x1BAC DUP3 PUSH2 0x65D JUMP JUMPDEST PUSH2 0x1BB9 PUSH1 0x40 MLOAD SWAP2 DUP3 PUSH2 0x625 JUMP JUMPDEST DUP3 DUP2 MSTORE DUP1 SWAP3 PUSH2 0x1BCA PUSH1 0x1F NOT SWAP2 PUSH2 0x65D JUMP JUMPDEST ADD SWAP1 PUSH1 0x0 JUMPDEST DUP3 DUP2 LT PUSH2 0x1BDB JUMPI POP POP POP JUMP JUMPDEST PUSH1 0x20 SWAP1 PUSH2 0x1BE6 PUSH2 0x183F JUMP JUMPDEST DUP3 DUP3 DUP6 ADD ADD MSTORE ADD PUSH2 0x1BCF JUMP JUMPDEST ISZERO PUSH2 0x1BF9 JUMPI JUMP JUMPDEST PUSH1 0x40 MLOAD PUSH3 0x461BCD PUSH1 0xE5 SHL DUP2 MSTORE PUSH1 0x20 PUSH1 0x4 DUP3 ADD MSTORE PUSH1 0x15 PUSH1 0x24 DUP3 ADD MSTORE PUSH21 0x5469746C652063616E6E6F7420626520656D707479 PUSH1 0x58 SHL PUSH1 0x44 DUP3 ADD MSTORE PUSH1 0x64 SWAP1 REVERT JUMPDEST ISZERO PUSH2 0x1C3D JUMPI JUMP JUMPDEST PUSH1 0x40 MLOAD PUSH3 0x461BCD PUSH1 0xE5 SHL DUP2 MSTORE PUSH1 0x20 PUSH1 0x4 DUP3 ADD MSTORE PUSH1 0x1B PUSH1 0x24 DUP3 ADD MSTORE PUSH32 0x4465736372697074696F6E2063616E6E6F7420626520656D7074790000000000 PUSH1 0x44 DUP3 ADD MSTORE PUSH1 0x64 SWAP1 REVERT JUMPDEST ISZERO PUSH2 0x1C89 JUMPI JUMP JUMPDEST PUSH1 0x40 MLOAD PUSH3 0x461BCD PUSH1 0xE5 SHL DUP2 MSTORE PUSH1 0x20 PUSH1 0x4 DUP3 ADD MSTORE PUSH1 0x1A PUSH1 0x24 DUP3 ADD MSTORE PUSH32 0x496D61676520686173682063616E6E6F7420626520656D707479000000000000 PUSH1 0x44 DUP3 ADD MSTORE PUSH1 0x64 SWAP1 REVERT JUMPDEST ISZERO PUSH2 0x1CD5 JUMPI JUMP JUMPDEST PUSH1 0x40 MLOAD PUSH3 0x461BCD PUSH1 0xE5 SHL DUP2 MSTORE PUSH1 0x20 PUSH1 0x4 DUP3 ADD MSTORE PUSH1 0x14 PUSH1 0x24 DUP3 ADD MSTORE PUSH20 0x496E73756666696369656E742045544820666565 PUSH1 0x60 SHL PUSH1 0x44 DUP3 ADD MSTORE PUSH1 0x64 SWAP1 REVERT JUMPDEST DUP2 ISZERO PUSH2 0x1D1B JUMPI MOD SWAP1 JUMP JUMPDEST PUSH4 0x4E487B71 PUSH1 0xE0 SHL PUSH1 0x0 MSTORE PUSH1 0x12 PUSH1 0x4 MSTORE PUSH1 0x24 PUSH1 0x0 REVERT JUMPDEST PUSH1 0x40 MLOAD SWAP1 PUSH2 0x1D40 PUSH1 0x20 DUP4 PUSH2 0x625 JUMP JUMPDEST PUSH1 0x0 DUP3 MSTORE JUMP JUMPDEST RETURNDATASIZE ISZERO PUSH2 0x1D71 JUMPI RETURNDATASIZE SWAP1 PUSH2 0x1D57 DUP3 PUSH2 0x6D1 JUMP JUMPDEST SWAP2 PUSH2 0x1D65 PUSH1 0x40 MLOAD SWAP4 DUP5 PUSH2 0x625 JUMP JUMPDEST DUP3 MSTORE RETURNDATASIZE PUSH1 0x0 PUSH1 0x20 DUP5 ADD RETURNDATACOPY JUMP JUMPDEST PUSH1 0x60 SWAP1 JUMP JUMPDEST ISZERO PUSH2 0x1D7D JUMPI JUMP JUMPDEST PUSH1 0x40 MLOAD PUSH3 0x461BCD PUSH1 0xE5 SHL DUP2 MSTORE PUSH1 0x20 PUSH1 0x4 DUP3 ADD MSTORE PUSH1 0x11 PUSH1 0x24 DUP3 ADD MSTORE PUSH17 0x151BDAD95B881B5A5B9D0819985A5B1959 PUSH1 0x7A SHL PUSH1 0x44 DUP3 ADD MSTORE PUSH1 0x64 SWAP1 REVERT JUMPDEST ISZERO PUSH2 0x1DBD JUMPI JUMP JUMPDEST PUSH1 0x64 PUSH1 0x40 MLOAD PUSH3 0x461BCD PUSH1 0xE5 SHL DUP2 MSTORE PUSH1 0x20 PUSH1 0x4 DUP3 ADD MSTORE PUSH1 0x20 PUSH1 0x24 DUP3 ADD MSTORE PUSH32 0x446F206E6F742073656E6420455448207768656E207573696E6720746F6B656E PUSH1 0x44 DUP3 ADD MSTORE REVERT JUMPDEST SWAP1 DUP2 PUSH1 0x20 SWAP2 SUB SLT PUSH2 0x242 JUMPI MLOAD SWAP1 JUMP JUMPDEST ISZERO PUSH2 0x1E17 JUMPI JUMP JUMPDEST PUSH1 0x40 MLOAD PUSH3 0x461BCD PUSH1 0xE5 SHL DUP2 MSTORE PUSH1 0x20 PUSH1 0x4 DUP3 ADD MSTORE PUSH1 0x1C PUSH1 0x24 DUP3 ADD MSTORE PUSH32 0x496E73756666696369656E742063616D706169676E20746F6B656E7300000000 PUSH1 0x44 DUP3 ADD MSTORE PUSH1 0x64 SWAP1 REVERT JUMPDEST ISZERO PUSH2 0x1E63 JUMPI JUMP JUMPDEST PUSH1 0x40 MLOAD PUSH3 0x461BCD PUSH1 0xE5 SHL DUP2 MSTORE PUSH1 0x20 PUSH1 0x4 DUP3 ADD MSTORE PUSH1 0x11 PUSH1 0x24 DUP3 ADD MSTORE PUSH17 0x151BDAD95B88189D5C9B8819985A5B1959 PUSH1 0x7A SHL PUSH1 0x44 DUP3 ADD MSTORE PUSH1 0x64 SWAP1 REVERT JUMPDEST PUSH1 0x1F DUP3 GT PUSH2 0x1EA9 JUMPI POP POP POP JUMP JUMPDEST PUSH1 0x0 MSTORE PUSH1 0x20 PUSH1 0x0 KECCAK256 SWAP1 PUSH1 0x20 PUSH1 0x1F DUP5 ADD PUSH1 0x5 SHR DUP4 ADD SWAP4 LT PUSH2 0x1EE4 JUMPI JUMPDEST PUSH1 0x1F ADD PUSH1 0x5 SHR ADD SWAP1 JUMPDEST DUP2 DUP2 LT PUSH2 0x1ED8 JUMPI POP POP JUMP JUMPDEST PUSH1 0x0 DUP2 SSTORE PUSH1 0x1 ADD PUSH2 0x1ECD JUMP JUMPDEST SWAP1 SWAP2 POP DUP2 SWAP1 PUSH2 0x1EC4 JUMP JUMPDEST SWAP2 SWAP1 SWAP2 DUP3 MLOAD PUSH1 0x1 PUSH1 0x1 PUSH1 0x40 SHL SUB DUP2 GT PUSH2 0x646 JUMPI PUSH2 0x1F15 DUP2 PUSH2 0x1F0F DUP5 SLOAD PUSH2 0x80A JUMP JUMPDEST DUP5 PUSH2 0x1E9C JUMP JUMPDEST PUSH1 0x20 PUSH1 0x1F DUP3 GT PUSH1 0x1 EQ PUSH2 0x1F56 JUMPI DUP2 SWAP1 PUSH2 0x1F47 SWAP4 SWAP5 SWAP6 PUSH1 0x0 SWAP3 PUSH2 0x1F4B JUMPI JUMPDEST POP POP DUP2 PUSH1 0x1 SHL SWAP2 PUSH1 0x0 NOT SWAP1 PUSH1 0x3 SHL SHR NOT AND OR SWAP1 JUMP JUMPDEST SWAP1 SSTORE JUMP JUMPDEST ADD MLOAD SWAP1 POP CODESIZE DUP1 PUSH2 0x1F32 JUMP JUMPDEST PUSH1 0x1F NOT DUP3 AND SWAP1 PUSH2 0x1F6B DUP5 PUSH1 0x0 MSTORE PUSH1 0x20 PUSH1 0x0 KECCAK256 SWAP1 JUMP JUMPDEST SWAP2 PUSH1 0x0 JUMPDEST DUP2 DUP2 LT PUSH2 0x1FA7 JUMPI POP SWAP6 DUP4 PUSH1 0x1 SWAP6 SWAP7 SWAP8 LT PUSH2 0x1F8E JUMPI JUMPDEST POP POP POP DUP2 SHL ADD SWAP1 SSTORE JUMP JUMPDEST ADD MLOAD PUSH1 0x0 NOT PUSH1 0xF8 DUP5 PUSH1 0x3 SHL AND SHR NOT AND SWAP1 SSTORE CODESIZE DUP1 DUP1 PUSH2 0x1F84 JUMP JUMPDEST SWAP2 SWAP3 PUSH1 0x20 PUSH1 0x1 DUP2 SWAP3 DUP7 DUP12 ADD MLOAD DUP2 SSTORE ADD SWAP5 ADD SWAP3 ADD PUSH2 0x1F6F JUMP JUMPDEST SWAP1 PUSH2 0x100 PUSH1 0x8 SWAP2 DUP1 MLOAD DUP5 SSTORE PUSH2 0x1FDB PUSH1 0x20 DUP3 ADD MLOAD PUSH1 0x1 DUP7 ADD PUSH2 0x1EEE JUMP JUMPDEST PUSH2 0x1FEC PUSH1 0x40 DUP3 ADD MLOAD PUSH1 0x2 DUP7 ADD PUSH2 0x1EEE JUMP JUMPDEST PUSH2 0x1FFD PUSH1 0x60 DUP3 ADD MLOAD PUSH1 0x3 DUP7 ADD PUSH2 0x1EEE JUMP JUMPDEST PUSH1 0x80 DUP2 ADD MLOAD PUSH1 0x4 DUP6 ADD DUP1 SLOAD PUSH1 0x1 PUSH1 0x1 PUSH1 0xA0 SHL SUB NOT AND PUSH1 0x1 PUSH1 0x1 PUSH1 0xA0 SHL SUB SWAP1 SWAP3 AND SWAP2 SWAP1 SWAP2 OR SWAP1 SSTORE PUSH1 0xA0 DUP2 ADD MLOAD PUSH1 0x5 DUP6 ADD SSTORE PUSH1 0xC0 DUP2 ADD MLOAD PUSH1 0x6 DUP6 ADD SSTORE PUSH1 0xE0 DUP2 ADD MLOAD PUSH1 0x7 DUP6 ADD SSTORE ADD MLOAD SWAP2 ADD SSTORE JUMP JUMPDEST SWAP2 PUSH2 0x2073 SWAP1 PUSH2 0x2065 PUSH1 0x80 SWAP6 SWAP9 SWAP8 SWAP7 SWAP4 PUSH1 0xA0 DUP7 MSTORE PUSH1 0xA0 DUP7 ADD SWAP1 PUSH2 0x33E JUMP JUMPDEST SWAP1 DUP5 DUP3 SUB PUSH1 0x20 DUP7 ADD MSTORE PUSH2 0x33E JUMP JUMPDEST SWAP6 ISZERO ISZERO PUSH1 0x40 DUP4 ADD MSTORE PUSH1 0x60 DUP3 ADD MSTORE ADD MSTORE JUMP JUMPDEST ISZERO PUSH2 0x208B JUMPI JUMP JUMPDEST PUSH1 0x64 PUSH1 0x40 MLOAD PUSH3 0x461BCD PUSH1 0xE5 SHL DUP2 MSTORE PUSH1 0x20 PUSH1 0x4 DUP3 ADD MSTORE PUSH1 0x20 PUSH1 0x24 DUP3 ADD MSTORE PUSH32 0x43726561746F722063616E6E6F74207369676E206F776E207065746974696F6E PUSH1 0x44 DUP3 ADD MSTORE REVERT JUMPDEST ISZERO PUSH2 0x20D6 JUMPI JUMP JUMPDEST PUSH1 0x40 MLOAD PUSH3 0x461BCD PUSH1 0xE5 SHL DUP2 MSTORE PUSH1 0x20 PUSH1 0x4 DUP3 ADD MSTORE PUSH1 0xE PUSH1 0x24 DUP3 ADD MSTORE PUSH14 0x105B1C9958591E481CDA59DB9959 PUSH1 0x92 SHL PUSH1 0x44 DUP3 ADD MSTORE PUSH1 0x64 SWAP1 REVERT JUMPDEST PUSH1 0x0 SLOAD PUSH1 0x1 PUSH1 0x1 PUSH1 0xA0 SHL SUB AND CALLER SUB PUSH2 0x2120 JUMPI JUMP JUMPDEST PUSH4 0x118CDAA7 PUSH1 0xE0 SHL PUSH1 0x0 MSTORE CALLER PUSH1 0x4 MSTORE PUSH1 0x24 PUSH1 0x0 REVERT JUMPDEST PUSH1 0x2 PUSH1 0x4 SLOAD EQ PUSH2 0x2146 JUMPI PUSH1 0x2 PUSH1 0x4 SSTORE JUMP JUMPDEST PUSH4 0x3EE5AEB5 PUSH1 0xE0 SHL PUSH1 0x0 MSTORE PUSH1 0x4 PUSH1 0x0 REVERT JUMPDEST PUSH1 0x5 SLOAD PUSH1 0x40 MLOAD PUSH4 0x70A08231 PUSH1 0xE0 SHL DUP2 MSTORE PUSH1 0x1 PUSH1 0x1 PUSH1 0xA0 SHL SUB SWAP3 DUP4 AND PUSH1 0x4 DUP3 ADD MSTORE SWAP2 PUSH1 0x20 SWAP2 DUP4 SWAP2 PUSH1 0x24 SWAP2 DUP4 SWAP2 AND GAS STATICCALL SWAP1 DUP2 ISZERO PUSH2 0xA0C JUMPI PUSH1 0x0 SWAP2 PUSH2 0x219A JUMPI JUMPDEST POP ISZERO ISZERO SWAP1 JUMP JUMPDEST PUSH2 0x21B3 SWAP2 POP PUSH1 0x20 RETURNDATASIZE PUSH1 0x20 GT PUSH2 0x13AB JUMPI PUSH2 0x139D DUP2 DUP4 PUSH2 0x625 JUMP JUMPDEST CODESIZE PUSH2 0x2194 JUMP JUMPDEST PUSH1 0x1 PUSH1 0x1 PUSH1 0xA0 SHL SUB DUP2 AND SWAP3 SWAP2 DUP4 ISZERO PUSH2 0x170F JUMPI PUSH1 0x1 PUSH2 0x21F4 PUSH1 0x40 MLOAD SWAP3 PUSH1 0x1 DUP5 MSTORE PUSH1 0x20 DUP5 ADD MSTORE PUSH1 0x40 DUP4 ADD SWAP2 PUSH1 0x1 DUP4 MSTORE PUSH1 0x60 DUP5 ADD MSTORE PUSH1 0x80 DUP4 ADD PUSH1 0x40 MSTORE JUMP JUMPDEST SWAP3 DUP2 MLOAD DUP5 MLOAD SWAP1 DUP2 DUP2 SUB PUSH2 0x2305 JUMPI POP POP PUSH1 0x0 JUMPDEST DUP3 MLOAD DUP2 LT ISZERO PUSH2 0x224E JUMPI DUP1 PUSH1 0x1 SWAP2 PUSH1 0x5 SHL PUSH2 0x2246 PUSH2 0x223E DUP8 PUSH2 0x155D PUSH1 0x20 DUP1 DUP7 DUP12 ADD ADD MLOAD SWAP6 DUP13 ADD ADD MLOAD SWAP5 PUSH1 0x0 MSTORE PUSH1 0x1 PUSH1 0x20 MSTORE PUSH1 0x40 PUSH1 0x0 KECCAK256 SWAP1 JUMP JUMPDEST SWAP2 DUP3 SLOAD PUSH2 0x1B86 JUMP JUMPDEST SWAP1 SSTORE ADD PUSH2 0x2206 JUMP JUMPDEST POP SWAP3 SWAP2 SWAP4 PUSH1 0x1 DUP3 MLOAD EQ PUSH1 0x0 EQ PUSH2 0x22C9 JUMPI PUSH1 0x20 DUP3 DUP2 ADD MLOAD DUP5 DUP3 ADD MLOAD PUSH1 0x40 DUP1 MLOAD SWAP3 DUP4 MSTORE SWAP3 DUP3 ADD MSTORE PUSH1 0x0 SWAP2 CALLER SWAP2 PUSH32 0xC3D58168C5AE7397731D063D5BBF3D657854427343F4C083240F7AACAA2D0F62 SWAP2 SWAP1 LOG4 JUMPDEST DUP1 MLOAD PUSH1 0x1 SUB PUSH2 0x22BD JUMPI SWAP1 PUSH1 0x20 DUP1 PUSH2 0x65B SWAP6 SWAP4 ADD MLOAD SWAP2 ADD MLOAD SWAP2 PUSH1 0x0 CALLER PUSH2 0x26BF JUMP JUMPDEST PUSH2 0x65B SWAP4 PUSH1 0x0 CALLER PUSH2 0x258A JUMP JUMPDEST PUSH1 0x0 PUSH1 0x40 MLOAD PUSH32 0x4A39DC06D4C0DBC64B70AF90FD698A233A518AA5D07E595D983B8C0526C8F7FB CALLER SWAP2 DUP1 PUSH2 0x22FD DUP9 DUP9 DUP4 PUSH2 0x24FD JUMP JUMPDEST SUB SWAP1 LOG4 PUSH2 0x229D JUMP JUMPDEST PUSH4 0x5B059991 PUSH1 0xE0 SHL PUSH1 0x0 MSTORE PUSH1 0x4 MSTORE PUSH1 0x24 MSTORE PUSH1 0x44 PUSH1 0x0 REVERT JUMPDEST SWAP5 SWAP4 SWAP3 SWAP1 SWAP2 SWAP4 DUP5 MLOAD DUP3 MLOAD SWAP1 DUP2 DUP2 SUB PUSH2 0x2305 JUMPI POP POP PUSH1 0x1 PUSH1 0x1 PUSH1 0xA0 SHL SUB DUP7 DUP2 AND SWAP6 DUP7 ISZERO ISZERO SWAP6 SWAP2 DUP6 AND DUP1 ISZERO ISZERO SWAP4 SWAP2 SWAP3 SWAP1 PUSH1 0x0 JUMPDEST DUP5 MLOAD DUP2 LT ISZERO PUSH2 0x242F JUMPI DUP1 PUSH1 0x5 SHL SWAP1 DUP10 DUP10 DUP9 PUSH1 0x20 DUP1 DUP7 DUP12 ADD ADD MLOAD SWAP6 DUP13 ADD ADD MLOAD SWAP3 PUSH2 0x23A8 JUMPI JUMPDEST SWAP4 PUSH1 0x1 SWAP5 PUSH2 0x2383 JUMPI JUMPDEST POP POP POP ADD PUSH2 0x234D JUMP JUMPDEST PUSH2 0x239E SWAP2 PUSH2 0x155D PUSH2 0x223E SWAP3 PUSH1 0x0 MSTORE PUSH1 0x1 PUSH1 0x20 MSTORE PUSH1 0x40 PUSH1 0x0 KECCAK256 SWAP1 JUMP JUMPDEST SWAP1 SSTORE CODESIZE DUP10 DUP2 PUSH2 0x237A JUMP JUMPDEST POP POP SWAP1 SWAP2 PUSH2 0x23C4 DUP14 PUSH2 0x155D DUP4 PUSH1 0x0 MSTORE PUSH1 0x1 PUSH1 0x20 MSTORE PUSH1 0x40 PUSH1 0x0 KECCAK256 SWAP1 JUMP JUMPDEST SLOAD DUP3 DUP2 LT PUSH2 0x23F8 JUMPI DUP3 SWAP2 DUP10 DUP16 PUSH2 0x23EF PUSH1 0x1 SWAP8 SWAP7 DUP16 SWAP6 SUB SWAP2 PUSH2 0x155D DUP6 PUSH1 0x0 MSTORE PUSH1 0x1 PUSH1 0x20 MSTORE PUSH1 0x40 PUSH1 0x0 KECCAK256 SWAP1 JUMP JUMPDEST SSTORE SWAP1 SWAP5 POP PUSH2 0x2371 JUMP JUMPDEST PUSH1 0x40 MLOAD PUSH4 0x3DEE4C5 PUSH1 0xE0 SHL DUP2 MSTORE PUSH1 0x1 PUSH1 0x1 PUSH1 0xA0 SHL SUB DUP16 AND PUSH1 0x4 DUP3 ADD MSTORE PUSH1 0x24 DUP2 ADD SWAP2 SWAP1 SWAP2 MSTORE PUSH1 0x44 DUP2 ADD DUP4 SWAP1 MSTORE PUSH1 0x64 DUP2 ADD DUP3 SWAP1 MSTORE PUSH1 0x84 SWAP1 REVERT JUMPDEST POP SWAP2 SWAP9 SWAP6 SWAP4 SWAP3 SWAP8 SWAP1 SWAP7 POP PUSH1 0x1 DUP9 MLOAD EQ PUSH1 0x0 EQ PUSH2 0x24C3 JUMPI PUSH1 0x20 DUP9 DUP2 ADD MLOAD DUP7 DUP3 ADD MLOAD PUSH1 0x40 DUP1 MLOAD SWAP3 DUP4 MSTORE SWAP3 DUP3 ADD MSTORE CALLER SWAP2 PUSH32 0xC3D58168C5AE7397731D063D5BBF3D657854427343F4C083240F7AACAA2D0F62 SWAP2 LOG4 JUMPDEST PUSH2 0x248C JUMPI JUMPDEST POP POP POP POP POP JUMP JUMPDEST DUP5 MLOAD PUSH1 0x1 SUB PUSH2 0x24B2 JUMPI PUSH1 0x20 DUP1 PUSH2 0x24A8 SWAP7 ADD MLOAD SWAP3 ADD MLOAD SWAP3 CALLER PUSH2 0x26BF JUMP JUMPDEST CODESIZE DUP1 DUP1 DUP1 DUP1 PUSH2 0x2485 JUMP JUMPDEST PUSH2 0x24BE SWAP5 SWAP2 SWAP3 CALLER PUSH2 0x258A JUMP JUMPDEST PUSH2 0x24A8 JUMP JUMPDEST PUSH1 0x40 MLOAD PUSH32 0x4A39DC06D4C0DBC64B70AF90FD698A233A518AA5D07E595D983B8C0526C8F7FB CALLER SWAP2 DUP1 PUSH2 0x24F5 DUP10 DUP14 DUP4 PUSH2 0x24FD JUMP JUMPDEST SUB SWAP1 LOG4 PUSH2 0x2480 JUMP JUMPDEST SWAP1 SWAP2 PUSH2 0x2514 PUSH2 0x418 SWAP4 PUSH1 0x40 DUP5 MSTORE PUSH1 0x40 DUP5 ADD SWAP1 PUSH2 0xA4F JUMP JUMPDEST SWAP2 PUSH1 0x20 DUP2 DUP5 SUB SWAP2 ADD MSTORE PUSH2 0xA4F JUMP JUMPDEST SWAP1 DUP2 PUSH1 0x20 SWAP2 SUB SLT PUSH2 0x242 JUMPI MLOAD PUSH2 0x418 DUP2 PUSH2 0x2BE JUMP JUMPDEST PUSH1 0x1 PUSH1 0x1 PUSH1 0xA0 SHL SUB SWAP2 DUP3 AND DUP2 MSTORE SWAP2 AND PUSH1 0x20 DUP3 ADD MSTORE PUSH1 0xA0 PUSH1 0x40 DUP3 ADD DUP2 SWAP1 MSTORE PUSH2 0x418 SWAP5 SWAP2 SWAP4 SWAP2 SWAP3 PUSH2 0x257C SWAP3 SWAP2 PUSH2 0x256E SWAP2 SWAP1 DUP7 ADD SWAP1 PUSH2 0xA4F JUMP JUMPDEST SWAP1 DUP5 DUP3 SUB PUSH1 0x60 DUP7 ADD MSTORE PUSH2 0xA4F JUMP JUMPDEST SWAP2 PUSH1 0x80 DUP2 DUP5 SUB SWAP2 ADD MSTORE PUSH2 0x33E JUMP JUMPDEST SWAP1 SWAP2 SWAP5 SWAP3 SWAP4 DUP6 EXTCODESIZE PUSH2 0x259E JUMPI JUMPDEST POP POP POP POP POP POP JUMP JUMPDEST PUSH1 0x20 SWAP4 PUSH2 0x25C0 SWAP2 PUSH1 0x40 MLOAD SWAP7 DUP8 SWAP6 DUP7 SWAP6 PUSH4 0xBC197C81 PUSH1 0xE0 SHL DUP8 MSTORE PUSH1 0x4 DUP8 ADD PUSH2 0x2537 JUMP JUMPDEST SUB DUP2 PUSH1 0x0 PUSH1 0x1 PUSH1 0x1 PUSH1 0xA0 SHL SUB DUP8 AND GAS CALL PUSH1 0x0 SWAP2 DUP2 PUSH2 0x2655 JUMPI JUMPDEST POP PUSH2 0x2615 JUMPI POP PUSH2 0x25E7 PUSH2 0x1D46 JUMP JUMPDEST DUP1 MLOAD SWAP2 SWAP1 DUP3 PUSH2 0x260E JUMPI PUSH4 0x2BFA23E7 PUSH1 0xE1 SHL PUSH1 0x0 MSTORE PUSH1 0x1 PUSH1 0x1 PUSH1 0xA0 SHL SUB DUP3 AND PUSH1 0x4 MSTORE PUSH1 0x24 PUSH1 0x0 REVERT JUMPDEST PUSH1 0x20 SWAP2 POP ADD REVERT JUMPDEST PUSH1 0x1 PUSH1 0x1 PUSH1 0xE0 SHL SUB NOT AND PUSH4 0x43E6837F PUSH1 0xE0 SHL ADD PUSH2 0x2638 JUMPI POP CODESIZE DUP1 DUP1 DUP1 DUP1 DUP1 PUSH2 0x2596 JUMP JUMPDEST PUSH4 0x2BFA23E7 PUSH1 0xE1 SHL PUSH1 0x0 MSTORE PUSH1 0x1 PUSH1 0x1 PUSH1 0xA0 SHL SUB AND PUSH1 0x4 MSTORE PUSH1 0x24 PUSH1 0x0 REVERT JUMPDEST PUSH2 0x2678 SWAP2 SWAP3 POP PUSH1 0x20 RETURNDATASIZE PUSH1 0x20 GT PUSH2 0x267F JUMPI JUMPDEST PUSH2 0x2670 DUP2 DUP4 PUSH2 0x625 JUMP JUMPDEST DUP2 ADD SWAP1 PUSH2 0x2522 JUMP JUMPDEST SWAP1 CODESIZE PUSH2 0x25D9 JUMP JUMPDEST POP RETURNDATASIZE PUSH2 0x2666 JUMP JUMPDEST PUSH1 0x1 PUSH1 0x1 PUSH1 0xA0 SHL SUB SWAP2 DUP3 AND DUP2 MSTORE SWAP2 AND PUSH1 0x20 DUP3 ADD MSTORE PUSH1 0x40 DUP2 ADD SWAP2 SWAP1 SWAP2 MSTORE PUSH1 0x60 DUP2 ADD SWAP2 SWAP1 SWAP2 MSTORE PUSH1 0xA0 PUSH1 0x80 DUP3 ADD DUP2 SWAP1 MSTORE PUSH2 0x418 SWAP3 SWAP2 ADD SWAP1 PUSH2 0x33E JUMP JUMPDEST SWAP1 SWAP2 SWAP5 SWAP3 SWAP4 DUP6 EXTCODESIZE PUSH2 0x26D2 JUMPI POP POP POP POP POP POP JUMP JUMPDEST PUSH1 0x20 SWAP4 PUSH2 0x26F4 SWAP2 PUSH1 0x40 MLOAD SWAP7 DUP8 SWAP6 DUP7 SWAP6 PUSH4 0xF23A6E61 PUSH1 0xE0 SHL DUP8 MSTORE PUSH1 0x4 DUP8 ADD PUSH2 0x2686 JUMP JUMPDEST SUB DUP2 PUSH1 0x0 PUSH1 0x1 PUSH1 0x1 PUSH1 0xA0 SHL SUB DUP8 AND GAS CALL PUSH1 0x0 SWAP2 DUP2 PUSH2 0x273E JUMPI JUMPDEST POP PUSH2 0x271B JUMPI POP PUSH2 0x25E7 PUSH2 0x1D46 JUMP JUMPDEST PUSH1 0x1 PUSH1 0x1 PUSH1 0xE0 SHL SUB NOT AND PUSH4 0xDC5919F PUSH1 0xE0 SHL ADD PUSH2 0x2638 JUMPI POP CODESIZE DUP1 DUP1 DUP1 DUP1 DUP1 PUSH2 0x2596 JUMP JUMPDEST PUSH2 0x2758 SWAP2 SWAP3 POP PUSH1 0x20 RETURNDATASIZE PUSH1 0x20 GT PUSH2 0x267F JUMPI PUSH2 0x2670 DUP2 DUP4 PUSH2 0x625 JUMP JUMPDEST SWAP1 CODESIZE PUSH2 0x270D JUMP INVALID LOG2 PUSH5 0x6970667358 0x22 SLT KECCAK256 0xF6 0xC RETURNDATASIZE PUSH24 0x80466067358E1A630CB81010CE2AF5844DEA227D922FCC2C SWAP5 DUPN 0x83 EXTSTATICCALL PUSH5 0x736F6C6343 STOP ADDMOD 0x1E STOP CALLER "},"methodIdentifiers":{"balanceOf(address,uint256)":"00fdd58e","balanceOfBatch(address[],uint256[])":"4e1273f4","baseCampaignFee()":"cd3106ae","boostPetition(uint256)":"7181b6a6","boostingFee()":"4ec6f625","campaignToken()":"9089c4a5","createPetition(string,string,string,bool)":"c3c27811","getActiveBoostedPetitions()":"8b9b397f","getAllPetitions()":"9a37c01e","getPetition(uint256)":"0c90ce42","getPricingInfo()":"374f6d5d","getTotalPetitions()":"72fa1301","getUserPaidPetitionCount(address)":"6b4acbe0","hasSigned(uint256,address)":"709df8d9","hasUserSigned(uint256,address)":"eb74d835","isApprovedForAll(address,address)":"e985e9c5","isPetitionBoosted(uint256)":"12c2caf0","owner()":"8da5cb5b","paidPetitionCount(address)":"f99972ef","petitionCounter()":"2fb33528","petitions(uint256)":"3ad50ded","renounceOwnership()":"715018a6","rewardThreshold()":"5ea4d29c","safeBatchTransferFrom(address,address,uint256[],uint256[],bytes)":"2eb2c2d6","safeTransferFrom(address,address,uint256,uint256,bytes)":"f242432a","setApprovalForAll(address,bool)":"a22cb465","setPricingConfig(uint256,uint256)":"71882c20","setRewardThreshold(uint256)":"68bdd33a","signPetition(uint256)":"dcad0180","soulboundMember()":"fe16b7f8","supportsInterface(bytes4)":"01ffc9a7","transferOwnership(address)":"f2fde38b","uri(uint256)":"0e89341c","withdraw()":"3ccfd60b"}}}}}