{
	"contracts/PetitionPlatform.sol": {
		"PetitionPlatform": {
			"abi": [
				{
					"inputs": [
						{
							"internalType": "address",
							"name": "_daoMembership",
							"type": "address"
						},
						{
							"internalType": "address",
							"name": "_campaignToken",
							"type": "address"
						}
					],
					"stateMutability": "nonpayable",
					"type": "constructor"
				},
				{
					"inputs": [
						{
							"internalType": "address",
							"name": "owner",
							"type": "address"
						}
					],
					"name": "OwnableInvalidOwner",
					"type": "error"
				},
				{
					"inputs": [
						{
							"internalType": "address",
							"name": "account",
							"type": "address"
						}
					],
					"name": "OwnableUnauthorizedAccount",
					"type": "error"
				},
				{
					"inputs": [],
					"name": "ReentrancyGuardReentrantCall",
					"type": "error"
				},
				{
					"anonymous": false,
					"inputs": [
						{
							"indexed": true,
							"internalType": "address",
							"name": "previousOwner",
							"type": "address"
						},
						{
							"indexed": true,
							"internalType": "address",
							"name": "newOwner",
							"type": "address"
						}
					],
					"name": "OwnershipTransferred",
					"type": "event"
				},
				{
					"anonymous": false,
					"inputs": [
						{
							"indexed": true,
							"internalType": "uint256",
							"name": "petitionId",
							"type": "uint256"
						}
					],
					"name": "PetitionClosed",
					"type": "event"
				},
				{
					"anonymous": false,
					"inputs": [
						{
							"indexed": true,
							"internalType": "uint256",
							"name": "petitionId",
							"type": "uint256"
						},
						{
							"indexed": true,
							"internalType": "address",
							"name": "creator",
							"type": "address"
						},
						{
							"indexed": false,
							"internalType": "string",
							"name": "title",
							"type": "string"
						},
						{
							"indexed": false,
							"internalType": "uint256",
							"name": "deadline",
							"type": "uint256"
						},
						{
							"indexed": false,
							"internalType": "bool",
							"name": "usedToken",
							"type": "bool"
						}
					],
					"name": "PetitionCreated",
					"type": "event"
				},
				{
					"anonymous": false,
					"inputs": [
						{
							"indexed": true,
							"internalType": "uint256",
							"name": "petitionId",
							"type": "uint256"
						},
						{
							"indexed": true,
							"internalType": "address",
							"name": "signer",
							"type": "address"
						},
						{
							"indexed": false,
							"internalType": "uint256",
							"name": "newSignatureCount",
							"type": "uint256"
						}
					],
					"name": "PetitionSigned",
					"type": "event"
				},
				{
					"anonymous": false,
					"inputs": [
						{
							"indexed": true,
							"internalType": "address",
							"name": "creator",
							"type": "address"
						},
						{
							"indexed": false,
							"internalType": "uint256",
							"name": "amount",
							"type": "uint256"
						}
					],
					"name": "RewardTokenMinted",
					"type": "event"
				},
				{
					"inputs": [],
					"name": "campaignFee",
					"outputs": [
						{
							"internalType": "uint256",
							"name": "",
							"type": "uint256"
						}
					],
					"stateMutability": "view",
					"type": "function"
				},
				{
					"inputs": [],
					"name": "campaignToken",
					"outputs": [
						{
							"internalType": "address",
							"name": "",
							"type": "address"
						}
					],
					"stateMutability": "view",
					"type": "function"
				},
				{
					"inputs": [
						{
							"internalType": "uint256",
							"name": "_petitionId",
							"type": "uint256"
						}
					],
					"name": "closePetition",
					"outputs": [],
					"stateMutability": "nonpayable",
					"type": "function"
				},
				{
					"inputs": [
						{
							"internalType": "string",
							"name": "_title",
							"type": "string"
						},
						{
							"internalType": "string",
							"name": "_description",
							"type": "string"
						},
						{
							"internalType": "uint256",
							"name": "_durationInDays",
							"type": "uint256"
						}
					],
					"name": "createPetition",
					"outputs": [],
					"stateMutability": "payable",
					"type": "function"
				},
				{
					"inputs": [],
					"name": "daoMembership",
					"outputs": [
						{
							"internalType": "address",
							"name": "",
							"type": "address"
						}
					],
					"stateMutability": "view",
					"type": "function"
				},
				{
					"inputs": [
						{
							"internalType": "uint256",
							"name": "_petitionId",
							"type": "uint256"
						}
					],
					"name": "getPetition",
					"outputs": [
						{
							"components": [
								{
									"internalType": "uint256",
									"name": "id",
									"type": "uint256"
								},
								{
									"internalType": "string",
									"name": "title",
									"type": "string"
								},
								{
									"internalType": "string",
									"name": "description",
									"type": "string"
								},
								{
									"internalType": "address",
									"name": "creator",
									"type": "address"
								},
								{
									"internalType": "uint256",
									"name": "createdAt",
									"type": "uint256"
								},
								{
									"internalType": "uint256",
									"name": "deadline",
									"type": "uint256"
								},
								{
									"internalType": "uint256",
									"name": "signatureCount",
									"type": "uint256"
								},
								{
									"internalType": "bool",
									"name": "isActive",
									"type": "bool"
								}
							],
							"internalType": "struct PetitionPlatform.Petition",
							"name": "",
							"type": "tuple"
						}
					],
					"stateMutability": "view",
					"type": "function"
				},
				{
					"inputs": [],
					"name": "getTotalPetitions",
					"outputs": [
						{
							"internalType": "uint256",
							"name": "",
							"type": "uint256"
						}
					],
					"stateMutability": "view",
					"type": "function"
				},
				{
					"inputs": [
						{
							"internalType": "address",
							"name": "_user",
							"type": "address"
						}
					],
					"name": "getUserPaidPetitionCount",
					"outputs": [
						{
							"internalType": "uint256",
							"name": "",
							"type": "uint256"
						}
					],
					"stateMutability": "view",
					"type": "function"
				},
				{
					"inputs": [
						{
							"internalType": "uint256",
							"name": "",
							"type": "uint256"
						},
						{
							"internalType": "address",
							"name": "",
							"type": "address"
						}
					],
					"name": "hasSigned",
					"outputs": [
						{
							"internalType": "bool",
							"name": "",
							"type": "bool"
						}
					],
					"stateMutability": "view",
					"type": "function"
				},
				{
					"inputs": [
						{
							"internalType": "uint256",
							"name": "_petitionId",
							"type": "uint256"
						},
						{
							"internalType": "address",
							"name": "_user",
							"type": "address"
						}
					],
					"name": "hasUserSigned",
					"outputs": [
						{
							"internalType": "bool",
							"name": "",
							"type": "bool"
						}
					],
					"stateMutability": "view",
					"type": "function"
				},
				{
					"inputs": [],
					"name": "owner",
					"outputs": [
						{
							"internalType": "address",
							"name": "",
							"type": "address"
						}
					],
					"stateMutability": "view",
					"type": "function"
				},
				{
					"inputs": [
						{
							"internalType": "address",
							"name": "",
							"type": "address"
						}
					],
					"name": "paidPetitionCount",
					"outputs": [
						{
							"internalType": "uint256",
							"name": "",
							"type": "uint256"
						}
					],
					"stateMutability": "view",
					"type": "function"
				},
				{
					"inputs": [],
					"name": "petitionCounter",
					"outputs": [
						{
							"internalType": "uint256",
							"name": "",
							"type": "uint256"
						}
					],
					"stateMutability": "view",
					"type": "function"
				},
				{
					"inputs": [
						{
							"internalType": "uint256",
							"name": "",
							"type": "uint256"
						}
					],
					"name": "petitions",
					"outputs": [
						{
							"internalType": "uint256",
							"name": "id",
							"type": "uint256"
						},
						{
							"internalType": "string",
							"name": "title",
							"type": "string"
						},
						{
							"internalType": "string",
							"name": "description",
							"type": "string"
						},
						{
							"internalType": "address",
							"name": "creator",
							"type": "address"
						},
						{
							"internalType": "uint256",
							"name": "createdAt",
							"type": "uint256"
						},
						{
							"internalType": "uint256",
							"name": "deadline",
							"type": "uint256"
						},
						{
							"internalType": "uint256",
							"name": "signatureCount",
							"type": "uint256"
						},
						{
							"internalType": "bool",
							"name": "isActive",
							"type": "bool"
						}
					],
					"stateMutability": "view",
					"type": "function"
				},
				{
					"inputs": [],
					"name": "renounceOwnership",
					"outputs": [],
					"stateMutability": "nonpayable",
					"type": "function"
				},
				{
					"inputs": [],
					"name": "rewardThreshold",
					"outputs": [
						{
							"internalType": "uint256",
							"name": "",
							"type": "uint256"
						}
					],
					"stateMutability": "view",
					"type": "function"
				},
				{
					"inputs": [
						{
							"internalType": "uint256",
							"name": "_fee",
							"type": "uint256"
						}
					],
					"name": "setCampaignFee",
					"outputs": [],
					"stateMutability": "nonpayable",
					"type": "function"
				},
				{
					"inputs": [
						{
							"internalType": "uint256",
							"name": "_threshold",
							"type": "uint256"
						}
					],
					"name": "setRewardThreshold",
					"outputs": [],
					"stateMutability": "nonpayable",
					"type": "function"
				},
				{
					"inputs": [
						{
							"internalType": "uint256",
							"name": "_petitionId",
							"type": "uint256"
						}
					],
					"name": "signPetition",
					"outputs": [],
					"stateMutability": "nonpayable",
					"type": "function"
				},
				{
					"inputs": [
						{
							"internalType": "address",
							"name": "newOwner",
							"type": "address"
						}
					],
					"name": "transferOwnership",
					"outputs": [],
					"stateMutability": "nonpayable",
					"type": "function"
				},
				{
					"inputs": [],
					"name": "withdraw",
					"outputs": [],
					"stateMutability": "nonpayable",
					"type": "function"
				}
			],
			"devdoc": {
				"details": "Core logic untuk petition voting platform - Hanya DAO member yang bisa buat petition - Petition bisa dibuat dengan Campaign Token atau bayar ETH - Siapa saja bisa sign petition (1 wallet = 1 signature) - Setiap 5 petition berbayar, creator dapat 1 Campaign Token reward",
				"errors": {
					"OwnableInvalidOwner(address)": [
						{
							"details": "The owner is not a valid owner account. (eg. `address(0)`)"
						}
					],
					"OwnableUnauthorizedAccount(address)": [
						{
							"details": "The caller account is not authorized to perform an operation."
						}
					],
					"ReentrancyGuardReentrantCall()": [
						{
							"details": "Unauthorized reentrant call."
						}
					]
				},
				"kind": "dev",
				"methods": {
					"closePetition(uint256)": {
						"details": "Tutup petition sebelum deadline Hanya creator atau owner yang bisa close"
					},
					"createPetition(string,string,uint256)": {
						"details": "Buat petition baru",
						"params": {
							"_description": "Deskripsi petition",
							"_durationInDays": "Durasi petition dalam hari  User bisa pakai Campaign Token (gratis) atau bayar dengan ETH Setiap 5 petition berbayar, user dapat 1 Campaign Token reward",
							"_title": "Judul petition"
						}
					},
					"getPetition(uint256)": {
						"details": "Get detail petition"
					},
					"getTotalPetitions()": {
						"details": "Get total petition yang ada"
					},
					"getUserPaidPetitionCount(address)": {
						"details": "Get jumlah petition berbayar yang sudah dibuat user"
					},
					"hasUserSigned(uint256,address)": {
						"details": "Check apakah user sudah sign petition tertentu"
					},
					"owner()": {
						"details": "Returns the address of the current owner."
					},
					"renounceOwnership()": {
						"details": "Leaves the contract without owner. It will not be possible to call `onlyOwner` functions. Can only be called by the current owner. NOTE: Renouncing ownership will leave the contract without an owner, thereby disabling any functionality that is only available to the owner."
					},
					"setCampaignFee(uint256)": {
						"details": "Update campaign fee (owner only)"
					},
					"setRewardThreshold(uint256)": {
						"details": "Update reward threshold (owner only)"
					},
					"signPetition(uint256)": {
						"details": "Sign petition (tanda tangan) Gratis dan siapa saja bisa sign 1 wallet hanya bisa sign 1x per petition"
					},
					"transferOwnership(address)": {
						"details": "Transfers ownership of the contract to a new account (`newOwner`). Can only be called by the current owner."
					},
					"withdraw()": {
						"details": "Withdraw ETH dari contract ke owner"
					}
				},
				"title": "PetitionPlatform",
				"version": 1
			},
			"evm": {
				"assembly": "    /* \"contracts/PetitionPlatform.sol\":629:7883  contract PetitionPlatform is Ownable, ReentrancyGuard {... */\n  mstore(0x40, 0x80)\n    /* \"contracts/PetitionPlatform.sol\":1079:1089  0.01 ether */\n  0x2386f26fc10000\n    /* \"contracts/PetitionPlatform.sol\":1050:1089  uint256 public campaignFee = 0.01 ether */\n  0x05\n  sstore\n    /* \"contracts/PetitionPlatform.sol\":1129:1130  5 */\n  0x05\n    /* \"contracts/PetitionPlatform.sol\":1096:1130  uint256 public rewardThreshold = 5 */\n  0x06\n  sstore\n    /* \"contracts/PetitionPlatform.sol\":1799:2123  constructor(address _daoMembership, address _campaignToken) Ownable(msg.sender) {... */\n  callvalue\n  dup1\n  iszero\n  tag_1\n  jumpi\n  revert(0x00, 0x00)\ntag_1:\n  pop\n  mload(0x40)\n  sub(codesize, bytecodeSize)\n  dup1\n  bytecodeSize\n  dup4\n  codecopy\n  dup2\n  dup2\n  add\n  0x40\n  mstore\n  dup2\n  add\n  swap1\n  tag_2\n  swap2\n  swap1\n  tag_3\n  jump\t// in\ntag_2:\n    /* \"contracts/PetitionPlatform.sol\":1867:1877  msg.sender */\n  caller\n    /* \"@openzeppelin/contracts/access/Ownable.sol\":1297:1298  0 */\n  0x00\n    /* \"@openzeppelin/contracts/access/Ownable.sol\":1273:1299  initialOwner == address(0) */\n  0xffffffffffffffffffffffffffffffffffffffff\n  and\n    /* \"@openzeppelin/contracts/access/Ownable.sol\":1273:1285  initialOwner */\n  dup2\n    /* \"@openzeppelin/contracts/access/Ownable.sol\":1273:1299  initialOwner == address(0) */\n  0xffffffffffffffffffffffffffffffffffffffff\n  and\n  sub\n    /* \"@openzeppelin/contracts/access/Ownable.sol\":1269:1364  if (initialOwner == address(0)) {... */\n  tag_8\n  jumpi\n    /* \"@openzeppelin/contracts/access/Ownable.sol\":1350:1351  0 */\n  0x00\n    /* \"@openzeppelin/contracts/access/Ownable.sol\":1322:1353  OwnableInvalidOwner(address(0)) */\n  mload(0x40)\n  0x1e4fbdf700000000000000000000000000000000000000000000000000000000\n  dup2\n  mstore\n  0x04\n  add\n  tag_9\n  swap2\n  swap1\n  tag_10\n  jump\t// in\ntag_9:\n  mload(0x40)\n  dup1\n  swap2\n  sub\n  swap1\n  revert\n    /* \"@openzeppelin/contracts/access/Ownable.sol\":1269:1364  if (initialOwner == address(0)) {... */\ntag_8:\n    /* \"@openzeppelin/contracts/access/Ownable.sol\":1373:1405  _transferOwnership(initialOwner) */\n  tag_11\n    /* \"@openzeppelin/contracts/access/Ownable.sol\":1392:1404  initialOwner */\n  dup2\n    /* \"@openzeppelin/contracts/access/Ownable.sol\":1373:1391  _transferOwnership */\n  shl(0x20, tag_12)\n    /* \"@openzeppelin/contracts/access/Ownable.sol\":1373:1405  _transferOwnership(initialOwner) */\n  0x20\n  shr\n  jump\t// in\ntag_11:\n    /* \"@openzeppelin/contracts/access/Ownable.sol\":1225:1412  constructor(address initialOwner) {... */\n  pop\n    /* \"@openzeppelin/contracts/utils/ReentrancyGuard.sol\":1857:1858  1 */\n  0x01\n    /* \"@openzeppelin/contracts/utils/ReentrancyGuard.sol\":2061:2068  _status */\n  dup1\n    /* \"@openzeppelin/contracts/utils/ReentrancyGuard.sol\":2061:2082  _status = NOT_ENTERED */\n  dup2\n  swap1\n  sstore\n  pop\n    /* \"contracts/PetitionPlatform.sol\":1924:1925  0 */\n  0x00\n    /* \"contracts/PetitionPlatform.sol\":1898:1926  _daoMembership != address(0) */\n  0xffffffffffffffffffffffffffffffffffffffff\n  and\n    /* \"contracts/PetitionPlatform.sol\":1898:1912  _daoMembership */\n  dup3\n    /* \"contracts/PetitionPlatform.sol\":1898:1926  _daoMembership != address(0) */\n  0xffffffffffffffffffffffffffffffffffffffff\n  and\n  sub\n    /* \"contracts/PetitionPlatform.sol\":1890:1950  require(_daoMembership != address(0), \"Invalid DAO address\") */\n  tag_15\n  jumpi\n  mload(0x40)\n  0x08c379a000000000000000000000000000000000000000000000000000000000\n  dup2\n  mstore\n  0x04\n  add\n  tag_16\n  swap1\n  tag_17\n  jump\t// in\ntag_16:\n  mload(0x40)\n  dup1\n  swap2\n  sub\n  swap1\n  revert\ntag_15:\n    /* \"contracts/PetitionPlatform.sol\":1995:1996  0 */\n  0x00\n    /* \"contracts/PetitionPlatform.sol\":1969:1997  _campaignToken != address(0) */\n  0xffffffffffffffffffffffffffffffffffffffff\n  and\n    /* \"contracts/PetitionPlatform.sol\":1969:1983  _campaignToken */\n  dup2\n    /* \"contracts/PetitionPlatform.sol\":1969:1997  _campaignToken != address(0) */\n  0xffffffffffffffffffffffffffffffffffffffff\n  and\n  sub\n    /* \"contracts/PetitionPlatform.sol\":1961:2023  require(_campaignToken != address(0), \"Invalid token address\") */\n  tag_18\n  jumpi\n  mload(0x40)\n  0x08c379a000000000000000000000000000000000000000000000000000000000\n  dup2\n  mstore\n  0x04\n  add\n  tag_19\n  swap1\n  tag_20\n  jump\t// in\ntag_19:\n  mload(0x40)\n  dup1\n  swap2\n  sub\n  swap1\n  revert\ntag_18:\n    /* \"contracts/PetitionPlatform.sol\":2060:2074  _daoMembership */\n  dup2\n    /* \"contracts/PetitionPlatform.sol\":2044:2057  daoMembership */\n  0x02\n  0x00\n    /* \"contracts/PetitionPlatform.sol\":2044:2074  daoMembership = _daoMembership */\n  0x0100\n  exp\n  dup2\n  sload\n  dup2\n  0xffffffffffffffffffffffffffffffffffffffff\n  mul\n  not\n  and\n  swap1\n  dup4\n  0xffffffffffffffffffffffffffffffffffffffff\n  and\n  mul\n  or\n  swap1\n  sstore\n  pop\n    /* \"contracts/PetitionPlatform.sol\":2101:2115  _campaignToken */\n  dup1\n    /* \"contracts/PetitionPlatform.sol\":2085:2098  campaignToken */\n  0x03\n  0x00\n    /* \"contracts/PetitionPlatform.sol\":2085:2115  campaignToken = _campaignToken */\n  0x0100\n  exp\n  dup2\n  sload\n  dup2\n  0xffffffffffffffffffffffffffffffffffffffff\n  mul\n  not\n  and\n  swap1\n  dup4\n  0xffffffffffffffffffffffffffffffffffffffff\n  and\n  mul\n  or\n  swap1\n  sstore\n  pop\n    /* \"contracts/PetitionPlatform.sol\":1799:2123  constructor(address _daoMembership, address _campaignToken) Ownable(msg.sender) {... */\n  pop\n  pop\n    /* \"contracts/PetitionPlatform.sol\":629:7883  contract PetitionPlatform is Ownable, ReentrancyGuard {... */\n  jump(tag_21)\n    /* \"@openzeppelin/contracts/access/Ownable.sol\":2912:3099  function _transferOwnership(address newOwner) internal virtual {... */\ntag_12:\n    /* \"@openzeppelin/contracts/access/Ownable.sol\":2985:3001  address oldOwner */\n  0x00\n    /* \"@openzeppelin/contracts/access/Ownable.sol\":3004:3010  _owner */\n  0x00\n  0x00\n  swap1\n  sload\n  swap1\n  0x0100\n  exp\n  swap1\n  div\n  0xffffffffffffffffffffffffffffffffffffffff\n  and\n    /* \"@openzeppelin/contracts/access/Ownable.sol\":2985:3010  address oldOwner = _owner */\n  swap1\n  pop\n    /* \"@openzeppelin/contracts/access/Ownable.sol\":3029:3037  newOwner */\n  dup2\n    /* \"@openzeppelin/contracts/access/Ownable.sol\":3020:3026  _owner */\n  0x00\n  0x00\n    /* \"@openzeppelin/contracts/access/Ownable.sol\":3020:3037  _owner = newOwner */\n  0x0100\n  exp\n  dup2\n  sload\n  dup2\n  0xffffffffffffffffffffffffffffffffffffffff\n  mul\n  not\n  and\n  swap1\n  dup4\n  0xffffffffffffffffffffffffffffffffffffffff\n  and\n  mul\n  or\n  swap1\n  sstore\n  pop\n    /* \"@openzeppelin/contracts/access/Ownable.sol\":3083:3091  newOwner */\n  dup2\n    /* \"@openzeppelin/contracts/access/Ownable.sol\":3052:3092  OwnershipTransferred(oldOwner, newOwner) */\n  0xffffffffffffffffffffffffffffffffffffffff\n  and\n    /* \"@openzeppelin/contracts/access/Ownable.sol\":3073:3081  oldOwner */\n  dup2\n    /* \"@openzeppelin/contracts/access/Ownable.sol\":3052:3092  OwnershipTransferred(oldOwner, newOwner) */\n  0xffffffffffffffffffffffffffffffffffffffff\n  and\n  0x8be0079c531659141344cd1fd0a4f28419497f9722a3daafe3b4186f6b6457e0\n  mload(0x40)\n  mload(0x40)\n  dup1\n  swap2\n  sub\n  swap1\n  log3\n    /* \"@openzeppelin/contracts/access/Ownable.sol\":2975:3099  {... */\n  pop\n    /* \"@openzeppelin/contracts/access/Ownable.sol\":2912:3099  function _transferOwnership(address newOwner) internal virtual {... */\n  pop\n  jump\t// out\n    /* \"#utility.yul\":88:205   */\ntag_24:\n    /* \"#utility.yul\":197:198   */\n  0x00\n    /* \"#utility.yul\":194:195   */\n  0x00\n    /* \"#utility.yul\":187:199   */\n  revert\n    /* \"#utility.yul\":334:460   */\ntag_26:\n    /* \"#utility.yul\":371:378   */\n  0x00\n    /* \"#utility.yul\":411:453   */\n  0xffffffffffffffffffffffffffffffffffffffff\n    /* \"#utility.yul\":404:409   */\n  dup3\n    /* \"#utility.yul\":400:454   */\n  and\n    /* \"#utility.yul\":389:454   */\n  swap1\n  pop\n    /* \"#utility.yul\":334:460   */\n  swap2\n  swap1\n  pop\n  jump\t// out\n    /* \"#utility.yul\":466:562   */\ntag_27:\n    /* \"#utility.yul\":503:510   */\n  0x00\n    /* \"#utility.yul\":532:556   */\n  tag_42\n    /* \"#utility.yul\":550:555   */\n  dup3\n    /* \"#utility.yul\":532:556   */\n  tag_26\n  jump\t// in\ntag_42:\n    /* \"#utility.yul\":521:556   */\n  swap1\n  pop\n    /* \"#utility.yul\":466:562   */\n  swap2\n  swap1\n  pop\n  jump\t// out\n    /* \"#utility.yul\":568:690   */\ntag_28:\n    /* \"#utility.yul\":641:665   */\n  tag_44\n    /* \"#utility.yul\":659:664   */\n  dup2\n    /* \"#utility.yul\":641:665   */\n  tag_27\n  jump\t// in\ntag_44:\n    /* \"#utility.yul\":634:639   */\n  dup2\n    /* \"#utility.yul\":631:666   */\n  eq\n    /* \"#utility.yul\":621:684   */\n  tag_45\n  jumpi\n    /* \"#utility.yul\":680:681   */\n  0x00\n    /* \"#utility.yul\":677:678   */\n  0x00\n    /* \"#utility.yul\":670:682   */\n  revert\n    /* \"#utility.yul\":621:684   */\ntag_45:\n    /* \"#utility.yul\":568:690   */\n  pop\n  jump\t// out\n    /* \"#utility.yul\":696:839   */\ntag_29:\n    /* \"#utility.yul\":753:758   */\n  0x00\n    /* \"#utility.yul\":784:790   */\n  dup2\n    /* \"#utility.yul\":778:791   */\n  mload\n    /* \"#utility.yul\":769:791   */\n  swap1\n  pop\n    /* \"#utility.yul\":800:833   */\n  tag_47\n    /* \"#utility.yul\":827:832   */\n  dup2\n    /* \"#utility.yul\":800:833   */\n  tag_28\n  jump\t// in\ntag_47:\n    /* \"#utility.yul\":696:839   */\n  swap3\n  swap2\n  pop\n  pop\n  jump\t// out\n    /* \"#utility.yul\":845:1352   */\ntag_3:\n    /* \"#utility.yul\":924:930   */\n  0x00\n    /* \"#utility.yul\":932:938   */\n  0x00\n    /* \"#utility.yul\":981:983   */\n  0x40\n    /* \"#utility.yul\":969:978   */\n  dup4\n    /* \"#utility.yul\":960:967   */\n  dup6\n    /* \"#utility.yul\":956:979   */\n  sub\n    /* \"#utility.yul\":952:984   */\n  slt\n    /* \"#utility.yul\":949:1068   */\n  iszero\n  tag_49\n  jumpi\n    /* \"#utility.yul\":987:1066   */\n  tag_50\n  tag_24\n  jump\t// in\ntag_50:\n    /* \"#utility.yul\":949:1068   */\ntag_49:\n    /* \"#utility.yul\":1107:1108   */\n  0x00\n    /* \"#utility.yul\":1132:1196   */\n  tag_51\n    /* \"#utility.yul\":1188:1195   */\n  dup6\n    /* \"#utility.yul\":1179:1185   */\n  dup3\n    /* \"#utility.yul\":1168:1177   */\n  dup7\n    /* \"#utility.yul\":1164:1186   */\n  add\n    /* \"#utility.yul\":1132:1196   */\n  tag_29\n  jump\t// in\ntag_51:\n    /* \"#utility.yul\":1122:1196   */\n  swap3\n  pop\n    /* \"#utility.yul\":1078:1206   */\n  pop\n    /* \"#utility.yul\":1245:1247   */\n  0x20\n    /* \"#utility.yul\":1271:1335   */\n  tag_52\n    /* \"#utility.yul\":1327:1334   */\n  dup6\n    /* \"#utility.yul\":1318:1324   */\n  dup3\n    /* \"#utility.yul\":1307:1316   */\n  dup7\n    /* \"#utility.yul\":1303:1325   */\n  add\n    /* \"#utility.yul\":1271:1335   */\n  tag_29\n  jump\t// in\ntag_52:\n    /* \"#utility.yul\":1261:1335   */\n  swap2\n  pop\n    /* \"#utility.yul\":1216:1345   */\n  pop\n    /* \"#utility.yul\":845:1352   */\n  swap3\n  pop\n  swap3\n  swap1\n  pop\n  jump\t// out\n    /* \"#utility.yul\":1358:1476   */\ntag_30:\n    /* \"#utility.yul\":1445:1469   */\n  tag_54\n    /* \"#utility.yul\":1463:1468   */\n  dup2\n    /* \"#utility.yul\":1445:1469   */\n  tag_27\n  jump\t// in\ntag_54:\n    /* \"#utility.yul\":1440:1443   */\n  dup3\n    /* \"#utility.yul\":1433:1470   */\n  mstore\n    /* \"#utility.yul\":1358:1476   */\n  pop\n  pop\n  jump\t// out\n    /* \"#utility.yul\":1482:1704   */\ntag_10:\n    /* \"#utility.yul\":1575:1579   */\n  0x00\n    /* \"#utility.yul\":1613:1615   */\n  0x20\n    /* \"#utility.yul\":1602:1611   */\n  dup3\n    /* \"#utility.yul\":1598:1616   */\n  add\n    /* \"#utility.yul\":1590:1616   */\n  swap1\n  pop\n    /* \"#utility.yul\":1626:1697   */\n  tag_56\n    /* \"#utility.yul\":1694:1695   */\n  0x00\n    /* \"#utility.yul\":1683:1692   */\n  dup4\n    /* \"#utility.yul\":1679:1696   */\n  add\n    /* \"#utility.yul\":1670:1676   */\n  dup5\n    /* \"#utility.yul\":1626:1697   */\n  tag_30\n  jump\t// in\ntag_56:\n    /* \"#utility.yul\":1482:1704   */\n  swap3\n  swap2\n  pop\n  pop\n  jump\t// out\n    /* \"#utility.yul\":1710:1879   */\ntag_31:\n    /* \"#utility.yul\":1794:1805   */\n  0x00\n    /* \"#utility.yul\":1828:1834   */\n  dup3\n    /* \"#utility.yul\":1823:1826   */\n  dup3\n    /* \"#utility.yul\":1816:1835   */\n  mstore\n    /* \"#utility.yul\":1868:1872   */\n  0x20\n    /* \"#utility.yul\":1863:1866   */\n  dup3\n    /* \"#utility.yul\":1859:1873   */\n  add\n    /* \"#utility.yul\":1844:1873   */\n  swap1\n  pop\n    /* \"#utility.yul\":1710:1879   */\n  swap3\n  swap2\n  pop\n  pop\n  jump\t// out\n    /* \"#utility.yul\":1885:2054   */\ntag_32:\n    /* \"#utility.yul\":2025:2046   */\n  0x496e76616c69642044414f206164647265737300000000000000000000000000\n    /* \"#utility.yul\":2021:2022   */\n  0x00\n    /* \"#utility.yul\":2013:2019   */\n  dup3\n    /* \"#utility.yul\":2009:2023   */\n  add\n    /* \"#utility.yul\":2002:2047   */\n  mstore\n    /* \"#utility.yul\":1885:2054   */\n  pop\n  jump\t// out\n    /* \"#utility.yul\":2060:2426   */\ntag_33:\n    /* \"#utility.yul\":2202:2205   */\n  0x00\n    /* \"#utility.yul\":2223:2290   */\n  tag_60\n    /* \"#utility.yul\":2287:2289   */\n  0x13\n    /* \"#utility.yul\":2282:2285   */\n  dup4\n    /* \"#utility.yul\":2223:2290   */\n  tag_31\n  jump\t// in\ntag_60:\n    /* \"#utility.yul\":2216:2290   */\n  swap2\n  pop\n    /* \"#utility.yul\":2299:2392   */\n  tag_61\n    /* \"#utility.yul\":2388:2391   */\n  dup3\n    /* \"#utility.yul\":2299:2392   */\n  tag_32\n  jump\t// in\ntag_61:\n    /* \"#utility.yul\":2417:2419   */\n  0x20\n    /* \"#utility.yul\":2412:2415   */\n  dup3\n    /* \"#utility.yul\":2408:2420   */\n  add\n    /* \"#utility.yul\":2401:2420   */\n  swap1\n  pop\n    /* \"#utility.yul\":2060:2426   */\n  swap2\n  swap1\n  pop\n  jump\t// out\n    /* \"#utility.yul\":2432:2851   */\ntag_17:\n    /* \"#utility.yul\":2598:2602   */\n  0x00\n    /* \"#utility.yul\":2636:2638   */\n  0x20\n    /* \"#utility.yul\":2625:2634   */\n  dup3\n    /* \"#utility.yul\":2621:2639   */\n  add\n    /* \"#utility.yul\":2613:2639   */\n  swap1\n  pop\n    /* \"#utility.yul\":2685:2694   */\n  dup2\n    /* \"#utility.yul\":2679:2683   */\n  dup2\n    /* \"#utility.yul\":2675:2695   */\n  sub\n    /* \"#utility.yul\":2671:2672   */\n  0x00\n    /* \"#utility.yul\":2660:2669   */\n  dup4\n    /* \"#utility.yul\":2656:2673   */\n  add\n    /* \"#utility.yul\":2649:2696   */\n  mstore\n    /* \"#utility.yul\":2713:2844   */\n  tag_63\n    /* \"#utility.yul\":2839:2843   */\n  dup2\n    /* \"#utility.yul\":2713:2844   */\n  tag_33\n  jump\t// in\ntag_63:\n    /* \"#utility.yul\":2705:2844   */\n  swap1\n  pop\n    /* \"#utility.yul\":2432:2851   */\n  swap2\n  swap1\n  pop\n  jump\t// out\n    /* \"#utility.yul\":2857:3028   */\ntag_34:\n    /* \"#utility.yul\":2997:3020   */\n  0x496e76616c696420746f6b656e20616464726573730000000000000000000000\n    /* \"#utility.yul\":2993:2994   */\n  0x00\n    /* \"#utility.yul\":2985:2991   */\n  dup3\n    /* \"#utility.yul\":2981:2995   */\n  add\n    /* \"#utility.yul\":2974:3021   */\n  mstore\n    /* \"#utility.yul\":2857:3028   */\n  pop\n  jump\t// out\n    /* \"#utility.yul\":3034:3400   */\ntag_35:\n    /* \"#utility.yul\":3176:3179   */\n  0x00\n    /* \"#utility.yul\":3197:3264   */\n  tag_66\n    /* \"#utility.yul\":3261:3263   */\n  0x15\n    /* \"#utility.yul\":3256:3259   */\n  dup4\n    /* \"#utility.yul\":3197:3264   */\n  tag_31\n  jump\t// in\ntag_66:\n    /* \"#utility.yul\":3190:3264   */\n  swap2\n  pop\n    /* \"#utility.yul\":3273:3366   */\n  tag_67\n    /* \"#utility.yul\":3362:3365   */\n  dup3\n    /* \"#utility.yul\":3273:3366   */\n  tag_34\n  jump\t// in\ntag_67:\n    /* \"#utility.yul\":3391:3393   */\n  0x20\n    /* \"#utility.yul\":3386:3389   */\n  dup3\n    /* \"#utility.yul\":3382:3394   */\n  add\n    /* \"#utility.yul\":3375:3394   */\n  swap1\n  pop\n    /* \"#utility.yul\":3034:3400   */\n  swap2\n  swap1\n  pop\n  jump\t// out\n    /* \"#utility.yul\":3406:3825   */\ntag_20:\n    /* \"#utility.yul\":3572:3576   */\n  0x00\n    /* \"#utility.yul\":3610:3612   */\n  0x20\n    /* \"#utility.yul\":3599:3608   */\n  dup3\n    /* \"#utility.yul\":3595:3613   */\n  add\n    /* \"#utility.yul\":3587:3613   */\n  swap1\n  pop\n    /* \"#utility.yul\":3659:3668   */\n  dup2\n    /* \"#utility.yul\":3653:3657   */\n  dup2\n    /* \"#utility.yul\":3649:3669   */\n  sub\n    /* \"#utility.yul\":3645:3646   */\n  0x00\n    /* \"#utility.yul\":3634:3643   */\n  dup4\n    /* \"#utility.yul\":3630:3647   */\n  add\n    /* \"#utility.yul\":3623:3670   */\n  mstore\n    /* \"#utility.yul\":3687:3818   */\n  tag_69\n    /* \"#utility.yul\":3813:3817   */\n  dup2\n    /* \"#utility.yul\":3687:3818   */\n  tag_35\n  jump\t// in\ntag_69:\n    /* \"#utility.yul\":3679:3818   */\n  swap1\n  pop\n    /* \"#utility.yul\":3406:3825   */\n  swap2\n  swap1\n  pop\n  jump\t// out\n    /* \"contracts/PetitionPlatform.sol\":629:7883  contract PetitionPlatform is Ownable, ReentrancyGuard {... */\ntag_21:\n  dataSize(sub_0)\n  dup1\n  dataOffset(sub_0)\n  0x00\n  codecopy\n  0x00\n  return\nstop\n\nsub_0: assembly {\n        /* \"contracts/PetitionPlatform.sol\":629:7883  contract PetitionPlatform is Ownable, ReentrancyGuard {... */\n      mstore(0x40, 0x80)\n      jumpi(tag_1, lt(calldatasize, 0x04))\n      shr(0xe0, calldataload(0x00))\n      dup1\n      0x78e18d35\n      gt\n      tag_23\n      jumpi\n      dup1\n      0xdcad0180\n      gt\n      tag_24\n      jumpi\n      dup1\n      0xdcad0180\n      eq\n      tag_17\n      jumpi\n      dup1\n      0xeb74d835\n      eq\n      tag_18\n      jumpi\n      dup1\n      0xeeccd720\n      eq\n      tag_19\n      jumpi\n      dup1\n      0xf2fde38b\n      eq\n      tag_20\n      jumpi\n      dup1\n      0xf345a997\n      eq\n      tag_21\n      jumpi\n      dup1\n      0xf99972ef\n      eq\n      tag_22\n      jumpi\n      jump(tag_1)\n    tag_24:\n      dup1\n      0x78e18d35\n      eq\n      tag_12\n      jumpi\n      dup1\n      0x8a5be9b7\n      eq\n      tag_13\n      jumpi\n      dup1\n      0x8da5cb5b\n      eq\n      tag_14\n      jumpi\n      dup1\n      0x9089c4a5\n      eq\n      tag_15\n      jumpi\n      dup1\n      0x990627ec\n      eq\n      tag_16\n      jumpi\n      jump(tag_1)\n    tag_23:\n      dup1\n      0x68bdd33a\n      gt\n      tag_25\n      jumpi\n      dup1\n      0x68bdd33a\n      eq\n      tag_7\n      jumpi\n      dup1\n      0x6b4acbe0\n      eq\n      tag_8\n      jumpi\n      dup1\n      0x709df8d9\n      eq\n      tag_9\n      jumpi\n      dup1\n      0x715018a6\n      eq\n      tag_10\n      jumpi\n      dup1\n      0x72fa1301\n      eq\n      tag_11\n      jumpi\n      jump(tag_1)\n    tag_25:\n      dup1\n      0x0c90ce42\n      eq\n      tag_2\n      jumpi\n      dup1\n      0x2fb33528\n      eq\n      tag_3\n      jumpi\n      dup1\n      0x3ad50ded\n      eq\n      tag_4\n      jumpi\n      dup1\n      0x3ccfd60b\n      eq\n      tag_5\n      jumpi\n      dup1\n      0x5ea4d29c\n      eq\n      tag_6\n      jumpi\n    tag_1:\n      revert(0x00, 0x00)\n        /* \"contracts/PetitionPlatform.sol\":6345:6551  function getPetition(uint256 _petitionId) external view returns (Petition memory) {... */\n    tag_2:\n      callvalue\n      dup1\n      iszero\n      tag_26\n      jumpi\n      revert(0x00, 0x00)\n    tag_26:\n      pop\n      tag_27\n      0x04\n      dup1\n      calldatasize\n      sub\n      dup2\n      add\n      swap1\n      tag_28\n      swap2\n      swap1\n      tag_29\n      jump\t// in\n    tag_28:\n      tag_30\n      jump\t// in\n    tag_27:\n      mload(0x40)\n      tag_31\n      swap2\n      swap1\n      tag_32\n      jump\t// in\n    tag_31:\n      mload(0x40)\n      dup1\n      swap2\n      sub\n      swap1\n      return\n        /* \"contracts/PetitionPlatform.sol\":1013:1043  uint256 public petitionCounter */\n    tag_3:\n      callvalue\n      dup1\n      iszero\n      tag_33\n      jumpi\n      revert(0x00, 0x00)\n    tag_33:\n      pop\n      tag_34\n      tag_35\n      jump\t// in\n    tag_34:\n      mload(0x40)\n      tag_36\n      swap2\n      swap1\n      tag_37\n      jump\t// in\n    tag_36:\n      mload(0x40)\n      dup1\n      swap2\n      sub\n      swap1\n      return\n        /* \"contracts/PetitionPlatform.sol\":1143:1188  mapping(uint256 => Petition) public petitions */\n    tag_4:\n      callvalue\n      dup1\n      iszero\n      tag_38\n      jumpi\n      revert(0x00, 0x00)\n    tag_38:\n      pop\n      tag_39\n      0x04\n      dup1\n      calldatasize\n      sub\n      dup2\n      add\n      swap1\n      tag_40\n      swap2\n      swap1\n      tag_29\n      jump\t// in\n    tag_40:\n      tag_41\n      jump\t// in\n    tag_39:\n      mload(0x40)\n      tag_42\n      swap9\n      swap8\n      swap7\n      swap6\n      swap5\n      swap4\n      swap3\n      swap2\n      swap1\n      tag_43\n      jump\t// in\n    tag_42:\n      mload(0x40)\n      dup1\n      swap2\n      sub\n      swap1\n      return\n        /* \"contracts/PetitionPlatform.sol\":7508:7707  function withdraw() external onlyOwner {... */\n    tag_5:\n      callvalue\n      dup1\n      iszero\n      tag_44\n      jumpi\n      revert(0x00, 0x00)\n    tag_44:\n      pop\n      tag_45\n      tag_46\n      jump\t// in\n    tag_45:\n      stop\n        /* \"contracts/PetitionPlatform.sol\":1096:1130  uint256 public rewardThreshold = 5 */\n    tag_6:\n      callvalue\n      dup1\n      iszero\n      tag_47\n      jumpi\n      revert(0x00, 0x00)\n    tag_47:\n      pop\n      tag_48\n      tag_49\n      jump\t// in\n    tag_48:\n      mload(0x40)\n      tag_50\n      swap2\n      swap1\n      tag_37\n      jump\t// in\n    tag_50:\n      mload(0x40)\n      dup1\n      swap2\n      sub\n      swap1\n      return\n        /* \"contracts/PetitionPlatform.sol\":7260:7429  function setRewardThreshold(uint256 _threshold) external onlyOwner {... */\n    tag_7:\n      callvalue\n      dup1\n      iszero\n      tag_51\n      jumpi\n      revert(0x00, 0x00)\n    tag_51:\n      pop\n      tag_52\n      0x04\n      dup1\n      calldatasize\n      sub\n      dup2\n      add\n      swap1\n      tag_53\n      swap2\n      swap1\n      tag_29\n      jump\t// in\n    tag_53:\n      tag_54\n      jump\t// in\n    tag_52:\n      stop\n        /* \"contracts/PetitionPlatform.sol\":6646:6777  function getUserPaidPetitionCount(address _user) external view returns (uint256) {... */\n    tag_8:\n      callvalue\n      dup1\n      iszero\n      tag_55\n      jumpi\n      revert(0x00, 0x00)\n    tag_55:\n      pop\n      tag_56\n      0x04\n      dup1\n      calldatasize\n      sub\n      dup2\n      add\n      swap1\n      tag_57\n      swap2\n      swap1\n      tag_58\n      jump\t// in\n    tag_57:\n      tag_59\n      jump\t// in\n    tag_56:\n      mload(0x40)\n      tag_60\n      swap2\n      swap1\n      tag_37\n      jump\t// in\n    tag_60:\n      mload(0x40)\n      dup1\n      swap2\n      sub\n      swap1\n      return\n        /* \"contracts/PetitionPlatform.sol\":1254:1315  mapping(uint256 => mapping(address => bool)) public hasSigned */\n    tag_9:\n      callvalue\n      dup1\n      iszero\n      tag_61\n      jumpi\n      revert(0x00, 0x00)\n    tag_61:\n      pop\n      tag_62\n      0x04\n      dup1\n      calldatasize\n      sub\n      dup2\n      add\n      swap1\n      tag_63\n      swap2\n      swap1\n      tag_64\n      jump\t// in\n    tag_63:\n      tag_65\n      jump\t// in\n    tag_62:\n      mload(0x40)\n      tag_66\n      swap2\n      swap1\n      tag_67\n      jump\t// in\n    tag_66:\n      mload(0x40)\n      dup1\n      swap2\n      sub\n      swap1\n      return\n        /* \"@openzeppelin/contracts/access/Ownable.sol\":2293:2394  function renounceOwnership() public virtual onlyOwner {... */\n    tag_10:\n      callvalue\n      dup1\n      iszero\n      tag_68\n      jumpi\n      revert(0x00, 0x00)\n    tag_68:\n      pop\n      tag_69\n      tag_70\n      jump\t// in\n    tag_69:\n      stop\n        /* \"contracts/PetitionPlatform.sol\":7778:7880  function getTotalPetitions() external view returns (uint256) {... */\n    tag_11:\n      callvalue\n      dup1\n      iszero\n      tag_71\n      jumpi\n      revert(0x00, 0x00)\n    tag_71:\n      pop\n      tag_72\n      tag_73\n      jump\t// in\n    tag_72:\n      mload(0x40)\n      tag_74\n      swap2\n      swap1\n      tag_37\n      jump\t// in\n    tag_74:\n      mload(0x40)\n      dup1\n      swap2\n      sub\n      swap1\n      return\n        /* \"contracts/PetitionPlatform.sol\":937:965  address public daoMembership */\n    tag_12:\n      callvalue\n      dup1\n      iszero\n      tag_75\n      jumpi\n      revert(0x00, 0x00)\n    tag_75:\n      pop\n      tag_76\n      tag_77\n      jump\t// in\n    tag_76:\n      mload(0x40)\n      tag_78\n      swap2\n      swap1\n      tag_79\n      jump\t// in\n    tag_78:\n      mload(0x40)\n      dup1\n      swap2\n      sub\n      swap1\n      return\n        /* \"contracts/PetitionPlatform.sol\":1050:1089  uint256 public campaignFee = 0.01 ether */\n    tag_13:\n      callvalue\n      dup1\n      iszero\n      tag_80\n      jumpi\n      revert(0x00, 0x00)\n    tag_80:\n      pop\n      tag_81\n      tag_82\n      jump\t// in\n    tag_81:\n      mload(0x40)\n      tag_83\n      swap2\n      swap1\n      tag_37\n      jump\t// in\n    tag_83:\n      mload(0x40)\n      dup1\n      swap2\n      sub\n      swap1\n      return\n        /* \"@openzeppelin/contracts/access/Ownable.sol\":1638:1723  function owner() public view virtual returns (address) {... */\n    tag_14:\n      callvalue\n      dup1\n      iszero\n      tag_84\n      jumpi\n      revert(0x00, 0x00)\n    tag_84:\n      pop\n      tag_85\n      tag_86\n      jump\t// in\n    tag_85:\n      mload(0x40)\n      tag_87\n      swap2\n      swap1\n      tag_79\n      jump\t// in\n    tag_87:\n      mload(0x40)\n      dup1\n      swap2\n      sub\n      swap1\n      return\n        /* \"contracts/PetitionPlatform.sol\":972:1000  address public campaignToken */\n    tag_15:\n      callvalue\n      dup1\n      iszero\n      tag_88\n      jumpi\n      revert(0x00, 0x00)\n    tag_88:\n      pop\n      tag_89\n      tag_90\n      jump\t// in\n    tag_89:\n      mload(0x40)\n      tag_91\n      swap2\n      swap1\n      tag_79\n      jump\t// in\n    tag_91:\n      mload(0x40)\n      dup1\n      swap2\n      sub\n      swap1\n      return\n        /* \"contracts/PetitionPlatform.sol\":2677:4906  function createPetition(... */\n    tag_16:\n      tag_92\n      0x04\n      dup1\n      calldatasize\n      sub\n      dup2\n      add\n      swap1\n      tag_93\n      swap2\n      swap1\n      tag_94\n      jump\t// in\n    tag_93:\n      tag_95\n      jump\t// in\n    tag_92:\n      stop\n        /* \"contracts/PetitionPlatform.sol\":5067:5676  function signPetition(uint256 _petitionId) external {... */\n    tag_17:\n      callvalue\n      dup1\n      iszero\n      tag_96\n      jumpi\n      revert(0x00, 0x00)\n    tag_96:\n      pop\n      tag_97\n      0x04\n      dup1\n      calldatasize\n      sub\n      dup2\n      add\n      swap1\n      tag_98\n      swap2\n      swap1\n      tag_29\n      jump\t// in\n    tag_98:\n      tag_99\n      jump\t// in\n    tag_97:\n      stop\n        /* \"contracts/PetitionPlatform.sol\":6867:7010  function hasUserSigned(uint256 _petitionId, address _user) external view returns (bool) {... */\n    tag_18:\n      callvalue\n      dup1\n      iszero\n      tag_100\n      jumpi\n      revert(0x00, 0x00)\n    tag_100:\n      pop\n      tag_101\n      0x04\n      dup1\n      calldatasize\n      sub\n      dup2\n      add\n      swap1\n      tag_102\n      swap2\n      swap1\n      tag_64\n      jump\t// in\n    tag_102:\n      tag_103\n      jump\t// in\n    tag_101:\n      mload(0x40)\n      tag_104\n      swap2\n      swap1\n      tag_67\n      jump\t// in\n    tag_104:\n      mload(0x40)\n      dup1\n      swap2\n      sub\n      swap1\n      return\n        /* \"contracts/PetitionPlatform.sol\":7086:7180  function setCampaignFee(uint256 _fee) external onlyOwner {... */\n    tag_19:\n      callvalue\n      dup1\n      iszero\n      tag_105\n      jumpi\n      revert(0x00, 0x00)\n    tag_105:\n      pop\n      tag_106\n      0x04\n      dup1\n      calldatasize\n      sub\n      dup2\n      add\n      swap1\n      tag_107\n      swap2\n      swap1\n      tag_29\n      jump\t// in\n    tag_107:\n      tag_108\n      jump\t// in\n    tag_106:\n      stop\n        /* \"@openzeppelin/contracts/access/Ownable.sol\":2543:2758  function transferOwnership(address newOwner) public virtual onlyOwner {... */\n    tag_20:\n      callvalue\n      dup1\n      iszero\n      tag_109\n      jumpi\n      revert(0x00, 0x00)\n    tag_109:\n      pop\n      tag_110\n      0x04\n      dup1\n      calldatasize\n      sub\n      dup2\n      add\n      swap1\n      tag_111\n      swap2\n      swap1\n      tag_58\n      jump\t// in\n    tag_111:\n      tag_112\n      jump\t// in\n    tag_110:\n      stop\n        /* \"contracts/PetitionPlatform.sol\":5800:6282  function closePetition(uint256 _petitionId) external {... */\n    tag_21:\n      callvalue\n      dup1\n      iszero\n      tag_113\n      jumpi\n      revert(0x00, 0x00)\n    tag_113:\n      pop\n      tag_114\n      0x04\n      dup1\n      calldatasize\n      sub\n      dup2\n      add\n      swap1\n      tag_115\n      swap2\n      swap1\n      tag_29\n      jump\t// in\n    tag_115:\n      tag_116\n      jump\t// in\n    tag_114:\n      stop\n        /* \"contracts/PetitionPlatform.sol\":1195:1247  mapping(address => uint256) public paidPetitionCount */\n    tag_22:\n      callvalue\n      dup1\n      iszero\n      tag_117\n      jumpi\n      revert(0x00, 0x00)\n    tag_117:\n      pop\n      tag_118\n      0x04\n      dup1\n      calldatasize\n      sub\n      dup2\n      add\n      swap1\n      tag_119\n      swap2\n      swap1\n      tag_58\n      jump\t// in\n    tag_119:\n      tag_120\n      jump\t// in\n    tag_118:\n      mload(0x40)\n      tag_121\n      swap2\n      swap1\n      tag_37\n      jump\t// in\n    tag_121:\n      mload(0x40)\n      dup1\n      swap2\n      sub\n      swap1\n      return\n        /* \"contracts/PetitionPlatform.sol\":6345:6551  function getPetition(uint256 _petitionId) external view returns (Petition memory) {... */\n    tag_30:\n        /* \"contracts/PetitionPlatform.sol\":6410:6425  Petition memory */\n      tag_122\n      tag_123\n      jump\t// in\n    tag_122:\n        /* \"contracts/PetitionPlatform.sol\":6460:6475  petitionCounter */\n      sload(0x04)\n        /* \"contracts/PetitionPlatform.sol\":6446:6457  _petitionId */\n      dup3\n        /* \"contracts/PetitionPlatform.sol\":6446:6475  _petitionId < petitionCounter */\n      lt\n        /* \"contracts/PetitionPlatform.sol\":6438:6503  require(_petitionId < petitionCounter, \"Petition does not exist\") */\n      tag_125\n      jumpi\n      mload(0x40)\n      0x08c379a000000000000000000000000000000000000000000000000000000000\n      dup2\n      mstore\n      0x04\n      add\n      tag_126\n      swap1\n      tag_127\n      jump\t// in\n    tag_126:\n      mload(0x40)\n      dup1\n      swap2\n      sub\n      swap1\n      revert\n    tag_125:\n        /* \"contracts/PetitionPlatform.sol\":6521:6530  petitions */\n      0x07\n        /* \"contracts/PetitionPlatform.sol\":6521:6543  petitions[_petitionId] */\n      0x00\n        /* \"contracts/PetitionPlatform.sol\":6531:6542  _petitionId */\n      dup4\n        /* \"contracts/PetitionPlatform.sol\":6521:6543  petitions[_petitionId] */\n      dup2\n      mstore\n      0x20\n      add\n      swap1\n      dup2\n      mstore\n      0x20\n      add\n      0x00\n      keccak256\n        /* \"contracts/PetitionPlatform.sol\":6514:6543  return petitions[_petitionId] */\n      mload(0x40)\n      dup1\n      0x0100\n      add\n      0x40\n      mstore\n      swap1\n      dup2\n      0x00\n      dup3\n      add\n      sload\n      dup2\n      mstore\n      0x20\n      add\n      0x01\n      dup3\n      add\n      dup1\n      sload\n      tag_128\n      swap1\n      tag_129\n      jump\t// in\n    tag_128:\n      dup1\n      0x1f\n      add\n      0x20\n      dup1\n      swap2\n      div\n      mul\n      0x20\n      add\n      mload(0x40)\n      swap1\n      dup2\n      add\n      0x40\n      mstore\n      dup1\n      swap3\n      swap2\n      swap1\n      dup2\n      dup2\n      mstore\n      0x20\n      add\n      dup3\n      dup1\n      sload\n      tag_130\n      swap1\n      tag_129\n      jump\t// in\n    tag_130:\n      dup1\n      iszero\n      tag_131\n      jumpi\n      dup1\n      0x1f\n      lt\n      tag_132\n      jumpi\n      0x0100\n      dup1\n      dup4\n      sload\n      div\n      mul\n      dup4\n      mstore\n      swap2\n      0x20\n      add\n      swap2\n      jump(tag_131)\n    tag_132:\n      dup3\n      add\n      swap2\n      swap1\n      0x00\n      mstore\n      keccak256(0x00, 0x20)\n      swap1\n    tag_133:\n      dup2\n      sload\n      dup2\n      mstore\n      swap1\n      0x01\n      add\n      swap1\n      0x20\n      add\n      dup1\n      dup4\n      gt\n      tag_133\n      jumpi\n      dup3\n      swap1\n      sub\n      0x1f\n      and\n      dup3\n      add\n      swap2\n    tag_131:\n      pop\n      pop\n      pop\n      pop\n      pop\n      dup2\n      mstore\n      0x20\n      add\n      0x02\n      dup3\n      add\n      dup1\n      sload\n      tag_134\n      swap1\n      tag_129\n      jump\t// in\n    tag_134:\n      dup1\n      0x1f\n      add\n      0x20\n      dup1\n      swap2\n      div\n      mul\n      0x20\n      add\n      mload(0x40)\n      swap1\n      dup2\n      add\n      0x40\n      mstore\n      dup1\n      swap3\n      swap2\n      swap1\n      dup2\n      dup2\n      mstore\n      0x20\n      add\n      dup3\n      dup1\n      sload\n      tag_135\n      swap1\n      tag_129\n      jump\t// in\n    tag_135:\n      dup1\n      iszero\n      tag_136\n      jumpi\n      dup1\n      0x1f\n      lt\n      tag_137\n      jumpi\n      0x0100\n      dup1\n      dup4\n      sload\n      div\n      mul\n      dup4\n      mstore\n      swap2\n      0x20\n      add\n      swap2\n      jump(tag_136)\n    tag_137:\n      dup3\n      add\n      swap2\n      swap1\n      0x00\n      mstore\n      keccak256(0x00, 0x20)\n      swap1\n    tag_138:\n      dup2\n      sload\n      dup2\n      mstore\n      swap1\n      0x01\n      add\n      swap1\n      0x20\n      add\n      dup1\n      dup4\n      gt\n      tag_138\n      jumpi\n      dup3\n      swap1\n      sub\n      0x1f\n      and\n      dup3\n      add\n      swap2\n    tag_136:\n      pop\n      pop\n      pop\n      pop\n      pop\n      dup2\n      mstore\n      0x20\n      add\n      0x03\n      dup3\n      add\n      0x00\n      swap1\n      sload\n      swap1\n      0x0100\n      exp\n      swap1\n      div\n      0xffffffffffffffffffffffffffffffffffffffff\n      and\n      0xffffffffffffffffffffffffffffffffffffffff\n      and\n      0xffffffffffffffffffffffffffffffffffffffff\n      and\n      dup2\n      mstore\n      0x20\n      add\n      0x04\n      dup3\n      add\n      sload\n      dup2\n      mstore\n      0x20\n      add\n      0x05\n      dup3\n      add\n      sload\n      dup2\n      mstore\n      0x20\n      add\n      0x06\n      dup3\n      add\n      sload\n      dup2\n      mstore\n      0x20\n      add\n      0x07\n      dup3\n      add\n      0x00\n      swap1\n      sload\n      swap1\n      0x0100\n      exp\n      swap1\n      div\n      0xff\n      and\n      iszero\n      iszero\n      iszero\n      iszero\n      dup2\n      mstore\n      pop\n      pop\n      swap1\n      pop\n        /* \"contracts/PetitionPlatform.sol\":6345:6551  function getPetition(uint256 _petitionId) external view returns (Petition memory) {... */\n      swap2\n      swap1\n      pop\n      jump\t// out\n        /* \"contracts/PetitionPlatform.sol\":1013:1043  uint256 public petitionCounter */\n    tag_35:\n      sload(0x04)\n      dup2\n      jump\t// out\n        /* \"contracts/PetitionPlatform.sol\":1143:1188  mapping(uint256 => Petition) public petitions */\n    tag_41:\n      mstore(0x20, 0x07)\n      dup1\n      0x00\n      mstore\n      keccak256(0x00, 0x40)\n      0x00\n      swap2\n      pop\n      swap1\n      pop\n      dup1\n      0x00\n      add\n      sload\n      swap1\n      dup1\n      0x01\n      add\n      dup1\n      sload\n      tag_139\n      swap1\n      tag_129\n      jump\t// in\n    tag_139:\n      dup1\n      0x1f\n      add\n      0x20\n      dup1\n      swap2\n      div\n      mul\n      0x20\n      add\n      mload(0x40)\n      swap1\n      dup2\n      add\n      0x40\n      mstore\n      dup1\n      swap3\n      swap2\n      swap1\n      dup2\n      dup2\n      mstore\n      0x20\n      add\n      dup3\n      dup1\n      sload\n      tag_140\n      swap1\n      tag_129\n      jump\t// in\n    tag_140:\n      dup1\n      iszero\n      tag_141\n      jumpi\n      dup1\n      0x1f\n      lt\n      tag_142\n      jumpi\n      0x0100\n      dup1\n      dup4\n      sload\n      div\n      mul\n      dup4\n      mstore\n      swap2\n      0x20\n      add\n      swap2\n      jump(tag_141)\n    tag_142:\n      dup3\n      add\n      swap2\n      swap1\n      0x00\n      mstore\n      keccak256(0x00, 0x20)\n      swap1\n    tag_143:\n      dup2\n      sload\n      dup2\n      mstore\n      swap1\n      0x01\n      add\n      swap1\n      0x20\n      add\n      dup1\n      dup4\n      gt\n      tag_143\n      jumpi\n      dup3\n      swap1\n      sub\n      0x1f\n      and\n      dup3\n      add\n      swap2\n    tag_141:\n      pop\n      pop\n      pop\n      pop\n      pop\n      swap1\n      dup1\n      0x02\n      add\n      dup1\n      sload\n      tag_144\n      swap1\n      tag_129\n      jump\t// in\n    tag_144:\n      dup1\n      0x1f\n      add\n      0x20\n      dup1\n      swap2\n      div\n      mul\n      0x20\n      add\n      mload(0x40)\n      swap1\n      dup2\n      add\n      0x40\n      mstore\n      dup1\n      swap3\n      swap2\n      swap1\n      dup2\n      dup2\n      mstore\n      0x20\n      add\n      dup3\n      dup1\n      sload\n      tag_145\n      swap1\n      tag_129\n      jump\t// in\n    tag_145:\n      dup1\n      iszero\n      tag_146\n      jumpi\n      dup1\n      0x1f\n      lt\n      tag_147\n      jumpi\n      0x0100\n      dup1\n      dup4\n      sload\n      div\n      mul\n      dup4\n      mstore\n      swap2\n      0x20\n      add\n      swap2\n      jump(tag_146)\n    tag_147:\n      dup3\n      add\n      swap2\n      swap1\n      0x00\n      mstore\n      keccak256(0x00, 0x20)\n      swap1\n    tag_148:\n      dup2\n      sload\n      dup2\n      mstore\n      swap1\n      0x01\n      add\n      swap1\n      0x20\n      add\n      dup1\n      dup4\n      gt\n      tag_148\n      jumpi\n      dup3\n      swap1\n      sub\n      0x1f\n      and\n      dup3\n      add\n      swap2\n    tag_146:\n      pop\n      pop\n      pop\n      pop\n      pop\n      swap1\n      dup1\n      0x03\n      add\n      0x00\n      swap1\n      sload\n      swap1\n      0x0100\n      exp\n      swap1\n      div\n      0xffffffffffffffffffffffffffffffffffffffff\n      and\n      swap1\n      dup1\n      0x04\n      add\n      sload\n      swap1\n      dup1\n      0x05\n      add\n      sload\n      swap1\n      dup1\n      0x06\n      add\n      sload\n      swap1\n      dup1\n      0x07\n      add\n      0x00\n      swap1\n      sload\n      swap1\n      0x0100\n      exp\n      swap1\n      div\n      0xff\n      and\n      swap1\n      pop\n      dup9\n      jump\t// out\n        /* \"contracts/PetitionPlatform.sol\":7508:7707  function withdraw() external onlyOwner {... */\n    tag_46:\n        /* \"@openzeppelin/contracts/access/Ownable.sol\":1531:1544  _checkOwner() */\n      tag_150\n        /* \"@openzeppelin/contracts/access/Ownable.sol\":1531:1542  _checkOwner */\n      tag_151\n        /* \"@openzeppelin/contracts/access/Ownable.sol\":1531:1544  _checkOwner() */\n      jump\t// in\n    tag_150:\n        /* \"contracts/PetitionPlatform.sol\":7558:7573  uint256 balance */\n      0x00\n        /* \"contracts/PetitionPlatform.sol\":7576:7597  address(this).balance */\n      selfbalance\n        /* \"contracts/PetitionPlatform.sol\":7558:7597  uint256 balance = address(this).balance */\n      swap1\n      pop\n        /* \"contracts/PetitionPlatform.sol\":7626:7627  0 */\n      0x00\n        /* \"contracts/PetitionPlatform.sol\":7616:7623  balance */\n      dup2\n        /* \"contracts/PetitionPlatform.sol\":7616:7627  balance > 0 */\n      gt\n        /* \"contracts/PetitionPlatform.sol\":7608:7654  require(balance > 0, \"No balance to withdraw\") */\n      tag_153\n      jumpi\n      mload(0x40)\n      0x08c379a000000000000000000000000000000000000000000000000000000000\n      dup2\n      mstore\n      0x04\n      add\n      tag_154\n      swap1\n      tag_155\n      jump\t// in\n    tag_154:\n      mload(0x40)\n      dup1\n      swap2\n      sub\n      swap1\n      revert\n    tag_153:\n        /* \"contracts/PetitionPlatform.sol\":7673:7680  owner() */\n      tag_156\n        /* \"contracts/PetitionPlatform.sol\":7673:7678  owner */\n      tag_86\n        /* \"contracts/PetitionPlatform.sol\":7673:7680  owner() */\n      jump\t// in\n    tag_156:\n        /* \"contracts/PetitionPlatform.sol\":7665:7690  payable(owner()).transfer */\n      0xffffffffffffffffffffffffffffffffffffffff\n      and\n        /* \"contracts/PetitionPlatform.sol\":7665:7699  payable(owner()).transfer(balance) */\n      0x08fc\n        /* \"contracts/PetitionPlatform.sol\":7691:7698  balance */\n      dup3\n        /* \"contracts/PetitionPlatform.sol\":7665:7699  payable(owner()).transfer(balance) */\n      swap1\n      dup2\n      iszero\n      mul\n      swap1\n      mload(0x40)\n      0x00\n      mload(0x40)\n      dup1\n      dup4\n      sub\n      dup2\n      dup6\n      dup9\n      dup9\n      call\n      swap4\n      pop\n      pop\n      pop\n      pop\n      iszero\n      dup1\n      iszero\n      tag_158\n      jumpi\n      returndatacopy(0x00, 0x00, returndatasize)\n      revert(0x00, returndatasize)\n    tag_158:\n      pop\n        /* \"contracts/PetitionPlatform.sol\":7547:7707  {... */\n      pop\n        /* \"contracts/PetitionPlatform.sol\":7508:7707  function withdraw() external onlyOwner {... */\n      jump\t// out\n        /* \"contracts/PetitionPlatform.sol\":1096:1130  uint256 public rewardThreshold = 5 */\n    tag_49:\n      sload(0x06)\n      dup2\n      jump\t// out\n        /* \"contracts/PetitionPlatform.sol\":7260:7429  function setRewardThreshold(uint256 _threshold) external onlyOwner {... */\n    tag_54:\n        /* \"@openzeppelin/contracts/access/Ownable.sol\":1531:1544  _checkOwner() */\n      tag_160\n        /* \"@openzeppelin/contracts/access/Ownable.sol\":1531:1542  _checkOwner */\n      tag_151\n        /* \"@openzeppelin/contracts/access/Ownable.sol\":1531:1544  _checkOwner() */\n      jump\t// in\n    tag_160:\n        /* \"contracts/PetitionPlatform.sol\":7359:7360  0 */\n      0x00\n        /* \"contracts/PetitionPlatform.sol\":7346:7356  _threshold */\n      dup2\n        /* \"contracts/PetitionPlatform.sol\":7346:7360  _threshold > 0 */\n      gt\n        /* \"contracts/PetitionPlatform.sol\":7338:7382  require(_threshold > 0, \"Invalid threshold\") */\n      tag_162\n      jumpi\n      mload(0x40)\n      0x08c379a000000000000000000000000000000000000000000000000000000000\n      dup2\n      mstore\n      0x04\n      add\n      tag_163\n      swap1\n      tag_164\n      jump\t// in\n    tag_163:\n      mload(0x40)\n      dup1\n      swap2\n      sub\n      swap1\n      revert\n    tag_162:\n        /* \"contracts/PetitionPlatform.sol\":7411:7421  _threshold */\n      dup1\n        /* \"contracts/PetitionPlatform.sol\":7393:7408  rewardThreshold */\n      0x06\n        /* \"contracts/PetitionPlatform.sol\":7393:7421  rewardThreshold = _threshold */\n      dup2\n      swap1\n      sstore\n      pop\n        /* \"contracts/PetitionPlatform.sol\":7260:7429  function setRewardThreshold(uint256 _threshold) external onlyOwner {... */\n      pop\n      jump\t// out\n        /* \"contracts/PetitionPlatform.sol\":6646:6777  function getUserPaidPetitionCount(address _user) external view returns (uint256) {... */\n    tag_59:\n        /* \"contracts/PetitionPlatform.sol\":6718:6725  uint256 */\n      0x00\n        /* \"contracts/PetitionPlatform.sol\":6745:6762  paidPetitionCount */\n      0x08\n        /* \"contracts/PetitionPlatform.sol\":6745:6769  paidPetitionCount[_user] */\n      0x00\n        /* \"contracts/PetitionPlatform.sol\":6763:6768  _user */\n      dup4\n        /* \"contracts/PetitionPlatform.sol\":6745:6769  paidPetitionCount[_user] */\n      0xffffffffffffffffffffffffffffffffffffffff\n      and\n      0xffffffffffffffffffffffffffffffffffffffff\n      and\n      dup2\n      mstore\n      0x20\n      add\n      swap1\n      dup2\n      mstore\n      0x20\n      add\n      0x00\n      keccak256\n      sload\n        /* \"contracts/PetitionPlatform.sol\":6738:6769  return paidPetitionCount[_user] */\n      swap1\n      pop\n        /* \"contracts/PetitionPlatform.sol\":6646:6777  function getUserPaidPetitionCount(address _user) external view returns (uint256) {... */\n      swap2\n      swap1\n      pop\n      jump\t// out\n        /* \"contracts/PetitionPlatform.sol\":1254:1315  mapping(uint256 => mapping(address => bool)) public hasSigned */\n    tag_65:\n      mstore(0x20, 0x09)\n      dup2\n      0x00\n      mstore\n      mstore(0x20, keccak256(0x00, 0x40))\n      dup1\n      0x00\n      mstore\n      keccak256(0x00, 0x40)\n      0x00\n      swap2\n      pop\n      swap2\n      pop\n      swap1\n      sload\n      swap1\n      0x0100\n      exp\n      swap1\n      div\n      0xff\n      and\n      dup2\n      jump\t// out\n        /* \"@openzeppelin/contracts/access/Ownable.sol\":2293:2394  function renounceOwnership() public virtual onlyOwner {... */\n    tag_70:\n        /* \"@openzeppelin/contracts/access/Ownable.sol\":1531:1544  _checkOwner() */\n      tag_167\n        /* \"@openzeppelin/contracts/access/Ownable.sol\":1531:1542  _checkOwner */\n      tag_151\n        /* \"@openzeppelin/contracts/access/Ownable.sol\":1531:1544  _checkOwner() */\n      jump\t// in\n    tag_167:\n        /* \"@openzeppelin/contracts/access/Ownable.sol\":2357:2387  _transferOwnership(address(0)) */\n      tag_169\n        /* \"@openzeppelin/contracts/access/Ownable.sol\":2384:2385  0 */\n      0x00\n        /* \"@openzeppelin/contracts/access/Ownable.sol\":2357:2375  _transferOwnership */\n      tag_170\n        /* \"@openzeppelin/contracts/access/Ownable.sol\":2357:2387  _transferOwnership(address(0)) */\n      jump\t// in\n    tag_169:\n        /* \"@openzeppelin/contracts/access/Ownable.sol\":2293:2394  function renounceOwnership() public virtual onlyOwner {... */\n      jump\t// out\n        /* \"contracts/PetitionPlatform.sol\":7778:7880  function getTotalPetitions() external view returns (uint256) {... */\n    tag_73:\n        /* \"contracts/PetitionPlatform.sol\":7830:7837  uint256 */\n      0x00\n        /* \"contracts/PetitionPlatform.sol\":7857:7872  petitionCounter */\n      sload(0x04)\n        /* \"contracts/PetitionPlatform.sol\":7850:7872  return petitionCounter */\n      swap1\n      pop\n        /* \"contracts/PetitionPlatform.sol\":7778:7880  function getTotalPetitions() external view returns (uint256) {... */\n      swap1\n      jump\t// out\n        /* \"contracts/PetitionPlatform.sol\":937:965  address public daoMembership */\n    tag_77:\n      0x02\n      0x00\n      swap1\n      sload\n      swap1\n      0x0100\n      exp\n      swap1\n      div\n      0xffffffffffffffffffffffffffffffffffffffff\n      and\n      dup2\n      jump\t// out\n        /* \"contracts/PetitionPlatform.sol\":1050:1089  uint256 public campaignFee = 0.01 ether */\n    tag_82:\n      sload(0x05)\n      dup2\n      jump\t// out\n        /* \"@openzeppelin/contracts/access/Ownable.sol\":1638:1723  function owner() public view virtual returns (address) {... */\n    tag_86:\n        /* \"@openzeppelin/contracts/access/Ownable.sol\":1684:1691  address */\n      0x00\n        /* \"@openzeppelin/contracts/access/Ownable.sol\":1710:1716  _owner */\n      0x00\n      0x00\n      swap1\n      sload\n      swap1\n      0x0100\n      exp\n      swap1\n      div\n      0xffffffffffffffffffffffffffffffffffffffff\n      and\n        /* \"@openzeppelin/contracts/access/Ownable.sol\":1703:1716  return _owner */\n      swap1\n      pop\n        /* \"@openzeppelin/contracts/access/Ownable.sol\":1638:1723  function owner() public view virtual returns (address) {... */\n      swap1\n      jump\t// out\n        /* \"contracts/PetitionPlatform.sol\":972:1000  address public campaignToken */\n    tag_90:\n      0x03\n      0x00\n      swap1\n      sload\n      swap1\n      0x0100\n      exp\n      swap1\n      div\n      0xffffffffffffffffffffffffffffffffffffffff\n      and\n      dup2\n      jump\t// out\n        /* \"contracts/PetitionPlatform.sol\":2677:4906  function createPetition(... */\n    tag_95:\n        /* \"@openzeppelin/contracts/utils/ReentrancyGuard.sol\":2500:2521  _nonReentrantBefore() */\n      tag_174\n        /* \"@openzeppelin/contracts/utils/ReentrancyGuard.sol\":2500:2519  _nonReentrantBefore */\n      tag_175\n        /* \"@openzeppelin/contracts/utils/ReentrancyGuard.sol\":2500:2521  _nonReentrantBefore() */\n      jump\t// in\n    tag_174:\n        /* \"contracts/PetitionPlatform.sol\":2859:2879  isMember(msg.sender) */\n      tag_177\n        /* \"contracts/PetitionPlatform.sol\":2868:2878  msg.sender */\n      caller\n        /* \"contracts/PetitionPlatform.sol\":2859:2867  isMember */\n      tag_178\n        /* \"contracts/PetitionPlatform.sol\":2859:2879  isMember(msg.sender) */\n      jump\t// in\n    tag_177:\n        /* \"contracts/PetitionPlatform.sol\":2851:2900  require(isMember(msg.sender), \"Not a DAO member\") */\n      tag_179\n      jumpi\n      mload(0x40)\n      0x08c379a000000000000000000000000000000000000000000000000000000000\n      dup2\n      mstore\n      0x04\n      add\n      tag_180\n      swap1\n      tag_181\n      jump\t// in\n    tag_180:\n      mload(0x40)\n      dup1\n      swap2\n      sub\n      swap1\n      revert\n    tag_179:\n        /* \"contracts/PetitionPlatform.sol\":2942:2943  0 */\n      0x00\n        /* \"contracts/PetitionPlatform.sol\":2925:2931  _title */\n      dup4\n        /* \"contracts/PetitionPlatform.sol\":2919:2939  bytes(_title).length */\n      mload\n        /* \"contracts/PetitionPlatform.sol\":2919:2943  bytes(_title).length > 0 */\n      gt\n        /* \"contracts/PetitionPlatform.sol\":2911:2969  require(bytes(_title).length > 0, \"Title cannot be empty\") */\n      tag_182\n      jumpi\n      mload(0x40)\n      0x08c379a000000000000000000000000000000000000000000000000000000000\n      dup2\n      mstore\n      0x04\n      add\n      tag_183\n      swap1\n      tag_184\n      jump\t// in\n    tag_183:\n      mload(0x40)\n      dup1\n      swap2\n      sub\n      swap1\n      revert\n    tag_182:\n        /* \"contracts/PetitionPlatform.sol\":3017:3018  0 */\n      0x00\n        /* \"contracts/PetitionPlatform.sol\":2994:3006  _description */\n      dup3\n        /* \"contracts/PetitionPlatform.sol\":2988:3014  bytes(_description).length */\n      mload\n        /* \"contracts/PetitionPlatform.sol\":2988:3018  bytes(_description).length > 0 */\n      gt\n        /* \"contracts/PetitionPlatform.sol\":2980:3050  require(bytes(_description).length > 0, \"Description cannot be empty\") */\n      tag_185\n      jumpi\n      mload(0x40)\n      0x08c379a000000000000000000000000000000000000000000000000000000000\n      dup2\n      mstore\n      0x04\n      add\n      tag_186\n      swap1\n      tag_187\n      jump\t// in\n    tag_186:\n      mload(0x40)\n      dup1\n      swap2\n      sub\n      swap1\n      revert\n    tag_185:\n        /* \"contracts/PetitionPlatform.sol\":3087:3088  0 */\n      0x00\n        /* \"contracts/PetitionPlatform.sol\":3069:3084  _durationInDays */\n      dup2\n        /* \"contracts/PetitionPlatform.sol\":3069:3088  _durationInDays > 0 */\n      gt\n        /* \"contracts/PetitionPlatform.sol\":3069:3114  _durationInDays > 0 && _durationInDays <= 365 */\n      dup1\n      iszero\n      tag_188\n      jumpi\n      pop\n        /* \"contracts/PetitionPlatform.sol\":3111:3114  365 */\n      0x016d\n        /* \"contracts/PetitionPlatform.sol\":3092:3107  _durationInDays */\n      dup2\n        /* \"contracts/PetitionPlatform.sol\":3092:3114  _durationInDays <= 365 */\n      gt\n      iszero\n        /* \"contracts/PetitionPlatform.sol\":3069:3114  _durationInDays > 0 && _durationInDays <= 365 */\n    tag_188:\n        /* \"contracts/PetitionPlatform.sol\":3061:3135  require(_durationInDays > 0 && _durationInDays <= 365, \"Invalid duration\") */\n      tag_189\n      jumpi\n      mload(0x40)\n      0x08c379a000000000000000000000000000000000000000000000000000000000\n      dup2\n      mstore\n      0x04\n      add\n      tag_190\n      swap1\n      tag_191\n      jump\t// in\n    tag_190:\n      mload(0x40)\n      dup1\n      swap2\n      sub\n      swap1\n      revert\n    tag_189:\n        /* \"contracts/PetitionPlatform.sol\":3156:3170  bool usedToken */\n      0x00\n        /* \"contracts/PetitionPlatform.sol\":3173:3178  false */\n      0x00\n        /* \"contracts/PetitionPlatform.sol\":3156:3178  bool usedToken = false */\n      swap1\n      pop\n        /* \"contracts/PetitionPlatform.sol\":3189:3213  uint256 userTokenBalance */\n      0x00\n        /* \"contracts/PetitionPlatform.sol\":3223:3236  campaignToken */\n      0x03\n      0x00\n      swap1\n      sload\n      swap1\n      0x0100\n      exp\n      swap1\n      div\n      0xffffffffffffffffffffffffffffffffffffffff\n      and\n        /* \"contracts/PetitionPlatform.sol\":3216:3247  IERC20(campaignToken).balanceOf */\n      0xffffffffffffffffffffffffffffffffffffffff\n      and\n      0x70a08231\n        /* \"contracts/PetitionPlatform.sol\":3248:3258  msg.sender */\n      caller\n        /* \"contracts/PetitionPlatform.sol\":3216:3259  IERC20(campaignToken).balanceOf(msg.sender) */\n      mload(0x40)\n      dup3\n      0xffffffff\n      and\n      0xe0\n      shl\n      dup2\n      mstore\n      0x04\n      add\n      tag_192\n      swap2\n      swap1\n      tag_79\n      jump\t// in\n    tag_192:\n      0x20\n      mload(0x40)\n      dup1\n      dup4\n      sub\n      dup2\n      dup7\n      gas\n      staticcall\n      iszero\n      dup1\n      iszero\n      tag_194\n      jumpi\n      returndatacopy(0x00, 0x00, returndatasize)\n      revert(0x00, returndatasize)\n    tag_194:\n      pop\n      pop\n      pop\n      pop\n      mload(0x40)\n      returndatasize\n      not(0x1f)\n      0x1f\n      dup3\n      add\n      and\n      dup3\n      add\n      dup1\n      0x40\n      mstore\n      pop\n      dup2\n      add\n      swap1\n      tag_195\n      swap2\n      swap1\n      tag_196\n      jump\t// in\n    tag_195:\n        /* \"contracts/PetitionPlatform.sol\":3189:3259  uint256 userTokenBalance = IERC20(campaignToken).balanceOf(msg.sender) */\n      swap1\n      pop\n        /* \"contracts/PetitionPlatform.sol\":3365:3375  1 * 10**18 */\n      0x0de0b6b3a7640000\n        /* \"contracts/PetitionPlatform.sol\":3345:3361  userTokenBalance */\n      dup2\n        /* \"contracts/PetitionPlatform.sol\":3345:3375  userTokenBalance >= 1 * 10**18 */\n      lt\n        /* \"contracts/PetitionPlatform.sol\":3341:4304  if (userTokenBalance >= 1 * 10**18) {... */\n      tag_197\n      jumpi\n        /* \"contracts/PetitionPlatform.sol\":3433:3445  bool success */\n      0x00\n        /* \"contracts/PetitionPlatform.sol\":3451:3464  campaignToken */\n      0x03\n      0x00\n      swap1\n      sload\n      swap1\n      0x0100\n      exp\n      swap1\n      div\n      0xffffffffffffffffffffffffffffffffffffffff\n      and\n        /* \"contracts/PetitionPlatform.sol\":3451:3469  campaignToken.call */\n      0xffffffffffffffffffffffffffffffffffffffff\n      and\n        /* \"contracts/PetitionPlatform.sol\":3541:3551  msg.sender */\n      caller\n        /* \"contracts/PetitionPlatform.sol\":3553:3563  1 * 10**18 */\n      0x0de0b6b3a7640000\n        /* \"contracts/PetitionPlatform.sol\":3488:3564  abi.encodeWithSignature(\"burnFrom(address,uint256)\", msg.sender, 1 * 10**18) */\n      add(0x24, mload(0x40))\n      tag_198\n      swap3\n      swap2\n      swap1\n      tag_199\n      jump\t// in\n    tag_198:\n      mload(0x40)\n      0x20\n      dup2\n      dup4\n      sub\n      sub\n      dup2\n      mstore\n      swap1\n      0x40\n      mstore\n      and(not(0xffffffffffffffffffffffffffffffffffffffffffffffffffffffff), 0x79cc679000000000000000000000000000000000000000000000000000000000)\n      0x20\n      dup3\n      add\n      dup1\n      mload\n      0xffffffffffffffffffffffffffffffffffffffffffffffffffffffff\n      dup4\n      dup2\n      dup4\n      and\n      or\n      dup4\n      mstore\n      pop\n      pop\n      pop\n      pop\n        /* \"contracts/PetitionPlatform.sol\":3451:3579  campaignToken.call(... */\n      mload(0x40)\n      tag_200\n      swap2\n      swap1\n      tag_201\n      jump\t// in\n    tag_200:\n      0x00\n      mload(0x40)\n      dup1\n      dup4\n      sub\n      dup2\n      0x00\n      dup7\n      gas\n      call\n      swap2\n      pop\n      pop\n      returndatasize\n      dup1\n      0x00\n      dup2\n      eq\n      tag_204\n      jumpi\n      mload(0x40)\n      swap2\n      pop\n      and(add(returndatasize, 0x3f), not(0x1f))\n      dup3\n      add\n      0x40\n      mstore\n      returndatasize\n      dup3\n      mstore\n      returndatasize\n      0x00\n      0x20\n      dup5\n      add\n      returndatacopy\n      jump(tag_203)\n    tag_204:\n      0x60\n      swap2\n      pop\n    tag_203:\n      pop\n        /* \"contracts/PetitionPlatform.sol\":3432:3579  (bool success, ) = campaignToken.call(... */\n      pop\n      swap1\n      pop\n        /* \"contracts/PetitionPlatform.sol\":3602:3609  success */\n      dup1\n        /* \"contracts/PetitionPlatform.sol\":3594:3631  require(success, \"Token burn failed\") */\n      tag_205\n      jumpi\n      mload(0x40)\n      0x08c379a000000000000000000000000000000000000000000000000000000000\n      dup2\n      mstore\n      0x04\n      add\n      tag_206\n      swap1\n      tag_207\n      jump\t// in\n    tag_206:\n      mload(0x40)\n      dup1\n      swap2\n      sub\n      swap1\n      revert\n    tag_205:\n        /* \"contracts/PetitionPlatform.sol\":3658:3662  true */\n      0x01\n        /* \"contracts/PetitionPlatform.sol\":3646:3662  usedToken = true */\n      swap3\n      pop\n        /* \"contracts/PetitionPlatform.sol\":3377:3674  {... */\n      pop\n        /* \"contracts/PetitionPlatform.sol\":3341:4304  if (userTokenBalance >= 1 * 10**18) {... */\n      jump(tag_208)\n    tag_197:\n        /* \"contracts/PetitionPlatform.sol\":3770:3781  campaignFee */\n      sload(0x05)\n        /* \"contracts/PetitionPlatform.sol\":3757:3766  msg.value */\n      callvalue\n        /* \"contracts/PetitionPlatform.sol\":3757:3781  msg.value >= campaignFee */\n      lt\n      iszero\n        /* \"contracts/PetitionPlatform.sol\":3749:3802  require(msg.value >= campaignFee, \"Insufficient fee\") */\n      tag_209\n      jumpi\n      mload(0x40)\n      0x08c379a000000000000000000000000000000000000000000000000000000000\n      dup2\n      mstore\n      0x04\n      add\n      tag_210\n      swap1\n      tag_211\n      jump\t// in\n    tag_210:\n      mload(0x40)\n      dup1\n      swap2\n      sub\n      swap1\n      revert\n    tag_209:\n        /* \"contracts/PetitionPlatform.sol\":3817:3834  paidPetitionCount */\n      0x08\n        /* \"contracts/PetitionPlatform.sol\":3817:3846  paidPetitionCount[msg.sender] */\n      0x00\n        /* \"contracts/PetitionPlatform.sol\":3835:3845  msg.sender */\n      caller\n        /* \"contracts/PetitionPlatform.sol\":3817:3846  paidPetitionCount[msg.sender] */\n      0xffffffffffffffffffffffffffffffffffffffff\n      and\n      0xffffffffffffffffffffffffffffffffffffffff\n      and\n      dup2\n      mstore\n      0x20\n      add\n      swap1\n      dup2\n      mstore\n      0x20\n      add\n      0x00\n      keccak256\n      0x00\n        /* \"contracts/PetitionPlatform.sol\":3817:3848  paidPetitionCount[msg.sender]++ */\n      dup2\n      sload\n      dup1\n      swap3\n      swap2\n      swap1\n      tag_212\n      swap1\n      tag_213\n      jump\t// in\n    tag_212:\n      swap2\n      swap1\n      pop\n      sstore\n      pop\n        /* \"contracts/PetitionPlatform.sol\":3983:3984  0 */\n      0x00\n        /* \"contracts/PetitionPlatform.sol\":3964:3979  rewardThreshold */\n      sload(0x06)\n        /* \"contracts/PetitionPlatform.sol\":3932:3949  paidPetitionCount */\n      0x08\n        /* \"contracts/PetitionPlatform.sol\":3932:3961  paidPetitionCount[msg.sender] */\n      0x00\n        /* \"contracts/PetitionPlatform.sol\":3950:3960  msg.sender */\n      caller\n        /* \"contracts/PetitionPlatform.sol\":3932:3961  paidPetitionCount[msg.sender] */\n      0xffffffffffffffffffffffffffffffffffffffff\n      and\n      0xffffffffffffffffffffffffffffffffffffffff\n      and\n      dup2\n      mstore\n      0x20\n      add\n      swap1\n      dup2\n      mstore\n      0x20\n      add\n      0x00\n      keccak256\n      sload\n        /* \"contracts/PetitionPlatform.sol\":3932:3979  paidPetitionCount[msg.sender] % rewardThreshold */\n      tag_214\n      swap2\n      swap1\n      tag_215\n      jump\t// in\n    tag_214:\n        /* \"contracts/PetitionPlatform.sol\":3932:3984  paidPetitionCount[msg.sender] % rewardThreshold == 0 */\n      sub\n        /* \"contracts/PetitionPlatform.sol\":3928:4293  if (paidPetitionCount[msg.sender] % rewardThreshold == 0) {... */\n      tag_216\n      jumpi\n        /* \"contracts/PetitionPlatform.sol\":4006:4018  bool success */\n      0x00\n        /* \"contracts/PetitionPlatform.sol\":4024:4037  campaignToken */\n      0x03\n      0x00\n      swap1\n      sload\n      swap1\n      0x0100\n      exp\n      swap1\n      div\n      0xffffffffffffffffffffffffffffffffffffffff\n      and\n        /* \"contracts/PetitionPlatform.sol\":4024:4042  campaignToken.call */\n      0xffffffffffffffffffffffffffffffffffffffff\n      and\n        /* \"contracts/PetitionPlatform.sol\":4114:4124  msg.sender */\n      caller\n        /* \"contracts/PetitionPlatform.sol\":4126:4136  1 * 10**18 */\n      0x0de0b6b3a7640000\n        /* \"contracts/PetitionPlatform.sol\":4065:4137  abi.encodeWithSignature(\"mint(address,uint256)\", msg.sender, 1 * 10**18) */\n      add(0x24, mload(0x40))\n      tag_217\n      swap3\n      swap2\n      swap1\n      tag_199\n      jump\t// in\n    tag_217:\n      mload(0x40)\n      0x20\n      dup2\n      dup4\n      sub\n      sub\n      dup2\n      mstore\n      swap1\n      0x40\n      mstore\n      and(not(0xffffffffffffffffffffffffffffffffffffffffffffffffffffffff), 0x40c10f1900000000000000000000000000000000000000000000000000000000)\n      0x20\n      dup3\n      add\n      dup1\n      mload\n      0xffffffffffffffffffffffffffffffffffffffffffffffffffffffff\n      dup4\n      dup2\n      dup4\n      and\n      or\n      dup4\n      mstore\n      pop\n      pop\n      pop\n      pop\n        /* \"contracts/PetitionPlatform.sol\":4024:4156  campaignToken.call(... */\n      mload(0x40)\n      tag_218\n      swap2\n      swap1\n      tag_201\n      jump\t// in\n    tag_218:\n      0x00\n      mload(0x40)\n      dup1\n      dup4\n      sub\n      dup2\n      0x00\n      dup7\n      gas\n      call\n      swap2\n      pop\n      pop\n      returndatasize\n      dup1\n      0x00\n      dup2\n      eq\n      tag_221\n      jumpi\n      mload(0x40)\n      swap2\n      pop\n      and(add(returndatasize, 0x3f), not(0x1f))\n      dup3\n      add\n      0x40\n      mstore\n      returndatasize\n      dup3\n      mstore\n      returndatasize\n      0x00\n      0x20\n      dup5\n      add\n      returndatacopy\n      jump(tag_220)\n    tag_221:\n      0x60\n      swap2\n      pop\n    tag_220:\n      pop\n        /* \"contracts/PetitionPlatform.sol\":4005:4156  (bool success, ) = campaignToken.call(... */\n      pop\n      swap1\n      pop\n        /* \"contracts/PetitionPlatform.sol\":4183:4190  success */\n      dup1\n        /* \"contracts/PetitionPlatform.sol\":4175:4212  require(success, \"Token mint failed\") */\n      tag_222\n      jumpi\n      mload(0x40)\n      0x08c379a000000000000000000000000000000000000000000000000000000000\n      dup2\n      mstore\n      0x04\n      add\n      tag_223\n      swap1\n      tag_224\n      jump\t// in\n    tag_223:\n      mload(0x40)\n      dup1\n      swap2\n      sub\n      swap1\n      revert\n    tag_222:\n        /* \"contracts/PetitionPlatform.sol\":4254:4264  msg.sender */\n      caller\n        /* \"contracts/PetitionPlatform.sol\":4236:4277  RewardTokenMinted(msg.sender, 1 * 10**18) */\n      0xffffffffffffffffffffffffffffffffffffffff\n      and\n      0x851805430b76795c7338d40d064eb68ff06ea87e8e9518986018edb9f5590252\n        /* \"contracts/PetitionPlatform.sol\":4266:4276  1 * 10**18 */\n      0x0de0b6b3a7640000\n        /* \"contracts/PetitionPlatform.sol\":4236:4277  RewardTokenMinted(msg.sender, 1 * 10**18) */\n      mload(0x40)\n      tag_225\n      swap2\n      swap1\n      tag_226\n      jump\t// in\n    tag_225:\n      mload(0x40)\n      dup1\n      swap2\n      sub\n      swap1\n      log2\n        /* \"contracts/PetitionPlatform.sol\":3986:4293  {... */\n      pop\n        /* \"contracts/PetitionPlatform.sol\":3928:4293  if (paidPetitionCount[msg.sender] % rewardThreshold == 0) {... */\n    tag_216:\n        /* \"contracts/PetitionPlatform.sol\":3341:4304  if (userTokenBalance >= 1 * 10**18) {... */\n    tag_208:\n        /* \"contracts/PetitionPlatform.sol\":4324:4342  uint256 petitionId */\n      0x00\n        /* \"contracts/PetitionPlatform.sol\":4345:4360  petitionCounter */\n      sload(0x04)\n        /* \"contracts/PetitionPlatform.sol\":4324:4360  uint256 petitionId = petitionCounter */\n      swap1\n      pop\n        /* \"contracts/PetitionPlatform.sol\":4371:4386  petitionCounter */\n      0x04\n      0x00\n        /* \"contracts/PetitionPlatform.sol\":4371:4388  petitionCounter++ */\n      dup2\n      sload\n      dup1\n      swap3\n      swap2\n      swap1\n      tag_227\n      swap1\n      tag_213\n      jump\t// in\n    tag_227:\n      swap2\n      swap1\n      pop\n      sstore\n      pop\n        /* \"contracts/PetitionPlatform.sol\":4409:4425  uint256 deadline */\n      0x00\n        /* \"contracts/PetitionPlatform.sol\":4465:4471  1 days */\n      0x015180\n        /* \"contracts/PetitionPlatform.sol\":4447:4462  _durationInDays */\n      dup6\n        /* \"contracts/PetitionPlatform.sol\":4447:4471  _durationInDays * 1 days */\n      tag_228\n      swap2\n      swap1\n      tag_229\n      jump\t// in\n    tag_228:\n        /* \"contracts/PetitionPlatform.sol\":4428:4443  block.timestamp */\n      timestamp\n        /* \"contracts/PetitionPlatform.sol\":4428:4472  block.timestamp + (_durationInDays * 1 days) */\n      tag_230\n      swap2\n      swap1\n      tag_231\n      jump\t// in\n    tag_230:\n        /* \"contracts/PetitionPlatform.sol\":4409:4472  uint256 deadline = block.timestamp + (_durationInDays * 1 days) */\n      swap1\n      pop\n        /* \"contracts/PetitionPlatform.sol\":4517:4804  Petition({... */\n      mload(0x40)\n      dup1\n      0x0100\n      add\n      0x40\n      mstore\n      dup1\n        /* \"contracts/PetitionPlatform.sol\":4545:4555  petitionId */\n      dup4\n        /* \"contracts/PetitionPlatform.sol\":4517:4804  Petition({... */\n      dup2\n      mstore\n      0x20\n      add\n        /* \"contracts/PetitionPlatform.sol\":4577:4583  _title */\n      dup9\n        /* \"contracts/PetitionPlatform.sol\":4517:4804  Petition({... */\n      dup2\n      mstore\n      0x20\n      add\n        /* \"contracts/PetitionPlatform.sol\":4611:4623  _description */\n      dup8\n        /* \"contracts/PetitionPlatform.sol\":4517:4804  Petition({... */\n      dup2\n      mstore\n      0x20\n      add\n        /* \"contracts/PetitionPlatform.sol\":4647:4657  msg.sender */\n      caller\n        /* \"contracts/PetitionPlatform.sol\":4517:4804  Petition({... */\n      0xffffffffffffffffffffffffffffffffffffffff\n      and\n      dup2\n      mstore\n      0x20\n      add\n        /* \"contracts/PetitionPlatform.sol\":4683:4698  block.timestamp */\n      timestamp\n        /* \"contracts/PetitionPlatform.sol\":4517:4804  Petition({... */\n      dup2\n      mstore\n      0x20\n      add\n        /* \"contracts/PetitionPlatform.sol\":4723:4731  deadline */\n      dup3\n        /* \"contracts/PetitionPlatform.sol\":4517:4804  Petition({... */\n      dup2\n      mstore\n      0x20\n      add\n        /* \"contracts/PetitionPlatform.sol\":4762:4763  0 */\n      0x00\n        /* \"contracts/PetitionPlatform.sol\":4517:4804  Petition({... */\n      dup2\n      mstore\n      0x20\n      add\n        /* \"contracts/PetitionPlatform.sol\":4788:4792  true */\n      0x01\n        /* \"contracts/PetitionPlatform.sol\":4517:4804  Petition({... */\n      iszero\n      iszero\n      dup2\n      mstore\n      pop\n        /* \"contracts/PetitionPlatform.sol\":4493:4502  petitions */\n      0x07\n        /* \"contracts/PetitionPlatform.sol\":4493:4514  petitions[petitionId] */\n      0x00\n        /* \"contracts/PetitionPlatform.sol\":4503:4513  petitionId */\n      dup5\n        /* \"contracts/PetitionPlatform.sol\":4493:4514  petitions[petitionId] */\n      dup2\n      mstore\n      0x20\n      add\n      swap1\n      dup2\n      mstore\n      0x20\n      add\n      0x00\n      keccak256\n        /* \"contracts/PetitionPlatform.sol\":4493:4804  petitions[petitionId] = Petition({... */\n      0x00\n      dup3\n      add\n      mload\n      dup2\n      0x00\n      add\n      sstore\n      0x20\n      dup3\n      add\n      mload\n      dup2\n      0x01\n      add\n      swap1\n      dup2\n      tag_232\n      swap2\n      swap1\n      tag_233\n      jump\t// in\n    tag_232:\n      pop\n      0x40\n      dup3\n      add\n      mload\n      dup2\n      0x02\n      add\n      swap1\n      dup2\n      tag_234\n      swap2\n      swap1\n      tag_233\n      jump\t// in\n    tag_234:\n      pop\n      0x60\n      dup3\n      add\n      mload\n      dup2\n      0x03\n      add\n      exp(0x0100, 0x00)\n      dup2\n      sload\n      dup2\n      0xffffffffffffffffffffffffffffffffffffffff\n      mul\n      not\n      and\n      swap1\n      dup4\n      0xffffffffffffffffffffffffffffffffffffffff\n      and\n      mul\n      or\n      swap1\n      sstore\n      pop\n      0x80\n      dup3\n      add\n      mload\n      dup2\n      0x04\n      add\n      sstore\n      0xa0\n      dup3\n      add\n      mload\n      dup2\n      0x05\n      add\n      sstore\n      0xc0\n      dup3\n      add\n      mload\n      dup2\n      0x06\n      add\n      sstore\n      0xe0\n      dup3\n      add\n      mload\n      dup2\n      0x07\n      add\n      exp(0x0100, 0x00)\n      dup2\n      sload\n      dup2\n      0xff\n      mul\n      not\n      and\n      swap1\n      dup4\n      iszero\n      iszero\n      mul\n      or\n      swap1\n      sstore\n      pop\n      swap1\n      pop\n      pop\n        /* \"contracts/PetitionPlatform.sol\":4858:4868  msg.sender */\n      caller\n        /* \"contracts/PetitionPlatform.sol\":4830:4898  PetitionCreated(petitionId, msg.sender, _title, deadline, usedToken) */\n      0xffffffffffffffffffffffffffffffffffffffff\n      and\n        /* \"contracts/PetitionPlatform.sol\":4846:4856  petitionId */\n      dup3\n        /* \"contracts/PetitionPlatform.sol\":4830:4898  PetitionCreated(petitionId, msg.sender, _title, deadline, usedToken) */\n      0x23a303dc33f80786069d2624c4fce431a8ab64cffc5f57f5875102d02f5c3547\n        /* \"contracts/PetitionPlatform.sol\":4870:4876  _title */\n      dup10\n        /* \"contracts/PetitionPlatform.sol\":4878:4886  deadline */\n      dup5\n        /* \"contracts/PetitionPlatform.sol\":4888:4897  usedToken */\n      dup9\n        /* \"contracts/PetitionPlatform.sol\":4830:4898  PetitionCreated(petitionId, msg.sender, _title, deadline, usedToken) */\n      mload(0x40)\n      tag_235\n      swap4\n      swap3\n      swap2\n      swap1\n      tag_236\n      jump\t// in\n    tag_235:\n      mload(0x40)\n      dup1\n      swap2\n      sub\n      swap1\n      log3\n        /* \"contracts/PetitionPlatform.sol\":2840:4906  {... */\n      pop\n      pop\n      pop\n      pop\n        /* \"@openzeppelin/contracts/utils/ReentrancyGuard.sol\":2542:2562  _nonReentrantAfter() */\n      tag_237\n        /* \"@openzeppelin/contracts/utils/ReentrancyGuard.sol\":2542:2560  _nonReentrantAfter */\n      tag_238\n        /* \"@openzeppelin/contracts/utils/ReentrancyGuard.sol\":2542:2562  _nonReentrantAfter() */\n      jump\t// in\n    tag_237:\n        /* \"contracts/PetitionPlatform.sol\":2677:4906  function createPetition(... */\n      pop\n      pop\n      pop\n      jump\t// out\n        /* \"contracts/PetitionPlatform.sol\":5067:5676  function signPetition(uint256 _petitionId) external {... */\n    tag_99:\n        /* \"contracts/PetitionPlatform.sol\":5152:5167  petitionCounter */\n      sload(0x04)\n        /* \"contracts/PetitionPlatform.sol\":5138:5149  _petitionId */\n      dup2\n        /* \"contracts/PetitionPlatform.sol\":5138:5167  _petitionId < petitionCounter */\n      lt\n        /* \"contracts/PetitionPlatform.sol\":5130:5195  require(_petitionId < petitionCounter, \"Petition does not exist\") */\n      tag_240\n      jumpi\n      mload(0x40)\n      0x08c379a000000000000000000000000000000000000000000000000000000000\n      dup2\n      mstore\n      0x04\n      add\n      tag_241\n      swap1\n      tag_127\n      jump\t// in\n    tag_241:\n      mload(0x40)\n      dup1\n      swap2\n      sub\n      swap1\n      revert\n    tag_240:\n        /* \"contracts/PetitionPlatform.sol\":5206:5231  Petition storage petition */\n      0x00\n        /* \"contracts/PetitionPlatform.sol\":5234:5243  petitions */\n      0x07\n        /* \"contracts/PetitionPlatform.sol\":5234:5256  petitions[_petitionId] */\n      0x00\n        /* \"contracts/PetitionPlatform.sol\":5244:5255  _petitionId */\n      dup4\n        /* \"contracts/PetitionPlatform.sol\":5234:5256  petitions[_petitionId] */\n      dup2\n      mstore\n      0x20\n      add\n      swap1\n      dup2\n      mstore\n      0x20\n      add\n      0x00\n      keccak256\n        /* \"contracts/PetitionPlatform.sol\":5206:5256  Petition storage petition = petitions[_petitionId] */\n      swap1\n      pop\n        /* \"contracts/PetitionPlatform.sol\":5285:5293  petition */\n      dup1\n        /* \"contracts/PetitionPlatform.sol\":5285:5302  petition.isActive */\n      0x07\n      add\n      0x00\n      swap1\n      sload\n      swap1\n      0x0100\n      exp\n      swap1\n      div\n      0xff\n      and\n        /* \"contracts/PetitionPlatform.sol\":5277:5329  require(petition.isActive, \"Petition is not active\") */\n      tag_242\n      jumpi\n      mload(0x40)\n      0x08c379a000000000000000000000000000000000000000000000000000000000\n      dup2\n      mstore\n      0x04\n      add\n      tag_243\n      swap1\n      tag_244\n      jump\t// in\n    tag_243:\n      mload(0x40)\n      dup1\n      swap2\n      sub\n      swap1\n      revert\n    tag_242:\n        /* \"contracts/PetitionPlatform.sol\":5367:5375  petition */\n      dup1\n        /* \"contracts/PetitionPlatform.sol\":5367:5384  petition.deadline */\n      0x05\n      add\n      sload\n        /* \"contracts/PetitionPlatform.sol\":5348:5363  block.timestamp */\n      timestamp\n        /* \"contracts/PetitionPlatform.sol\":5348:5384  block.timestamp <= petition.deadline */\n      gt\n      iszero\n        /* \"contracts/PetitionPlatform.sol\":5340:5407  require(block.timestamp <= petition.deadline, \"Petition has ended\") */\n      tag_245\n      jumpi\n      mload(0x40)\n      0x08c379a000000000000000000000000000000000000000000000000000000000\n      dup2\n      mstore\n      0x04\n      add\n      tag_246\n      swap1\n      tag_247\n      jump\t// in\n    tag_246:\n      mload(0x40)\n      dup1\n      swap2\n      sub\n      swap1\n      revert\n    tag_245:\n        /* \"contracts/PetitionPlatform.sol\":5427:5436  hasSigned */\n      0x09\n        /* \"contracts/PetitionPlatform.sol\":5427:5449  hasSigned[_petitionId] */\n      0x00\n        /* \"contracts/PetitionPlatform.sol\":5437:5448  _petitionId */\n      dup4\n        /* \"contracts/PetitionPlatform.sol\":5427:5449  hasSigned[_petitionId] */\n      dup2\n      mstore\n      0x20\n      add\n      swap1\n      dup2\n      mstore\n      0x20\n      add\n      0x00\n      keccak256\n        /* \"contracts/PetitionPlatform.sol\":5427:5461  hasSigned[_petitionId][msg.sender] */\n      0x00\n        /* \"contracts/PetitionPlatform.sol\":5450:5460  msg.sender */\n      caller\n        /* \"contracts/PetitionPlatform.sol\":5427:5461  hasSigned[_petitionId][msg.sender] */\n      0xffffffffffffffffffffffffffffffffffffffff\n      and\n      0xffffffffffffffffffffffffffffffffffffffff\n      and\n      dup2\n      mstore\n      0x20\n      add\n      swap1\n      dup2\n      mstore\n      0x20\n      add\n      0x00\n      keccak256\n      0x00\n      swap1\n      sload\n      swap1\n      0x0100\n      exp\n      swap1\n      div\n      0xff\n      and\n        /* \"contracts/PetitionPlatform.sol\":5426:5461  !hasSigned[_petitionId][msg.sender] */\n      iszero\n        /* \"contracts/PetitionPlatform.sol\":5418:5480  require(!hasSigned[_petitionId][msg.sender], \"Already signed\") */\n      tag_248\n      jumpi\n      mload(0x40)\n      0x08c379a000000000000000000000000000000000000000000000000000000000\n      dup2\n      mstore\n      0x04\n      add\n      tag_249\n      swap1\n      tag_250\n      jump\t// in\n    tag_249:\n      mload(0x40)\n      dup1\n      swap2\n      sub\n      swap1\n      revert\n    tag_248:\n        /* \"contracts/PetitionPlatform.sol\":5538:5542  true */\n      0x01\n        /* \"contracts/PetitionPlatform.sol\":5501:5510  hasSigned */\n      0x09\n        /* \"contracts/PetitionPlatform.sol\":5501:5523  hasSigned[_petitionId] */\n      0x00\n        /* \"contracts/PetitionPlatform.sol\":5511:5522  _petitionId */\n      dup5\n        /* \"contracts/PetitionPlatform.sol\":5501:5523  hasSigned[_petitionId] */\n      dup2\n      mstore\n      0x20\n      add\n      swap1\n      dup2\n      mstore\n      0x20\n      add\n      0x00\n      keccak256\n        /* \"contracts/PetitionPlatform.sol\":5501:5535  hasSigned[_petitionId][msg.sender] */\n      0x00\n        /* \"contracts/PetitionPlatform.sol\":5524:5534  msg.sender */\n      caller\n        /* \"contracts/PetitionPlatform.sol\":5501:5535  hasSigned[_petitionId][msg.sender] */\n      0xffffffffffffffffffffffffffffffffffffffff\n      and\n      0xffffffffffffffffffffffffffffffffffffffff\n      and\n      dup2\n      mstore\n      0x20\n      add\n      swap1\n      dup2\n      mstore\n      0x20\n      add\n      0x00\n      keccak256\n      0x00\n        /* \"contracts/PetitionPlatform.sol\":5501:5542  hasSigned[_petitionId][msg.sender] = true */\n      0x0100\n      exp\n      dup2\n      sload\n      dup2\n      0xff\n      mul\n      not\n      and\n      swap1\n      dup4\n      iszero\n      iszero\n      mul\n      or\n      swap1\n      sstore\n      pop\n        /* \"contracts/PetitionPlatform.sol\":5553:5561  petition */\n      dup1\n        /* \"contracts/PetitionPlatform.sol\":5553:5576  petition.signatureCount */\n      0x06\n      add\n      0x00\n        /* \"contracts/PetitionPlatform.sol\":5553:5578  petition.signatureCount++ */\n      dup2\n      sload\n      dup1\n      swap3\n      swap2\n      swap1\n      tag_251\n      swap1\n      tag_213\n      jump\t// in\n    tag_251:\n      swap2\n      swap1\n      pop\n      sstore\n      pop\n        /* \"contracts/PetitionPlatform.sol\":5632:5642  msg.sender */\n      caller\n        /* \"contracts/PetitionPlatform.sol\":5604:5668  PetitionSigned(_petitionId, msg.sender, petition.signatureCount) */\n      0xffffffffffffffffffffffffffffffffffffffff\n      and\n        /* \"contracts/PetitionPlatform.sol\":5619:5630  _petitionId */\n      dup3\n        /* \"contracts/PetitionPlatform.sol\":5604:5668  PetitionSigned(_petitionId, msg.sender, petition.signatureCount) */\n      0xa504fa1a622895e43328023a9fa609eebec933d785df4e1b4f33c587d12d835d\n        /* \"contracts/PetitionPlatform.sol\":5644:5652  petition */\n      dup4\n        /* \"contracts/PetitionPlatform.sol\":5644:5667  petition.signatureCount */\n      0x06\n      add\n      sload\n        /* \"contracts/PetitionPlatform.sol\":5604:5668  PetitionSigned(_petitionId, msg.sender, petition.signatureCount) */\n      mload(0x40)\n      tag_252\n      swap2\n      swap1\n      tag_37\n      jump\t// in\n    tag_252:\n      mload(0x40)\n      dup1\n      swap2\n      sub\n      swap1\n      log3\n        /* \"contracts/PetitionPlatform.sol\":5119:5676  {... */\n      pop\n        /* \"contracts/PetitionPlatform.sol\":5067:5676  function signPetition(uint256 _petitionId) external {... */\n      pop\n      jump\t// out\n        /* \"contracts/PetitionPlatform.sol\":6867:7010  function hasUserSigned(uint256 _petitionId, address _user) external view returns (bool) {... */\n    tag_103:\n        /* \"contracts/PetitionPlatform.sol\":6949:6953  bool */\n      0x00\n        /* \"contracts/PetitionPlatform.sol\":6973:6982  hasSigned */\n      0x09\n        /* \"contracts/PetitionPlatform.sol\":6973:6995  hasSigned[_petitionId] */\n      0x00\n        /* \"contracts/PetitionPlatform.sol\":6983:6994  _petitionId */\n      dup5\n        /* \"contracts/PetitionPlatform.sol\":6973:6995  hasSigned[_petitionId] */\n      dup2\n      mstore\n      0x20\n      add\n      swap1\n      dup2\n      mstore\n      0x20\n      add\n      0x00\n      keccak256\n        /* \"contracts/PetitionPlatform.sol\":6973:7002  hasSigned[_petitionId][_user] */\n      0x00\n        /* \"contracts/PetitionPlatform.sol\":6996:7001  _user */\n      dup4\n        /* \"contracts/PetitionPlatform.sol\":6973:7002  hasSigned[_petitionId][_user] */\n      0xffffffffffffffffffffffffffffffffffffffff\n      and\n      0xffffffffffffffffffffffffffffffffffffffff\n      and\n      dup2\n      mstore\n      0x20\n      add\n      swap1\n      dup2\n      mstore\n      0x20\n      add\n      0x00\n      keccak256\n      0x00\n      swap1\n      sload\n      swap1\n      0x0100\n      exp\n      swap1\n      div\n      0xff\n      and\n        /* \"contracts/PetitionPlatform.sol\":6966:7002  return hasSigned[_petitionId][_user] */\n      swap1\n      pop\n        /* \"contracts/PetitionPlatform.sol\":6867:7010  function hasUserSigned(uint256 _petitionId, address _user) external view returns (bool) {... */\n      swap3\n      swap2\n      pop\n      pop\n      jump\t// out\n        /* \"contracts/PetitionPlatform.sol\":7086:7180  function setCampaignFee(uint256 _fee) external onlyOwner {... */\n    tag_108:\n        /* \"@openzeppelin/contracts/access/Ownable.sol\":1531:1544  _checkOwner() */\n      tag_255\n        /* \"@openzeppelin/contracts/access/Ownable.sol\":1531:1542  _checkOwner */\n      tag_151\n        /* \"@openzeppelin/contracts/access/Ownable.sol\":1531:1544  _checkOwner() */\n      jump\t// in\n    tag_255:\n        /* \"contracts/PetitionPlatform.sol\":7168:7172  _fee */\n      dup1\n        /* \"contracts/PetitionPlatform.sol\":7154:7165  campaignFee */\n      0x05\n        /* \"contracts/PetitionPlatform.sol\":7154:7172  campaignFee = _fee */\n      dup2\n      swap1\n      sstore\n      pop\n        /* \"contracts/PetitionPlatform.sol\":7086:7180  function setCampaignFee(uint256 _fee) external onlyOwner {... */\n      pop\n      jump\t// out\n        /* \"@openzeppelin/contracts/access/Ownable.sol\":2543:2758  function transferOwnership(address newOwner) public virtual onlyOwner {... */\n    tag_112:\n        /* \"@openzeppelin/contracts/access/Ownable.sol\":1531:1544  _checkOwner() */\n      tag_258\n        /* \"@openzeppelin/contracts/access/Ownable.sol\":1531:1542  _checkOwner */\n      tag_151\n        /* \"@openzeppelin/contracts/access/Ownable.sol\":1531:1544  _checkOwner() */\n      jump\t// in\n    tag_258:\n        /* \"@openzeppelin/contracts/access/Ownable.sol\":2647:2648  0 */\n      0x00\n        /* \"@openzeppelin/contracts/access/Ownable.sol\":2627:2649  newOwner == address(0) */\n      0xffffffffffffffffffffffffffffffffffffffff\n      and\n        /* \"@openzeppelin/contracts/access/Ownable.sol\":2627:2635  newOwner */\n      dup2\n        /* \"@openzeppelin/contracts/access/Ownable.sol\":2627:2649  newOwner == address(0) */\n      0xffffffffffffffffffffffffffffffffffffffff\n      and\n      sub\n        /* \"@openzeppelin/contracts/access/Ownable.sol\":2623:2714  if (newOwner == address(0)) {... */\n      tag_260\n      jumpi\n        /* \"@openzeppelin/contracts/access/Ownable.sol\":2700:2701  0 */\n      0x00\n        /* \"@openzeppelin/contracts/access/Ownable.sol\":2672:2703  OwnableInvalidOwner(address(0)) */\n      mload(0x40)\n      0x1e4fbdf700000000000000000000000000000000000000000000000000000000\n      dup2\n      mstore\n      0x04\n      add\n      tag_261\n      swap2\n      swap1\n      tag_79\n      jump\t// in\n    tag_261:\n      mload(0x40)\n      dup1\n      swap2\n      sub\n      swap1\n      revert\n        /* \"@openzeppelin/contracts/access/Ownable.sol\":2623:2714  if (newOwner == address(0)) {... */\n    tag_260:\n        /* \"@openzeppelin/contracts/access/Ownable.sol\":2723:2751  _transferOwnership(newOwner) */\n      tag_262\n        /* \"@openzeppelin/contracts/access/Ownable.sol\":2742:2750  newOwner */\n      dup2\n        /* \"@openzeppelin/contracts/access/Ownable.sol\":2723:2741  _transferOwnership */\n      tag_170\n        /* \"@openzeppelin/contracts/access/Ownable.sol\":2723:2751  _transferOwnership(newOwner) */\n      jump\t// in\n    tag_262:\n        /* \"@openzeppelin/contracts/access/Ownable.sol\":2543:2758  function transferOwnership(address newOwner) public virtual onlyOwner {... */\n      pop\n      jump\t// out\n        /* \"contracts/PetitionPlatform.sol\":5800:6282  function closePetition(uint256 _petitionId) external {... */\n    tag_116:\n        /* \"contracts/PetitionPlatform.sol\":5886:5901  petitionCounter */\n      sload(0x04)\n        /* \"contracts/PetitionPlatform.sol\":5872:5883  _petitionId */\n      dup2\n        /* \"contracts/PetitionPlatform.sol\":5872:5901  _petitionId < petitionCounter */\n      lt\n        /* \"contracts/PetitionPlatform.sol\":5864:5929  require(_petitionId < petitionCounter, \"Petition does not exist\") */\n      tag_264\n      jumpi\n      mload(0x40)\n      0x08c379a000000000000000000000000000000000000000000000000000000000\n      dup2\n      mstore\n      0x04\n      add\n      tag_265\n      swap1\n      tag_127\n      jump\t// in\n    tag_265:\n      mload(0x40)\n      dup1\n      swap2\n      sub\n      swap1\n      revert\n    tag_264:\n        /* \"contracts/PetitionPlatform.sol\":5940:5965  Petition storage petition */\n      0x00\n        /* \"contracts/PetitionPlatform.sol\":5968:5977  petitions */\n      0x07\n        /* \"contracts/PetitionPlatform.sol\":5968:5990  petitions[_petitionId] */\n      0x00\n        /* \"contracts/PetitionPlatform.sol\":5978:5989  _petitionId */\n      dup4\n        /* \"contracts/PetitionPlatform.sol\":5968:5990  petitions[_petitionId] */\n      dup2\n      mstore\n      0x20\n      add\n      swap1\n      dup2\n      mstore\n      0x20\n      add\n      0x00\n      keccak256\n        /* \"contracts/PetitionPlatform.sol\":5940:5990  Petition storage petition = petitions[_petitionId] */\n      swap1\n      pop\n        /* \"contracts/PetitionPlatform.sol\":6047:6055  petition */\n      dup1\n        /* \"contracts/PetitionPlatform.sol\":6047:6063  petition.creator */\n      0x03\n      add\n      0x00\n      swap1\n      sload\n      swap1\n      0x0100\n      exp\n      swap1\n      div\n      0xffffffffffffffffffffffffffffffffffffffff\n      and\n        /* \"contracts/PetitionPlatform.sol\":6033:6063  msg.sender == petition.creator */\n      0xffffffffffffffffffffffffffffffffffffffff\n      and\n        /* \"contracts/PetitionPlatform.sol\":6033:6043  msg.sender */\n      caller\n        /* \"contracts/PetitionPlatform.sol\":6033:6063  msg.sender == petition.creator */\n      0xffffffffffffffffffffffffffffffffffffffff\n      and\n      eq\n        /* \"contracts/PetitionPlatform.sol\":6033:6088  msg.sender == petition.creator || msg.sender == owner() */\n      dup1\n      tag_266\n      jumpi\n      pop\n        /* \"contracts/PetitionPlatform.sol\":6081:6088  owner() */\n      tag_267\n        /* \"contracts/PetitionPlatform.sol\":6081:6086  owner */\n      tag_86\n        /* \"contracts/PetitionPlatform.sol\":6081:6088  owner() */\n      jump\t// in\n    tag_267:\n        /* \"contracts/PetitionPlatform.sol\":6067:6088  msg.sender == owner() */\n      0xffffffffffffffffffffffffffffffffffffffff\n      and\n        /* \"contracts/PetitionPlatform.sol\":6067:6077  msg.sender */\n      caller\n        /* \"contracts/PetitionPlatform.sol\":6067:6088  msg.sender == owner() */\n      0xffffffffffffffffffffffffffffffffffffffff\n      and\n      eq\n        /* \"contracts/PetitionPlatform.sol\":6033:6088  msg.sender == petition.creator || msg.sender == owner() */\n    tag_266:\n        /* \"contracts/PetitionPlatform.sol\":6011:6130  require(... */\n      tag_268\n      jumpi\n      mload(0x40)\n      0x08c379a000000000000000000000000000000000000000000000000000000000\n      dup2\n      mstore\n      0x04\n      add\n      tag_269\n      swap1\n      tag_270\n      jump\t// in\n    tag_269:\n      mload(0x40)\n      dup1\n      swap2\n      sub\n      swap1\n      revert\n    tag_268:\n        /* \"contracts/PetitionPlatform.sol\":6149:6157  petition */\n      dup1\n        /* \"contracts/PetitionPlatform.sol\":6149:6166  petition.isActive */\n      0x07\n      add\n      0x00\n      swap1\n      sload\n      swap1\n      0x0100\n      exp\n      swap1\n      div\n      0xff\n      and\n        /* \"contracts/PetitionPlatform.sol\":6141:6185  require(petition.isActive, \"Already closed\") */\n      tag_271\n      jumpi\n      mload(0x40)\n      0x08c379a000000000000000000000000000000000000000000000000000000000\n      dup2\n      mstore\n      0x04\n      add\n      tag_272\n      swap1\n      tag_273\n      jump\t// in\n    tag_272:\n      mload(0x40)\n      dup1\n      swap2\n      sub\n      swap1\n      revert\n    tag_271:\n        /* \"contracts/PetitionPlatform.sol\":6226:6231  false */\n      0x00\n        /* \"contracts/PetitionPlatform.sol\":6206:6214  petition */\n      dup2\n        /* \"contracts/PetitionPlatform.sol\":6206:6223  petition.isActive */\n      0x07\n      add\n      0x00\n        /* \"contracts/PetitionPlatform.sol\":6206:6231  petition.isActive = false */\n      0x0100\n      exp\n      dup2\n      sload\n      dup2\n      0xff\n      mul\n      not\n      and\n      swap1\n      dup4\n      iszero\n      iszero\n      mul\n      or\n      swap1\n      sstore\n      pop\n        /* \"contracts/PetitionPlatform.sol\":6262:6273  _petitionId */\n      dup2\n        /* \"contracts/PetitionPlatform.sol\":6247:6274  PetitionClosed(_petitionId) */\n      0x60f9b8db8de8d36d1b8b158b5929ed13941e7bc1dfbc4e720df073924161491b\n      mload(0x40)\n      mload(0x40)\n      dup1\n      swap2\n      sub\n      swap1\n      log2\n        /* \"contracts/PetitionPlatform.sol\":5853:6282  {... */\n      pop\n        /* \"contracts/PetitionPlatform.sol\":5800:6282  function closePetition(uint256 _petitionId) external {... */\n      pop\n      jump\t// out\n        /* \"contracts/PetitionPlatform.sol\":1195:1247  mapping(address => uint256) public paidPetitionCount */\n    tag_120:\n      mstore(0x20, 0x08)\n      dup1\n      0x00\n      mstore\n      keccak256(0x00, 0x40)\n      0x00\n      swap2\n      pop\n      swap1\n      pop\n      sload\n      dup2\n      jump\t// out\n        /* \"@openzeppelin/contracts/access/Ownable.sol\":1796:1958  function _checkOwner() internal view virtual {... */\n    tag_151:\n        /* \"@openzeppelin/contracts/access/Ownable.sol\":1866:1878  _msgSender() */\n      tag_275\n        /* \"@openzeppelin/contracts/access/Ownable.sol\":1866:1876  _msgSender */\n      tag_276\n        /* \"@openzeppelin/contracts/access/Ownable.sol\":1866:1878  _msgSender() */\n      jump\t// in\n    tag_275:\n        /* \"@openzeppelin/contracts/access/Ownable.sol\":1855:1878  owner() != _msgSender() */\n      0xffffffffffffffffffffffffffffffffffffffff\n      and\n        /* \"@openzeppelin/contracts/access/Ownable.sol\":1855:1862  owner() */\n      tag_277\n        /* \"@openzeppelin/contracts/access/Ownable.sol\":1855:1860  owner */\n      tag_86\n        /* \"@openzeppelin/contracts/access/Ownable.sol\":1855:1862  owner() */\n      jump\t// in\n    tag_277:\n        /* \"@openzeppelin/contracts/access/Ownable.sol\":1855:1878  owner() != _msgSender() */\n      0xffffffffffffffffffffffffffffffffffffffff\n      and\n      eq\n        /* \"@openzeppelin/contracts/access/Ownable.sol\":1851:1952  if (owner() != _msgSender()) {... */\n      tag_278\n      jumpi\n        /* \"@openzeppelin/contracts/access/Ownable.sol\":1928:1940  _msgSender() */\n      tag_279\n        /* \"@openzeppelin/contracts/access/Ownable.sol\":1928:1938  _msgSender */\n      tag_276\n        /* \"@openzeppelin/contracts/access/Ownable.sol\":1928:1940  _msgSender() */\n      jump\t// in\n    tag_279:\n        /* \"@openzeppelin/contracts/access/Ownable.sol\":1901:1941  OwnableUnauthorizedAccount(_msgSender()) */\n      mload(0x40)\n      0x118cdaa700000000000000000000000000000000000000000000000000000000\n      dup2\n      mstore\n      0x04\n      add\n      tag_280\n      swap2\n      swap1\n      tag_79\n      jump\t// in\n    tag_280:\n      mload(0x40)\n      dup1\n      swap2\n      sub\n      swap1\n      revert\n        /* \"@openzeppelin/contracts/access/Ownable.sol\":1851:1952  if (owner() != _msgSender()) {... */\n    tag_278:\n        /* \"@openzeppelin/contracts/access/Ownable.sol\":1796:1958  function _checkOwner() internal view virtual {... */\n      jump\t// out\n        /* \"@openzeppelin/contracts/access/Ownable.sol\":2912:3099  function _transferOwnership(address newOwner) internal virtual {... */\n    tag_170:\n        /* \"@openzeppelin/contracts/access/Ownable.sol\":2985:3001  address oldOwner */\n      0x00\n        /* \"@openzeppelin/contracts/access/Ownable.sol\":3004:3010  _owner */\n      0x00\n      0x00\n      swap1\n      sload\n      swap1\n      0x0100\n      exp\n      swap1\n      div\n      0xffffffffffffffffffffffffffffffffffffffff\n      and\n        /* \"@openzeppelin/contracts/access/Ownable.sol\":2985:3010  address oldOwner = _owner */\n      swap1\n      pop\n        /* \"@openzeppelin/contracts/access/Ownable.sol\":3029:3037  newOwner */\n      dup2\n        /* \"@openzeppelin/contracts/access/Ownable.sol\":3020:3026  _owner */\n      0x00\n      0x00\n        /* \"@openzeppelin/contracts/access/Ownable.sol\":3020:3037  _owner = newOwner */\n      0x0100\n      exp\n      dup2\n      sload\n      dup2\n      0xffffffffffffffffffffffffffffffffffffffff\n      mul\n      not\n      and\n      swap1\n      dup4\n      0xffffffffffffffffffffffffffffffffffffffff\n      and\n      mul\n      or\n      swap1\n      sstore\n      pop\n        /* \"@openzeppelin/contracts/access/Ownable.sol\":3083:3091  newOwner */\n      dup2\n        /* \"@openzeppelin/contracts/access/Ownable.sol\":3052:3092  OwnershipTransferred(oldOwner, newOwner) */\n      0xffffffffffffffffffffffffffffffffffffffff\n      and\n        /* \"@openzeppelin/contracts/access/Ownable.sol\":3073:3081  oldOwner */\n      dup2\n        /* \"@openzeppelin/contracts/access/Ownable.sol\":3052:3092  OwnershipTransferred(oldOwner, newOwner) */\n      0xffffffffffffffffffffffffffffffffffffffff\n      and\n      0x8be0079c531659141344cd1fd0a4f28419497f9722a3daafe3b4186f6b6457e0\n      mload(0x40)\n      mload(0x40)\n      dup1\n      swap2\n      sub\n      swap1\n      log3\n        /* \"@openzeppelin/contracts/access/Ownable.sol\":2975:3099  {... */\n      pop\n        /* \"@openzeppelin/contracts/access/Ownable.sol\":2912:3099  function _transferOwnership(address newOwner) internal virtual {... */\n      pop\n      jump\t// out\n        /* \"@openzeppelin/contracts/utils/ReentrancyGuard.sol\":2575:2882  function _nonReentrantBefore() private {... */\n    tag_175:\n        /* \"@openzeppelin/contracts/utils/ReentrancyGuard.sol\":1899:1900  2 */\n      0x02\n        /* \"@openzeppelin/contracts/utils/ReentrancyGuard.sol\":2702:2709  _status */\n      sload(0x01)\n        /* \"@openzeppelin/contracts/utils/ReentrancyGuard.sol\":2702:2720  _status == ENTERED */\n      sub\n        /* \"@openzeppelin/contracts/utils/ReentrancyGuard.sol\":2698:2784  if (_status == ENTERED) {... */\n      tag_283\n      jumpi\n        /* \"@openzeppelin/contracts/utils/ReentrancyGuard.sol\":2743:2773  ReentrancyGuardReentrantCall() */\n      mload(0x40)\n      0x3ee5aeb500000000000000000000000000000000000000000000000000000000\n      dup2\n      mstore\n      0x04\n      add\n      mload(0x40)\n      dup1\n      swap2\n      sub\n      swap1\n      revert\n        /* \"@openzeppelin/contracts/utils/ReentrancyGuard.sol\":2698:2784  if (_status == ENTERED) {... */\n    tag_283:\n        /* \"@openzeppelin/contracts/utils/ReentrancyGuard.sol\":1899:1900  2 */\n      0x02\n        /* \"@openzeppelin/contracts/utils/ReentrancyGuard.sol\":2858:2865  _status */\n      0x01\n        /* \"@openzeppelin/contracts/utils/ReentrancyGuard.sol\":2858:2875  _status = ENTERED */\n      dup2\n      swap1\n      sstore\n      pop\n        /* \"@openzeppelin/contracts/utils/ReentrancyGuard.sol\":2575:2882  function _nonReentrantBefore() private {... */\n      jump\t// out\n        /* \"contracts/PetitionPlatform.sol\":2194:2323  function isMember(address user) internal view returns (bool) {... */\n    tag_178:\n        /* \"contracts/PetitionPlatform.sol\":2249:2253  bool */\n      0x00\n        /* \"contracts/PetitionPlatform.sol\":2314:2315  0 */\n      0x00\n        /* \"contracts/PetitionPlatform.sol\":2281:2294  daoMembership */\n      0x02\n      0x00\n      swap1\n      sload\n      swap1\n      0x0100\n      exp\n      swap1\n      div\n      0xffffffffffffffffffffffffffffffffffffffff\n      and\n        /* \"contracts/PetitionPlatform.sol\":2273:2305  IERC721(daoMembership).balanceOf */\n      0xffffffffffffffffffffffffffffffffffffffff\n      and\n      0x70a08231\n        /* \"contracts/PetitionPlatform.sol\":2306:2310  user */\n      dup5\n        /* \"contracts/PetitionPlatform.sol\":2273:2311  IERC721(daoMembership).balanceOf(user) */\n      mload(0x40)\n      dup3\n      0xffffffff\n      and\n      0xe0\n      shl\n      dup2\n      mstore\n      0x04\n      add\n      tag_285\n      swap2\n      swap1\n      tag_79\n      jump\t// in\n    tag_285:\n      0x20\n      mload(0x40)\n      dup1\n      dup4\n      sub\n      dup2\n      dup7\n      gas\n      staticcall\n      iszero\n      dup1\n      iszero\n      tag_287\n      jumpi\n      returndatacopy(0x00, 0x00, returndatasize)\n      revert(0x00, returndatasize)\n    tag_287:\n      pop\n      pop\n      pop\n      pop\n      mload(0x40)\n      returndatasize\n      not(0x1f)\n      0x1f\n      dup3\n      add\n      and\n      dup3\n      add\n      dup1\n      0x40\n      mstore\n      pop\n      dup2\n      add\n      swap1\n      tag_288\n      swap2\n      swap1\n      tag_196\n      jump\t// in\n    tag_288:\n        /* \"contracts/PetitionPlatform.sol\":2273:2315  IERC721(daoMembership).balanceOf(user) > 0 */\n      gt\n        /* \"contracts/PetitionPlatform.sol\":2266:2315  return IERC721(daoMembership).balanceOf(user) > 0 */\n      swap1\n      pop\n        /* \"contracts/PetitionPlatform.sol\":2194:2323  function isMember(address user) internal view returns (bool) {... */\n      swap2\n      swap1\n      pop\n      jump\t// out\n        /* \"@openzeppelin/contracts/utils/ReentrancyGuard.sol\":2888:3096  function _nonReentrantAfter() private {... */\n    tag_238:\n        /* \"@openzeppelin/contracts/utils/ReentrancyGuard.sol\":1857:1858  1 */\n      0x01\n        /* \"@openzeppelin/contracts/utils/ReentrancyGuard.sol\":3068:3075  _status */\n      dup1\n        /* \"@openzeppelin/contracts/utils/ReentrancyGuard.sol\":3068:3089  _status = NOT_ENTERED */\n      dup2\n      swap1\n      sstore\n      pop\n        /* \"@openzeppelin/contracts/utils/ReentrancyGuard.sol\":2888:3096  function _nonReentrantAfter() private {... */\n      jump\t// out\n        /* \"@openzeppelin/contracts/utils/Context.sol\":656:752  function _msgSender() internal view virtual returns (address) {... */\n    tag_276:\n        /* \"@openzeppelin/contracts/utils/Context.sol\":709:716  address */\n      0x00\n        /* \"@openzeppelin/contracts/utils/Context.sol\":735:745  msg.sender */\n      caller\n        /* \"@openzeppelin/contracts/utils/Context.sol\":728:745  return msg.sender */\n      swap1\n      pop\n        /* \"@openzeppelin/contracts/utils/Context.sol\":656:752  function _msgSender() internal view virtual returns (address) {... */\n      swap1\n      jump\t// out\n    tag_123:\n      mload(0x40)\n      dup1\n      0x0100\n      add\n      0x40\n      mstore\n      dup1\n      0x00\n      dup2\n      mstore\n      0x20\n      add\n      0x60\n      dup2\n      mstore\n      0x20\n      add\n      0x60\n      dup2\n      mstore\n      0x20\n      add\n      and(0xffffffffffffffffffffffffffffffffffffffff, 0x00)\n      dup2\n      mstore\n      0x20\n      add\n      0x00\n      dup2\n      mstore\n      0x20\n      add\n      0x00\n      dup2\n      mstore\n      0x20\n      add\n      0x00\n      dup2\n      mstore\n      0x20\n      add\n      iszero(iszero(0x00))\n      dup2\n      mstore\n      pop\n      swap1\n      jump\t// out\n        /* \"#utility.yul\":7:82   */\n    tag_291:\n        /* \"#utility.yul\":40:46   */\n      0x00\n        /* \"#utility.yul\":73:75   */\n      0x40\n        /* \"#utility.yul\":67:76   */\n      mload\n        /* \"#utility.yul\":57:76   */\n      swap1\n      pop\n        /* \"#utility.yul\":7:82   */\n      swap1\n      jump\t// out\n        /* \"#utility.yul\":88:205   */\n    tag_292:\n        /* \"#utility.yul\":197:198   */\n      0x00\n        /* \"#utility.yul\":194:195   */\n      0x00\n        /* \"#utility.yul\":187:199   */\n      revert\n        /* \"#utility.yul\":211:328   */\n    tag_293:\n        /* \"#utility.yul\":320:321   */\n      0x00\n        /* \"#utility.yul\":317:318   */\n      0x00\n        /* \"#utility.yul\":310:322   */\n      revert\n        /* \"#utility.yul\":334:411   */\n    tag_294:\n        /* \"#utility.yul\":371:378   */\n      0x00\n        /* \"#utility.yul\":400:405   */\n      dup2\n        /* \"#utility.yul\":389:405   */\n      swap1\n      pop\n        /* \"#utility.yul\":334:411   */\n      swap2\n      swap1\n      pop\n      jump\t// out\n        /* \"#utility.yul\":417:539   */\n    tag_295:\n        /* \"#utility.yul\":490:514   */\n      tag_389\n        /* \"#utility.yul\":508:513   */\n      dup2\n        /* \"#utility.yul\":490:514   */\n      tag_294\n      jump\t// in\n    tag_389:\n        /* \"#utility.yul\":483:488   */\n      dup2\n        /* \"#utility.yul\":480:515   */\n      eq\n        /* \"#utility.yul\":470:533   */\n      tag_390\n      jumpi\n        /* \"#utility.yul\":529:530   */\n      0x00\n        /* \"#utility.yul\":526:527   */\n      0x00\n        /* \"#utility.yul\":519:531   */\n      revert\n        /* \"#utility.yul\":470:533   */\n    tag_390:\n        /* \"#utility.yul\":417:539   */\n      pop\n      jump\t// out\n        /* \"#utility.yul\":545:684   */\n    tag_296:\n        /* \"#utility.yul\":591:596   */\n      0x00\n        /* \"#utility.yul\":629:635   */\n      dup2\n        /* \"#utility.yul\":616:636   */\n      calldataload\n        /* \"#utility.yul\":607:636   */\n      swap1\n      pop\n        /* \"#utility.yul\":645:678   */\n      tag_392\n        /* \"#utility.yul\":672:677   */\n      dup2\n        /* \"#utility.yul\":645:678   */\n      tag_295\n      jump\t// in\n    tag_392:\n        /* \"#utility.yul\":545:684   */\n      swap3\n      swap2\n      pop\n      pop\n      jump\t// out\n        /* \"#utility.yul\":690:1019   */\n    tag_29:\n        /* \"#utility.yul\":749:755   */\n      0x00\n        /* \"#utility.yul\":798:800   */\n      0x20\n        /* \"#utility.yul\":786:795   */\n      dup3\n        /* \"#utility.yul\":777:784   */\n      dup5\n        /* \"#utility.yul\":773:796   */\n      sub\n        /* \"#utility.yul\":769:801   */\n      slt\n        /* \"#utility.yul\":766:885   */\n      iszero\n      tag_394\n      jumpi\n        /* \"#utility.yul\":804:883   */\n      tag_395\n      tag_292\n      jump\t// in\n    tag_395:\n        /* \"#utility.yul\":766:885   */\n    tag_394:\n        /* \"#utility.yul\":924:925   */\n      0x00\n        /* \"#utility.yul\":949:1002   */\n      tag_396\n        /* \"#utility.yul\":994:1001   */\n      dup5\n        /* \"#utility.yul\":985:991   */\n      dup3\n        /* \"#utility.yul\":974:983   */\n      dup6\n        /* \"#utility.yul\":970:992   */\n      add\n        /* \"#utility.yul\":949:1002   */\n      tag_296\n      jump\t// in\n    tag_396:\n        /* \"#utility.yul\":939:1002   */\n      swap2\n      pop\n        /* \"#utility.yul\":895:1012   */\n      pop\n        /* \"#utility.yul\":690:1019   */\n      swap3\n      swap2\n      pop\n      pop\n      jump\t// out\n        /* \"#utility.yul\":1025:1133   */\n    tag_297:\n        /* \"#utility.yul\":1102:1126   */\n      tag_398\n        /* \"#utility.yul\":1120:1125   */\n      dup2\n        /* \"#utility.yul\":1102:1126   */\n      tag_294\n      jump\t// in\n    tag_398:\n        /* \"#utility.yul\":1097:1100   */\n      dup3\n        /* \"#utility.yul\":1090:1127   */\n      mstore\n        /* \"#utility.yul\":1025:1133   */\n      pop\n      pop\n      jump\t// out\n        /* \"#utility.yul\":1139:1238   */\n    tag_298:\n        /* \"#utility.yul\":1191:1197   */\n      0x00\n        /* \"#utility.yul\":1225:1230   */\n      dup2\n        /* \"#utility.yul\":1219:1231   */\n      mload\n        /* \"#utility.yul\":1209:1231   */\n      swap1\n      pop\n        /* \"#utility.yul\":1139:1238   */\n      swap2\n      swap1\n      pop\n      jump\t// out\n        /* \"#utility.yul\":1244:1403   */\n    tag_299:\n        /* \"#utility.yul\":1318:1329   */\n      0x00\n        /* \"#utility.yul\":1352:1358   */\n      dup3\n        /* \"#utility.yul\":1347:1350   */\n      dup3\n        /* \"#utility.yul\":1340:1359   */\n      mstore\n        /* \"#utility.yul\":1392:1396   */\n      0x20\n        /* \"#utility.yul\":1387:1390   */\n      dup3\n        /* \"#utility.yul\":1383:1397   */\n      add\n        /* \"#utility.yul\":1368:1397   */\n      swap1\n      pop\n        /* \"#utility.yul\":1244:1403   */\n      swap3\n      swap2\n      pop\n      pop\n      jump\t// out\n        /* \"#utility.yul\":1409:1548   */\n    tag_300:\n        /* \"#utility.yul\":1498:1504   */\n      dup3\n        /* \"#utility.yul\":1493:1496   */\n      dup2\n        /* \"#utility.yul\":1488:1491   */\n      dup4\n        /* \"#utility.yul\":1482:1505   */\n      mcopy\n        /* \"#utility.yul\":1539:1540   */\n      0x00\n        /* \"#utility.yul\":1530:1536   */\n      dup4\n        /* \"#utility.yul\":1525:1528   */\n      dup4\n        /* \"#utility.yul\":1521:1537   */\n      add\n        /* \"#utility.yul\":1514:1541   */\n      mstore\n        /* \"#utility.yul\":1409:1548   */\n      pop\n      pop\n      pop\n      jump\t// out\n        /* \"#utility.yul\":1554:1656   */\n    tag_301:\n        /* \"#utility.yul\":1595:1601   */\n      0x00\n        /* \"#utility.yul\":1646:1648   */\n      0x1f\n        /* \"#utility.yul\":1642:1649   */\n      not\n        /* \"#utility.yul\":1637:1639   */\n      0x1f\n        /* \"#utility.yul\":1630:1635   */\n      dup4\n        /* \"#utility.yul\":1626:1640   */\n      add\n        /* \"#utility.yul\":1622:1650   */\n      and\n        /* \"#utility.yul\":1612:1650   */\n      swap1\n      pop\n        /* \"#utility.yul\":1554:1656   */\n      swap2\n      swap1\n      pop\n      jump\t// out\n        /* \"#utility.yul\":1662:2019   */\n    tag_302:\n        /* \"#utility.yul\":1740:1743   */\n      0x00\n        /* \"#utility.yul\":1768:1807   */\n      tag_404\n        /* \"#utility.yul\":1801:1806   */\n      dup3\n        /* \"#utility.yul\":1768:1807   */\n      tag_298\n      jump\t// in\n    tag_404:\n        /* \"#utility.yul\":1823:1884   */\n      tag_405\n        /* \"#utility.yul\":1877:1883   */\n      dup2\n        /* \"#utility.yul\":1872:1875   */\n      dup6\n        /* \"#utility.yul\":1823:1884   */\n      tag_299\n      jump\t// in\n    tag_405:\n        /* \"#utility.yul\":1816:1884   */\n      swap4\n      pop\n        /* \"#utility.yul\":1893:1958   */\n      tag_406\n        /* \"#utility.yul\":1951:1957   */\n      dup2\n        /* \"#utility.yul\":1946:1949   */\n      dup6\n        /* \"#utility.yul\":1939:1943   */\n      0x20\n        /* \"#utility.yul\":1932:1937   */\n      dup7\n        /* \"#utility.yul\":1928:1944   */\n      add\n        /* \"#utility.yul\":1893:1958   */\n      tag_300\n      jump\t// in\n    tag_406:\n        /* \"#utility.yul\":1983:2012   */\n      tag_407\n        /* \"#utility.yul\":2005:2011   */\n      dup2\n        /* \"#utility.yul\":1983:2012   */\n      tag_301\n      jump\t// in\n    tag_407:\n        /* \"#utility.yul\":1978:1981   */\n      dup5\n        /* \"#utility.yul\":1974:2013   */\n      add\n        /* \"#utility.yul\":1967:2013   */\n      swap2\n      pop\n        /* \"#utility.yul\":1744:2019   */\n      pop\n        /* \"#utility.yul\":1662:2019   */\n      swap3\n      swap2\n      pop\n      pop\n      jump\t// out\n        /* \"#utility.yul\":2025:2151   */\n    tag_303:\n        /* \"#utility.yul\":2062:2069   */\n      0x00\n        /* \"#utility.yul\":2102:2144   */\n      0xffffffffffffffffffffffffffffffffffffffff\n        /* \"#utility.yul\":2095:2100   */\n      dup3\n        /* \"#utility.yul\":2091:2145   */\n      and\n        /* \"#utility.yul\":2080:2145   */\n      swap1\n      pop\n        /* \"#utility.yul\":2025:2151   */\n      swap2\n      swap1\n      pop\n      jump\t// out\n        /* \"#utility.yul\":2157:2253   */\n    tag_304:\n        /* \"#utility.yul\":2194:2201   */\n      0x00\n        /* \"#utility.yul\":2223:2247   */\n      tag_410\n        /* \"#utility.yul\":2241:2246   */\n      dup3\n        /* \"#utility.yul\":2223:2247   */\n      tag_303\n      jump\t// in\n    tag_410:\n        /* \"#utility.yul\":2212:2247   */\n      swap1\n      pop\n        /* \"#utility.yul\":2157:2253   */\n      swap2\n      swap1\n      pop\n      jump\t// out\n        /* \"#utility.yul\":2259:2367   */\n    tag_305:\n        /* \"#utility.yul\":2336:2360   */\n      tag_412\n        /* \"#utility.yul\":2354:2359   */\n      dup2\n        /* \"#utility.yul\":2336:2360   */\n      tag_304\n      jump\t// in\n    tag_412:\n        /* \"#utility.yul\":2331:2334   */\n      dup3\n        /* \"#utility.yul\":2324:2361   */\n      mstore\n        /* \"#utility.yul\":2259:2367   */\n      pop\n      pop\n      jump\t// out\n        /* \"#utility.yul\":2373:2463   */\n    tag_306:\n        /* \"#utility.yul\":2407:2414   */\n      0x00\n        /* \"#utility.yul\":2450:2455   */\n      dup2\n        /* \"#utility.yul\":2443:2456   */\n      iszero\n        /* \"#utility.yul\":2436:2457   */\n      iszero\n        /* \"#utility.yul\":2425:2457   */\n      swap1\n      pop\n        /* \"#utility.yul\":2373:2463   */\n      swap2\n      swap1\n      pop\n      jump\t// out\n        /* \"#utility.yul\":2469:2568   */\n    tag_307:\n        /* \"#utility.yul\":2540:2561   */\n      tag_415\n        /* \"#utility.yul\":2555:2560   */\n      dup2\n        /* \"#utility.yul\":2540:2561   */\n      tag_306\n      jump\t// in\n    tag_415:\n        /* \"#utility.yul\":2535:2538   */\n      dup3\n        /* \"#utility.yul\":2528:2562   */\n      mstore\n        /* \"#utility.yul\":2469:2568   */\n      pop\n      pop\n      jump\t// out\n        /* \"#utility.yul\":2650:4399   */\n    tag_308:\n        /* \"#utility.yul\":2769:2772   */\n      0x00\n        /* \"#utility.yul\":2805:2811   */\n      0x0100\n        /* \"#utility.yul\":2800:2803   */\n      dup4\n        /* \"#utility.yul\":2796:2812   */\n      add\n        /* \"#utility.yul\":2892:2896   */\n      0x00\n        /* \"#utility.yul\":2885:2890   */\n      dup4\n        /* \"#utility.yul\":2881:2897   */\n      add\n        /* \"#utility.yul\":2875:2898   */\n      mload\n        /* \"#utility.yul\":2911:2974   */\n      tag_417\n        /* \"#utility.yul\":2968:2972   */\n      0x00\n        /* \"#utility.yul\":2963:2966   */\n      dup7\n        /* \"#utility.yul\":2959:2973   */\n      add\n        /* \"#utility.yul\":2945:2957   */\n      dup3\n        /* \"#utility.yul\":2911:2974   */\n      tag_297\n      jump\t// in\n    tag_417:\n        /* \"#utility.yul\":2822:2984   */\n      pop\n        /* \"#utility.yul\":3067:3071   */\n      0x20\n        /* \"#utility.yul\":3060:3065   */\n      dup4\n        /* \"#utility.yul\":3056:3072   */\n      add\n        /* \"#utility.yul\":3050:3073   */\n      mload\n        /* \"#utility.yul\":3120:3123   */\n      dup5\n        /* \"#utility.yul\":3114:3118   */\n      dup3\n        /* \"#utility.yul\":3110:3124   */\n      sub\n        /* \"#utility.yul\":3103:3107   */\n      0x20\n        /* \"#utility.yul\":3098:3101   */\n      dup7\n        /* \"#utility.yul\":3094:3108   */\n      add\n        /* \"#utility.yul\":3087:3125   */\n      mstore\n        /* \"#utility.yul\":3146:3219   */\n      tag_418\n        /* \"#utility.yul\":3214:3218   */\n      dup3\n        /* \"#utility.yul\":3200:3212   */\n      dup3\n        /* \"#utility.yul\":3146:3219   */\n      tag_302\n      jump\t// in\n    tag_418:\n        /* \"#utility.yul\":3138:3219   */\n      swap2\n      pop\n        /* \"#utility.yul\":2994:3230   */\n      pop\n        /* \"#utility.yul\":3319:3323   */\n      0x40\n        /* \"#utility.yul\":3312:3317   */\n      dup4\n        /* \"#utility.yul\":3308:3324   */\n      add\n        /* \"#utility.yul\":3302:3325   */\n      mload\n        /* \"#utility.yul\":3372:3375   */\n      dup5\n        /* \"#utility.yul\":3366:3370   */\n      dup3\n        /* \"#utility.yul\":3362:3376   */\n      sub\n        /* \"#utility.yul\":3355:3359   */\n      0x40\n        /* \"#utility.yul\":3350:3353   */\n      dup7\n        /* \"#utility.yul\":3346:3360   */\n      add\n        /* \"#utility.yul\":3339:3377   */\n      mstore\n        /* \"#utility.yul\":3398:3471   */\n      tag_419\n        /* \"#utility.yul\":3466:3470   */\n      dup3\n        /* \"#utility.yul\":3452:3464   */\n      dup3\n        /* \"#utility.yul\":3398:3471   */\n      tag_302\n      jump\t// in\n    tag_419:\n        /* \"#utility.yul\":3390:3471   */\n      swap2\n      pop\n        /* \"#utility.yul\":3240:3482   */\n      pop\n        /* \"#utility.yul\":3567:3571   */\n      0x60\n        /* \"#utility.yul\":3560:3565   */\n      dup4\n        /* \"#utility.yul\":3556:3572   */\n      add\n        /* \"#utility.yul\":3550:3573   */\n      mload\n        /* \"#utility.yul\":3586:3649   */\n      tag_420\n        /* \"#utility.yul\":3643:3647   */\n      0x60\n        /* \"#utility.yul\":3638:3641   */\n      dup7\n        /* \"#utility.yul\":3634:3648   */\n      add\n        /* \"#utility.yul\":3620:3632   */\n      dup3\n        /* \"#utility.yul\":3586:3649   */\n      tag_305\n      jump\t// in\n    tag_420:\n        /* \"#utility.yul\":3492:3659   */\n      pop\n        /* \"#utility.yul\":3746:3750   */\n      0x80\n        /* \"#utility.yul\":3739:3744   */\n      dup4\n        /* \"#utility.yul\":3735:3751   */\n      add\n        /* \"#utility.yul\":3729:3752   */\n      mload\n        /* \"#utility.yul\":3765:3828   */\n      tag_421\n        /* \"#utility.yul\":3822:3826   */\n      0x80\n        /* \"#utility.yul\":3817:3820   */\n      dup7\n        /* \"#utility.yul\":3813:3827   */\n      add\n        /* \"#utility.yul\":3799:3811   */\n      dup3\n        /* \"#utility.yul\":3765:3828   */\n      tag_297\n      jump\t// in\n    tag_421:\n        /* \"#utility.yul\":3669:3838   */\n      pop\n        /* \"#utility.yul\":3924:3928   */\n      0xa0\n        /* \"#utility.yul\":3917:3922   */\n      dup4\n        /* \"#utility.yul\":3913:3929   */\n      add\n        /* \"#utility.yul\":3907:3930   */\n      mload\n        /* \"#utility.yul\":3943:4006   */\n      tag_422\n        /* \"#utility.yul\":4000:4004   */\n      0xa0\n        /* \"#utility.yul\":3995:3998   */\n      dup7\n        /* \"#utility.yul\":3991:4005   */\n      add\n        /* \"#utility.yul\":3977:3989   */\n      dup3\n        /* \"#utility.yul\":3943:4006   */\n      tag_297\n      jump\t// in\n    tag_422:\n        /* \"#utility.yul\":3848:4016   */\n      pop\n        /* \"#utility.yul\":4108:4112   */\n      0xc0\n        /* \"#utility.yul\":4101:4106   */\n      dup4\n        /* \"#utility.yul\":4097:4113   */\n      add\n        /* \"#utility.yul\":4091:4114   */\n      mload\n        /* \"#utility.yul\":4127:4190   */\n      tag_423\n        /* \"#utility.yul\":4184:4188   */\n      0xc0\n        /* \"#utility.yul\":4179:4182   */\n      dup7\n        /* \"#utility.yul\":4175:4189   */\n      add\n        /* \"#utility.yul\":4161:4173   */\n      dup3\n        /* \"#utility.yul\":4127:4190   */\n      tag_297\n      jump\t// in\n    tag_423:\n        /* \"#utility.yul\":4026:4200   */\n      pop\n        /* \"#utility.yul\":4286:4290   */\n      0xe0\n        /* \"#utility.yul\":4279:4284   */\n      dup4\n        /* \"#utility.yul\":4275:4291   */\n      add\n        /* \"#utility.yul\":4269:4292   */\n      mload\n        /* \"#utility.yul\":4305:4362   */\n      tag_424\n        /* \"#utility.yul\":4356:4360   */\n      0xe0\n        /* \"#utility.yul\":4351:4354   */\n      dup7\n        /* \"#utility.yul\":4347:4361   */\n      add\n        /* \"#utility.yul\":4333:4345   */\n      dup3\n        /* \"#utility.yul\":4305:4362   */\n      tag_307\n      jump\t// in\n    tag_424:\n        /* \"#utility.yul\":4210:4372   */\n      pop\n        /* \"#utility.yul\":4389:4393   */\n      dup1\n        /* \"#utility.yul\":4382:4393   */\n      swap2\n      pop\n        /* \"#utility.yul\":2774:4399   */\n      pop\n        /* \"#utility.yul\":2650:4399   */\n      swap3\n      swap2\n      pop\n      pop\n      jump\t// out\n        /* \"#utility.yul\":4405:4778   */\n    tag_32:\n        /* \"#utility.yul\":4548:4552   */\n      0x00\n        /* \"#utility.yul\":4586:4588   */\n      0x20\n        /* \"#utility.yul\":4575:4584   */\n      dup3\n        /* \"#utility.yul\":4571:4589   */\n      add\n        /* \"#utility.yul\":4563:4589   */\n      swap1\n      pop\n        /* \"#utility.yul\":4635:4644   */\n      dup2\n        /* \"#utility.yul\":4629:4633   */\n      dup2\n        /* \"#utility.yul\":4625:4645   */\n      sub\n        /* \"#utility.yul\":4621:4622   */\n      0x00\n        /* \"#utility.yul\":4610:4619   */\n      dup4\n        /* \"#utility.yul\":4606:4623   */\n      add\n        /* \"#utility.yul\":4599:4646   */\n      mstore\n        /* \"#utility.yul\":4663:4771   */\n      tag_426\n        /* \"#utility.yul\":4766:4770   */\n      dup2\n        /* \"#utility.yul\":4757:4763   */\n      dup5\n        /* \"#utility.yul\":4663:4771   */\n      tag_308\n      jump\t// in\n    tag_426:\n        /* \"#utility.yul\":4655:4771   */\n      swap1\n      pop\n        /* \"#utility.yul\":4405:4778   */\n      swap3\n      swap2\n      pop\n      pop\n      jump\t// out\n        /* \"#utility.yul\":4784:4902   */\n    tag_309:\n        /* \"#utility.yul\":4871:4895   */\n      tag_428\n        /* \"#utility.yul\":4889:4894   */\n      dup2\n        /* \"#utility.yul\":4871:4895   */\n      tag_294\n      jump\t// in\n    tag_428:\n        /* \"#utility.yul\":4866:4869   */\n      dup3\n        /* \"#utility.yul\":4859:4896   */\n      mstore\n        /* \"#utility.yul\":4784:4902   */\n      pop\n      pop\n      jump\t// out\n        /* \"#utility.yul\":4908:5130   */\n    tag_37:\n        /* \"#utility.yul\":5001:5005   */\n      0x00\n        /* \"#utility.yul\":5039:5041   */\n      0x20\n        /* \"#utility.yul\":5028:5037   */\n      dup3\n        /* \"#utility.yul\":5024:5042   */\n      add\n        /* \"#utility.yul\":5016:5042   */\n      swap1\n      pop\n        /* \"#utility.yul\":5052:5123   */\n      tag_430\n        /* \"#utility.yul\":5120:5121   */\n      0x00\n        /* \"#utility.yul\":5109:5118   */\n      dup4\n        /* \"#utility.yul\":5105:5122   */\n      add\n        /* \"#utility.yul\":5096:5102   */\n      dup5\n        /* \"#utility.yul\":5052:5123   */\n      tag_309\n      jump\t// in\n    tag_430:\n        /* \"#utility.yul\":4908:5130   */\n      swap3\n      swap2\n      pop\n      pop\n      jump\t// out\n        /* \"#utility.yul\":5136:5305   */\n    tag_310:\n        /* \"#utility.yul\":5220:5231   */\n      0x00\n        /* \"#utility.yul\":5254:5260   */\n      dup3\n        /* \"#utility.yul\":5249:5252   */\n      dup3\n        /* \"#utility.yul\":5242:5261   */\n      mstore\n        /* \"#utility.yul\":5294:5298   */\n      0x20\n        /* \"#utility.yul\":5289:5292   */\n      dup3\n        /* \"#utility.yul\":5285:5299   */\n      add\n        /* \"#utility.yul\":5270:5299   */\n      swap1\n      pop\n        /* \"#utility.yul\":5136:5305   */\n      swap3\n      swap2\n      pop\n      pop\n      jump\t// out\n        /* \"#utility.yul\":5311:5688   */\n    tag_311:\n        /* \"#utility.yul\":5399:5402   */\n      0x00\n        /* \"#utility.yul\":5427:5466   */\n      tag_433\n        /* \"#utility.yul\":5460:5465   */\n      dup3\n        /* \"#utility.yul\":5427:5466   */\n      tag_298\n      jump\t// in\n    tag_433:\n        /* \"#utility.yul\":5482:5553   */\n      tag_434\n        /* \"#utility.yul\":5546:5552   */\n      dup2\n        /* \"#utility.yul\":5541:5544   */\n      dup6\n        /* \"#utility.yul\":5482:5553   */\n      tag_310\n      jump\t// in\n    tag_434:\n        /* \"#utility.yul\":5475:5553   */\n      swap4\n      pop\n        /* \"#utility.yul\":5562:5627   */\n      tag_435\n        /* \"#utility.yul\":5620:5626   */\n      dup2\n        /* \"#utility.yul\":5615:5618   */\n      dup6\n        /* \"#utility.yul\":5608:5612   */\n      0x20\n        /* \"#utility.yul\":5601:5606   */\n      dup7\n        /* \"#utility.yul\":5597:5613   */\n      add\n        /* \"#utility.yul\":5562:5627   */\n      tag_300\n      jump\t// in\n    tag_435:\n        /* \"#utility.yul\":5652:5681   */\n      tag_436\n        /* \"#utility.yul\":5674:5680   */\n      dup2\n        /* \"#utility.yul\":5652:5681   */\n      tag_301\n      jump\t// in\n    tag_436:\n        /* \"#utility.yul\":5647:5650   */\n      dup5\n        /* \"#utility.yul\":5643:5682   */\n      add\n        /* \"#utility.yul\":5636:5682   */\n      swap2\n      pop\n        /* \"#utility.yul\":5403:5688   */\n      pop\n        /* \"#utility.yul\":5311:5688   */\n      swap3\n      swap2\n      pop\n      pop\n      jump\t// out\n        /* \"#utility.yul\":5694:5812   */\n    tag_312:\n        /* \"#utility.yul\":5781:5805   */\n      tag_438\n        /* \"#utility.yul\":5799:5804   */\n      dup2\n        /* \"#utility.yul\":5781:5805   */\n      tag_304\n      jump\t// in\n    tag_438:\n        /* \"#utility.yul\":5776:5779   */\n      dup3\n        /* \"#utility.yul\":5769:5806   */\n      mstore\n        /* \"#utility.yul\":5694:5812   */\n      pop\n      pop\n      jump\t// out\n        /* \"#utility.yul\":5818:5927   */\n    tag_313:\n        /* \"#utility.yul\":5899:5920   */\n      tag_440\n        /* \"#utility.yul\":5914:5919   */\n      dup2\n        /* \"#utility.yul\":5899:5920   */\n      tag_306\n      jump\t// in\n    tag_440:\n        /* \"#utility.yul\":5894:5897   */\n      dup3\n        /* \"#utility.yul\":5887:5921   */\n      mstore\n        /* \"#utility.yul\":5818:5927   */\n      pop\n      pop\n      jump\t// out\n        /* \"#utility.yul\":5933:7100   */\n    tag_43:\n        /* \"#utility.yul\":6256:6260   */\n      0x00\n        /* \"#utility.yul\":6294:6297   */\n      0x0100\n        /* \"#utility.yul\":6283:6292   */\n      dup3\n        /* \"#utility.yul\":6279:6298   */\n      add\n        /* \"#utility.yul\":6271:6298   */\n      swap1\n      pop\n        /* \"#utility.yul\":6308:6379   */\n      tag_442\n        /* \"#utility.yul\":6376:6377   */\n      0x00\n        /* \"#utility.yul\":6365:6374   */\n      dup4\n        /* \"#utility.yul\":6361:6378   */\n      add\n        /* \"#utility.yul\":6352:6358   */\n      dup12\n        /* \"#utility.yul\":6308:6379   */\n      tag_309\n      jump\t// in\n    tag_442:\n        /* \"#utility.yul\":6426:6435   */\n      dup2\n        /* \"#utility.yul\":6420:6424   */\n      dup2\n        /* \"#utility.yul\":6416:6436   */\n      sub\n        /* \"#utility.yul\":6411:6413   */\n      0x20\n        /* \"#utility.yul\":6400:6409   */\n      dup4\n        /* \"#utility.yul\":6396:6414   */\n      add\n        /* \"#utility.yul\":6389:6437   */\n      mstore\n        /* \"#utility.yul\":6454:6532   */\n      tag_443\n        /* \"#utility.yul\":6527:6531   */\n      dup2\n        /* \"#utility.yul\":6518:6524   */\n      dup11\n        /* \"#utility.yul\":6454:6532   */\n      tag_311\n      jump\t// in\n    tag_443:\n        /* \"#utility.yul\":6446:6532   */\n      swap1\n      pop\n        /* \"#utility.yul\":6579:6588   */\n      dup2\n        /* \"#utility.yul\":6573:6577   */\n      dup2\n        /* \"#utility.yul\":6569:6589   */\n      sub\n        /* \"#utility.yul\":6564:6566   */\n      0x40\n        /* \"#utility.yul\":6553:6562   */\n      dup4\n        /* \"#utility.yul\":6549:6567   */\n      add\n        /* \"#utility.yul\":6542:6590   */\n      mstore\n        /* \"#utility.yul\":6607:6685   */\n      tag_444\n        /* \"#utility.yul\":6680:6684   */\n      dup2\n        /* \"#utility.yul\":6671:6677   */\n      dup10\n        /* \"#utility.yul\":6607:6685   */\n      tag_311\n      jump\t// in\n    tag_444:\n        /* \"#utility.yul\":6599:6685   */\n      swap1\n      pop\n        /* \"#utility.yul\":6695:6767   */\n      tag_445\n        /* \"#utility.yul\":6763:6765   */\n      0x60\n        /* \"#utility.yul\":6752:6761   */\n      dup4\n        /* \"#utility.yul\":6748:6766   */\n      add\n        /* \"#utility.yul\":6739:6745   */\n      dup9\n        /* \"#utility.yul\":6695:6767   */\n      tag_312\n      jump\t// in\n    tag_445:\n        /* \"#utility.yul\":6777:6850   */\n      tag_446\n        /* \"#utility.yul\":6845:6848   */\n      0x80\n        /* \"#utility.yul\":6834:6843   */\n      dup4\n        /* \"#utility.yul\":6830:6849   */\n      add\n        /* \"#utility.yul\":6821:6827   */\n      dup8\n        /* \"#utility.yul\":6777:6850   */\n      tag_309\n      jump\t// in\n    tag_446:\n        /* \"#utility.yul\":6860:6933   */\n      tag_447\n        /* \"#utility.yul\":6928:6931   */\n      0xa0\n        /* \"#utility.yul\":6917:6926   */\n      dup4\n        /* \"#utility.yul\":6913:6932   */\n      add\n        /* \"#utility.yul\":6904:6910   */\n      dup7\n        /* \"#utility.yul\":6860:6933   */\n      tag_309\n      jump\t// in\n    tag_447:\n        /* \"#utility.yul\":6943:7016   */\n      tag_448\n        /* \"#utility.yul\":7011:7014   */\n      0xc0\n        /* \"#utility.yul\":7000:7009   */\n      dup4\n        /* \"#utility.yul\":6996:7015   */\n      add\n        /* \"#utility.yul\":6987:6993   */\n      dup6\n        /* \"#utility.yul\":6943:7016   */\n      tag_309\n      jump\t// in\n    tag_448:\n        /* \"#utility.yul\":7026:7093   */\n      tag_449\n        /* \"#utility.yul\":7088:7091   */\n      0xe0\n        /* \"#utility.yul\":7077:7086   */\n      dup4\n        /* \"#utility.yul\":7073:7092   */\n      add\n        /* \"#utility.yul\":7064:7070   */\n      dup5\n        /* \"#utility.yul\":7026:7093   */\n      tag_313\n      jump\t// in\n    tag_449:\n        /* \"#utility.yul\":5933:7100   */\n      swap10\n      swap9\n      pop\n      pop\n      pop\n      pop\n      pop\n      pop\n      pop\n      pop\n      pop\n      jump\t// out\n        /* \"#utility.yul\":7106:7228   */\n    tag_314:\n        /* \"#utility.yul\":7179:7203   */\n      tag_451\n        /* \"#utility.yul\":7197:7202   */\n      dup2\n        /* \"#utility.yul\":7179:7203   */\n      tag_304\n      jump\t// in\n    tag_451:\n        /* \"#utility.yul\":7172:7177   */\n      dup2\n        /* \"#utility.yul\":7169:7204   */\n      eq\n        /* \"#utility.yul\":7159:7222   */\n      tag_452\n      jumpi\n        /* \"#utility.yul\":7218:7219   */\n      0x00\n        /* \"#utility.yul\":7215:7216   */\n      0x00\n        /* \"#utility.yul\":7208:7220   */\n      revert\n        /* \"#utility.yul\":7159:7222   */\n    tag_452:\n        /* \"#utility.yul\":7106:7228   */\n      pop\n      jump\t// out\n        /* \"#utility.yul\":7234:7373   */\n    tag_315:\n        /* \"#utility.yul\":7280:7285   */\n      0x00\n        /* \"#utility.yul\":7318:7324   */\n      dup2\n        /* \"#utility.yul\":7305:7325   */\n      calldataload\n        /* \"#utility.yul\":7296:7325   */\n      swap1\n      pop\n        /* \"#utility.yul\":7334:7367   */\n      tag_454\n        /* \"#utility.yul\":7361:7366   */\n      dup2\n        /* \"#utility.yul\":7334:7367   */\n      tag_314\n      jump\t// in\n    tag_454:\n        /* \"#utility.yul\":7234:7373   */\n      swap3\n      swap2\n      pop\n      pop\n      jump\t// out\n        /* \"#utility.yul\":7379:7708   */\n    tag_58:\n        /* \"#utility.yul\":7438:7444   */\n      0x00\n        /* \"#utility.yul\":7487:7489   */\n      0x20\n        /* \"#utility.yul\":7475:7484   */\n      dup3\n        /* \"#utility.yul\":7466:7473   */\n      dup5\n        /* \"#utility.yul\":7462:7485   */\n      sub\n        /* \"#utility.yul\":7458:7490   */\n      slt\n        /* \"#utility.yul\":7455:7574   */\n      iszero\n      tag_456\n      jumpi\n        /* \"#utility.yul\":7493:7572   */\n      tag_457\n      tag_292\n      jump\t// in\n    tag_457:\n        /* \"#utility.yul\":7455:7574   */\n    tag_456:\n        /* \"#utility.yul\":7613:7614   */\n      0x00\n        /* \"#utility.yul\":7638:7691   */\n      tag_458\n        /* \"#utility.yul\":7683:7690   */\n      dup5\n        /* \"#utility.yul\":7674:7680   */\n      dup3\n        /* \"#utility.yul\":7663:7672   */\n      dup6\n        /* \"#utility.yul\":7659:7681   */\n      add\n        /* \"#utility.yul\":7638:7691   */\n      tag_315\n      jump\t// in\n    tag_458:\n        /* \"#utility.yul\":7628:7691   */\n      swap2\n      pop\n        /* \"#utility.yul\":7584:7701   */\n      pop\n        /* \"#utility.yul\":7379:7708   */\n      swap3\n      swap2\n      pop\n      pop\n      jump\t// out\n        /* \"#utility.yul\":7714:8188   */\n    tag_64:\n        /* \"#utility.yul\":7782:7788   */\n      0x00\n        /* \"#utility.yul\":7790:7796   */\n      0x00\n        /* \"#utility.yul\":7839:7841   */\n      0x40\n        /* \"#utility.yul\":7827:7836   */\n      dup4\n        /* \"#utility.yul\":7818:7825   */\n      dup6\n        /* \"#utility.yul\":7814:7837   */\n      sub\n        /* \"#utility.yul\":7810:7842   */\n      slt\n        /* \"#utility.yul\":7807:7926   */\n      iszero\n      tag_460\n      jumpi\n        /* \"#utility.yul\":7845:7924   */\n      tag_461\n      tag_292\n      jump\t// in\n    tag_461:\n        /* \"#utility.yul\":7807:7926   */\n    tag_460:\n        /* \"#utility.yul\":7965:7966   */\n      0x00\n        /* \"#utility.yul\":7990:8043   */\n      tag_462\n        /* \"#utility.yul\":8035:8042   */\n      dup6\n        /* \"#utility.yul\":8026:8032   */\n      dup3\n        /* \"#utility.yul\":8015:8024   */\n      dup7\n        /* \"#utility.yul\":8011:8033   */\n      add\n        /* \"#utility.yul\":7990:8043   */\n      tag_296\n      jump\t// in\n    tag_462:\n        /* \"#utility.yul\":7980:8043   */\n      swap3\n      pop\n        /* \"#utility.yul\":7936:8053   */\n      pop\n        /* \"#utility.yul\":8092:8094   */\n      0x20\n        /* \"#utility.yul\":8118:8171   */\n      tag_463\n        /* \"#utility.yul\":8163:8170   */\n      dup6\n        /* \"#utility.yul\":8154:8160   */\n      dup3\n        /* \"#utility.yul\":8143:8152   */\n      dup7\n        /* \"#utility.yul\":8139:8161   */\n      add\n        /* \"#utility.yul\":8118:8171   */\n      tag_315\n      jump\t// in\n    tag_463:\n        /* \"#utility.yul\":8108:8171   */\n      swap2\n      pop\n        /* \"#utility.yul\":8063:8181   */\n      pop\n        /* \"#utility.yul\":7714:8188   */\n      swap3\n      pop\n      swap3\n      swap1\n      pop\n      jump\t// out\n        /* \"#utility.yul\":8194:8404   */\n    tag_67:\n        /* \"#utility.yul\":8281:8285   */\n      0x00\n        /* \"#utility.yul\":8319:8321   */\n      0x20\n        /* \"#utility.yul\":8308:8317   */\n      dup3\n        /* \"#utility.yul\":8304:8322   */\n      add\n        /* \"#utility.yul\":8296:8322   */\n      swap1\n      pop\n        /* \"#utility.yul\":8332:8397   */\n      tag_465\n        /* \"#utility.yul\":8394:8395   */\n      0x00\n        /* \"#utility.yul\":8383:8392   */\n      dup4\n        /* \"#utility.yul\":8379:8396   */\n      add\n        /* \"#utility.yul\":8370:8376   */\n      dup5\n        /* \"#utility.yul\":8332:8397   */\n      tag_313\n      jump\t// in\n    tag_465:\n        /* \"#utility.yul\":8194:8404   */\n      swap3\n      swap2\n      pop\n      pop\n      jump\t// out\n        /* \"#utility.yul\":8410:8632   */\n    tag_79:\n        /* \"#utility.yul\":8503:8507   */\n      0x00\n        /* \"#utility.yul\":8541:8543   */\n      0x20\n        /* \"#utility.yul\":8530:8539   */\n      dup3\n        /* \"#utility.yul\":8526:8544   */\n      add\n        /* \"#utility.yul\":8518:8544   */\n      swap1\n      pop\n        /* \"#utility.yul\":8554:8625   */\n      tag_467\n        /* \"#utility.yul\":8622:8623   */\n      0x00\n        /* \"#utility.yul\":8611:8620   */\n      dup4\n        /* \"#utility.yul\":8607:8624   */\n      add\n        /* \"#utility.yul\":8598:8604   */\n      dup5\n        /* \"#utility.yul\":8554:8625   */\n      tag_312\n      jump\t// in\n    tag_467:\n        /* \"#utility.yul\":8410:8632   */\n      swap3\n      swap2\n      pop\n      pop\n      jump\t// out\n        /* \"#utility.yul\":8638:8755   */\n    tag_316:\n        /* \"#utility.yul\":8747:8748   */\n      0x00\n        /* \"#utility.yul\":8744:8745   */\n      0x00\n        /* \"#utility.yul\":8737:8749   */\n      revert\n        /* \"#utility.yul\":8761:8878   */\n    tag_317:\n        /* \"#utility.yul\":8870:8871   */\n      0x00\n        /* \"#utility.yul\":8867:8868   */\n      0x00\n        /* \"#utility.yul\":8860:8872   */\n      revert\n        /* \"#utility.yul\":8884:9064   */\n    tag_318:\n        /* \"#utility.yul\":8932:9009   */\n      0x4e487b7100000000000000000000000000000000000000000000000000000000\n        /* \"#utility.yul\":8929:8930   */\n      0x00\n        /* \"#utility.yul\":8922:9010   */\n      mstore\n        /* \"#utility.yul\":9029:9033   */\n      0x41\n        /* \"#utility.yul\":9026:9027   */\n      0x04\n        /* \"#utility.yul\":9019:9034   */\n      mstore\n        /* \"#utility.yul\":9053:9057   */\n      0x24\n        /* \"#utility.yul\":9050:9051   */\n      0x00\n        /* \"#utility.yul\":9043:9058   */\n      revert\n        /* \"#utility.yul\":9070:9351   */\n    tag_319:\n        /* \"#utility.yul\":9153:9180   */\n      tag_472\n        /* \"#utility.yul\":9175:9179   */\n      dup3\n        /* \"#utility.yul\":9153:9180   */\n      tag_301\n      jump\t// in\n    tag_472:\n        /* \"#utility.yul\":9145:9151   */\n      dup2\n        /* \"#utility.yul\":9141:9181   */\n      add\n        /* \"#utility.yul\":9283:9289   */\n      dup2\n        /* \"#utility.yul\":9271:9281   */\n      dup2\n        /* \"#utility.yul\":9268:9290   */\n      lt\n        /* \"#utility.yul\":9247:9265   */\n      0xffffffffffffffff\n        /* \"#utility.yul\":9235:9245   */\n      dup3\n        /* \"#utility.yul\":9232:9266   */\n      gt\n        /* \"#utility.yul\":9229:9291   */\n      or\n        /* \"#utility.yul\":9226:9314   */\n      iszero\n      tag_473\n      jumpi\n        /* \"#utility.yul\":9294:9312   */\n      tag_474\n      tag_318\n      jump\t// in\n    tag_474:\n        /* \"#utility.yul\":9226:9314   */\n    tag_473:\n        /* \"#utility.yul\":9334:9344   */\n      dup1\n        /* \"#utility.yul\":9330:9332   */\n      0x40\n        /* \"#utility.yul\":9323:9345   */\n      mstore\n        /* \"#utility.yul\":9113:9351   */\n      pop\n        /* \"#utility.yul\":9070:9351   */\n      pop\n      pop\n      jump\t// out\n        /* \"#utility.yul\":9357:9486   */\n    tag_320:\n        /* \"#utility.yul\":9391:9397   */\n      0x00\n        /* \"#utility.yul\":9418:9438   */\n      tag_476\n      tag_291\n      jump\t// in\n    tag_476:\n        /* \"#utility.yul\":9408:9438   */\n      swap1\n      pop\n        /* \"#utility.yul\":9447:9480   */\n      tag_477\n        /* \"#utility.yul\":9475:9479   */\n      dup3\n        /* \"#utility.yul\":9467:9473   */\n      dup3\n        /* \"#utility.yul\":9447:9480   */\n      tag_319\n      jump\t// in\n    tag_477:\n        /* \"#utility.yul\":9357:9486   */\n      swap2\n      swap1\n      pop\n      jump\t// out\n        /* \"#utility.yul\":9492:9800   */\n    tag_321:\n        /* \"#utility.yul\":9554:9558   */\n      0x00\n        /* \"#utility.yul\":9644:9662   */\n      0xffffffffffffffff\n        /* \"#utility.yul\":9636:9642   */\n      dup3\n        /* \"#utility.yul\":9633:9663   */\n      gt\n        /* \"#utility.yul\":9630:9686   */\n      iszero\n      tag_479\n      jumpi\n        /* \"#utility.yul\":9666:9684   */\n      tag_480\n      tag_318\n      jump\t// in\n    tag_480:\n        /* \"#utility.yul\":9630:9686   */\n    tag_479:\n        /* \"#utility.yul\":9704:9733   */\n      tag_481\n        /* \"#utility.yul\":9726:9732   */\n      dup3\n        /* \"#utility.yul\":9704:9733   */\n      tag_301\n      jump\t// in\n    tag_481:\n        /* \"#utility.yul\":9696:9733   */\n      swap1\n      pop\n        /* \"#utility.yul\":9788:9792   */\n      0x20\n        /* \"#utility.yul\":9782:9786   */\n      dup2\n        /* \"#utility.yul\":9778:9793   */\n      add\n        /* \"#utility.yul\":9770:9793   */\n      swap1\n      pop\n        /* \"#utility.yul\":9492:9800   */\n      swap2\n      swap1\n      pop\n      jump\t// out\n        /* \"#utility.yul\":9806:9954   */\n    tag_322:\n        /* \"#utility.yul\":9904:9910   */\n      dup3\n        /* \"#utility.yul\":9899:9902   */\n      dup2\n        /* \"#utility.yul\":9894:9897   */\n      dup4\n        /* \"#utility.yul\":9881:9911   */\n      calldatacopy\n        /* \"#utility.yul\":9945:9946   */\n      0x00\n        /* \"#utility.yul\":9936:9942   */\n      dup4\n        /* \"#utility.yul\":9931:9934   */\n      dup4\n        /* \"#utility.yul\":9927:9943   */\n      add\n        /* \"#utility.yul\":9920:9947   */\n      mstore\n        /* \"#utility.yul\":9806:9954   */\n      pop\n      pop\n      pop\n      jump\t// out\n        /* \"#utility.yul\":9960:10385   */\n    tag_323:\n        /* \"#utility.yul\":10038:10043   */\n      0x00\n        /* \"#utility.yul\":10063:10129   */\n      tag_484\n        /* \"#utility.yul\":10079:10128   */\n      tag_485\n        /* \"#utility.yul\":10121:10127   */\n      dup5\n        /* \"#utility.yul\":10079:10128   */\n      tag_321\n      jump\t// in\n    tag_485:\n        /* \"#utility.yul\":10063:10129   */\n      tag_320\n      jump\t// in\n    tag_484:\n        /* \"#utility.yul\":10054:10129   */\n      swap1\n      pop\n        /* \"#utility.yul\":10152:10158   */\n      dup3\n        /* \"#utility.yul\":10145:10150   */\n      dup2\n        /* \"#utility.yul\":10138:10159   */\n      mstore\n        /* \"#utility.yul\":10190:10194   */\n      0x20\n        /* \"#utility.yul\":10183:10188   */\n      dup2\n        /* \"#utility.yul\":10179:10195   */\n      add\n        /* \"#utility.yul\":10228:10231   */\n      dup5\n        /* \"#utility.yul\":10219:10225   */\n      dup5\n        /* \"#utility.yul\":10214:10217   */\n      dup5\n        /* \"#utility.yul\":10210:10226   */\n      add\n        /* \"#utility.yul\":10207:10232   */\n      gt\n        /* \"#utility.yul\":10204:10316   */\n      iszero\n      tag_486\n      jumpi\n        /* \"#utility.yul\":10235:10314   */\n      tag_487\n      tag_317\n      jump\t// in\n    tag_487:\n        /* \"#utility.yul\":10204:10316   */\n    tag_486:\n        /* \"#utility.yul\":10325:10379   */\n      tag_488\n        /* \"#utility.yul\":10372:10378   */\n      dup5\n        /* \"#utility.yul\":10367:10370   */\n      dup3\n        /* \"#utility.yul\":10362:10365   */\n      dup6\n        /* \"#utility.yul\":10325:10379   */\n      tag_322\n      jump\t// in\n    tag_488:\n        /* \"#utility.yul\":10044:10385   */\n      pop\n        /* \"#utility.yul\":9960:10385   */\n      swap4\n      swap3\n      pop\n      pop\n      pop\n      jump\t// out\n        /* \"#utility.yul\":10405:10745   */\n    tag_324:\n        /* \"#utility.yul\":10461:10466   */\n      0x00\n        /* \"#utility.yul\":10510:10513   */\n      dup3\n        /* \"#utility.yul\":10503:10507   */\n      0x1f\n        /* \"#utility.yul\":10495:10501   */\n      dup4\n        /* \"#utility.yul\":10491:10508   */\n      add\n        /* \"#utility.yul\":10487:10514   */\n      slt\n        /* \"#utility.yul\":10477:10599   */\n      tag_490\n      jumpi\n        /* \"#utility.yul\":10518:10597   */\n      tag_491\n      tag_316\n      jump\t// in\n    tag_491:\n        /* \"#utility.yul\":10477:10599   */\n    tag_490:\n        /* \"#utility.yul\":10635:10641   */\n      dup2\n        /* \"#utility.yul\":10622:10642   */\n      calldataload\n        /* \"#utility.yul\":10660:10739   */\n      tag_492\n        /* \"#utility.yul\":10735:10738   */\n      dup5\n        /* \"#utility.yul\":10727:10733   */\n      dup3\n        /* \"#utility.yul\":10720:10724   */\n      0x20\n        /* \"#utility.yul\":10712:10718   */\n      dup7\n        /* \"#utility.yul\":10708:10725   */\n      add\n        /* \"#utility.yul\":10660:10739   */\n      tag_323\n      jump\t// in\n    tag_492:\n        /* \"#utility.yul\":10651:10739   */\n      swap2\n      pop\n        /* \"#utility.yul\":10467:10745   */\n      pop\n        /* \"#utility.yul\":10405:10745   */\n      swap3\n      swap2\n      pop\n      pop\n      jump\t// out\n        /* \"#utility.yul\":10751:11730   */\n    tag_94:\n        /* \"#utility.yul\":10848:10854   */\n      0x00\n        /* \"#utility.yul\":10856:10862   */\n      0x00\n        /* \"#utility.yul\":10864:10870   */\n      0x00\n        /* \"#utility.yul\":10913:10915   */\n      0x60\n        /* \"#utility.yul\":10901:10910   */\n      dup5\n        /* \"#utility.yul\":10892:10899   */\n      dup7\n        /* \"#utility.yul\":10888:10911   */\n      sub\n        /* \"#utility.yul\":10884:10916   */\n      slt\n        /* \"#utility.yul\":10881:11000   */\n      iszero\n      tag_494\n      jumpi\n        /* \"#utility.yul\":10919:10998   */\n      tag_495\n      tag_292\n      jump\t// in\n    tag_495:\n        /* \"#utility.yul\":10881:11000   */\n    tag_494:\n        /* \"#utility.yul\":11067:11068   */\n      0x00\n        /* \"#utility.yul\":11056:11065   */\n      dup5\n        /* \"#utility.yul\":11052:11069   */\n      add\n        /* \"#utility.yul\":11039:11070   */\n      calldataload\n        /* \"#utility.yul\":11097:11115   */\n      0xffffffffffffffff\n        /* \"#utility.yul\":11089:11095   */\n      dup2\n        /* \"#utility.yul\":11086:11116   */\n      gt\n        /* \"#utility.yul\":11083:11200   */\n      iszero\n      tag_496\n      jumpi\n        /* \"#utility.yul\":11119:11198   */\n      tag_497\n      tag_293\n      jump\t// in\n    tag_497:\n        /* \"#utility.yul\":11083:11200   */\n    tag_496:\n        /* \"#utility.yul\":11224:11287   */\n      tag_498\n        /* \"#utility.yul\":11279:11286   */\n      dup7\n        /* \"#utility.yul\":11270:11276   */\n      dup3\n        /* \"#utility.yul\":11259:11268   */\n      dup8\n        /* \"#utility.yul\":11255:11277   */\n      add\n        /* \"#utility.yul\":11224:11287   */\n      tag_324\n      jump\t// in\n    tag_498:\n        /* \"#utility.yul\":11214:11287   */\n      swap4\n      pop\n        /* \"#utility.yul\":11010:11297   */\n      pop\n        /* \"#utility.yul\":11364:11366   */\n      0x20\n        /* \"#utility.yul\":11353:11362   */\n      dup5\n        /* \"#utility.yul\":11349:11367   */\n      add\n        /* \"#utility.yul\":11336:11368   */\n      calldataload\n        /* \"#utility.yul\":11395:11413   */\n      0xffffffffffffffff\n        /* \"#utility.yul\":11387:11393   */\n      dup2\n        /* \"#utility.yul\":11384:11414   */\n      gt\n        /* \"#utility.yul\":11381:11498   */\n      iszero\n      tag_499\n      jumpi\n        /* \"#utility.yul\":11417:11496   */\n      tag_500\n      tag_293\n      jump\t// in\n    tag_500:\n        /* \"#utility.yul\":11381:11498   */\n    tag_499:\n        /* \"#utility.yul\":11522:11585   */\n      tag_501\n        /* \"#utility.yul\":11577:11584   */\n      dup7\n        /* \"#utility.yul\":11568:11574   */\n      dup3\n        /* \"#utility.yul\":11557:11566   */\n      dup8\n        /* \"#utility.yul\":11553:11575   */\n      add\n        /* \"#utility.yul\":11522:11585   */\n      tag_324\n      jump\t// in\n    tag_501:\n        /* \"#utility.yul\":11512:11585   */\n      swap3\n      pop\n        /* \"#utility.yul\":11307:11595   */\n      pop\n        /* \"#utility.yul\":11634:11636   */\n      0x40\n        /* \"#utility.yul\":11660:11713   */\n      tag_502\n        /* \"#utility.yul\":11705:11712   */\n      dup7\n        /* \"#utility.yul\":11696:11702   */\n      dup3\n        /* \"#utility.yul\":11685:11694   */\n      dup8\n        /* \"#utility.yul\":11681:11703   */\n      add\n        /* \"#utility.yul\":11660:11713   */\n      tag_296\n      jump\t// in\n    tag_502:\n        /* \"#utility.yul\":11650:11713   */\n      swap2\n      pop\n        /* \"#utility.yul\":11605:11723   */\n      pop\n        /* \"#utility.yul\":10751:11730   */\n      swap3\n      pop\n      swap3\n      pop\n      swap3\n      jump\t// out\n        /* \"#utility.yul\":11736:11909   */\n    tag_325:\n        /* \"#utility.yul\":11876:11901   */\n      0x5065746974696f6e20646f6573206e6f74206578697374000000000000000000\n        /* \"#utility.yul\":11872:11873   */\n      0x00\n        /* \"#utility.yul\":11864:11870   */\n      dup3\n        /* \"#utility.yul\":11860:11874   */\n      add\n        /* \"#utility.yul\":11853:11902   */\n      mstore\n        /* \"#utility.yul\":11736:11909   */\n      pop\n      jump\t// out\n        /* \"#utility.yul\":11915:12281   */\n    tag_326:\n        /* \"#utility.yul\":12057:12060   */\n      0x00\n        /* \"#utility.yul\":12078:12145   */\n      tag_505\n        /* \"#utility.yul\":12142:12144   */\n      0x17\n        /* \"#utility.yul\":12137:12140   */\n      dup4\n        /* \"#utility.yul\":12078:12145   */\n      tag_310\n      jump\t// in\n    tag_505:\n        /* \"#utility.yul\":12071:12145   */\n      swap2\n      pop\n        /* \"#utility.yul\":12154:12247   */\n      tag_506\n        /* \"#utility.yul\":12243:12246   */\n      dup3\n        /* \"#utility.yul\":12154:12247   */\n      tag_325\n      jump\t// in\n    tag_506:\n        /* \"#utility.yul\":12272:12274   */\n      0x20\n        /* \"#utility.yul\":12267:12270   */\n      dup3\n        /* \"#utility.yul\":12263:12275   */\n      add\n        /* \"#utility.yul\":12256:12275   */\n      swap1\n      pop\n        /* \"#utility.yul\":11915:12281   */\n      swap2\n      swap1\n      pop\n      jump\t// out\n        /* \"#utility.yul\":12287:12706   */\n    tag_127:\n        /* \"#utility.yul\":12453:12457   */\n      0x00\n        /* \"#utility.yul\":12491:12493   */\n      0x20\n        /* \"#utility.yul\":12480:12489   */\n      dup3\n        /* \"#utility.yul\":12476:12494   */\n      add\n        /* \"#utility.yul\":12468:12494   */\n      swap1\n      pop\n        /* \"#utility.yul\":12540:12549   */\n      dup2\n        /* \"#utility.yul\":12534:12538   */\n      dup2\n        /* \"#utility.yul\":12530:12550   */\n      sub\n        /* \"#utility.yul\":12526:12527   */\n      0x00\n        /* \"#utility.yul\":12515:12524   */\n      dup4\n        /* \"#utility.yul\":12511:12528   */\n      add\n        /* \"#utility.yul\":12504:12551   */\n      mstore\n        /* \"#utility.yul\":12568:12699   */\n      tag_508\n        /* \"#utility.yul\":12694:12698   */\n      dup2\n        /* \"#utility.yul\":12568:12699   */\n      tag_326\n      jump\t// in\n    tag_508:\n        /* \"#utility.yul\":12560:12699   */\n      swap1\n      pop\n        /* \"#utility.yul\":12287:12706   */\n      swap2\n      swap1\n      pop\n      jump\t// out\n        /* \"#utility.yul\":12712:12892   */\n    tag_327:\n        /* \"#utility.yul\":12760:12837   */\n      0x4e487b7100000000000000000000000000000000000000000000000000000000\n        /* \"#utility.yul\":12757:12758   */\n      0x00\n        /* \"#utility.yul\":12750:12838   */\n      mstore\n        /* \"#utility.yul\":12857:12861   */\n      0x22\n        /* \"#utility.yul\":12854:12855   */\n      0x04\n        /* \"#utility.yul\":12847:12862   */\n      mstore\n        /* \"#utility.yul\":12881:12885   */\n      0x24\n        /* \"#utility.yul\":12878:12879   */\n      0x00\n        /* \"#utility.yul\":12871:12886   */\n      revert\n        /* \"#utility.yul\":12898:13218   */\n    tag_129:\n        /* \"#utility.yul\":12942:12948   */\n      0x00\n        /* \"#utility.yul\":12979:12980   */\n      0x02\n        /* \"#utility.yul\":12973:12977   */\n      dup3\n        /* \"#utility.yul\":12969:12981   */\n      div\n        /* \"#utility.yul\":12959:12981   */\n      swap1\n      pop\n        /* \"#utility.yul\":13026:13027   */\n      0x01\n        /* \"#utility.yul\":13020:13024   */\n      dup3\n        /* \"#utility.yul\":13016:13028   */\n      and\n        /* \"#utility.yul\":13047:13065   */\n      dup1\n        /* \"#utility.yul\":13037:13118   */\n      tag_511\n      jumpi\n        /* \"#utility.yul\":13103:13107   */\n      0x7f\n        /* \"#utility.yul\":13095:13101   */\n      dup3\n        /* \"#utility.yul\":13091:13108   */\n      and\n        /* \"#utility.yul\":13081:13108   */\n      swap2\n      pop\n        /* \"#utility.yul\":13037:13118   */\n    tag_511:\n        /* \"#utility.yul\":13165:13167   */\n      0x20\n        /* \"#utility.yul\":13157:13163   */\n      dup3\n        /* \"#utility.yul\":13154:13168   */\n      lt\n        /* \"#utility.yul\":13134:13152   */\n      dup2\n        /* \"#utility.yul\":13131:13169   */\n      sub\n        /* \"#utility.yul\":13128:13212   */\n      tag_512\n      jumpi\n        /* \"#utility.yul\":13184:13202   */\n      tag_513\n      tag_327\n      jump\t// in\n    tag_513:\n        /* \"#utility.yul\":13128:13212   */\n    tag_512:\n        /* \"#utility.yul\":12949:13218   */\n      pop\n        /* \"#utility.yul\":12898:13218   */\n      swap2\n      swap1\n      pop\n      jump\t// out\n        /* \"#utility.yul\":13224:13396   */\n    tag_328:\n        /* \"#utility.yul\":13364:13388   */\n      0x4e6f2062616c616e636520746f20776974686472617700000000000000000000\n        /* \"#utility.yul\":13360:13361   */\n      0x00\n        /* \"#utility.yul\":13352:13358   */\n      dup3\n        /* \"#utility.yul\":13348:13362   */\n      add\n        /* \"#utility.yul\":13341:13389   */\n      mstore\n        /* \"#utility.yul\":13224:13396   */\n      pop\n      jump\t// out\n        /* \"#utility.yul\":13402:13768   */\n    tag_329:\n        /* \"#utility.yul\":13544:13547   */\n      0x00\n        /* \"#utility.yul\":13565:13632   */\n      tag_516\n        /* \"#utility.yul\":13629:13631   */\n      0x16\n        /* \"#utility.yul\":13624:13627   */\n      dup4\n        /* \"#utility.yul\":13565:13632   */\n      tag_310\n      jump\t// in\n    tag_516:\n        /* \"#utility.yul\":13558:13632   */\n      swap2\n      pop\n        /* \"#utility.yul\":13641:13734   */\n      tag_517\n        /* \"#utility.yul\":13730:13733   */\n      dup3\n        /* \"#utility.yul\":13641:13734   */\n      tag_328\n      jump\t// in\n    tag_517:\n        /* \"#utility.yul\":13759:13761   */\n      0x20\n        /* \"#utility.yul\":13754:13757   */\n      dup3\n        /* \"#utility.yul\":13750:13762   */\n      add\n        /* \"#utility.yul\":13743:13762   */\n      swap1\n      pop\n        /* \"#utility.yul\":13402:13768   */\n      swap2\n      swap1\n      pop\n      jump\t// out\n        /* \"#utility.yul\":13774:14193   */\n    tag_155:\n        /* \"#utility.yul\":13940:13944   */\n      0x00\n        /* \"#utility.yul\":13978:13980   */\n      0x20\n        /* \"#utility.yul\":13967:13976   */\n      dup3\n        /* \"#utility.yul\":13963:13981   */\n      add\n        /* \"#utility.yul\":13955:13981   */\n      swap1\n      pop\n        /* \"#utility.yul\":14027:14036   */\n      dup2\n        /* \"#utility.yul\":14021:14025   */\n      dup2\n        /* \"#utility.yul\":14017:14037   */\n      sub\n        /* \"#utility.yul\":14013:14014   */\n      0x00\n        /* \"#utility.yul\":14002:14011   */\n      dup4\n        /* \"#utility.yul\":13998:14015   */\n      add\n        /* \"#utility.yul\":13991:14038   */\n      mstore\n        /* \"#utility.yul\":14055:14186   */\n      tag_519\n        /* \"#utility.yul\":14181:14185   */\n      dup2\n        /* \"#utility.yul\":14055:14186   */\n      tag_329\n      jump\t// in\n    tag_519:\n        /* \"#utility.yul\":14047:14186   */\n      swap1\n      pop\n        /* \"#utility.yul\":13774:14193   */\n      swap2\n      swap1\n      pop\n      jump\t// out\n        /* \"#utility.yul\":14199:14366   */\n    tag_330:\n        /* \"#utility.yul\":14339:14358   */\n      0x496e76616c6964207468726573686f6c64000000000000000000000000000000\n        /* \"#utility.yul\":14335:14336   */\n      0x00\n        /* \"#utility.yul\":14327:14333   */\n      dup3\n        /* \"#utility.yul\":14323:14337   */\n      add\n        /* \"#utility.yul\":14316:14359   */\n      mstore\n        /* \"#utility.yul\":14199:14366   */\n      pop\n      jump\t// out\n        /* \"#utility.yul\":14372:14738   */\n    tag_331:\n        /* \"#utility.yul\":14514:14517   */\n      0x00\n        /* \"#utility.yul\":14535:14602   */\n      tag_522\n        /* \"#utility.yul\":14599:14601   */\n      0x11\n        /* \"#utility.yul\":14594:14597   */\n      dup4\n        /* \"#utility.yul\":14535:14602   */\n      tag_310\n      jump\t// in\n    tag_522:\n        /* \"#utility.yul\":14528:14602   */\n      swap2\n      pop\n        /* \"#utility.yul\":14611:14704   */\n      tag_523\n        /* \"#utility.yul\":14700:14703   */\n      dup3\n        /* \"#utility.yul\":14611:14704   */\n      tag_330\n      jump\t// in\n    tag_523:\n        /* \"#utility.yul\":14729:14731   */\n      0x20\n        /* \"#utility.yul\":14724:14727   */\n      dup3\n        /* \"#utility.yul\":14720:14732   */\n      add\n        /* \"#utility.yul\":14713:14732   */\n      swap1\n      pop\n        /* \"#utility.yul\":14372:14738   */\n      swap2\n      swap1\n      pop\n      jump\t// out\n        /* \"#utility.yul\":14744:15163   */\n    tag_164:\n        /* \"#utility.yul\":14910:14914   */\n      0x00\n        /* \"#utility.yul\":14948:14950   */\n      0x20\n        /* \"#utility.yul\":14937:14946   */\n      dup3\n        /* \"#utility.yul\":14933:14951   */\n      add\n        /* \"#utility.yul\":14925:14951   */\n      swap1\n      pop\n        /* \"#utility.yul\":14997:15006   */\n      dup2\n        /* \"#utility.yul\":14991:14995   */\n      dup2\n        /* \"#utility.yul\":14987:15007   */\n      sub\n        /* \"#utility.yul\":14983:14984   */\n      0x00\n        /* \"#utility.yul\":14972:14981   */\n      dup4\n        /* \"#utility.yul\":14968:14985   */\n      add\n        /* \"#utility.yul\":14961:15008   */\n      mstore\n        /* \"#utility.yul\":15025:15156   */\n      tag_525\n        /* \"#utility.yul\":15151:15155   */\n      dup2\n        /* \"#utility.yul\":15025:15156   */\n      tag_331\n      jump\t// in\n    tag_525:\n        /* \"#utility.yul\":15017:15156   */\n      swap1\n      pop\n        /* \"#utility.yul\":14744:15163   */\n      swap2\n      swap1\n      pop\n      jump\t// out\n        /* \"#utility.yul\":15169:15335   */\n    tag_332:\n        /* \"#utility.yul\":15309:15327   */\n      0x4e6f7420612044414f206d656d62657200000000000000000000000000000000\n        /* \"#utility.yul\":15305:15306   */\n      0x00\n        /* \"#utility.yul\":15297:15303   */\n      dup3\n        /* \"#utility.yul\":15293:15307   */\n      add\n        /* \"#utility.yul\":15286:15328   */\n      mstore\n        /* \"#utility.yul\":15169:15335   */\n      pop\n      jump\t// out\n        /* \"#utility.yul\":15341:15707   */\n    tag_333:\n        /* \"#utility.yul\":15483:15486   */\n      0x00\n        /* \"#utility.yul\":15504:15571   */\n      tag_528\n        /* \"#utility.yul\":15568:15570   */\n      0x10\n        /* \"#utility.yul\":15563:15566   */\n      dup4\n        /* \"#utility.yul\":15504:15571   */\n      tag_310\n      jump\t// in\n    tag_528:\n        /* \"#utility.yul\":15497:15571   */\n      swap2\n      pop\n        /* \"#utility.yul\":15580:15673   */\n      tag_529\n        /* \"#utility.yul\":15669:15672   */\n      dup3\n        /* \"#utility.yul\":15580:15673   */\n      tag_332\n      jump\t// in\n    tag_529:\n        /* \"#utility.yul\":15698:15700   */\n      0x20\n        /* \"#utility.yul\":15693:15696   */\n      dup3\n        /* \"#utility.yul\":15689:15701   */\n      add\n        /* \"#utility.yul\":15682:15701   */\n      swap1\n      pop\n        /* \"#utility.yul\":15341:15707   */\n      swap2\n      swap1\n      pop\n      jump\t// out\n        /* \"#utility.yul\":15713:16132   */\n    tag_181:\n        /* \"#utility.yul\":15879:15883   */\n      0x00\n        /* \"#utility.yul\":15917:15919   */\n      0x20\n        /* \"#utility.yul\":15906:15915   */\n      dup3\n        /* \"#utility.yul\":15902:15920   */\n      add\n        /* \"#utility.yul\":15894:15920   */\n      swap1\n      pop\n        /* \"#utility.yul\":15966:15975   */\n      dup2\n        /* \"#utility.yul\":15960:15964   */\n      dup2\n        /* \"#utility.yul\":15956:15976   */\n      sub\n        /* \"#utility.yul\":15952:15953   */\n      0x00\n        /* \"#utility.yul\":15941:15950   */\n      dup4\n        /* \"#utility.yul\":15937:15954   */\n      add\n        /* \"#utility.yul\":15930:15977   */\n      mstore\n        /* \"#utility.yul\":15994:16125   */\n      tag_531\n        /* \"#utility.yul\":16120:16124   */\n      dup2\n        /* \"#utility.yul\":15994:16125   */\n      tag_333\n      jump\t// in\n    tag_531:\n        /* \"#utility.yul\":15986:16125   */\n      swap1\n      pop\n        /* \"#utility.yul\":15713:16132   */\n      swap2\n      swap1\n      pop\n      jump\t// out\n        /* \"#utility.yul\":16138:16309   */\n    tag_334:\n        /* \"#utility.yul\":16278:16301   */\n      0x5469746c652063616e6e6f7420626520656d7074790000000000000000000000\n        /* \"#utility.yul\":16274:16275   */\n      0x00\n        /* \"#utility.yul\":16266:16272   */\n      dup3\n        /* \"#utility.yul\":16262:16276   */\n      add\n        /* \"#utility.yul\":16255:16302   */\n      mstore\n        /* \"#utility.yul\":16138:16309   */\n      pop\n      jump\t// out\n        /* \"#utility.yul\":16315:16681   */\n    tag_335:\n        /* \"#utility.yul\":16457:16460   */\n      0x00\n        /* \"#utility.yul\":16478:16545   */\n      tag_534\n        /* \"#utility.yul\":16542:16544   */\n      0x15\n        /* \"#utility.yul\":16537:16540   */\n      dup4\n        /* \"#utility.yul\":16478:16545   */\n      tag_310\n      jump\t// in\n    tag_534:\n        /* \"#utility.yul\":16471:16545   */\n      swap2\n      pop\n        /* \"#utility.yul\":16554:16647   */\n      tag_535\n        /* \"#utility.yul\":16643:16646   */\n      dup3\n        /* \"#utility.yul\":16554:16647   */\n      tag_334\n      jump\t// in\n    tag_535:\n        /* \"#utility.yul\":16672:16674   */\n      0x20\n        /* \"#utility.yul\":16667:16670   */\n      dup3\n        /* \"#utility.yul\":16663:16675   */\n      add\n        /* \"#utility.yul\":16656:16675   */\n      swap1\n      pop\n        /* \"#utility.yul\":16315:16681   */\n      swap2\n      swap1\n      pop\n      jump\t// out\n        /* \"#utility.yul\":16687:17106   */\n    tag_184:\n        /* \"#utility.yul\":16853:16857   */\n      0x00\n        /* \"#utility.yul\":16891:16893   */\n      0x20\n        /* \"#utility.yul\":16880:16889   */\n      dup3\n        /* \"#utility.yul\":16876:16894   */\n      add\n        /* \"#utility.yul\":16868:16894   */\n      swap1\n      pop\n        /* \"#utility.yul\":16940:16949   */\n      dup2\n        /* \"#utility.yul\":16934:16938   */\n      dup2\n        /* \"#utility.yul\":16930:16950   */\n      sub\n        /* \"#utility.yul\":16926:16927   */\n      0x00\n        /* \"#utility.yul\":16915:16924   */\n      dup4\n        /* \"#utility.yul\":16911:16928   */\n      add\n        /* \"#utility.yul\":16904:16951   */\n      mstore\n        /* \"#utility.yul\":16968:17099   */\n      tag_537\n        /* \"#utility.yul\":17094:17098   */\n      dup2\n        /* \"#utility.yul\":16968:17099   */\n      tag_335\n      jump\t// in\n    tag_537:\n        /* \"#utility.yul\":16960:17099   */\n      swap1\n      pop\n        /* \"#utility.yul\":16687:17106   */\n      swap2\n      swap1\n      pop\n      jump\t// out\n        /* \"#utility.yul\":17112:17289   */\n    tag_336:\n        /* \"#utility.yul\":17252:17281   */\n      0x4465736372697074696f6e2063616e6e6f7420626520656d7074790000000000\n        /* \"#utility.yul\":17248:17249   */\n      0x00\n        /* \"#utility.yul\":17240:17246   */\n      dup3\n        /* \"#utility.yul\":17236:17250   */\n      add\n        /* \"#utility.yul\":17229:17282   */\n      mstore\n        /* \"#utility.yul\":17112:17289   */\n      pop\n      jump\t// out\n        /* \"#utility.yul\":17295:17661   */\n    tag_337:\n        /* \"#utility.yul\":17437:17440   */\n      0x00\n        /* \"#utility.yul\":17458:17525   */\n      tag_540\n        /* \"#utility.yul\":17522:17524   */\n      0x1b\n        /* \"#utility.yul\":17517:17520   */\n      dup4\n        /* \"#utility.yul\":17458:17525   */\n      tag_310\n      jump\t// in\n    tag_540:\n        /* \"#utility.yul\":17451:17525   */\n      swap2\n      pop\n        /* \"#utility.yul\":17534:17627   */\n      tag_541\n        /* \"#utility.yul\":17623:17626   */\n      dup3\n        /* \"#utility.yul\":17534:17627   */\n      tag_336\n      jump\t// in\n    tag_541:\n        /* \"#utility.yul\":17652:17654   */\n      0x20\n        /* \"#utility.yul\":17647:17650   */\n      dup3\n        /* \"#utility.yul\":17643:17655   */\n      add\n        /* \"#utility.yul\":17636:17655   */\n      swap1\n      pop\n        /* \"#utility.yul\":17295:17661   */\n      swap2\n      swap1\n      pop\n      jump\t// out\n        /* \"#utility.yul\":17667:18086   */\n    tag_187:\n        /* \"#utility.yul\":17833:17837   */\n      0x00\n        /* \"#utility.yul\":17871:17873   */\n      0x20\n        /* \"#utility.yul\":17860:17869   */\n      dup3\n        /* \"#utility.yul\":17856:17874   */\n      add\n        /* \"#utility.yul\":17848:17874   */\n      swap1\n      pop\n        /* \"#utility.yul\":17920:17929   */\n      dup2\n        /* \"#utility.yul\":17914:17918   */\n      dup2\n        /* \"#utility.yul\":17910:17930   */\n      sub\n        /* \"#utility.yul\":17906:17907   */\n      0x00\n        /* \"#utility.yul\":17895:17904   */\n      dup4\n        /* \"#utility.yul\":17891:17908   */\n      add\n        /* \"#utility.yul\":17884:17931   */\n      mstore\n        /* \"#utility.yul\":17948:18079   */\n      tag_543\n        /* \"#utility.yul\":18074:18078   */\n      dup2\n        /* \"#utility.yul\":17948:18079   */\n      tag_337\n      jump\t// in\n    tag_543:\n        /* \"#utility.yul\":17940:18079   */\n      swap1\n      pop\n        /* \"#utility.yul\":17667:18086   */\n      swap2\n      swap1\n      pop\n      jump\t// out\n        /* \"#utility.yul\":18092:18258   */\n    tag_338:\n        /* \"#utility.yul\":18232:18250   */\n      0x496e76616c6964206475726174696f6e00000000000000000000000000000000\n        /* \"#utility.yul\":18228:18229   */\n      0x00\n        /* \"#utility.yul\":18220:18226   */\n      dup3\n        /* \"#utility.yul\":18216:18230   */\n      add\n        /* \"#utility.yul\":18209:18251   */\n      mstore\n        /* \"#utility.yul\":18092:18258   */\n      pop\n      jump\t// out\n        /* \"#utility.yul\":18264:18630   */\n    tag_339:\n        /* \"#utility.yul\":18406:18409   */\n      0x00\n        /* \"#utility.yul\":18427:18494   */\n      tag_546\n        /* \"#utility.yul\":18491:18493   */\n      0x10\n        /* \"#utility.yul\":18486:18489   */\n      dup4\n        /* \"#utility.yul\":18427:18494   */\n      tag_310\n      jump\t// in\n    tag_546:\n        /* \"#utility.yul\":18420:18494   */\n      swap2\n      pop\n        /* \"#utility.yul\":18503:18596   */\n      tag_547\n        /* \"#utility.yul\":18592:18595   */\n      dup3\n        /* \"#utility.yul\":18503:18596   */\n      tag_338\n      jump\t// in\n    tag_547:\n        /* \"#utility.yul\":18621:18623   */\n      0x20\n        /* \"#utility.yul\":18616:18619   */\n      dup3\n        /* \"#utility.yul\":18612:18624   */\n      add\n        /* \"#utility.yul\":18605:18624   */\n      swap1\n      pop\n        /* \"#utility.yul\":18264:18630   */\n      swap2\n      swap1\n      pop\n      jump\t// out\n        /* \"#utility.yul\":18636:19055   */\n    tag_191:\n        /* \"#utility.yul\":18802:18806   */\n      0x00\n        /* \"#utility.yul\":18840:18842   */\n      0x20\n        /* \"#utility.yul\":18829:18838   */\n      dup3\n        /* \"#utility.yul\":18825:18843   */\n      add\n        /* \"#utility.yul\":18817:18843   */\n      swap1\n      pop\n        /* \"#utility.yul\":18889:18898   */\n      dup2\n        /* \"#utility.yul\":18883:18887   */\n      dup2\n        /* \"#utility.yul\":18879:18899   */\n      sub\n        /* \"#utility.yul\":18875:18876   */\n      0x00\n        /* \"#utility.yul\":18864:18873   */\n      dup4\n        /* \"#utility.yul\":18860:18877   */\n      add\n        /* \"#utility.yul\":18853:18900   */\n      mstore\n        /* \"#utility.yul\":18917:19048   */\n      tag_549\n        /* \"#utility.yul\":19043:19047   */\n      dup2\n        /* \"#utility.yul\":18917:19048   */\n      tag_339\n      jump\t// in\n    tag_549:\n        /* \"#utility.yul\":18909:19048   */\n      swap1\n      pop\n        /* \"#utility.yul\":18636:19055   */\n      swap2\n      swap1\n      pop\n      jump\t// out\n        /* \"#utility.yul\":19061:19204   */\n    tag_340:\n        /* \"#utility.yul\":19118:19123   */\n      0x00\n        /* \"#utility.yul\":19149:19155   */\n      dup2\n        /* \"#utility.yul\":19143:19156   */\n      mload\n        /* \"#utility.yul\":19134:19156   */\n      swap1\n      pop\n        /* \"#utility.yul\":19165:19198   */\n      tag_551\n        /* \"#utility.yul\":19192:19197   */\n      dup2\n        /* \"#utility.yul\":19165:19198   */\n      tag_295\n      jump\t// in\n    tag_551:\n        /* \"#utility.yul\":19061:19204   */\n      swap3\n      swap2\n      pop\n      pop\n      jump\t// out\n        /* \"#utility.yul\":19210:19561   */\n    tag_196:\n        /* \"#utility.yul\":19280:19286   */\n      0x00\n        /* \"#utility.yul\":19329:19331   */\n      0x20\n        /* \"#utility.yul\":19317:19326   */\n      dup3\n        /* \"#utility.yul\":19308:19315   */\n      dup5\n        /* \"#utility.yul\":19304:19327   */\n      sub\n        /* \"#utility.yul\":19300:19332   */\n      slt\n        /* \"#utility.yul\":19297:19416   */\n      iszero\n      tag_553\n      jumpi\n        /* \"#utility.yul\":19335:19414   */\n      tag_554\n      tag_292\n      jump\t// in\n    tag_554:\n        /* \"#utility.yul\":19297:19416   */\n    tag_553:\n        /* \"#utility.yul\":19455:19456   */\n      0x00\n        /* \"#utility.yul\":19480:19544   */\n      tag_555\n        /* \"#utility.yul\":19536:19543   */\n      dup5\n        /* \"#utility.yul\":19527:19533   */\n      dup3\n        /* \"#utility.yul\":19516:19525   */\n      dup6\n        /* \"#utility.yul\":19512:19534   */\n      add\n        /* \"#utility.yul\":19480:19544   */\n      tag_340\n      jump\t// in\n    tag_555:\n        /* \"#utility.yul\":19470:19544   */\n      swap2\n      pop\n        /* \"#utility.yul\":19426:19554   */\n      pop\n        /* \"#utility.yul\":19210:19561   */\n      swap3\n      swap2\n      pop\n      pop\n      jump\t// out\n        /* \"#utility.yul\":19567:19670   */\n    tag_341:\n        /* \"#utility.yul\":19630:19637   */\n      0x00\n        /* \"#utility.yul\":19659:19664   */\n      dup2\n        /* \"#utility.yul\":19648:19664   */\n      swap1\n      pop\n        /* \"#utility.yul\":19567:19670   */\n      swap2\n      swap1\n      pop\n      jump\t// out\n        /* \"#utility.yul\":19676:19777   */\n    tag_342:\n        /* \"#utility.yul\":19712:19719   */\n      0x00\n        /* \"#utility.yul\":19752:19770   */\n      0xffffffffffffffff\n        /* \"#utility.yul\":19745:19750   */\n      dup3\n        /* \"#utility.yul\":19741:19771   */\n      and\n        /* \"#utility.yul\":19730:19771   */\n      swap1\n      pop\n        /* \"#utility.yul\":19676:19777   */\n      swap2\n      swap1\n      pop\n      jump\t// out\n        /* \"#utility.yul\":19783:19843   */\n    tag_343:\n        /* \"#utility.yul\":19811:19814   */\n      0x00\n        /* \"#utility.yul\":19832:19837   */\n      dup2\n        /* \"#utility.yul\":19825:19837   */\n      swap1\n      pop\n        /* \"#utility.yul\":19783:19843   */\n      swap2\n      swap1\n      pop\n      jump\t// out\n        /* \"#utility.yul\":19849:20041   */\n    tag_344:\n        /* \"#utility.yul\":19924:19933   */\n      0x00\n        /* \"#utility.yul\":19957:20035   */\n      tag_560\n        /* \"#utility.yul\":19974:20034   */\n      tag_561\n        /* \"#utility.yul\":19983:20033   */\n      tag_562\n        /* \"#utility.yul\":20027:20032   */\n      dup5\n        /* \"#utility.yul\":19983:20033   */\n      tag_341\n      jump\t// in\n    tag_562:\n        /* \"#utility.yul\":19974:20034   */\n      tag_343\n      jump\t// in\n    tag_561:\n        /* \"#utility.yul\":19957:20035   */\n      tag_342\n      jump\t// in\n    tag_560:\n        /* \"#utility.yul\":19944:20035   */\n      swap1\n      pop\n        /* \"#utility.yul\":19849:20041   */\n      swap2\n      swap1\n      pop\n      jump\t// out\n        /* \"#utility.yul\":20047:20228   */\n    tag_345:\n        /* \"#utility.yul\":20159:20221   */\n      tag_564\n        /* \"#utility.yul\":20215:20220   */\n      dup2\n        /* \"#utility.yul\":20159:20221   */\n      tag_344\n      jump\t// in\n    tag_564:\n        /* \"#utility.yul\":20154:20157   */\n      dup3\n        /* \"#utility.yul\":20147:20222   */\n      mstore\n        /* \"#utility.yul\":20047:20228   */\n      pop\n      pop\n      jump\t// out\n        /* \"#utility.yul\":20234:20616   */\n    tag_199:\n        /* \"#utility.yul\":20380:20384   */\n      0x00\n        /* \"#utility.yul\":20418:20420   */\n      0x40\n        /* \"#utility.yul\":20407:20416   */\n      dup3\n        /* \"#utility.yul\":20403:20421   */\n      add\n        /* \"#utility.yul\":20395:20421   */\n      swap1\n      pop\n        /* \"#utility.yul\":20431:20502   */\n      tag_566\n        /* \"#utility.yul\":20499:20500   */\n      0x00\n        /* \"#utility.yul\":20488:20497   */\n      dup4\n        /* \"#utility.yul\":20484:20501   */\n      add\n        /* \"#utility.yul\":20475:20481   */\n      dup6\n        /* \"#utility.yul\":20431:20502   */\n      tag_312\n      jump\t// in\n    tag_566:\n        /* \"#utility.yul\":20512:20609   */\n      tag_567\n        /* \"#utility.yul\":20605:20607   */\n      0x20\n        /* \"#utility.yul\":20594:20603   */\n      dup4\n        /* \"#utility.yul\":20590:20608   */\n      add\n        /* \"#utility.yul\":20581:20587   */\n      dup5\n        /* \"#utility.yul\":20512:20609   */\n      tag_345\n      jump\t// in\n    tag_567:\n        /* \"#utility.yul\":20234:20616   */\n      swap4\n      swap3\n      pop\n      pop\n      pop\n      jump\t// out\n        /* \"#utility.yul\":20622:20720   */\n    tag_346:\n        /* \"#utility.yul\":20673:20679   */\n      0x00\n        /* \"#utility.yul\":20707:20712   */\n      dup2\n        /* \"#utility.yul\":20701:20713   */\n      mload\n        /* \"#utility.yul\":20691:20713   */\n      swap1\n      pop\n        /* \"#utility.yul\":20622:20720   */\n      swap2\n      swap1\n      pop\n      jump\t// out\n        /* \"#utility.yul\":20726:20873   */\n    tag_347:\n        /* \"#utility.yul\":20827:20838   */\n      0x00\n        /* \"#utility.yul\":20864:20867   */\n      dup2\n        /* \"#utility.yul\":20849:20867   */\n      swap1\n      pop\n        /* \"#utility.yul\":20726:20873   */\n      swap3\n      swap2\n      pop\n      pop\n      jump\t// out\n        /* \"#utility.yul\":20879:21265   */\n    tag_348:\n        /* \"#utility.yul\":20983:20986   */\n      0x00\n        /* \"#utility.yul\":21011:21049   */\n      tag_571\n        /* \"#utility.yul\":21043:21048   */\n      dup3\n        /* \"#utility.yul\":21011:21049   */\n      tag_346\n      jump\t// in\n    tag_571:\n        /* \"#utility.yul\":21065:21153   */\n      tag_572\n        /* \"#utility.yul\":21146:21152   */\n      dup2\n        /* \"#utility.yul\":21141:21144   */\n      dup6\n        /* \"#utility.yul\":21065:21153   */\n      tag_347\n      jump\t// in\n    tag_572:\n        /* \"#utility.yul\":21058:21153   */\n      swap4\n      pop\n        /* \"#utility.yul\":21162:21227   */\n      tag_573\n        /* \"#utility.yul\":21220:21226   */\n      dup2\n        /* \"#utility.yul\":21215:21218   */\n      dup6\n        /* \"#utility.yul\":21208:21212   */\n      0x20\n        /* \"#utility.yul\":21201:21206   */\n      dup7\n        /* \"#utility.yul\":21197:21213   */\n      add\n        /* \"#utility.yul\":21162:21227   */\n      tag_300\n      jump\t// in\n    tag_573:\n        /* \"#utility.yul\":21252:21258   */\n      dup1\n        /* \"#utility.yul\":21247:21250   */\n      dup5\n        /* \"#utility.yul\":21243:21259   */\n      add\n        /* \"#utility.yul\":21236:21259   */\n      swap2\n      pop\n        /* \"#utility.yul\":20987:21265   */\n      pop\n        /* \"#utility.yul\":20879:21265   */\n      swap3\n      swap2\n      pop\n      pop\n      jump\t// out\n        /* \"#utility.yul\":21271:21542   */\n    tag_201:\n        /* \"#utility.yul\":21401:21404   */\n      0x00\n        /* \"#utility.yul\":21423:21516   */\n      tag_575\n        /* \"#utility.yul\":21512:21515   */\n      dup3\n        /* \"#utility.yul\":21503:21509   */\n      dup5\n        /* \"#utility.yul\":21423:21516   */\n      tag_348\n      jump\t// in\n    tag_575:\n        /* \"#utility.yul\":21416:21516   */\n      swap2\n      pop\n        /* \"#utility.yul\":21533:21536   */\n      dup2\n        /* \"#utility.yul\":21526:21536   */\n      swap1\n      pop\n        /* \"#utility.yul\":21271:21542   */\n      swap3\n      swap2\n      pop\n      pop\n      jump\t// out\n        /* \"#utility.yul\":21548:21715   */\n    tag_349:\n        /* \"#utility.yul\":21688:21707   */\n      0x546f6b656e206275726e206661696c6564000000000000000000000000000000\n        /* \"#utility.yul\":21684:21685   */\n      0x00\n        /* \"#utility.yul\":21676:21682   */\n      dup3\n        /* \"#utility.yul\":21672:21686   */\n      add\n        /* \"#utility.yul\":21665:21708   */\n      mstore\n        /* \"#utility.yul\":21548:21715   */\n      pop\n      jump\t// out\n        /* \"#utility.yul\":21721:22087   */\n    tag_350:\n        /* \"#utility.yul\":21863:21866   */\n      0x00\n        /* \"#utility.yul\":21884:21951   */\n      tag_578\n        /* \"#utility.yul\":21948:21950   */\n      0x11\n        /* \"#utility.yul\":21943:21946   */\n      dup4\n        /* \"#utility.yul\":21884:21951   */\n      tag_310\n      jump\t// in\n    tag_578:\n        /* \"#utility.yul\":21877:21951   */\n      swap2\n      pop\n        /* \"#utility.yul\":21960:22053   */\n      tag_579\n        /* \"#utility.yul\":22049:22052   */\n      dup3\n        /* \"#utility.yul\":21960:22053   */\n      tag_349\n      jump\t// in\n    tag_579:\n        /* \"#utility.yul\":22078:22080   */\n      0x20\n        /* \"#utility.yul\":22073:22076   */\n      dup3\n        /* \"#utility.yul\":22069:22081   */\n      add\n        /* \"#utility.yul\":22062:22081   */\n      swap1\n      pop\n        /* \"#utility.yul\":21721:22087   */\n      swap2\n      swap1\n      pop\n      jump\t// out\n        /* \"#utility.yul\":22093:22512   */\n    tag_207:\n        /* \"#utility.yul\":22259:22263   */\n      0x00\n        /* \"#utility.yul\":22297:22299   */\n      0x20\n        /* \"#utility.yul\":22286:22295   */\n      dup3\n        /* \"#utility.yul\":22282:22300   */\n      add\n        /* \"#utility.yul\":22274:22300   */\n      swap1\n      pop\n        /* \"#utility.yul\":22346:22355   */\n      dup2\n        /* \"#utility.yul\":22340:22344   */\n      dup2\n        /* \"#utility.yul\":22336:22356   */\n      sub\n        /* \"#utility.yul\":22332:22333   */\n      0x00\n        /* \"#utility.yul\":22321:22330   */\n      dup4\n        /* \"#utility.yul\":22317:22334   */\n      add\n        /* \"#utility.yul\":22310:22357   */\n      mstore\n        /* \"#utility.yul\":22374:22505   */\n      tag_581\n        /* \"#utility.yul\":22500:22504   */\n      dup2\n        /* \"#utility.yul\":22374:22505   */\n      tag_350\n      jump\t// in\n    tag_581:\n        /* \"#utility.yul\":22366:22505   */\n      swap1\n      pop\n        /* \"#utility.yul\":22093:22512   */\n      swap2\n      swap1\n      pop\n      jump\t// out\n        /* \"#utility.yul\":22518:22684   */\n    tag_351:\n        /* \"#utility.yul\":22658:22676   */\n      0x496e73756666696369656e742066656500000000000000000000000000000000\n        /* \"#utility.yul\":22654:22655   */\n      0x00\n        /* \"#utility.yul\":22646:22652   */\n      dup3\n        /* \"#utility.yul\":22642:22656   */\n      add\n        /* \"#utility.yul\":22635:22677   */\n      mstore\n        /* \"#utility.yul\":22518:22684   */\n      pop\n      jump\t// out\n        /* \"#utility.yul\":22690:23056   */\n    tag_352:\n        /* \"#utility.yul\":22832:22835   */\n      0x00\n        /* \"#utility.yul\":22853:22920   */\n      tag_584\n        /* \"#utility.yul\":22917:22919   */\n      0x10\n        /* \"#utility.yul\":22912:22915   */\n      dup4\n        /* \"#utility.yul\":22853:22920   */\n      tag_310\n      jump\t// in\n    tag_584:\n        /* \"#utility.yul\":22846:22920   */\n      swap2\n      pop\n        /* \"#utility.yul\":22929:23022   */\n      tag_585\n        /* \"#utility.yul\":23018:23021   */\n      dup3\n        /* \"#utility.yul\":22929:23022   */\n      tag_351\n      jump\t// in\n    tag_585:\n        /* \"#utility.yul\":23047:23049   */\n      0x20\n        /* \"#utility.yul\":23042:23045   */\n      dup3\n        /* \"#utility.yul\":23038:23050   */\n      add\n        /* \"#utility.yul\":23031:23050   */\n      swap1\n      pop\n        /* \"#utility.yul\":22690:23056   */\n      swap2\n      swap1\n      pop\n      jump\t// out\n        /* \"#utility.yul\":23062:23481   */\n    tag_211:\n        /* \"#utility.yul\":23228:23232   */\n      0x00\n        /* \"#utility.yul\":23266:23268   */\n      0x20\n        /* \"#utility.yul\":23255:23264   */\n      dup3\n        /* \"#utility.yul\":23251:23269   */\n      add\n        /* \"#utility.yul\":23243:23269   */\n      swap1\n      pop\n        /* \"#utility.yul\":23315:23324   */\n      dup2\n        /* \"#utility.yul\":23309:23313   */\n      dup2\n        /* \"#utility.yul\":23305:23325   */\n      sub\n        /* \"#utility.yul\":23301:23302   */\n      0x00\n        /* \"#utility.yul\":23290:23299   */\n      dup4\n        /* \"#utility.yul\":23286:23303   */\n      add\n        /* \"#utility.yul\":23279:23326   */\n      mstore\n        /* \"#utility.yul\":23343:23474   */\n      tag_587\n        /* \"#utility.yul\":23469:23473   */\n      dup2\n        /* \"#utility.yul\":23343:23474   */\n      tag_352\n      jump\t// in\n    tag_587:\n        /* \"#utility.yul\":23335:23474   */\n      swap1\n      pop\n        /* \"#utility.yul\":23062:23481   */\n      swap2\n      swap1\n      pop\n      jump\t// out\n        /* \"#utility.yul\":23487:23667   */\n    tag_353:\n        /* \"#utility.yul\":23535:23612   */\n      0x4e487b7100000000000000000000000000000000000000000000000000000000\n        /* \"#utility.yul\":23532:23533   */\n      0x00\n        /* \"#utility.yul\":23525:23613   */\n      mstore\n        /* \"#utility.yul\":23632:23636   */\n      0x11\n        /* \"#utility.yul\":23629:23630   */\n      0x04\n        /* \"#utility.yul\":23622:23637   */\n      mstore\n        /* \"#utility.yul\":23656:23660   */\n      0x24\n        /* \"#utility.yul\":23653:23654   */\n      0x00\n        /* \"#utility.yul\":23646:23661   */\n      revert\n        /* \"#utility.yul\":23673:23906   */\n    tag_213:\n        /* \"#utility.yul\":23712:23715   */\n      0x00\n        /* \"#utility.yul\":23735:23759   */\n      tag_590\n        /* \"#utility.yul\":23753:23758   */\n      dup3\n        /* \"#utility.yul\":23735:23759   */\n      tag_294\n      jump\t// in\n    tag_590:\n        /* \"#utility.yul\":23726:23759   */\n      swap2\n      pop\n        /* \"#utility.yul\":23781:23847   */\n      0xffffffffffffffffffffffffffffffffffffffffffffffffffffffffffffffff\n        /* \"#utility.yul\":23774:23779   */\n      dup3\n        /* \"#utility.yul\":23771:23848   */\n      sub\n        /* \"#utility.yul\":23768:23871   */\n      tag_591\n      jumpi\n        /* \"#utility.yul\":23851:23869   */\n      tag_592\n      tag_353\n      jump\t// in\n    tag_592:\n        /* \"#utility.yul\":23768:23871   */\n    tag_591:\n        /* \"#utility.yul\":23898:23899   */\n      0x01\n        /* \"#utility.yul\":23891:23896   */\n      dup3\n        /* \"#utility.yul\":23887:23900   */\n      add\n        /* \"#utility.yul\":23880:23900   */\n      swap1\n      pop\n        /* \"#utility.yul\":23673:23906   */\n      swap2\n      swap1\n      pop\n      jump\t// out\n        /* \"#utility.yul\":23912:24092   */\n    tag_354:\n        /* \"#utility.yul\":23960:24037   */\n      0x4e487b7100000000000000000000000000000000000000000000000000000000\n        /* \"#utility.yul\":23957:23958   */\n      0x00\n        /* \"#utility.yul\":23950:24038   */\n      mstore\n        /* \"#utility.yul\":24057:24061   */\n      0x12\n        /* \"#utility.yul\":24054:24055   */\n      0x04\n        /* \"#utility.yul\":24047:24062   */\n      mstore\n        /* \"#utility.yul\":24081:24085   */\n      0x24\n        /* \"#utility.yul\":24078:24079   */\n      0x00\n        /* \"#utility.yul\":24071:24086   */\n      revert\n        /* \"#utility.yul\":24098:24274   */\n    tag_215:\n        /* \"#utility.yul\":24130:24131   */\n      0x00\n        /* \"#utility.yul\":24147:24167   */\n      tag_595\n        /* \"#utility.yul\":24165:24166   */\n      dup3\n        /* \"#utility.yul\":24147:24167   */\n      tag_294\n      jump\t// in\n    tag_595:\n        /* \"#utility.yul\":24142:24167   */\n      swap2\n      pop\n        /* \"#utility.yul\":24181:24201   */\n      tag_596\n        /* \"#utility.yul\":24199:24200   */\n      dup4\n        /* \"#utility.yul\":24181:24201   */\n      tag_294\n      jump\t// in\n    tag_596:\n        /* \"#utility.yul\":24176:24201   */\n      swap3\n      pop\n        /* \"#utility.yul\":24220:24221   */\n      dup3\n        /* \"#utility.yul\":24210:24245   */\n      tag_597\n      jumpi\n        /* \"#utility.yul\":24225:24243   */\n      tag_598\n      tag_354\n      jump\t// in\n    tag_598:\n        /* \"#utility.yul\":24210:24245   */\n    tag_597:\n        /* \"#utility.yul\":24266:24267   */\n      dup3\n        /* \"#utility.yul\":24263:24264   */\n      dup3\n        /* \"#utility.yul\":24259:24268   */\n      mod\n        /* \"#utility.yul\":24254:24268   */\n      swap1\n      pop\n        /* \"#utility.yul\":24098:24274   */\n      swap3\n      swap2\n      pop\n      pop\n      jump\t// out\n        /* \"#utility.yul\":24280:24447   */\n    tag_355:\n        /* \"#utility.yul\":24420:24439   */\n      0x546f6b656e206d696e74206661696c6564000000000000000000000000000000\n        /* \"#utility.yul\":24416:24417   */\n      0x00\n        /* \"#utility.yul\":24408:24414   */\n      dup3\n        /* \"#utility.yul\":24404:24418   */\n      add\n        /* \"#utility.yul\":24397:24440   */\n      mstore\n        /* \"#utility.yul\":24280:24447   */\n      pop\n      jump\t// out\n        /* \"#utility.yul\":24453:24819   */\n    tag_356:\n        /* \"#utility.yul\":24595:24598   */\n      0x00\n        /* \"#utility.yul\":24616:24683   */\n      tag_601\n        /* \"#utility.yul\":24680:24682   */\n      0x11\n        /* \"#utility.yul\":24675:24678   */\n      dup4\n        /* \"#utility.yul\":24616:24683   */\n      tag_310\n      jump\t// in\n    tag_601:\n        /* \"#utility.yul\":24609:24683   */\n      swap2\n      pop\n        /* \"#utility.yul\":24692:24785   */\n      tag_602\n        /* \"#utility.yul\":24781:24784   */\n      dup3\n        /* \"#utility.yul\":24692:24785   */\n      tag_355\n      jump\t// in\n    tag_602:\n        /* \"#utility.yul\":24810:24812   */\n      0x20\n        /* \"#utility.yul\":24805:24808   */\n      dup3\n        /* \"#utility.yul\":24801:24813   */\n      add\n        /* \"#utility.yul\":24794:24813   */\n      swap1\n      pop\n        /* \"#utility.yul\":24453:24819   */\n      swap2\n      swap1\n      pop\n      jump\t// out\n        /* \"#utility.yul\":24825:25244   */\n    tag_224:\n        /* \"#utility.yul\":24991:24995   */\n      0x00\n        /* \"#utility.yul\":25029:25031   */\n      0x20\n        /* \"#utility.yul\":25018:25027   */\n      dup3\n        /* \"#utility.yul\":25014:25032   */\n      add\n        /* \"#utility.yul\":25006:25032   */\n      swap1\n      pop\n        /* \"#utility.yul\":25078:25087   */\n      dup2\n        /* \"#utility.yul\":25072:25076   */\n      dup2\n        /* \"#utility.yul\":25068:25088   */\n      sub\n        /* \"#utility.yul\":25064:25065   */\n      0x00\n        /* \"#utility.yul\":25053:25062   */\n      dup4\n        /* \"#utility.yul\":25049:25066   */\n      add\n        /* \"#utility.yul\":25042:25089   */\n      mstore\n        /* \"#utility.yul\":25106:25237   */\n      tag_604\n        /* \"#utility.yul\":25232:25236   */\n      dup2\n        /* \"#utility.yul\":25106:25237   */\n      tag_356\n      jump\t// in\n    tag_604:\n        /* \"#utility.yul\":25098:25237   */\n      swap1\n      pop\n        /* \"#utility.yul\":24825:25244   */\n      swap2\n      swap1\n      pop\n      jump\t// out\n        /* \"#utility.yul\":25250:25444   */\n    tag_357:\n        /* \"#utility.yul\":25326:25335   */\n      0x00\n        /* \"#utility.yul\":25359:25438   */\n      tag_606\n        /* \"#utility.yul\":25377:25437   */\n      tag_607\n        /* \"#utility.yul\":25386:25436   */\n      tag_608\n        /* \"#utility.yul\":25430:25435   */\n      dup5\n        /* \"#utility.yul\":25386:25436   */\n      tag_341\n      jump\t// in\n    tag_608:\n        /* \"#utility.yul\":25377:25437   */\n      tag_343\n      jump\t// in\n    tag_607:\n        /* \"#utility.yul\":25359:25438   */\n      tag_294\n      jump\t// in\n    tag_606:\n        /* \"#utility.yul\":25346:25438   */\n      swap1\n      pop\n        /* \"#utility.yul\":25250:25444   */\n      swap2\n      swap1\n      pop\n      jump\t// out\n        /* \"#utility.yul\":25450:25633   */\n    tag_358:\n        /* \"#utility.yul\":25563:25626   */\n      tag_610\n        /* \"#utility.yul\":25620:25625   */\n      dup2\n        /* \"#utility.yul\":25563:25626   */\n      tag_357\n      jump\t// in\n    tag_610:\n        /* \"#utility.yul\":25558:25561   */\n      dup3\n        /* \"#utility.yul\":25551:25627   */\n      mstore\n        /* \"#utility.yul\":25450:25633   */\n      pop\n      pop\n      jump\t// out\n        /* \"#utility.yul\":25639:25913   */\n    tag_226:\n        /* \"#utility.yul\":25758:25762   */\n      0x00\n        /* \"#utility.yul\":25796:25798   */\n      0x20\n        /* \"#utility.yul\":25785:25794   */\n      dup3\n        /* \"#utility.yul\":25781:25799   */\n      add\n        /* \"#utility.yul\":25773:25799   */\n      swap1\n      pop\n        /* \"#utility.yul\":25809:25906   */\n      tag_612\n        /* \"#utility.yul\":25903:25904   */\n      0x00\n        /* \"#utility.yul\":25892:25901   */\n      dup4\n        /* \"#utility.yul\":25888:25905   */\n      add\n        /* \"#utility.yul\":25879:25885   */\n      dup5\n        /* \"#utility.yul\":25809:25906   */\n      tag_358\n      jump\t// in\n    tag_612:\n        /* \"#utility.yul\":25639:25913   */\n      swap3\n      swap2\n      pop\n      pop\n      jump\t// out\n        /* \"#utility.yul\":25919:26329   */\n    tag_229:\n        /* \"#utility.yul\":25959:25966   */\n      0x00\n        /* \"#utility.yul\":25982:26002   */\n      tag_614\n        /* \"#utility.yul\":26000:26001   */\n      dup3\n        /* \"#utility.yul\":25982:26002   */\n      tag_294\n      jump\t// in\n    tag_614:\n        /* \"#utility.yul\":25977:26002   */\n      swap2\n      pop\n        /* \"#utility.yul\":26016:26036   */\n      tag_615\n        /* \"#utility.yul\":26034:26035   */\n      dup4\n        /* \"#utility.yul\":26016:26036   */\n      tag_294\n      jump\t// in\n    tag_615:\n        /* \"#utility.yul\":26011:26036   */\n      swap3\n      pop\n        /* \"#utility.yul\":26071:26072   */\n      dup3\n        /* \"#utility.yul\":26068:26069   */\n      dup3\n        /* \"#utility.yul\":26064:26073   */\n      mul\n        /* \"#utility.yul\":26093:26123   */\n      tag_616\n        /* \"#utility.yul\":26111:26122   */\n      dup2\n        /* \"#utility.yul\":26093:26123   */\n      tag_294\n      jump\t// in\n    tag_616:\n        /* \"#utility.yul\":26082:26123   */\n      swap2\n      pop\n        /* \"#utility.yul\":26272:26273   */\n      dup3\n        /* \"#utility.yul\":26263:26270   */\n      dup3\n        /* \"#utility.yul\":26259:26274   */\n      div\n        /* \"#utility.yul\":26256:26257   */\n      dup5\n        /* \"#utility.yul\":26253:26275   */\n      eq\n        /* \"#utility.yul\":26233:26234   */\n      dup4\n        /* \"#utility.yul\":26226:26235   */\n      iszero\n        /* \"#utility.yul\":26206:26289   */\n      or\n        /* \"#utility.yul\":26183:26322   */\n      tag_617\n      jumpi\n        /* \"#utility.yul\":26302:26320   */\n      tag_618\n      tag_353\n      jump\t// in\n    tag_618:\n        /* \"#utility.yul\":26183:26322   */\n    tag_617:\n        /* \"#utility.yul\":25967:26329   */\n      pop\n        /* \"#utility.yul\":25919:26329   */\n      swap3\n      swap2\n      pop\n      pop\n      jump\t// out\n        /* \"#utility.yul\":26335:26526   */\n    tag_231:\n        /* \"#utility.yul\":26375:26378   */\n      0x00\n        /* \"#utility.yul\":26394:26414   */\n      tag_620\n        /* \"#utility.yul\":26412:26413   */\n      dup3\n        /* \"#utility.yul\":26394:26414   */\n      tag_294\n      jump\t// in\n    tag_620:\n        /* \"#utility.yul\":26389:26414   */\n      swap2\n      pop\n        /* \"#utility.yul\":26428:26448   */\n      tag_621\n        /* \"#utility.yul\":26446:26447   */\n      dup4\n        /* \"#utility.yul\":26428:26448   */\n      tag_294\n      jump\t// in\n    tag_621:\n        /* \"#utility.yul\":26423:26448   */\n      swap3\n      pop\n        /* \"#utility.yul\":26471:26472   */\n      dup3\n        /* \"#utility.yul\":26468:26469   */\n      dup3\n        /* \"#utility.yul\":26464:26473   */\n      add\n        /* \"#utility.yul\":26457:26473   */\n      swap1\n      pop\n        /* \"#utility.yul\":26492:26495   */\n      dup1\n        /* \"#utility.yul\":26489:26490   */\n      dup3\n        /* \"#utility.yul\":26486:26496   */\n      gt\n        /* \"#utility.yul\":26483:26519   */\n      iszero\n      tag_622\n      jumpi\n        /* \"#utility.yul\":26499:26517   */\n      tag_623\n      tag_353\n      jump\t// in\n    tag_623:\n        /* \"#utility.yul\":26483:26519   */\n    tag_622:\n        /* \"#utility.yul\":26335:26526   */\n      swap3\n      swap2\n      pop\n      pop\n      jump\t// out\n        /* \"#utility.yul\":26532:26673   */\n    tag_359:\n        /* \"#utility.yul\":26581:26585   */\n      0x00\n        /* \"#utility.yul\":26604:26607   */\n      dup2\n        /* \"#utility.yul\":26596:26607   */\n      swap1\n      pop\n        /* \"#utility.yul\":26627:26630   */\n      dup2\n        /* \"#utility.yul\":26624:26625   */\n      0x00\n        /* \"#utility.yul\":26617:26631   */\n      mstore\n        /* \"#utility.yul\":26661:26665   */\n      0x20\n        /* \"#utility.yul\":26658:26659   */\n      0x00\n        /* \"#utility.yul\":26648:26666   */\n      keccak256\n        /* \"#utility.yul\":26640:26666   */\n      swap1\n      pop\n        /* \"#utility.yul\":26532:26673   */\n      swap2\n      swap1\n      pop\n      jump\t// out\n        /* \"#utility.yul\":26679:26772   */\n    tag_360:\n        /* \"#utility.yul\":26716:26722   */\n      0x00\n        /* \"#utility.yul\":26763:26765   */\n      0x20\n        /* \"#utility.yul\":26758:26760   */\n      0x1f\n        /* \"#utility.yul\":26751:26756   */\n      dup4\n        /* \"#utility.yul\":26747:26761   */\n      add\n        /* \"#utility.yul\":26743:26766   */\n      div\n        /* \"#utility.yul\":26733:26766   */\n      swap1\n      pop\n        /* \"#utility.yul\":26679:26772   */\n      swap2\n      swap1\n      pop\n      jump\t// out\n        /* \"#utility.yul\":26778:26885   */\n    tag_361:\n        /* \"#utility.yul\":26822:26830   */\n      0x00\n        /* \"#utility.yul\":26872:26877   */\n      dup3\n        /* \"#utility.yul\":26866:26870   */\n      dup3\n        /* \"#utility.yul\":26862:26878   */\n      shl\n        /* \"#utility.yul\":26841:26878   */\n      swap1\n      pop\n        /* \"#utility.yul\":26778:26885   */\n      swap3\n      swap2\n      pop\n      pop\n      jump\t// out\n        /* \"#utility.yul\":26891:27284   */\n    tag_362:\n        /* \"#utility.yul\":26960:26966   */\n      0x00\n        /* \"#utility.yul\":27010:27011   */\n      0x08\n        /* \"#utility.yul\":26998:27008   */\n      dup4\n        /* \"#utility.yul\":26994:27012   */\n      mul\n        /* \"#utility.yul\":27033:27130   */\n      tag_628\n        /* \"#utility.yul\":27063:27129   */\n      0xffffffffffffffffffffffffffffffffffffffffffffffffffffffffffffffff\n        /* \"#utility.yul\":27052:27061   */\n      dup3\n        /* \"#utility.yul\":27033:27130   */\n      tag_361\n      jump\t// in\n    tag_628:\n        /* \"#utility.yul\":27151:27190   */\n      tag_629\n        /* \"#utility.yul\":27181:27189   */\n      dup7\n        /* \"#utility.yul\":27170:27179   */\n      dup4\n        /* \"#utility.yul\":27151:27190   */\n      tag_361\n      jump\t// in\n    tag_629:\n        /* \"#utility.yul\":27139:27190   */\n      swap6\n      pop\n        /* \"#utility.yul\":27223:27227   */\n      dup1\n        /* \"#utility.yul\":27219:27228   */\n      not\n        /* \"#utility.yul\":27212:27217   */\n      dup5\n        /* \"#utility.yul\":27208:27229   */\n      and\n        /* \"#utility.yul\":27199:27229   */\n      swap4\n      pop\n        /* \"#utility.yul\":27272:27276   */\n      dup1\n        /* \"#utility.yul\":27262:27270   */\n      dup7\n        /* \"#utility.yul\":27258:27277   */\n      and\n        /* \"#utility.yul\":27251:27256   */\n      dup5\n        /* \"#utility.yul\":27248:27278   */\n      or\n        /* \"#utility.yul\":27238:27278   */\n      swap3\n      pop\n        /* \"#utility.yul\":26967:27284   */\n      pop\n      pop\n        /* \"#utility.yul\":26891:27284   */\n      swap4\n      swap3\n      pop\n      pop\n      pop\n      jump\t// out\n        /* \"#utility.yul\":27290:27432   */\n    tag_363:\n        /* \"#utility.yul\":27340:27349   */\n      0x00\n        /* \"#utility.yul\":27373:27426   */\n      tag_631\n        /* \"#utility.yul\":27391:27425   */\n      tag_632\n        /* \"#utility.yul\":27400:27424   */\n      tag_633\n        /* \"#utility.yul\":27418:27423   */\n      dup5\n        /* \"#utility.yul\":27400:27424   */\n      tag_294\n      jump\t// in\n    tag_633:\n        /* \"#utility.yul\":27391:27425   */\n      tag_343\n      jump\t// in\n    tag_632:\n        /* \"#utility.yul\":27373:27426   */\n      tag_294\n      jump\t// in\n    tag_631:\n        /* \"#utility.yul\":27360:27426   */\n      swap1\n      pop\n        /* \"#utility.yul\":27290:27432   */\n      swap2\n      swap1\n      pop\n      jump\t// out\n        /* \"#utility.yul\":27438:27513   */\n    tag_364:\n        /* \"#utility.yul\":27481:27484   */\n      0x00\n        /* \"#utility.yul\":27502:27507   */\n      dup2\n        /* \"#utility.yul\":27495:27507   */\n      swap1\n      pop\n        /* \"#utility.yul\":27438:27513   */\n      swap2\n      swap1\n      pop\n      jump\t// out\n        /* \"#utility.yul\":27519:27788   */\n    tag_365:\n        /* \"#utility.yul\":27629:27668   */\n      tag_636\n        /* \"#utility.yul\":27660:27667   */\n      dup4\n        /* \"#utility.yul\":27629:27668   */\n      tag_363\n      jump\t// in\n    tag_636:\n        /* \"#utility.yul\":27690:27781   */\n      tag_637\n        /* \"#utility.yul\":27739:27780   */\n      tag_638\n        /* \"#utility.yul\":27763:27779   */\n      dup3\n        /* \"#utility.yul\":27739:27780   */\n      tag_364\n      jump\t// in\n    tag_638:\n        /* \"#utility.yul\":27731:27737   */\n      dup5\n        /* \"#utility.yul\":27724:27728   */\n      dup5\n        /* \"#utility.yul\":27718:27729   */\n      sload\n        /* \"#utility.yul\":27690:27781   */\n      tag_362\n      jump\t// in\n    tag_637:\n        /* \"#utility.yul\":27684:27688   */\n      dup3\n        /* \"#utility.yul\":27677:27782   */\n      sstore\n        /* \"#utility.yul\":27595:27788   */\n      pop\n        /* \"#utility.yul\":27519:27788   */\n      pop\n      pop\n      pop\n      jump\t// out\n        /* \"#utility.yul\":27794:27867   */\n    tag_366:\n        /* \"#utility.yul\":27839:27842   */\n      0x00\n        /* \"#utility.yul\":27860:27861   */\n      0x00\n        /* \"#utility.yul\":27853:27861   */\n      swap1\n      pop\n        /* \"#utility.yul\":27794:27867   */\n      swap1\n      jump\t// out\n        /* \"#utility.yul\":27873:28062   */\n    tag_367:\n        /* \"#utility.yul\":27950:27982   */\n      tag_641\n      tag_366\n      jump\t// in\n    tag_641:\n        /* \"#utility.yul\":27991:28056   */\n      tag_642\n        /* \"#utility.yul\":28049:28055   */\n      dup2\n        /* \"#utility.yul\":28041:28047   */\n      dup5\n        /* \"#utility.yul\":28035:28039   */\n      dup5\n        /* \"#utility.yul\":27991:28056   */\n      tag_365\n      jump\t// in\n    tag_642:\n        /* \"#utility.yul\":27926:28062   */\n      pop\n        /* \"#utility.yul\":27873:28062   */\n      pop\n      pop\n      jump\t// out\n        /* \"#utility.yul\":28068:28254   */\n    tag_368:\n        /* \"#utility.yul\":28128:28248   */\n    tag_644:\n        /* \"#utility.yul\":28145:28148   */\n      dup2\n        /* \"#utility.yul\":28138:28143   */\n      dup2\n        /* \"#utility.yul\":28135:28149   */\n      lt\n        /* \"#utility.yul\":28128:28248   */\n      iszero\n      tag_646\n      jumpi\n        /* \"#utility.yul\":28199:28238   */\n      tag_647\n        /* \"#utility.yul\":28236:28237   */\n      0x00\n        /* \"#utility.yul\":28229:28234   */\n      dup3\n        /* \"#utility.yul\":28199:28238   */\n      tag_367\n      jump\t// in\n    tag_647:\n        /* \"#utility.yul\":28172:28173   */\n      0x01\n        /* \"#utility.yul\":28165:28170   */\n      dup2\n        /* \"#utility.yul\":28161:28174   */\n      add\n        /* \"#utility.yul\":28152:28174   */\n      swap1\n      pop\n        /* \"#utility.yul\":28128:28248   */\n      jump(tag_644)\n    tag_646:\n        /* \"#utility.yul\":28068:28254   */\n      pop\n      pop\n      jump\t// out\n        /* \"#utility.yul\":28260:28803   */\n    tag_369:\n        /* \"#utility.yul\":28361:28363   */\n      0x1f\n        /* \"#utility.yul\":28356:28359   */\n      dup3\n        /* \"#utility.yul\":28353:28364   */\n      gt\n        /* \"#utility.yul\":28350:28796   */\n      iszero\n      tag_649\n      jumpi\n        /* \"#utility.yul\":28395:28433   */\n      tag_650\n        /* \"#utility.yul\":28427:28432   */\n      dup2\n        /* \"#utility.yul\":28395:28433   */\n      tag_359\n      jump\t// in\n    tag_650:\n        /* \"#utility.yul\":28479:28508   */\n      tag_651\n        /* \"#utility.yul\":28497:28507   */\n      dup5\n        /* \"#utility.yul\":28479:28508   */\n      tag_360\n      jump\t// in\n    tag_651:\n        /* \"#utility.yul\":28469:28477   */\n      dup2\n        /* \"#utility.yul\":28465:28509   */\n      add\n        /* \"#utility.yul\":28662:28664   */\n      0x20\n        /* \"#utility.yul\":28650:28660   */\n      dup6\n        /* \"#utility.yul\":28647:28665   */\n      lt\n        /* \"#utility.yul\":28644:28693   */\n      iszero\n      tag_652\n      jumpi\n        /* \"#utility.yul\":28683:28691   */\n      dup2\n        /* \"#utility.yul\":28668:28691   */\n      swap1\n      pop\n        /* \"#utility.yul\":28644:28693   */\n    tag_652:\n        /* \"#utility.yul\":28706:28786   */\n      tag_653\n        /* \"#utility.yul\":28762:28784   */\n      tag_654\n        /* \"#utility.yul\":28780:28783   */\n      dup6\n        /* \"#utility.yul\":28762:28784   */\n      tag_360\n      jump\t// in\n    tag_654:\n        /* \"#utility.yul\":28752:28760   */\n      dup4\n        /* \"#utility.yul\":28748:28785   */\n      add\n        /* \"#utility.yul\":28735:28746   */\n      dup3\n        /* \"#utility.yul\":28706:28786   */\n      tag_368\n      jump\t// in\n    tag_653:\n        /* \"#utility.yul\":28365:28796   */\n      pop\n      pop\n        /* \"#utility.yul\":28350:28796   */\n    tag_649:\n        /* \"#utility.yul\":28260:28803   */\n      pop\n      pop\n      pop\n      jump\t// out\n        /* \"#utility.yul\":28809:28926   */\n    tag_370:\n        /* \"#utility.yul\":28863:28871   */\n      0x00\n        /* \"#utility.yul\":28913:28918   */\n      dup3\n        /* \"#utility.yul\":28907:28911   */\n      dup3\n        /* \"#utility.yul\":28903:28919   */\n      shr\n        /* \"#utility.yul\":28882:28919   */\n      swap1\n      pop\n        /* \"#utility.yul\":28809:28926   */\n      swap3\n      swap2\n      pop\n      pop\n      jump\t// out\n        /* \"#utility.yul\":28932:29101   */\n    tag_371:\n        /* \"#utility.yul\":28976:28982   */\n      0x00\n        /* \"#utility.yul\":29009:29060   */\n      tag_657\n        /* \"#utility.yul\":29057:29058   */\n      0x00\n        /* \"#utility.yul\":29053:29059   */\n      not\n        /* \"#utility.yul\":29045:29050   */\n      dup5\n        /* \"#utility.yul\":29042:29043   */\n      0x08\n        /* \"#utility.yul\":29038:29051   */\n      mul\n        /* \"#utility.yul\":29009:29060   */\n      tag_370\n      jump\t// in\n    tag_657:\n        /* \"#utility.yul\":29005:29061   */\n      not\n        /* \"#utility.yul\":29090:29094   */\n      dup1\n        /* \"#utility.yul\":29084:29088   */\n      dup4\n        /* \"#utility.yul\":29080:29095   */\n      and\n        /* \"#utility.yul\":29070:29095   */\n      swap2\n      pop\n        /* \"#utility.yul\":28983:29101   */\n      pop\n        /* \"#utility.yul\":28932:29101   */\n      swap3\n      swap2\n      pop\n      pop\n      jump\t// out\n        /* \"#utility.yul\":29106:29401   */\n    tag_372:\n        /* \"#utility.yul\":29182:29186   */\n      0x00\n        /* \"#utility.yul\":29328:29357   */\n      tag_659\n        /* \"#utility.yul\":29353:29356   */\n      dup4\n        /* \"#utility.yul\":29347:29351   */\n      dup4\n        /* \"#utility.yul\":29328:29357   */\n      tag_371\n      jump\t// in\n    tag_659:\n        /* \"#utility.yul\":29320:29357   */\n      swap2\n      pop\n        /* \"#utility.yul\":29390:29393   */\n      dup3\n        /* \"#utility.yul\":29387:29388   */\n      0x02\n        /* \"#utility.yul\":29383:29394   */\n      mul\n        /* \"#utility.yul\":29377:29381   */\n      dup3\n        /* \"#utility.yul\":29374:29395   */\n      or\n        /* \"#utility.yul\":29366:29395   */\n      swap1\n      pop\n        /* \"#utility.yul\":29106:29401   */\n      swap3\n      swap2\n      pop\n      pop\n      jump\t// out\n        /* \"#utility.yul\":29406:30801   */\n    tag_233:\n        /* \"#utility.yul\":29523:29560   */\n      tag_661\n        /* \"#utility.yul\":29556:29559   */\n      dup3\n        /* \"#utility.yul\":29523:29560   */\n      tag_298\n      jump\t// in\n    tag_661:\n        /* \"#utility.yul\":29625:29643   */\n      0xffffffffffffffff\n        /* \"#utility.yul\":29617:29623   */\n      dup2\n        /* \"#utility.yul\":29614:29644   */\n      gt\n        /* \"#utility.yul\":29611:29667   */\n      iszero\n      tag_662\n      jumpi\n        /* \"#utility.yul\":29647:29665   */\n      tag_663\n      tag_318\n      jump\t// in\n    tag_663:\n        /* \"#utility.yul\":29611:29667   */\n    tag_662:\n        /* \"#utility.yul\":29691:29729   */\n      tag_664\n        /* \"#utility.yul\":29723:29727   */\n      dup3\n        /* \"#utility.yul\":29717:29728   */\n      sload\n        /* \"#utility.yul\":29691:29729   */\n      tag_129\n      jump\t// in\n    tag_664:\n        /* \"#utility.yul\":29776:29843   */\n      tag_665\n        /* \"#utility.yul\":29836:29842   */\n      dup3\n        /* \"#utility.yul\":29828:29834   */\n      dup3\n        /* \"#utility.yul\":29822:29826   */\n      dup6\n        /* \"#utility.yul\":29776:29843   */\n      tag_369\n      jump\t// in\n    tag_665:\n        /* \"#utility.yul\":29870:29871   */\n      0x00\n        /* \"#utility.yul\":29894:29898   */\n      0x20\n        /* \"#utility.yul\":29881:29898   */\n      swap1\n      pop\n        /* \"#utility.yul\":29926:29928   */\n      0x1f\n        /* \"#utility.yul\":29918:29924   */\n      dup4\n        /* \"#utility.yul\":29915:29929   */\n      gt\n        /* \"#utility.yul\":29943:29944   */\n      0x01\n        /* \"#utility.yul\":29938:30556   */\n      dup2\n      eq\n      tag_667\n      jumpi\n        /* \"#utility.yul\":30600:30601   */\n      0x00\n        /* \"#utility.yul\":30617:30623   */\n      dup5\n        /* \"#utility.yul\":30614:30691   */\n      iszero\n      tag_668\n      jumpi\n        /* \"#utility.yul\":30666:30675   */\n      dup3\n        /* \"#utility.yul\":30661:30664   */\n      dup8\n        /* \"#utility.yul\":30657:30676   */\n      add\n        /* \"#utility.yul\":30651:30677   */\n      mload\n        /* \"#utility.yul\":30642:30677   */\n      swap1\n      pop\n        /* \"#utility.yul\":30614:30691   */\n    tag_668:\n        /* \"#utility.yul\":30717:30784   */\n      tag_669\n        /* \"#utility.yul\":30777:30783   */\n      dup6\n        /* \"#utility.yul\":30770:30775   */\n      dup3\n        /* \"#utility.yul\":30717:30784   */\n      tag_372\n      jump\t// in\n    tag_669:\n        /* \"#utility.yul\":30711:30715   */\n      dup7\n        /* \"#utility.yul\":30704:30785   */\n      sstore\n        /* \"#utility.yul\":30573:30795   */\n      pop\n        /* \"#utility.yul\":29908:30795   */\n      jump(tag_666)\n        /* \"#utility.yul\":29938:30556   */\n    tag_667:\n        /* \"#utility.yul\":29990:29994   */\n      0x1f\n        /* \"#utility.yul\":29986:29995   */\n      not\n        /* \"#utility.yul\":29978:29984   */\n      dup5\n        /* \"#utility.yul\":29974:29996   */\n      and\n        /* \"#utility.yul\":30024:30061   */\n      tag_670\n        /* \"#utility.yul\":30056:30060   */\n      dup7\n        /* \"#utility.yul\":30024:30061   */\n      tag_359\n      jump\t// in\n    tag_670:\n        /* \"#utility.yul\":30083:30084   */\n      0x00\n        /* \"#utility.yul\":30097:30305   */\n    tag_671:\n        /* \"#utility.yul\":30111:30118   */\n      dup3\n        /* \"#utility.yul\":30108:30109   */\n      dup2\n        /* \"#utility.yul\":30105:30119   */\n      lt\n        /* \"#utility.yul\":30097:30305   */\n      iszero\n      tag_673\n      jumpi\n        /* \"#utility.yul\":30190:30199   */\n      dup5\n        /* \"#utility.yul\":30185:30188   */\n      dup10\n        /* \"#utility.yul\":30181:30200   */\n      add\n        /* \"#utility.yul\":30175:30201   */\n      mload\n        /* \"#utility.yul\":30167:30173   */\n      dup3\n        /* \"#utility.yul\":30160:30202   */\n      sstore\n        /* \"#utility.yul\":30241:30242   */\n      0x01\n        /* \"#utility.yul\":30233:30239   */\n      dup3\n        /* \"#utility.yul\":30229:30243   */\n      add\n        /* \"#utility.yul\":30219:30243   */\n      swap2\n      pop\n        /* \"#utility.yul\":30288:30290   */\n      0x20\n        /* \"#utility.yul\":30277:30286   */\n      dup6\n        /* \"#utility.yul\":30273:30291   */\n      add\n        /* \"#utility.yul\":30260:30291   */\n      swap5\n      pop\n        /* \"#utility.yul\":30134:30138   */\n      0x20\n        /* \"#utility.yul\":30131:30132   */\n      dup2\n        /* \"#utility.yul\":30127:30139   */\n      add\n        /* \"#utility.yul\":30122:30139   */\n      swap1\n      pop\n        /* \"#utility.yul\":30097:30305   */\n      jump(tag_671)\n    tag_673:\n        /* \"#utility.yul\":30333:30339   */\n      dup7\n        /* \"#utility.yul\":30324:30331   */\n      dup4\n        /* \"#utility.yul\":30321:30340   */\n      lt\n        /* \"#utility.yul\":30318:30497   */\n      iszero\n      tag_674\n      jumpi\n        /* \"#utility.yul\":30391:30400   */\n      dup5\n        /* \"#utility.yul\":30386:30389   */\n      dup10\n        /* \"#utility.yul\":30382:30401   */\n      add\n        /* \"#utility.yul\":30376:30402   */\n      mload\n        /* \"#utility.yul\":30434:30482   */\n      tag_675\n        /* \"#utility.yul\":30476:30480   */\n      0x1f\n        /* \"#utility.yul\":30468:30474   */\n      dup10\n        /* \"#utility.yul\":30464:30481   */\n      and\n        /* \"#utility.yul\":30453:30462   */\n      dup3\n        /* \"#utility.yul\":30434:30482   */\n      tag_371\n      jump\t// in\n    tag_675:\n        /* \"#utility.yul\":30426:30432   */\n      dup4\n        /* \"#utility.yul\":30419:30483   */\n      sstore\n        /* \"#utility.yul\":30341:30497   */\n      pop\n        /* \"#utility.yul\":30318:30497   */\n    tag_674:\n        /* \"#utility.yul\":30543:30544   */\n      0x01\n        /* \"#utility.yul\":30539:30540   */\n      0x02\n        /* \"#utility.yul\":30531:30537   */\n      dup9\n        /* \"#utility.yul\":30527:30541   */\n      mul\n        /* \"#utility.yul\":30523:30545   */\n      add\n        /* \"#utility.yul\":30517:30521   */\n      dup9\n        /* \"#utility.yul\":30510:30546   */\n      sstore\n        /* \"#utility.yul\":29945:30556   */\n      pop\n      pop\n      pop\n        /* \"#utility.yul\":29908:30795   */\n    tag_666:\n      pop\n        /* \"#utility.yul\":29498:30801   */\n      pop\n      pop\n      pop\n        /* \"#utility.yul\":29406:30801   */\n      pop\n      pop\n      jump\t// out\n        /* \"#utility.yul\":30807:31328   */\n    tag_236:\n        /* \"#utility.yul\":30970:30974   */\n      0x00\n        /* \"#utility.yul\":31008:31010   */\n      0x60\n        /* \"#utility.yul\":30997:31006   */\n      dup3\n        /* \"#utility.yul\":30993:31011   */\n      add\n        /* \"#utility.yul\":30985:31011   */\n      swap1\n      pop\n        /* \"#utility.yul\":31057:31066   */\n      dup2\n        /* \"#utility.yul\":31051:31055   */\n      dup2\n        /* \"#utility.yul\":31047:31067   */\n      sub\n        /* \"#utility.yul\":31043:31044   */\n      0x00\n        /* \"#utility.yul\":31032:31041   */\n      dup4\n        /* \"#utility.yul\":31028:31045   */\n      add\n        /* \"#utility.yul\":31021:31068   */\n      mstore\n        /* \"#utility.yul\":31085:31163   */\n      tag_677\n        /* \"#utility.yul\":31158:31162   */\n      dup2\n        /* \"#utility.yul\":31149:31155   */\n      dup7\n        /* \"#utility.yul\":31085:31163   */\n      tag_311\n      jump\t// in\n    tag_677:\n        /* \"#utility.yul\":31077:31163   */\n      swap1\n      pop\n        /* \"#utility.yul\":31173:31245   */\n      tag_678\n        /* \"#utility.yul\":31241:31243   */\n      0x20\n        /* \"#utility.yul\":31230:31239   */\n      dup4\n        /* \"#utility.yul\":31226:31244   */\n      add\n        /* \"#utility.yul\":31217:31223   */\n      dup6\n        /* \"#utility.yul\":31173:31245   */\n      tag_309\n      jump\t// in\n    tag_678:\n        /* \"#utility.yul\":31255:31321   */\n      tag_679\n        /* \"#utility.yul\":31317:31319   */\n      0x40\n        /* \"#utility.yul\":31306:31315   */\n      dup4\n        /* \"#utility.yul\":31302:31320   */\n      add\n        /* \"#utility.yul\":31293:31299   */\n      dup5\n        /* \"#utility.yul\":31255:31321   */\n      tag_313\n      jump\t// in\n    tag_679:\n        /* \"#utility.yul\":30807:31328   */\n      swap5\n      swap4\n      pop\n      pop\n      pop\n      pop\n      jump\t// out\n        /* \"#utility.yul\":31334:31506   */\n    tag_373:\n        /* \"#utility.yul\":31474:31498   */\n      0x5065746974696f6e206973206e6f742061637469766500000000000000000000\n        /* \"#utility.yul\":31470:31471   */\n      0x00\n        /* \"#utility.yul\":31462:31468   */\n      dup3\n        /* \"#utility.yul\":31458:31472   */\n      add\n        /* \"#utility.yul\":31451:31499   */\n      mstore\n        /* \"#utility.yul\":31334:31506   */\n      pop\n      jump\t// out\n        /* \"#utility.yul\":31512:31878   */\n    tag_374:\n        /* \"#utility.yul\":31654:31657   */\n      0x00\n        /* \"#utility.yul\":31675:31742   */\n      tag_682\n        /* \"#utility.yul\":31739:31741   */\n      0x16\n        /* \"#utility.yul\":31734:31737   */\n      dup4\n        /* \"#utility.yul\":31675:31742   */\n      tag_310\n      jump\t// in\n    tag_682:\n        /* \"#utility.yul\":31668:31742   */\n      swap2\n      pop\n        /* \"#utility.yul\":31751:31844   */\n      tag_683\n        /* \"#utility.yul\":31840:31843   */\n      dup3\n        /* \"#utility.yul\":31751:31844   */\n      tag_373\n      jump\t// in\n    tag_683:\n        /* \"#utility.yul\":31869:31871   */\n      0x20\n        /* \"#utility.yul\":31864:31867   */\n      dup3\n        /* \"#utility.yul\":31860:31872   */\n      add\n        /* \"#utility.yul\":31853:31872   */\n      swap1\n      pop\n        /* \"#utility.yul\":31512:31878   */\n      swap2\n      swap1\n      pop\n      jump\t// out\n        /* \"#utility.yul\":31884:32303   */\n    tag_244:\n        /* \"#utility.yul\":32050:32054   */\n      0x00\n        /* \"#utility.yul\":32088:32090   */\n      0x20\n        /* \"#utility.yul\":32077:32086   */\n      dup3\n        /* \"#utility.yul\":32073:32091   */\n      add\n        /* \"#utility.yul\":32065:32091   */\n      swap1\n      pop\n        /* \"#utility.yul\":32137:32146   */\n      dup2\n        /* \"#utility.yul\":32131:32135   */\n      dup2\n        /* \"#utility.yul\":32127:32147   */\n      sub\n        /* \"#utility.yul\":32123:32124   */\n      0x00\n        /* \"#utility.yul\":32112:32121   */\n      dup4\n        /* \"#utility.yul\":32108:32125   */\n      add\n        /* \"#utility.yul\":32101:32148   */\n      mstore\n        /* \"#utility.yul\":32165:32296   */\n      tag_685\n        /* \"#utility.yul\":32291:32295   */\n      dup2\n        /* \"#utility.yul\":32165:32296   */\n      tag_374\n      jump\t// in\n    tag_685:\n        /* \"#utility.yul\":32157:32296   */\n      swap1\n      pop\n        /* \"#utility.yul\":31884:32303   */\n      swap2\n      swap1\n      pop\n      jump\t// out\n        /* \"#utility.yul\":32309:32477   */\n    tag_375:\n        /* \"#utility.yul\":32449:32469   */\n      0x5065746974696f6e2068617320656e6465640000000000000000000000000000\n        /* \"#utility.yul\":32445:32446   */\n      0x00\n        /* \"#utility.yul\":32437:32443   */\n      dup3\n        /* \"#utility.yul\":32433:32447   */\n      add\n        /* \"#utility.yul\":32426:32470   */\n      mstore\n        /* \"#utility.yul\":32309:32477   */\n      pop\n      jump\t// out\n        /* \"#utility.yul\":32483:32849   */\n    tag_376:\n        /* \"#utility.yul\":32625:32628   */\n      0x00\n        /* \"#utility.yul\":32646:32713   */\n      tag_688\n        /* \"#utility.yul\":32710:32712   */\n      0x12\n        /* \"#utility.yul\":32705:32708   */\n      dup4\n        /* \"#utility.yul\":32646:32713   */\n      tag_310\n      jump\t// in\n    tag_688:\n        /* \"#utility.yul\":32639:32713   */\n      swap2\n      pop\n        /* \"#utility.yul\":32722:32815   */\n      tag_689\n        /* \"#utility.yul\":32811:32814   */\n      dup3\n        /* \"#utility.yul\":32722:32815   */\n      tag_375\n      jump\t// in\n    tag_689:\n        /* \"#utility.yul\":32840:32842   */\n      0x20\n        /* \"#utility.yul\":32835:32838   */\n      dup3\n        /* \"#utility.yul\":32831:32843   */\n      add\n        /* \"#utility.yul\":32824:32843   */\n      swap1\n      pop\n        /* \"#utility.yul\":32483:32849   */\n      swap2\n      swap1\n      pop\n      jump\t// out\n        /* \"#utility.yul\":32855:33274   */\n    tag_247:\n        /* \"#utility.yul\":33021:33025   */\n      0x00\n        /* \"#utility.yul\":33059:33061   */\n      0x20\n        /* \"#utility.yul\":33048:33057   */\n      dup3\n        /* \"#utility.yul\":33044:33062   */\n      add\n        /* \"#utility.yul\":33036:33062   */\n      swap1\n      pop\n        /* \"#utility.yul\":33108:33117   */\n      dup2\n        /* \"#utility.yul\":33102:33106   */\n      dup2\n        /* \"#utility.yul\":33098:33118   */\n      sub\n        /* \"#utility.yul\":33094:33095   */\n      0x00\n        /* \"#utility.yul\":33083:33092   */\n      dup4\n        /* \"#utility.yul\":33079:33096   */\n      add\n        /* \"#utility.yul\":33072:33119   */\n      mstore\n        /* \"#utility.yul\":33136:33267   */\n      tag_691\n        /* \"#utility.yul\":33262:33266   */\n      dup2\n        /* \"#utility.yul\":33136:33267   */\n      tag_376\n      jump\t// in\n    tag_691:\n        /* \"#utility.yul\":33128:33267   */\n      swap1\n      pop\n        /* \"#utility.yul\":32855:33274   */\n      swap2\n      swap1\n      pop\n      jump\t// out\n        /* \"#utility.yul\":33280:33444   */\n    tag_377:\n        /* \"#utility.yul\":33420:33436   */\n      0x416c7265616479207369676e6564000000000000000000000000000000000000\n        /* \"#utility.yul\":33416:33417   */\n      0x00\n        /* \"#utility.yul\":33408:33414   */\n      dup3\n        /* \"#utility.yul\":33404:33418   */\n      add\n        /* \"#utility.yul\":33397:33437   */\n      mstore\n        /* \"#utility.yul\":33280:33444   */\n      pop\n      jump\t// out\n        /* \"#utility.yul\":33450:33816   */\n    tag_378:\n        /* \"#utility.yul\":33592:33595   */\n      0x00\n        /* \"#utility.yul\":33613:33680   */\n      tag_694\n        /* \"#utility.yul\":33677:33679   */\n      0x0e\n        /* \"#utility.yul\":33672:33675   */\n      dup4\n        /* \"#utility.yul\":33613:33680   */\n      tag_310\n      jump\t// in\n    tag_694:\n        /* \"#utility.yul\":33606:33680   */\n      swap2\n      pop\n        /* \"#utility.yul\":33689:33782   */\n      tag_695\n        /* \"#utility.yul\":33778:33781   */\n      dup3\n        /* \"#utility.yul\":33689:33782   */\n      tag_377\n      jump\t// in\n    tag_695:\n        /* \"#utility.yul\":33807:33809   */\n      0x20\n        /* \"#utility.yul\":33802:33805   */\n      dup3\n        /* \"#utility.yul\":33798:33810   */\n      add\n        /* \"#utility.yul\":33791:33810   */\n      swap1\n      pop\n        /* \"#utility.yul\":33450:33816   */\n      swap2\n      swap1\n      pop\n      jump\t// out\n        /* \"#utility.yul\":33822:34241   */\n    tag_250:\n        /* \"#utility.yul\":33988:33992   */\n      0x00\n        /* \"#utility.yul\":34026:34028   */\n      0x20\n        /* \"#utility.yul\":34015:34024   */\n      dup3\n        /* \"#utility.yul\":34011:34029   */\n      add\n        /* \"#utility.yul\":34003:34029   */\n      swap1\n      pop\n        /* \"#utility.yul\":34075:34084   */\n      dup2\n        /* \"#utility.yul\":34069:34073   */\n      dup2\n        /* \"#utility.yul\":34065:34085   */\n      sub\n        /* \"#utility.yul\":34061:34062   */\n      0x00\n        /* \"#utility.yul\":34050:34059   */\n      dup4\n        /* \"#utility.yul\":34046:34063   */\n      add\n        /* \"#utility.yul\":34039:34086   */\n      mstore\n        /* \"#utility.yul\":34103:34234   */\n      tag_697\n        /* \"#utility.yul\":34229:34233   */\n      dup2\n        /* \"#utility.yul\":34103:34234   */\n      tag_378\n      jump\t// in\n    tag_697:\n        /* \"#utility.yul\":34095:34234   */\n      swap1\n      pop\n        /* \"#utility.yul\":33822:34241   */\n      swap2\n      swap1\n      pop\n      jump\t// out\n        /* \"#utility.yul\":34247:34411   */\n    tag_379:\n        /* \"#utility.yul\":34387:34403   */\n      0x4e6f7420617574686f72697a6564000000000000000000000000000000000000\n        /* \"#utility.yul\":34383:34384   */\n      0x00\n        /* \"#utility.yul\":34375:34381   */\n      dup3\n        /* \"#utility.yul\":34371:34385   */\n      add\n        /* \"#utility.yul\":34364:34404   */\n      mstore\n        /* \"#utility.yul\":34247:34411   */\n      pop\n      jump\t// out\n        /* \"#utility.yul\":34417:34783   */\n    tag_380:\n        /* \"#utility.yul\":34559:34562   */\n      0x00\n        /* \"#utility.yul\":34580:34647   */\n      tag_700\n        /* \"#utility.yul\":34644:34646   */\n      0x0e\n        /* \"#utility.yul\":34639:34642   */\n      dup4\n        /* \"#utility.yul\":34580:34647   */\n      tag_310\n      jump\t// in\n    tag_700:\n        /* \"#utility.yul\":34573:34647   */\n      swap2\n      pop\n        /* \"#utility.yul\":34656:34749   */\n      tag_701\n        /* \"#utility.yul\":34745:34748   */\n      dup3\n        /* \"#utility.yul\":34656:34749   */\n      tag_379\n      jump\t// in\n    tag_701:\n        /* \"#utility.yul\":34774:34776   */\n      0x20\n        /* \"#utility.yul\":34769:34772   */\n      dup3\n        /* \"#utility.yul\":34765:34777   */\n      add\n        /* \"#utility.yul\":34758:34777   */\n      swap1\n      pop\n        /* \"#utility.yul\":34417:34783   */\n      swap2\n      swap1\n      pop\n      jump\t// out\n        /* \"#utility.yul\":34789:35208   */\n    tag_270:\n        /* \"#utility.yul\":34955:34959   */\n      0x00\n        /* \"#utility.yul\":34993:34995   */\n      0x20\n        /* \"#utility.yul\":34982:34991   */\n      dup3\n        /* \"#utility.yul\":34978:34996   */\n      add\n        /* \"#utility.yul\":34970:34996   */\n      swap1\n      pop\n        /* \"#utility.yul\":35042:35051   */\n      dup2\n        /* \"#utility.yul\":35036:35040   */\n      dup2\n        /* \"#utility.yul\":35032:35052   */\n      sub\n        /* \"#utility.yul\":35028:35029   */\n      0x00\n        /* \"#utility.yul\":35017:35026   */\n      dup4\n        /* \"#utility.yul\":35013:35030   */\n      add\n        /* \"#utility.yul\":35006:35053   */\n      mstore\n        /* \"#utility.yul\":35070:35201   */\n      tag_703\n        /* \"#utility.yul\":35196:35200   */\n      dup2\n        /* \"#utility.yul\":35070:35201   */\n      tag_380\n      jump\t// in\n    tag_703:\n        /* \"#utility.yul\":35062:35201   */\n      swap1\n      pop\n        /* \"#utility.yul\":34789:35208   */\n      swap2\n      swap1\n      pop\n      jump\t// out\n        /* \"#utility.yul\":35214:35378   */\n    tag_381:\n        /* \"#utility.yul\":35354:35370   */\n      0x416c726561647920636c6f736564000000000000000000000000000000000000\n        /* \"#utility.yul\":35350:35351   */\n      0x00\n        /* \"#utility.yul\":35342:35348   */\n      dup3\n        /* \"#utility.yul\":35338:35352   */\n      add\n        /* \"#utility.yul\":35331:35371   */\n      mstore\n        /* \"#utility.yul\":35214:35378   */\n      pop\n      jump\t// out\n        /* \"#utility.yul\":35384:35750   */\n    tag_382:\n        /* \"#utility.yul\":35526:35529   */\n      0x00\n        /* \"#utility.yul\":35547:35614   */\n      tag_706\n        /* \"#utility.yul\":35611:35613   */\n      0x0e\n        /* \"#utility.yul\":35606:35609   */\n      dup4\n        /* \"#utility.yul\":35547:35614   */\n      tag_310\n      jump\t// in\n    tag_706:\n        /* \"#utility.yul\":35540:35614   */\n      swap2\n      pop\n        /* \"#utility.yul\":35623:35716   */\n      tag_707\n        /* \"#utility.yul\":35712:35715   */\n      dup3\n        /* \"#utility.yul\":35623:35716   */\n      tag_381\n      jump\t// in\n    tag_707:\n        /* \"#utility.yul\":35741:35743   */\n      0x20\n        /* \"#utility.yul\":35736:35739   */\n      dup3\n        /* \"#utility.yul\":35732:35744   */\n      add\n        /* \"#utility.yul\":35725:35744   */\n      swap1\n      pop\n        /* \"#utility.yul\":35384:35750   */\n      swap2\n      swap1\n      pop\n      jump\t// out\n        /* \"#utility.yul\":35756:36175   */\n    tag_273:\n        /* \"#utility.yul\":35922:35926   */\n      0x00\n        /* \"#utility.yul\":35960:35962   */\n      0x20\n        /* \"#utility.yul\":35949:35958   */\n      dup3\n        /* \"#utility.yul\":35945:35963   */\n      add\n        /* \"#utility.yul\":35937:35963   */\n      swap1\n      pop\n        /* \"#utility.yul\":36009:36018   */\n      dup2\n        /* \"#utility.yul\":36003:36007   */\n      dup2\n        /* \"#utility.yul\":35999:36019   */\n      sub\n        /* \"#utility.yul\":35995:35996   */\n      0x00\n        /* \"#utility.yul\":35984:35993   */\n      dup4\n        /* \"#utility.yul\":35980:35997   */\n      add\n        /* \"#utility.yul\":35973:36020   */\n      mstore\n        /* \"#utility.yul\":36037:36168   */\n      tag_709\n        /* \"#utility.yul\":36163:36167   */\n      dup2\n        /* \"#utility.yul\":36037:36168   */\n      tag_382\n      jump\t// in\n    tag_709:\n        /* \"#utility.yul\":36029:36168   */\n      swap1\n      pop\n        /* \"#utility.yul\":35756:36175   */\n      swap2\n      swap1\n      pop\n      jump\t// out\n\n    auxdata: 0xa26469706673582212204193b5f647dddacdac00979c66939b974b75ef2dbbc1f80ade5994b257e5f5a064736f6c634300081e0033\n}\n",
				"bytecode": {
					"linkReferences": {},
					"object": "6080604052662386f26fc10000600555600560065534801561001f575f5ffd5b5060405161300b38038061300b8339818101604052810190610041919061034b565b335f73ffffffffffffffffffffffffffffffffffffffff168173ffffffffffffffffffffffffffffffffffffffff16036100b2575f6040517f1e4fbdf70000000000000000000000000000000000000000000000000000000081526004016100a99190610398565b60405180910390fd5b6100c18161022c60201b60201c565b50600180819055505f73ffffffffffffffffffffffffffffffffffffffff168273ffffffffffffffffffffffffffffffffffffffff1603610137576040517f08c379a000000000000000000000000000000000000000000000000000000000815260040161012e9061040b565b60405180910390fd5b5f73ffffffffffffffffffffffffffffffffffffffff168173ffffffffffffffffffffffffffffffffffffffff16036101a5576040517f08c379a000000000000000000000000000000000000000000000000000000000815260040161019c90610473565b60405180910390fd5b8160025f6101000a81548173ffffffffffffffffffffffffffffffffffffffff021916908373ffffffffffffffffffffffffffffffffffffffff1602179055508060035f6101000a81548173ffffffffffffffffffffffffffffffffffffffff021916908373ffffffffffffffffffffffffffffffffffffffff1602179055505050610491565b5f5f5f9054906101000a900473ffffffffffffffffffffffffffffffffffffffff169050815f5f6101000a81548173ffffffffffffffffffffffffffffffffffffffff021916908373ffffffffffffffffffffffffffffffffffffffff1602179055508173ffffffffffffffffffffffffffffffffffffffff168173ffffffffffffffffffffffffffffffffffffffff167f8be0079c531659141344cd1fd0a4f28419497f9722a3daafe3b4186f6b6457e060405160405180910390a35050565b5f5ffd5b5f73ffffffffffffffffffffffffffffffffffffffff82169050919050565b5f61031a826102f1565b9050919050565b61032a81610310565b8114610334575f5ffd5b50565b5f8151905061034581610321565b92915050565b5f5f60408385031215610361576103606102ed565b5b5f61036e85828601610337565b925050602061037f85828601610337565b9150509250929050565b61039281610310565b82525050565b5f6020820190506103ab5f830184610389565b92915050565b5f82825260208201905092915050565b7f496e76616c69642044414f2061646472657373000000000000000000000000005f82015250565b5f6103f56013836103b1565b9150610400826103c1565b602082019050919050565b5f6020820190508181035f830152610422816103e9565b9050919050565b7f496e76616c696420746f6b656e206164647265737300000000000000000000005f82015250565b5f61045d6015836103b1565b915061046882610429565b602082019050919050565b5f6020820190508181035f83015261048a81610451565b9050919050565b612b6d8061049e5f395ff3fe608060405260043610610129575f3560e01c806378e18d35116100aa578063dcad01801161006e578063dcad0180146103ba578063eb74d835146103e2578063eeccd7201461041e578063f2fde38b14610446578063f345a9971461046e578063f99972ef1461049657610129565b806378e18d35146102f65780638a5be9b7146103205780638da5cb5b1461034a5780639089c4a514610374578063990627ec1461039e57610129565b806368bdd33a116100f157806368bdd33a146102165780636b4acbe01461023e578063709df8d91461027a578063715018a6146102b657806372fa1301146102cc57610129565b80630c90ce421461012d5780632fb33528146101695780633ad50ded146101935780633ccfd60b146101d65780635ea4d29c146101ec575b5f5ffd5b348015610138575f5ffd5b50610153600480360381019061014e9190611a15565b6104d2565b6040516101609190611bcc565b60405180910390f35b348015610174575f5ffd5b5061017d6106f8565b60405161018a9190611bfb565b60405180910390f35b34801561019e575f5ffd5b506101b960048036038101906101b49190611a15565b6106fe565b6040516101cd989796959493929190611c7a565b60405180910390f35b3480156101e1575f5ffd5b506101ea610879565b005b3480156101f7575f5ffd5b50610200610915565b60405161020d9190611bfb565b60405180910390f35b348015610221575f5ffd5b5061023c60048036038101906102379190611a15565b61091b565b005b348015610249575f5ffd5b50610264600480360381019061025f9190611d2e565b61096f565b6040516102719190611bfb565b60405180910390f35b348015610285575f5ffd5b506102a0600480360381019061029b9190611d59565b6109b5565b6040516102ad9190611d97565b60405180910390f35b3480156102c1575f5ffd5b506102ca6109df565b005b3480156102d7575f5ffd5b506102e06109f2565b6040516102ed9190611bfb565b60405180910390f35b348015610301575f5ffd5b5061030a6109fb565b6040516103179190611db0565b60405180910390f35b34801561032b575f5ffd5b50610334610a20565b6040516103419190611bfb565b60405180910390f35b348015610355575f5ffd5b5061035e610a26565b60405161036b9190611db0565b60405180910390f35b34801561037f575f5ffd5b50610388610a4d565b6040516103959190611db0565b60405180910390f35b6103b860048036038101906103b39190611ef5565b610a72565b005b3480156103c5575f5ffd5b506103e060048036038101906103db9190611a15565b61120e565b005b3480156103ed575f5ffd5b5061040860048036038101906104039190611d59565b61146a565b6040516104159190611d97565b60405180910390f35b348015610429575f5ffd5b50610444600480360381019061043f9190611a15565b6114cc565b005b348015610451575f5ffd5b5061046c60048036038101906104679190611d2e565b6114de565b005b348015610479575f5ffd5b50610494600480360381019061048f9190611a15565b611562565b005b3480156104a1575f5ffd5b506104bc60048036038101906104b79190611d2e565b611724565b6040516104c99190611bfb565b60405180910390f35b6104da61197a565b600454821061051e576040517f08c379a000000000000000000000000000000000000000000000000000000000815260040161051590611fc7565b60405180910390fd5b60075f8381526020019081526020015f20604051806101000160405290815f820154815260200160018201805461055490612012565b80601f016020809104026020016040519081016040528092919081815260200182805461058090612012565b80156105cb5780601f106105a2576101008083540402835291602001916105cb565b820191905f5260205f20905b8154815290600101906020018083116105ae57829003601f168201915b505050505081526020016002820180546105e490612012565b80601f016020809104026020016040519081016040528092919081815260200182805461061090612012565b801561065b5780601f106106325761010080835404028352916020019161065b565b820191905f5260205f20905b81548152906001019060200180831161063e57829003601f168201915b50505050508152602001600382015f9054906101000a900473ffffffffffffffffffffffffffffffffffffffff1673ffffffffffffffffffffffffffffffffffffffff1673ffffffffffffffffffffffffffffffffffffffff168152602001600482015481526020016005820154815260200160068201548152602001600782015f9054906101000a900460ff1615151515815250509050919050565b60045481565b6007602052805f5260405f205f91509050805f01549080600101805461072390612012565b80601f016020809104026020016040519081016040528092919081815260200182805461074f90612012565b801561079a5780601f106107715761010080835404028352916020019161079a565b820191905f5260205f20905b81548152906001019060200180831161077d57829003601f168201915b5050505050908060020180546107af90612012565b80601f01602080910402602001604051908101604052809291908181526020018280546107db90612012565b80156108265780601f106107fd57610100808354040283529160200191610826565b820191905f5260205f20905b81548152906001019060200180831161080957829003601f168201915b505050505090806003015f9054906101000a900473ffffffffffffffffffffffffffffffffffffffff1690806004015490806005015490806006015490806007015f9054906101000a900460ff16905088565b610881611739565b5f4790505f81116108c7576040517f08c379a00000000000000000000000000000000000000000000000000000000081526004016108be9061208c565b60405180910390fd5b6108cf610a26565b73ffffffffffffffffffffffffffffffffffffffff166108fc8290811502906040515f60405180830381858888f19350505050158015610911573d5f5f3e3d5ffd5b5050565b60065481565b610923611739565b5f8111610965576040517f08c379a000000000000000000000000000000000000000000000000000000000815260040161095c906120f4565b60405180910390fd5b8060068190555050565b5f60085f8373ffffffffffffffffffffffffffffffffffffffff1673ffffffffffffffffffffffffffffffffffffffff1681526020019081526020015f20549050919050565b6009602052815f5260405f20602052805f5260405f205f915091509054906101000a900460ff1681565b6109e7611739565b6109f05f6117c0565b565b5f600454905090565b60025f9054906101000a900473ffffffffffffffffffffffffffffffffffffffff1681565b60055481565b5f5f5f9054906101000a900473ffffffffffffffffffffffffffffffffffffffff16905090565b60035f9054906101000a900473ffffffffffffffffffffffffffffffffffffffff1681565b610a7a611881565b610a83336118c7565b610ac2576040517f08c379a0000000000000000000000000000000000000000000000000000000008152600401610ab99061215c565b60405180910390fd5b5f835111610b05576040517f08c379a0000000000000000000000000000000000000000000000000000000008152600401610afc906121c4565b60405180910390fd5b5f825111610b48576040517f08c379a0000000000000000000000000000000000000000000000000000000008152600401610b3f9061222c565b60405180910390fd5b5f81118015610b59575061016d8111155b610b98576040517f08c379a0000000000000000000000000000000000000000000000000000000008152600401610b8f90612294565b60405180910390fd5b5f5f90505f60035f9054906101000a900473ffffffffffffffffffffffffffffffffffffffff1673ffffffffffffffffffffffffffffffffffffffff166370a08231336040518263ffffffff1660e01b8152600401610bf79190611db0565b602060405180830381865afa158015610c12573d5f5f3e3d5ffd5b505050506040513d601f19601f82011682018060405250810190610c3691906122c6565b9050670de0b6b3a76400008110610db1575f60035f9054906101000a900473ffffffffffffffffffffffffffffffffffffffff1673ffffffffffffffffffffffffffffffffffffffff1633670de0b6b3a7640000604051602401610c9b929190612346565b6040516020818303038152906040527f79cc6790000000000000000000000000000000000000000000000000000000007bffffffffffffffffffffffffffffffffffffffffffffffffffffffff19166020820180517bffffffffffffffffffffffffffffffffffffffffffffffffffffffff8381831617835250505050604051610d2591906123b1565b5f604051808303815f865af19150503d805f8114610d5e576040519150601f19603f3d011682016040523d82523d5f602084013e610d63565b606091505b5050905080610da7576040517f08c379a0000000000000000000000000000000000000000000000000000000008152600401610d9e90612411565b60405180910390fd5b6001925050611052565b600554341015610df6576040517f08c379a0000000000000000000000000000000000000000000000000000000008152600401610ded90612479565b60405180910390fd5b60085f3373ffffffffffffffffffffffffffffffffffffffff1673ffffffffffffffffffffffffffffffffffffffff1681526020019081526020015f205f815480929190610e43906124c4565b91905055505f60065460085f3373ffffffffffffffffffffffffffffffffffffffff1673ffffffffffffffffffffffffffffffffffffffff1681526020019081526020015f2054610e949190612538565b03611051575f60035f9054906101000a900473ffffffffffffffffffffffffffffffffffffffff1673ffffffffffffffffffffffffffffffffffffffff1633670de0b6b3a7640000604051602401610eed929190612346565b6040516020818303038152906040527f40c10f19000000000000000000000000000000000000000000000000000000007bffffffffffffffffffffffffffffffffffffffffffffffffffffffff19166020820180517bffffffffffffffffffffffffffffffffffffffffffffffffffffffff8381831617835250505050604051610f7791906123b1565b5f604051808303815f865af19150503d805f8114610fb0576040519150601f19603f3d011682016040523d82523d5f602084013e610fb5565b606091505b5050905080610ff9576040517f08c379a0000000000000000000000000000000000000000000000000000000008152600401610ff0906125b2565b60405180910390fd5b3373ffffffffffffffffffffffffffffffffffffffff167f851805430b76795c7338d40d064eb68ff06ea87e8e9518986018edb9f5590252670de0b6b3a76400006040516110479190612600565b60405180910390a2505b5b5f600454905060045f81548092919061106a906124c4565b91905055505f620151808561107f9190612619565b4261108a919061265a565b90506040518061010001604052808381526020018881526020018781526020013373ffffffffffffffffffffffffffffffffffffffff1681526020014281526020018281526020015f81526020016001151581525060075f8481526020019081526020015f205f820151815f0155602082015181600101908161110d9190612824565b5060408201518160020190816111239190612824565b506060820151816003015f6101000a81548173ffffffffffffffffffffffffffffffffffffffff021916908373ffffffffffffffffffffffffffffffffffffffff1602179055506080820151816004015560a0820151816005015560c0820151816006015560e0820151816007015f6101000a81548160ff0219169083151502179055509050503373ffffffffffffffffffffffffffffffffffffffff16827f23a303dc33f80786069d2624c4fce431a8ab64cffc5f57f5875102d02f5c35478984886040516111f5939291906128f3565b60405180910390a35050505061120961196a565b505050565b6004548110611252576040517f08c379a000000000000000000000000000000000000000000000000000000000815260040161124990611fc7565b60405180910390fd5b5f60075f8381526020019081526020015f209050806007015f9054906101000a900460ff166112b6576040517f08c379a00000000000000000000000000000000000000000000000000000000081526004016112ad90612979565b60405180910390fd5b80600501544211156112fd576040517f08c379a00000000000000000000000000000000000000000000000000000000081526004016112f4906129e1565b60405180910390fd5b60095f8381526020019081526020015f205f3373ffffffffffffffffffffffffffffffffffffffff1673ffffffffffffffffffffffffffffffffffffffff1681526020019081526020015f205f9054906101000a900460ff1615611396576040517f08c379a000000000000000000000000000000000000000000000000000000000815260040161138d90612a49565b60405180910390fd5b600160095f8481526020019081526020015f205f3373ffffffffffffffffffffffffffffffffffffffff1673ffffffffffffffffffffffffffffffffffffffff1681526020019081526020015f205f6101000a81548160ff021916908315150217905550806006015f81548092919061140e906124c4565b91905055503373ffffffffffffffffffffffffffffffffffffffff16827fa504fa1a622895e43328023a9fa609eebec933d785df4e1b4f33c587d12d835d836006015460405161145e9190611bfb565b60405180910390a35050565b5f60095f8481526020019081526020015f205f8373ffffffffffffffffffffffffffffffffffffffff1673ffffffffffffffffffffffffffffffffffffffff1681526020019081526020015f205f9054906101000a900460ff16905092915050565b6114d4611739565b8060058190555050565b6114e6611739565b5f73ffffffffffffffffffffffffffffffffffffffff168173ffffffffffffffffffffffffffffffffffffffff1603611556575f6040517f1e4fbdf700000000000000000000000000000000000000000000000000000000815260040161154d9190611db0565b60405180910390fd5b61155f816117c0565b50565b60045481106115a6576040517f08c379a000000000000000000000000000000000000000000000000000000000815260040161159d90611fc7565b60405180910390fd5b5f60075f8381526020019081526020015f209050806003015f9054906101000a900473ffffffffffffffffffffffffffffffffffffffff1673ffffffffffffffffffffffffffffffffffffffff163373ffffffffffffffffffffffffffffffffffffffff161480611649575061161a610a26565b73ffffffffffffffffffffffffffffffffffffffff163373ffffffffffffffffffffffffffffffffffffffff16145b611688576040517f08c379a000000000000000000000000000000000000000000000000000000000815260040161167f90612ab1565b60405180910390fd5b806007015f9054906101000a900460ff166116d8576040517f08c379a00000000000000000000000000000000000000000000000000000000081526004016116cf90612b19565b60405180910390fd5b5f816007015f6101000a81548160ff021916908315150217905550817f60f9b8db8de8d36d1b8b158b5929ed13941e7bc1dfbc4e720df073924161491b60405160405180910390a25050565b6008602052805f5260405f205f915090505481565b611741611973565b73ffffffffffffffffffffffffffffffffffffffff1661175f610a26565b73ffffffffffffffffffffffffffffffffffffffff16146117be57611782611973565b6040517f118cdaa70000000000000000000000000000000000000000000000000000000081526004016117b59190611db0565b60405180910390fd5b565b5f5f5f9054906101000a900473ffffffffffffffffffffffffffffffffffffffff169050815f5f6101000a81548173ffffffffffffffffffffffffffffffffffffffff021916908373ffffffffffffffffffffffffffffffffffffffff1602179055508173ffffffffffffffffffffffffffffffffffffffff168173ffffffffffffffffffffffffffffffffffffffff167f8be0079c531659141344cd1fd0a4f28419497f9722a3daafe3b4186f6b6457e060405160405180910390a35050565b6002600154036118bd576040517f3ee5aeb500000000000000000000000000000000000000000000000000000000815260040160405180910390fd5b6002600181905550565b5f5f60025f9054906101000a900473ffffffffffffffffffffffffffffffffffffffff1673ffffffffffffffffffffffffffffffffffffffff166370a08231846040518263ffffffff1660e01b81526004016119239190611db0565b602060405180830381865afa15801561193e573d5f5f3e3d5ffd5b505050506040513d601f19601f8201168201806040525081019061196291906122c6565b119050919050565b60018081905550565b5f33905090565b6040518061010001604052805f815260200160608152602001606081526020015f73ffffffffffffffffffffffffffffffffffffffff1681526020015f81526020015f81526020015f81526020015f151581525090565b5f604051905090565b5f5ffd5b5f5ffd5b5f819050919050565b6119f4816119e2565b81146119fe575f5ffd5b50565b5f81359050611a0f816119eb565b92915050565b5f60208284031215611a2a57611a296119da565b5b5f611a3784828501611a01565b91505092915050565b611a49816119e2565b82525050565b5f81519050919050565b5f82825260208201905092915050565b8281835e5f83830152505050565b5f601f19601f8301169050919050565b5f611a9182611a4f565b611a9b8185611a59565b9350611aab818560208601611a69565b611ab481611a77565b840191505092915050565b5f73ffffffffffffffffffffffffffffffffffffffff82169050919050565b5f611ae882611abf565b9050919050565b611af881611ade565b82525050565b5f8115159050919050565b611b1281611afe565b82525050565b5f61010083015f830151611b2e5f860182611a40565b5060208301518482036020860152611b468282611a87565b91505060408301518482036040860152611b608282611a87565b9150506060830151611b756060860182611aef565b506080830151611b886080860182611a40565b5060a0830151611b9b60a0860182611a40565b5060c0830151611bae60c0860182611a40565b5060e0830151611bc160e0860182611b09565b508091505092915050565b5f6020820190508181035f830152611be48184611b18565b905092915050565b611bf5816119e2565b82525050565b5f602082019050611c0e5f830184611bec565b92915050565b5f82825260208201905092915050565b5f611c2e82611a4f565b611c388185611c14565b9350611c48818560208601611a69565b611c5181611a77565b840191505092915050565b611c6581611ade565b82525050565b611c7481611afe565b82525050565b5f61010082019050611c8e5f83018b611bec565b8181036020830152611ca0818a611c24565b90508181036040830152611cb48189611c24565b9050611cc36060830188611c5c565b611cd06080830187611bec565b611cdd60a0830186611bec565b611cea60c0830185611bec565b611cf760e0830184611c6b565b9998505050505050505050565b611d0d81611ade565b8114611d17575f5ffd5b50565b5f81359050611d2881611d04565b92915050565b5f60208284031215611d4357611d426119da565b5b5f611d5084828501611d1a565b91505092915050565b5f5f60408385031215611d6f57611d6e6119da565b5b5f611d7c85828601611a01565b9250506020611d8d85828601611d1a565b9150509250929050565b5f602082019050611daa5f830184611c6b565b92915050565b5f602082019050611dc35f830184611c5c565b92915050565b5f5ffd5b5f5ffd5b7f4e487b71000000000000000000000000000000000000000000000000000000005f52604160045260245ffd5b611e0782611a77565b810181811067ffffffffffffffff82111715611e2657611e25611dd1565b5b80604052505050565b5f611e386119d1565b9050611e448282611dfe565b919050565b5f67ffffffffffffffff821115611e6357611e62611dd1565b5b611e6c82611a77565b9050602081019050919050565b828183375f83830152505050565b5f611e99611e9484611e49565b611e2f565b905082815260208101848484011115611eb557611eb4611dcd565b5b611ec0848285611e79565b509392505050565b5f82601f830112611edc57611edb611dc9565b5b8135611eec848260208601611e87565b91505092915050565b5f5f5f60608486031215611f0c57611f0b6119da565b5b5f84013567ffffffffffffffff811115611f2957611f286119de565b5b611f3586828701611ec8565b935050602084013567ffffffffffffffff811115611f5657611f556119de565b5b611f6286828701611ec8565b9250506040611f7386828701611a01565b9150509250925092565b7f5065746974696f6e20646f6573206e6f742065786973740000000000000000005f82015250565b5f611fb1601783611c14565b9150611fbc82611f7d565b602082019050919050565b5f6020820190508181035f830152611fde81611fa5565b9050919050565b7f4e487b71000000000000000000000000000000000000000000000000000000005f52602260045260245ffd5b5f600282049050600182168061202957607f821691505b60208210810361203c5761203b611fe5565b5b50919050565b7f4e6f2062616c616e636520746f207769746864726177000000000000000000005f82015250565b5f612076601683611c14565b915061208182612042565b602082019050919050565b5f6020820190508181035f8301526120a38161206a565b9050919050565b7f496e76616c6964207468726573686f6c640000000000000000000000000000005f82015250565b5f6120de601183611c14565b91506120e9826120aa565b602082019050919050565b5f6020820190508181035f83015261210b816120d2565b9050919050565b7f4e6f7420612044414f206d656d626572000000000000000000000000000000005f82015250565b5f612146601083611c14565b915061215182612112565b602082019050919050565b5f6020820190508181035f8301526121738161213a565b9050919050565b7f5469746c652063616e6e6f7420626520656d70747900000000000000000000005f82015250565b5f6121ae601583611c14565b91506121b98261217a565b602082019050919050565b5f6020820190508181035f8301526121db816121a2565b9050919050565b7f4465736372697074696f6e2063616e6e6f7420626520656d70747900000000005f82015250565b5f612216601b83611c14565b9150612221826121e2565b602082019050919050565b5f6020820190508181035f8301526122438161220a565b9050919050565b7f496e76616c6964206475726174696f6e000000000000000000000000000000005f82015250565b5f61227e601083611c14565b91506122898261224a565b602082019050919050565b5f6020820190508181035f8301526122ab81612272565b9050919050565b5f815190506122c0816119eb565b92915050565b5f602082840312156122db576122da6119da565b5b5f6122e8848285016122b2565b91505092915050565b5f819050919050565b5f67ffffffffffffffff82169050919050565b5f819050919050565b5f61233061232b612326846122f1565b61230d565b6122fa565b9050919050565b61234081612316565b82525050565b5f6040820190506123595f830185611c5c565b6123666020830184612337565b9392505050565b5f81519050919050565b5f81905092915050565b5f61238b8261236d565b6123958185612377565b93506123a5818560208601611a69565b80840191505092915050565b5f6123bc8284612381565b915081905092915050565b7f546f6b656e206275726e206661696c65640000000000000000000000000000005f82015250565b5f6123fb601183611c14565b9150612406826123c7565b602082019050919050565b5f6020820190508181035f830152612428816123ef565b9050919050565b7f496e73756666696369656e7420666565000000000000000000000000000000005f82015250565b5f612463601083611c14565b915061246e8261242f565b602082019050919050565b5f6020820190508181035f83015261249081612457565b9050919050565b7f4e487b71000000000000000000000000000000000000000000000000000000005f52601160045260245ffd5b5f6124ce826119e2565b91507fffffffffffffffffffffffffffffffffffffffffffffffffffffffffffffffff8203612500576124ff612497565b5b600182019050919050565b7f4e487b71000000000000000000000000000000000000000000000000000000005f52601260045260245ffd5b5f612542826119e2565b915061254d836119e2565b92508261255d5761255c61250b565b5b828206905092915050565b7f546f6b656e206d696e74206661696c65640000000000000000000000000000005f82015250565b5f61259c601183611c14565b91506125a782612568565b602082019050919050565b5f6020820190508181035f8301526125c981612590565b9050919050565b5f6125ea6125e56125e0846122f1565b61230d565b6119e2565b9050919050565b6125fa816125d0565b82525050565b5f6020820190506126135f8301846125f1565b92915050565b5f612623826119e2565b915061262e836119e2565b925082820261263c816119e2565b9150828204841483151761265357612652612497565b5b5092915050565b5f612664826119e2565b915061266f836119e2565b925082820190508082111561268757612686612497565b5b92915050565b5f819050815f5260205f209050919050565b5f6020601f8301049050919050565b5f82821b905092915050565b5f600883026126e97fffffffffffffffffffffffffffffffffffffffffffffffffffffffffffffffff826126ae565b6126f386836126ae565b95508019841693508086168417925050509392505050565b5f61272561272061271b846119e2565b61230d565b6119e2565b9050919050565b5f819050919050565b61273e8361270b565b61275261274a8261272c565b8484546126ba565b825550505050565b5f5f905090565b61276961275a565b612774818484612735565b505050565b5b818110156127975761278c5f82612761565b60018101905061277a565b5050565b601f8211156127dc576127ad8161268d565b6127b68461269f565b810160208510156127c5578190505b6127d96127d18561269f565b830182612779565b50505b505050565b5f82821c905092915050565b5f6127fc5f19846008026127e1565b1980831691505092915050565b5f61281483836127ed565b9150826002028217905092915050565b61282d82611a4f565b67ffffffffffffffff81111561284657612845611dd1565b5b6128508254612012565b61285b82828561279b565b5f60209050601f83116001811461288c575f841561287a578287015190505b6128848582612809565b8655506128eb565b601f19841661289a8661268d565b5f5b828110156128c15784890151825560018201915060208501945060208101905061289c565b868310156128de57848901516128da601f8916826127ed565b8355505b6001600288020188555050505b505050505050565b5f6060820190508181035f83015261290b8186611c24565b905061291a6020830185611bec565b6129276040830184611c6b565b949350505050565b7f5065746974696f6e206973206e6f7420616374697665000000000000000000005f82015250565b5f612963601683611c14565b915061296e8261292f565b602082019050919050565b5f6020820190508181035f83015261299081612957565b9050919050565b7f5065746974696f6e2068617320656e64656400000000000000000000000000005f82015250565b5f6129cb601283611c14565b91506129d682612997565b602082019050919050565b5f6020820190508181035f8301526129f8816129bf565b9050919050565b7f416c7265616479207369676e65640000000000000000000000000000000000005f82015250565b5f612a33600e83611c14565b9150612a3e826129ff565b602082019050919050565b5f6020820190508181035f830152612a6081612a27565b9050919050565b7f4e6f7420617574686f72697a65640000000000000000000000000000000000005f82015250565b5f612a9b600e83611c14565b9150612aa682612a67565b602082019050919050565b5f6020820190508181035f830152612ac881612a8f565b9050919050565b7f416c726561647920636c6f7365640000000000000000000000000000000000005f82015250565b5f612b03600e83611c14565b9150612b0e82612acf565b602082019050919050565b5f6020820190508181035f830152612b3081612af7565b905091905056fea26469706673582212204193b5f647dddacdac00979c66939b974b75ef2dbbc1f80ade5994b257e5f5a064736f6c634300081e0033",
					"opcodes": "PUSH1 0x80 PUSH1 0x40 MSTORE PUSH7 0x2386F26FC10000 PUSH1 0x5 SSTORE PUSH1 0x5 PUSH1 0x6 SSTORE CALLVALUE DUP1 ISZERO PUSH2 0x1F JUMPI PUSH0 PUSH0 REVERT JUMPDEST POP PUSH1 0x40 MLOAD PUSH2 0x300B CODESIZE SUB DUP1 PUSH2 0x300B DUP4 CODECOPY DUP2 DUP2 ADD PUSH1 0x40 MSTORE DUP2 ADD SWAP1 PUSH2 0x41 SWAP2 SWAP1 PUSH2 0x34B JUMP JUMPDEST CALLER PUSH0 PUSH20 0xFFFFFFFFFFFFFFFFFFFFFFFFFFFFFFFFFFFFFFFF AND DUP2 PUSH20 0xFFFFFFFFFFFFFFFFFFFFFFFFFFFFFFFFFFFFFFFF AND SUB PUSH2 0xB2 JUMPI PUSH0 PUSH1 0x40 MLOAD PUSH32 0x1E4FBDF700000000000000000000000000000000000000000000000000000000 DUP2 MSTORE PUSH1 0x4 ADD PUSH2 0xA9 SWAP2 SWAP1 PUSH2 0x398 JUMP JUMPDEST PUSH1 0x40 MLOAD DUP1 SWAP2 SUB SWAP1 REVERT JUMPDEST PUSH2 0xC1 DUP2 PUSH2 0x22C PUSH1 0x20 SHL PUSH1 0x20 SHR JUMP JUMPDEST POP PUSH1 0x1 DUP1 DUP2 SWAP1 SSTORE POP PUSH0 PUSH20 0xFFFFFFFFFFFFFFFFFFFFFFFFFFFFFFFFFFFFFFFF AND DUP3 PUSH20 0xFFFFFFFFFFFFFFFFFFFFFFFFFFFFFFFFFFFFFFFF AND SUB PUSH2 0x137 JUMPI PUSH1 0x40 MLOAD PUSH32 0x8C379A000000000000000000000000000000000000000000000000000000000 DUP2 MSTORE PUSH1 0x4 ADD PUSH2 0x12E SWAP1 PUSH2 0x40B JUMP JUMPDEST PUSH1 0x40 MLOAD DUP1 SWAP2 SUB SWAP1 REVERT JUMPDEST PUSH0 PUSH20 0xFFFFFFFFFFFFFFFFFFFFFFFFFFFFFFFFFFFFFFFF AND DUP2 PUSH20 0xFFFFFFFFFFFFFFFFFFFFFFFFFFFFFFFFFFFFFFFF AND SUB PUSH2 0x1A5 JUMPI PUSH1 0x40 MLOAD PUSH32 0x8C379A000000000000000000000000000000000000000000000000000000000 DUP2 MSTORE PUSH1 0x4 ADD PUSH2 0x19C SWAP1 PUSH2 0x473 JUMP JUMPDEST PUSH1 0x40 MLOAD DUP1 SWAP2 SUB SWAP1 REVERT JUMPDEST DUP2 PUSH1 0x2 PUSH0 PUSH2 0x100 EXP DUP2 SLOAD DUP2 PUSH20 0xFFFFFFFFFFFFFFFFFFFFFFFFFFFFFFFFFFFFFFFF MUL NOT AND SWAP1 DUP4 PUSH20 0xFFFFFFFFFFFFFFFFFFFFFFFFFFFFFFFFFFFFFFFF AND MUL OR SWAP1 SSTORE POP DUP1 PUSH1 0x3 PUSH0 PUSH2 0x100 EXP DUP2 SLOAD DUP2 PUSH20 0xFFFFFFFFFFFFFFFFFFFFFFFFFFFFFFFFFFFFFFFF MUL NOT AND SWAP1 DUP4 PUSH20 0xFFFFFFFFFFFFFFFFFFFFFFFFFFFFFFFFFFFFFFFF AND MUL OR SWAP1 SSTORE POP POP POP PUSH2 0x491 JUMP JUMPDEST PUSH0 PUSH0 PUSH0 SWAP1 SLOAD SWAP1 PUSH2 0x100 EXP SWAP1 DIV PUSH20 0xFFFFFFFFFFFFFFFFFFFFFFFFFFFFFFFFFFFFFFFF AND SWAP1 POP DUP2 PUSH0 PUSH0 PUSH2 0x100 EXP DUP2 SLOAD DUP2 PUSH20 0xFFFFFFFFFFFFFFFFFFFFFFFFFFFFFFFFFFFFFFFF MUL NOT AND SWAP1 DUP4 PUSH20 0xFFFFFFFFFFFFFFFFFFFFFFFFFFFFFFFFFFFFFFFF AND MUL OR SWAP1 SSTORE POP DUP2 PUSH20 0xFFFFFFFFFFFFFFFFFFFFFFFFFFFFFFFFFFFFFFFF AND DUP2 PUSH20 0xFFFFFFFFFFFFFFFFFFFFFFFFFFFFFFFFFFFFFFFF AND PUSH32 0x8BE0079C531659141344CD1FD0A4F28419497F9722A3DAAFE3B4186F6B6457E0 PUSH1 0x40 MLOAD PUSH1 0x40 MLOAD DUP1 SWAP2 SUB SWAP1 LOG3 POP POP JUMP JUMPDEST PUSH0 PUSH0 REVERT JUMPDEST PUSH0 PUSH20 0xFFFFFFFFFFFFFFFFFFFFFFFFFFFFFFFFFFFFFFFF DUP3 AND SWAP1 POP SWAP2 SWAP1 POP JUMP JUMPDEST PUSH0 PUSH2 0x31A DUP3 PUSH2 0x2F1 JUMP JUMPDEST SWAP1 POP SWAP2 SWAP1 POP JUMP JUMPDEST PUSH2 0x32A DUP2 PUSH2 0x310 JUMP JUMPDEST DUP2 EQ PUSH2 0x334 JUMPI PUSH0 PUSH0 REVERT JUMPDEST POP JUMP JUMPDEST PUSH0 DUP2 MLOAD SWAP1 POP PUSH2 0x345 DUP2 PUSH2 0x321 JUMP JUMPDEST SWAP3 SWAP2 POP POP JUMP JUMPDEST PUSH0 PUSH0 PUSH1 0x40 DUP4 DUP6 SUB SLT ISZERO PUSH2 0x361 JUMPI PUSH2 0x360 PUSH2 0x2ED JUMP JUMPDEST JUMPDEST PUSH0 PUSH2 0x36E DUP6 DUP3 DUP7 ADD PUSH2 0x337 JUMP JUMPDEST SWAP3 POP POP PUSH1 0x20 PUSH2 0x37F DUP6 DUP3 DUP7 ADD PUSH2 0x337 JUMP JUMPDEST SWAP2 POP POP SWAP3 POP SWAP3 SWAP1 POP JUMP JUMPDEST PUSH2 0x392 DUP2 PUSH2 0x310 JUMP JUMPDEST DUP3 MSTORE POP POP JUMP JUMPDEST PUSH0 PUSH1 0x20 DUP3 ADD SWAP1 POP PUSH2 0x3AB PUSH0 DUP4 ADD DUP5 PUSH2 0x389 JUMP JUMPDEST SWAP3 SWAP2 POP POP JUMP JUMPDEST PUSH0 DUP3 DUP3 MSTORE PUSH1 0x20 DUP3 ADD SWAP1 POP SWAP3 SWAP2 POP POP JUMP JUMPDEST PUSH32 0x496E76616C69642044414F206164647265737300000000000000000000000000 PUSH0 DUP3 ADD MSTORE POP JUMP JUMPDEST PUSH0 PUSH2 0x3F5 PUSH1 0x13 DUP4 PUSH2 0x3B1 JUMP JUMPDEST SWAP2 POP PUSH2 0x400 DUP3 PUSH2 0x3C1 JUMP JUMPDEST PUSH1 0x20 DUP3 ADD SWAP1 POP SWAP2 SWAP1 POP JUMP JUMPDEST PUSH0 PUSH1 0x20 DUP3 ADD SWAP1 POP DUP2 DUP2 SUB PUSH0 DUP4 ADD MSTORE PUSH2 0x422 DUP2 PUSH2 0x3E9 JUMP JUMPDEST SWAP1 POP SWAP2 SWAP1 POP JUMP JUMPDEST PUSH32 0x496E76616C696420746F6B656E20616464726573730000000000000000000000 PUSH0 DUP3 ADD MSTORE POP JUMP JUMPDEST PUSH0 PUSH2 0x45D PUSH1 0x15 DUP4 PUSH2 0x3B1 JUMP JUMPDEST SWAP2 POP PUSH2 0x468 DUP3 PUSH2 0x429 JUMP JUMPDEST PUSH1 0x20 DUP3 ADD SWAP1 POP SWAP2 SWAP1 POP JUMP JUMPDEST PUSH0 PUSH1 0x20 DUP3 ADD SWAP1 POP DUP2 DUP2 SUB PUSH0 DUP4 ADD MSTORE PUSH2 0x48A DUP2 PUSH2 0x451 JUMP JUMPDEST SWAP1 POP SWAP2 SWAP1 POP JUMP JUMPDEST PUSH2 0x2B6D DUP1 PUSH2 0x49E PUSH0 CODECOPY PUSH0 RETURN INVALID PUSH1 0x80 PUSH1 0x40 MSTORE PUSH1 0x4 CALLDATASIZE LT PUSH2 0x129 JUMPI PUSH0 CALLDATALOAD PUSH1 0xE0 SHR DUP1 PUSH4 0x78E18D35 GT PUSH2 0xAA JUMPI DUP1 PUSH4 0xDCAD0180 GT PUSH2 0x6E JUMPI DUP1 PUSH4 0xDCAD0180 EQ PUSH2 0x3BA JUMPI DUP1 PUSH4 0xEB74D835 EQ PUSH2 0x3E2 JUMPI DUP1 PUSH4 0xEECCD720 EQ PUSH2 0x41E JUMPI DUP1 PUSH4 0xF2FDE38B EQ PUSH2 0x446 JUMPI DUP1 PUSH4 0xF345A997 EQ PUSH2 0x46E JUMPI DUP1 PUSH4 0xF99972EF EQ PUSH2 0x496 JUMPI PUSH2 0x129 JUMP JUMPDEST DUP1 PUSH4 0x78E18D35 EQ PUSH2 0x2F6 JUMPI DUP1 PUSH4 0x8A5BE9B7 EQ PUSH2 0x320 JUMPI DUP1 PUSH4 0x8DA5CB5B EQ PUSH2 0x34A JUMPI DUP1 PUSH4 0x9089C4A5 EQ PUSH2 0x374 JUMPI DUP1 PUSH4 0x990627EC EQ PUSH2 0x39E JUMPI PUSH2 0x129 JUMP JUMPDEST DUP1 PUSH4 0x68BDD33A GT PUSH2 0xF1 JUMPI DUP1 PUSH4 0x68BDD33A EQ PUSH2 0x216 JUMPI DUP1 PUSH4 0x6B4ACBE0 EQ PUSH2 0x23E JUMPI DUP1 PUSH4 0x709DF8D9 EQ PUSH2 0x27A JUMPI DUP1 PUSH4 0x715018A6 EQ PUSH2 0x2B6 JUMPI DUP1 PUSH4 0x72FA1301 EQ PUSH2 0x2CC JUMPI PUSH2 0x129 JUMP JUMPDEST DUP1 PUSH4 0xC90CE42 EQ PUSH2 0x12D JUMPI DUP1 PUSH4 0x2FB33528 EQ PUSH2 0x169 JUMPI DUP1 PUSH4 0x3AD50DED EQ PUSH2 0x193 JUMPI DUP1 PUSH4 0x3CCFD60B EQ PUSH2 0x1D6 JUMPI DUP1 PUSH4 0x5EA4D29C EQ PUSH2 0x1EC JUMPI JUMPDEST PUSH0 PUSH0 REVERT JUMPDEST CALLVALUE DUP1 ISZERO PUSH2 0x138 JUMPI PUSH0 PUSH0 REVERT JUMPDEST POP PUSH2 0x153 PUSH1 0x4 DUP1 CALLDATASIZE SUB DUP2 ADD SWAP1 PUSH2 0x14E SWAP2 SWAP1 PUSH2 0x1A15 JUMP JUMPDEST PUSH2 0x4D2 JUMP JUMPDEST PUSH1 0x40 MLOAD PUSH2 0x160 SWAP2 SWAP1 PUSH2 0x1BCC JUMP JUMPDEST PUSH1 0x40 MLOAD DUP1 SWAP2 SUB SWAP1 RETURN JUMPDEST CALLVALUE DUP1 ISZERO PUSH2 0x174 JUMPI PUSH0 PUSH0 REVERT JUMPDEST POP PUSH2 0x17D PUSH2 0x6F8 JUMP JUMPDEST PUSH1 0x40 MLOAD PUSH2 0x18A SWAP2 SWAP1 PUSH2 0x1BFB JUMP JUMPDEST PUSH1 0x40 MLOAD DUP1 SWAP2 SUB SWAP1 RETURN JUMPDEST CALLVALUE DUP1 ISZERO PUSH2 0x19E JUMPI PUSH0 PUSH0 REVERT JUMPDEST POP PUSH2 0x1B9 PUSH1 0x4 DUP1 CALLDATASIZE SUB DUP2 ADD SWAP1 PUSH2 0x1B4 SWAP2 SWAP1 PUSH2 0x1A15 JUMP JUMPDEST PUSH2 0x6FE JUMP JUMPDEST PUSH1 0x40 MLOAD PUSH2 0x1CD SWAP9 SWAP8 SWAP7 SWAP6 SWAP5 SWAP4 SWAP3 SWAP2 SWAP1 PUSH2 0x1C7A JUMP JUMPDEST PUSH1 0x40 MLOAD DUP1 SWAP2 SUB SWAP1 RETURN JUMPDEST CALLVALUE DUP1 ISZERO PUSH2 0x1E1 JUMPI PUSH0 PUSH0 REVERT JUMPDEST POP PUSH2 0x1EA PUSH2 0x879 JUMP JUMPDEST STOP JUMPDEST CALLVALUE DUP1 ISZERO PUSH2 0x1F7 JUMPI PUSH0 PUSH0 REVERT JUMPDEST POP PUSH2 0x200 PUSH2 0x915 JUMP JUMPDEST PUSH1 0x40 MLOAD PUSH2 0x20D SWAP2 SWAP1 PUSH2 0x1BFB JUMP JUMPDEST PUSH1 0x40 MLOAD DUP1 SWAP2 SUB SWAP1 RETURN JUMPDEST CALLVALUE DUP1 ISZERO PUSH2 0x221 JUMPI PUSH0 PUSH0 REVERT JUMPDEST POP PUSH2 0x23C PUSH1 0x4 DUP1 CALLDATASIZE SUB DUP2 ADD SWAP1 PUSH2 0x237 SWAP2 SWAP1 PUSH2 0x1A15 JUMP JUMPDEST PUSH2 0x91B JUMP JUMPDEST STOP JUMPDEST CALLVALUE DUP1 ISZERO PUSH2 0x249 JUMPI PUSH0 PUSH0 REVERT JUMPDEST POP PUSH2 0x264 PUSH1 0x4 DUP1 CALLDATASIZE SUB DUP2 ADD SWAP1 PUSH2 0x25F SWAP2 SWAP1 PUSH2 0x1D2E JUMP JUMPDEST PUSH2 0x96F JUMP JUMPDEST PUSH1 0x40 MLOAD PUSH2 0x271 SWAP2 SWAP1 PUSH2 0x1BFB JUMP JUMPDEST PUSH1 0x40 MLOAD DUP1 SWAP2 SUB SWAP1 RETURN JUMPDEST CALLVALUE DUP1 ISZERO PUSH2 0x285 JUMPI PUSH0 PUSH0 REVERT JUMPDEST POP PUSH2 0x2A0 PUSH1 0x4 DUP1 CALLDATASIZE SUB DUP2 ADD SWAP1 PUSH2 0x29B SWAP2 SWAP1 PUSH2 0x1D59 JUMP JUMPDEST PUSH2 0x9B5 JUMP JUMPDEST PUSH1 0x40 MLOAD PUSH2 0x2AD SWAP2 SWAP1 PUSH2 0x1D97 JUMP JUMPDEST PUSH1 0x40 MLOAD DUP1 SWAP2 SUB SWAP1 RETURN JUMPDEST CALLVALUE DUP1 ISZERO PUSH2 0x2C1 JUMPI PUSH0 PUSH0 REVERT JUMPDEST POP PUSH2 0x2CA PUSH2 0x9DF JUMP JUMPDEST STOP JUMPDEST CALLVALUE DUP1 ISZERO PUSH2 0x2D7 JUMPI PUSH0 PUSH0 REVERT JUMPDEST POP PUSH2 0x2E0 PUSH2 0x9F2 JUMP JUMPDEST PUSH1 0x40 MLOAD PUSH2 0x2ED SWAP2 SWAP1 PUSH2 0x1BFB JUMP JUMPDEST PUSH1 0x40 MLOAD DUP1 SWAP2 SUB SWAP1 RETURN JUMPDEST CALLVALUE DUP1 ISZERO PUSH2 0x301 JUMPI PUSH0 PUSH0 REVERT JUMPDEST POP PUSH2 0x30A PUSH2 0x9FB JUMP JUMPDEST PUSH1 0x40 MLOAD PUSH2 0x317 SWAP2 SWAP1 PUSH2 0x1DB0 JUMP JUMPDEST PUSH1 0x40 MLOAD DUP1 SWAP2 SUB SWAP1 RETURN JUMPDEST CALLVALUE DUP1 ISZERO PUSH2 0x32B JUMPI PUSH0 PUSH0 REVERT JUMPDEST POP PUSH2 0x334 PUSH2 0xA20 JUMP JUMPDEST PUSH1 0x40 MLOAD PUSH2 0x341 SWAP2 SWAP1 PUSH2 0x1BFB JUMP JUMPDEST PUSH1 0x40 MLOAD DUP1 SWAP2 SUB SWAP1 RETURN JUMPDEST CALLVALUE DUP1 ISZERO PUSH2 0x355 JUMPI PUSH0 PUSH0 REVERT JUMPDEST POP PUSH2 0x35E PUSH2 0xA26 JUMP JUMPDEST PUSH1 0x40 MLOAD PUSH2 0x36B SWAP2 SWAP1 PUSH2 0x1DB0 JUMP JUMPDEST PUSH1 0x40 MLOAD DUP1 SWAP2 SUB SWAP1 RETURN JUMPDEST CALLVALUE DUP1 ISZERO PUSH2 0x37F JUMPI PUSH0 PUSH0 REVERT JUMPDEST POP PUSH2 0x388 PUSH2 0xA4D JUMP JUMPDEST PUSH1 0x40 MLOAD PUSH2 0x395 SWAP2 SWAP1 PUSH2 0x1DB0 JUMP JUMPDEST PUSH1 0x40 MLOAD DUP1 SWAP2 SUB SWAP1 RETURN JUMPDEST PUSH2 0x3B8 PUSH1 0x4 DUP1 CALLDATASIZE SUB DUP2 ADD SWAP1 PUSH2 0x3B3 SWAP2 SWAP1 PUSH2 0x1EF5 JUMP JUMPDEST PUSH2 0xA72 JUMP JUMPDEST STOP JUMPDEST CALLVALUE DUP1 ISZERO PUSH2 0x3C5 JUMPI PUSH0 PUSH0 REVERT JUMPDEST POP PUSH2 0x3E0 PUSH1 0x4 DUP1 CALLDATASIZE SUB DUP2 ADD SWAP1 PUSH2 0x3DB SWAP2 SWAP1 PUSH2 0x1A15 JUMP JUMPDEST PUSH2 0x120E JUMP JUMPDEST STOP JUMPDEST CALLVALUE DUP1 ISZERO PUSH2 0x3ED JUMPI PUSH0 PUSH0 REVERT JUMPDEST POP PUSH2 0x408 PUSH1 0x4 DUP1 CALLDATASIZE SUB DUP2 ADD SWAP1 PUSH2 0x403 SWAP2 SWAP1 PUSH2 0x1D59 JUMP JUMPDEST PUSH2 0x146A JUMP JUMPDEST PUSH1 0x40 MLOAD PUSH2 0x415 SWAP2 SWAP1 PUSH2 0x1D97 JUMP JUMPDEST PUSH1 0x40 MLOAD DUP1 SWAP2 SUB SWAP1 RETURN JUMPDEST CALLVALUE DUP1 ISZERO PUSH2 0x429 JUMPI PUSH0 PUSH0 REVERT JUMPDEST POP PUSH2 0x444 PUSH1 0x4 DUP1 CALLDATASIZE SUB DUP2 ADD SWAP1 PUSH2 0x43F SWAP2 SWAP1 PUSH2 0x1A15 JUMP JUMPDEST PUSH2 0x14CC JUMP JUMPDEST STOP JUMPDEST CALLVALUE DUP1 ISZERO PUSH2 0x451 JUMPI PUSH0 PUSH0 REVERT JUMPDEST POP PUSH2 0x46C PUSH1 0x4 DUP1 CALLDATASIZE SUB DUP2 ADD SWAP1 PUSH2 0x467 SWAP2 SWAP1 PUSH2 0x1D2E JUMP JUMPDEST PUSH2 0x14DE JUMP JUMPDEST STOP JUMPDEST CALLVALUE DUP1 ISZERO PUSH2 0x479 JUMPI PUSH0 PUSH0 REVERT JUMPDEST POP PUSH2 0x494 PUSH1 0x4 DUP1 CALLDATASIZE SUB DUP2 ADD SWAP1 PUSH2 0x48F SWAP2 SWAP1 PUSH2 0x1A15 JUMP JUMPDEST PUSH2 0x1562 JUMP JUMPDEST STOP JUMPDEST CALLVALUE DUP1 ISZERO PUSH2 0x4A1 JUMPI PUSH0 PUSH0 REVERT JUMPDEST POP PUSH2 0x4BC PUSH1 0x4 DUP1 CALLDATASIZE SUB DUP2 ADD SWAP1 PUSH2 0x4B7 SWAP2 SWAP1 PUSH2 0x1D2E JUMP JUMPDEST PUSH2 0x1724 JUMP JUMPDEST PUSH1 0x40 MLOAD PUSH2 0x4C9 SWAP2 SWAP1 PUSH2 0x1BFB JUMP JUMPDEST PUSH1 0x40 MLOAD DUP1 SWAP2 SUB SWAP1 RETURN JUMPDEST PUSH2 0x4DA PUSH2 0x197A JUMP JUMPDEST PUSH1 0x4 SLOAD DUP3 LT PUSH2 0x51E JUMPI PUSH1 0x40 MLOAD PUSH32 0x8C379A000000000000000000000000000000000000000000000000000000000 DUP2 MSTORE PUSH1 0x4 ADD PUSH2 0x515 SWAP1 PUSH2 0x1FC7 JUMP JUMPDEST PUSH1 0x40 MLOAD DUP1 SWAP2 SUB SWAP1 REVERT JUMPDEST PUSH1 0x7 PUSH0 DUP4 DUP2 MSTORE PUSH1 0x20 ADD SWAP1 DUP2 MSTORE PUSH1 0x20 ADD PUSH0 KECCAK256 PUSH1 0x40 MLOAD DUP1 PUSH2 0x100 ADD PUSH1 0x40 MSTORE SWAP1 DUP2 PUSH0 DUP3 ADD SLOAD DUP2 MSTORE PUSH1 0x20 ADD PUSH1 0x1 DUP3 ADD DUP1 SLOAD PUSH2 0x554 SWAP1 PUSH2 0x2012 JUMP JUMPDEST DUP1 PUSH1 0x1F ADD PUSH1 0x20 DUP1 SWAP2 DIV MUL PUSH1 0x20 ADD PUSH1 0x40 MLOAD SWAP1 DUP2 ADD PUSH1 0x40 MSTORE DUP1 SWAP3 SWAP2 SWAP1 DUP2 DUP2 MSTORE PUSH1 0x20 ADD DUP3 DUP1 SLOAD PUSH2 0x580 SWAP1 PUSH2 0x2012 JUMP JUMPDEST DUP1 ISZERO PUSH2 0x5CB JUMPI DUP1 PUSH1 0x1F LT PUSH2 0x5A2 JUMPI PUSH2 0x100 DUP1 DUP4 SLOAD DIV MUL DUP4 MSTORE SWAP2 PUSH1 0x20 ADD SWAP2 PUSH2 0x5CB JUMP JUMPDEST DUP3 ADD SWAP2 SWAP1 PUSH0 MSTORE PUSH1 0x20 PUSH0 KECCAK256 SWAP1 JUMPDEST DUP2 SLOAD DUP2 MSTORE SWAP1 PUSH1 0x1 ADD SWAP1 PUSH1 0x20 ADD DUP1 DUP4 GT PUSH2 0x5AE JUMPI DUP3 SWAP1 SUB PUSH1 0x1F AND DUP3 ADD SWAP2 JUMPDEST POP POP POP POP POP DUP2 MSTORE PUSH1 0x20 ADD PUSH1 0x2 DUP3 ADD DUP1 SLOAD PUSH2 0x5E4 SWAP1 PUSH2 0x2012 JUMP JUMPDEST DUP1 PUSH1 0x1F ADD PUSH1 0x20 DUP1 SWAP2 DIV MUL PUSH1 0x20 ADD PUSH1 0x40 MLOAD SWAP1 DUP2 ADD PUSH1 0x40 MSTORE DUP1 SWAP3 SWAP2 SWAP1 DUP2 DUP2 MSTORE PUSH1 0x20 ADD DUP3 DUP1 SLOAD PUSH2 0x610 SWAP1 PUSH2 0x2012 JUMP JUMPDEST DUP1 ISZERO PUSH2 0x65B JUMPI DUP1 PUSH1 0x1F LT PUSH2 0x632 JUMPI PUSH2 0x100 DUP1 DUP4 SLOAD DIV MUL DUP4 MSTORE SWAP2 PUSH1 0x20 ADD SWAP2 PUSH2 0x65B JUMP JUMPDEST DUP3 ADD SWAP2 SWAP1 PUSH0 MSTORE PUSH1 0x20 PUSH0 KECCAK256 SWAP1 JUMPDEST DUP2 SLOAD DUP2 MSTORE SWAP1 PUSH1 0x1 ADD SWAP1 PUSH1 0x20 ADD DUP1 DUP4 GT PUSH2 0x63E JUMPI DUP3 SWAP1 SUB PUSH1 0x1F AND DUP3 ADD SWAP2 JUMPDEST POP POP POP POP POP DUP2 MSTORE PUSH1 0x20 ADD PUSH1 0x3 DUP3 ADD PUSH0 SWAP1 SLOAD SWAP1 PUSH2 0x100 EXP SWAP1 DIV PUSH20 0xFFFFFFFFFFFFFFFFFFFFFFFFFFFFFFFFFFFFFFFF AND PUSH20 0xFFFFFFFFFFFFFFFFFFFFFFFFFFFFFFFFFFFFFFFF AND PUSH20 0xFFFFFFFFFFFFFFFFFFFFFFFFFFFFFFFFFFFFFFFF AND DUP2 MSTORE PUSH1 0x20 ADD PUSH1 0x4 DUP3 ADD SLOAD DUP2 MSTORE PUSH1 0x20 ADD PUSH1 0x5 DUP3 ADD SLOAD DUP2 MSTORE PUSH1 0x20 ADD PUSH1 0x6 DUP3 ADD SLOAD DUP2 MSTORE PUSH1 0x20 ADD PUSH1 0x7 DUP3 ADD PUSH0 SWAP1 SLOAD SWAP1 PUSH2 0x100 EXP SWAP1 DIV PUSH1 0xFF AND ISZERO ISZERO ISZERO ISZERO DUP2 MSTORE POP POP SWAP1 POP SWAP2 SWAP1 POP JUMP JUMPDEST PUSH1 0x4 SLOAD DUP2 JUMP JUMPDEST PUSH1 0x7 PUSH1 0x20 MSTORE DUP1 PUSH0 MSTORE PUSH1 0x40 PUSH0 KECCAK256 PUSH0 SWAP2 POP SWAP1 POP DUP1 PUSH0 ADD SLOAD SWAP1 DUP1 PUSH1 0x1 ADD DUP1 SLOAD PUSH2 0x723 SWAP1 PUSH2 0x2012 JUMP JUMPDEST DUP1 PUSH1 0x1F ADD PUSH1 0x20 DUP1 SWAP2 DIV MUL PUSH1 0x20 ADD PUSH1 0x40 MLOAD SWAP1 DUP2 ADD PUSH1 0x40 MSTORE DUP1 SWAP3 SWAP2 SWAP1 DUP2 DUP2 MSTORE PUSH1 0x20 ADD DUP3 DUP1 SLOAD PUSH2 0x74F SWAP1 PUSH2 0x2012 JUMP JUMPDEST DUP1 ISZERO PUSH2 0x79A JUMPI DUP1 PUSH1 0x1F LT PUSH2 0x771 JUMPI PUSH2 0x100 DUP1 DUP4 SLOAD DIV MUL DUP4 MSTORE SWAP2 PUSH1 0x20 ADD SWAP2 PUSH2 0x79A JUMP JUMPDEST DUP3 ADD SWAP2 SWAP1 PUSH0 MSTORE PUSH1 0x20 PUSH0 KECCAK256 SWAP1 JUMPDEST DUP2 SLOAD DUP2 MSTORE SWAP1 PUSH1 0x1 ADD SWAP1 PUSH1 0x20 ADD DUP1 DUP4 GT PUSH2 0x77D JUMPI DUP3 SWAP1 SUB PUSH1 0x1F AND DUP3 ADD SWAP2 JUMPDEST POP POP POP POP POP SWAP1 DUP1 PUSH1 0x2 ADD DUP1 SLOAD PUSH2 0x7AF SWAP1 PUSH2 0x2012 JUMP JUMPDEST DUP1 PUSH1 0x1F ADD PUSH1 0x20 DUP1 SWAP2 DIV MUL PUSH1 0x20 ADD PUSH1 0x40 MLOAD SWAP1 DUP2 ADD PUSH1 0x40 MSTORE DUP1 SWAP3 SWAP2 SWAP1 DUP2 DUP2 MSTORE PUSH1 0x20 ADD DUP3 DUP1 SLOAD PUSH2 0x7DB SWAP1 PUSH2 0x2012 JUMP JUMPDEST DUP1 ISZERO PUSH2 0x826 JUMPI DUP1 PUSH1 0x1F LT PUSH2 0x7FD JUMPI PUSH2 0x100 DUP1 DUP4 SLOAD DIV MUL DUP4 MSTORE SWAP2 PUSH1 0x20 ADD SWAP2 PUSH2 0x826 JUMP JUMPDEST DUP3 ADD SWAP2 SWAP1 PUSH0 MSTORE PUSH1 0x20 PUSH0 KECCAK256 SWAP1 JUMPDEST DUP2 SLOAD DUP2 MSTORE SWAP1 PUSH1 0x1 ADD SWAP1 PUSH1 0x20 ADD DUP1 DUP4 GT PUSH2 0x809 JUMPI DUP3 SWAP1 SUB PUSH1 0x1F AND DUP3 ADD SWAP2 JUMPDEST POP POP POP POP POP SWAP1 DUP1 PUSH1 0x3 ADD PUSH0 SWAP1 SLOAD SWAP1 PUSH2 0x100 EXP SWAP1 DIV PUSH20 0xFFFFFFFFFFFFFFFFFFFFFFFFFFFFFFFFFFFFFFFF AND SWAP1 DUP1 PUSH1 0x4 ADD SLOAD SWAP1 DUP1 PUSH1 0x5 ADD SLOAD SWAP1 DUP1 PUSH1 0x6 ADD SLOAD SWAP1 DUP1 PUSH1 0x7 ADD PUSH0 SWAP1 SLOAD SWAP1 PUSH2 0x100 EXP SWAP1 DIV PUSH1 0xFF AND SWAP1 POP DUP9 JUMP JUMPDEST PUSH2 0x881 PUSH2 0x1739 JUMP JUMPDEST PUSH0 SELFBALANCE SWAP1 POP PUSH0 DUP2 GT PUSH2 0x8C7 JUMPI PUSH1 0x40 MLOAD PUSH32 0x8C379A000000000000000000000000000000000000000000000000000000000 DUP2 MSTORE PUSH1 0x4 ADD PUSH2 0x8BE SWAP1 PUSH2 0x208C JUMP JUMPDEST PUSH1 0x40 MLOAD DUP1 SWAP2 SUB SWAP1 REVERT JUMPDEST PUSH2 0x8CF PUSH2 0xA26 JUMP JUMPDEST PUSH20 0xFFFFFFFFFFFFFFFFFFFFFFFFFFFFFFFFFFFFFFFF AND PUSH2 0x8FC DUP3 SWAP1 DUP2 ISZERO MUL SWAP1 PUSH1 0x40 MLOAD PUSH0 PUSH1 0x40 MLOAD DUP1 DUP4 SUB DUP2 DUP6 DUP9 DUP9 CALL SWAP4 POP POP POP POP ISZERO DUP1 ISZERO PUSH2 0x911 JUMPI RETURNDATASIZE PUSH0 PUSH0 RETURNDATACOPY RETURNDATASIZE PUSH0 REVERT JUMPDEST POP POP JUMP JUMPDEST PUSH1 0x6 SLOAD DUP2 JUMP JUMPDEST PUSH2 0x923 PUSH2 0x1739 JUMP JUMPDEST PUSH0 DUP2 GT PUSH2 0x965 JUMPI PUSH1 0x40 MLOAD PUSH32 0x8C379A000000000000000000000000000000000000000000000000000000000 DUP2 MSTORE PUSH1 0x4 ADD PUSH2 0x95C SWAP1 PUSH2 0x20F4 JUMP JUMPDEST PUSH1 0x40 MLOAD DUP1 SWAP2 SUB SWAP1 REVERT JUMPDEST DUP1 PUSH1 0x6 DUP2 SWAP1 SSTORE POP POP JUMP JUMPDEST PUSH0 PUSH1 0x8 PUSH0 DUP4 PUSH20 0xFFFFFFFFFFFFFFFFFFFFFFFFFFFFFFFFFFFFFFFF AND PUSH20 0xFFFFFFFFFFFFFFFFFFFFFFFFFFFFFFFFFFFFFFFF AND DUP2 MSTORE PUSH1 0x20 ADD SWAP1 DUP2 MSTORE PUSH1 0x20 ADD PUSH0 KECCAK256 SLOAD SWAP1 POP SWAP2 SWAP1 POP JUMP JUMPDEST PUSH1 0x9 PUSH1 0x20 MSTORE DUP2 PUSH0 MSTORE PUSH1 0x40 PUSH0 KECCAK256 PUSH1 0x20 MSTORE DUP1 PUSH0 MSTORE PUSH1 0x40 PUSH0 KECCAK256 PUSH0 SWAP2 POP SWAP2 POP SWAP1 SLOAD SWAP1 PUSH2 0x100 EXP SWAP1 DIV PUSH1 0xFF AND DUP2 JUMP JUMPDEST PUSH2 0x9E7 PUSH2 0x1739 JUMP JUMPDEST PUSH2 0x9F0 PUSH0 PUSH2 0x17C0 JUMP JUMPDEST JUMP JUMPDEST PUSH0 PUSH1 0x4 SLOAD SWAP1 POP SWAP1 JUMP JUMPDEST PUSH1 0x2 PUSH0 SWAP1 SLOAD SWAP1 PUSH2 0x100 EXP SWAP1 DIV PUSH20 0xFFFFFFFFFFFFFFFFFFFFFFFFFFFFFFFFFFFFFFFF AND DUP2 JUMP JUMPDEST PUSH1 0x5 SLOAD DUP2 JUMP JUMPDEST PUSH0 PUSH0 PUSH0 SWAP1 SLOAD SWAP1 PUSH2 0x100 EXP SWAP1 DIV PUSH20 0xFFFFFFFFFFFFFFFFFFFFFFFFFFFFFFFFFFFFFFFF AND SWAP1 POP SWAP1 JUMP JUMPDEST PUSH1 0x3 PUSH0 SWAP1 SLOAD SWAP1 PUSH2 0x100 EXP SWAP1 DIV PUSH20 0xFFFFFFFFFFFFFFFFFFFFFFFFFFFFFFFFFFFFFFFF AND DUP2 JUMP JUMPDEST PUSH2 0xA7A PUSH2 0x1881 JUMP JUMPDEST PUSH2 0xA83 CALLER PUSH2 0x18C7 JUMP JUMPDEST PUSH2 0xAC2 JUMPI PUSH1 0x40 MLOAD PUSH32 0x8C379A000000000000000000000000000000000000000000000000000000000 DUP2 MSTORE PUSH1 0x4 ADD PUSH2 0xAB9 SWAP1 PUSH2 0x215C JUMP JUMPDEST PUSH1 0x40 MLOAD DUP1 SWAP2 SUB SWAP1 REVERT JUMPDEST PUSH0 DUP4 MLOAD GT PUSH2 0xB05 JUMPI PUSH1 0x40 MLOAD PUSH32 0x8C379A000000000000000000000000000000000000000000000000000000000 DUP2 MSTORE PUSH1 0x4 ADD PUSH2 0xAFC SWAP1 PUSH2 0x21C4 JUMP JUMPDEST PUSH1 0x40 MLOAD DUP1 SWAP2 SUB SWAP1 REVERT JUMPDEST PUSH0 DUP3 MLOAD GT PUSH2 0xB48 JUMPI PUSH1 0x40 MLOAD PUSH32 0x8C379A000000000000000000000000000000000000000000000000000000000 DUP2 MSTORE PUSH1 0x4 ADD PUSH2 0xB3F SWAP1 PUSH2 0x222C JUMP JUMPDEST PUSH1 0x40 MLOAD DUP1 SWAP2 SUB SWAP1 REVERT JUMPDEST PUSH0 DUP2 GT DUP1 ISZERO PUSH2 0xB59 JUMPI POP PUSH2 0x16D DUP2 GT ISZERO JUMPDEST PUSH2 0xB98 JUMPI PUSH1 0x40 MLOAD PUSH32 0x8C379A000000000000000000000000000000000000000000000000000000000 DUP2 MSTORE PUSH1 0x4 ADD PUSH2 0xB8F SWAP1 PUSH2 0x2294 JUMP JUMPDEST PUSH1 0x40 MLOAD DUP1 SWAP2 SUB SWAP1 REVERT JUMPDEST PUSH0 PUSH0 SWAP1 POP PUSH0 PUSH1 0x3 PUSH0 SWAP1 SLOAD SWAP1 PUSH2 0x100 EXP SWAP1 DIV PUSH20 0xFFFFFFFFFFFFFFFFFFFFFFFFFFFFFFFFFFFFFFFF AND PUSH20 0xFFFFFFFFFFFFFFFFFFFFFFFFFFFFFFFFFFFFFFFF AND PUSH4 0x70A08231 CALLER PUSH1 0x40 MLOAD DUP3 PUSH4 0xFFFFFFFF AND PUSH1 0xE0 SHL DUP2 MSTORE PUSH1 0x4 ADD PUSH2 0xBF7 SWAP2 SWAP1 PUSH2 0x1DB0 JUMP JUMPDEST PUSH1 0x20 PUSH1 0x40 MLOAD DUP1 DUP4 SUB DUP2 DUP7 GAS STATICCALL ISZERO DUP1 ISZERO PUSH2 0xC12 JUMPI RETURNDATASIZE PUSH0 PUSH0 RETURNDATACOPY RETURNDATASIZE PUSH0 REVERT JUMPDEST POP POP POP POP PUSH1 0x40 MLOAD RETURNDATASIZE PUSH1 0x1F NOT PUSH1 0x1F DUP3 ADD AND DUP3 ADD DUP1 PUSH1 0x40 MSTORE POP DUP2 ADD SWAP1 PUSH2 0xC36 SWAP2 SWAP1 PUSH2 0x22C6 JUMP JUMPDEST SWAP1 POP PUSH8 0xDE0B6B3A7640000 DUP2 LT PUSH2 0xDB1 JUMPI PUSH0 PUSH1 0x3 PUSH0 SWAP1 SLOAD SWAP1 PUSH2 0x100 EXP SWAP1 DIV PUSH20 0xFFFFFFFFFFFFFFFFFFFFFFFFFFFFFFFFFFFFFFFF AND PUSH20 0xFFFFFFFFFFFFFFFFFFFFFFFFFFFFFFFFFFFFFFFF AND CALLER PUSH8 0xDE0B6B3A7640000 PUSH1 0x40 MLOAD PUSH1 0x24 ADD PUSH2 0xC9B SWAP3 SWAP2 SWAP1 PUSH2 0x2346 JUMP JUMPDEST PUSH1 0x40 MLOAD PUSH1 0x20 DUP2 DUP4 SUB SUB DUP2 MSTORE SWAP1 PUSH1 0x40 MSTORE PUSH32 0x79CC679000000000000000000000000000000000000000000000000000000000 PUSH28 0xFFFFFFFFFFFFFFFFFFFFFFFFFFFFFFFFFFFFFFFFFFFFFFFFFFFFFFFF NOT AND PUSH1 0x20 DUP3 ADD DUP1 MLOAD PUSH28 0xFFFFFFFFFFFFFFFFFFFFFFFFFFFFFFFFFFFFFFFFFFFFFFFFFFFFFFFF DUP4 DUP2 DUP4 AND OR DUP4 MSTORE POP POP POP POP PUSH1 0x40 MLOAD PUSH2 0xD25 SWAP2 SWAP1 PUSH2 0x23B1 JUMP JUMPDEST PUSH0 PUSH1 0x40 MLOAD DUP1 DUP4 SUB DUP2 PUSH0 DUP7 GAS CALL SWAP2 POP POP RETURNDATASIZE DUP1 PUSH0 DUP2 EQ PUSH2 0xD5E JUMPI PUSH1 0x40 MLOAD SWAP2 POP PUSH1 0x1F NOT PUSH1 0x3F RETURNDATASIZE ADD AND DUP3 ADD PUSH1 0x40 MSTORE RETURNDATASIZE DUP3 MSTORE RETURNDATASIZE PUSH0 PUSH1 0x20 DUP5 ADD RETURNDATACOPY PUSH2 0xD63 JUMP JUMPDEST PUSH1 0x60 SWAP2 POP JUMPDEST POP POP SWAP1 POP DUP1 PUSH2 0xDA7 JUMPI PUSH1 0x40 MLOAD PUSH32 0x8C379A000000000000000000000000000000000000000000000000000000000 DUP2 MSTORE PUSH1 0x4 ADD PUSH2 0xD9E SWAP1 PUSH2 0x2411 JUMP JUMPDEST PUSH1 0x40 MLOAD DUP1 SWAP2 SUB SWAP1 REVERT JUMPDEST PUSH1 0x1 SWAP3 POP POP PUSH2 0x1052 JUMP JUMPDEST PUSH1 0x5 SLOAD CALLVALUE LT ISZERO PUSH2 0xDF6 JUMPI PUSH1 0x40 MLOAD PUSH32 0x8C379A000000000000000000000000000000000000000000000000000000000 DUP2 MSTORE PUSH1 0x4 ADD PUSH2 0xDED SWAP1 PUSH2 0x2479 JUMP JUMPDEST PUSH1 0x40 MLOAD DUP1 SWAP2 SUB SWAP1 REVERT JUMPDEST PUSH1 0x8 PUSH0 CALLER PUSH20 0xFFFFFFFFFFFFFFFFFFFFFFFFFFFFFFFFFFFFFFFF AND PUSH20 0xFFFFFFFFFFFFFFFFFFFFFFFFFFFFFFFFFFFFFFFF AND DUP2 MSTORE PUSH1 0x20 ADD SWAP1 DUP2 MSTORE PUSH1 0x20 ADD PUSH0 KECCAK256 PUSH0 DUP2 SLOAD DUP1 SWAP3 SWAP2 SWAP1 PUSH2 0xE43 SWAP1 PUSH2 0x24C4 JUMP JUMPDEST SWAP2 SWAP1 POP SSTORE POP PUSH0 PUSH1 0x6 SLOAD PUSH1 0x8 PUSH0 CALLER PUSH20 0xFFFFFFFFFFFFFFFFFFFFFFFFFFFFFFFFFFFFFFFF AND PUSH20 0xFFFFFFFFFFFFFFFFFFFFFFFFFFFFFFFFFFFFFFFF AND DUP2 MSTORE PUSH1 0x20 ADD SWAP1 DUP2 MSTORE PUSH1 0x20 ADD PUSH0 KECCAK256 SLOAD PUSH2 0xE94 SWAP2 SWAP1 PUSH2 0x2538 JUMP JUMPDEST SUB PUSH2 0x1051 JUMPI PUSH0 PUSH1 0x3 PUSH0 SWAP1 SLOAD SWAP1 PUSH2 0x100 EXP SWAP1 DIV PUSH20 0xFFFFFFFFFFFFFFFFFFFFFFFFFFFFFFFFFFFFFFFF AND PUSH20 0xFFFFFFFFFFFFFFFFFFFFFFFFFFFFFFFFFFFFFFFF AND CALLER PUSH8 0xDE0B6B3A7640000 PUSH1 0x40 MLOAD PUSH1 0x24 ADD PUSH2 0xEED SWAP3 SWAP2 SWAP1 PUSH2 0x2346 JUMP JUMPDEST PUSH1 0x40 MLOAD PUSH1 0x20 DUP2 DUP4 SUB SUB DUP2 MSTORE SWAP1 PUSH1 0x40 MSTORE PUSH32 0x40C10F1900000000000000000000000000000000000000000000000000000000 PUSH28 0xFFFFFFFFFFFFFFFFFFFFFFFFFFFFFFFFFFFFFFFFFFFFFFFFFFFFFFFF NOT AND PUSH1 0x20 DUP3 ADD DUP1 MLOAD PUSH28 0xFFFFFFFFFFFFFFFFFFFFFFFFFFFFFFFFFFFFFFFFFFFFFFFFFFFFFFFF DUP4 DUP2 DUP4 AND OR DUP4 MSTORE POP POP POP POP PUSH1 0x40 MLOAD PUSH2 0xF77 SWAP2 SWAP1 PUSH2 0x23B1 JUMP JUMPDEST PUSH0 PUSH1 0x40 MLOAD DUP1 DUP4 SUB DUP2 PUSH0 DUP7 GAS CALL SWAP2 POP POP RETURNDATASIZE DUP1 PUSH0 DUP2 EQ PUSH2 0xFB0 JUMPI PUSH1 0x40 MLOAD SWAP2 POP PUSH1 0x1F NOT PUSH1 0x3F RETURNDATASIZE ADD AND DUP3 ADD PUSH1 0x40 MSTORE RETURNDATASIZE DUP3 MSTORE RETURNDATASIZE PUSH0 PUSH1 0x20 DUP5 ADD RETURNDATACOPY PUSH2 0xFB5 JUMP JUMPDEST PUSH1 0x60 SWAP2 POP JUMPDEST POP POP SWAP1 POP DUP1 PUSH2 0xFF9 JUMPI PUSH1 0x40 MLOAD PUSH32 0x8C379A000000000000000000000000000000000000000000000000000000000 DUP2 MSTORE PUSH1 0x4 ADD PUSH2 0xFF0 SWAP1 PUSH2 0x25B2 JUMP JUMPDEST PUSH1 0x40 MLOAD DUP1 SWAP2 SUB SWAP1 REVERT JUMPDEST CALLER PUSH20 0xFFFFFFFFFFFFFFFFFFFFFFFFFFFFFFFFFFFFFFFF AND PUSH32 0x851805430B76795C7338D40D064EB68FF06EA87E8E9518986018EDB9F5590252 PUSH8 0xDE0B6B3A7640000 PUSH1 0x40 MLOAD PUSH2 0x1047 SWAP2 SWAP1 PUSH2 0x2600 JUMP JUMPDEST PUSH1 0x40 MLOAD DUP1 SWAP2 SUB SWAP1 LOG2 POP JUMPDEST JUMPDEST PUSH0 PUSH1 0x4 SLOAD SWAP1 POP PUSH1 0x4 PUSH0 DUP2 SLOAD DUP1 SWAP3 SWAP2 SWAP1 PUSH2 0x106A SWAP1 PUSH2 0x24C4 JUMP JUMPDEST SWAP2 SWAP1 POP SSTORE POP PUSH0 PUSH3 0x15180 DUP6 PUSH2 0x107F SWAP2 SWAP1 PUSH2 0x2619 JUMP JUMPDEST TIMESTAMP PUSH2 0x108A SWAP2 SWAP1 PUSH2 0x265A JUMP JUMPDEST SWAP1 POP PUSH1 0x40 MLOAD DUP1 PUSH2 0x100 ADD PUSH1 0x40 MSTORE DUP1 DUP4 DUP2 MSTORE PUSH1 0x20 ADD DUP9 DUP2 MSTORE PUSH1 0x20 ADD DUP8 DUP2 MSTORE PUSH1 0x20 ADD CALLER PUSH20 0xFFFFFFFFFFFFFFFFFFFFFFFFFFFFFFFFFFFFFFFF AND DUP2 MSTORE PUSH1 0x20 ADD TIMESTAMP DUP2 MSTORE PUSH1 0x20 ADD DUP3 DUP2 MSTORE PUSH1 0x20 ADD PUSH0 DUP2 MSTORE PUSH1 0x20 ADD PUSH1 0x1 ISZERO ISZERO DUP2 MSTORE POP PUSH1 0x7 PUSH0 DUP5 DUP2 MSTORE PUSH1 0x20 ADD SWAP1 DUP2 MSTORE PUSH1 0x20 ADD PUSH0 KECCAK256 PUSH0 DUP3 ADD MLOAD DUP2 PUSH0 ADD SSTORE PUSH1 0x20 DUP3 ADD MLOAD DUP2 PUSH1 0x1 ADD SWAP1 DUP2 PUSH2 0x110D SWAP2 SWAP1 PUSH2 0x2824 JUMP JUMPDEST POP PUSH1 0x40 DUP3 ADD MLOAD DUP2 PUSH1 0x2 ADD SWAP1 DUP2 PUSH2 0x1123 SWAP2 SWAP1 PUSH2 0x2824 JUMP JUMPDEST POP PUSH1 0x60 DUP3 ADD MLOAD DUP2 PUSH1 0x3 ADD PUSH0 PUSH2 0x100 EXP DUP2 SLOAD DUP2 PUSH20 0xFFFFFFFFFFFFFFFFFFFFFFFFFFFFFFFFFFFFFFFF MUL NOT AND SWAP1 DUP4 PUSH20 0xFFFFFFFFFFFFFFFFFFFFFFFFFFFFFFFFFFFFFFFF AND MUL OR SWAP1 SSTORE POP PUSH1 0x80 DUP3 ADD MLOAD DUP2 PUSH1 0x4 ADD SSTORE PUSH1 0xA0 DUP3 ADD MLOAD DUP2 PUSH1 0x5 ADD SSTORE PUSH1 0xC0 DUP3 ADD MLOAD DUP2 PUSH1 0x6 ADD SSTORE PUSH1 0xE0 DUP3 ADD MLOAD DUP2 PUSH1 0x7 ADD PUSH0 PUSH2 0x100 EXP DUP2 SLOAD DUP2 PUSH1 0xFF MUL NOT AND SWAP1 DUP4 ISZERO ISZERO MUL OR SWAP1 SSTORE POP SWAP1 POP POP CALLER PUSH20 0xFFFFFFFFFFFFFFFFFFFFFFFFFFFFFFFFFFFFFFFF AND DUP3 PUSH32 0x23A303DC33F80786069D2624C4FCE431A8AB64CFFC5F57F5875102D02F5C3547 DUP10 DUP5 DUP9 PUSH1 0x40 MLOAD PUSH2 0x11F5 SWAP4 SWAP3 SWAP2 SWAP1 PUSH2 0x28F3 JUMP JUMPDEST PUSH1 0x40 MLOAD DUP1 SWAP2 SUB SWAP1 LOG3 POP POP POP POP PUSH2 0x1209 PUSH2 0x196A JUMP JUMPDEST POP POP POP JUMP JUMPDEST PUSH1 0x4 SLOAD DUP2 LT PUSH2 0x1252 JUMPI PUSH1 0x40 MLOAD PUSH32 0x8C379A000000000000000000000000000000000000000000000000000000000 DUP2 MSTORE PUSH1 0x4 ADD PUSH2 0x1249 SWAP1 PUSH2 0x1FC7 JUMP JUMPDEST PUSH1 0x40 MLOAD DUP1 SWAP2 SUB SWAP1 REVERT JUMPDEST PUSH0 PUSH1 0x7 PUSH0 DUP4 DUP2 MSTORE PUSH1 0x20 ADD SWAP1 DUP2 MSTORE PUSH1 0x20 ADD PUSH0 KECCAK256 SWAP1 POP DUP1 PUSH1 0x7 ADD PUSH0 SWAP1 SLOAD SWAP1 PUSH2 0x100 EXP SWAP1 DIV PUSH1 0xFF AND PUSH2 0x12B6 JUMPI PUSH1 0x40 MLOAD PUSH32 0x8C379A000000000000000000000000000000000000000000000000000000000 DUP2 MSTORE PUSH1 0x4 ADD PUSH2 0x12AD SWAP1 PUSH2 0x2979 JUMP JUMPDEST PUSH1 0x40 MLOAD DUP1 SWAP2 SUB SWAP1 REVERT JUMPDEST DUP1 PUSH1 0x5 ADD SLOAD TIMESTAMP GT ISZERO PUSH2 0x12FD JUMPI PUSH1 0x40 MLOAD PUSH32 0x8C379A000000000000000000000000000000000000000000000000000000000 DUP2 MSTORE PUSH1 0x4 ADD PUSH2 0x12F4 SWAP1 PUSH2 0x29E1 JUMP JUMPDEST PUSH1 0x40 MLOAD DUP1 SWAP2 SUB SWAP1 REVERT JUMPDEST PUSH1 0x9 PUSH0 DUP4 DUP2 MSTORE PUSH1 0x20 ADD SWAP1 DUP2 MSTORE PUSH1 0x20 ADD PUSH0 KECCAK256 PUSH0 CALLER PUSH20 0xFFFFFFFFFFFFFFFFFFFFFFFFFFFFFFFFFFFFFFFF AND PUSH20 0xFFFFFFFFFFFFFFFFFFFFFFFFFFFFFFFFFFFFFFFF AND DUP2 MSTORE PUSH1 0x20 ADD SWAP1 DUP2 MSTORE PUSH1 0x20 ADD PUSH0 KECCAK256 PUSH0 SWAP1 SLOAD SWAP1 PUSH2 0x100 EXP SWAP1 DIV PUSH1 0xFF AND ISZERO PUSH2 0x1396 JUMPI PUSH1 0x40 MLOAD PUSH32 0x8C379A000000000000000000000000000000000000000000000000000000000 DUP2 MSTORE PUSH1 0x4 ADD PUSH2 0x138D SWAP1 PUSH2 0x2A49 JUMP JUMPDEST PUSH1 0x40 MLOAD DUP1 SWAP2 SUB SWAP1 REVERT JUMPDEST PUSH1 0x1 PUSH1 0x9 PUSH0 DUP5 DUP2 MSTORE PUSH1 0x20 ADD SWAP1 DUP2 MSTORE PUSH1 0x20 ADD PUSH0 KECCAK256 PUSH0 CALLER PUSH20 0xFFFFFFFFFFFFFFFFFFFFFFFFFFFFFFFFFFFFFFFF AND PUSH20 0xFFFFFFFFFFFFFFFFFFFFFFFFFFFFFFFFFFFFFFFF AND DUP2 MSTORE PUSH1 0x20 ADD SWAP1 DUP2 MSTORE PUSH1 0x20 ADD PUSH0 KECCAK256 PUSH0 PUSH2 0x100 EXP DUP2 SLOAD DUP2 PUSH1 0xFF MUL NOT AND SWAP1 DUP4 ISZERO ISZERO MUL OR SWAP1 SSTORE POP DUP1 PUSH1 0x6 ADD PUSH0 DUP2 SLOAD DUP1 SWAP3 SWAP2 SWAP1 PUSH2 0x140E SWAP1 PUSH2 0x24C4 JUMP JUMPDEST SWAP2 SWAP1 POP SSTORE POP CALLER PUSH20 0xFFFFFFFFFFFFFFFFFFFFFFFFFFFFFFFFFFFFFFFF AND DUP3 PUSH32 0xA504FA1A622895E43328023A9FA609EEBEC933D785DF4E1B4F33C587D12D835D DUP4 PUSH1 0x6 ADD SLOAD PUSH1 0x40 MLOAD PUSH2 0x145E SWAP2 SWAP1 PUSH2 0x1BFB JUMP JUMPDEST PUSH1 0x40 MLOAD DUP1 SWAP2 SUB SWAP1 LOG3 POP POP JUMP JUMPDEST PUSH0 PUSH1 0x9 PUSH0 DUP5 DUP2 MSTORE PUSH1 0x20 ADD SWAP1 DUP2 MSTORE PUSH1 0x20 ADD PUSH0 KECCAK256 PUSH0 DUP4 PUSH20 0xFFFFFFFFFFFFFFFFFFFFFFFFFFFFFFFFFFFFFFFF AND PUSH20 0xFFFFFFFFFFFFFFFFFFFFFFFFFFFFFFFFFFFFFFFF AND DUP2 MSTORE PUSH1 0x20 ADD SWAP1 DUP2 MSTORE PUSH1 0x20 ADD PUSH0 KECCAK256 PUSH0 SWAP1 SLOAD SWAP1 PUSH2 0x100 EXP SWAP1 DIV PUSH1 0xFF AND SWAP1 POP SWAP3 SWAP2 POP POP JUMP JUMPDEST PUSH2 0x14D4 PUSH2 0x1739 JUMP JUMPDEST DUP1 PUSH1 0x5 DUP2 SWAP1 SSTORE POP POP JUMP JUMPDEST PUSH2 0x14E6 PUSH2 0x1739 JUMP JUMPDEST PUSH0 PUSH20 0xFFFFFFFFFFFFFFFFFFFFFFFFFFFFFFFFFFFFFFFF AND DUP2 PUSH20 0xFFFFFFFFFFFFFFFFFFFFFFFFFFFFFFFFFFFFFFFF AND SUB PUSH2 0x1556 JUMPI PUSH0 PUSH1 0x40 MLOAD PUSH32 0x1E4FBDF700000000000000000000000000000000000000000000000000000000 DUP2 MSTORE PUSH1 0x4 ADD PUSH2 0x154D SWAP2 SWAP1 PUSH2 0x1DB0 JUMP JUMPDEST PUSH1 0x40 MLOAD DUP1 SWAP2 SUB SWAP1 REVERT JUMPDEST PUSH2 0x155F DUP2 PUSH2 0x17C0 JUMP JUMPDEST POP JUMP JUMPDEST PUSH1 0x4 SLOAD DUP2 LT PUSH2 0x15A6 JUMPI PUSH1 0x40 MLOAD PUSH32 0x8C379A000000000000000000000000000000000000000000000000000000000 DUP2 MSTORE PUSH1 0x4 ADD PUSH2 0x159D SWAP1 PUSH2 0x1FC7 JUMP JUMPDEST PUSH1 0x40 MLOAD DUP1 SWAP2 SUB SWAP1 REVERT JUMPDEST PUSH0 PUSH1 0x7 PUSH0 DUP4 DUP2 MSTORE PUSH1 0x20 ADD SWAP1 DUP2 MSTORE PUSH1 0x20 ADD PUSH0 KECCAK256 SWAP1 POP DUP1 PUSH1 0x3 ADD PUSH0 SWAP1 SLOAD SWAP1 PUSH2 0x100 EXP SWAP1 DIV PUSH20 0xFFFFFFFFFFFFFFFFFFFFFFFFFFFFFFFFFFFFFFFF AND PUSH20 0xFFFFFFFFFFFFFFFFFFFFFFFFFFFFFFFFFFFFFFFF AND CALLER PUSH20 0xFFFFFFFFFFFFFFFFFFFFFFFFFFFFFFFFFFFFFFFF AND EQ DUP1 PUSH2 0x1649 JUMPI POP PUSH2 0x161A PUSH2 0xA26 JUMP JUMPDEST PUSH20 0xFFFFFFFFFFFFFFFFFFFFFFFFFFFFFFFFFFFFFFFF AND CALLER PUSH20 0xFFFFFFFFFFFFFFFFFFFFFFFFFFFFFFFFFFFFFFFF AND EQ JUMPDEST PUSH2 0x1688 JUMPI PUSH1 0x40 MLOAD PUSH32 0x8C379A000000000000000000000000000000000000000000000000000000000 DUP2 MSTORE PUSH1 0x4 ADD PUSH2 0x167F SWAP1 PUSH2 0x2AB1 JUMP JUMPDEST PUSH1 0x40 MLOAD DUP1 SWAP2 SUB SWAP1 REVERT JUMPDEST DUP1 PUSH1 0x7 ADD PUSH0 SWAP1 SLOAD SWAP1 PUSH2 0x100 EXP SWAP1 DIV PUSH1 0xFF AND PUSH2 0x16D8 JUMPI PUSH1 0x40 MLOAD PUSH32 0x8C379A000000000000000000000000000000000000000000000000000000000 DUP2 MSTORE PUSH1 0x4 ADD PUSH2 0x16CF SWAP1 PUSH2 0x2B19 JUMP JUMPDEST PUSH1 0x40 MLOAD DUP1 SWAP2 SUB SWAP1 REVERT JUMPDEST PUSH0 DUP2 PUSH1 0x7 ADD PUSH0 PUSH2 0x100 EXP DUP2 SLOAD DUP2 PUSH1 0xFF MUL NOT AND SWAP1 DUP4 ISZERO ISZERO MUL OR SWAP1 SSTORE POP DUP2 PUSH32 0x60F9B8DB8DE8D36D1B8B158B5929ED13941E7BC1DFBC4E720DF073924161491B PUSH1 0x40 MLOAD PUSH1 0x40 MLOAD DUP1 SWAP2 SUB SWAP1 LOG2 POP POP JUMP JUMPDEST PUSH1 0x8 PUSH1 0x20 MSTORE DUP1 PUSH0 MSTORE PUSH1 0x40 PUSH0 KECCAK256 PUSH0 SWAP2 POP SWAP1 POP SLOAD DUP2 JUMP JUMPDEST PUSH2 0x1741 PUSH2 0x1973 JUMP JUMPDEST PUSH20 0xFFFFFFFFFFFFFFFFFFFFFFFFFFFFFFFFFFFFFFFF AND PUSH2 0x175F PUSH2 0xA26 JUMP JUMPDEST PUSH20 0xFFFFFFFFFFFFFFFFFFFFFFFFFFFFFFFFFFFFFFFF AND EQ PUSH2 0x17BE JUMPI PUSH2 0x1782 PUSH2 0x1973 JUMP JUMPDEST PUSH1 0x40 MLOAD PUSH32 0x118CDAA700000000000000000000000000000000000000000000000000000000 DUP2 MSTORE PUSH1 0x4 ADD PUSH2 0x17B5 SWAP2 SWAP1 PUSH2 0x1DB0 JUMP JUMPDEST PUSH1 0x40 MLOAD DUP1 SWAP2 SUB SWAP1 REVERT JUMPDEST JUMP JUMPDEST PUSH0 PUSH0 PUSH0 SWAP1 SLOAD SWAP1 PUSH2 0x100 EXP SWAP1 DIV PUSH20 0xFFFFFFFFFFFFFFFFFFFFFFFFFFFFFFFFFFFFFFFF AND SWAP1 POP DUP2 PUSH0 PUSH0 PUSH2 0x100 EXP DUP2 SLOAD DUP2 PUSH20 0xFFFFFFFFFFFFFFFFFFFFFFFFFFFFFFFFFFFFFFFF MUL NOT AND SWAP1 DUP4 PUSH20 0xFFFFFFFFFFFFFFFFFFFFFFFFFFFFFFFFFFFFFFFF AND MUL OR SWAP1 SSTORE POP DUP2 PUSH20 0xFFFFFFFFFFFFFFFFFFFFFFFFFFFFFFFFFFFFFFFF AND DUP2 PUSH20 0xFFFFFFFFFFFFFFFFFFFFFFFFFFFFFFFFFFFFFFFF AND PUSH32 0x8BE0079C531659141344CD1FD0A4F28419497F9722A3DAAFE3B4186F6B6457E0 PUSH1 0x40 MLOAD PUSH1 0x40 MLOAD DUP1 SWAP2 SUB SWAP1 LOG3 POP POP JUMP JUMPDEST PUSH1 0x2 PUSH1 0x1 SLOAD SUB PUSH2 0x18BD JUMPI PUSH1 0x40 MLOAD PUSH32 0x3EE5AEB500000000000000000000000000000000000000000000000000000000 DUP2 MSTORE PUSH1 0x4 ADD PUSH1 0x40 MLOAD DUP1 SWAP2 SUB SWAP1 REVERT JUMPDEST PUSH1 0x2 PUSH1 0x1 DUP2 SWAP1 SSTORE POP JUMP JUMPDEST PUSH0 PUSH0 PUSH1 0x2 PUSH0 SWAP1 SLOAD SWAP1 PUSH2 0x100 EXP SWAP1 DIV PUSH20 0xFFFFFFFFFFFFFFFFFFFFFFFFFFFFFFFFFFFFFFFF AND PUSH20 0xFFFFFFFFFFFFFFFFFFFFFFFFFFFFFFFFFFFFFFFF AND PUSH4 0x70A08231 DUP5 PUSH1 0x40 MLOAD DUP3 PUSH4 0xFFFFFFFF AND PUSH1 0xE0 SHL DUP2 MSTORE PUSH1 0x4 ADD PUSH2 0x1923 SWAP2 SWAP1 PUSH2 0x1DB0 JUMP JUMPDEST PUSH1 0x20 PUSH1 0x40 MLOAD DUP1 DUP4 SUB DUP2 DUP7 GAS STATICCALL ISZERO DUP1 ISZERO PUSH2 0x193E JUMPI RETURNDATASIZE PUSH0 PUSH0 RETURNDATACOPY RETURNDATASIZE PUSH0 REVERT JUMPDEST POP POP POP POP PUSH1 0x40 MLOAD RETURNDATASIZE PUSH1 0x1F NOT PUSH1 0x1F DUP3 ADD AND DUP3 ADD DUP1 PUSH1 0x40 MSTORE POP DUP2 ADD SWAP1 PUSH2 0x1962 SWAP2 SWAP1 PUSH2 0x22C6 JUMP JUMPDEST GT SWAP1 POP SWAP2 SWAP1 POP JUMP JUMPDEST PUSH1 0x1 DUP1 DUP2 SWAP1 SSTORE POP JUMP JUMPDEST PUSH0 CALLER SWAP1 POP SWAP1 JUMP JUMPDEST PUSH1 0x40 MLOAD DUP1 PUSH2 0x100 ADD PUSH1 0x40 MSTORE DUP1 PUSH0 DUP2 MSTORE PUSH1 0x20 ADD PUSH1 0x60 DUP2 MSTORE PUSH1 0x20 ADD PUSH1 0x60 DUP2 MSTORE PUSH1 0x20 ADD PUSH0 PUSH20 0xFFFFFFFFFFFFFFFFFFFFFFFFFFFFFFFFFFFFFFFF AND DUP2 MSTORE PUSH1 0x20 ADD PUSH0 DUP2 MSTORE PUSH1 0x20 ADD PUSH0 DUP2 MSTORE PUSH1 0x20 ADD PUSH0 DUP2 MSTORE PUSH1 0x20 ADD PUSH0 ISZERO ISZERO DUP2 MSTORE POP SWAP1 JUMP JUMPDEST PUSH0 PUSH1 0x40 MLOAD SWAP1 POP SWAP1 JUMP JUMPDEST PUSH0 PUSH0 REVERT JUMPDEST PUSH0 PUSH0 REVERT JUMPDEST PUSH0 DUP2 SWAP1 POP SWAP2 SWAP1 POP JUMP JUMPDEST PUSH2 0x19F4 DUP2 PUSH2 0x19E2 JUMP JUMPDEST DUP2 EQ PUSH2 0x19FE JUMPI PUSH0 PUSH0 REVERT JUMPDEST POP JUMP JUMPDEST PUSH0 DUP2 CALLDATALOAD SWAP1 POP PUSH2 0x1A0F DUP2 PUSH2 0x19EB JUMP JUMPDEST SWAP3 SWAP2 POP POP JUMP JUMPDEST PUSH0 PUSH1 0x20 DUP3 DUP5 SUB SLT ISZERO PUSH2 0x1A2A JUMPI PUSH2 0x1A29 PUSH2 0x19DA JUMP JUMPDEST JUMPDEST PUSH0 PUSH2 0x1A37 DUP5 DUP3 DUP6 ADD PUSH2 0x1A01 JUMP JUMPDEST SWAP2 POP POP SWAP3 SWAP2 POP POP JUMP JUMPDEST PUSH2 0x1A49 DUP2 PUSH2 0x19E2 JUMP JUMPDEST DUP3 MSTORE POP POP JUMP JUMPDEST PUSH0 DUP2 MLOAD SWAP1 POP SWAP2 SWAP1 POP JUMP JUMPDEST PUSH0 DUP3 DUP3 MSTORE PUSH1 0x20 DUP3 ADD SWAP1 POP SWAP3 SWAP2 POP POP JUMP JUMPDEST DUP3 DUP2 DUP4 MCOPY PUSH0 DUP4 DUP4 ADD MSTORE POP POP POP JUMP JUMPDEST PUSH0 PUSH1 0x1F NOT PUSH1 0x1F DUP4 ADD AND SWAP1 POP SWAP2 SWAP1 POP JUMP JUMPDEST PUSH0 PUSH2 0x1A91 DUP3 PUSH2 0x1A4F JUMP JUMPDEST PUSH2 0x1A9B DUP2 DUP6 PUSH2 0x1A59 JUMP JUMPDEST SWAP4 POP PUSH2 0x1AAB DUP2 DUP6 PUSH1 0x20 DUP7 ADD PUSH2 0x1A69 JUMP JUMPDEST PUSH2 0x1AB4 DUP2 PUSH2 0x1A77 JUMP JUMPDEST DUP5 ADD SWAP2 POP POP SWAP3 SWAP2 POP POP JUMP JUMPDEST PUSH0 PUSH20 0xFFFFFFFFFFFFFFFFFFFFFFFFFFFFFFFFFFFFFFFF DUP3 AND SWAP1 POP SWAP2 SWAP1 POP JUMP JUMPDEST PUSH0 PUSH2 0x1AE8 DUP3 PUSH2 0x1ABF JUMP JUMPDEST SWAP1 POP SWAP2 SWAP1 POP JUMP JUMPDEST PUSH2 0x1AF8 DUP2 PUSH2 0x1ADE JUMP JUMPDEST DUP3 MSTORE POP POP JUMP JUMPDEST PUSH0 DUP2 ISZERO ISZERO SWAP1 POP SWAP2 SWAP1 POP JUMP JUMPDEST PUSH2 0x1B12 DUP2 PUSH2 0x1AFE JUMP JUMPDEST DUP3 MSTORE POP POP JUMP JUMPDEST PUSH0 PUSH2 0x100 DUP4 ADD PUSH0 DUP4 ADD MLOAD PUSH2 0x1B2E PUSH0 DUP7 ADD DUP3 PUSH2 0x1A40 JUMP JUMPDEST POP PUSH1 0x20 DUP4 ADD MLOAD DUP5 DUP3 SUB PUSH1 0x20 DUP7 ADD MSTORE PUSH2 0x1B46 DUP3 DUP3 PUSH2 0x1A87 JUMP JUMPDEST SWAP2 POP POP PUSH1 0x40 DUP4 ADD MLOAD DUP5 DUP3 SUB PUSH1 0x40 DUP7 ADD MSTORE PUSH2 0x1B60 DUP3 DUP3 PUSH2 0x1A87 JUMP JUMPDEST SWAP2 POP POP PUSH1 0x60 DUP4 ADD MLOAD PUSH2 0x1B75 PUSH1 0x60 DUP7 ADD DUP3 PUSH2 0x1AEF JUMP JUMPDEST POP PUSH1 0x80 DUP4 ADD MLOAD PUSH2 0x1B88 PUSH1 0x80 DUP7 ADD DUP3 PUSH2 0x1A40 JUMP JUMPDEST POP PUSH1 0xA0 DUP4 ADD MLOAD PUSH2 0x1B9B PUSH1 0xA0 DUP7 ADD DUP3 PUSH2 0x1A40 JUMP JUMPDEST POP PUSH1 0xC0 DUP4 ADD MLOAD PUSH2 0x1BAE PUSH1 0xC0 DUP7 ADD DUP3 PUSH2 0x1A40 JUMP JUMPDEST POP PUSH1 0xE0 DUP4 ADD MLOAD PUSH2 0x1BC1 PUSH1 0xE0 DUP7 ADD DUP3 PUSH2 0x1B09 JUMP JUMPDEST POP DUP1 SWAP2 POP POP SWAP3 SWAP2 POP POP JUMP JUMPDEST PUSH0 PUSH1 0x20 DUP3 ADD SWAP1 POP DUP2 DUP2 SUB PUSH0 DUP4 ADD MSTORE PUSH2 0x1BE4 DUP2 DUP5 PUSH2 0x1B18 JUMP JUMPDEST SWAP1 POP SWAP3 SWAP2 POP POP JUMP JUMPDEST PUSH2 0x1BF5 DUP2 PUSH2 0x19E2 JUMP JUMPDEST DUP3 MSTORE POP POP JUMP JUMPDEST PUSH0 PUSH1 0x20 DUP3 ADD SWAP1 POP PUSH2 0x1C0E PUSH0 DUP4 ADD DUP5 PUSH2 0x1BEC JUMP JUMPDEST SWAP3 SWAP2 POP POP JUMP JUMPDEST PUSH0 DUP3 DUP3 MSTORE PUSH1 0x20 DUP3 ADD SWAP1 POP SWAP3 SWAP2 POP POP JUMP JUMPDEST PUSH0 PUSH2 0x1C2E DUP3 PUSH2 0x1A4F JUMP JUMPDEST PUSH2 0x1C38 DUP2 DUP6 PUSH2 0x1C14 JUMP JUMPDEST SWAP4 POP PUSH2 0x1C48 DUP2 DUP6 PUSH1 0x20 DUP7 ADD PUSH2 0x1A69 JUMP JUMPDEST PUSH2 0x1C51 DUP2 PUSH2 0x1A77 JUMP JUMPDEST DUP5 ADD SWAP2 POP POP SWAP3 SWAP2 POP POP JUMP JUMPDEST PUSH2 0x1C65 DUP2 PUSH2 0x1ADE JUMP JUMPDEST DUP3 MSTORE POP POP JUMP JUMPDEST PUSH2 0x1C74 DUP2 PUSH2 0x1AFE JUMP JUMPDEST DUP3 MSTORE POP POP JUMP JUMPDEST PUSH0 PUSH2 0x100 DUP3 ADD SWAP1 POP PUSH2 0x1C8E PUSH0 DUP4 ADD DUP12 PUSH2 0x1BEC JUMP JUMPDEST DUP2 DUP2 SUB PUSH1 0x20 DUP4 ADD MSTORE PUSH2 0x1CA0 DUP2 DUP11 PUSH2 0x1C24 JUMP JUMPDEST SWAP1 POP DUP2 DUP2 SUB PUSH1 0x40 DUP4 ADD MSTORE PUSH2 0x1CB4 DUP2 DUP10 PUSH2 0x1C24 JUMP JUMPDEST SWAP1 POP PUSH2 0x1CC3 PUSH1 0x60 DUP4 ADD DUP9 PUSH2 0x1C5C JUMP JUMPDEST PUSH2 0x1CD0 PUSH1 0x80 DUP4 ADD DUP8 PUSH2 0x1BEC JUMP JUMPDEST PUSH2 0x1CDD PUSH1 0xA0 DUP4 ADD DUP7 PUSH2 0x1BEC JUMP JUMPDEST PUSH2 0x1CEA PUSH1 0xC0 DUP4 ADD DUP6 PUSH2 0x1BEC JUMP JUMPDEST PUSH2 0x1CF7 PUSH1 0xE0 DUP4 ADD DUP5 PUSH2 0x1C6B JUMP JUMPDEST SWAP10 SWAP9 POP POP POP POP POP POP POP POP POP JUMP JUMPDEST PUSH2 0x1D0D DUP2 PUSH2 0x1ADE JUMP JUMPDEST DUP2 EQ PUSH2 0x1D17 JUMPI PUSH0 PUSH0 REVERT JUMPDEST POP JUMP JUMPDEST PUSH0 DUP2 CALLDATALOAD SWAP1 POP PUSH2 0x1D28 DUP2 PUSH2 0x1D04 JUMP JUMPDEST SWAP3 SWAP2 POP POP JUMP JUMPDEST PUSH0 PUSH1 0x20 DUP3 DUP5 SUB SLT ISZERO PUSH2 0x1D43 JUMPI PUSH2 0x1D42 PUSH2 0x19DA JUMP JUMPDEST JUMPDEST PUSH0 PUSH2 0x1D50 DUP5 DUP3 DUP6 ADD PUSH2 0x1D1A JUMP JUMPDEST SWAP2 POP POP SWAP3 SWAP2 POP POP JUMP JUMPDEST PUSH0 PUSH0 PUSH1 0x40 DUP4 DUP6 SUB SLT ISZERO PUSH2 0x1D6F JUMPI PUSH2 0x1D6E PUSH2 0x19DA JUMP JUMPDEST JUMPDEST PUSH0 PUSH2 0x1D7C DUP6 DUP3 DUP7 ADD PUSH2 0x1A01 JUMP JUMPDEST SWAP3 POP POP PUSH1 0x20 PUSH2 0x1D8D DUP6 DUP3 DUP7 ADD PUSH2 0x1D1A JUMP JUMPDEST SWAP2 POP POP SWAP3 POP SWAP3 SWAP1 POP JUMP JUMPDEST PUSH0 PUSH1 0x20 DUP3 ADD SWAP1 POP PUSH2 0x1DAA PUSH0 DUP4 ADD DUP5 PUSH2 0x1C6B JUMP JUMPDEST SWAP3 SWAP2 POP POP JUMP JUMPDEST PUSH0 PUSH1 0x20 DUP3 ADD SWAP1 POP PUSH2 0x1DC3 PUSH0 DUP4 ADD DUP5 PUSH2 0x1C5C JUMP JUMPDEST SWAP3 SWAP2 POP POP JUMP JUMPDEST PUSH0 PUSH0 REVERT JUMPDEST PUSH0 PUSH0 REVERT JUMPDEST PUSH32 0x4E487B7100000000000000000000000000000000000000000000000000000000 PUSH0 MSTORE PUSH1 0x41 PUSH1 0x4 MSTORE PUSH1 0x24 PUSH0 REVERT JUMPDEST PUSH2 0x1E07 DUP3 PUSH2 0x1A77 JUMP JUMPDEST DUP2 ADD DUP2 DUP2 LT PUSH8 0xFFFFFFFFFFFFFFFF DUP3 GT OR ISZERO PUSH2 0x1E26 JUMPI PUSH2 0x1E25 PUSH2 0x1DD1 JUMP JUMPDEST JUMPDEST DUP1 PUSH1 0x40 MSTORE POP POP POP JUMP JUMPDEST PUSH0 PUSH2 0x1E38 PUSH2 0x19D1 JUMP JUMPDEST SWAP1 POP PUSH2 0x1E44 DUP3 DUP3 PUSH2 0x1DFE JUMP JUMPDEST SWAP2 SWAP1 POP JUMP JUMPDEST PUSH0 PUSH8 0xFFFFFFFFFFFFFFFF DUP3 GT ISZERO PUSH2 0x1E63 JUMPI PUSH2 0x1E62 PUSH2 0x1DD1 JUMP JUMPDEST JUMPDEST PUSH2 0x1E6C DUP3 PUSH2 0x1A77 JUMP JUMPDEST SWAP1 POP PUSH1 0x20 DUP2 ADD SWAP1 POP SWAP2 SWAP1 POP JUMP JUMPDEST DUP3 DUP2 DUP4 CALLDATACOPY PUSH0 DUP4 DUP4 ADD MSTORE POP POP POP JUMP JUMPDEST PUSH0 PUSH2 0x1E99 PUSH2 0x1E94 DUP5 PUSH2 0x1E49 JUMP JUMPDEST PUSH2 0x1E2F JUMP JUMPDEST SWAP1 POP DUP3 DUP2 MSTORE PUSH1 0x20 DUP2 ADD DUP5 DUP5 DUP5 ADD GT ISZERO PUSH2 0x1EB5 JUMPI PUSH2 0x1EB4 PUSH2 0x1DCD JUMP JUMPDEST JUMPDEST PUSH2 0x1EC0 DUP5 DUP3 DUP6 PUSH2 0x1E79 JUMP JUMPDEST POP SWAP4 SWAP3 POP POP POP JUMP JUMPDEST PUSH0 DUP3 PUSH1 0x1F DUP4 ADD SLT PUSH2 0x1EDC JUMPI PUSH2 0x1EDB PUSH2 0x1DC9 JUMP JUMPDEST JUMPDEST DUP2 CALLDATALOAD PUSH2 0x1EEC DUP5 DUP3 PUSH1 0x20 DUP7 ADD PUSH2 0x1E87 JUMP JUMPDEST SWAP2 POP POP SWAP3 SWAP2 POP POP JUMP JUMPDEST PUSH0 PUSH0 PUSH0 PUSH1 0x60 DUP5 DUP7 SUB SLT ISZERO PUSH2 0x1F0C JUMPI PUSH2 0x1F0B PUSH2 0x19DA JUMP JUMPDEST JUMPDEST PUSH0 DUP5 ADD CALLDATALOAD PUSH8 0xFFFFFFFFFFFFFFFF DUP2 GT ISZERO PUSH2 0x1F29 JUMPI PUSH2 0x1F28 PUSH2 0x19DE JUMP JUMPDEST JUMPDEST PUSH2 0x1F35 DUP7 DUP3 DUP8 ADD PUSH2 0x1EC8 JUMP JUMPDEST SWAP4 POP POP PUSH1 0x20 DUP5 ADD CALLDATALOAD PUSH8 0xFFFFFFFFFFFFFFFF DUP2 GT ISZERO PUSH2 0x1F56 JUMPI PUSH2 0x1F55 PUSH2 0x19DE JUMP JUMPDEST JUMPDEST PUSH2 0x1F62 DUP7 DUP3 DUP8 ADD PUSH2 0x1EC8 JUMP JUMPDEST SWAP3 POP POP PUSH1 0x40 PUSH2 0x1F73 DUP7 DUP3 DUP8 ADD PUSH2 0x1A01 JUMP JUMPDEST SWAP2 POP POP SWAP3 POP SWAP3 POP SWAP3 JUMP JUMPDEST PUSH32 0x5065746974696F6E20646F6573206E6F74206578697374000000000000000000 PUSH0 DUP3 ADD MSTORE POP JUMP JUMPDEST PUSH0 PUSH2 0x1FB1 PUSH1 0x17 DUP4 PUSH2 0x1C14 JUMP JUMPDEST SWAP2 POP PUSH2 0x1FBC DUP3 PUSH2 0x1F7D JUMP JUMPDEST PUSH1 0x20 DUP3 ADD SWAP1 POP SWAP2 SWAP1 POP JUMP JUMPDEST PUSH0 PUSH1 0x20 DUP3 ADD SWAP1 POP DUP2 DUP2 SUB PUSH0 DUP4 ADD MSTORE PUSH2 0x1FDE DUP2 PUSH2 0x1FA5 JUMP JUMPDEST SWAP1 POP SWAP2 SWAP1 POP JUMP JUMPDEST PUSH32 0x4E487B7100000000000000000000000000000000000000000000000000000000 PUSH0 MSTORE PUSH1 0x22 PUSH1 0x4 MSTORE PUSH1 0x24 PUSH0 REVERT JUMPDEST PUSH0 PUSH1 0x2 DUP3 DIV SWAP1 POP PUSH1 0x1 DUP3 AND DUP1 PUSH2 0x2029 JUMPI PUSH1 0x7F DUP3 AND SWAP2 POP JUMPDEST PUSH1 0x20 DUP3 LT DUP2 SUB PUSH2 0x203C JUMPI PUSH2 0x203B PUSH2 0x1FE5 JUMP JUMPDEST JUMPDEST POP SWAP2 SWAP1 POP JUMP JUMPDEST PUSH32 0x4E6F2062616C616E636520746F20776974686472617700000000000000000000 PUSH0 DUP3 ADD MSTORE POP JUMP JUMPDEST PUSH0 PUSH2 0x2076 PUSH1 0x16 DUP4 PUSH2 0x1C14 JUMP JUMPDEST SWAP2 POP PUSH2 0x2081 DUP3 PUSH2 0x2042 JUMP JUMPDEST PUSH1 0x20 DUP3 ADD SWAP1 POP SWAP2 SWAP1 POP JUMP JUMPDEST PUSH0 PUSH1 0x20 DUP3 ADD SWAP1 POP DUP2 DUP2 SUB PUSH0 DUP4 ADD MSTORE PUSH2 0x20A3 DUP2 PUSH2 0x206A JUMP JUMPDEST SWAP1 POP SWAP2 SWAP1 POP JUMP JUMPDEST PUSH32 0x496E76616C6964207468726573686F6C64000000000000000000000000000000 PUSH0 DUP3 ADD MSTORE POP JUMP JUMPDEST PUSH0 PUSH2 0x20DE PUSH1 0x11 DUP4 PUSH2 0x1C14 JUMP JUMPDEST SWAP2 POP PUSH2 0x20E9 DUP3 PUSH2 0x20AA JUMP JUMPDEST PUSH1 0x20 DUP3 ADD SWAP1 POP SWAP2 SWAP1 POP JUMP JUMPDEST PUSH0 PUSH1 0x20 DUP3 ADD SWAP1 POP DUP2 DUP2 SUB PUSH0 DUP4 ADD MSTORE PUSH2 0x210B DUP2 PUSH2 0x20D2 JUMP JUMPDEST SWAP1 POP SWAP2 SWAP1 POP JUMP JUMPDEST PUSH32 0x4E6F7420612044414F206D656D62657200000000000000000000000000000000 PUSH0 DUP3 ADD MSTORE POP JUMP JUMPDEST PUSH0 PUSH2 0x2146 PUSH1 0x10 DUP4 PUSH2 0x1C14 JUMP JUMPDEST SWAP2 POP PUSH2 0x2151 DUP3 PUSH2 0x2112 JUMP JUMPDEST PUSH1 0x20 DUP3 ADD SWAP1 POP SWAP2 SWAP1 POP JUMP JUMPDEST PUSH0 PUSH1 0x20 DUP3 ADD SWAP1 POP DUP2 DUP2 SUB PUSH0 DUP4 ADD MSTORE PUSH2 0x2173 DUP2 PUSH2 0x213A JUMP JUMPDEST SWAP1 POP SWAP2 SWAP1 POP JUMP JUMPDEST PUSH32 0x5469746C652063616E6E6F7420626520656D7074790000000000000000000000 PUSH0 DUP3 ADD MSTORE POP JUMP JUMPDEST PUSH0 PUSH2 0x21AE PUSH1 0x15 DUP4 PUSH2 0x1C14 JUMP JUMPDEST SWAP2 POP PUSH2 0x21B9 DUP3 PUSH2 0x217A JUMP JUMPDEST PUSH1 0x20 DUP3 ADD SWAP1 POP SWAP2 SWAP1 POP JUMP JUMPDEST PUSH0 PUSH1 0x20 DUP3 ADD SWAP1 POP DUP2 DUP2 SUB PUSH0 DUP4 ADD MSTORE PUSH2 0x21DB DUP2 PUSH2 0x21A2 JUMP JUMPDEST SWAP1 POP SWAP2 SWAP1 POP JUMP JUMPDEST PUSH32 0x4465736372697074696F6E2063616E6E6F7420626520656D7074790000000000 PUSH0 DUP3 ADD MSTORE POP JUMP JUMPDEST PUSH0 PUSH2 0x2216 PUSH1 0x1B DUP4 PUSH2 0x1C14 JUMP JUMPDEST SWAP2 POP PUSH2 0x2221 DUP3 PUSH2 0x21E2 JUMP JUMPDEST PUSH1 0x20 DUP3 ADD SWAP1 POP SWAP2 SWAP1 POP JUMP JUMPDEST PUSH0 PUSH1 0x20 DUP3 ADD SWAP1 POP DUP2 DUP2 SUB PUSH0 DUP4 ADD MSTORE PUSH2 0x2243 DUP2 PUSH2 0x220A JUMP JUMPDEST SWAP1 POP SWAP2 SWAP1 POP JUMP JUMPDEST PUSH32 0x496E76616C6964206475726174696F6E00000000000000000000000000000000 PUSH0 DUP3 ADD MSTORE POP JUMP JUMPDEST PUSH0 PUSH2 0x227E PUSH1 0x10 DUP4 PUSH2 0x1C14 JUMP JUMPDEST SWAP2 POP PUSH2 0x2289 DUP3 PUSH2 0x224A JUMP JUMPDEST PUSH1 0x20 DUP3 ADD SWAP1 POP SWAP2 SWAP1 POP JUMP JUMPDEST PUSH0 PUSH1 0x20 DUP3 ADD SWAP1 POP DUP2 DUP2 SUB PUSH0 DUP4 ADD MSTORE PUSH2 0x22AB DUP2 PUSH2 0x2272 JUMP JUMPDEST SWAP1 POP SWAP2 SWAP1 POP JUMP JUMPDEST PUSH0 DUP2 MLOAD SWAP1 POP PUSH2 0x22C0 DUP2 PUSH2 0x19EB JUMP JUMPDEST SWAP3 SWAP2 POP POP JUMP JUMPDEST PUSH0 PUSH1 0x20 DUP3 DUP5 SUB SLT ISZERO PUSH2 0x22DB JUMPI PUSH2 0x22DA PUSH2 0x19DA JUMP JUMPDEST JUMPDEST PUSH0 PUSH2 0x22E8 DUP5 DUP3 DUP6 ADD PUSH2 0x22B2 JUMP JUMPDEST SWAP2 POP POP SWAP3 SWAP2 POP POP JUMP JUMPDEST PUSH0 DUP2 SWAP1 POP SWAP2 SWAP1 POP JUMP JUMPDEST PUSH0 PUSH8 0xFFFFFFFFFFFFFFFF DUP3 AND SWAP1 POP SWAP2 SWAP1 POP JUMP JUMPDEST PUSH0 DUP2 SWAP1 POP SWAP2 SWAP1 POP JUMP JUMPDEST PUSH0 PUSH2 0x2330 PUSH2 0x232B PUSH2 0x2326 DUP5 PUSH2 0x22F1 JUMP JUMPDEST PUSH2 0x230D JUMP JUMPDEST PUSH2 0x22FA JUMP JUMPDEST SWAP1 POP SWAP2 SWAP1 POP JUMP JUMPDEST PUSH2 0x2340 DUP2 PUSH2 0x2316 JUMP JUMPDEST DUP3 MSTORE POP POP JUMP JUMPDEST PUSH0 PUSH1 0x40 DUP3 ADD SWAP1 POP PUSH2 0x2359 PUSH0 DUP4 ADD DUP6 PUSH2 0x1C5C JUMP JUMPDEST PUSH2 0x2366 PUSH1 0x20 DUP4 ADD DUP5 PUSH2 0x2337 JUMP JUMPDEST SWAP4 SWAP3 POP POP POP JUMP JUMPDEST PUSH0 DUP2 MLOAD SWAP1 POP SWAP2 SWAP1 POP JUMP JUMPDEST PUSH0 DUP2 SWAP1 POP SWAP3 SWAP2 POP POP JUMP JUMPDEST PUSH0 PUSH2 0x238B DUP3 PUSH2 0x236D JUMP JUMPDEST PUSH2 0x2395 DUP2 DUP6 PUSH2 0x2377 JUMP JUMPDEST SWAP4 POP PUSH2 0x23A5 DUP2 DUP6 PUSH1 0x20 DUP7 ADD PUSH2 0x1A69 JUMP JUMPDEST DUP1 DUP5 ADD SWAP2 POP POP SWAP3 SWAP2 POP POP JUMP JUMPDEST PUSH0 PUSH2 0x23BC DUP3 DUP5 PUSH2 0x2381 JUMP JUMPDEST SWAP2 POP DUP2 SWAP1 POP SWAP3 SWAP2 POP POP JUMP JUMPDEST PUSH32 0x546F6B656E206275726E206661696C6564000000000000000000000000000000 PUSH0 DUP3 ADD MSTORE POP JUMP JUMPDEST PUSH0 PUSH2 0x23FB PUSH1 0x11 DUP4 PUSH2 0x1C14 JUMP JUMPDEST SWAP2 POP PUSH2 0x2406 DUP3 PUSH2 0x23C7 JUMP JUMPDEST PUSH1 0x20 DUP3 ADD SWAP1 POP SWAP2 SWAP1 POP JUMP JUMPDEST PUSH0 PUSH1 0x20 DUP3 ADD SWAP1 POP DUP2 DUP2 SUB PUSH0 DUP4 ADD MSTORE PUSH2 0x2428 DUP2 PUSH2 0x23EF JUMP JUMPDEST SWAP1 POP SWAP2 SWAP1 POP JUMP JUMPDEST PUSH32 0x496E73756666696369656E742066656500000000000000000000000000000000 PUSH0 DUP3 ADD MSTORE POP JUMP JUMPDEST PUSH0 PUSH2 0x2463 PUSH1 0x10 DUP4 PUSH2 0x1C14 JUMP JUMPDEST SWAP2 POP PUSH2 0x246E DUP3 PUSH2 0x242F JUMP JUMPDEST PUSH1 0x20 DUP3 ADD SWAP1 POP SWAP2 SWAP1 POP JUMP JUMPDEST PUSH0 PUSH1 0x20 DUP3 ADD SWAP1 POP DUP2 DUP2 SUB PUSH0 DUP4 ADD MSTORE PUSH2 0x2490 DUP2 PUSH2 0x2457 JUMP JUMPDEST SWAP1 POP SWAP2 SWAP1 POP JUMP JUMPDEST PUSH32 0x4E487B7100000000000000000000000000000000000000000000000000000000 PUSH0 MSTORE PUSH1 0x11 PUSH1 0x4 MSTORE PUSH1 0x24 PUSH0 REVERT JUMPDEST PUSH0 PUSH2 0x24CE DUP3 PUSH2 0x19E2 JUMP JUMPDEST SWAP2 POP PUSH32 0xFFFFFFFFFFFFFFFFFFFFFFFFFFFFFFFFFFFFFFFFFFFFFFFFFFFFFFFFFFFFFFFF DUP3 SUB PUSH2 0x2500 JUMPI PUSH2 0x24FF PUSH2 0x2497 JUMP JUMPDEST JUMPDEST PUSH1 0x1 DUP3 ADD SWAP1 POP SWAP2 SWAP1 POP JUMP JUMPDEST PUSH32 0x4E487B7100000000000000000000000000000000000000000000000000000000 PUSH0 MSTORE PUSH1 0x12 PUSH1 0x4 MSTORE PUSH1 0x24 PUSH0 REVERT JUMPDEST PUSH0 PUSH2 0x2542 DUP3 PUSH2 0x19E2 JUMP JUMPDEST SWAP2 POP PUSH2 0x254D DUP4 PUSH2 0x19E2 JUMP JUMPDEST SWAP3 POP DUP3 PUSH2 0x255D JUMPI PUSH2 0x255C PUSH2 0x250B JUMP JUMPDEST JUMPDEST DUP3 DUP3 MOD SWAP1 POP SWAP3 SWAP2 POP POP JUMP JUMPDEST PUSH32 0x546F6B656E206D696E74206661696C6564000000000000000000000000000000 PUSH0 DUP3 ADD MSTORE POP JUMP JUMPDEST PUSH0 PUSH2 0x259C PUSH1 0x11 DUP4 PUSH2 0x1C14 JUMP JUMPDEST SWAP2 POP PUSH2 0x25A7 DUP3 PUSH2 0x2568 JUMP JUMPDEST PUSH1 0x20 DUP3 ADD SWAP1 POP SWAP2 SWAP1 POP JUMP JUMPDEST PUSH0 PUSH1 0x20 DUP3 ADD SWAP1 POP DUP2 DUP2 SUB PUSH0 DUP4 ADD MSTORE PUSH2 0x25C9 DUP2 PUSH2 0x2590 JUMP JUMPDEST SWAP1 POP SWAP2 SWAP1 POP JUMP JUMPDEST PUSH0 PUSH2 0x25EA PUSH2 0x25E5 PUSH2 0x25E0 DUP5 PUSH2 0x22F1 JUMP JUMPDEST PUSH2 0x230D JUMP JUMPDEST PUSH2 0x19E2 JUMP JUMPDEST SWAP1 POP SWAP2 SWAP1 POP JUMP JUMPDEST PUSH2 0x25FA DUP2 PUSH2 0x25D0 JUMP JUMPDEST DUP3 MSTORE POP POP JUMP JUMPDEST PUSH0 PUSH1 0x20 DUP3 ADD SWAP1 POP PUSH2 0x2613 PUSH0 DUP4 ADD DUP5 PUSH2 0x25F1 JUMP JUMPDEST SWAP3 SWAP2 POP POP JUMP JUMPDEST PUSH0 PUSH2 0x2623 DUP3 PUSH2 0x19E2 JUMP JUMPDEST SWAP2 POP PUSH2 0x262E DUP4 PUSH2 0x19E2 JUMP JUMPDEST SWAP3 POP DUP3 DUP3 MUL PUSH2 0x263C DUP2 PUSH2 0x19E2 JUMP JUMPDEST SWAP2 POP DUP3 DUP3 DIV DUP5 EQ DUP4 ISZERO OR PUSH2 0x2653 JUMPI PUSH2 0x2652 PUSH2 0x2497 JUMP JUMPDEST JUMPDEST POP SWAP3 SWAP2 POP POP JUMP JUMPDEST PUSH0 PUSH2 0x2664 DUP3 PUSH2 0x19E2 JUMP JUMPDEST SWAP2 POP PUSH2 0x266F DUP4 PUSH2 0x19E2 JUMP JUMPDEST SWAP3 POP DUP3 DUP3 ADD SWAP1 POP DUP1 DUP3 GT ISZERO PUSH2 0x2687 JUMPI PUSH2 0x2686 PUSH2 0x2497 JUMP JUMPDEST JUMPDEST SWAP3 SWAP2 POP POP JUMP JUMPDEST PUSH0 DUP2 SWAP1 POP DUP2 PUSH0 MSTORE PUSH1 0x20 PUSH0 KECCAK256 SWAP1 POP SWAP2 SWAP1 POP JUMP JUMPDEST PUSH0 PUSH1 0x20 PUSH1 0x1F DUP4 ADD DIV SWAP1 POP SWAP2 SWAP1 POP JUMP JUMPDEST PUSH0 DUP3 DUP3 SHL SWAP1 POP SWAP3 SWAP2 POP POP JUMP JUMPDEST PUSH0 PUSH1 0x8 DUP4 MUL PUSH2 0x26E9 PUSH32 0xFFFFFFFFFFFFFFFFFFFFFFFFFFFFFFFFFFFFFFFFFFFFFFFFFFFFFFFFFFFFFFFF DUP3 PUSH2 0x26AE JUMP JUMPDEST PUSH2 0x26F3 DUP7 DUP4 PUSH2 0x26AE JUMP JUMPDEST SWAP6 POP DUP1 NOT DUP5 AND SWAP4 POP DUP1 DUP7 AND DUP5 OR SWAP3 POP POP POP SWAP4 SWAP3 POP POP POP JUMP JUMPDEST PUSH0 PUSH2 0x2725 PUSH2 0x2720 PUSH2 0x271B DUP5 PUSH2 0x19E2 JUMP JUMPDEST PUSH2 0x230D JUMP JUMPDEST PUSH2 0x19E2 JUMP JUMPDEST SWAP1 POP SWAP2 SWAP1 POP JUMP JUMPDEST PUSH0 DUP2 SWAP1 POP SWAP2 SWAP1 POP JUMP JUMPDEST PUSH2 0x273E DUP4 PUSH2 0x270B JUMP JUMPDEST PUSH2 0x2752 PUSH2 0x274A DUP3 PUSH2 0x272C JUMP JUMPDEST DUP5 DUP5 SLOAD PUSH2 0x26BA JUMP JUMPDEST DUP3 SSTORE POP POP POP POP JUMP JUMPDEST PUSH0 PUSH0 SWAP1 POP SWAP1 JUMP JUMPDEST PUSH2 0x2769 PUSH2 0x275A JUMP JUMPDEST PUSH2 0x2774 DUP2 DUP5 DUP5 PUSH2 0x2735 JUMP JUMPDEST POP POP POP JUMP JUMPDEST JUMPDEST DUP2 DUP2 LT ISZERO PUSH2 0x2797 JUMPI PUSH2 0x278C PUSH0 DUP3 PUSH2 0x2761 JUMP JUMPDEST PUSH1 0x1 DUP2 ADD SWAP1 POP PUSH2 0x277A JUMP JUMPDEST POP POP JUMP JUMPDEST PUSH1 0x1F DUP3 GT ISZERO PUSH2 0x27DC JUMPI PUSH2 0x27AD DUP2 PUSH2 0x268D JUMP JUMPDEST PUSH2 0x27B6 DUP5 PUSH2 0x269F JUMP JUMPDEST DUP2 ADD PUSH1 0x20 DUP6 LT ISZERO PUSH2 0x27C5 JUMPI DUP2 SWAP1 POP JUMPDEST PUSH2 0x27D9 PUSH2 0x27D1 DUP6 PUSH2 0x269F JUMP JUMPDEST DUP4 ADD DUP3 PUSH2 0x2779 JUMP JUMPDEST POP POP JUMPDEST POP POP POP JUMP JUMPDEST PUSH0 DUP3 DUP3 SHR SWAP1 POP SWAP3 SWAP2 POP POP JUMP JUMPDEST PUSH0 PUSH2 0x27FC PUSH0 NOT DUP5 PUSH1 0x8 MUL PUSH2 0x27E1 JUMP JUMPDEST NOT DUP1 DUP4 AND SWAP2 POP POP SWAP3 SWAP2 POP POP JUMP JUMPDEST PUSH0 PUSH2 0x2814 DUP4 DUP4 PUSH2 0x27ED JUMP JUMPDEST SWAP2 POP DUP3 PUSH1 0x2 MUL DUP3 OR SWAP1 POP SWAP3 SWAP2 POP POP JUMP JUMPDEST PUSH2 0x282D DUP3 PUSH2 0x1A4F JUMP JUMPDEST PUSH8 0xFFFFFFFFFFFFFFFF DUP2 GT ISZERO PUSH2 0x2846 JUMPI PUSH2 0x2845 PUSH2 0x1DD1 JUMP JUMPDEST JUMPDEST PUSH2 0x2850 DUP3 SLOAD PUSH2 0x2012 JUMP JUMPDEST PUSH2 0x285B DUP3 DUP3 DUP6 PUSH2 0x279B JUMP JUMPDEST PUSH0 PUSH1 0x20 SWAP1 POP PUSH1 0x1F DUP4 GT PUSH1 0x1 DUP2 EQ PUSH2 0x288C JUMPI PUSH0 DUP5 ISZERO PUSH2 0x287A JUMPI DUP3 DUP8 ADD MLOAD SWAP1 POP JUMPDEST PUSH2 0x2884 DUP6 DUP3 PUSH2 0x2809 JUMP JUMPDEST DUP7 SSTORE POP PUSH2 0x28EB JUMP JUMPDEST PUSH1 0x1F NOT DUP5 AND PUSH2 0x289A DUP7 PUSH2 0x268D JUMP JUMPDEST PUSH0 JUMPDEST DUP3 DUP2 LT ISZERO PUSH2 0x28C1 JUMPI DUP5 DUP10 ADD MLOAD DUP3 SSTORE PUSH1 0x1 DUP3 ADD SWAP2 POP PUSH1 0x20 DUP6 ADD SWAP5 POP PUSH1 0x20 DUP2 ADD SWAP1 POP PUSH2 0x289C JUMP JUMPDEST DUP7 DUP4 LT ISZERO PUSH2 0x28DE JUMPI DUP5 DUP10 ADD MLOAD PUSH2 0x28DA PUSH1 0x1F DUP10 AND DUP3 PUSH2 0x27ED JUMP JUMPDEST DUP4 SSTORE POP JUMPDEST PUSH1 0x1 PUSH1 0x2 DUP9 MUL ADD DUP9 SSTORE POP POP POP JUMPDEST POP POP POP POP POP POP JUMP JUMPDEST PUSH0 PUSH1 0x60 DUP3 ADD SWAP1 POP DUP2 DUP2 SUB PUSH0 DUP4 ADD MSTORE PUSH2 0x290B DUP2 DUP7 PUSH2 0x1C24 JUMP JUMPDEST SWAP1 POP PUSH2 0x291A PUSH1 0x20 DUP4 ADD DUP6 PUSH2 0x1BEC JUMP JUMPDEST PUSH2 0x2927 PUSH1 0x40 DUP4 ADD DUP5 PUSH2 0x1C6B JUMP JUMPDEST SWAP5 SWAP4 POP POP POP POP JUMP JUMPDEST PUSH32 0x5065746974696F6E206973206E6F742061637469766500000000000000000000 PUSH0 DUP3 ADD MSTORE POP JUMP JUMPDEST PUSH0 PUSH2 0x2963 PUSH1 0x16 DUP4 PUSH2 0x1C14 JUMP JUMPDEST SWAP2 POP PUSH2 0x296E DUP3 PUSH2 0x292F JUMP JUMPDEST PUSH1 0x20 DUP3 ADD SWAP1 POP SWAP2 SWAP1 POP JUMP JUMPDEST PUSH0 PUSH1 0x20 DUP3 ADD SWAP1 POP DUP2 DUP2 SUB PUSH0 DUP4 ADD MSTORE PUSH2 0x2990 DUP2 PUSH2 0x2957 JUMP JUMPDEST SWAP1 POP SWAP2 SWAP1 POP JUMP JUMPDEST PUSH32 0x5065746974696F6E2068617320656E6465640000000000000000000000000000 PUSH0 DUP3 ADD MSTORE POP JUMP JUMPDEST PUSH0 PUSH2 0x29CB PUSH1 0x12 DUP4 PUSH2 0x1C14 JUMP JUMPDEST SWAP2 POP PUSH2 0x29D6 DUP3 PUSH2 0x2997 JUMP JUMPDEST PUSH1 0x20 DUP3 ADD SWAP1 POP SWAP2 SWAP1 POP JUMP JUMPDEST PUSH0 PUSH1 0x20 DUP3 ADD SWAP1 POP DUP2 DUP2 SUB PUSH0 DUP4 ADD MSTORE PUSH2 0x29F8 DUP2 PUSH2 0x29BF JUMP JUMPDEST SWAP1 POP SWAP2 SWAP1 POP JUMP JUMPDEST PUSH32 0x416C7265616479207369676E6564000000000000000000000000000000000000 PUSH0 DUP3 ADD MSTORE POP JUMP JUMPDEST PUSH0 PUSH2 0x2A33 PUSH1 0xE DUP4 PUSH2 0x1C14 JUMP JUMPDEST SWAP2 POP PUSH2 0x2A3E DUP3 PUSH2 0x29FF JUMP JUMPDEST PUSH1 0x20 DUP3 ADD SWAP1 POP SWAP2 SWAP1 POP JUMP JUMPDEST PUSH0 PUSH1 0x20 DUP3 ADD SWAP1 POP DUP2 DUP2 SUB PUSH0 DUP4 ADD MSTORE PUSH2 0x2A60 DUP2 PUSH2 0x2A27 JUMP JUMPDEST SWAP1 POP SWAP2 SWAP1 POP JUMP JUMPDEST PUSH32 0x4E6F7420617574686F72697A6564000000000000000000000000000000000000 PUSH0 DUP3 ADD MSTORE POP JUMP JUMPDEST PUSH0 PUSH2 0x2A9B PUSH1 0xE DUP4 PUSH2 0x1C14 JUMP JUMPDEST SWAP2 POP PUSH2 0x2AA6 DUP3 PUSH2 0x2A67 JUMP JUMPDEST PUSH1 0x20 DUP3 ADD SWAP1 POP SWAP2 SWAP1 POP JUMP JUMPDEST PUSH0 PUSH1 0x20 DUP3 ADD SWAP1 POP DUP2 DUP2 SUB PUSH0 DUP4 ADD MSTORE PUSH2 0x2AC8 DUP2 PUSH2 0x2A8F JUMP JUMPDEST SWAP1 POP SWAP2 SWAP1 POP JUMP JUMPDEST PUSH32 0x416C726561647920636C6F736564000000000000000000000000000000000000 PUSH0 DUP3 ADD MSTORE POP JUMP JUMPDEST PUSH0 PUSH2 0x2B03 PUSH1 0xE DUP4 PUSH2 0x1C14 JUMP JUMPDEST SWAP2 POP PUSH2 0x2B0E DUP3 PUSH2 0x2ACF JUMP JUMPDEST PUSH1 0x20 DUP3 ADD SWAP1 POP SWAP2 SWAP1 POP JUMP JUMPDEST PUSH0 PUSH1 0x20 DUP3 ADD SWAP1 POP DUP2 DUP2 SUB PUSH0 DUP4 ADD MSTORE PUSH2 0x2B30 DUP2 PUSH2 0x2AF7 JUMP JUMPDEST SWAP1 POP SWAP2 SWAP1 POP JUMP INVALID LOG2 PUSH5 0x6970667358 0x22 SLT KECCAK256 COINBASE SWAP4 0xB5 0xF6 SELFBALANCE 0xDD 0xDA 0xCD 0xAC STOP SWAP8 SWAP13 PUSH7 0x939B974B75EF2D 0xBB 0xC1 EXTCALL EXP 0xDE MSIZE SWAP5 0xB2 JUMPI JUMPF 0xF5A0 PUSH5 0x736F6C6343 STOP ADDMOD 0x1E STOP CALLER "
				},
				"gasEstimates": {
					"creation": {
						"codeDepositCost": "2223400",
						"executionCost": "infinite",
						"totalCost": "infinite"
					},
					"external": {
						"campaignFee()": "2470",
						"campaignToken()": "2597",
						"closePetition(uint256)": "34688",
						"createPetition(string,string,uint256)": "infinite",
						"daoMembership()": "2531",
						"getPetition(uint256)": "infinite",
						"getTotalPetitions()": "2543",
						"getUserPaidPetitionCount(address)": "2874",
						"hasSigned(uint256,address)": "3137",
						"hasUserSigned(uint256,address)": "3160",
						"owner()": "2581",
						"paidPetitionCount(address)": "2934",
						"petitionCounter()": "2471",
						"petitions(uint256)": "infinite",
						"renounceOwnership()": "infinite",
						"rewardThreshold()": "2537",
						"setCampaignFee(uint256)": "infinite",
						"setRewardThreshold(uint256)": "infinite",
						"signPetition(uint256)": "infinite",
						"transferOwnership(address)": "infinite",
						"withdraw()": "infinite"
					},
					"internal": {
						"isMember(address)": "infinite"
					}
				},
				"methodIdentifiers": {
					"campaignFee()": "8a5be9b7",
					"campaignToken()": "9089c4a5",
					"closePetition(uint256)": "f345a997",
					"createPetition(string,string,uint256)": "990627ec",
					"daoMembership()": "78e18d35",
					"getPetition(uint256)": "0c90ce42",
					"getTotalPetitions()": "72fa1301",
					"getUserPaidPetitionCount(address)": "6b4acbe0",
					"hasSigned(uint256,address)": "709df8d9",
					"hasUserSigned(uint256,address)": "eb74d835",
					"owner()": "8da5cb5b",
					"paidPetitionCount(address)": "f99972ef",
					"petitionCounter()": "2fb33528",
					"petitions(uint256)": "3ad50ded",
					"renounceOwnership()": "715018a6",
					"rewardThreshold()": "5ea4d29c",
					"setCampaignFee(uint256)": "eeccd720",
					"setRewardThreshold(uint256)": "68bdd33a",
					"signPetition(uint256)": "dcad0180",
					"transferOwnership(address)": "f2fde38b",
					"withdraw()": "3ccfd60b"
				}
			},
			"storageLayout": {
				"storage": [
					{
						"astId": 8,
						"contract": "contracts/PetitionPlatform.sol:PetitionPlatform",
						"label": "_owner",
						"offset": 0,
						"slot": "0",
						"type": "t_address"
					},
					{
						"astId": 383,
						"contract": "contracts/PetitionPlatform.sol:PetitionPlatform",
						"label": "_status",
						"offset": 0,
						"slot": "1",
						"type": "t_uint256"
					},
					{
						"astId": 483,
						"contract": "contracts/PetitionPlatform.sol:PetitionPlatform",
						"label": "daoMembership",
						"offset": 0,
						"slot": "2",
						"type": "t_address"
					},
					{
						"astId": 485,
						"contract": "contracts/PetitionPlatform.sol:PetitionPlatform",
						"label": "campaignToken",
						"offset": 0,
						"slot": "3",
						"type": "t_address"
					},
					{
						"astId": 487,
						"contract": "contracts/PetitionPlatform.sol:PetitionPlatform",
						"label": "petitionCounter",
						"offset": 0,
						"slot": "4",
						"type": "t_uint256"
					},
					{
						"astId": 490,
						"contract": "contracts/PetitionPlatform.sol:PetitionPlatform",
						"label": "campaignFee",
						"offset": 0,
						"slot": "5",
						"type": "t_uint256"
					},
					{
						"astId": 493,
						"contract": "contracts/PetitionPlatform.sol:PetitionPlatform",
						"label": "rewardThreshold",
						"offset": 0,
						"slot": "6",
						"type": "t_uint256"
					},
					{
						"astId": 498,
						"contract": "contracts/PetitionPlatform.sol:PetitionPlatform",
						"label": "petitions",
						"offset": 0,
						"slot": "7",
						"type": "t_mapping(t_uint256,t_struct(Petition)481_storage)"
					},
					{
						"astId": 502,
						"contract": "contracts/PetitionPlatform.sol:PetitionPlatform",
						"label": "paidPetitionCount",
						"offset": 0,
						"slot": "8",
						"type": "t_mapping(t_address,t_uint256)"
					},
					{
						"astId": 508,
						"contract": "contracts/PetitionPlatform.sol:PetitionPlatform",
						"label": "hasSigned",
						"offset": 0,
						"slot": "9",
						"type": "t_mapping(t_uint256,t_mapping(t_address,t_bool))"
					}
				],
				"types": {
					"t_address": {
						"encoding": "inplace",
						"label": "address",
						"numberOfBytes": "20"
					},
					"t_bool": {
						"encoding": "inplace",
						"label": "bool",
						"numberOfBytes": "1"
					},
					"t_mapping(t_address,t_bool)": {
						"encoding": "mapping",
						"key": "t_address",
						"label": "mapping(address => bool)",
						"numberOfBytes": "32",
						"value": "t_bool"
					},
					"t_mapping(t_address,t_uint256)": {
						"encoding": "mapping",
						"key": "t_address",
						"label": "mapping(address => uint256)",
						"numberOfBytes": "32",
						"value": "t_uint256"
					},
					"t_mapping(t_uint256,t_mapping(t_address,t_bool))": {
						"encoding": "mapping",
						"key": "t_uint256",
						"label": "mapping(uint256 => mapping(address => bool))",
						"numberOfBytes": "32",
						"value": "t_mapping(t_address,t_bool)"
					},
					"t_mapping(t_uint256,t_struct(Petition)481_storage)": {
						"encoding": "mapping",
						"key": "t_uint256",
						"label": "mapping(uint256 => struct PetitionPlatform.Petition)",
						"numberOfBytes": "32",
						"value": "t_struct(Petition)481_storage"
					},
					"t_string_storage": {
						"encoding": "bytes",
						"label": "string",
						"numberOfBytes": "32"
					},
					"t_struct(Petition)481_storage": {
						"encoding": "inplace",
						"label": "struct PetitionPlatform.Petition",
						"members": [
							{
								"astId": 466,
								"contract": "contracts/PetitionPlatform.sol:PetitionPlatform",
								"label": "id",
								"offset": 0,
								"slot": "0",
								"type": "t_uint256"
							},
							{
								"astId": 468,
								"contract": "contracts/PetitionPlatform.sol:PetitionPlatform",
								"label": "title",
								"offset": 0,
								"slot": "1",
								"type": "t_string_storage"
							},
							{
								"astId": 470,
								"contract": "contracts/PetitionPlatform.sol:PetitionPlatform",
								"label": "description",
								"offset": 0,
								"slot": "2",
								"type": "t_string_storage"
							},
							{
								"astId": 472,
								"contract": "contracts/PetitionPlatform.sol:PetitionPlatform",
								"label": "creator",
								"offset": 0,
								"slot": "3",
								"type": "t_address"
							},
							{
								"astId": 474,
								"contract": "contracts/PetitionPlatform.sol:PetitionPlatform",
								"label": "createdAt",
								"offset": 0,
								"slot": "4",
								"type": "t_uint256"
							},
							{
								"astId": 476,
								"contract": "contracts/PetitionPlatform.sol:PetitionPlatform",
								"label": "deadline",
								"offset": 0,
								"slot": "5",
								"type": "t_uint256"
							},
							{
								"astId": 478,
								"contract": "contracts/PetitionPlatform.sol:PetitionPlatform",
								"label": "signatureCount",
								"offset": 0,
								"slot": "6",
								"type": "t_uint256"
							},
							{
								"astId": 480,
								"contract": "contracts/PetitionPlatform.sol:PetitionPlatform",
								"label": "isActive",
								"offset": 0,
								"slot": "7",
								"type": "t_bool"
							}
						],
						"numberOfBytes": "256"
					},
					"t_uint256": {
						"encoding": "inplace",
						"label": "uint256",
						"numberOfBytes": "32"
					}
				}
			},
			"userdoc": {
				"kind": "user",
				"methods": {},
				"version": 1
			}
		}
	}
}