{
  "_format": "hh-sol-artifact-1",
  "contractName": "SoulboundMember",
  "sourceName": "contracts/SoulboundMember.sol",
  "abi": [
    {
      "inputs": [
        {
          "internalType": "address",
          "name": "_campaignToken",
          "type": "address"
        }
      ],
      "stateMutability": "nonpayable",
      "type": "constructor"
    },
    {
      "inputs": [
        {
          "internalType": "address",
          "name": "sender",
          "type": "address"
        },
        {
          "internalType": "uint256",
          "name": "tokenId",
          "type": "uint256"
        },
        {
          "internalType": "address",
          "name": "owner",
          "type": "address"
        }
      ],
      "name": "ERC721IncorrectOwner",
      "type": "error"
    },
    {
      "inputs": [
        {
          "internalType": "address",
          "name": "operator",
          "type": "address"
        },
        {
          "internalType": "uint256",
          "name": "tokenId",
          "type": "uint256"
        }
      ],
      "name": "ERC721InsufficientApproval",
      "type": "error"
    },
    {
      "inputs": [
        {
          "internalType": "address",
          "name": "approver",
          "type": "address"
        }
      ],
      "name": "ERC721InvalidApprover",
      "type": "error"
    },
    {
      "inputs": [
        {
          "internalType": "address",
          "name": "operator",
          "type": "address"
        }
      ],
      "name": "ERC721InvalidOperator",
      "type": "error"
    },
    {
      "inputs": [
        {
          "internalType": "address",
          "name": "owner",
          "type": "address"
        }
      ],
      "name": "ERC721InvalidOwner",
      "type": "error"
    },
    {
      "inputs": [
        {
          "internalType": "address",
          "name": "receiver",
          "type": "address"
        }
      ],
      "name": "ERC721InvalidReceiver",
      "type": "error"
    },
    {
      "inputs": [
        {
          "internalType": "address",
          "name": "sender",
          "type": "address"
        }
      ],
      "name": "ERC721InvalidSender",
      "type": "error"
    },
    {
      "inputs": [
        {
          "internalType": "uint256",
          "name": "tokenId",
          "type": "uint256"
        }
      ],
      "name": "ERC721NonexistentToken",
      "type": "error"
    },
    {
      "inputs": [
        {
          "internalType": "address",
          "name": "owner",
          "type": "address"
        }
      ],
      "name": "OwnableInvalidOwner",
      "type": "error"
    },
    {
      "inputs": [
        {
          "internalType": "address",
          "name": "account",
          "type": "address"
        }
      ],
      "name": "OwnableUnauthorizedAccount",
      "type": "error"
    },
    {
      "inputs": [],
      "name": "ReentrancyGuardReentrantCall",
      "type": "error"
    },
    {
      "anonymous": false,
      "inputs": [
        {
          "indexed": true,
          "internalType": "address",
          "name": "owner",
          "type": "address"
        },
        {
          "indexed": true,
          "internalType": "address",
          "name": "approved",
          "type": "address"
        },
        {
          "indexed": true,
          "internalType": "uint256",
          "name": "tokenId",
          "type": "uint256"
        }
      ],
      "name": "Approval",
      "type": "event"
    },
    {
      "anonymous": false,
      "inputs": [
        {
          "indexed": true,
          "internalType": "address",
          "name": "owner",
          "type": "address"
        },
        {
          "indexed": true,
          "internalType": "address",
          "name": "operator",
          "type": "address"
        },
        {
          "indexed": false,
          "internalType": "bool",
          "name": "approved",
          "type": "bool"
        }
      ],
      "name": "ApprovalForAll",
      "type": "event"
    },
    {
      "anonymous": false,
      "inputs": [
        {
          "indexed": true,
          "internalType": "address",
          "name": "user",
          "type": "address"
        },
        {
          "indexed": false,
          "internalType": "uint256",
          "name": "tokenId",
          "type": "uint256"
        }
      ],
      "name": "MembershipMinted",
      "type": "event"
    },
    {
      "anonymous": false,
      "inputs": [
        {
          "indexed": true,
          "internalType": "address",
          "name": "previousOwner",
          "type": "address"
        },
        {
          "indexed": true,
          "internalType": "address",
          "name": "newOwner",
          "type": "address"
        }
      ],
      "name": "OwnershipTransferred",
      "type": "event"
    },
    {
      "anonymous": false,
      "inputs": [
        {
          "indexed": true,
          "internalType": "address",
          "name": "newContract",
          "type": "address"
        }
      ],
      "name": "PetitionContractUpdated",
      "type": "event"
    },
    {
      "anonymous": false,
      "inputs": [
        {
          "indexed": true,
          "internalType": "address",
          "name": "from",
          "type": "address"
        },
        {
          "indexed": true,
          "internalType": "address",
          "name": "to",
          "type": "address"
        },
        {
          "indexed": true,
          "internalType": "uint256",
          "name": "tokenId",
          "type": "uint256"
        }
      ],
      "name": "Transfer",
      "type": "event"
    },
    {
      "inputs": [
        {
          "internalType": "address",
          "name": "to",
          "type": "address"
        },
        {
          "internalType": "uint256",
          "name": "tokenId",
          "type": "uint256"
        }
      ],
      "name": "approve",
      "outputs": [],
      "stateMutability": "nonpayable",
      "type": "function"
    },
    {
      "inputs": [
        {
          "internalType": "address",
          "name": "owner",
          "type": "address"
        }
      ],
      "name": "balanceOf",
      "outputs": [
        {
          "internalType": "uint256",
          "name": "",
          "type": "uint256"
        }
      ],
      "stateMutability": "view",
      "type": "function"
    },
    {
      "inputs": [],
      "name": "campaignToken",
      "outputs": [
        {
          "internalType": "contract ICampaignToken",
          "name": "",
          "type": "address"
        }
      ],
      "stateMutability": "view",
      "type": "function"
    },
    {
      "inputs": [
        {
          "internalType": "uint256",
          "name": "tokenId",
          "type": "uint256"
        }
      ],
      "name": "getApproved",
      "outputs": [
        {
          "internalType": "address",
          "name": "",
          "type": "address"
        }
      ],
      "stateMutability": "view",
      "type": "function"
    },
    {
      "inputs": [
        {
          "internalType": "address",
          "name": "",
          "type": "address"
        }
      ],
      "name": "hasMinted",
      "outputs": [
        {
          "internalType": "bool",
          "name": "",
          "type": "bool"
        }
      ],
      "stateMutability": "view",
      "type": "function"
    },
    {
      "inputs": [
        {
          "internalType": "address",
          "name": "owner",
          "type": "address"
        },
        {
          "internalType": "address",
          "name": "operator",
          "type": "address"
        }
      ],
      "name": "isApprovedForAll",
      "outputs": [
        {
          "internalType": "bool",
          "name": "",
          "type": "bool"
        }
      ],
      "stateMutability": "view",
      "type": "function"
    },
    {
      "inputs": [
        {
          "internalType": "address",
          "name": "user",
          "type": "address"
        }
      ],
      "name": "isMember",
      "outputs": [
        {
          "internalType": "bool",
          "name": "",
          "type": "bool"
        }
      ],
      "stateMutability": "view",
      "type": "function"
    },
    {
      "inputs": [],
      "name": "mintMembership",
      "outputs": [],
      "stateMutability": "nonpayable",
      "type": "function"
    },
    {
      "inputs": [],
      "name": "name",
      "outputs": [
        {
          "internalType": "string",
          "name": "",
          "type": "string"
        }
      ],
      "stateMutability": "view",
      "type": "function"
    },
    {
      "inputs": [],
      "name": "owner",
      "outputs": [
        {
          "internalType": "address",
          "name": "",
          "type": "address"
        }
      ],
      "stateMutability": "view",
      "type": "function"
    },
    {
      "inputs": [
        {
          "internalType": "uint256",
          "name": "tokenId",
          "type": "uint256"
        }
      ],
      "name": "ownerOf",
      "outputs": [
        {
          "internalType": "address",
          "name": "",
          "type": "address"
        }
      ],
      "stateMutability": "view",
      "type": "function"
    },
    {
      "inputs": [],
      "name": "petitionContract",
      "outputs": [
        {
          "internalType": "address",
          "name": "",
          "type": "address"
        }
      ],
      "stateMutability": "view",
      "type": "function"
    },
    {
      "inputs": [],
      "name": "renounceOwnership",
      "outputs": [],
      "stateMutability": "nonpayable",
      "type": "function"
    },
    {
      "inputs": [
        {
          "internalType": "address",
          "name": "from",
          "type": "address"
        },
        {
          "internalType": "address",
          "name": "to",
          "type": "address"
        },
        {
          "internalType": "uint256",
          "name": "tokenId",
          "type": "uint256"
        }
      ],
      "name": "safeTransferFrom",
      "outputs": [],
      "stateMutability": "nonpayable",
      "type": "function"
    },
    {
      "inputs": [
        {
          "internalType": "address",
          "name": "from",
          "type": "address"
        },
        {
          "internalType": "address",
          "name": "to",
          "type": "address"
        },
        {
          "internalType": "uint256",
          "name": "tokenId",
          "type": "uint256"
        },
        {
          "internalType": "bytes",
          "name": "data",
          "type": "bytes"
        }
      ],
      "name": "safeTransferFrom",
      "outputs": [],
      "stateMutability": "nonpayable",
      "type": "function"
    },
    {
      "inputs": [
        {
          "internalType": "address",
          "name": "operator",
          "type": "address"
        },
        {
          "internalType": "bool",
          "name": "approved",
          "type": "bool"
        }
      ],
      "name": "setApprovalForAll",
      "outputs": [],
      "stateMutability": "nonpayable",
      "type": "function"
    },
    {
      "inputs": [
        {
          "internalType": "address",
          "name": "_petitionContract",
          "type": "address"
        }
      ],
      "name": "setPetitionContract",
      "outputs": [],
      "stateMutability": "nonpayable",
      "type": "function"
    },
    {
      "inputs": [
        {
          "internalType": "bytes4",
          "name": "interfaceId",
          "type": "bytes4"
        }
      ],
      "name": "supportsInterface",
      "outputs": [
        {
          "internalType": "bool",
          "name": "",
          "type": "bool"
        }
      ],
      "stateMutability": "view",
      "type": "function"
    },
    {
      "inputs": [],
      "name": "symbol",
      "outputs": [
        {
          "internalType": "string",
          "name": "",
          "type": "string"
        }
      ],
      "stateMutability": "view",
      "type": "function"
    },
    {
      "inputs": [
        {
          "internalType": "uint256",
          "name": "tokenId",
          "type": "uint256"
        }
      ],
      "name": "tokenURI",
      "outputs": [
        {
          "internalType": "string",
          "name": "",
          "type": "string"
        }
      ],
      "stateMutability": "view",
      "type": "function"
    },
    {
      "inputs": [],
      "name": "totalSupply",
      "outputs": [
        {
          "internalType": "uint256",
          "name": "",
          "type": "uint256"
        }
      ],
      "stateMutability": "view",
      "type": "function"
    },
    {
      "inputs": [
        {
          "internalType": "address",
          "name": "from",
          "type": "address"
        },
        {
          "internalType": "address",
          "name": "to",
          "type": "address"
        },
        {
          "internalType": "uint256",
          "name": "tokenId",
          "type": "uint256"
        }
      ],
      "name": "transferFrom",
      "outputs": [],
      "stateMutability": "nonpayable",
      "type": "function"
    },
    {
      "inputs": [
        {
          "internalType": "address",
          "name": "newOwner",
          "type": "address"
        }
      ],
      "name": "transferOwnership",
      "outputs": [],
      "stateMutability": "nonpayable",
      "type": "function"
    }
  ],
  "bytecode": "0x608060405234610408576116ef6020813803918261001c8161040d565b93849283398101031261040857516001600160a01b0381169081900361040857610046604061040d565b90601082526f29b7bab63137bab7321026b2b6b132b960811b602083015261006e604061040d565b60048152635342544d60e01b602082015282519091906001600160401b03811161031357600054600181811c911680156103fe575b60208210146102f357601f811161039a575b506020601f82116001146103345781929394600092610329575b50508160011b916000199060031b1c1916176000555b81516001600160401b03811161031357600154600181811c91168015610309575b60208210146102f357601f811161028e575b50602092601f8211600114610229579281929360009261021e575b50508160011b916000199060031b1c1916176001555b33156102085760068054336001600160a01b03198216811790925560405191906001600160a01b03167f8be0079c531659141344cd1fd0a4f28419497f9722a3daafe3b4186f6b6457e0600080a3600160075581156101c65750600a80546001600160a01b0319169190911790556040516112bc90816104338239f35b62461bcd60e51b815260206004820152601560248201527f496e76616c696420746f6b656e206164647265737300000000000000000000006044820152606490fd5b631e4fbdf760e01b600052600060045260246000fd5b015190503880610133565b601f198216936001600052806000209160005b868110610276575083600195961061025d575b505050811b01600155610149565b015160001960f88460031b161c1916905538808061024f565b9192602060018192868501518155019401920161023c565b60016000527fb10e2d527612073b26eecdfd717e6a320cf44b4afac2b0732d9fcbe2b7fa0cf6601f830160051c810191602084106102e9575b601f0160051c01905b8181106102dd5750610118565b600081556001016102d0565b90915081906102c7565b634e487b7160e01b600052602260045260246000fd5b90607f1690610106565b634e487b7160e01b600052604160045260246000fd5b0151905038806100cf565b601f1982169060008052806000209160005b81811061038257509583600195969710610369575b505050811b016000556100e5565b015160001960f88460031b161c1916905538808061035b565b9192602060018192868b015181550194019201610346565b600080527f290decd9548b62a8d60345a988386fc84ba6bc95484008f6362f93160ef3e563601f830160051c810191602084106103f4575b601f0160051c01905b8181106103e857506100b5565b600081556001016103db565b90915081906103d2565b90607f16906100a3565b600080fd5b6040519190601f01601f191682016001600160401b038111838210176103135760405256fe608080604052600436101561001357600080fd5b600090813560e01c90816301ffc9a714610d275750806306fdde0314610c6c578063081812fc14610c2f578063095ea7b314610b4757806318160ddd14610b2957806323b872dd14610b115780632aa9856f14610a7057806338e21cce14610a3157806342842e0e14610a01578063489a5dff146109d85780636352211e146109a757806370a0823114610980578063712319081461058c578063715018a61461052f5780638da5cb5b146105065780639089c4a5146104dd57806395d89b41146103d0578063a22cb4651461032c578063a230c524146102fe578063b88d4fde1461025f578063c87b56dd14610204578063e985e9c5146101aa5763f2fde38b1461011e57600080fd5b346101a75760203660031901126101a757610137610dd5565b61013f611120565b6001600160a01b0316801561019357600680546001600160a01b0319811683179091556001600160a01b03167f8be0079c531659141344cd1fd0a4f28419497f9722a3daafe3b4186f6b6457e0600080a380f35b631e4fbdf760e01b82526004829052602482fd5b80fd5b50346101a75760403660031901126101a75760406101c6610dd5565b916101cf610df0565b9260018060a01b031681526005602052209060018060a01b0316600052602052602060ff604060002054166040519015158152f35b50346101a75760203660031901126101a7576102216004356110e9565b50602090806040516102338482610e40565b5250604051906102438183610e40565b6000825261025b604051928284938452830190610d94565b0390f35b50346101a75760803660031901126101a757610279610dd5565b610281610df0565b6044356064359167ffffffffffffffff83116102fa57366023840112156102fa57826004013593856102b286610e78565b946102c06040519687610e40565b86865236602488830101116102f657866102f39760246020930183890137860101526102ed838383610e94565b33611149565b80f35b5080fd5b8480fd5b50346101a75760203660031901126101a757602061032261031d610dd5565b6110b3565b1515604051908152f35b50346101a75760403660031901126101a757610346610dd5565b602435908115158092036103cc576001600160a01b03169081156103b85733835260056020526040832082600052602052604060002060ff1981541660ff83161790556040519081527f17307eab39ab6107e8899845ad3d59bd9653f200f220920489ca2b5937696c3160203392a380f35b630b61174360e31b83526004829052602483fd5b8280fd5b50346101a757806003193601126101a7576040519080600154908160011c916001811680156104d3575b6020841081146104bf57838652908115610498575060011461043b575b61025b8461042781860382610e40565b604051918291602083526020830190610d94565b600181527fb10e2d527612073b26eecdfd717e6a320cf44b4afac2b0732d9fcbe2b7fa0cf6939250905b80821061047e5750909150810160200161042782610417565b919260018160209254838588010152019101909291610465565b60ff191660208087019190915292151560051b850190920192506104279150839050610417565b634e487b7160e01b83526022600452602483fd5b92607f16926103fa565b50346101a757806003193601126101a757600a546040516001600160a01b039091168152602090f35b50346101a757806003193601126101a7576006546040516001600160a01b039091168152602090f35b50346101a757806003193601126101a757610548611120565b600680546001600160a01b0319811690915581906001600160a01b03167f8be0079c531659141344cd1fd0a4f28419497f9722a3daafe3b4186f6b6457e08280a380f35b50346101a757806003193601126101a757600260075414610971576002600755338152600b60205260ff60408220541661093b5760085490600019821461092757600182016008556020916040516105e48482610e40565b8281523315610913578183526002845260408320546001600160a01b031615801561090c575b156108c7578183526002845260408320546001600160a01b03168015159081610893575b338086526003875260408087208054600101905585875260028852862080546001600160a01b031916821790558490827fddf252ad1be2c89b69c2b068fc378daa952ba7f163c4a11628f55a4df523b3ef8880a45061087f57333b610767575b50338252600b835260408220805460ff19166001179055600a549192909183906001600160a01b0316803b156102f65781906044604051809481936340c10f1960e01b8352336004840152670de0b6b3a764000060248401525af1801561075c57610728575b507fbab4562ae868d1765ed8452e98bba908a974596c4babc3ada5e90e05e3f433fb906040519283523392a2600160075580f35b92610755817fbab4562ae868d1765ed8452e98bba908a974596c4babc3ada5e90e05e3f433fb9395610e40565b92906106f4565b6040513d86823e3d90fd5b836107a09160405180938192630a85bd0160e11b8352336004840152876024840152866044840152608060648401526084830190610d94565b038186335af183918161083b575b506108055750503d156107fd573d916107c683610e78565b926107d46040519485610e40565b83523d828285013e5b825192836107f857633250574960e11b835233600452602483fd5b019050fd5b6060916107dd565b919290916001600160e01b03191663757a42ff60e11b016108285791903861068e565b633250574960e11b835233600452602483fd5b9091508481813d8311610878575b6108538183610e40565b8101031261087457516001600160e01b0319811681036108745790386107ae565b8380fd5b503d610849565b6339e3563760e11b83526004839052602483fd5b600084815260046020526040902080546001600160a01b03191690558085526003865260408520805460001901905561062e565b60405162461bcd60e51b815260048101859052601e60248201527f5342543a20546f6b656e206973206e6f6e2d7472616e7366657261626c6500006044820152606490fd5b508261060a565b633250574960e11b83526004839052602483fd5b634e487b7160e01b81526011600452602490fd5b60405162461bcd60e51b815260206004820152600e60248201526d105b1c9958591e481b5a5b9d195960921b6044820152606490fd5b633ee5aeb560e01b8152600490fd5b50346101a75760203660031901126101a757602061099f61031d610dd5565b604051908152f35b50346101a75760203660031901126101a75760206109c66004356110e9565b6040516001600160a01b039091168152f35b50346101a757806003193601126101a7576009546040516001600160a01b039091168152602090f35b50346101a7576102f3610a1336610e06565b9060405192610a23602085610e40565b8584526102ed838383610e94565b50346101a75760203660031901126101a75760209060ff906040906001600160a01b03610a5c610dd5565b168152600b84522054166040519015158152f35b50346101a75760203660031901126101a757610a8a610dd5565b610a92611120565b6001600160a01b03168015610ada57600980546001600160a01b031916821790557f96e3034f1c2ebd9b4032d59f8958cd43d6bf42e8740708f5277d4b42fbad079a8280a280f35b60405162461bcd60e51b815260206004820152600f60248201526e496e76616c6964206164647265737360881b6044820152606490fd5b50346101a7576102f3610b2336610e06565b91610e94565b50346101a757806003193601126101a7576020600854604051908152f35b50346101a75760403660031901126101a757610b61610dd5565b602435610b6d816110e9565b33151580610c1c575b80610bf1575b610bde5781906001600160a01b0384811691167f8c5be1e5ebec7d5bd14f71427d1e84f3dd0314c0f7b2291e5b200ac8c7c3b9258680a4825260046020526040822080546001600160a01b0319166001600160a01b0390921691909117905580f35b63a9fbf51f60e01b845233600452602484fd5b506001600160a01b038116845260056020908152604080862033875290915284205460ff1615610b7c565b506001600160a01b038116331415610b76565b50346101a75760203660031901126101a757602090600435610c50816110e9565b50815260048252604060018060a01b0391205416604051908152f35b50346101a757806003193601126101a75760405190808054908160011c91600181168015610d1d575b6020841081146104bf578386529081156104985750600114610cc15761025b8461042781860382610e40565b8080527f290decd9548b62a8d60345a988386fc84ba6bc95484008f6362f93160ef3e563939250905b808210610d035750909150810160200161042782610417565b919260018160209254838588010152019101909291610cea565b92607f1692610c95565b9050346102f65760203660031901126102f65760043563ffffffff60e01b81168091036103cc57602092506380ac58cd60e01b8114908115610d83575b8115610d72575b5015158152f35b6301ffc9a760e01b14905038610d6b565b635b5e139f60e01b81149150610d64565b919082519283825260005b848110610dc0575050826000602080949584010152601f8019910116010190565b80602080928401015182828601015201610d9f565b600435906001600160a01b0382168203610deb57565b600080fd5b602435906001600160a01b0382168203610deb57565b6060906003190112610deb576004356001600160a01b0381168103610deb57906024356001600160a01b0381168103610deb579060443590565b90601f8019910116810190811067ffffffffffffffff821117610e6257604052565b634e487b7160e01b600052604160045260246000fd5b67ffffffffffffffff8111610e6257601f01601f191660200190565b6001600160a01b039091169190821561109d576000828152600260205260408120549093906001600160a01b0316158015611096575b1561105157828452600260205260408420546001600160a01b031693839190859033151580610fb9575b507fddf252ad1be2c89b69c2b068fc378daa952ba7f163c4a11628f55a4df523b3ef9082610f84575b83815260036020526040812060018154019055848152600260205260408120846bffffffffffffffffffffffff60a01b82541617905580a46001600160a01b0316808303610f6a57505050565b6364283d7b60e01b60005260045260245260445260646000fd5b600085815260046020526040902080546001600160a01b03191690558281526003602052604081208054600019019055610f1d565b915091925080611002575b15610fd3579084849238610ef4565b839085610fec57602491637e27328960e01b8252600452fd5b60449163177e802f60e01b825233600452602452fd5b503385148015611030575b80610fc45750838152600460205260408120546001600160a01b03163314610fc4565b5084815260056020908152604080832033845290915281205460ff1661100d565b60405162461bcd60e51b815260206004820152601e60248201527f5342543a20546f6b656e206973206e6f6e2d7472616e7366657261626c6500006044820152606490fd5b5083610eca565b633250574960e11b600052600060045260246000fd5b6001600160a01b031680156110d357600052600360205260406000205490565b6322718ad960e21b600052600060045260246000fd5b6000818152600260205260409020546001600160a01b031690811561110c575090565b637e27328960e01b60005260045260246000fd5b6006546001600160a01b0316330361113457565b63118cdaa760e01b6000523360045260246000fd5b823b611157575b5050505050565b604051630a85bd0160e11b81526001600160a01b0391821660048201529181166024830152604482019390935260806064820152911691602090829081906111a3906084830190610d94565b03816000865af18091600091611243575b509061120d57503d15611206573d6111cb81610e78565b906111d96040519283610e40565b81523d6000602083013e5b805190816112015782633250574960e11b60005260045260246000fd5b602001fd5b60606111e4565b6001600160e01b03191663757a42ff60e11b0161122f57503880808080611150565b633250574960e11b60005260045260246000fd5b6020813d60201161127e575b8161125c60209383610e40565b810103126102f65751906001600160e01b0319821682036101a75750386111b4565b3d915061124f56fea2646970667358221220e0a6e94f1980b3d2363a570f4cbc538781299b9be29b02333f98b0604be17a7664736f6c634300081e0033",
  "linkReferences": {},
  "deployedLinkReferences": {}
}