{
  "_format": "hh-sol-artifact-1",
  "contractName": "CampaignToken",
  "sourceName": "contracts/CampaignToken.sol",
  "abi": [
    {
      "inputs": [],
      "stateMutability": "nonpayable",
      "type": "constructor"
    },
    {
      "inputs": [
        {
          "internalType": "address",
          "name": "spender",
          "type": "address"
        },
        {
          "internalType": "uint256",
          "name": "allowance",
          "type": "uint256"
        },
        {
          "internalType": "uint256",
          "name": "needed",
          "type": "uint256"
        }
      ],
      "name": "ERC20InsufficientAllowance",
      "type": "error"
    },
    {
      "inputs": [
        {
          "internalType": "address",
          "name": "sender",
          "type": "address"
        },
        {
          "internalType": "uint256",
          "name": "balance",
          "type": "uint256"
        },
        {
          "internalType": "uint256",
          "name": "needed",
          "type": "uint256"
        }
      ],
      "name": "ERC20InsufficientBalance",
      "type": "error"
    },
    {
      "inputs": [
        {
          "internalType": "address",
          "name": "approver",
          "type": "address"
        }
      ],
      "name": "ERC20InvalidApprover",
      "type": "error"
    },
    {
      "inputs": [
        {
          "internalType": "address",
          "name": "receiver",
          "type": "address"
        }
      ],
      "name": "ERC20InvalidReceiver",
      "type": "error"
    },
    {
      "inputs": [
        {
          "internalType": "address",
          "name": "sender",
          "type": "address"
        }
      ],
      "name": "ERC20InvalidSender",
      "type": "error"
    },
    {
      "inputs": [
        {
          "internalType": "address",
          "name": "spender",
          "type": "address"
        }
      ],
      "name": "ERC20InvalidSpender",
      "type": "error"
    },
    {
      "inputs": [
        {
          "internalType": "address",
          "name": "owner",
          "type": "address"
        }
      ],
      "name": "OwnableInvalidOwner",
      "type": "error"
    },
    {
      "inputs": [
        {
          "internalType": "address",
          "name": "account",
          "type": "address"
        }
      ],
      "name": "OwnableUnauthorizedAccount",
      "type": "error"
    },
    {
      "anonymous": false,
      "inputs": [
        {
          "indexed": true,
          "internalType": "address",
          "name": "owner",
          "type": "address"
        },
        {
          "indexed": true,
          "internalType": "address",
          "name": "spender",
          "type": "address"
        },
        {
          "indexed": false,
          "internalType": "uint256",
          "name": "value",
          "type": "uint256"
        }
      ],
      "name": "Approval",
      "type": "event"
    },
    {
      "anonymous": false,
      "inputs": [
        {
          "indexed": true,
          "internalType": "address",
          "name": "previousOwner",
          "type": "address"
        },
        {
          "indexed": true,
          "internalType": "address",
          "name": "newOwner",
          "type": "address"
        }
      ],
      "name": "OwnershipTransferred",
      "type": "event"
    },
    {
      "anonymous": false,
      "inputs": [
        {
          "indexed": true,
          "internalType": "address",
          "name": "newContract",
          "type": "address"
        }
      ],
      "name": "PetitionContractUpdated",
      "type": "event"
    },
    {
      "anonymous": false,
      "inputs": [
        {
          "indexed": true,
          "internalType": "address",
          "name": "newContract",
          "type": "address"
        }
      ],
      "name": "SoulboundMemberContractUpdated",
      "type": "event"
    },
    {
      "anonymous": false,
      "inputs": [
        {
          "indexed": true,
          "internalType": "address",
          "name": "from",
          "type": "address"
        },
        {
          "indexed": true,
          "internalType": "address",
          "name": "to",
          "type": "address"
        },
        {
          "indexed": false,
          "internalType": "uint256",
          "name": "value",
          "type": "uint256"
        }
      ],
      "name": "Transfer",
      "type": "event"
    },
    {
      "inputs": [
        {
          "internalType": "address",
          "name": "owner",
          "type": "address"
        },
        {
          "internalType": "address",
          "name": "spender",
          "type": "address"
        }
      ],
      "name": "allowance",
      "outputs": [
        {
          "internalType": "uint256",
          "name": "",
          "type": "uint256"
        }
      ],
      "stateMutability": "view",
      "type": "function"
    },
    {
      "inputs": [
        {
          "internalType": "address",
          "name": "spender",
          "type": "address"
        },
        {
          "internalType": "uint256",
          "name": "value",
          "type": "uint256"
        }
      ],
      "name": "approve",
      "outputs": [
        {
          "internalType": "bool",
          "name": "",
          "type": "bool"
        }
      ],
      "stateMutability": "nonpayable",
      "type": "function"
    },
    {
      "inputs": [
        {
          "internalType": "address",
          "name": "account",
          "type": "address"
        }
      ],
      "name": "balanceOf",
      "outputs": [
        {
          "internalType": "uint256",
          "name": "",
          "type": "uint256"
        }
      ],
      "stateMutability": "view",
      "type": "function"
    },
    {
      "inputs": [
        {
          "internalType": "address",
          "name": "from",
          "type": "address"
        },
        {
          "internalType": "uint256",
          "name": "amount",
          "type": "uint256"
        }
      ],
      "name": "burnFrom",
      "outputs": [],
      "stateMutability": "nonpayable",
      "type": "function"
    },
    {
      "inputs": [],
      "name": "decimals",
      "outputs": [
        {
          "internalType": "uint8",
          "name": "",
          "type": "uint8"
        }
      ],
      "stateMutability": "view",
      "type": "function"
    },
    {
      "inputs": [
        {
          "internalType": "address",
          "name": "to",
          "type": "address"
        },
        {
          "internalType": "uint256",
          "name": "amount",
          "type": "uint256"
        }
      ],
      "name": "mint",
      "outputs": [],
      "stateMutability": "nonpayable",
      "type": "function"
    },
    {
      "inputs": [],
      "name": "name",
      "outputs": [
        {
          "internalType": "string",
          "name": "",
          "type": "string"
        }
      ],
      "stateMutability": "view",
      "type": "function"
    },
    {
      "inputs": [],
      "name": "owner",
      "outputs": [
        {
          "internalType": "address",
          "name": "",
          "type": "address"
        }
      ],
      "stateMutability": "view",
      "type": "function"
    },
    {
      "inputs": [],
      "name": "petitionContract",
      "outputs": [
        {
          "internalType": "address",
          "name": "",
          "type": "address"
        }
      ],
      "stateMutability": "view",
      "type": "function"
    },
    {
      "inputs": [],
      "name": "renounceOwnership",
      "outputs": [],
      "stateMutability": "nonpayable",
      "type": "function"
    },
    {
      "inputs": [
        {
          "internalType": "address",
          "name": "_petitionContract",
          "type": "address"
        }
      ],
      "name": "setPetitionContract",
      "outputs": [],
      "stateMutability": "nonpayable",
      "type": "function"
    },
    {
      "inputs": [
        {
          "internalType": "address",
          "name": "_soulboundMemberContract",
          "type": "address"
        }
      ],
      "name": "setSoulboundMemberContract",
      "outputs": [],
      "stateMutability": "nonpayable",
      "type": "function"
    },
    {
      "inputs": [],
      "name": "soulboundMemberContract",
      "outputs": [
        {
          "internalType": "address",
          "name": "",
          "type": "address"
        }
      ],
      "stateMutability": "view",
      "type": "function"
    },
    {
      "inputs": [],
      "name": "symbol",
      "outputs": [
        {
          "internalType": "string",
          "name": "",
          "type": "string"
        }
      ],
      "stateMutability": "view",
      "type": "function"
    },
    {
      "inputs": [],
      "name": "totalSupply",
      "outputs": [
        {
          "internalType": "uint256",
          "name": "",
          "type": "uint256"
        }
      ],
      "stateMutability": "view",
      "type": "function"
    },
    {
      "inputs": [
        {
          "internalType": "address",
          "name": "to",
          "type": "address"
        },
        {
          "internalType": "uint256",
          "name": "value",
          "type": "uint256"
        }
      ],
      "name": "transfer",
      "outputs": [
        {
          "internalType": "bool",
          "name": "",
          "type": "bool"
        }
      ],
      "stateMutability": "nonpayable",
      "type": "function"
    },
    {
      "inputs": [
        {
          "internalType": "address",
          "name": "from",
          "type": "address"
        },
        {
          "internalType": "address",
          "name": "to",
          "type": "address"
        },
        {
          "internalType": "uint256",
          "name": "value",
          "type": "uint256"
        }
      ],
      "name": "transferFrom",
      "outputs": [
        {
          "internalType": "bool",
          "name": "",
          "type": "bool"
        }
      ],
      "stateMutability": "nonpayable",
      "type": "function"
    },
    {
      "inputs": [
        {
          "internalType": "address",
          "name": "newOwner",
          "type": "address"
        }
      ],
      "name": "transferOwnership",
      "outputs": [],
      "stateMutability": "nonpayable",
      "type": "function"
    }
  ],
  "bytecode": "0x60806040523461038d57604080519081016001600160401b03811182821017610298576040908152600e82526d21b0b6b830b4b3b7102a37b5b2b760911b602083015280519081016001600160401b03811182821017610298576040526004815263043414d560e41b602082015281516001600160401b03811161029857600354600181811c91168015610383575b602082101461027857601f811161031e575b50602092601f82116001146102b957928192936000926102ae575b50508160011b916000199060031b1c1916176003555b80516001600160401b03811161029857600454600181811c9116801561028e575b602082101461027857601f8111610213575b50602091601f82116001146101af579181926000926101a4575b50508160011b916000199060031b1c1916176004555b331561018e5760058054336001600160a01b03198216811790925560405191906001600160a01b03167f8be0079c531659141344cd1fd0a4f28419497f9722a3daafe3b4186f6b6457e0600080a3610b3190816103938239f35b631e4fbdf760e01b600052600060045260246000fd5b01519050388061011e565b601f198216926004600052806000209160005b8581106101fb575083600195106101e2575b505050811b01600455610134565b015160001960f88460031b161c191690553880806101d4565b919260206001819286850151815501940192016101c2565b60046000527f8a35acfbc15ff81a39ae7d344fd709f28e8600b4aa8c65c6b64bfe7fe36bd19b601f830160051c8101916020841061026e575b601f0160051c01905b8181106102625750610104565b60008155600101610255565b909150819061024c565b634e487b7160e01b600052602260045260246000fd5b90607f16906100f2565b634e487b7160e01b600052604160045260246000fd5b0151905038806100bb565b601f198216936003600052806000209160005b86811061030657508360019596106102ed575b505050811b016003556100d1565b015160001960f88460031b161c191690553880806102df565b919260206001819286850151815501940192016102cc565b60036000527fc2575a0e9e593c00f959f8c92f12db2869c3395a3b0502d05e2516446f71f85b601f830160051c81019160208410610379575b601f0160051c01905b81811061036d57506100a0565b60008155600101610360565b9091508190610357565b90607f169061008e565b600080fdfe608080604052600436101561001357600080fd5b60003560e01c90816306fdde031461087657508063095ea7b3146107f057806318160ddd146107d257806323b872dd146106e55780632aa9856f14610677578063313ce5671461065b57806340c10f1914610563578063489a5dff1461053a57806370a0823114610500578063715018a6146104a357806379cc6790146103d75780638da5cb5b146103ae57806395d89b411461028d578063a9059cbb1461025c578063dd62ed3e1461020b578063edf399db146101e2578063f2fde38b146101585763f46345fa146100e557600080fd5b34610153576020366003190112610153576100fe610992565b610106610ad2565b6001600160a01b031661011a8115156109be565b600780546001600160a01b031916821790557ff25fe24ef9c75ddf07b018d2230c34b226d4fea5945cc3135229f14b72fc6a98600080a2005b600080fd5b3461015357602036600319011261015357610171610992565b610179610ad2565b6001600160a01b031680156101cc57600580546001600160a01b0319811683179091556001600160a01b03167f8be0079c531659141344cd1fd0a4f28419497f9722a3daafe3b4186f6b6457e0600080a3005b631e4fbdf760e01b600052600060045260246000fd5b34610153576000366003190112610153576007546040516001600160a01b039091168152602090f35b3461015357604036600319011261015357610224610992565b61022c6109a8565b6001600160a01b039182166000908152600160209081526040808320949093168252928352819020549051908152f35b3461015357604036600319011261015357610282610278610992565b6024359033610a39565b602060405160018152f35b346101535760003660031901126101535760405160006004548060011c906001811680156103a4575b60208310811461039057828552908115610374575060011461031d575b50819003601f01601f191681019067ffffffffffffffff8211818310176103075761030382918260405282610949565b0390f35b634e487b7160e01b600052604160045260246000fd5b905060046000527f8a35acfbc15ff81a39ae7d344fd709f28e8600b4aa8c65c6b64bfe7fe36bd19b6000905b82821061035e575060209150820101826102d3565b6001816020925483858801015201910190610349565b90506020925060ff191682840152151560051b820101826102d3565b634e487b7160e01b84526022600452602484fd5b91607f16916102b6565b34610153576000366003190112610153576005546040516001600160a01b039091168152602090f35b34610153576040366003190112610153576103f0610992565b6024359061040960018060a01b036006541633146109fc565b6001600160a01b031690811561048d576000908282528160205260408220548181106104755760208285937fddf252ad1be2c89b69c2b068fc378daa952ba7f163c4a11628f55a4df523b3ef93869787528684520360408620558060025403600255604051908152a380f35b60649363391434e360e21b8452600452602452604452fd5b634b637e8f60e11b600052600060045260246000fd5b34610153576000366003190112610153576104bc610ad2565b600580546001600160a01b031981169091556000906001600160a01b03167f8be0079c531659141344cd1fd0a4f28419497f9722a3daafe3b4186f6b6457e08280a3005b34610153576020366003190112610153576001600160a01b03610521610992565b1660005260006020526020604060002054604051908152f35b34610153576000366003190112610153576006546040516001600160a01b039091168152602090f35b346101535760403660031901126101535761057c610992565b6024359060018060a01b036006541633148015610647575b8015610633575b6105a4906109fc565b6001600160a01b0316801561061d5760025491808301809311610607576020926002557fddf252ad1be2c89b69c2b068fc378daa952ba7f163c4a11628f55a4df523b3ef600093849284845283825260408420818154019055604051908152a380f35b634e487b7160e01b600052601160045260246000fd5b63ec442f0560e01b600052600060045260246000fd5b506007546001600160a01b0316331461059b565b506005546001600160a01b03163314610594565b3461015357600036600319011261015357602060405160128152f35b3461015357602036600319011261015357610690610992565b610698610ad2565b6001600160a01b03166106ac8115156109be565b600680546001600160a01b031916821790557f96e3034f1c2ebd9b4032d59f8958cd43d6bf42e8740708f5277d4b42fbad079a600080a2005b34610153576060366003190112610153576106fe610992565b6107066109a8565b6001600160a01b0382166000818152600160209081526040808320338452909152902054909260443592916000198110610746575b506102829350610a39565b8381106107b557841561079f57331561078957610282946000526001602052604060002060018060a01b033316600052602052836040600020910390558461073b565b634a1406b160e11b600052600060045260246000fd5b63e602df0560e01b600052600060045260246000fd5b8390637dc7a0d960e11b6000523360045260245260445260646000fd5b34610153576000366003190112610153576020600254604051908152f35b3461015357604036600319011261015357610809610992565b60243590331561079f576001600160a01b031690811561078957336000526001602052604060002082600052602052806040600020556040519081527f8c5be1e5ebec7d5bd14f71427d1e84f3dd0314c0f7b2291e5b200ac8c7c3b92560203392a3602060405160018152f35b346101535760003660031901126101535760006003548060011c9060018116801561093f575b6020831081146103905782855290811561037457506001146108e85750819003601f01601f191681019067ffffffffffffffff8211818310176103075761030382918260405282610949565b905060036000527fc2575a0e9e593c00f959f8c92f12db2869c3395a3b0502d05e2516446f71f85b6000905b828210610929575060209150820101826102d3565b6001816020925483858801015201910190610914565b91607f169161089c565b91909160208152825180602083015260005b81811061097c575060409293506000838284010152601f8019910116010190565b806020809287010151604082860101520161095b565b600435906001600160a01b038216820361015357565b602435906001600160a01b038216820361015357565b156109c557565b60405162461bcd60e51b815260206004820152600f60248201526e496e76616c6964206164647265737360881b6044820152606490fd5b15610a0357565b60405162461bcd60e51b815260206004820152600e60248201526d139bdd08185d5d1a1bdc9a5e995960921b6044820152606490fd5b6001600160a01b031690811561048d576001600160a01b031691821561061d576000828152806020526040812054828110610ab85791604082827fddf252ad1be2c89b69c2b068fc378daa952ba7f163c4a11628f55a4df523b3ef958760209652828652038282205586815280845220818154019055604051908152a3565b916064928463391434e360e21b8452600452602452604452fd5b6005546001600160a01b03163303610ae657565b63118cdaa760e01b6000523360045260246000fdfea2646970667358221220b4cf2fc9b9f39ec84015a50fe41b1949ae63ef63f4141571811abd42b80cd0f064736f6c634300081e0033",
  "linkReferences": {},
  "deployedLinkReferences": {}
}